{
  "contractName": "AdaptiveRateCalc",
  "abi": [
    {
      "inputs": [
        {
          "internalType": "uint256",
          "name": "amount",
          "type": "uint256"
        },
        {
          "internalType": "uint256",
          "name": "maxAvailable",
          "type": "uint256"
        },
        {
          "internalType": "uint256",
          "name": "l",
          "type": "uint256"
        },
        {
          "internalType": "uint256",
          "name": "t",
          "type": "uint256"
        },
        {
          "internalType": "bool",
          "name": "k",
          "type": "bool"
        },
        {
          "internalType": "uint256",
          "name": "s",
          "type": "uint256"
        }
      ],
      "name": "rate",
      "outputs": [
        {
          "internalType": "uint256",
          "name": "",
          "type": "uint256"
        }
      ],
      "stateMutability": "view",
      "type": "function",
      "constant": true
    }
  ],
  "bytecode": "0x608060405234801561001057600080fd5b5061045a806100206000396000f3fe608060405234801561001057600080fd5b506004361061002b5760003560e01c80631f580c0314610030575b600080fd5b61006d600480360360c081101561004657600080fd5b50803590602081013590604081013590606081013590608081013515159060a0013561007f565b60408051918252519081900360200190f35b60008082116100c5576040805162461bcd60e51b815260206004820152600d60248201526c696e76616c696420737461636b60981b604482015290519081900360640190fd5b6100d7866103e863ffffffff6101c716565b8510156100f6576100ef87600263ffffffff61021216565b90506101bd565b60006101198361010d89600a63ffffffff6101c716565b9063ffffffff6101c716565b9050600061012e82600263ffffffff6101c716565b905060006101438a600263ffffffff61021216565b9050610708871115610173576101706101638b600463ffffffff6101c716565b829063ffffffff61026b16565b90505b808211156101855792506101bd915050565b898210156101b8576101ae6101a18b606463ffffffff6101c716565b8b9063ffffffff6102ad16565b93505050506101bd565b509150505b9695505050505050565b600061020983836040518060400160405280601a81526020017f536166654d6174683a206469766973696f6e206279207a65726f000000000000815250610307565b90505b92915050565b6000826102215750600061020c565b8282028284828161022e57fe5b04146102095760405162461bcd60e51b81526004018080602001828103825260218152602001806104046021913960400191505060405180910390fd5b600061020983836040518060400160405280601e81526020017f536166654d6174683a207375627472616374696f6e206f766572666c6f7700008152506103a9565b600082820183811015610209576040805162461bcd60e51b815260206004820152601b60248201527f536166654d6174683a206164646974696f6e206f766572666c6f770000000000604482015290519081900360640190fd5b600081836103935760405162461bcd60e51b81526004018080602001828103825283818151815260200191508051906020019080838360005b83811015610358578181015183820152602001610340565b50505050905090810190601f1680156103855780820380516001836020036101000a031916815260200191505b509250505060405180910390fd5b50600083858161039f57fe5b0495945050505050565b600081848411156103fb5760405162461bcd60e51b8152602060048201818152835160248401528351909283926044909101919085019080838360008315610358578181015183820152602001610340565b50505090039056fe536166654d6174683a206d756c7469706c69636174696f6e206f766572666c6f77a2646970667358221220efa63dcab6b212b7baee9e7a9ac02e722f9ac561c66c553b31a8c77ab8b1f4e464736f6c63430006060033",
  "immutableReferences": {},
  "source": "pragma solidity ^0.6.6;\n\n\nimport \"@openzeppelin/contracts/math/SafeMath.sol\";\nimport \"./RateCalc.sol\";\nimport \"./BinaryOptions.sol\";\n\ncontract AdaptiveRateCalc is IRCD {\n    using SafeMath for uint256;\n     /**\n     * @notice Calculates maximum option buyer profit\n     * @param amount Option amount\n     * @param maxAvailable the total pooled ETH unlocked and available to bet\n     * @param l the current amount of locked ETH\n     * @param t time for the option\n     * @param k true for call false for put\n     * @param s stack, how many open options there are in this direction\n     * @return profit total possible profit amount\n     */\n    function rate(uint256 amount, uint256 maxAvailable, uint256 l, uint256 t, bool k, uint256 s) external view override returns (uint256)  {\n        require(s > 0, \"invalid stack\");\n\n        if (l < maxAvailable.div(1000)) {\n            return amount.mul(2);\n        }\n        uint256 per = (maxAvailable.div(10)).div(s);\n        uint256 base = per.div(2);\n\n        \n\n        //top 1.9x\n        uint256 top = amount.mul(2);//.sub(amount.div(10));\n        if (t > 1800) { //options longer then 30 min have lower top\n            top = top.sub(amount.div(4));//max 1.65x\n        }\n\n        if (base > top) {\n            return top;\n        } else if (base < amount) {\n           //bottom 1.01x\n           return amount.add(amount.div(100));\n        } \n        //mids\n        return base;\n        \n    }\n}\n\n",
  "sourcePath": "/Users/x/Desktop/eth/BIOPv4/contracts/AdaptiveRateCalc.sol",
  "compiler": {
    "name": "solc",
    "version": "0.6.6+commit.6c089d02.Emscripten.clang"
  },
  "schemaVersion": "3.3.4",
  "updatedAt": "2021-04-05T17:26:13.879Z",
  "networkType": "ethereum",
  "devdoc": {
    "methods": {
      "rate(uint256,uint256,uint256,uint256,bool,uint256)": {
        "params": {
          "amount": "Option amount",
          "k": "true for call false for put",
          "l": "the current amount of locked ETH",
          "maxAvailable": "the total pooled ETH unlocked and available to bet",
          "s": "stack, how many open options there are in this direction",
          "t": "time for the option"
        },
        "returns": {
          "_0": "profit total possible profit amount"
        }
      }
    }
  },
  "userdoc": {
    "methods": {
      "rate(uint256,uint256,uint256,uint256,bool,uint256)": {
        "notice": "Calculates maximum option buyer profit"
      }
    }
  }
}