{
  "contractName": "AggregatorProxy",
  "abi": [
    {
      "inputs": [
        {
          "internalType": "address",
          "name": "_aggregator",
          "type": "address"
        }
      ],
      "stateMutability": "nonpayable",
      "type": "constructor"
    },
    {
      "anonymous": false,
      "inputs": [
        {
          "indexed": true,
          "internalType": "int256",
          "name": "current",
          "type": "int256"
        },
        {
          "indexed": true,
          "internalType": "uint256",
          "name": "roundId",
          "type": "uint256"
        },
        {
          "indexed": false,
          "internalType": "uint256",
          "name": "updatedAt",
          "type": "uint256"
        }
      ],
      "name": "AnswerUpdated",
      "type": "event"
    },
    {
      "anonymous": false,
      "inputs": [
        {
          "indexed": true,
          "internalType": "uint256",
          "name": "roundId",
          "type": "uint256"
        },
        {
          "indexed": true,
          "internalType": "address",
          "name": "startedBy",
          "type": "address"
        },
        {
          "indexed": false,
          "internalType": "uint256",
          "name": "startedAt",
          "type": "uint256"
        }
      ],
      "name": "NewRound",
      "type": "event"
    },
    {
      "anonymous": false,
      "inputs": [
        {
          "indexed": true,
          "internalType": "address",
          "name": "from",
          "type": "address"
        },
        {
          "indexed": true,
          "internalType": "address",
          "name": "to",
          "type": "address"
        }
      ],
      "name": "OwnershipTransferRequested",
      "type": "event"
    },
    {
      "anonymous": false,
      "inputs": [
        {
          "indexed": true,
          "internalType": "address",
          "name": "from",
          "type": "address"
        },
        {
          "indexed": true,
          "internalType": "address",
          "name": "to",
          "type": "address"
        }
      ],
      "name": "OwnershipTransferred",
      "type": "event"
    },
    {
      "inputs": [],
      "name": "acceptOwnership",
      "outputs": [],
      "stateMutability": "nonpayable",
      "type": "function"
    },
    {
      "inputs": [],
      "name": "owner",
      "outputs": [
        {
          "internalType": "address",
          "name": "",
          "type": "address"
        }
      ],
      "stateMutability": "view",
      "type": "function"
    },
    {
      "inputs": [
        {
          "internalType": "uint16",
          "name": "",
          "type": "uint16"
        }
      ],
      "name": "phaseAggregators",
      "outputs": [
        {
          "internalType": "contract AggregatorV2V3Interface",
          "name": "",
          "type": "address"
        }
      ],
      "stateMutability": "view",
      "type": "function"
    },
    {
      "inputs": [],
      "name": "proposedAggregator",
      "outputs": [
        {
          "internalType": "contract AggregatorV2V3Interface",
          "name": "",
          "type": "address"
        }
      ],
      "stateMutability": "view",
      "type": "function"
    },
    {
      "inputs": [
        {
          "internalType": "address",
          "name": "_to",
          "type": "address"
        }
      ],
      "name": "transferOwnership",
      "outputs": [],
      "stateMutability": "nonpayable",
      "type": "function"
    },
    {
      "inputs": [],
      "name": "latestAnswer",
      "outputs": [
        {
          "internalType": "int256",
          "name": "answer",
          "type": "int256"
        }
      ],
      "stateMutability": "view",
      "type": "function"
    },
    {
      "inputs": [],
      "name": "latestTimestamp",
      "outputs": [
        {
          "internalType": "uint256",
          "name": "updatedAt",
          "type": "uint256"
        }
      ],
      "stateMutability": "view",
      "type": "function"
    },
    {
      "inputs": [
        {
          "internalType": "uint256",
          "name": "_roundId",
          "type": "uint256"
        }
      ],
      "name": "getAnswer",
      "outputs": [
        {
          "internalType": "int256",
          "name": "answer",
          "type": "int256"
        }
      ],
      "stateMutability": "view",
      "type": "function"
    },
    {
      "inputs": [
        {
          "internalType": "uint256",
          "name": "_roundId",
          "type": "uint256"
        }
      ],
      "name": "getTimestamp",
      "outputs": [
        {
          "internalType": "uint256",
          "name": "updatedAt",
          "type": "uint256"
        }
      ],
      "stateMutability": "view",
      "type": "function"
    },
    {
      "inputs": [],
      "name": "latestRound",
      "outputs": [
        {
          "internalType": "uint256",
          "name": "roundId",
          "type": "uint256"
        }
      ],
      "stateMutability": "view",
      "type": "function"
    },
    {
      "inputs": [
        {
          "internalType": "uint80",
          "name": "_roundId",
          "type": "uint80"
        }
      ],
      "name": "getRoundData",
      "outputs": [
        {
          "internalType": "uint80",
          "name": "roundId",
          "type": "uint80"
        },
        {
          "internalType": "int256",
          "name": "answer",
          "type": "int256"
        },
        {
          "internalType": "uint256",
          "name": "startedAt",
          "type": "uint256"
        },
        {
          "internalType": "uint256",
          "name": "updatedAt",
          "type": "uint256"
        },
        {
          "internalType": "uint80",
          "name": "answeredInRound",
          "type": "uint80"
        }
      ],
      "stateMutability": "view",
      "type": "function"
    },
    {
      "inputs": [],
      "name": "latestRoundData",
      "outputs": [
        {
          "internalType": "uint80",
          "name": "roundId",
          "type": "uint80"
        },
        {
          "internalType": "int256",
          "name": "answer",
          "type": "int256"
        },
        {
          "internalType": "uint256",
          "name": "startedAt",
          "type": "uint256"
        },
        {
          "internalType": "uint256",
          "name": "updatedAt",
          "type": "uint256"
        },
        {
          "internalType": "uint80",
          "name": "answeredInRound",
          "type": "uint80"
        }
      ],
      "stateMutability": "view",
      "type": "function"
    },
    {
      "inputs": [
        {
          "internalType": "uint80",
          "name": "_roundId",
          "type": "uint80"
        }
      ],
      "name": "proposedGetRoundData",
      "outputs": [
        {
          "internalType": "uint80",
          "name": "roundId",
          "type": "uint80"
        },
        {
          "internalType": "int256",
          "name": "answer",
          "type": "int256"
        },
        {
          "internalType": "uint256",
          "name": "startedAt",
          "type": "uint256"
        },
        {
          "internalType": "uint256",
          "name": "updatedAt",
          "type": "uint256"
        },
        {
          "internalType": "uint80",
          "name": "answeredInRound",
          "type": "uint80"
        }
      ],
      "stateMutability": "view",
      "type": "function"
    },
    {
      "inputs": [],
      "name": "proposedLatestRoundData",
      "outputs": [
        {
          "internalType": "uint80",
          "name": "roundId",
          "type": "uint80"
        },
        {
          "internalType": "int256",
          "name": "answer",
          "type": "int256"
        },
        {
          "internalType": "uint256",
          "name": "startedAt",
          "type": "uint256"
        },
        {
          "internalType": "uint256",
          "name": "updatedAt",
          "type": "uint256"
        },
        {
          "internalType": "uint80",
          "name": "answeredInRound",
          "type": "uint80"
        }
      ],
      "stateMutability": "view",
      "type": "function"
    },
    {
      "inputs": [],
      "name": "aggregator",
      "outputs": [
        {
          "internalType": "address",
          "name": "",
          "type": "address"
        }
      ],
      "stateMutability": "view",
      "type": "function"
    },
    {
      "inputs": [],
      "name": "phaseId",
      "outputs": [
        {
          "internalType": "uint16",
          "name": "",
          "type": "uint16"
        }
      ],
      "stateMutability": "view",
      "type": "function"
    },
    {
      "inputs": [],
      "name": "decimals",
      "outputs": [
        {
          "internalType": "uint8",
          "name": "",
          "type": "uint8"
        }
      ],
      "stateMutability": "view",
      "type": "function"
    },
    {
      "inputs": [],
      "name": "version",
      "outputs": [
        {
          "internalType": "uint256",
          "name": "",
          "type": "uint256"
        }
      ],
      "stateMutability": "view",
      "type": "function"
    },
    {
      "inputs": [],
      "name": "description",
      "outputs": [
        {
          "internalType": "string",
          "name": "",
          "type": "string"
        }
      ],
      "stateMutability": "view",
      "type": "function"
    },
    {
      "inputs": [
        {
          "internalType": "address",
          "name": "_aggregator",
          "type": "address"
        }
      ],
      "name": "proposeAggregator",
      "outputs": [],
      "stateMutability": "nonpayable",
      "type": "function"
    },
    {
      "inputs": [
        {
          "internalType": "address",
          "name": "_aggregator",
          "type": "address"
        }
      ],
      "name": "confirmAggregator",
      "outputs": [],
      "stateMutability": "nonpayable",
      "type": "function"
    }
  ],
  "bytecode": "0x608060405234801561001057600080fd5b506040516111cd3803806111cd8339818101604052602081101561003357600080fd5b5051600080546001600160a01b03191633179055610059816001600160e01b0361005f16565b506100ce565b60028054604080518082018252600161ffff80851691909101168082526001600160a01b0395909516602091820181905261ffff19909316851762010000600160b01b0319166201000084021790935560009384526004909252912080546001600160a01b0319169091179055565b6110f0806100dd6000396000f3fe608060405234801561001057600080fd5b50600436106101375760003560e01c80638da5cb5b116100b8578063b633620c1161007c578063b633620c14610331578063c15973041461034e578063e8c4be301461036f578063f2fde38b14610377578063f8a2abd31461039d578063feaf968c146103c357610137565b80638da5cb5b146102b85780638f6b4d91146102c05780639a6fc8f5146102c8578063a928c096146102ee578063b5ab58dc1461031457610137565b80636001ac53116100ff5780636001ac53146101bf578063668a0f02146102215780637284e4161461022957806379ba5097146102a65780638205bf6a146102b057610137565b8063245a7bfc1461013c578063313ce5671461016057806350d25bcd1461017e57806354fd4d501461019857806358303b10146101a0575b600080fd5b6101446103cb565b604080516001600160a01b039092168252519081900360200190f35b6101686103e0565b6040805160ff9092168252519081900360200190f35b610186610464565b60408051918252519081900360200190f35b6101866104b7565b6101a861050a565b6040805161ffff9092168252519081900360200190f35b6101e5600480360360208110156101d557600080fd5b50356001600160501b0316610514565b604080516001600160501b0396871681526020810195909552848101939093526060840191909152909216608082015290519081900360a00190f35b610186610623565b6102316106d1565b6040805160208082528351818301528351919283929083019185019080838360005b8381101561026b578181015183820152602001610253565b50505050905090810190601f1680156102985780820380516001836020036101000a031916815260200191505b509250505060405180910390f35b6102ae610816565b005b6101866108c5565b610144610918565b6101e5610927565b6101e5600480360360208110156102de57600080fd5b50356001600160501b0316610a2f565b6102ae6004803603602081101561030457600080fd5b50356001600160a01b0316610b39565b6101866004803603602081101561032a57600080fd5b5035610c0f565b6101866004803603602081101561034757600080fd5b5035610cec565b6101446004803603602081101561036457600080fd5b503561ffff16610d92565b610144610dad565b6102ae6004803603602081101561038d57600080fd5b50356001600160a01b0316610dbc565b6102ae600480360360208110156103b357600080fd5b50356001600160a01b0316610e65565b6101e5610edf565b6002546201000090046001600160a01b031690565b6000600260000160029054906101000a90046001600160a01b03166001600160a01b031663313ce5676040518163ffffffff1660e01b815260040160206040518083038186803b15801561043357600080fd5b505afa158015610447573d6000803e3d6000fd5b505050506040513d602081101561045d57600080fd5b5051905090565b6000600260000160029054906101000a90046001600160a01b03166001600160a01b03166350d25bcd6040518163ffffffff1660e01b815260040160206040518083038186803b15801561043357600080fd5b6000600260000160029054906101000a90046001600160a01b03166001600160a01b03166354fd4d506040518163ffffffff1660e01b815260040160206040518083038186803b15801561043357600080fd5b60025461ffff1690565b60035460009081908190819081906001600160a01b031661057c576040805162461bcd60e51b815260206004820152601e60248201527f4e6f2070726f706f7365642061676772656761746f722070726573656e740000604482015290519081900360640190fd5b60035460408051639a6fc8f560e01b81526001600160501b038916600482015290516001600160a01b0390921691639a6fc8f59160248082019260a092909190829003018186803b1580156105d057600080fd5b505afa1580156105e4573d6000803e3d6000fd5b505050506040513d60a08110156105fa57600080fd5b508051602082015160408301516060840151608090940151929a91995097509195509350915050565b600061062d6110a3565b5060408051808201825260025461ffff8116808352620100009091046001600160a01b031660208084018290528451633345078160e11b8152945193946106c29463668a0f0292600480840193919291829003018186803b15801561069157600080fd5b505afa1580156106a5573d6000803e3d6000fd5b505050506040513d60208110156106bb57600080fd5b5051610fd6565b6001600160501b031691505090565b6060600260000160029054906101000a90046001600160a01b03166001600160a01b0316637284e4166040518163ffffffff1660e01b815260040160006040518083038186803b15801561072457600080fd5b505afa158015610738573d6000803e3d6000fd5b505050506040513d6000823e601f3d908101601f19168201604052602081101561076157600080fd5b810190808051604051939291908464010000000082111561078157600080fd5b90830190602082018581111561079657600080fd5b82516401000000008111828201881017156107b057600080fd5b82525081516020918201929091019080838360005b838110156107dd5781810151838201526020016107c5565b50505050905090810190601f16801561080a5780820380516001836020036101000a031916815260200191505b50604052505050905090565b6001546001600160a01b0316331461086e576040805162461bcd60e51b815260206004820152601660248201527526bab9ba10313290383937b837b9b2b21037bbb732b960511b604482015290519081900360640190fd5b60008054336001600160a01b0319808316821784556001805490911690556040516001600160a01b0390921692909183917f8be0079c531659141344cd1fd0a4f28419497f9722a3daafe3b4186f6b6457e091a350565b6000600260000160029054906101000a90046001600160a01b03166001600160a01b0316638205bf6a6040518163ffffffff1660e01b815260040160206040518083038186803b15801561043357600080fd5b6000546001600160a01b031681565b60035460009081908190819081906001600160a01b031661098f576040805162461bcd60e51b815260206004820152601e60248201527f4e6f2070726f706f7365642061676772656761746f722070726573656e740000604482015290519081900360640190fd5b600360009054906101000a90046001600160a01b03166001600160a01b031663feaf968c6040518163ffffffff1660e01b815260040160a06040518083038186803b1580156109dd57600080fd5b505afa1580156109f1573d6000803e3d6000fd5b505050506040513d60a0811015610a0757600080fd5b5080516020820151604083015160608401516080909401519299919850965091945092509050565b6000806000806000806000610a4c886001600160501b0316610ff6565b61ffff82166000908152600460208190526040808320548151639a6fc8f560e01b815267ffffffffffffffff8616938101939093529051949650929450909283928392839283926001600160a01b031691639a6fc8f59160248083019260a0929190829003018186803b158015610ac257600080fd5b505afa158015610ad6573d6000803e3d6000fd5b505050506040513d60a0811015610aec57600080fd5b50805160208201516040830151606084015160809094015192985090965094509092509050610b1f85858585858c610ffe565b9b509b509b509b509b505050505050505091939590929450565b6000546001600160a01b03163314610b91576040805162461bcd60e51b815260206004820152601660248201527527b7363c9031b0b63630b1363290313c9037bbb732b960511b604482015290519081900360640190fd5b6003546001600160a01b03828116911614610bf3576040805162461bcd60e51b815260206004820152601b60248201527f496e76616c69642070726f706f7365642061676772656761746f720000000000604482015290519081900360640190fd5b600380546001600160a01b0319169055610c0c81611034565b50565b60006001600160501b03821115610c2857506000610ce7565b600080610c3484610ff6565b61ffff821660009081526004602052604090205491935091506001600160a01b031680610c675760009350505050610ce7565b806001600160a01b031663b5ab58dc836040518263ffffffff1660e01b8152600401808267ffffffffffffffff16815260200191505060206040518083038186803b158015610cb557600080fd5b505afa158015610cc9573d6000803e3d6000fd5b505050506040513d6020811015610cdf57600080fd5b505193505050505b919050565b60006001600160501b03821115610d0557506000610ce7565b600080610d1184610ff6565b61ffff821660009081526004602052604090205491935091506001600160a01b031680610d445760009350505050610ce7565b806001600160a01b031663b633620c836040518263ffffffff1660e01b8152600401808267ffffffffffffffff16815260200191505060206040518083038186803b158015610cb557600080fd5b6004602052600090815260409020546001600160a01b031681565b6003546001600160a01b031681565b6000546001600160a01b03163314610e14576040805162461bcd60e51b815260206004820152601660248201527527b7363c9031b0b63630b1363290313c9037bbb732b960511b604482015290519081900360640190fd5b600180546001600160a01b0319166001600160a01b0383811691821790925560008054604051929316917fed8889f560326eb138920d842192f0eb3dd22b4f139c87a2c57538e05bae12789190a350565b6000546001600160a01b03163314610ebd576040805162461bcd60e51b815260206004820152601660248201527527b7363c9031b0b63630b1363290313c9037bbb732b960511b604482015290519081900360640190fd5b600380546001600160a01b0319166001600160a01b0392909216919091179055565b6000806000806000610eef6110a3565b5060408051808201825260025461ffff811682526201000090046001600160a01b0316602082018190528251633fabe5a360e21b81529251919260009283928392839283929163feaf968c9160048083019260a0929190829003018186803b158015610f5a57600080fd5b505afa158015610f6e573d6000803e3d6000fd5b505050506040513d60a0811015610f8457600080fd5b5080516020820151604083015160608401516080909401518a519399509197509550919350909150610fbf9086908690869086908690610ffe565b9a509a509a509a509a505050505050509091929394565b67ffffffffffffffff1660409190911b69ffff0000000000000000161790565b604081901c91565b6000806000806000611010868c610fd6565b8a8a8a61101d8a8c610fd6565b939f929e50909c509a509098509650505050505050565b60028054604080518082018252600161ffff80851691909101168082526001600160a01b0395909516602091820181905261ffff19909316851762010000600160b01b0319166201000084021790935560009384526004909252912080546001600160a01b0319169091179055565b60408051808201909152600080825260208201529056fea2646970667358221220cd0c0bb7f70507826d68055a898faa6b00f97104324e7505fc0fd9aa3753c91e64736f6c63430006060033",
  "immutableReferences": {},
  "source": "pragma solidity ^0.6.6;\n\ninterface AggregatorInterface {\n  function latestAnswer() external view returns (int256);\n  function latestTimestamp() external view returns (uint256);\n  function latestRound() external view returns (uint256);\n  function getAnswer(uint256 roundId) external view returns (int256);\n  function getTimestamp(uint256 roundId) external view returns (uint256);\n\n  event AnswerUpdated(int256 indexed current, uint256 indexed roundId, uint256 updatedAt);\n  event NewRound(uint256 indexed roundId, address indexed startedBy, uint256 startedAt);\n}\ninterface AggregatorV3Interface {\n\n  function decimals() external view returns (uint8);\n  function description() external view returns (string memory);\n  function version() external view returns (uint256);\n\n  // getRoundData and latestRoundData should both raise \"No data present\"\n  // if they do not have data to report, instead of returning unset values\n  // which could be misinterpreted as actual reported values.\n  function getRoundData(uint80 _roundId)\n    external\n    view\n    returns (\n      uint80 roundId,\n      int256 answer,\n      uint256 startedAt,\n      uint256 updatedAt,\n      uint80 answeredInRound\n    );\n  function latestRoundData()\n    external\n    view\n    returns (\n      uint80 roundId,\n      int256 answer,\n      uint256 startedAt,\n      uint256 updatedAt,\n      uint80 answeredInRound\n    );\n\n}\ninterface AggregatorV2V3Interface is AggregatorInterface, AggregatorV3Interface\n{\n}\n\n/**\n * @title The Owned contract\n * @notice A contract with helpers for basic contract ownership.\n */\ncontract Owned {\n\n  address public owner;\n  address private pendingOwner;\n\n  event OwnershipTransferRequested(\n    address indexed from,\n    address indexed to\n  );\n  event OwnershipTransferred(\n    address indexed from,\n    address indexed to\n  );\n\n  constructor() public {\n    owner = msg.sender;\n  }\n\n  /**\n   * @dev Allows an owner to begin transferring ownership to a new address,\n   * pending.\n   */\n  function transferOwnership(address _to)\n    external\n    onlyOwner()\n  {\n    pendingOwner = _to;\n\n    emit OwnershipTransferRequested(owner, _to);\n  }\n\n  /**\n   * @dev Allows an ownership transfer to be completed by the recipient.\n   */\n  function acceptOwnership()\n    external\n  {\n    require(msg.sender == pendingOwner, \"Must be proposed owner\");\n\n    address oldOwner = owner;\n    owner = msg.sender;\n    pendingOwner = address(0);\n\n    emit OwnershipTransferred(oldOwner, msg.sender);\n  }\n\n  /**\n   * @dev Reverts if called by anyone other than the contract owner.\n   */\n  modifier onlyOwner() {\n    require(msg.sender == owner, \"Only callable by owner\");\n    _;\n  }\n\n}\ncontract AggregatorProxy is AggregatorV2V3Interface, Owned {\n\n  struct Phase {\n    uint16 id;\n    AggregatorV2V3Interface aggregator;\n  }\n  Phase private currentPhase;\n  AggregatorV2V3Interface public proposedAggregator;\n  mapping(uint16 => AggregatorV2V3Interface) public phaseAggregators;\n\n  uint256 constant private PHASE_OFFSET = 64;\n  uint256 constant private PHASE_SIZE = 16;\n  uint256 constant private MAX_ID = 2**(PHASE_OFFSET+PHASE_SIZE) - 1;\n\n  constructor(address _aggregator) public Owned() {\n    setAggregator(_aggregator);\n  }\n\n  /**\n   * @notice Reads the current answer from aggregator delegated to.\n   *\n   * @dev #[deprecated] Use latestRoundData instead. This does not error if no\n   * answer has been reached, it will simply return 0. Either wait to point to\n   * an already answered Aggregator or use the recommended latestRoundData\n   * instead which includes better verification information.\n   */\n  function latestAnswer()\n    public\n    view\n    virtual\n    override\n    returns (int256 answer)\n  {\n    return currentPhase.aggregator.latestAnswer();\n  }\n\n  /**\n   * @notice Reads the last updated height from aggregator delegated to.\n   *\n   * @dev #[deprecated] Use latestRoundData instead. This does not error if no\n   * answer has been reached, it will simply return 0. Either wait to point to\n   * an already answered Aggregator or use the recommended latestRoundData\n   * instead which includes better verification information.\n   */\n  function latestTimestamp()\n    public\n    view\n    virtual\n    override\n    returns (uint256 updatedAt)\n  {\n    return currentPhase.aggregator.latestTimestamp();\n  }\n\n  /**\n   * @notice get past rounds answers\n   * @param _roundId the answer number to retrieve the answer for\n   *\n   * @dev #[deprecated] Use getRoundData instead. This does not error if no\n   * answer has been reached, it will simply return 0. Either wait to point to\n   * an already answered Aggregator or use the recommended getRoundData\n   * instead which includes better verification information.\n   */\n  function getAnswer(uint256 _roundId)\n    public\n    view\n    virtual\n    override\n    returns (int256 answer)\n  {\n    if (_roundId > MAX_ID) return 0;\n\n    (uint16 phaseId, uint64 aggregatorRoundId) = parseIds(_roundId);\n    AggregatorV2V3Interface aggregator = phaseAggregators[phaseId];\n    if (address(aggregator) == address(0)) return 0;\n\n    return aggregator.getAnswer(aggregatorRoundId);\n  }\n\n  /**\n   * @notice get block timestamp when an answer was last updated\n   * @param _roundId the answer number to retrieve the updated timestamp for\n   *\n   * @dev #[deprecated] Use getRoundData instead. This does not error if no\n   * answer has been reached, it will simply return 0. Either wait to point to\n   * an already answered Aggregator or use the recommended getRoundData\n   * instead which includes better verification information.\n   */\n  function getTimestamp(uint256 _roundId)\n    public\n    view\n    virtual\n    override\n    returns (uint256 updatedAt)\n  {\n    if (_roundId > MAX_ID) return 0;\n\n    (uint16 phaseId, uint64 aggregatorRoundId) = parseIds(_roundId);\n    AggregatorV2V3Interface aggregator = phaseAggregators[phaseId];\n    if (address(aggregator) == address(0)) return 0;\n\n    return aggregator.getTimestamp(aggregatorRoundId);\n  }\n\n  /**\n   * @notice get the latest completed round where the answer was updated. This\n   * ID includes the proxy's phase, to make sure round IDs increase even when\n   * switching to a newly deployed aggregator.\n   *\n   * @dev #[deprecated] Use latestRoundData instead. This does not error if no\n   * answer has been reached, it will simply return 0. Either wait to point to\n   * an already answered Aggregator or use the recommended latestRoundData\n   * instead which includes better verification information.\n   */\n  function latestRound()\n    public\n    view\n    virtual\n    override\n    returns (uint256 roundId)\n  {\n    Phase memory phase = currentPhase; // cache storage reads\n    return addPhase(phase.id, uint64(phase.aggregator.latestRound()));\n  }\n\n  /**\n   * @notice get data about a round. Consumers are encouraged to check\n   * that they're receiving fresh data by inspecting the updatedAt and\n   * answeredInRound return values.\n   * Note that different underlying implementations of AggregatorV3Interface\n   * have slightly different semantics for some of the return values. Consumers\n   * should determine what implementations they expect to receive\n   * data from and validate that they can properly handle return data from all\n   * of them.\n   * @param _roundId the requested round ID as presented through the proxy, this\n   * is made up of the aggregator's round ID with the phase ID encoded in the\n   * two highest order bytes\n   * @return roundId is the round ID from the aggregator for which the data was\n   * retrieved combined with an phase to ensure that round IDs get larger as\n   * time moves forward.\n   * @return answer is the answer for the given round\n   * @return startedAt is the timestamp when the round was started.\n   * (Only some AggregatorV3Interface implementations return meaningful values)\n   * @return updatedAt is the timestamp when the round last was updated (i.e.\n   * answer was last computed)\n   * @return answeredInRound is the round ID of the round in which the answer\n   * was computed.\n   * (Only some AggregatorV3Interface implementations return meaningful values)\n   * @dev Note that answer and updatedAt may change between queries.\n   */\n  function getRoundData(uint80 _roundId)\n    public\n    view\n    virtual\n    override\n    returns (\n      uint80 roundId,\n      int256 answer,\n      uint256 startedAt,\n      uint256 updatedAt,\n      uint80 answeredInRound\n    )\n  {\n    (uint16 phaseId, uint64 aggregatorRoundId) = parseIds(_roundId);\n\n    (\n      uint80 roundId,\n      int256 answer,\n      uint256 startedAt,\n      uint256 updatedAt,\n      uint80 ansIn\n    ) = phaseAggregators[phaseId].getRoundData(aggregatorRoundId);\n\n    return addPhaseIds(roundId, answer, startedAt, updatedAt, ansIn, phaseId);\n  }\n\n  /**\n   * @notice get data about the latest round. Consumers are encouraged to check\n   * that they're receiving fresh data by inspecting the updatedAt and\n   * answeredInRound return values.\n   * Note that different underlying implementations of AggregatorV3Interface\n   * have slightly different semantics for some of the return values. Consumers\n   * should determine what implementations they expect to receive\n   * data from and validate that they can properly handle return data from all\n   * of them.\n   * @return roundId is the round ID from the aggregator for which the data was\n   * retrieved combined with an phase to ensure that round IDs get larger as\n   * time moves forward.\n   * @return answer is the answer for the given round\n   * @return startedAt is the timestamp when the round was started.\n   * (Only some AggregatorV3Interface implementations return meaningful values)\n   * @return updatedAt is the timestamp when the round last was updated (i.e.\n   * answer was last computed)\n   * @return answeredInRound is the round ID of the round in which the answer\n   * was computed.\n   * (Only some AggregatorV3Interface implementations return meaningful values)\n   * @dev Note that answer and updatedAt may change between queries.\n   */\n  function latestRoundData()\n    public\n    view\n    virtual\n    override\n    returns (\n      uint80 roundId,\n      int256 answer,\n      uint256 startedAt,\n      uint256 updatedAt,\n      uint80 answeredInRound\n    )\n  {\n    Phase memory current = currentPhase; // cache storage reads\n\n    (\n      uint80 roundId,\n      int256 answer,\n      uint256 startedAt,\n      uint256 updatedAt,\n      uint80 ansIn\n    ) = current.aggregator.latestRoundData();\n\n    return addPhaseIds(roundId, answer, startedAt, updatedAt, ansIn, current.id);\n  }\n\n  /**\n   * @notice Used if an aggregator contract has been proposed.\n   * @param _roundId the round ID to retrieve the round data for\n   * @return roundId is the round ID for which data was retrieved\n   * @return answer is the answer for the given round\n   * @return startedAt is the timestamp when the round was started.\n   * (Only some AggregatorV3Interface implementations return meaningful values)\n   * @return updatedAt is the timestamp when the round last was updated (i.e.\n   * answer was last computed)\n   * @return answeredInRound is the round ID of the round in which the answer\n   * was computed.\n  */\n  function proposedGetRoundData(uint80 _roundId)\n    public\n    view\n    virtual\n    hasProposal()\n    returns (\n      uint80 roundId,\n      int256 answer,\n      uint256 startedAt,\n      uint256 updatedAt,\n      uint80 answeredInRound\n    )\n  {\n    return proposedAggregator.getRoundData(_roundId);\n  }\n\n  /**\n   * @notice Used if an aggregator contract has been proposed.\n   * @return roundId is the round ID for which data was retrieved\n   * @return answer is the answer for the given round\n   * @return startedAt is the timestamp when the round was started.\n   * (Only some AggregatorV3Interface implementations return meaningful values)\n   * @return updatedAt is the timestamp when the round last was updated (i.e.\n   * answer was last computed)\n   * @return answeredInRound is the round ID of the round in which the answer\n   * was computed.\n  */\n  function proposedLatestRoundData()\n    public\n    view\n    virtual\n    hasProposal()\n    returns (\n      uint80 roundId,\n      int256 answer,\n      uint256 startedAt,\n      uint256 updatedAt,\n      uint80 answeredInRound\n    )\n  {\n    return proposedAggregator.latestRoundData();\n  }\n\n  /**\n   * @notice returns the current phase's aggregator address.\n   */\n  function aggregator()\n    external\n    view\n    returns (address)\n  {\n    return address(currentPhase.aggregator);\n  }\n\n  /**\n   * @notice returns the current phase's ID.\n   */\n  function phaseId()\n    external\n    view\n    returns (uint16)\n  {\n    return currentPhase.id;\n  }\n\n  /**\n   * @notice represents the number of decimals the aggregator responses represent.\n   */\n  function decimals()\n    external\n    view\n    override\n    returns (uint8)\n  {\n    return currentPhase.aggregator.decimals();\n  }\n\n  /**\n   * @notice the version number representing the type of aggregator the proxy\n   * points to.\n   */\n  function version()\n    external\n    view\n    override\n    returns (uint256)\n  {\n    return currentPhase.aggregator.version();\n  }\n\n  /**\n   * @notice returns the description of the aggregator the proxy points to.\n   */\n  function description()\n    external\n    view\n    override\n    returns (string memory)\n  {\n    return currentPhase.aggregator.description();\n  }\n\n  /**\n   * @notice Allows the owner to propose a new address for the aggregator\n   * @param _aggregator The new address for the aggregator contract\n   */\n  function proposeAggregator(address _aggregator)\n    external\n    onlyOwner()\n  {\n    proposedAggregator = AggregatorV2V3Interface(_aggregator);\n  }\n\n  /**\n   * @notice Allows the owner to confirm and change the address\n   * to the proposed aggregator\n   * @dev Reverts if the given address doesn't match what was previously\n   * proposed\n   * @param _aggregator The new address for the aggregator contract\n   */\n  function confirmAggregator(address _aggregator)\n    external\n    onlyOwner()\n  {\n    require(_aggregator == address(proposedAggregator), \"Invalid proposed aggregator\");\n    delete proposedAggregator;\n    setAggregator(_aggregator);\n  }\n\n\n  /*\n   * Internal\n   */\n\n  function setAggregator(address _aggregator)\n    internal\n  {\n    uint16 id = currentPhase.id + 1;\n    currentPhase = Phase(id, AggregatorV2V3Interface(_aggregator));\n    phaseAggregators[id] = AggregatorV2V3Interface(_aggregator);\n  }\n\n  function addPhase(\n    uint16 _phase,\n    uint64 _originalId\n  )\n    internal\n    view\n    returns (uint80)\n  {\n    return uint80(uint256(_phase) << PHASE_OFFSET | _originalId);\n  }\n\n  function parseIds(\n    uint256 _roundId\n  )\n    internal\n    view\n    returns (uint16, uint64)\n  {\n    uint16 phaseId = uint16(_roundId >> PHASE_OFFSET);\n    uint64 aggregatorRoundId = uint64(_roundId);\n\n    return (phaseId, aggregatorRoundId);\n  }\n\n  function addPhaseIds(\n      uint80 roundId,\n      int256 answer,\n      uint256 startedAt,\n      uint256 updatedAt,\n      uint80 answeredInRound,\n      uint16 phaseId\n  )\n    internal\n    view\n    returns (uint80, int256, uint256, uint256, uint80)\n  {\n    return (\n      addPhase(phaseId, uint64(roundId)),\n      answer,\n      startedAt,\n      updatedAt,\n      addPhase(phaseId, uint64(answeredInRound))\n    );\n  }\n\n  /*\n   * Modifiers\n   */\n\n  modifier hasProposal() {\n    require(address(proposedAggregator) != address(0), \"No proposed aggregator present\");\n    _;\n  }\n\n}",
  "sourcePath": "/Users/x/Desktop/eth/BIOPv4/contracts/Chainlink/AggregatorProxy.sol",
  "compiler": {
    "name": "solc",
    "version": "0.6.6+commit.6c089d02.Emscripten.clang"
  },
  "schemaVersion": "3.3.4",
  "updatedAt": "2021-05-21T05:15:35.984Z",
  "devdoc": {
    "methods": {
      "acceptOwnership()": {
        "details": "Allows an ownership transfer to be completed by the recipient."
      },
      "confirmAggregator(address)": {
        "details": "Reverts if the given address doesn't match what was previously proposed",
        "params": {
          "_aggregator": "The new address for the aggregator contract"
        }
      },
      "getAnswer(uint256)": {
        "details": "#[deprecated] Use getRoundData instead. This does not error if no answer has been reached, it will simply return 0. Either wait to point to an already answered Aggregator or use the recommended getRoundData instead which includes better verification information.",
        "params": {
          "_roundId": "the answer number to retrieve the answer for"
        }
      },
      "getRoundData(uint80)": {
        "details": "Note that answer and updatedAt may change between queries.",
        "params": {
          "_roundId": "the requested round ID as presented through the proxy, this is made up of the aggregator's round ID with the phase ID encoded in the two highest order bytes"
        },
        "returns": {
          "answer": "is the answer for the given round",
          "answeredInRound": "is the round ID of the round in which the answer was computed. (Only some AggregatorV3Interface implementations return meaningful values)",
          "roundId": "is the round ID from the aggregator for which the data was retrieved combined with an phase to ensure that round IDs get larger as time moves forward.",
          "startedAt": "is the timestamp when the round was started. (Only some AggregatorV3Interface implementations return meaningful values)",
          "updatedAt": "is the timestamp when the round last was updated (i.e. answer was last computed)"
        }
      },
      "getTimestamp(uint256)": {
        "details": "#[deprecated] Use getRoundData instead. This does not error if no answer has been reached, it will simply return 0. Either wait to point to an already answered Aggregator or use the recommended getRoundData instead which includes better verification information.",
        "params": {
          "_roundId": "the answer number to retrieve the updated timestamp for"
        }
      },
      "latestAnswer()": {
        "details": "#[deprecated] Use latestRoundData instead. This does not error if no answer has been reached, it will simply return 0. Either wait to point to an already answered Aggregator or use the recommended latestRoundData instead which includes better verification information."
      },
      "latestRound()": {
        "details": "#[deprecated] Use latestRoundData instead. This does not error if no answer has been reached, it will simply return 0. Either wait to point to an already answered Aggregator or use the recommended latestRoundData instead which includes better verification information."
      },
      "latestRoundData()": {
        "details": "Note that answer and updatedAt may change between queries.",
        "returns": {
          "answer": "is the answer for the given round",
          "answeredInRound": "is the round ID of the round in which the answer was computed. (Only some AggregatorV3Interface implementations return meaningful values)",
          "roundId": "is the round ID from the aggregator for which the data was retrieved combined with an phase to ensure that round IDs get larger as time moves forward.",
          "startedAt": "is the timestamp when the round was started. (Only some AggregatorV3Interface implementations return meaningful values)",
          "updatedAt": "is the timestamp when the round last was updated (i.e. answer was last computed)"
        }
      },
      "latestTimestamp()": {
        "details": "#[deprecated] Use latestRoundData instead. This does not error if no answer has been reached, it will simply return 0. Either wait to point to an already answered Aggregator or use the recommended latestRoundData instead which includes better verification information."
      },
      "proposeAggregator(address)": {
        "params": {
          "_aggregator": "The new address for the aggregator contract"
        }
      },
      "proposedGetRoundData(uint80)": {
        "params": {
          "_roundId": "the round ID to retrieve the round data for"
        },
        "returns": {
          "answer": "is the answer for the given round",
          "answeredInRound": "is the round ID of the round in which the answer was computed.",
          "roundId": "is the round ID for which data was retrieved",
          "startedAt": "is the timestamp when the round was started. (Only some AggregatorV3Interface implementations return meaningful values)",
          "updatedAt": "is the timestamp when the round last was updated (i.e. answer was last computed)"
        }
      },
      "transferOwnership(address)": {
        "details": "Allows an owner to begin transferring ownership to a new address, pending."
      }
    }
  },
  "userdoc": {
    "methods": {
      "aggregator()": {
        "notice": "returns the current phase's aggregator address."
      },
      "confirmAggregator(address)": {
        "notice": "Allows the owner to confirm and change the address to the proposed aggregator"
      },
      "decimals()": {
        "notice": "represents the number of decimals the aggregator responses represent."
      },
      "description()": {
        "notice": "returns the description of the aggregator the proxy points to."
      },
      "getAnswer(uint256)": {
        "notice": "get past rounds answers"
      },
      "getRoundData(uint80)": {
        "notice": "get data about a round. Consumers are encouraged to check that they're receiving fresh data by inspecting the updatedAt and answeredInRound return values. Note that different underlying implementations of AggregatorV3Interface have slightly different semantics for some of the return values. Consumers should determine what implementations they expect to receive data from and validate that they can properly handle return data from all of them."
      },
      "getTimestamp(uint256)": {
        "notice": "get block timestamp when an answer was last updated"
      },
      "latestAnswer()": {
        "notice": "Reads the current answer from aggregator delegated to."
      },
      "latestRound()": {
        "notice": "get the latest completed round where the answer was updated. This ID includes the proxy's phase, to make sure round IDs increase even when switching to a newly deployed aggregator."
      },
      "latestRoundData()": {
        "notice": "get data about the latest round. Consumers are encouraged to check that they're receiving fresh data by inspecting the updatedAt and answeredInRound return values. Note that different underlying implementations of AggregatorV3Interface have slightly different semantics for some of the return values. Consumers should determine what implementations they expect to receive data from and validate that they can properly handle return data from all of them."
      },
      "latestTimestamp()": {
        "notice": "Reads the last updated height from aggregator delegated to."
      },
      "phaseId()": {
        "notice": "returns the current phase's ID."
      },
      "proposeAggregator(address)": {
        "notice": "Allows the owner to propose a new address for the aggregator"
      },
      "proposedGetRoundData(uint80)": {
        "notice": "Used if an aggregator contract has been proposed."
      },
      "proposedLatestRoundData()": {
        "notice": "Used if an aggregator contract has been proposed."
      },
      "version()": {
        "notice": "the version number representing the type of aggregator the proxy points to."
      }
    }
  }
}