{
  "contractName": "APP",
  "abi": [
    {
      "inputs": [
        {
          "internalType": "address",
          "name": "pp_",
          "type": "address"
        },
        {
          "internalType": "address",
          "name": "rc_",
          "type": "address"
        }
      ],
      "stateMutability": "nonpayable",
      "type": "constructor"
    },
    {
      "inputs": [],
      "name": "owner",
      "outputs": [
        {
          "internalType": "address",
          "name": "",
          "type": "address"
        }
      ],
      "stateMutability": "view",
      "type": "function",
      "constant": true
    },
    {
      "inputs": [
        {
          "internalType": "address",
          "name": "pp",
          "type": "address"
        }
      ],
      "name": "aprvd",
      "outputs": [
        {
          "internalType": "address",
          "name": "",
          "type": "address"
        }
      ],
      "stateMutability": "view",
      "type": "function",
      "constant": true
    },
    {
      "inputs": [
        {
          "internalType": "address",
          "name": "newOwner",
          "type": "address"
        }
      ],
      "name": "transferOwner",
      "outputs": [],
      "stateMutability": "nonpayable",
      "type": "function"
    },
    {
      "inputs": [
        {
          "internalType": "address",
          "name": "newPP_",
          "type": "address"
        },
        {
          "internalType": "address",
          "name": "rateCalc_",
          "type": "address"
        }
      ],
      "name": "addPP",
      "outputs": [],
      "stateMutability": "nonpayable",
      "type": "function"
    },
    {
      "inputs": [
        {
          "internalType": "address",
          "name": "oldPP_",
          "type": "address"
        }
      ],
      "name": "removePP",
      "outputs": [],
      "stateMutability": "nonpayable",
      "type": "function"
    }
  ],
  "bytecode": "0x608060405234801561001057600080fd5b506040516103863803806103868339818101604052604081101561003357600080fd5b508051602091820151600080546001600160a01b0319908116331782556001600160a01b03938416825260019094526040902080549290911691909216179055610304806100826000396000f3fe608060405234801561001057600080fd5b50600436106100575760003560e01c80634fb2e45d1461005c5780638da5cb5b14610084578063b7a9eaa9146100a8578063bc086215146100ce578063f4a6e1e2146100fc575b600080fd5b6100826004803603602081101561007257600080fd5b50356001600160a01b0316610122565b005b61008c61019c565b604080516001600160a01b039092168252519081900360200190f35b61008c600480360360208110156100be57600080fd5b50356001600160a01b03166101ab565b610082600480360360408110156100e457600080fd5b506001600160a01b03813581169160200135166101c9565b6100826004803603602081101561011257600080fd5b50356001600160a01b031661024f565b6000546001600160a01b0316331461017a576040805162461bcd60e51b815260206004820152601660248201527527b7363c9031b0b63630b1363290313c9037bbb732b960511b604482015290519081900360640190fd5b600080546001600160a01b0319166001600160a01b0392909216919091179055565b6000546001600160a01b031681565b6001600160a01b039081166000908152600160205260409020541690565b6000546001600160a01b03163314610221576040805162461bcd60e51b815260206004820152601660248201527527b7363c9031b0b63630b1363290313c9037bbb732b960511b604482015290519081900360640190fd5b6001600160a01b03918216600090815260016020526040902080546001600160a01b03191691909216179055565b6000546001600160a01b031633146102a7576040805162461bcd60e51b815260206004820152601660248201527527b7363c9031b0b63630b1363290313c9037bbb732b960511b604482015290519081900360640190fd5b6001600160a01b0316600090815260016020526040902080546001600160a01b031916905556fea2646970667358221220a2aefe580bea25beaac0dc9769d5d07a901f0b1b706e1a25f14b8f1eb5bc78d964736f6c63430006060033",
  "immutableReferences": {},
  "source": "pragma solidity ^0.6.6;\n\n\nimport \"./interfaces/IAPP.sol\";\n\n/******************************************************************************\\\n* Author: BIOPset (https://biopset.com)\n* APP: Approved Price Providers\n/******************************************************************************/\n\ncontract APP is IAPP {\n    address public owner;\n    mapping(address=>address) private approved;\n\n     /**\n    * @param pp_ the price provider to add initially\n    * @param rc_ the ratecalc to add initially\n    */\n    constructor(address pp_, address rc_) public {\n        owner = msg.sender;\n        approved[pp_] = rc_;\n    }\n\n     /**\n    * @dev Reverts if called by anyone other than the contract owner.\n    */\n    modifier onlyOwner() {\n        require(msg.sender == owner, \"Only callable by owner\");\n        _;\n    }\n\n     /**\n    * @dev get the ratecalc for a price provider\n    * @param pp the price provider to look up\n    */\n    function aprvd(address pp)  external view override returns(address){\n       return approved[pp];\n    }\n\n    /**\n    * @dev transfer the owner\n    * @param newOwner new owner address\n    */\n    function transferOwner(address newOwner) external onlyOwner {\n        owner = newOwner;\n    }\n\n     /**\n    * @dev enable a new price provider\n    * @param newPP_ the price provider to add\n    * @param rateCalc_ the rate calc to use with the new price provider\n    */\n    function addPP(address newPP_, address rateCalc_) external override onlyOwner {\n        approved[newPP_] = rateCalc_;\n    }\n\n    /**\n    * @dev disable a new price provider\n    * @param oldPP_ the price provider to disable\n    */\n    function removePP(address oldPP_) external override onlyOwner {\n        approved[oldPP_] = 0x0000000000000000000000000000000000000000;\n    }\n    \n}\n",
  "sourcePath": "/Users/x/Desktop/eth/BIOPv4/contracts/APP.sol",
  "compiler": {
    "name": "solc",
    "version": "0.6.6+commit.6c089d02.Emscripten.clang"
  },
  "schemaVersion": "3.3.4",
  "updatedAt": "2021-05-15T01:01:11.514Z",
  "networkType": "ethereum",
  "devdoc": {
    "methods": {
      "addPP(address,address)": {
        "details": "enable a new price provider",
        "params": {
          "newPP_": "the price provider to add",
          "rateCalc_": "the rate calc to use with the new price provider"
        }
      },
      "aprvd(address)": {
        "details": "get the ratecalc for a price provider",
        "params": {
          "pp": "the price provider to look up"
        }
      },
      "constructor": {
        "params": {
          "pp_": "the price provider to add initially",
          "rc_": "the ratecalc to add initially"
        }
      },
      "removePP(address)": {
        "details": "disable a new price provider",
        "params": {
          "oldPP_": "the price provider to disable"
        }
      },
      "transferOwner(address)": {
        "details": "transfer the owner",
        "params": {
          "newOwner": "new owner address"
        }
      }
    }
  },
  "userdoc": {
    "methods": {},
    "notice": "****************************************************************************\\ Author: BIOPset (https://biopset.com) APP: Approved Price Providers /*****************************************************************************"
  }
}