{
  "contractName": "APP",
  "abi": [
    {
      "inputs": [
        {
          "internalType": "address",
          "name": "pp_",
          "type": "address"
        },
        {
          "internalType": "address",
          "name": "rc_",
          "type": "address"
        }
      ],
      "stateMutability": "nonpayable",
      "type": "constructor"
    },
    {
      "inputs": [],
      "name": "owner",
      "outputs": [
        {
          "internalType": "address",
          "name": "",
          "type": "address"
        }
      ],
      "stateMutability": "view",
      "type": "function",
      "constant": true
    },
    {
      "inputs": [],
      "name": "pendingOwner",
      "outputs": [
        {
          "internalType": "address",
          "name": "",
          "type": "address"
        }
      ],
      "stateMutability": "view",
      "type": "function",
      "constant": true
    },
    {
      "inputs": [
        {
          "internalType": "address",
          "name": "pp",
          "type": "address"
        }
      ],
      "name": "aprvd",
      "outputs": [
        {
          "internalType": "address",
          "name": "",
          "type": "address"
        }
      ],
      "stateMutability": "view",
      "type": "function",
      "constant": true
    },
    {
      "inputs": [
        {
          "internalType": "address",
          "name": "newOwner",
          "type": "address"
        }
      ],
      "name": "transferOwner",
      "outputs": [],
      "stateMutability": "nonpayable",
      "type": "function"
    },
    {
      "inputs": [
        {
          "internalType": "address",
          "name": "newOwner",
          "type": "address"
        }
      ],
      "name": "acceptOwnership",
      "outputs": [],
      "stateMutability": "nonpayable",
      "type": "function"
    },
    {
      "inputs": [
        {
          "internalType": "address",
          "name": "newPP_",
          "type": "address"
        },
        {
          "internalType": "address",
          "name": "rateCalc_",
          "type": "address"
        }
      ],
      "name": "addPP",
      "outputs": [],
      "stateMutability": "nonpayable",
      "type": "function"
    },
    {
      "inputs": [
        {
          "internalType": "address",
          "name": "oldPP_",
          "type": "address"
        }
      ],
      "name": "removePP",
      "outputs": [],
      "stateMutability": "nonpayable",
      "type": "function"
    }
  ],
  "bytecode": "0x608060405234801561001057600080fd5b5060405161055a38038061055a8339818101604052604081101561003357600080fd5b508051602091820151600080546001600160a01b0319908116331782556001600160a01b039384168252600290945260409020805492909116919092161790556104d8806100826000396000f3fe608060405234801561001057600080fd5b506004361061007d5760003560e01c8063b7a9eaa91161005b578063b7a9eaa9146100f4578063bc0862151461011a578063e30c397814610148578063f4a6e1e2146101505761007d565b80634fb2e45d1461008257806351710e45146100aa5780638da5cb5b146100d0575b600080fd5b6100a86004803603602081101561009857600080fd5b50356001600160a01b0316610176565b005b6100a8600480360360208110156100c057600080fd5b50356001600160a01b031661023b565b6100d86102bf565b604080516001600160a01b039092168252519081900360200190f35b6100d86004803603602081101561010a57600080fd5b50356001600160a01b03166102ce565b6100a86004803603604081101561013057600080fd5b506001600160a01b03813581169160200135166102ec565b6100d8610414565b6100a86004803603602081101561016657600080fd5b50356001600160a01b0316610423565b6000546001600160a01b031633146101ce576040805162461bcd60e51b815260206004820152601660248201527527b7363c9031b0b63630b1363290313c9037bbb732b960511b604482015290519081900360640190fd5b6001600160a01b038116610219576040805162461bcd60e51b815260206004820152600d60248201526c34b73b30b634b21037bbb732b960991b604482015290519081900360640190fd5b600180546001600160a01b0319166001600160a01b0392909216919091179055565b6001546001600160a01b0316331461029a576040805162461bcd60e51b815260206004820152601d60248201527f6f6e6c792063616c6c61626c652062792070656e64696e674f776e6572000000604482015290519081900360640190fd5b50600154600080546001600160a01b0319166001600160a01b03909216919091179055565b6000546001600160a01b031681565b6001600160a01b039081166000908152600260205260409020541690565b6000546001600160a01b03163314610344576040805162461bcd60e51b815260206004820152601660248201527527b7363c9031b0b63630b1363290313c9037bbb732b960511b604482015290519081900360640190fd5b6001600160a01b038216610398576040805162461bcd60e51b815260206004820152601660248201527524b73b30b634b210283934b1b290283937bb34b232b960511b604482015290519081900360640190fd5b6001600160a01b0381166103e6576040805162461bcd60e51b815260206004820152601060248201526f496e76616c6964205261746543616c6360801b604482015290519081900360640190fd5b6001600160a01b03918216600090815260026020526040902080546001600160a01b03191691909216179055565b6001546001600160a01b031681565b6000546001600160a01b0316331461047b576040805162461bcd60e51b815260206004820152601660248201527527b7363c9031b0b63630b1363290313c9037bbb732b960511b604482015290519081900360640190fd5b6001600160a01b0316600090815260026020526040902080546001600160a01b031916905556fea2646970667358221220cf4e953ca6c84febfed39841bb101a60b41461e13587240f3841232fb68d59ca64736f6c63430006060033",
  "immutableReferences": {},
  "source": "pragma solidity 0.6.6;\n\n\nimport \"./interfaces/IAPP.sol\";\n\n/******************************************************************************\\\n* Author: BIOPset (https://biopset.com)\n* APP: Approved Price Providers\n/******************************************************************************/\n\ncontract APP is IAPP {\n    address public owner;\n    address public pendingOwner;\n    mapping(address=>address) private approved;\n\n     /**\n    * @param pp_ the price provider to add initially\n    * @param rc_ the ratecalc to add initially\n    */\n    constructor(address pp_, address rc_) public {\n        owner = msg.sender;\n        approved[pp_] = rc_;\n    }\n\n     /**\n    * @dev Reverts if called by anyone other than the contract owner.\n    */\n    modifier onlyOwner() {\n        require(msg.sender == owner, \"Only callable by owner\");\n        _;\n    }\n\n     /**\n    * @dev get the ratecalc for a price provider\n    * @param pp the price provider to look up\n    */\n    function aprvd(address pp)  external view override returns(address){\n       return approved[pp];\n    }\n\n    /**\n    * @dev transfer the owner\n    * @param newOwner new owner address\n    */\n    function transferOwner(address newOwner) external onlyOwner {\n        require(newOwner != 0x0000000000000000000000000000000000000000, \"invalid owner\");\n        pendingOwner = newOwner;\n    }\n\n    /**\n    * @dev Accept pending ownership of this contract\n    */\n    function acceptOwnership(address newOwner) external {\n        require(msg.sender == pendingOwner, \"only callable by pendingOwner\");\n        owner = pendingOwner;\n    }\n\n     /**\n    * @dev enable a new price provider\n    * @param newPP_ the price provider to add\n    * @param rateCalc_ the rate calc to use with the new price provider\n    */\n    function addPP(address newPP_, address rateCalc_) external override onlyOwner {\n        require(newPP_ != 0x0000000000000000000000000000000000000000, \"Invalid Price Provider\");\n        require(rateCalc_ != 0x0000000000000000000000000000000000000000, \"Invalid RateCalc\");\n        approved[newPP_] = rateCalc_;\n    }\n\n    /**\n    * @dev disable a new price provider\n    * @param oldPP_ the price provider to disable\n    */\n    function removePP(address oldPP_) external override onlyOwner {\n        delete approved[oldPP_];\n    }\n    \n}\n",
  "sourcePath": "/Users/x/Desktop/eth/BIOPv4/contracts/APP.sol",
  "compiler": {
    "name": "solc",
    "version": "0.6.6+commit.6c089d02.Emscripten.clang"
  },
  "schemaVersion": "3.3.4",
  "updatedAt": "2021-06-22T04:29:44.260Z",
  "networkType": "ethereum",
  "devdoc": {
    "methods": {
      "acceptOwnership(address)": {
        "details": "Accept pending ownership of this contract"
      },
      "addPP(address,address)": {
        "details": "enable a new price provider",
        "params": {
          "newPP_": "the price provider to add",
          "rateCalc_": "the rate calc to use with the new price provider"
        }
      },
      "aprvd(address)": {
        "details": "get the ratecalc for a price provider",
        "params": {
          "pp": "the price provider to look up"
        }
      },
      "constructor": {
        "params": {
          "pp_": "the price provider to add initially",
          "rc_": "the ratecalc to add initially"
        }
      },
      "removePP(address)": {
        "details": "disable a new price provider",
        "params": {
          "oldPP_": "the price provider to disable"
        }
      },
      "transferOwner(address)": {
        "details": "transfer the owner",
        "params": {
          "newOwner": "new owner address"
        }
      }
    }
  },
  "userdoc": {
    "methods": {},
    "notice": "****************************************************************************\\ Author: BIOPset (https://biopset.com) APP: Approved Price Providers /*****************************************************************************"
  }
}