{
  "contractName": "BasicRateCalc",
  "abi": [
    {
      "inputs": [
        {
          "internalType": "uint256",
          "name": "amount",
          "type": "uint256"
        },
        {
          "internalType": "uint256",
          "name": "l",
          "type": "uint256"
        },
        {
          "internalType": "uint256",
          "name": "t",
          "type": "uint256"
        },
        {
          "internalType": "bool",
          "name": "k",
          "type": "bool"
        },
        {
          "internalType": "uint256",
          "name": "s",
          "type": "uint256"
        },
        {
          "internalType": "uint256",
          "name": "tP",
          "type": "uint256"
        }
      ],
      "name": "rate",
      "outputs": [
        {
          "internalType": "uint256",
          "name": "",
          "type": "uint256"
        }
      ],
      "stateMutability": "view",
      "type": "function",
      "constant": true
    }
  ],
  "bytecode": "0x608060405234801561001057600080fd5b50610589806100206000396000f3fe608060405234801561001057600080fd5b506004361061002b5760003560e01c80633a95144814610030575b600080fd5b61006d600480360360c081101561004657600080fd5b50803590602081013590604081013590606081013515159060808101359060a0013561007f565b60408051918252519081900360200190f35b600061009282606463ffffffff6102bc16565b86106100d4576040805162461bcd60e51b815260206004820152600c60248201526b1c1bdbdb081a5cc8199d5b1b60a21b604482015290519081900360640190fd5b60006100e6838863ffffffff61030716565b905060006100fb89600263ffffffff61034916565b905061010e8260c863ffffffff6102bc16565b891061014e576040805162461bcd60e51b815260206004820152600a60248201526962657420746f2062696760b01b604482015290519081900360640190fd5b61016182620186a063ffffffff6102bc16565b8910156101f45760968511156101a55761019c898361019761018a83606463ffffffff6102bc16565b8d9063ffffffff6103a216565b6103fc565b925050506102b2565b60648511156101c75761019c898361019761018a83600463ffffffff6102bc16565b60328511156101e95761019c898361019761018a83600263ffffffff6102bc16565b61019c8983836103fc565b610206826103e863ffffffff6102bc16565b8910156102875760148511156102215761019c89838b6103fc565b600f8511156102435761019c898361019761018a83606463ffffffff6102bc16565b600a8511156102655761019c898361019761018a83600463ffffffff6102bc16565b60058511156101e95761019c898361019761018a83600263ffffffff6102bc16565b6102ad89836101976102a083600a63ffffffff6102bc16565b859063ffffffff61030716565b925050505b9695505050505050565b60006102fe83836040518060400160405280601a81526020017f536166654d6174683a206469766973696f6e206279207a65726f000000000000815250610436565b90505b92915050565b60006102fe83836040518060400160405280601e81526020017f536166654d6174683a207375627472616374696f6e206f766572666c6f7700008152506104d8565b60008261035857506000610301565b8282028284828161036557fe5b04146102fe5760405162461bcd60e51b81526004018080602001828103825260218152602001806105336021913960400191505060405180910390fd5b6000828201838110156102fe576040805162461bcd60e51b815260206004820152601b60248201527f536166654d6174683a206164646974696f6e206f766572666c6f770000000000604482015290519081900360640190fd5b60005b8282111561042f5761042861041b85606463ffffffff6102bc16565b839063ffffffff61030716565b91506103ff565b5092915050565b600081836104c25760405162461bcd60e51b81526004018080602001828103825283818151815260200191508051906020019080838360005b8381101561048757818101518382015260200161046f565b50505050905090810190601f1680156104b45780820380516001836020036101000a031916815260200191505b509250505060405180910390fd5b5060008385816104ce57fe5b0495945050505050565b6000818484111561052a5760405162461bcd60e51b815260206004820181815283516024840152835190928392604490910191908501908083836000831561048757818101518382015260200161046f565b50505090039056fe536166654d6174683a206d756c7469706c69636174696f6e206f766572666c6f77a2646970667358221220337486777584ac1acf2f8f17b03e63709d0f3b4d69ee3175b03325c555d6d9f164736f6c63430006060033",
  "immutableReferences": {},
  "source": "pragma solidity ^0.6.6;\n\n\nimport \"@openzeppelin/contracts/math/SafeMath.sol\";\nimport \"./interfaces/IRateCalc.sol\";\n\ncontract BasicRateCalc is IRateCalc {\n    using SafeMath for uint256;\n     /**\n     * @notice Calculates maximum option buyer profit\n     * @param amount Traders option payment\n     * @param l the current amount of locked ETH\n     * @param t time/rounds for the option  (not used in this RateCalc)\n     * @param k true for call false for put (Not used in this RateCalc)\n     * @param s stack, how many open options there are already in this direction\n     * @param tP the amount of tokens stored currently in the pool the option be created on\n     * @return profit total possible profit amount\n     * \n     * @dev the amount returned represents the total amount which is to be locked. This means that any amount returned represents the traders full bet amount and the pools stake compbined.\n     */\n    function rate(uint256 amount, uint256 l, uint256 t, bool k, uint256 s, uint256 tP) external view override returns (uint256)  {\n        \n        //check less then 1% is already locked\n        require(l < tP.div(100), \"pool is full\");\n        \n        uint256 canLock = tP.sub(l);\n        uint256 double = amount.mul(2);\n        //check bet is less then 0.5%\n        require(amount < canLock.div(200), \"bet to big\");\n        \n        //for small bets less then 0.001% of pool\n        if (amount < canLock.div(100000)) {\n            if ( s > 150 ) {\n                return actualRate(amount, canLock, amount.add(amount.div(100)));\n            } else if (s > 100) {\n                //more then 100 bets in the same direction: 1.25x\n                return actualRate(amount, canLock, amount.add(amount.div(4)));\n            } else  if (s > 50) {\n                //more then 50 bets in the same direction: 1.5x\n                return actualRate(amount, canLock, amount.add((amount.div(2))));\n            } else {\n                // 2x\n                return actualRate(amount, canLock, double);\n            }\n        }\n        \n        //for bets between 0.001%-0.1% of pool\n        if (amount < canLock.div(1000)) {\n            if (s > 20) {\n                return actualRate(amount, canLock, amount);\n            } else if (s > 15) {\n                //more then 15 bets in the same direction: 1.1x\n                return actualRate(amount, canLock, amount.add(amount.div(100)));\n            } else if (s > 10) {\n                // 1.25x\n                return actualRate(amount, canLock, amount.add(amount.div(4)));\n            } else  if (s > 5) {\n                //1.5x\n                return actualRate(amount, canLock, amount.add((amount.div(2))));\n            } else {\n                // 2x\n                return actualRate(amount, canLock, double);\n            }\n        }\n        \n        return actualRate(amount, canLock, double.sub(amount.div(10)));\n    }\n    \n    function actualRate(uint256 amount, uint256 canLock, uint256 startRate) internal pure returns (uint256){\n        while (startRate > canLock) {\n            startRate = startRate.sub(amount.div(100));\n        }\n        return startRate;\n    }\n}\n",
  "sourcePath": "/Users/x/Desktop/eth/BIOPv4/contracts/BasicRateCalc.sol",
  "compiler": {
    "name": "solc",
    "version": "0.6.6+commit.6c089d02.Emscripten.clang"
  },
  "schemaVersion": "3.3.4",
  "updatedAt": "2021-05-15T01:01:11.540Z",
  "networkType": "ethereum",
  "devdoc": {
    "methods": {
      "rate(uint256,uint256,uint256,bool,uint256,uint256)": {
        "details": "the amount returned represents the total amount which is to be locked. This means that any amount returned represents the traders full bet amount and the pools stake compbined.",
        "params": {
          "amount": "Traders option payment",
          "k": "true for call false for put (Not used in this RateCalc)",
          "l": "the current amount of locked ETH",
          "s": "stack, how many open options there are already in this direction",
          "t": "time/rounds for the option  (not used in this RateCalc)",
          "tP": "the amount of tokens stored currently in the pool the option be created on"
        },
        "returns": {
          "_0": "profit total possible profit amount "
        }
      }
    }
  },
  "userdoc": {
    "methods": {
      "rate(uint256,uint256,uint256,bool,uint256,uint256)": {
        "notice": "Calculates maximum option buyer profit"
      }
    }
  }
}