{
  "contractName": "BasicRateCalc",
  "abi": [
    {
      "inputs": [
        {
          "internalType": "uint256",
          "name": "amount",
          "type": "uint256"
        },
        {
          "internalType": "uint256",
          "name": "l",
          "type": "uint256"
        },
        {
          "internalType": "uint256",
          "name": "t",
          "type": "uint256"
        },
        {
          "internalType": "bool",
          "name": "k",
          "type": "bool"
        },
        {
          "internalType": "uint256",
          "name": "oC",
          "type": "uint256"
        },
        {
          "internalType": "uint256",
          "name": "oP",
          "type": "uint256"
        },
        {
          "internalType": "uint256",
          "name": "tP",
          "type": "uint256"
        }
      ],
      "name": "rate",
      "outputs": [
        {
          "internalType": "uint256",
          "name": "",
          "type": "uint256"
        }
      ],
      "stateMutability": "view",
      "type": "function"
    }
  ],
  "bytecode": "0x608060405234801561001057600080fd5b50610535806100206000396000f3fe608060405234801561001057600080fd5b506004361061002b5760003560e01c80634682fdce14610030575b600080fd5b610073600480360360e081101561004657600080fd5b50803590602081013590604081013590606081013515159060808101359060a08101359060c00135610085565b60408051918252519081900360200190f35b600080610098858563ffffffff61024f16565b90506100ab83600a63ffffffff6102b216565b81106100fe576040805162461bcd60e51b815260206004820152601e60248201527f706f6f6c206973206174206d6178696d756d207574696c697a6174696f6e0000604482015290519081900360640190fd5b61010f8360c863ffffffff6102b216565b8910610157576040805162461bcd60e51b8152602060048201526012602482015271706f736974696f6e20746f6f206c6172676560701b604482015290519081900360640190fd5b600084861415610179576101728460c863ffffffff6102b216565b9050610220565b848611156101dd5786156101bf576101b8866101ac876101a08860c863ffffffff6102b216565b9063ffffffff61024f16565b9063ffffffff6102f416565b90506101d8565b610172856101ac886101a08860c863ffffffff6102b216565b610220565b8585111561022057861561020457610172866101ac876101a08860c863ffffffff6102b216565b61021d856101ac886101a08860c863ffffffff6102b216565b90505b60006102338b600263ffffffff61033616565b90506102408b838361038f565b9b9a5050505050505050505050565b6000828201838110156102a9576040805162461bcd60e51b815260206004820152601b60248201527f536166654d6174683a206164646974696f6e206f766572666c6f770000000000604482015290519081900360640190fd5b90505b92915050565b60006102a983836040518060400160405280601a81526020017f536166654d6174683a206469766973696f6e206279207a65726f0000000000008152506103e2565b60006102a983836040518060400160405280601e81526020017f536166654d6174683a207375627472616374696f6e206f766572666c6f770000815250610484565b600082610345575060006102ac565b8282028284828161035257fe5b04146102a95760405162461bcd60e51b81526004018080602001828103825260218152602001806104df6021913960400191505060405180910390fd5b6000828211156103db576040805162461bcd60e51b8152602060048201526012602482015271706f736974696f6e20746f6f206c6172676560701b604482015290519081900360640190fd5b5092915050565b6000818361046e5760405162461bcd60e51b81526004018080602001828103825283818151815260200191508051906020019080838360005b8381101561043357818101518382015260200161041b565b50505050905090810190601f1680156104605780820380516001836020036101000a031916815260200191505b509250505060405180910390fd5b50600083858161047a57fe5b0495945050505050565b600081848411156104d65760405162461bcd60e51b815260206004820181815283516024840152835190928392604490910191908501908083836000831561043357818101518382015260200161041b565b50505090039056fe536166654d6174683a206d756c7469706c69636174696f6e206f766572666c6f77a264697066735822122064b10b4b6e40f7014d26d255792935116003c6668f46b3b77ab03444b0210cff64736f6c63430006060033",
  "immutableReferences": {},
  "source": "pragma solidity 0.6.6;\n\n\nimport \"@openzeppelin/contracts/math/SafeMath.sol\";\nimport \"./interfaces/IRateCalc.sol\";\n\ncontract BasicRateCalc is IRateCalc {\n    using SafeMath for uint256;\n     /**\n     * @notice Calculates maximum option value\n     * @param amount the trader's option payment\n     * @param l the current amount of locked ETH\n     * @param t time/rounds for the option  (not used in this RateCalc)\n     * @param k true for call false for put (not used in this RateCalc)\n     * @param oC  how many open call options there are currently\n     * @param oP  how many open put options there are currently\n     * @param tP the amount of tokens currently stored in the active pool\n     * @return profit total possible profit amount\n     *\n     * @dev the amount returned represents the total amount which is to be locked. This means that any amount returned represents the option's purchase price and the pool's stake combined.\n     */\n    function rate(uint256 amount, uint256 l, uint256 t, bool k, uint256 oC, uint256 oP, uint256 tP) external view override returns (uint256)  {\n\n        //limit pool utilization (should never exceed 99% if amount is 0.5% of the pool)\n        uint256 uP = oC.add(oP); //define pool utilization to be the sum of open calls and open puts\n        require(uP < tP.div(10), \"pool is at maximum utilization\"); //limit pool utilization to 10% of the pool\n\n        //check that option premium/payment is no more than 0.5% of the pool\n        require(amount < tP.div(200), \"position too large\");\n\n        uint256 canLock;\n        //if the difference between calls and puts is zero\n        if (oC == oP) {\n          canLock = tP.div(200); //limit the lock to 0.5% of pool\n        } else if (oC > oP) {\n          if (k) { //opening a call option\n            canLock = tP.div(200).add(oP).sub(oC); //adjust the lock the lock downward for balance\n          } else { //opening a put option\n            canLock = tP.div(200).add(oC).sub(oP); //adjust the lock the lock upward for balance\n          }\n        } else if (oP > oC) {\n          if (k) { //opening a call option\n            canLock = tP.div(200).add(oP).sub(oC); //adjust the lock the lock upward for balance\n          } else { //opening a put option\n            canLock = tP.div(200).add(oC).sub(oP); //adjust the lock the lock downward for balance\n          }\n\n        }\n\n        //the default return rate of biopset options is 2x\n        uint256 double = amount.mul(2);\n        return actualRate(amount, canLock, double);\n    }\n\n    function actualRate(uint256 amount, uint256 canLock, uint256 startRate) internal pure returns (uint256){\n        //make sure that the option value is less than (or equal to) the amount that can be locked.\n        require(startRate <= canLock, \"position too large\");\n        return startRate;\n    }\n}\n",
  "sourcePath": "/Users/x/Desktop/eth/BIOPv4/contracts/BasicRateCalc.sol",
  "compiler": {
    "name": "solc",
    "version": "0.6.6+commit.6c089d02.Emscripten.clang"
  },
  "schemaVersion": "3.3.4",
  "updatedAt": "2021-06-14T19:21:29.438Z",
  "devdoc": {
    "methods": {
      "rate(uint256,uint256,uint256,bool,uint256,uint256,uint256)": {
        "details": "the amount returned represents the total amount which is to be locked. This means that any amount returned represents the option's purchase price and the pool's stake combined.",
        "params": {
          "amount": "the trader's option payment",
          "k": "true for call false for put (not used in this RateCalc)",
          "l": "the current amount of locked ETH",
          "oC": "how many open call options there are currently",
          "oP": "how many open put options there are currently",
          "t": "time/rounds for the option  (not used in this RateCalc)",
          "tP": "the amount of tokens currently stored in the active pool"
        },
        "returns": {
          "_0": "profit total possible profit amount"
        }
      }
    }
  },
  "userdoc": {
    "methods": {
      "rate(uint256,uint256,uint256,bool,uint256,uint256,uint256)": {
        "notice": "Calculates maximum option value"
      }
    }
  }
}