{
  "contractName": "BinaryOptions",
  "abi": [
    {
      "inputs": [
        {
          "internalType": "string",
          "name": "name_",
          "type": "string"
        },
        {
          "internalType": "string",
          "name": "symbol_",
          "type": "string"
        },
        {
          "internalType": "address",
          "name": "biop_",
          "type": "address"
        },
        {
          "internalType": "address",
          "name": "uR_",
          "type": "address"
        },
        {
          "internalType": "address",
          "name": "app_",
          "type": "address"
        }
      ],
      "stateMutability": "nonpayable",
      "type": "constructor"
    },
    {
      "anonymous": false,
      "inputs": [
        {
          "indexed": true,
          "internalType": "address",
          "name": "owner",
          "type": "address"
        },
        {
          "indexed": true,
          "internalType": "address",
          "name": "spender",
          "type": "address"
        },
        {
          "indexed": false,
          "internalType": "uint256",
          "name": "value",
          "type": "uint256"
        }
      ],
      "name": "Approval",
      "type": "event"
    },
    {
      "anonymous": false,
      "inputs": [
        {
          "indexed": true,
          "internalType": "uint256",
          "name": "id",
          "type": "uint256"
        },
        {
          "indexed": false,
          "internalType": "address payable",
          "name": "account",
          "type": "address"
        },
        {
          "indexed": false,
          "internalType": "int256",
          "name": "sP",
          "type": "int256"
        },
        {
          "indexed": false,
          "internalType": "uint256",
          "name": "lV",
          "type": "uint256"
        },
        {
          "indexed": false,
          "internalType": "bool",
          "name": "dir",
          "type": "bool"
        },
        {
          "indexed": false,
          "internalType": "uint80",
          "name": "pR",
          "type": "uint80"
        },
        {
          "indexed": false,
          "internalType": "uint80",
          "name": "exp",
          "type": "uint80"
        }
      ],
      "name": "Create",
      "type": "event"
    },
    {
      "anonymous": false,
      "inputs": [
        {
          "indexed": true,
          "internalType": "uint256",
          "name": "id",
          "type": "uint256"
        }
      ],
      "name": "Exercise",
      "type": "event"
    },
    {
      "anonymous": false,
      "inputs": [
        {
          "indexed": true,
          "internalType": "uint256",
          "name": "id",
          "type": "uint256"
        }
      ],
      "name": "Expire",
      "type": "event"
    },
    {
      "anonymous": false,
      "inputs": [
        {
          "indexed": false,
          "internalType": "uint256",
          "name": "poolLost",
          "type": "uint256"
        },
        {
          "indexed": false,
          "internalType": "address",
          "name": "winner",
          "type": "address"
        }
      ],
      "name": "Payout",
      "type": "event"
    },
    {
      "anonymous": false,
      "inputs": [
        {
          "indexed": true,
          "internalType": "address",
          "name": "from",
          "type": "address"
        },
        {
          "indexed": true,
          "internalType": "address",
          "name": "to",
          "type": "address"
        },
        {
          "indexed": false,
          "internalType": "uint256",
          "name": "value",
          "type": "uint256"
        }
      ],
      "name": "Transfer",
      "type": "event"
    },
    {
      "inputs": [
        {
          "internalType": "address",
          "name": "owner",
          "type": "address"
        },
        {
          "internalType": "address",
          "name": "spender",
          "type": "address"
        }
      ],
      "name": "allowance",
      "outputs": [
        {
          "internalType": "uint256",
          "name": "",
          "type": "uint256"
        }
      ],
      "stateMutability": "view",
      "type": "function",
      "constant": true
    },
    {
      "inputs": [],
      "name": "app",
      "outputs": [
        {
          "internalType": "address",
          "name": "",
          "type": "address"
        }
      ],
      "stateMutability": "view",
      "type": "function",
      "constant": true
    },
    {
      "inputs": [
        {
          "internalType": "address",
          "name": "spender",
          "type": "address"
        },
        {
          "internalType": "uint256",
          "name": "amount",
          "type": "uint256"
        }
      ],
      "name": "approve",
      "outputs": [
        {
          "internalType": "bool",
          "name": "",
          "type": "bool"
        }
      ],
      "stateMutability": "nonpayable",
      "type": "function"
    },
    {
      "inputs": [
        {
          "internalType": "address",
          "name": "account",
          "type": "address"
        }
      ],
      "name": "balanceOf",
      "outputs": [
        {
          "internalType": "uint256",
          "name": "",
          "type": "uint256"
        }
      ],
      "stateMutability": "view",
      "type": "function",
      "constant": true
    },
    {
      "inputs": [],
      "name": "biop",
      "outputs": [
        {
          "internalType": "address",
          "name": "",
          "type": "address"
        }
      ],
      "stateMutability": "view",
      "type": "function",
      "constant": true
    },
    {
      "inputs": [],
      "name": "contractCreated",
      "outputs": [
        {
          "internalType": "uint256",
          "name": "",
          "type": "uint256"
        }
      ],
      "stateMutability": "view",
      "type": "function",
      "constant": true
    },
    {
      "inputs": [],
      "name": "decimals",
      "outputs": [
        {
          "internalType": "uint8",
          "name": "",
          "type": "uint8"
        }
      ],
      "stateMutability": "view",
      "type": "function",
      "constant": true
    },
    {
      "inputs": [
        {
          "internalType": "address",
          "name": "spender",
          "type": "address"
        },
        {
          "internalType": "uint256",
          "name": "subtractedValue",
          "type": "uint256"
        }
      ],
      "name": "decreaseAllowance",
      "outputs": [
        {
          "internalType": "bool",
          "name": "",
          "type": "bool"
        }
      ],
      "stateMutability": "nonpayable",
      "type": "function"
    },
    {
      "inputs": [],
      "name": "devFund",
      "outputs": [
        {
          "internalType": "address payable",
          "name": "",
          "type": "address"
        }
      ],
      "stateMutability": "view",
      "type": "function",
      "constant": true
    },
    {
      "inputs": [],
      "name": "devFundBetFee",
      "outputs": [
        {
          "internalType": "uint256",
          "name": "",
          "type": "uint256"
        }
      ],
      "stateMutability": "view",
      "type": "function",
      "constant": true
    },
    {
      "inputs": [],
      "name": "exerciserFee",
      "outputs": [
        {
          "internalType": "uint256",
          "name": "",
          "type": "uint256"
        }
      ],
      "stateMutability": "view",
      "type": "function",
      "constant": true
    },
    {
      "inputs": [],
      "name": "expirerFee",
      "outputs": [
        {
          "internalType": "uint256",
          "name": "",
          "type": "uint256"
        }
      ],
      "stateMutability": "view",
      "type": "function",
      "constant": true
    },
    {
      "inputs": [
        {
          "internalType": "address",
          "name": "",
          "type": "address"
        }
      ],
      "name": "iAL",
      "outputs": [
        {
          "internalType": "uint256",
          "name": "",
          "type": "uint256"
        }
      ],
      "stateMutability": "view",
      "type": "function",
      "constant": true
    },
    {
      "inputs": [
        {
          "internalType": "address",
          "name": "spender",
          "type": "address"
        },
        {
          "internalType": "uint256",
          "name": "addedValue",
          "type": "uint256"
        }
      ],
      "name": "increaseAllowance",
      "outputs": [
        {
          "internalType": "bool",
          "name": "",
          "type": "bool"
        }
      ],
      "stateMutability": "nonpayable",
      "type": "function"
    },
    {
      "inputs": [
        {
          "internalType": "address",
          "name": "",
          "type": "address"
        }
      ],
      "name": "lST",
      "outputs": [
        {
          "internalType": "uint256",
          "name": "",
          "type": "uint256"
        }
      ],
      "stateMutability": "view",
      "type": "function",
      "constant": true
    },
    {
      "inputs": [
        {
          "internalType": "address",
          "name": "",
          "type": "address"
        }
      ],
      "name": "lW",
      "outputs": [
        {
          "internalType": "uint256",
          "name": "",
          "type": "uint256"
        }
      ],
      "stateMutability": "view",
      "type": "function",
      "constant": true
    },
    {
      "inputs": [],
      "name": "lockedAmount",
      "outputs": [
        {
          "internalType": "uint256",
          "name": "",
          "type": "uint256"
        }
      ],
      "stateMutability": "view",
      "type": "function",
      "constant": true
    },
    {
      "inputs": [],
      "name": "maxT",
      "outputs": [
        {
          "internalType": "uint256",
          "name": "",
          "type": "uint256"
        }
      ],
      "stateMutability": "view",
      "type": "function",
      "constant": true
    },
    {
      "inputs": [],
      "name": "minT",
      "outputs": [
        {
          "internalType": "uint256",
          "name": "",
          "type": "uint256"
        }
      ],
      "stateMutability": "view",
      "type": "function",
      "constant": true
    },
    {
      "inputs": [
        {
          "internalType": "address",
          "name": "",
          "type": "address"
        }
      ],
      "name": "nW",
      "outputs": [
        {
          "internalType": "uint256",
          "name": "",
          "type": "uint256"
        }
      ],
      "stateMutability": "view",
      "type": "function",
      "constant": true
    },
    {
      "inputs": [],
      "name": "name",
      "outputs": [
        {
          "internalType": "string",
          "name": "",
          "type": "string"
        }
      ],
      "stateMutability": "view",
      "type": "function",
      "constant": true
    },
    {
      "inputs": [],
      "name": "oC",
      "outputs": [
        {
          "internalType": "uint256",
          "name": "",
          "type": "uint256"
        }
      ],
      "stateMutability": "view",
      "type": "function",
      "constant": true
    },
    {
      "inputs": [],
      "name": "oP",
      "outputs": [
        {
          "internalType": "uint256",
          "name": "",
          "type": "uint256"
        }
      ],
      "stateMutability": "view",
      "type": "function",
      "constant": true
    },
    {
      "inputs": [],
      "name": "open",
      "outputs": [
        {
          "internalType": "bool",
          "name": "",
          "type": "bool"
        }
      ],
      "stateMutability": "view",
      "type": "function",
      "constant": true
    },
    {
      "inputs": [
        {
          "internalType": "uint256",
          "name": "",
          "type": "uint256"
        }
      ],
      "name": "options",
      "outputs": [
        {
          "internalType": "address payable",
          "name": "holder",
          "type": "address"
        },
        {
          "internalType": "int256",
          "name": "sP",
          "type": "int256"
        },
        {
          "internalType": "uint80",
          "name": "pR",
          "type": "uint80"
        },
        {
          "internalType": "uint256",
          "name": "pV",
          "type": "uint256"
        },
        {
          "internalType": "uint256",
          "name": "lV",
          "type": "uint256"
        },
        {
          "internalType": "uint80",
          "name": "exp",
          "type": "uint80"
        },
        {
          "internalType": "bool",
          "name": "dir",
          "type": "bool"
        },
        {
          "internalType": "address",
          "name": "pP",
          "type": "address"
        },
        {
          "internalType": "address",
          "name": "aPA",
          "type": "address"
        }
      ],
      "stateMutability": "view",
      "type": "function",
      "constant": true
    },
    {
      "inputs": [],
      "name": "owner",
      "outputs": [
        {
          "internalType": "address payable",
          "name": "",
          "type": "address"
        }
      ],
      "stateMutability": "view",
      "type": "function",
      "constant": true
    },
    {
      "inputs": [],
      "name": "poolLockSeconds",
      "outputs": [
        {
          "internalType": "uint256",
          "name": "",
          "type": "uint256"
        }
      ],
      "stateMutability": "view",
      "type": "function",
      "constant": true
    },
    {
      "inputs": [],
      "name": "rewEn",
      "outputs": [
        {
          "internalType": "bool",
          "name": "",
          "type": "bool"
        }
      ],
      "stateMutability": "view",
      "type": "function",
      "constant": true
    },
    {
      "inputs": [],
      "name": "rwd",
      "outputs": [
        {
          "internalType": "uint256",
          "name": "",
          "type": "uint256"
        }
      ],
      "stateMutability": "view",
      "type": "function",
      "constant": true
    },
    {
      "inputs": [],
      "name": "symbol",
      "outputs": [
        {
          "internalType": "string",
          "name": "",
          "type": "string"
        }
      ],
      "stateMutability": "view",
      "type": "function",
      "constant": true
    },
    {
      "inputs": [],
      "name": "tI",
      "outputs": [
        {
          "internalType": "uint256",
          "name": "",
          "type": "uint256"
        }
      ],
      "stateMutability": "view",
      "type": "function",
      "constant": true
    },
    {
      "inputs": [],
      "name": "totalSupply",
      "outputs": [
        {
          "internalType": "uint256",
          "name": "",
          "type": "uint256"
        }
      ],
      "stateMutability": "view",
      "type": "function",
      "constant": true
    },
    {
      "inputs": [
        {
          "internalType": "address",
          "name": "recipient",
          "type": "address"
        },
        {
          "internalType": "uint256",
          "name": "amount",
          "type": "uint256"
        }
      ],
      "name": "transfer",
      "outputs": [
        {
          "internalType": "bool",
          "name": "",
          "type": "bool"
        }
      ],
      "stateMutability": "nonpayable",
      "type": "function"
    },
    {
      "inputs": [
        {
          "internalType": "address",
          "name": "sender",
          "type": "address"
        },
        {
          "internalType": "address",
          "name": "recipient",
          "type": "address"
        },
        {
          "internalType": "uint256",
          "name": "amount",
          "type": "uint256"
        }
      ],
      "name": "transferFrom",
      "outputs": [
        {
          "internalType": "bool",
          "name": "",
          "type": "bool"
        }
      ],
      "stateMutability": "nonpayable",
      "type": "function"
    },
    {
      "inputs": [],
      "name": "uR",
      "outputs": [
        {
          "internalType": "address",
          "name": "",
          "type": "address"
        }
      ],
      "stateMutability": "view",
      "type": "function",
      "constant": true
    },
    {
      "inputs": [],
      "name": "getMaxAvailable",
      "outputs": [
        {
          "internalType": "uint256",
          "name": "",
          "type": "uint256"
        }
      ],
      "stateMutability": "view",
      "type": "function",
      "constant": true
    },
    {
      "inputs": [],
      "name": "getOptionCount",
      "outputs": [
        {
          "internalType": "uint256",
          "name": "",
          "type": "uint256"
        }
      ],
      "stateMutability": "view",
      "type": "function",
      "constant": true
    },
    {
      "inputs": [
        {
          "internalType": "uint256",
          "name": "amount",
          "type": "uint256"
        },
        {
          "internalType": "bool",
          "name": "completion",
          "type": "bool"
        }
      ],
      "name": "getBetSizeBonus",
      "outputs": [
        {
          "internalType": "uint256",
          "name": "",
          "type": "uint256"
        }
      ],
      "stateMutability": "view",
      "type": "function",
      "constant": true
    },
    {
      "inputs": [
        {
          "internalType": "address",
          "name": "account",
          "type": "address"
        }
      ],
      "name": "getPendingClaims",
      "outputs": [
        {
          "internalType": "uint256",
          "name": "",
          "type": "uint256"
        }
      ],
      "stateMutability": "view",
      "type": "function",
      "constant": true
    },
    {
      "inputs": [],
      "name": "claimRewards",
      "outputs": [],
      "stateMutability": "nonpayable",
      "type": "function"
    },
    {
      "inputs": [],
      "name": "thisAddress",
      "outputs": [
        {
          "internalType": "address",
          "name": "",
          "type": "address"
        }
      ],
      "stateMutability": "view",
      "type": "function",
      "constant": true
    },
    {
      "inputs": [
        {
          "internalType": "address payable",
          "name": "a",
          "type": "address"
        }
      ],
      "name": "updateBIOPToken",
      "outputs": [],
      "stateMutability": "nonpayable",
      "type": "function"
    },
    {
      "inputs": [
        {
          "internalType": "address",
          "name": "newUR",
          "type": "address"
        }
      ],
      "name": "updateUtilizationRewards",
      "outputs": [],
      "stateMutability": "nonpayable",
      "type": "function"
    },
    {
      "inputs": [
        {
          "internalType": "address",
          "name": "newAPP",
          "type": "address"
        }
      ],
      "name": "updateAPP",
      "outputs": [],
      "stateMutability": "nonpayable",
      "type": "function"
    },
    {
      "inputs": [
        {
          "internalType": "bool",
          "name": "nx_",
          "type": "bool"
        }
      ],
      "name": "enableRewards",
      "outputs": [],
      "stateMutability": "nonpayable",
      "type": "function"
    },
    {
      "inputs": [
        {
          "internalType": "uint256",
          "name": "newMax_",
          "type": "uint256"
        }
      ],
      "name": "setMaxT",
      "outputs": [],
      "stateMutability": "nonpayable",
      "type": "function"
    },
    {
      "inputs": [
        {
          "internalType": "uint256",
          "name": "newMin_",
          "type": "uint256"
        }
      ],
      "name": "setMinT",
      "outputs": [],
      "stateMutability": "nonpayable",
      "type": "function"
    },
    {
      "inputs": [
        {
          "internalType": "uint256",
          "name": "exerciserFee_",
          "type": "uint256"
        }
      ],
      "name": "updateExerciserFee",
      "outputs": [],
      "stateMutability": "nonpayable",
      "type": "function"
    },
    {
      "inputs": [
        {
          "internalType": "uint256",
          "name": "expirerFee_",
          "type": "uint256"
        }
      ],
      "name": "updateExpirerFee",
      "outputs": [],
      "stateMutability": "nonpayable",
      "type": "function"
    },
    {
      "inputs": [
        {
          "internalType": "uint256",
          "name": "devFundBetFee_",
          "type": "uint256"
        }
      ],
      "name": "updateDevFundBetFee",
      "outputs": [],
      "stateMutability": "nonpayable",
      "type": "function"
    },
    {
      "inputs": [
        {
          "internalType": "uint256",
          "name": "newLockSeconds_",
          "type": "uint256"
        }
      ],
      "name": "updatePoolLockSeconds",
      "outputs": [],
      "stateMutability": "nonpayable",
      "type": "function"
    },
    {
      "inputs": [
        {
          "internalType": "address payable",
          "name": "newOwner_",
          "type": "address"
        }
      ],
      "name": "transferOwner",
      "outputs": [],
      "stateMutability": "nonpayable",
      "type": "function"
    },
    {
      "inputs": [
        {
          "internalType": "address payable",
          "name": "newDevFund",
          "type": "address"
        }
      ],
      "name": "transferDevFund",
      "outputs": [],
      "stateMutability": "nonpayable",
      "type": "function"
    },
    {
      "inputs": [],
      "name": "closeStaking",
      "outputs": [],
      "stateMutability": "nonpayable",
      "type": "function"
    },
    {
      "inputs": [],
      "name": "stake",
      "outputs": [],
      "stateMutability": "payable",
      "type": "function",
      "payable": true
    },
    {
      "inputs": [
        {
          "internalType": "uint256",
          "name": "amount",
          "type": "uint256"
        }
      ],
      "name": "withdraw",
      "outputs": [],
      "stateMutability": "nonpayable",
      "type": "function"
    },
    {
      "inputs": [
        {
          "internalType": "address",
          "name": "pair",
          "type": "address"
        },
        {
          "internalType": "uint256",
          "name": "deposit",
          "type": "uint256"
        },
        {
          "internalType": "uint256",
          "name": "t",
          "type": "uint256"
        },
        {
          "internalType": "bool",
          "name": "k",
          "type": "bool"
        }
      ],
      "name": "getRate",
      "outputs": [
        {
          "internalType": "uint256",
          "name": "",
          "type": "uint256"
        }
      ],
      "stateMutability": "view",
      "type": "function",
      "constant": true
    },
    {
      "inputs": [
        {
          "internalType": "bool",
          "name": "k_",
          "type": "bool"
        },
        {
          "internalType": "address",
          "name": "pp_",
          "type": "address"
        },
        {
          "internalType": "uint80",
          "name": "t_",
          "type": "uint80"
        }
      ],
      "name": "bet",
      "outputs": [],
      "stateMutability": "payable",
      "type": "function",
      "payable": true
    },
    {
      "inputs": [
        {
          "internalType": "uint256",
          "name": "oID",
          "type": "uint256"
        }
      ],
      "name": "complete",
      "outputs": [],
      "stateMutability": "nonpayable",
      "type": "function"
    }
  ],
  "bytecode": "0x60806040526000600f819055601081905560326014819055601555601681905562093a8060175560198054600160ff199182168117909255601b9290925566470de4df820000601c55601d80549092161790553480156200005f57600080fd5b50604051620038a9380380620038a9833981810160405260a08110156200008557600080fd5b8101908080516040519392919084640100000000821115620000a657600080fd5b908301906020820185811115620000bc57600080fd5b8251640100000000811182820188101715620000d757600080fd5b82525081516020918201929091019080838360005b8381101562000106578181015183820152602001620000ec565b50505050905090810190601f168015620001345780820380516001836020036101000a031916815260200191505b50604052602001805160405193929190846401000000008211156200015857600080fd5b9083019060208201858111156200016e57600080fd5b82516401000000008111828201881017156200018957600080fd5b82525081516020918201929091019080838360005b83811015620001b85781810151838201526020016200019e565b50505050905090810190601f168015620001e65780820380516001836020036101000a031916815260200191505b506040908152602082810151918301516060909301518751929550929350869186916200021991600391850190620002bc565b5080516200022f906004906020840190620002bc565b505060058054336101008102610100600160a81b031960ff1990931660129081179390931617909255600680546001600160a01b03199081169093179055600880546001600160a01b039788169084161790556000601355426018556001601155600390556007805494861694821694909417909355506009805491909316911617905550620003619050565b828054600181600116156101000203166002900490600052602060002090601f016020900481019282601f10620002ff57805160ff19168380011785556200032f565b828001600101855582156200032f579182015b828111156200032f57825182559160200191906001019062000312565b506200033d92915062000341565b5090565b6200035e91905b808211156200033d576000815560010162000348565b90565b61353880620003716000396000f3fe60806040526004361061038c5760003560e01c806370a08231116101dc578063b57ef6a811610102578063db05c547116100a0578063e56e03cc1161006f578063e56e03cc14610c64578063f200fb2014610c97578063fcfff16f14610cca578063fd4cbc0514610cdf5761038c565b8063db05c54714610bcd578063dd62ed3e14610be2578063ded5202614610c1d578063e4523ef914610c4f5761038c565b8063c8972391116100dc578063c897239114610b51578063d25b00d014610b66578063d4dca69b14610b7b578063d62c88f414610b905761038c565b8063b57ef6a814610af4578063b76564bd14610b27578063bac2e6db14610b3c5761038c565b806398cfe5871161017a578063a6bd542711610149578063a6bd542714610a67578063a9059cbb14610a7c578063a9493ced14610ab5578063ad33648a14610aca5761038c565b806398cfe587146109ba57806399f91405146109cf5780639b1559c314610a02578063a457c2d714610a2e5761038c565b80638a300e68116101b65780638a300e68146109335780638da5cb5b1461096657806395d89b411461097b578063971d852f146109905761038c565b806370a08231146108c157806383880e51146108f45780638a0c6d26146109095761038c565b8063372500ab116102c15780634fce9c841161025f57806363691eaa1161022e57806363691eaa1461081d5780636a92cf8b146108325780636ab28bc8146108655780636ab7d6d01461087a5761038c565b80634fce9c84146107b45780635009a613146107c9578063602d8608146107f357806360baaaae146108085761038c565b80633a4b66f11161029b5780633a4b66f1146106d4578063409e2205146106dc5780634390d2a81461076c5780634fb2e45d146107815761038c565b8063372500ab1461065c57806337637f4514610671578063395093511461069b5761038c565b80631a8972d31161032e57806323b872dd1161030857806323b872dd146105af5780632e1a7d4d146105f25780632f67e3591461061c578063313ce567146106315761038c565b80631a8972d31461053f5780631c94c429146105545780631d983e23146105855761038c565b8063108e184d1161036a578063108e184d1461049d57806318126dce146104e257806318160ddd146104f757806319174be61461050c5761038c565b806306fdde031461039157806307e665df1461041b578063095ea7b314610450575b600080fd5b34801561039d57600080fd5b506103a6610d09565b6040805160208082528351818301528351919283929083019185019080838360005b838110156103e05781810151838201526020016103c8565b50505050905090810190601f16801561040d5780820380516001836020036101000a031916815260200191505b509250505060405180910390f35b34801561042757600080fd5b5061044e6004803603602081101561043e57600080fd5b50356001600160a01b0316610da0565b005b34801561045c57600080fd5b506104896004803603604081101561047357600080fd5b506001600160a01b038135169060200135610e0f565b604080519115158252519081900360200190f35b3480156104a957600080fd5b506104d0600480360360208110156104c057600080fd5b50356001600160a01b0316610e2d565b60408051918252519081900360200190f35b3480156104ee57600080fd5b506104d0610e3f565b34801561050357600080fd5b506104d0610e45565b34801561051857600080fd5b506104d06004803603602081101561052f57600080fd5b50356001600160a01b0316610e4b565b34801561054b57600080fd5b506104d0610e5d565b34801561056057600080fd5b50610569610e63565b604080516001600160a01b039092168252519081900360200190f35b34801561059157600080fd5b5061044e600480360360208110156105a857600080fd5b5035610e72565b3480156105bb57600080fd5b50610489600480360360608110156105d257600080fd5b506001600160a01b03813581169160208101359091169060400135610ec4565b3480156105fe57600080fd5b5061044e6004803603602081101561061557600080fd5b5035610f51565b34801561062857600080fd5b506104d0611179565b34801561063d57600080fd5b5061064661117f565b6040805160ff9092168252519081900360200190f35b34801561066857600080fd5b5061044e611188565b34801561067d57600080fd5b5061044e6004803603602081101561069457600080fd5b5035611231565b3480156106a757600080fd5b50610489600480360360408110156106be57600080fd5b506001600160a01b038135169060200135611283565b61044e6112d7565b3480156106e857600080fd5b50610706600480360360208110156106ff57600080fd5b503561140b565b604080516001600160a01b039a8b16815260208101999099526001600160501b0397881689820152606089019690965260808801949094529190941660a086015292151560c085015291841660e084015292166101008201529051908190036101200190f35b34801561077857600080fd5b50610569611485565b34801561078d57600080fd5b5061044e600480360360208110156107a457600080fd5b50356001600160a01b0316611499565b3480156107c057600080fd5b506104d0611508565b3480156107d557600080fd5b5061044e600480360360208110156107ec57600080fd5b503561150e565b3480156107ff57600080fd5b506104d06115a5565b34801561081457600080fd5b506104d06115ab565b34801561082957600080fd5b506104d06115b1565b34801561083e57600080fd5b5061044e6004803603602081101561085557600080fd5b50356001600160a01b03166115b7565b34801561087157600080fd5b506104d0611626565b34801561088657600080fd5b506104d06004803603608081101561089d57600080fd5b506001600160a01b038135169060208101359060408101359060600135151561162c565b3480156108cd57600080fd5b506104d0600480360360208110156108e457600080fd5b50356001600160a01b031661189b565b34801561090057600080fd5b506104896118ba565b34801561091557600080fd5b5061044e6004803603602081101561092c57600080fd5b50356118c3565b34801561093f57600080fd5b506104d06004803603602081101561095657600080fd5b50356001600160a01b0316611965565b34801561097257600080fd5b50610569611977565b34801561098757600080fd5b506103a6611986565b34801561099c57600080fd5b5061044e600480360360208110156109b357600080fd5b50356119e7565b3480156109c657600080fd5b5061044e611c18565b3480156109db57600080fd5b506104d0600480360360208110156109f257600080fd5b50356001600160a01b0316611c71565b348015610a0e57600080fd5b5061044e60048036036020811015610a2557600080fd5b50351515611da3565b348015610a3a57600080fd5b5061048960048036036040811015610a5157600080fd5b506001600160a01b038135169060200135611e03565b348015610a7357600080fd5b506104d0611e71565b348015610a8857600080fd5b5061048960048036036040811015610a9f57600080fd5b506001600160a01b038135169060200135611e77565b348015610ac157600080fd5b506104d0611e8b565b348015610ad657600080fd5b5061044e60048036036020811015610aed57600080fd5b5035611e91565b348015610b0057600080fd5b5061044e60048036036020811015610b1757600080fd5b50356001600160a01b0316611f2f565b348015610b3357600080fd5b50610569611f9e565b348015610b4857600080fd5b506104d0611fad565b348015610b5d57600080fd5b506104d0611fe2565b348015610b7257600080fd5b506104d0611fe8565b348015610b8757600080fd5b50610569611fee565b61044e60048036036060811015610ba657600080fd5b50803515159060208101356001600160a01b031690604001356001600160501b0316611ff2565b348015610bd957600080fd5b506104d06124ab565b348015610bee57600080fd5b506104d060048036036040811015610c0557600080fd5b506001600160a01b03813581169160200135166124b1565b348015610c2957600080fd5b506104d060048036036040811015610c4057600080fd5b508035906020013515156124dc565b348015610c5b57600080fd5b5061056961256d565b348015610c7057600080fd5b506104d060048036036020811015610c8757600080fd5b50356001600160a01b031661257c565b348015610ca357600080fd5b5061044e60048036036020811015610cba57600080fd5b50356001600160a01b031661258e565b348015610cd657600080fd5b50610489612603565b348015610ceb57600080fd5b5061044e60048036036020811015610d0257600080fd5b503561260c565b60038054604080516020601f6002600019610100600188161502019095169490940493840181900481028201810190925282815260609390929091830182828015610d955780601f10610d6a57610100808354040283529160200191610d95565b820191906000526020600020905b815481529060010190602001808311610d7857829003601f168201915b505050505090505b90565b6006546001600160a01b03163314610ded576040805162461bcd60e51b81526020600482018190526024820152600080516020613454833981519152604482015290519081900360640190fd5b600980546001600160a01b0319166001600160a01b0392909216919091179055565b6000610e23610e1c6126ad565b84846126b1565b5060015b92915050565b600e6020526000908152604090205481565b60125481565b60025490565b600d6020526000908152604090205481565b601c5481565b6007546001600160a01b031681565b6006546001600160a01b03163314610ebf576040805162461bcd60e51b81526020600482018190526024820152600080516020613454833981519152604482015290519081900360640190fd5b601255565b6000610ed184848461279d565b610f4784610edd6126ad565b610f428560405180606001604052806028815260200161342c602891396001600160a01b038a16600090815260016020526040812090610f1b6126ad565b6001600160a01b03168152602081019190915260400160002054919063ffffffff61290416565b6126b1565b5060019392505050565b80610f5b3361189b565b1015610fae576040805162461bcd60e51b815260206004820152601960248201527f496e737566666963656e742053686172652042616c616e636500000000000000604482015290519081900360640190fd5b336000908152600b60205260408120429055601354610ffb90610fdf90610fd3610e45565b9063ffffffff61299b16565b610fef844763ffffffff6129e416565b9063ffffffff612a3d16565b90506110073383612a7f565b336000908152600a6020526040902054421161111657600061103082606463ffffffff612a3d16565b60055460405191925061010090046001600160a01b0316906108fc8315029083906000818181858888f193505050506110a2576040805162461bcd60e51b815260206004820152600f60248201526e1d1c985b9cd9995c8819985a5b1959608a1b604482015290519081900360640190fd5b336108fc6110b6848463ffffffff61299b16565b6040518115909202916000818181858888f19350505050611110576040805162461bcd60e51b815260206004820152600f60248201526e1d1c985b9cd9995c8819985a5b1959608a1b604482015290519081900360640190fd5b50611175565b604051339082156108fc029083906000818181858888f19350505050611175576040805162461bcd60e51b815260206004820152600f60248201526e1d1c985b9cd9995c8819985a5b1959608a1b604482015290519081900360640190fd5b5050565b60105481565b60055460ff1690565b6008546001600160a01b0316600061119f33611c71565b905060016111ac3361189b565b106111b9576111b9612b87565b336000908152600c602052604080822082905560075481516303d7ea0160e01b81526004810185905291516001600160a01b039091169283926303d7ea01926024808301939282900301818387803b15801561121457600080fd5b505af1158015611228573d6000803e3d6000fd5b50505050505050565b6006546001600160a01b0316331461127e576040805162461bcd60e51b81526020600482018190526024820152600080516020613454833981519152604482015290519081900360640190fd5b601155565b6000610e236112906126ad565b84610f4285600160006112a16126ad565b6001600160a01b03908116825260208083019390935260409182016000908120918c16815292529020549063ffffffff612baa16565b60195460ff161515600114611333576040805162461bcd60e51b815260206004820152601860248201527f706f6f6c206465706f736974732068617320636c6f7365640000000000000000604482015290519081900360640190fd5b606434101561137a576040805162461bcd60e51b815260206004820152600e60248201526d1cdd185ad9481d1bc81cdb585b1b60921b604482015290519081900360640190fd5b6113833361189b565b6113de57336000908152600b60205260409020429055601c546113cd906113b190600263ffffffff6129e416565b336000908152600c60205260409020549063ffffffff612baa16565b336000908152600c60205260409020555b6113e6612b87565b601754336000818152600a60205260409020429092019091556114099034612c04565b565b601a818154811061141857fe5b600091825260209091206007909102018054600182015460028301546003840154600485015460058601546006909601546001600160a01b03958616975093956001600160501b03938416959294919381169260ff600160501b83041692600160581b9092048116911689565b60055461010090046001600160a01b031681565b6006546001600160a01b031633146114e6576040805162461bcd60e51b81526020600482018190526024820152600080516020613454833981519152604482015290519081900360640190fd5b600680546001600160a01b0319166001600160a01b0392909216919091179055565b60185481565b6006546001600160a01b0316331461155b576040805162461bcd60e51b81526020600482018190526024820152600080516020613454833981519152604482015290519081900360640190fd5b6212750081106115a0576040805162461bcd60e51b815260206004820152600b60248201526a696e76616c69642066656560a81b604482015290519081900360640190fd5b601755565b60175481565b60155481565b600f5481565b6006546001600160a01b03163314611604576040805162461bcd60e51b81526020600482018190526024820152600080516020613454833981519152604482015290519081900360640190fd5b600780546001600160a01b0319166001600160a01b0392909216919091179055565b60135481565b6009546040805163b7a9eaa960e01b81526001600160a01b03878116600483015291516000939290921691829163b7a9eaa9916024808301926020929190829003018186803b15801561167e57600080fd5b505afa158015611692573d6000803e3d6000fd5b505050506040513d60208110156116a857600080fd5b50516001600160a01b03166116fb576040805162461bcd60e51b815260206004820152601460248201527334b73b30b634b2103a3930b234b733903830b4b960611b604482015290519081900360640190fd5b6000816001600160a01b031663b7a9eaa9886040518263ffffffff1660e01b815260040180826001600160a01b03166001600160a01b0316815260200191505060206040518083038186803b15801561175357600080fd5b505afa158015611767573d6000803e3d6000fd5b505050506040513d602081101561177d57600080fd5b50519050600084156117b957600f546010541061179c575060016117b4565b601054600f546117b19163ffffffff61299b16565b90505b6117e4565b601054600f54106117cc575060016117e4565b600f546010546117e19163ffffffff61299b16565b90505b816001600160a01b0316631f580c03886118008a610fd3611fad565b601354604080516001600160e01b031960e087901b168152600481019490945260248401929092526044830152606482018a9052881515608483015260a482018590525160c4808301926020929190829003018186803b15801561186357600080fd5b505afa158015611877573d6000803e3d6000fd5b505050506040513d602081101561188d57600080fd5b505198975050505050505050565b6001600160a01b0381166000908152602081905260409020545b919050565b601d5460ff1681565b6006546001600160a01b03163314611910576040805162461bcd60e51b81526020600482018190526024820152600080516020613454833981519152604482015290519081900360640190fd5b60018111801561192157506101f481105b611960576040805162461bcd60e51b815260206004820152600b60248201526a696e76616c69642066656560a81b604482015290519081900360640190fd5b601455565b600a6020526000908152604090205481565b6006546001600160a01b031681565b60048054604080516020601f6002600019610100600188161502019095169490940493840181900481028201810190925282815260609390929091830182828015610d955780601f10610d6a57610100808354040283529160200191610d95565b6119ef6132dc565b601a82815481106119fc57fe5b600091825260208083206040805161012081018252600790940290910180546001600160a01b03908116855260018201549385019390935260028101546001600160501b03908116858401819052600383015460608701526004808401546080880152600584015480841660a0808a0182905260ff600160501b840416151560c08b0152600160581b909204881660e08a018190526006909601549097166101008901528551639a6fc8f560e01b815296909201909216918501919091529151939550939283928592639a6fc8f592602480840193829003018186803b158015611ae557600080fd5b505afa158015611af9573d6000803e3d6000fd5b505050506040513d60a0811015611b0f57600080fd5b50805160209091015190925090508015801590611b3457506001600160501b03821615155b611b75576040805162461bcd60e51b815260206004820152600d60248201526c1b9bdd081c9958591e481e595d609a1b604482015290519081900360640190fd5b8360c0015115611bb3578084602001511315611b9a57611b958486612d00565b611ba4565b611ba48486612d57565b600f8054600019019055611be3565b8360200151811315611bce57611bc98486612d00565b611bd8565b611bd88486612d57565b601080546000190190555b601d5460ff1615611c1157611c006113b1856080015160016124dc565b336000908152600c60205260409020555b5050505050565b6006546001600160a01b03163314611c65576040805162461bcd60e51b81526020600482018190526024820152600080516020613454833981519152604482015290519081900360640190fd5b6019805460ff19169055565b6007546000906001600160a01b03166001611c8b8461189b565b1115611d83576001600160a01b038381166000908152600e6020908152604080832054600d90925290912054601b54611d7b938516926357931484929091611cd28961189b565b611cda610e45565b6040518663ffffffff1660e01b8152600401808681526020018581526020018481526020018381526020018281526020019550505050505060206040518083038186803b158015611d2a57600080fd5b505afa158015611d3e573d6000803e3d6000fd5b505050506040513d6020811015611d5457600080fd5b50516001600160a01b0385166000908152600c60205260409020549063ffffffff612baa16565b9150506118b5565b50506001600160a01b0381166000908152600c60205260409020546118b5565b6006546001600160a01b03163314611df0576040805162461bcd60e51b81526020600482018190526024820152600080516020613454833981519152604482015290519081900360640190fd5b601d805460ff1916911515919091179055565b6000610e23611e106126ad565b84610f42856040518060600160405280602581526020016134de6025913960016000611e3a6126ad565b6001600160a01b03908116825260208083019390935260409182016000908120918d1681529252902054919063ffffffff61290416565b601a5490565b6000610e23611e846126ad565b848461279d565b60165481565b6006546001600160a01b03163314611ede576040805162461bcd60e51b81526020600482018190526024820152600080516020613454833981519152604482015290519081900360640190fd5b801580611eeb5750603281115b611f2a576040805162461bcd60e51b815260206004820152600b60248201526a696e76616c69642066656560a81b604482015290519081900360640190fd5b601655565b6006546001600160a01b03163314611f7c576040805162461bcd60e51b81526020600482018190526024820152600080516020613454833981519152604482015290519081900360640190fd5b600880546001600160a01b0319166001600160a01b0392909216919091179055565b6009546001600160a01b031681565b6013546000904790811115611fd857601354611fd090829063ffffffff61299b16565b915050610d9d565b6000915050610d9d565b60115481565b60145481565b3090565b601154816001600160501b0316101580156120185750601254816001600160501b031611155b612058576040805162461bcd60e51b815260206004820152600c60248201526b496e76616c69642074696d6560a01b604482015290519081900360640190fd5b6009546040805163b7a9eaa960e01b81526001600160a01b03858116600483015291519190921691829163b7a9eaa991602480820192602092909190829003018186803b1580156120a857600080fd5b505afa1580156120bc573d6000803e3d6000fd5b505050506040513d60208110156120d257600080fd5b50516001600160a01b031661212e576040805162461bcd60e51b815260206004820152601760248201527f496e76616c6964202070726963652070726f7669646572000000000000000000604482015290519081900360640190fd5b6000839050600080826001600160a01b031663feaf968c6040518163ffffffff1660e01b815260040160a06040518083038186803b15801561216f57600080fd5b505afa158015612183573d6000803e3d6000fd5b505050506040513d60a081101561219957600080fd5b508051602090910151601a5491935091506121b2611fad565b3411156121f3576040805162461bcd60e51b815260206004820152600a60248201526962657420746f2062696760b01b604482015290519081900360640190fd5b600061220a8834896001600160501b03168c61162c565b601d5490915060ff1615612237576122266113b13460006124dc565b336000908152600c60205260409020555b61224081612e78565b6122486132dc565b604051806101200160405280336001600160a01b03168152602001858152602001866001600160501b03168152602001348152602001838152602001896001600160501b031681526020018b151581526020018a6001600160a01b03168152602001306001600160a01b03168152509050601a81908060018154018082558091505060019003906000526020600020906007020160009091909190915060008201518160000160006101000a8154816001600160a01b0302191690836001600160a01b031602179055506020820151816001015560408201518160020160006101000a8154816001600160501b0302191690836001600160501b03160217905550606082015181600301556080820151816004015560a08201518160050160006101000a8154816001600160501b0302191690836001600160501b0316021790555060c082015181600501600a6101000a81548160ff02191690831515021790555060e082015181600501600b6101000a8154816001600160a01b0302191690836001600160a01b031602179055506101008201518160060160006101000a8154816001600160a01b0302191690836001600160a01b03160217905550505061241c82601b54612baa90919063ffffffff16565b601b55891561243357600f8054600101905561243d565b6010805460010190555b60408051338152602081018690528082018490528b151560608201526001600160501b0380881660808301528a1660a0820152905184917fcd8984b7ffc01146a9ba9096d805b0bec246d7f8e52837a7b5f404464f6b229b919081900360c00190a250505050505050505050565b601b5481565b6001600160a01b03918216600090815260016020908152604080832093909416825291909152205490565b600754604080516314a718f360e31b815260048101859052476024820152831515604482015290516000926001600160a01b031691829163a538c79891606480820192602092909190829003018186803b15801561253957600080fd5b505afa15801561254d573d6000803e3d6000fd5b505050506040513d602081101561256357600080fd5b5051949350505050565b6008546001600160a01b031681565b600b6020526000908152604090205481565b6006546001600160a01b031633146125db576040805162461bcd60e51b81526020600482018190526024820152600080516020613454833981519152604482015290519081900360640190fd5b600580546001600160a01b0390921661010002610100600160a81b0319909216919091179055565b60195460ff1681565b6006546001600160a01b03163314612659576040805162461bcd60e51b81526020600482018190526024820152600080516020613454833981519152604482015290519081900360640190fd5b6001811180156126695750603281105b6126a8576040805162461bcd60e51b815260206004820152600b60248201526a696e76616c69642066656560a81b604482015290519081900360640190fd5b601555565b3390565b6001600160a01b0383166126f65760405162461bcd60e51b81526004018080602001828103825260248152602001806134ba6024913960400191505060405180910390fd5b6001600160a01b03821661273b5760405162461bcd60e51b815260040180806020018281038252602281526020018061336e6022913960400191505060405180910390fd5b6001600160a01b03808416600081815260016020908152604080832094871680845294825291829020859055815185815291517f8c5be1e5ebec7d5bd14f71427d1e84f3dd0314c0f7b2291e5b200ac8c7c3b9259281900390910190a3505050565b6001600160a01b0383166127e25760405162461bcd60e51b81526004018080602001828103825260258152602001806134956025913960400191505060405180910390fd5b6001600160a01b0382166128275760405162461bcd60e51b81526004018080602001828103825260238152602001806133296023913960400191505060405180910390fd5b612832838383612e91565b61287581604051806060016040528060268152602001613390602691396001600160a01b038616600090815260208190526040902054919063ffffffff61290416565b6001600160a01b0380851660009081526020819052604080822093909355908416815220546128aa908263ffffffff612baa16565b6001600160a01b038084166000818152602081815260409182902094909455805185815290519193928716927fddf252ad1be2c89b69c2b068fc378daa952ba7f163c4a11628f55a4df523b3ef92918290030190a3505050565b600081848411156129935760405162461bcd60e51b81526004018080602001828103825283818151815260200191508051906020019080838360005b83811015612958578181015183820152602001612940565b50505050905090810190601f1680156129855780820380516001836020036101000a031916815260200191505b509250505060405180910390fd5b505050900390565b60006129dd83836040518060400160405280601e81526020017f536166654d6174683a207375627472616374696f6e206f766572666c6f770000815250612904565b9392505050565b6000826129f357506000610e27565b82820282848281612a0057fe5b04146129dd5760405162461bcd60e51b815260040180806020018281038252602181526020018061340b6021913960400191505060405180910390fd5b60006129dd83836040518060400160405280601a81526020017f536166654d6174683a206469766973696f6e206279207a65726f000000000000815250612e96565b6001600160a01b038216612ac45760405162461bcd60e51b81526004018080602001828103825260218152602001806134746021913960400191505060405180910390fd5b612ad082600083612e91565b612b138160405180606001604052806022815260200161334c602291396001600160a01b038516600090815260208190526040902054919063ffffffff61290416565b6001600160a01b038316600090815260208190526040902055600254612b3f908263ffffffff61299b16565b6002556040805182815290516000916001600160a01b038516917fddf252ad1be2c89b69c2b068fc378daa952ba7f163c4a11628f55a4df523b3ef9181900360200190a35050565b336000908152600e60209081526040808320429055601b54600d90925290912055565b6000828201838110156129dd576040805162461bcd60e51b815260206004820152601b60248201527f536166654d6174683a206164646974696f6e206f766572666c6f770000000000604482015290519081900360640190fd5b6001600160a01b038216612c5f576040805162461bcd60e51b815260206004820152601f60248201527f45524332303a206d696e7420746f20746865207a65726f206164647265737300604482015290519081900360640190fd5b612c6b60008383612e91565b600254612c7e908263ffffffff612baa16565b6002556001600160a01b038216600090815260208190526040902054612caa908263ffffffff612baa16565b6001600160a01b0383166000818152602081815260408083209490945583518581529351929391927fddf252ad1be2c89b69c2b068fc378daa952ba7f163c4a11628f55a4df523b3ef9281900390910190a35050565b612d0e826080015133612efb565b6080820151601354612d259163ffffffff61299b16565b60135560405181907fa33fd53ba34795ffefaea3759c71f87d38b89ae12e40bc434c826fae0ca5358390600090a25050565b608082015160165481118015612d6f57506000601654115b15612e1f576000612d8b60165483612a3d90919063ffffffff16565b60055460405191925061010090046001600160a01b0316906108fc8315029083906000818181858888f19350505050612e0b576040805162461bcd60e51b815260206004820152601b60248201527f64657646756e6420666565207472616e73666572206661696c65640000000000604482015290519081900360640190fd5b612e1b828263ffffffff61299b16565b9150505b612e2e81338560000151613017565b6080830151601354612e459163ffffffff61299b16565b60135560405182907fa2a53c7cb82eeb7994ccbbab71bea210cd63cfeb7823972fb5b6a49c3b0e1d4c90600090a2505050565b601354612e8b908263ffffffff612baa16565b60135550565b505050565b60008183612ee55760405162461bcd60e51b8152602060048201818152835160248401528351909283926044909101919085019080838360008315612958578181015183820152602001612940565b506000838581612ef157fe5b0495945050505050565b601354821115612f3c5760405162461bcd60e51b81526004018080602001828103825260298152602001806133e26029913960400191505060405180910390fd5b6000662386f26fc100008311612f7e57612f776064610fef612f6a60046014546129e490919063ffffffff16565b869063ffffffff612a3d16565b9050612f9b565b612f986064610fef60145486612a3d90919063ffffffff16565b90505b8015612e91576040516001600160a01b0383169082156108fc029083906000818181858888f19350505050612e91576040805162461bcd60e51b815260206004820152601e60248201527f676f6f642073616d61726974616e207472616e73666572206661696c65640000604482015290519081900360640190fd5b6013548311156130585760405162461bcd60e51b815260040180806020018281038252602c8152602001806133b6602c913960400191505060405180910390fd5b478311156130ad576040805162461bcd60e51b815260206004820152601b60248201527f696e737566666963656e742062616c616e636520696e20706f6f6c0000000000604482015290519081900360640190fd5b806001600160a01b0316826001600160a01b031614613225576000662386f26fc100008411613108576131016064610fef6130f460046014546129e490919063ffffffff16565b879063ffffffff612a3d16565b9050613125565b6131226064610fef60145487612a3d90919063ffffffff16565b90505b801561321f576040516001600160a01b0384169082156108fc029083906000818181858888f193505050506131a1576040805162461bcd60e51b815260206004820152601960248201527f657865726369736572207472616e73666572206661696c656400000000000000604482015290519081900360640190fd5b6001600160a01b0382166108fc6131be868463ffffffff61299b16565b6040518115909202916000818181858888f1935050505061321f576040805162461bcd60e51b81526020600482015260166024820152751dda5b9b995c881d1c985b9cd9995c8819985a5b195960521b604482015290519081900360640190fd5b50613294565b6040516001600160a01b0382169084156108fc029085906000818181858888f19350505050613294576040805162461bcd60e51b81526020600482015260166024820152751dda5b9b995c881d1c985b9cd9995c8819985a5b195960521b604482015290519081900360640190fd5b604080518481526001600160a01b038316602082015281517f9b5d1a613fa5f0790b36b13103706e31fca06b229d87e9915b29fc20c1d76490929181900390910190a1505050565b6040805161012081018252600080825260208201819052918101829052606081018290526080810182905260a0810182905260c0810182905260e081018290526101008101919091529056fe45524332303a207472616e7366657220746f20746865207a65726f206164647265737345524332303a206275726e20616d6f756e7420657863656564732062616c616e636545524332303a20617070726f766520746f20746865207a65726f206164647265737345524332303a207472616e7366657220616d6f756e7420657863656564732062616c616e6365696e737566666963656e7420706f6f6c2062616c616e636520617661696c61626c6520746f207061796f7574696e737566666963656e74206c6f636b656420706f6f6c2062616c616e636520746f20756e6c6f636b536166654d6174683a206d756c7469706c69636174696f6e206f766572666c6f7745524332303a207472616e7366657220616d6f756e74206578636565647320616c6c6f77616e63654f776e61626c653a2063616c6c6572206973206e6f7420746865206f776e657245524332303a206275726e2066726f6d20746865207a65726f206164647265737345524332303a207472616e736665722066726f6d20746865207a65726f206164647265737345524332303a20617070726f76652066726f6d20746865207a65726f206164647265737345524332303a2064656372656173656420616c6c6f77616e63652062656c6f77207a65726fa2646970667358221220f2840626c0ad03f7c886c5abd70be9da3035bb6141c254248e2d05ff23136f9a64736f6c63430006060033",
  "immutableReferences": {},
  "source": "pragma solidity ^0.6.6;\n\nimport \"@openzeppelin/contracts/math/SafeMath.sol\";\nimport \"@openzeppelin/contracts/token/ERC20/ERC20.sol\";\n\n\n\nimport \"./BIOPTokenV4.sol\";\nimport \"./RateCalc.sol\";\nimport \"./interfaces/IUtilizationRewards.sol\";\nimport \"./interfaces/IBinaryOptions.sol\";\nimport \"./interfaces/IAPP.sol\";\n\n\ninterface AggregatorInterface {\n  function latestAnswer() external view returns (int256);\n  function latestTimestamp() external view returns (uint256);\n  function latestRound() external view returns (uint256);\n  function getAnswer(uint256 roundId) external view returns (int256);\n  function getTimestamp(uint256 roundId) external view returns (uint256);\n\n  event AnswerUpdated(int256 indexed current, uint256 indexed roundId, uint256 updatedAt);\n  event NewRound(uint256 indexed roundId, address indexed startedBy, uint256 startedAt);\n}\ninterface AggregatorV3Interface {\n\n  function decimals() external view returns (uint8);\n  function description() external view returns (string memory);\n  function version() external view returns (uint256);\n\n  // getRoundData and latestRoundData should both raise \"No data present\"\n  // if they do not have data to report, instead of returning unset values\n  // which could be misinterpreted as actual reported values.\n  function getRoundData(uint80 _roundId)\n    external\n    view\n    returns (\n      uint80 roundId,\n      int256 answer,\n      uint256 startedAt,\n      uint256 updatedAt,\n      uint80 answeredInRound\n    );\n  function latestRoundData()\n    external\n    view\n    returns (\n      uint80 roundId,\n      int256 answer,\n      uint256 startedAt,\n      uint256 updatedAt,\n      uint80 answeredInRound\n    );\n\n}\ninterface AggregatorV2V3Interface is AggregatorInterface, AggregatorV3Interface\n{\n}\n\n/**\n * @title The Owned contract\n * @notice A contract with helpers for basic contract ownership.\n */\ncontract Owned {\n\n  address public owner;\n  address private pendingOwner;\n\n  event OwnershipTransferRequested(\n    address indexed from,\n    address indexed to\n  );\n  event OwnershipTransferred(\n    address indexed from,\n    address indexed to\n  );\n\n  constructor() public {\n    owner = msg.sender;\n  }\n\n  /**\n   * @dev Allows an owner to begin transferring ownership to a new address,\n   * pending.\n   */\n  function transferOwnership(address _to)\n    external\n    onlyOwner()\n  {\n    pendingOwner = _to;\n\n    emit OwnershipTransferRequested(owner, _to);\n  }\n\n  /**\n   * @dev Allows an ownership transfer to be completed by the recipient.\n   */\n  function acceptOwnership()\n    external\n  {\n    require(msg.sender == pendingOwner, \"Must be proposed owner\");\n\n    address oldOwner = owner;\n    owner = msg.sender;\n    pendingOwner = address(0);\n\n    emit OwnershipTransferred(oldOwner, msg.sender);\n  }\n\n  /**\n   * @dev Reverts if called by anyone other than the contract owner.\n   */\n  modifier onlyOwner() {\n    require(msg.sender == owner, \"Only callable by owner\");\n    _;\n  }\n\n}\ncontract AggregatorProxy is AggregatorV2V3Interface, Owned {\n\n  struct Phase {\n    uint16 id;\n    AggregatorV2V3Interface aggregator;\n  }\n  Phase private currentPhase;\n  AggregatorV2V3Interface public proposedAggregator;\n  mapping(uint16 => AggregatorV2V3Interface) public phaseAggregators;\n\n  uint256 constant private PHASE_OFFSET = 64;\n  uint256 constant private PHASE_SIZE = 16;\n  uint256 constant private MAX_ID = 2**(PHASE_OFFSET+PHASE_SIZE) - 1;\n\n  constructor(address _aggregator) public Owned() {\n    setAggregator(_aggregator);\n  }\n\n  /**\n   * @notice Reads the current answer from aggregator delegated to.\n   *\n   * @dev #[deprecated] Use latestRoundData instead. This does not error if no\n   * answer has been reached, it will simply return 0. Either wait to point to\n   * an already answered Aggregator or use the recommended latestRoundData\n   * instead which includes better verification information.\n   */\n  function latestAnswer()\n    public\n    view\n    virtual\n    override\n    returns (int256 answer)\n  {\n    return currentPhase.aggregator.latestAnswer();\n  }\n\n  /**\n   * @notice Reads the last updated height from aggregator delegated to.\n   *\n   * @dev #[deprecated] Use latestRoundData instead. This does not error if no\n   * answer has been reached, it will simply return 0. Either wait to point to\n   * an already answered Aggregator or use the recommended latestRoundData\n   * instead which includes better verification information.\n   */\n  function latestTimestamp()\n    public\n    view\n    virtual\n    override\n    returns (uint256 updatedAt)\n  {\n    return currentPhase.aggregator.latestTimestamp();\n  }\n\n  /**\n   * @notice get past rounds answers\n   * @param _roundId the answer number to retrieve the answer for\n   *\n   * @dev #[deprecated] Use getRoundData instead. This does not error if no\n   * answer has been reached, it will simply return 0. Either wait to point to\n   * an already answered Aggregator or use the recommended getRoundData\n   * instead which includes better verification information.\n   */\n  function getAnswer(uint256 _roundId)\n    public\n    view\n    virtual\n    override\n    returns (int256 answer)\n  {\n    if (_roundId > MAX_ID) return 0;\n\n    (uint16 phaseId, uint64 aggregatorRoundId) = parseIds(_roundId);\n    AggregatorV2V3Interface aggregator = phaseAggregators[phaseId];\n    if (address(aggregator) == address(0)) return 0;\n\n    return aggregator.getAnswer(aggregatorRoundId);\n  }\n\n  /**\n   * @notice get block timestamp when an answer was last updated\n   * @param _roundId the answer number to retrieve the updated timestamp for\n   *\n   * @dev #[deprecated] Use getRoundData instead. This does not error if no\n   * answer has been reached, it will simply return 0. Either wait to point to\n   * an already answered Aggregator or use the recommended getRoundData\n   * instead which includes better verification information.\n   */\n  function getTimestamp(uint256 _roundId)\n    public\n    view\n    virtual\n    override\n    returns (uint256 updatedAt)\n  {\n    if (_roundId > MAX_ID) return 0;\n\n    (uint16 phaseId, uint64 aggregatorRoundId) = parseIds(_roundId);\n    AggregatorV2V3Interface aggregator = phaseAggregators[phaseId];\n    if (address(aggregator) == address(0)) return 0;\n\n    return aggregator.getTimestamp(aggregatorRoundId);\n  }\n\n  /**\n   * @notice get the latest completed round where the answer was updated. This\n   * ID includes the proxy's phase, to make sure round IDs increase even when\n   * switching to a newly deployed aggregator.\n   *\n   * @dev #[deprecated] Use latestRoundData instead. This does not error if no\n   * answer has been reached, it will simply return 0. Either wait to point to\n   * an already answered Aggregator or use the recommended latestRoundData\n   * instead which includes better verification information.\n   */\n  function latestRound()\n    public\n    view\n    virtual\n    override\n    returns (uint256 roundId)\n  {\n    Phase memory phase = currentPhase; // cache storage reads\n    return addPhase(phase.id, uint64(phase.aggregator.latestRound()));\n  }\n\n  /**\n   * @notice get data about a round. Consumers are encouraged to check\n   * that they're receiving fresh data by inspecting the updatedAt and\n   * answeredInRound return values.\n   * Note that different underlying implementations of AggregatorV3Interface\n   * have slightly different semantics for some of the return values. Consumers\n   * should determine what implementations they expect to receive\n   * data from and validate that they can properly handle return data from all\n   * of them.\n   * @param _roundId the requested round ID as presented through the proxy, this\n   * is made up of the aggregator's round ID with the phase ID encoded in the\n   * two highest order bytes\n   * @return roundId is the round ID from the aggregator for which the data was\n   * retrieved combined with an phase to ensure that round IDs get larger as\n   * time moves forward.\n   * @return answer is the answer for the given round\n   * @return startedAt is the timestamp when the round was started.\n   * (Only some AggregatorV3Interface implementations return meaningful values)\n   * @return updatedAt is the timestamp when the round last was updated (i.e.\n   * answer was last computed)\n   * @return answeredInRound is the round ID of the round in which the answer\n   * was computed.\n   * (Only some AggregatorV3Interface implementations return meaningful values)\n   * @dev Note that answer and updatedAt may change between queries.\n   */\n  function getRoundData(uint80 _roundId)\n    public\n    view\n    virtual\n    override\n    returns (\n      uint80 roundId,\n      int256 answer,\n      uint256 startedAt,\n      uint256 updatedAt,\n      uint80 answeredInRound\n    )\n  {\n    (uint16 phaseId, uint64 aggregatorRoundId) = parseIds(_roundId);\n\n    (\n      uint80 roundId,\n      int256 answer,\n      uint256 startedAt,\n      uint256 updatedAt,\n      uint80 ansIn\n    ) = phaseAggregators[phaseId].getRoundData(aggregatorRoundId);\n\n    return addPhaseIds(roundId, answer, startedAt, updatedAt, ansIn, phaseId);\n  }\n\n  /**\n   * @notice get data about the latest round. Consumers are encouraged to check\n   * that they're receiving fresh data by inspecting the updatedAt and\n   * answeredInRound return values.\n   * Note that different underlying implementations of AggregatorV3Interface\n   * have slightly different semantics for some of the return values. Consumers\n   * should determine what implementations they expect to receive\n   * data from and validate that they can properly handle return data from all\n   * of them.\n   * @return roundId is the round ID from the aggregator for which the data was\n   * retrieved combined with an phase to ensure that round IDs get larger as\n   * time moves forward.\n   * @return answer is the answer for the given round\n   * @return startedAt is the timestamp when the round was started.\n   * (Only some AggregatorV3Interface implementations return meaningful values)\n   * @return updatedAt is the timestamp when the round last was updated (i.e.\n   * answer was last computed)\n   * @return answeredInRound is the round ID of the round in which the answer\n   * was computed.\n   * (Only some AggregatorV3Interface implementations return meaningful values)\n   * @dev Note that answer and updatedAt may change between queries.\n   */\n  function latestRoundData()\n    public\n    view\n    virtual\n    override\n    returns (\n      uint80 roundId,\n      int256 answer,\n      uint256 startedAt,\n      uint256 updatedAt,\n      uint80 answeredInRound\n    )\n  {\n    Phase memory current = currentPhase; // cache storage reads\n\n    (\n      uint80 roundId,\n      int256 answer,\n      uint256 startedAt,\n      uint256 updatedAt,\n      uint80 ansIn\n    ) = current.aggregator.latestRoundData();\n\n    return addPhaseIds(roundId, answer, startedAt, updatedAt, ansIn, current.id);\n  }\n\n  /**\n   * @notice Used if an aggregator contract has been proposed.\n   * @param _roundId the round ID to retrieve the round data for\n   * @return roundId is the round ID for which data was retrieved\n   * @return answer is the answer for the given round\n   * @return startedAt is the timestamp when the round was started.\n   * (Only some AggregatorV3Interface implementations return meaningful values)\n   * @return updatedAt is the timestamp when the round last was updated (i.e.\n   * answer was last computed)\n   * @return answeredInRound is the round ID of the round in which the answer\n   * was computed.\n  */\n  function proposedGetRoundData(uint80 _roundId)\n    public\n    view\n    virtual\n    hasProposal()\n    returns (\n      uint80 roundId,\n      int256 answer,\n      uint256 startedAt,\n      uint256 updatedAt,\n      uint80 answeredInRound\n    )\n  {\n    return proposedAggregator.getRoundData(_roundId);\n  }\n\n  /**\n   * @notice Used if an aggregator contract has been proposed.\n   * @return roundId is the round ID for which data was retrieved\n   * @return answer is the answer for the given round\n   * @return startedAt is the timestamp when the round was started.\n   * (Only some AggregatorV3Interface implementations return meaningful values)\n   * @return updatedAt is the timestamp when the round last was updated (i.e.\n   * answer was last computed)\n   * @return answeredInRound is the round ID of the round in which the answer\n   * was computed.\n  */\n  function proposedLatestRoundData()\n    public\n    view\n    virtual\n    hasProposal()\n    returns (\n      uint80 roundId,\n      int256 answer,\n      uint256 startedAt,\n      uint256 updatedAt,\n      uint80 answeredInRound\n    )\n  {\n    return proposedAggregator.latestRoundData();\n  }\n\n  /**\n   * @notice returns the current phase's aggregator address.\n   */\n  function aggregator()\n    external\n    view\n    returns (address)\n  {\n    return address(currentPhase.aggregator);\n  }\n\n  /**\n   * @notice returns the current phase's ID.\n   */\n  function phaseId()\n    external\n    view\n    returns (uint16)\n  {\n    return currentPhase.id;\n  }\n\n  /**\n   * @notice represents the number of decimals the aggregator responses represent.\n   */\n  function decimals()\n    external\n    view\n    override\n    returns (uint8)\n  {\n    return currentPhase.aggregator.decimals();\n  }\n\n  /**\n   * @notice the version number representing the type of aggregator the proxy\n   * points to.\n   */\n  function version()\n    external\n    view\n    override\n    returns (uint256)\n  {\n    return currentPhase.aggregator.version();\n  }\n\n  /**\n   * @notice returns the description of the aggregator the proxy points to.\n   */\n  function description()\n    external\n    view\n    override\n    returns (string memory)\n  {\n    return currentPhase.aggregator.description();\n  }\n\n  /**\n   * @notice Allows the owner to propose a new address for the aggregator\n   * @param _aggregator The new address for the aggregator contract\n   */\n  function proposeAggregator(address _aggregator)\n    external\n    onlyOwner()\n  {\n    proposedAggregator = AggregatorV2V3Interface(_aggregator);\n  }\n\n  /**\n   * @notice Allows the owner to confirm and change the address\n   * to the proposed aggregator\n   * @dev Reverts if the given address doesn't match what was previously\n   * proposed\n   * @param _aggregator The new address for the aggregator contract\n   */\n  function confirmAggregator(address _aggregator)\n    external\n    onlyOwner()\n  {\n    require(_aggregator == address(proposedAggregator), \"Invalid proposed aggregator\");\n    delete proposedAggregator;\n    setAggregator(_aggregator);\n  }\n\n\n  /*\n   * Internal\n   */\n\n  function setAggregator(address _aggregator)\n    internal\n  {\n    uint16 id = currentPhase.id + 1;\n    currentPhase = Phase(id, AggregatorV2V3Interface(_aggregator));\n    phaseAggregators[id] = AggregatorV2V3Interface(_aggregator);\n  }\n\n  function addPhase(\n    uint16 _phase,\n    uint64 _originalId\n  )\n    internal\n    view\n    returns (uint80)\n  {\n    return uint80(uint256(_phase) << PHASE_OFFSET | _originalId);\n  }\n\n  function parseIds(\n    uint256 _roundId\n  )\n    internal\n    view\n    returns (uint16, uint64)\n  {\n    uint16 phaseId = uint16(_roundId >> PHASE_OFFSET);\n    uint64 aggregatorRoundId = uint64(_roundId);\n\n    return (phaseId, aggregatorRoundId);\n  }\n\n  function addPhaseIds(\n      uint80 roundId,\n      int256 answer,\n      uint256 startedAt,\n      uint256 updatedAt,\n      uint80 answeredInRound,\n      uint16 phaseId\n  )\n    internal\n    view\n    returns (uint80, int256, uint256, uint256, uint80)\n  {\n    return (\n      addPhase(phaseId, uint64(roundId)),\n      answer,\n      startedAt,\n      updatedAt,\n      addPhase(phaseId, uint64(answeredInRound))\n    );\n  }\n\n  /*\n   * Modifiers\n   */\n\n  modifier hasProposal() {\n    require(address(proposedAggregator) != address(0), \"No proposed aggregator present\");\n    _;\n  }\n\n}\n\n\ncontract BinaryOptions is ERC20, IBinaryOptions {\n    using SafeMath for uint56;\n    address payable public devFund;\n    address payable public owner;\n    address public uR; //utilization rewards\n    address public biop;\n    address public app;//the approved pp/ratecalc\n    mapping(address=>uint256) public nW; //next withdraw (used for pool lock time)\n    mapping(address=>uint256) public lW;//last withdraw.used for rewards calc\n    mapping(address=>uint256) private pClaims;//pending claims\n    mapping(address=>uint256) public iAL;//interchange at last claim \n    mapping(address=>uint256) public lST;//last stake time\n\n\n    uint256 public oC = 0;\n    uint256 public oP = 0;\n\n\n\n    uint256 public minT;//min rounds\n    uint256 public maxT;//max rounds\n    uint256 public lockedAmount;\n    uint256 public exerciserFee = 50;//in tenth percent\n    uint256 public expirerFee = 50;//in tenth percent\n    uint256 public devFundBetFee = 0;//200;//0.5%\n    uint256 public poolLockSeconds = 7 days;\n    uint256 public contractCreated;\n    bool public open = true;\n    Option[] public options;\n    \n    uint256 public tI = 0;//total interchange\n    uint256 public rwd =  20000000000000000; //base utilitzation reward\n    bool public rewEn = true;//rewards enabled\n\n\n    modifier onlyOwner() {\n        require(owner == msg.sender, \"Ownable: caller is not the owner\");\n        _;\n    }\n\n\n    /* Types */\n    struct Option {\n        address payable holder;\n        int256 sP;//strike\n        uint80 pR;//purchase round\n        uint256 pV;//purchase value\n        uint256 lV;// purchaseAmount+possible reward for correct bet\n        uint80 exp;//final round of option s\n        bool dir;//direction (true for call)\n        address pP;//price provider\n        address aPA;//alt pool address \n    }\n\n    /* Events */\n     event Create(\n        uint256 indexed id,\n        address payable account,\n        int256 sP,//strike\n        uint256 lV,//locked value\n        bool dir,\n        uint80 pR,//purchase round\n        uint80 exp//expiration round\n    );\n    event Payout(uint256 poolLost, address winner);\n    event Exercise(uint256 indexed id);\n    event Expire(uint256 indexed id);\n\n\n    /**\n     * @param name_ the name of the LP token\n     * @param symbol_ the symbol of the LP token\n     * @param biop_ address of the gov token\n     * @param uR_ address of utilization rewards contract\n     * @param app_ address of approved price providerss contract\n     */\n      constructor(string memory name_, string memory symbol_, address biop_, address uR_, address app_) public ERC20(name_, symbol_){\n        devFund = msg.sender;\n        owner = msg.sender;\n        biop = biop_;\n        lockedAmount = 0;\n        contractCreated = block.timestamp;\n        minT = 1;\n        maxT = 3;\n        uR = uR_;\n        app = app_;\n    }\n\n\n    function getMaxAvailable() public view returns(uint256) {\n        uint256 balance = address(this).balance;\n        if (balance > lockedAmount) {\n            return balance.sub(lockedAmount);\n        } else {\n            return 0;\n        }\n    }\n\n\n    function getOptionCount() public view returns(uint256) {\n        return options.length;\n    }\n  \n\n    //used for betting/exercise/expire calc\n    function getBetSizeBonus(uint256 amount, bool completion) public view returns(uint256) {\n        IUtilizationRewards r = IUtilizationRewards(uR);\n        return r.getBetExerciseBonus(amount, address(this).balance, completion);\n    }\n\n\n    function getPendingClaims(address account) public view returns(uint256) {\n\n        IUtilizationRewards r = IUtilizationRewards(uR);\n        if (balanceOf(account) > 1) {\n            //staker reward bonus\n            //base*(weeks)*(poolBalanceBonus/10)*optionsBacked\n            return pClaims[account].add(\n                r.getLPStakingBonus(lST[account],iAL[account], tI, balanceOf(account), totalSupply())\n            );\n        } else {\n            //normal rewards\n            return pClaims[account];\n        }\n    }\n\n    function updateLPmetrics() internal {\n        lST[msg.sender] = block.timestamp;\n        iAL[msg.sender] = tI;\n    }\n     /**\n     * @dev distribute pending governance token claims to user\n     */\n    function claimRewards() external {\n        \n        BIOPTokenV4 b = BIOPTokenV4(biop);\n        \n        uint256 claims = getPendingClaims(msg.sender);\n        if (balanceOf(msg.sender) >= 1) {\n            updateLPmetrics();\n        }\n        pClaims[msg.sender] = 0;\n\n        IUtilizationRewards r = IUtilizationRewards(uR);\n        r.distributeClaim(claims);\n    }\n\n    /**\n     * @dev address of this contract, convenience method\n     */\n    function thisAddress() public view returns (address){\n        return address(this);\n    }\n\n    /**\n     * @dev update BIOP token address\n     * @param a the address for a new BIOP token to be used\n     */\n    function updateBIOPToken(address payable a) external override onlyOwner {\n        biop = a; \n    }\n\n    /**\n     * @dev update reward base amount\n     * @param newUR the new UtilizationRewards contract to use\n     */\n    function updateUtilizationRewards(address newUR) external override onlyOwner {\n        uR = newUR; \n    }\n\n    /**\n     * @dev update APP\n     * @param newAPP the new approved price provider (and ratecalc contract to use). Must be a IAPP\n     */\n    function updateAPP(address newAPP) external override onlyOwner {\n        app = newAPP; \n    }\n\n    \n\n    /**\n     * @dev enable or disable BIOP utilization rewards\n     * @param nx_ the new position for the rewEn switch\n     */\n    function enableRewards(bool nx_) external override onlyOwner {\n        rewEn = nx_;\n    }\n\n    /**\n     * @dev update the max rounds for option bets\n     * @param newMax_ the new maximum time (in rounds) an option may be created for (inclusive).\n     */\n    function setMaxT(uint256 newMax_) external override onlyOwner {\n        maxT = newMax_;\n    }\n\n    /**\n     * @dev update the min rounds for option bets\n     * @param newMin_ the new minimum rounds (in rounds) an option may be created for (inclusive).\n     */\n    function setMinT(uint256 newMin_) external override onlyOwner {\n        minT = newMin_;\n    }\n\n    \n\n    /**\n     * @dev set the fee users can recieve for exercising other users options\n     * @param exerciserFee_ the new fee (in tenth percent) for exercising a options itm\n     */\n    function updateExerciserFee(uint256 exerciserFee_) external override onlyOwner {\n        require(exerciserFee_ > 1 && exerciserFee_ < 500, \"invalid fee\");\n        exerciserFee = exerciserFee_;\n    }\n\n     /**\n     * @dev set the fee users can recieve for expiring other users options\n     * @param expirerFee_ the new fee (in tenth percent) for expiring a options\n     */\n    function updateExpirerFee(uint256 expirerFee_) external override onlyOwner {\n        require(expirerFee_ > 1 && expirerFee_ < 50, \"invalid fee\");\n        expirerFee = expirerFee_;\n    }\n\n    /**\n     * @dev set the fee users pay to buy an option\n     * @param devFundBetFee_ the new fee (in tenth percent) to buy an option\n     */\n    function updateDevFundBetFee(uint256 devFundBetFee_) external override onlyOwner {\n        require(devFundBetFee_ == 0 || devFundBetFee_ > 50, \"invalid fee\");\n        devFundBetFee = devFundBetFee_;\n    }\n\n     /**\n     * @dev update the pool stake lock up time.\n     * @param newLockSeconds_ the new lock time, in seconds\n     */\n    function updatePoolLockSeconds(uint256 newLockSeconds_) external override onlyOwner {\n        require(newLockSeconds_ >= 0 && newLockSeconds_ < 14 days, \"invalid fee\");\n        poolLockSeconds = newLockSeconds_;\n    }\n\n    /**\n     * @dev used to transfer ownership\n     * @param newOwner_ the address of governance contract which takes over control\n     */\n    function transferOwner(address payable newOwner_) external override onlyOwner {\n        owner = newOwner_;\n    }\n\n    /**\n     * @dev used to transfer devfund \n     * @param newDevFund the address of governance contract which takes over control\n     */\n    function transferDevFund(address payable newDevFund) external override onlyOwner {\n        devFund = newDevFund;\n    }\n\n\n     /**\n     * @dev used to send this pool into EOL mode when a newer one is open\n     */\n    function closeStaking() external override onlyOwner {\n        open = false;\n    }\n\n   \n    \n\n    /**\n     * @dev send ETH to the pool. Recieve pETH token representing your claim.\n     * If rewards are available recieve BIOP governance tokens as well.\n    */\n    function stake() external payable {\n        require(open == true, \"pool deposits has closed\");\n        require(msg.value >= 100, \"stake to small\");\n        if (balanceOf(msg.sender) == 0) {\n            lW[msg.sender] = block.timestamp;\n            pClaims[msg.sender] = pClaims[msg.sender].add(rwd.mul(2));\n        }\n        updateLPmetrics();\n        nW[msg.sender] = block.timestamp + poolLockSeconds;//this one is seperate because it isn't updated on reward claim\n        \n        _mint(msg.sender, msg.value);\n    }\n\n    /**\n     * @dev recieve ETH from the pool. \n     * If the current time is before your next available withdraw a 1% fee will be applied.\n     * @param amount The amount of pETH to return the pool (burn).\n    */\n    function withdraw(uint256 amount) public {\n       require (balanceOf(msg.sender) >= amount, \"Insufficent Share Balance\");\n        lW[msg.sender] = block.timestamp;\n        //value to receive\n        uint256 vTR = amount.mul(address(this).balance).div(totalSupply().sub(lockedAmount));\n        _burn(msg.sender, amount);\n        if (block.timestamp <= nW[msg.sender]) {\n            //early withdraw fee\n            uint256 penalty = vTR.div(100);\n            require(devFund.send(penalty), \"transfer failed\");\n            require(msg.sender.send(vTR.sub(penalty)), \"transfer failed\");\n        } else {\n            require(msg.sender.send(vTR), \"transfer failed\");\n        }\n    }\n\n     /**\n    @dev helper for getting rate\n    @param pair the price provider\n    @param deposit bet amount\n    @param t time\n    @param k direction bool, true is call\n    @return the rate\n    */\n    function getRate(address pair, uint256 deposit, uint256 t, bool k) public view returns (uint256) {\n        IAPP app_ = IAPP(app);\n        require(app_.aprvd(pair) != 0x0000000000000000000000000000000000000000, \"invalid trading pair\");\n        \n        RateCalc rc = RateCalc(app_.aprvd(pair));\n        uint256 s;\n        if (k){\n            if (oP >= oC) {\n              s = 1;\n            } else {\n              s = oC.sub(oP);\n            }\n        } else {\n            if (oC >= oP) {\n              s = 1;\n            } else {\n              s = oP.sub(oC);\n            }\n        }\n        \n        return rc.rate(deposit, getMaxAvailable().sub(deposit),lockedAmount , t, k, s);\n    }\n\n     /**\n    @dev Open a new call or put options.\n    @param k_ type of option to buy (true for call )\n    @param pp_ the address of the price provider to use (must be in the list of aprvd from IAPP)\n    @param t_ the rounds until your options expiration (must be minT < t_ > maxT)\n    */\n    function bet(bool k_, address pp_, uint80 t_) external payable {\n        require(\n            t_ >= minT && t_ <= maxT,\n            \"Invalid time\"\n        );\n        IAPP app_ = IAPP(app);\n        require(app_.aprvd(pp_) != 0x0000000000000000000000000000000000000000, \"Invalid  price provider\");\n        \n        AggregatorProxy priceProvider = AggregatorProxy(pp_);\n        (uint80 lR, int256 lA, , , ) = priceProvider.latestRoundData();\n        uint256 oID = options.length;\n\n        \n            //normal eth bet\n            require(msg.value <= getMaxAvailable(), \"bet to big\");\n\n\n            \n\n\n            uint256 lV = getRate(pp_, msg.value, t_, k_);\n            \n            if (rewEn) {\n                pClaims[msg.sender] = pClaims[msg.sender].add(getBetSizeBonus(msg.value, false));\n            }\n            lock(lV);\n        \n\n\n        Option memory op = Option(\n            msg.sender,\n            lA,\n            lR,\n            msg.value,\n            lV,\n            t_,//rounds until expiration\n            k_,\n            pp_,\n            address(this)\n        );\n\n        options.push(op);\n        tI = tI.add(lV);\n        if (k_) {\n            oC = oC+1;\n        } else {\n            oP = oP+1;\n        }\n        emit Create(oID, msg.sender, lA, lV, k_, lR, t_);\n    }\n\n  \n\n\n\n    \n\n     /**\n     * @notice exercises or expire a option\n     * @dev exercise and expire functions have been depreciated in favor of this single complete option\n     * @param oID id of the option to complete\n     */\n    function complete(uint256 oID)\n        external\n    {\n        Option memory option = options[oID];\n\n        AggregatorProxy priceProvider = AggregatorProxy(option.pP);\n        (uint80 lR, int256 lA, , , ) = priceProvider.getRoundData(uint80(option.pR+option.exp));\n        require(lA != 0 && lR != 0, \"not ready yet\");\n        if (option.dir) {\n            //call option\n            if (option.sP > lA) {\n              //OTM expire\n              expire(option, oID);\n            } else {\n              //ITM exercise\n              exercise(option, oID);\n            }\n            oC = oC-1;\n        } else {\n            //put option\n            if (lA > option.sP) {\n              //OTM expire\n              expire(option, oID);\n            } else {\n              //ITM exercise\n              exercise(option, oID);\n            }\n            oP = oP-1;\n        }\n\n\n        if (rewEn) {\n            pClaims[msg.sender] = pClaims[msg.sender].add(getBetSizeBonus(option.lV, true));\n        }\n    }\n\n    /**\n     * @notice exercise an option\n     * @dev use complete to exercise (or expire) an option. This is a internal function\n     * @param option the option to exercise\n     * @param oID the option id\n     */\n    function exercise(Option memory option, uint256 oID) internal {\n        //option expires ITM, we pay out\n\n        uint256 lv = option.lV;\n\n        //an optional (to be choosen by contract owner) fee on each option. \n        //A % of the bet money is sent as a fee. see devFundBetFee\n        if (lv > devFundBetFee && devFundBetFee > 0) {\n                uint256 fee = lv.div(devFundBetFee);\n                require(devFund.send(fee), \"devFund fee transfer failed\");\n                lv = lv.sub(fee);\n        }\n\n        payout(lv, msg.sender, option.holder);\n        lockedAmount = lockedAmount.sub(option.lV);\n        \n        emit Exercise(oID);\n    }\n\n     /**\n     * @notice expire an option\n     * @dev use complete to expire (or exercise) an option. This is a internal function\n     * @param option the option to expire\n     * @param oID the option id\n     */\n    function expire(Option memory option, uint256 oID)\n        internal\n    {   \n        unlock(option.lV, msg.sender);\n        lockedAmount = lockedAmount.sub(option.lV);\n        emit Expire(oID);\n    }\n\n    /**\n    @dev called by BinaryOptions contract to lock pool value coresponding to new binary options bought. \n    @param amount amount in ETH to lock from the pool total.\n    */\n    function lock(uint256 amount) internal {\n        lockedAmount = lockedAmount.add(amount);\n    }\n\n    /**\n    @dev called by BinaryOptions contract to unlock pool value coresponding to an option expiring otm. \n    @param amount amount in ETH to unlock\n    @param goodSamaritan the user paying to unlock these funds, they recieve a fee\n    */\n    function unlock(uint256 amount, address payable goodSamaritan) internal {\n        require(amount <= lockedAmount, \"insufficent locked pool balance to unlock\");\n        uint256 fee;\n        if (amount <= 10000000000000000) {//small options give bigger fee %\n            fee = amount.div(exerciserFee.mul(4)).div(100);\n        } else {\n            fee = amount.div(exerciserFee).div(100);\n        } \n        if (fee > 0) {\n            require(goodSamaritan.send(fee), \"good samaritan transfer failed\");\n        }\n    }\n\n    /**\n    @dev called by BinaryOptions contract to payout pool value coresponding to binary options expiring itm. \n    @param amount amount in ETH to unlock\n    @param exerciser address calling the exercise/expire function, this may the winner or another user who then earns a fee.\n    @param winner address of the winner.\n    @notice exerciser fees are subject to change see updateFeePercent above.\n    */\n    function payout(uint256 amount, address payable exerciser, address payable winner) internal {\n        require(amount <= lockedAmount, \"insufficent pool balance available to payout\");\n        require(amount <= address(this).balance, \"insufficent balance in pool\");\n        if (exerciser != winner) {\n            //good samaratin fee\n            uint256 fee;\n            if (amount <= 10000000000000000) {//small options give bigger fee %\n                fee = amount.div(exerciserFee.mul(4)).div(100);\n            } else {\n                fee = amount.div(exerciserFee).div(100);\n            } \n            if (fee > 0) {\n                require(exerciser.send(fee), \"exerciser transfer failed\");\n                require(winner.send(amount.sub(fee)), \"winner transfer failed\");\n            }\n        } else {  \n            require(winner.send(amount), \"winner transfer failed\");\n        }\n        emit Payout(amount, winner);\n    }\n\n}",
  "sourcePath": "/Users/x/Desktop/eth/BIOPv4/contracts/BinaryOptions.sol",
  "compiler": {
    "name": "solc",
    "version": "0.6.6+commit.6c089d02.Emscripten.clang"
  },
  "schemaVersion": "3.3.4",
  "updatedAt": "2021-04-05T17:26:13.768Z",
  "networkType": "ethereum",
  "devdoc": {
    "methods": {
      "allowance(address,address)": {
        "details": "See {IERC20-allowance}."
      },
      "approve(address,uint256)": {
        "details": "See {IERC20-approve}.     * Requirements:     * - `spender` cannot be the zero address."
      },
      "balanceOf(address)": {
        "details": "See {IERC20-balanceOf}."
      },
      "bet(bool,address,uint80)": {
        "details": "Open a new call or put options.",
        "params": {
          "k_": "type of option to buy (true for call )",
          "pp_": "the address of the price provider to use (must be in the list of aprvd from IAPP)",
          "t_": "the rounds until your options expiration (must be minT < t_ > maxT)"
        }
      },
      "claimRewards()": {
        "details": "distribute pending governance token claims to user"
      },
      "closeStaking()": {
        "details": "used to send this pool into EOL mode when a newer one is open"
      },
      "complete(uint256)": {
        "details": "exercise and expire functions have been depreciated in favor of this single complete option",
        "params": {
          "oID": "id of the option to complete"
        }
      },
      "constructor": {
        "params": {
          "app_": "address of approved price providerss contract",
          "biop_": "address of the gov token",
          "name_": "the name of the LP token",
          "symbol_": "the symbol of the LP token",
          "uR_": "address of utilization rewards contract"
        }
      },
      "decimals()": {
        "details": "Returns the number of decimals used to get its user representation. For example, if `decimals` equals `2`, a balance of `505` tokens should be displayed to a user as `5,05` (`505 / 10 ** 2`).     * Tokens usually opt for a value of 18, imitating the relationship between Ether and Wei. This is the value {ERC20} uses, unless {_setupDecimals} is called.     * NOTE: This information is only used for _display_ purposes: it in no way affects any of the arithmetic of the contract, including {IERC20-balanceOf} and {IERC20-transfer}."
      },
      "decreaseAllowance(address,uint256)": {
        "details": "Atomically decreases the allowance granted to `spender` by the caller.     * This is an alternative to {approve} that can be used as a mitigation for problems described in {IERC20-approve}.     * Emits an {Approval} event indicating the updated allowance.     * Requirements:     * - `spender` cannot be the zero address. - `spender` must have allowance for the caller of at least `subtractedValue`."
      },
      "enableRewards(bool)": {
        "details": "enable or disable BIOP utilization rewards",
        "params": {
          "nx_": "the new position for the rewEn switch"
        }
      },
      "getRate(address,uint256,uint256,bool)": {
        "details": "helper for getting rate",
        "params": {
          "deposit": "bet amount",
          "k": "direction bool, true is call",
          "pair": "the price provider",
          "t": "time"
        },
        "returns": {
          "_0": "the rate"
        }
      },
      "increaseAllowance(address,uint256)": {
        "details": "Atomically increases the allowance granted to `spender` by the caller.     * This is an alternative to {approve} that can be used as a mitigation for problems described in {IERC20-approve}.     * Emits an {Approval} event indicating the updated allowance.     * Requirements:     * - `spender` cannot be the zero address."
      },
      "name()": {
        "details": "Returns the name of the token."
      },
      "setMaxT(uint256)": {
        "details": "update the max rounds for option bets",
        "params": {
          "newMax_": "the new maximum time (in rounds) an option may be created for (inclusive)."
        }
      },
      "setMinT(uint256)": {
        "details": "update the min rounds for option bets",
        "params": {
          "newMin_": "the new minimum rounds (in rounds) an option may be created for (inclusive)."
        }
      },
      "stake()": {
        "details": "send ETH to the pool. Recieve pETH token representing your claim. If rewards are available recieve BIOP governance tokens as well."
      },
      "symbol()": {
        "details": "Returns the symbol of the token, usually a shorter version of the name."
      },
      "thisAddress()": {
        "details": "address of this contract, convenience method"
      },
      "totalSupply()": {
        "details": "See {IERC20-totalSupply}."
      },
      "transfer(address,uint256)": {
        "details": "See {IERC20-transfer}.     * Requirements:     * - `recipient` cannot be the zero address. - the caller must have a balance of at least `amount`."
      },
      "transferDevFund(address)": {
        "details": "used to transfer devfund ",
        "params": {
          "newDevFund": "the address of governance contract which takes over control"
        }
      },
      "transferFrom(address,address,uint256)": {
        "details": "See {IERC20-transferFrom}.     * Emits an {Approval} event indicating the updated allowance. This is not required by the EIP. See the note at the beginning of {ERC20}.     * Requirements:     * - `sender` and `recipient` cannot be the zero address. - `sender` must have a balance of at least `amount`. - the caller must have allowance for ``sender``'s tokens of at least `amount`."
      },
      "transferOwner(address)": {
        "details": "used to transfer ownership",
        "params": {
          "newOwner_": "the address of governance contract which takes over control"
        }
      },
      "updateAPP(address)": {
        "details": "update APP",
        "params": {
          "newAPP": "the new approved price provider (and ratecalc contract to use). Must be a IAPP"
        }
      },
      "updateBIOPToken(address)": {
        "details": "update BIOP token address",
        "params": {
          "a": "the address for a new BIOP token to be used"
        }
      },
      "updateDevFundBetFee(uint256)": {
        "details": "set the fee users pay to buy an option",
        "params": {
          "devFundBetFee_": "the new fee (in tenth percent) to buy an option"
        }
      },
      "updateExerciserFee(uint256)": {
        "details": "set the fee users can recieve for exercising other users options",
        "params": {
          "exerciserFee_": "the new fee (in tenth percent) for exercising a options itm"
        }
      },
      "updateExpirerFee(uint256)": {
        "details": "set the fee users can recieve for expiring other users options",
        "params": {
          "expirerFee_": "the new fee (in tenth percent) for expiring a options"
        }
      },
      "updatePoolLockSeconds(uint256)": {
        "details": "update the pool stake lock up time.",
        "params": {
          "newLockSeconds_": "the new lock time, in seconds"
        }
      },
      "updateUtilizationRewards(address)": {
        "details": "update reward base amount",
        "params": {
          "newUR": "the new UtilizationRewards contract to use"
        }
      },
      "withdraw(uint256)": {
        "details": "recieve ETH from the pool.  If the current time is before your next available withdraw a 1% fee will be applied.",
        "params": {
          "amount": "The amount of pETH to return the pool (burn)."
        }
      }
    }
  },
  "userdoc": {
    "methods": {
      "complete(uint256)": {
        "notice": "exercises or expire a option"
      }
    }
  }
}