{
  "contractName": "BinaryOptions",
  "abi": [
    {
      "inputs": [
        {
          "internalType": "string",
          "name": "name_",
          "type": "string"
        },
        {
          "internalType": "string",
          "name": "symbol_",
          "type": "string"
        },
        {
          "internalType": "address",
          "name": "biop_",
          "type": "address"
        },
        {
          "internalType": "address",
          "name": "uR_",
          "type": "address"
        },
        {
          "internalType": "address",
          "name": "app_",
          "type": "address"
        }
      ],
      "stateMutability": "nonpayable",
      "type": "constructor"
    },
    {
      "anonymous": false,
      "inputs": [
        {
          "indexed": true,
          "internalType": "address",
          "name": "owner",
          "type": "address"
        },
        {
          "indexed": true,
          "internalType": "address",
          "name": "spender",
          "type": "address"
        },
        {
          "indexed": false,
          "internalType": "uint256",
          "name": "value",
          "type": "uint256"
        }
      ],
      "name": "Approval",
      "type": "event"
    },
    {
      "anonymous": false,
      "inputs": [
        {
          "indexed": true,
          "internalType": "uint256",
          "name": "id",
          "type": "uint256"
        },
        {
          "indexed": false,
          "internalType": "address payable",
          "name": "account",
          "type": "address"
        },
        {
          "indexed": false,
          "internalType": "int256",
          "name": "sP",
          "type": "int256"
        },
        {
          "indexed": false,
          "internalType": "uint256",
          "name": "lV",
          "type": "uint256"
        },
        {
          "indexed": false,
          "internalType": "bool",
          "name": "dir",
          "type": "bool"
        },
        {
          "indexed": false,
          "internalType": "uint80",
          "name": "pR",
          "type": "uint80"
        },
        {
          "indexed": false,
          "internalType": "uint80",
          "name": "exp",
          "type": "uint80"
        }
      ],
      "name": "Create",
      "type": "event"
    },
    {
      "anonymous": false,
      "inputs": [
        {
          "indexed": true,
          "internalType": "uint256",
          "name": "id",
          "type": "uint256"
        }
      ],
      "name": "Exercise",
      "type": "event"
    },
    {
      "anonymous": false,
      "inputs": [
        {
          "indexed": true,
          "internalType": "uint256",
          "name": "id",
          "type": "uint256"
        }
      ],
      "name": "Expire",
      "type": "event"
    },
    {
      "anonymous": false,
      "inputs": [
        {
          "indexed": false,
          "internalType": "uint256",
          "name": "poolLost",
          "type": "uint256"
        },
        {
          "indexed": false,
          "internalType": "address",
          "name": "winner",
          "type": "address"
        }
      ],
      "name": "Payout",
      "type": "event"
    },
    {
      "anonymous": false,
      "inputs": [
        {
          "indexed": true,
          "internalType": "address",
          "name": "from",
          "type": "address"
        },
        {
          "indexed": true,
          "internalType": "address",
          "name": "to",
          "type": "address"
        },
        {
          "indexed": false,
          "internalType": "uint256",
          "name": "value",
          "type": "uint256"
        }
      ],
      "name": "Transfer",
      "type": "event"
    },
    {
      "inputs": [
        {
          "internalType": "address",
          "name": "owner",
          "type": "address"
        },
        {
          "internalType": "address",
          "name": "spender",
          "type": "address"
        }
      ],
      "name": "allowance",
      "outputs": [
        {
          "internalType": "uint256",
          "name": "",
          "type": "uint256"
        }
      ],
      "stateMutability": "view",
      "type": "function"
    },
    {
      "inputs": [],
      "name": "app",
      "outputs": [
        {
          "internalType": "address",
          "name": "",
          "type": "address"
        }
      ],
      "stateMutability": "view",
      "type": "function"
    },
    {
      "inputs": [
        {
          "internalType": "address",
          "name": "spender",
          "type": "address"
        },
        {
          "internalType": "uint256",
          "name": "amount",
          "type": "uint256"
        }
      ],
      "name": "approve",
      "outputs": [
        {
          "internalType": "bool",
          "name": "",
          "type": "bool"
        }
      ],
      "stateMutability": "nonpayable",
      "type": "function"
    },
    {
      "inputs": [
        {
          "internalType": "address",
          "name": "account",
          "type": "address"
        }
      ],
      "name": "balanceOf",
      "outputs": [
        {
          "internalType": "uint256",
          "name": "",
          "type": "uint256"
        }
      ],
      "stateMutability": "view",
      "type": "function"
    },
    {
      "inputs": [],
      "name": "biop",
      "outputs": [
        {
          "internalType": "address",
          "name": "",
          "type": "address"
        }
      ],
      "stateMutability": "view",
      "type": "function"
    },
    {
      "inputs": [],
      "name": "contractCreated",
      "outputs": [
        {
          "internalType": "uint256",
          "name": "",
          "type": "uint256"
        }
      ],
      "stateMutability": "view",
      "type": "function"
    },
    {
      "inputs": [],
      "name": "decimals",
      "outputs": [
        {
          "internalType": "uint8",
          "name": "",
          "type": "uint8"
        }
      ],
      "stateMutability": "view",
      "type": "function"
    },
    {
      "inputs": [
        {
          "internalType": "address",
          "name": "spender",
          "type": "address"
        },
        {
          "internalType": "uint256",
          "name": "subtractedValue",
          "type": "uint256"
        }
      ],
      "name": "decreaseAllowance",
      "outputs": [
        {
          "internalType": "bool",
          "name": "",
          "type": "bool"
        }
      ],
      "stateMutability": "nonpayable",
      "type": "function"
    },
    {
      "inputs": [],
      "name": "devFund",
      "outputs": [
        {
          "internalType": "address payable",
          "name": "",
          "type": "address"
        }
      ],
      "stateMutability": "view",
      "type": "function"
    },
    {
      "inputs": [],
      "name": "devFundBetFee",
      "outputs": [
        {
          "internalType": "uint256",
          "name": "",
          "type": "uint256"
        }
      ],
      "stateMutability": "view",
      "type": "function"
    },
    {
      "inputs": [],
      "name": "exerciserFee",
      "outputs": [
        {
          "internalType": "uint256",
          "name": "",
          "type": "uint256"
        }
      ],
      "stateMutability": "view",
      "type": "function"
    },
    {
      "inputs": [],
      "name": "expirerFee",
      "outputs": [
        {
          "internalType": "uint256",
          "name": "",
          "type": "uint256"
        }
      ],
      "stateMutability": "view",
      "type": "function"
    },
    {
      "inputs": [
        {
          "internalType": "address",
          "name": "",
          "type": "address"
        }
      ],
      "name": "iAL",
      "outputs": [
        {
          "internalType": "uint256",
          "name": "",
          "type": "uint256"
        }
      ],
      "stateMutability": "view",
      "type": "function"
    },
    {
      "inputs": [
        {
          "internalType": "address",
          "name": "spender",
          "type": "address"
        },
        {
          "internalType": "uint256",
          "name": "addedValue",
          "type": "uint256"
        }
      ],
      "name": "increaseAllowance",
      "outputs": [
        {
          "internalType": "bool",
          "name": "",
          "type": "bool"
        }
      ],
      "stateMutability": "nonpayable",
      "type": "function"
    },
    {
      "inputs": [
        {
          "internalType": "address",
          "name": "",
          "type": "address"
        }
      ],
      "name": "lST",
      "outputs": [
        {
          "internalType": "uint256",
          "name": "",
          "type": "uint256"
        }
      ],
      "stateMutability": "view",
      "type": "function"
    },
    {
      "inputs": [
        {
          "internalType": "address",
          "name": "",
          "type": "address"
        }
      ],
      "name": "lW",
      "outputs": [
        {
          "internalType": "uint256",
          "name": "",
          "type": "uint256"
        }
      ],
      "stateMutability": "view",
      "type": "function"
    },
    {
      "inputs": [],
      "name": "lockedAmount",
      "outputs": [
        {
          "internalType": "uint256",
          "name": "",
          "type": "uint256"
        }
      ],
      "stateMutability": "view",
      "type": "function"
    },
    {
      "inputs": [],
      "name": "maxT",
      "outputs": [
        {
          "internalType": "uint256",
          "name": "",
          "type": "uint256"
        }
      ],
      "stateMutability": "view",
      "type": "function"
    },
    {
      "inputs": [],
      "name": "minT",
      "outputs": [
        {
          "internalType": "uint256",
          "name": "",
          "type": "uint256"
        }
      ],
      "stateMutability": "view",
      "type": "function"
    },
    {
      "inputs": [
        {
          "internalType": "address",
          "name": "",
          "type": "address"
        }
      ],
      "name": "nW",
      "outputs": [
        {
          "internalType": "uint256",
          "name": "",
          "type": "uint256"
        }
      ],
      "stateMutability": "view",
      "type": "function"
    },
    {
      "inputs": [],
      "name": "name",
      "outputs": [
        {
          "internalType": "string",
          "name": "",
          "type": "string"
        }
      ],
      "stateMutability": "view",
      "type": "function"
    },
    {
      "inputs": [],
      "name": "oC",
      "outputs": [
        {
          "internalType": "uint256",
          "name": "",
          "type": "uint256"
        }
      ],
      "stateMutability": "view",
      "type": "function"
    },
    {
      "inputs": [],
      "name": "oP",
      "outputs": [
        {
          "internalType": "uint256",
          "name": "",
          "type": "uint256"
        }
      ],
      "stateMutability": "view",
      "type": "function"
    },
    {
      "inputs": [],
      "name": "open",
      "outputs": [
        {
          "internalType": "bool",
          "name": "",
          "type": "bool"
        }
      ],
      "stateMutability": "view",
      "type": "function"
    },
    {
      "inputs": [
        {
          "internalType": "uint256",
          "name": "",
          "type": "uint256"
        }
      ],
      "name": "options",
      "outputs": [
        {
          "internalType": "address payable",
          "name": "holder",
          "type": "address"
        },
        {
          "internalType": "int256",
          "name": "sP",
          "type": "int256"
        },
        {
          "internalType": "uint80",
          "name": "pR",
          "type": "uint80"
        },
        {
          "internalType": "uint256",
          "name": "pV",
          "type": "uint256"
        },
        {
          "internalType": "uint256",
          "name": "lV",
          "type": "uint256"
        },
        {
          "internalType": "uint80",
          "name": "exp",
          "type": "uint80"
        },
        {
          "internalType": "bool",
          "name": "dir",
          "type": "bool"
        },
        {
          "internalType": "address",
          "name": "pP",
          "type": "address"
        },
        {
          "internalType": "address",
          "name": "aPA",
          "type": "address"
        }
      ],
      "stateMutability": "view",
      "type": "function"
    },
    {
      "inputs": [],
      "name": "owner",
      "outputs": [
        {
          "internalType": "address payable",
          "name": "",
          "type": "address"
        }
      ],
      "stateMutability": "view",
      "type": "function"
    },
    {
      "inputs": [],
      "name": "poolLockSeconds",
      "outputs": [
        {
          "internalType": "uint256",
          "name": "",
          "type": "uint256"
        }
      ],
      "stateMutability": "view",
      "type": "function"
    },
    {
      "inputs": [],
      "name": "rewEn",
      "outputs": [
        {
          "internalType": "bool",
          "name": "",
          "type": "bool"
        }
      ],
      "stateMutability": "view",
      "type": "function"
    },
    {
      "inputs": [],
      "name": "rwd",
      "outputs": [
        {
          "internalType": "uint256",
          "name": "",
          "type": "uint256"
        }
      ],
      "stateMutability": "view",
      "type": "function"
    },
    {
      "inputs": [],
      "name": "symbol",
      "outputs": [
        {
          "internalType": "string",
          "name": "",
          "type": "string"
        }
      ],
      "stateMutability": "view",
      "type": "function"
    },
    {
      "inputs": [],
      "name": "tI",
      "outputs": [
        {
          "internalType": "uint256",
          "name": "",
          "type": "uint256"
        }
      ],
      "stateMutability": "view",
      "type": "function"
    },
    {
      "inputs": [],
      "name": "totalSupply",
      "outputs": [
        {
          "internalType": "uint256",
          "name": "",
          "type": "uint256"
        }
      ],
      "stateMutability": "view",
      "type": "function"
    },
    {
      "inputs": [
        {
          "internalType": "address",
          "name": "recipient",
          "type": "address"
        },
        {
          "internalType": "uint256",
          "name": "amount",
          "type": "uint256"
        }
      ],
      "name": "transfer",
      "outputs": [
        {
          "internalType": "bool",
          "name": "",
          "type": "bool"
        }
      ],
      "stateMutability": "nonpayable",
      "type": "function"
    },
    {
      "inputs": [
        {
          "internalType": "address",
          "name": "sender",
          "type": "address"
        },
        {
          "internalType": "address",
          "name": "recipient",
          "type": "address"
        },
        {
          "internalType": "uint256",
          "name": "amount",
          "type": "uint256"
        }
      ],
      "name": "transferFrom",
      "outputs": [
        {
          "internalType": "bool",
          "name": "",
          "type": "bool"
        }
      ],
      "stateMutability": "nonpayable",
      "type": "function"
    },
    {
      "inputs": [],
      "name": "uR",
      "outputs": [
        {
          "internalType": "address",
          "name": "",
          "type": "address"
        }
      ],
      "stateMutability": "view",
      "type": "function"
    },
    {
      "inputs": [],
      "name": "getMaxAvailable",
      "outputs": [
        {
          "internalType": "uint256",
          "name": "",
          "type": "uint256"
        }
      ],
      "stateMutability": "view",
      "type": "function"
    },
    {
      "inputs": [],
      "name": "getOptionCount",
      "outputs": [
        {
          "internalType": "uint256",
          "name": "",
          "type": "uint256"
        }
      ],
      "stateMutability": "view",
      "type": "function"
    },
    {
      "inputs": [
        {
          "internalType": "uint256",
          "name": "amount",
          "type": "uint256"
        },
        {
          "internalType": "bool",
          "name": "completion",
          "type": "bool"
        }
      ],
      "name": "getBetSizeBonus",
      "outputs": [
        {
          "internalType": "uint256",
          "name": "",
          "type": "uint256"
        }
      ],
      "stateMutability": "view",
      "type": "function"
    },
    {
      "inputs": [
        {
          "internalType": "uint256",
          "name": "amount",
          "type": "uint256"
        },
        {
          "internalType": "uint256",
          "name": "stack",
          "type": "uint256"
        }
      ],
      "name": "getCompleteBonus",
      "outputs": [
        {
          "internalType": "uint256",
          "name": "",
          "type": "uint256"
        }
      ],
      "stateMutability": "view",
      "type": "function"
    },
    {
      "inputs": [
        {
          "internalType": "address",
          "name": "account",
          "type": "address"
        }
      ],
      "name": "getPendingClaims",
      "outputs": [
        {
          "internalType": "uint256",
          "name": "",
          "type": "uint256"
        }
      ],
      "stateMutability": "view",
      "type": "function"
    },
    {
      "inputs": [],
      "name": "claimRewards",
      "outputs": [],
      "stateMutability": "nonpayable",
      "type": "function"
    },
    {
      "inputs": [],
      "name": "thisAddress",
      "outputs": [
        {
          "internalType": "address",
          "name": "",
          "type": "address"
        }
      ],
      "stateMutability": "view",
      "type": "function"
    },
    {
      "inputs": [
        {
          "internalType": "address payable",
          "name": "a",
          "type": "address"
        }
      ],
      "name": "updateBIOPToken",
      "outputs": [],
      "stateMutability": "nonpayable",
      "type": "function"
    },
    {
      "inputs": [
        {
          "internalType": "address",
          "name": "newUR",
          "type": "address"
        }
      ],
      "name": "updateUtilizationRewards",
      "outputs": [],
      "stateMutability": "nonpayable",
      "type": "function"
    },
    {
      "inputs": [
        {
          "internalType": "address",
          "name": "newAPP",
          "type": "address"
        }
      ],
      "name": "updateAPP",
      "outputs": [],
      "stateMutability": "nonpayable",
      "type": "function"
    },
    {
      "inputs": [
        {
          "internalType": "bool",
          "name": "nx_",
          "type": "bool"
        }
      ],
      "name": "enableRewards",
      "outputs": [],
      "stateMutability": "nonpayable",
      "type": "function"
    },
    {
      "inputs": [
        {
          "internalType": "uint256",
          "name": "newMax_",
          "type": "uint256"
        }
      ],
      "name": "setMaxT",
      "outputs": [],
      "stateMutability": "nonpayable",
      "type": "function"
    },
    {
      "inputs": [
        {
          "internalType": "uint256",
          "name": "newMin_",
          "type": "uint256"
        }
      ],
      "name": "setMinT",
      "outputs": [],
      "stateMutability": "nonpayable",
      "type": "function"
    },
    {
      "inputs": [
        {
          "internalType": "uint256",
          "name": "exerciserFee_",
          "type": "uint256"
        }
      ],
      "name": "updateExerciserFee",
      "outputs": [],
      "stateMutability": "nonpayable",
      "type": "function"
    },
    {
      "inputs": [
        {
          "internalType": "uint256",
          "name": "expirerFee_",
          "type": "uint256"
        }
      ],
      "name": "updateExpirerFee",
      "outputs": [],
      "stateMutability": "nonpayable",
      "type": "function"
    },
    {
      "inputs": [
        {
          "internalType": "uint256",
          "name": "devFundBetFee_",
          "type": "uint256"
        }
      ],
      "name": "updateDevFundBetFee",
      "outputs": [],
      "stateMutability": "nonpayable",
      "type": "function"
    },
    {
      "inputs": [
        {
          "internalType": "uint256",
          "name": "newLockSeconds_",
          "type": "uint256"
        }
      ],
      "name": "updatePoolLockSeconds",
      "outputs": [],
      "stateMutability": "nonpayable",
      "type": "function"
    },
    {
      "inputs": [
        {
          "internalType": "address payable",
          "name": "newOwner_",
          "type": "address"
        }
      ],
      "name": "transferOwner",
      "outputs": [],
      "stateMutability": "nonpayable",
      "type": "function"
    },
    {
      "inputs": [
        {
          "internalType": "address payable",
          "name": "newDevFund",
          "type": "address"
        }
      ],
      "name": "transferDevFund",
      "outputs": [],
      "stateMutability": "nonpayable",
      "type": "function"
    },
    {
      "inputs": [],
      "name": "closeStaking",
      "outputs": [],
      "stateMutability": "nonpayable",
      "type": "function"
    },
    {
      "inputs": [],
      "name": "stake",
      "outputs": [],
      "stateMutability": "payable",
      "type": "function"
    },
    {
      "inputs": [
        {
          "internalType": "uint256",
          "name": "amount",
          "type": "uint256"
        }
      ],
      "name": "withdraw",
      "outputs": [],
      "stateMutability": "nonpayable",
      "type": "function"
    },
    {
      "inputs": [
        {
          "internalType": "address",
          "name": "pair",
          "type": "address"
        },
        {
          "internalType": "uint256",
          "name": "deposit",
          "type": "uint256"
        },
        {
          "internalType": "uint256",
          "name": "t",
          "type": "uint256"
        },
        {
          "internalType": "bool",
          "name": "k",
          "type": "bool"
        }
      ],
      "name": "getRate",
      "outputs": [
        {
          "internalType": "uint256",
          "name": "",
          "type": "uint256"
        }
      ],
      "stateMutability": "view",
      "type": "function"
    },
    {
      "inputs": [
        {
          "internalType": "bool",
          "name": "k_",
          "type": "bool"
        },
        {
          "internalType": "address",
          "name": "pp_",
          "type": "address"
        },
        {
          "internalType": "uint80",
          "name": "t_",
          "type": "uint80"
        }
      ],
      "name": "bet",
      "outputs": [],
      "stateMutability": "payable",
      "type": "function"
    },
    {
      "inputs": [
        {
          "internalType": "uint256",
          "name": "oID",
          "type": "uint256"
        }
      ],
      "name": "complete",
      "outputs": [],
      "stateMutability": "nonpayable",
      "type": "function"
    }
  ],
  "bytecode": "0x60806040526000600f819055601081905560326014819055601555601681905562093a8060175560198054600160ff199182168117909255601b9290925566470de4df820000601c55601d80549092161790553480156200005f57600080fd5b506040516200395138038062003951833981810160405260a08110156200008557600080fd5b8101908080516040519392919084640100000000821115620000a657600080fd5b908301906020820185811115620000bc57600080fd5b8251640100000000811182820188101715620000d757600080fd5b82525081516020918201929091019080838360005b8381101562000106578181015183820152602001620000ec565b50505050905090810190601f168015620001345780820380516001836020036101000a031916815260200191505b50604052602001805160405193929190846401000000008211156200015857600080fd5b9083019060208201858111156200016e57600080fd5b82516401000000008111828201881017156200018957600080fd5b82525081516020918201929091019080838360005b83811015620001b85781810151838201526020016200019e565b50505050905090810190601f168015620001e65780820380516001836020036101000a031916815260200191505b506040908152602082810151918301516060909301518751929550929350869186916200021991600391850190620002bc565b5080516200022f906004906020840190620002bc565b505060058054336101008102610100600160a81b031960ff1990931660129081179390931617909255600680546001600160a01b03199081169093179055600880546001600160a01b039788169084161790556000601355426018556001601155600390556007805494861694821694909417909355506009805491909316911617905550620003619050565b828054600181600116156101000203166002900490600052602060002090601f016020900481019282601f10620002ff57805160ff19168380011785556200032f565b828001600101855582156200032f579182015b828111156200032f57825182559160200191906001019062000312565b506200033d92915062000341565b5090565b6200035e91905b808211156200033d576000815560010162000348565b90565b6135e080620003716000396000f3fe6080604052600436106103975760003560e01c806383880e51116101dc578063b76564bd11610102578063dd62ed3e116100a0578063e56e03cc1161006f578063e56e03cc14610c9f578063f200fb2014610cd2578063fcfff16f14610d05578063fd4cbc0514610d1a57610397565b8063dd62ed3e14610bed578063ded5202614610c28578063e4523ef914610c5a578063e4ae170014610c6f57610397565b8063d25b00d0116100dc578063d25b00d014610b71578063d4dca69b14610b86578063d62c88f414610b9b578063db05c54714610bd857610397565b8063b76564bd14610b32578063bac2e6db14610b47578063c897239114610b5c57610397565b806399f914051161017a578063a9059cbb11610149578063a9059cbb14610a87578063a9493ced14610ac0578063ad33648a14610ad5578063b57ef6a814610aff57610397565b806399f91405146109da5780639b1559c314610a0d578063a457c2d714610a39578063a6bd542714610a7257610397565b80638da5cb5b116101b65780638da5cb5b1461097157806395d89b4114610986578063971d852f1461099b57806398cfe587146109c557610397565b806383880e51146108ff5780638a0c6d26146109145780638a300e681461093e57610397565b806337637f45116102c15780635009a6131161025f5780636a92cf8b1161022e5780636a92cf8b1461083d5780636ab28bc8146108705780636ab7d6d01461088557806370a08231146108cc57610397565b80635009a613146107d4578063602d8608146107fe57806360baaaae1461081357806363691eaa1461082857610397565b8063409e22051161029b578063409e2205146106e75780634390d2a8146107775780634fb2e45d1461078c5780634fce9c84146107bf57610397565b806337637f451461067c57806339509351146106a65780633a4b66f1146106df57610397565b80631a8972d3116103395780632e1a7d4d116103085780632e1a7d4d146105fd5780632f67e35914610627578063313ce5671461063c578063372500ab1461066757610397565b80631a8972d31461054a5780631c94c4291461055f5780631d983e231461059057806323b872dd146105ba57610397565b8063108e184d11610375578063108e184d146104a857806318126dce146104ed57806318160ddd1461050257806319174be61461051757610397565b806306fdde031461039c57806307e665df14610426578063095ea7b31461045b575b600080fd5b3480156103a857600080fd5b506103b1610d44565b6040805160208082528351818301528351919283929083019185019080838360005b838110156103eb5781810151838201526020016103d3565b50505050905090810190601f1680156104185780820380516001836020036101000a031916815260200191505b509250505060405180910390f35b34801561043257600080fd5b506104596004803603602081101561044957600080fd5b50356001600160a01b0316610ddb565b005b34801561046757600080fd5b506104946004803603604081101561047e57600080fd5b506001600160a01b038135169060200135610e4a565b604080519115158252519081900360200190f35b3480156104b457600080fd5b506104db600480360360208110156104cb57600080fd5b50356001600160a01b0316610e68565b60408051918252519081900360200190f35b3480156104f957600080fd5b506104db610e7a565b34801561050e57600080fd5b506104db610e80565b34801561052357600080fd5b506104db6004803603602081101561053a57600080fd5b50356001600160a01b0316610e86565b34801561055657600080fd5b506104db610e98565b34801561056b57600080fd5b50610574610e9e565b604080516001600160a01b039092168252519081900360200190f35b34801561059c57600080fd5b50610459600480360360208110156105b357600080fd5b5035610ead565b3480156105c657600080fd5b50610494600480360360608110156105dd57600080fd5b506001600160a01b03813581169160208101359091169060400135610eff565b34801561060957600080fd5b506104596004803603602081101561062057600080fd5b5035610f8c565b34801561063357600080fd5b506104db6111b4565b34801561064857600080fd5b506106516111ba565b6040805160ff9092168252519081900360200190f35b34801561067357600080fd5b506104596111c3565b34801561068857600080fd5b506104596004803603602081101561069f57600080fd5b503561126c565b3480156106b257600080fd5b50610494600480360360408110156106c957600080fd5b506001600160a01b0381351690602001356112be565b610459611312565b3480156106f357600080fd5b506107116004803603602081101561070a57600080fd5b5035611446565b604080516001600160a01b039a8b16815260208101999099526001600160501b0397881689820152606089019690965260808801949094529190941660a086015292151560c085015291841660e084015292166101008201529051908190036101200190f35b34801561078357600080fd5b506105746114c0565b34801561079857600080fd5b50610459600480360360208110156107af57600080fd5b50356001600160a01b03166114d4565b3480156107cb57600080fd5b506104db611543565b3480156107e057600080fd5b50610459600480360360208110156107f757600080fd5b5035611549565b34801561080a57600080fd5b506104db6115e0565b34801561081f57600080fd5b506104db6115e6565b34801561083457600080fd5b506104db6115ec565b34801561084957600080fd5b506104596004803603602081101561086057600080fd5b50356001600160a01b03166115f2565b34801561087c57600080fd5b506104db611661565b34801561089157600080fd5b506104db600480360360808110156108a857600080fd5b506001600160a01b0381351690602081013590604081013590606001351515611667565b3480156108d857600080fd5b506104db600480360360208110156108ef57600080fd5b50356001600160a01b03166118c4565b34801561090b57600080fd5b506104946118e3565b34801561092057600080fd5b506104596004803603602081101561093757600080fd5b50356118ec565b34801561094a57600080fd5b506104db6004803603602081101561096157600080fd5b50356001600160a01b031661198e565b34801561097d57600080fd5b506105746119a0565b34801561099257600080fd5b506103b16119af565b3480156109a757600080fd5b50610459600480360360208110156109be57600080fd5b5035611a10565b3480156109d157600080fd5b50610459611c5c565b3480156109e657600080fd5b506104db600480360360208110156109fd57600080fd5b50356001600160a01b0316611cbd565b348015610a1957600080fd5b5061045960048036036020811015610a3057600080fd5b50351515611def565b348015610a4557600080fd5b5061049460048036036040811015610a5c57600080fd5b506001600160a01b038135169060200135611e4f565b348015610a7e57600080fd5b506104db611ebd565b348015610a9357600080fd5b5061049460048036036040811015610aaa57600080fd5b506001600160a01b038135169060200135611ec3565b348015610acc57600080fd5b506104db611ed7565b348015610ae157600080fd5b5061045960048036036020811015610af857600080fd5b5035611edd565b348015610b0b57600080fd5b5061045960048036036020811015610b2257600080fd5b50356001600160a01b0316611f7b565b348015610b3e57600080fd5b50610574611fea565b348015610b5357600080fd5b506104db611ff9565b348015610b6857600080fd5b506104db61202e565b348015610b7d57600080fd5b506104db612034565b348015610b9257600080fd5b5061057461203a565b61045960048036036060811015610bb157600080fd5b50803515159060208101356001600160a01b031690604001356001600160501b031661203e565b348015610be457600080fd5b506104db6124f7565b348015610bf957600080fd5b506104db60048036036040811015610c1057600080fd5b506001600160a01b03813581169160200135166124fd565b348015610c3457600080fd5b506104db60048036036040811015610c4b57600080fd5b50803590602001351515612528565b348015610c6657600080fd5b506105746125b9565b348015610c7b57600080fd5b506104db60048036036040811015610c9257600080fd5b50803590602001356125c8565b348015610cab57600080fd5b506104db60048036036020811015610cc257600080fd5b50356001600160a01b0316612624565b348015610cde57600080fd5b5061045960048036036020811015610cf557600080fd5b50356001600160a01b0316612636565b348015610d1157600080fd5b506104946126ab565b348015610d2657600080fd5b5061045960048036036020811015610d3d57600080fd5b50356126b4565b60038054604080516020601f6002600019610100600188161502019095169490940493840181900481028201810190925282815260609390929091830182828015610dd05780601f10610da557610100808354040283529160200191610dd0565b820191906000526020600020905b815481529060010190602001808311610db357829003601f168201915b505050505090505b90565b6006546001600160a01b03163314610e28576040805162461bcd60e51b815260206004820181905260248201526000805160206134fc833981519152604482015290519081900360640190fd5b600980546001600160a01b0319166001600160a01b0392909216919091179055565b6000610e5e610e57612755565b8484612759565b5060015b92915050565b600e6020526000908152604090205481565b60125481565b60025490565b600d6020526000908152604090205481565b601c5481565b6007546001600160a01b031681565b6006546001600160a01b03163314610efa576040805162461bcd60e51b815260206004820181905260248201526000805160206134fc833981519152604482015290519081900360640190fd5b601255565b6000610f0c848484612845565b610f8284610f18612755565b610f7d856040518060600160405280602881526020016134d4602891396001600160a01b038a16600090815260016020526040812090610f56612755565b6001600160a01b03168152602081019190915260400160002054919063ffffffff6129ac16565b612759565b5060019392505050565b80610f96336118c4565b1015610fe9576040805162461bcd60e51b815260206004820152601960248201527f496e737566666963656e742053686172652042616c616e636500000000000000604482015290519081900360640190fd5b336000908152600b602052604081204290556013546110369061101a9061100e610e80565b9063ffffffff612a4316565b61102a844763ffffffff612a8c16565b9063ffffffff612ae516565b90506110423383612b27565b336000908152600a6020526040902054421161115157600061106b82606463ffffffff612ae516565b60055460405191925061010090046001600160a01b0316906108fc8315029083906000818181858888f193505050506110dd576040805162461bcd60e51b815260206004820152600f60248201526e1d1c985b9cd9995c8819985a5b1959608a1b604482015290519081900360640190fd5b336108fc6110f1848463ffffffff612a4316565b6040518115909202916000818181858888f1935050505061114b576040805162461bcd60e51b815260206004820152600f60248201526e1d1c985b9cd9995c8819985a5b1959608a1b604482015290519081900360640190fd5b506111b0565b604051339082156108fc029083906000818181858888f193505050506111b0576040805162461bcd60e51b815260206004820152600f60248201526e1d1c985b9cd9995c8819985a5b1959608a1b604482015290519081900360640190fd5b5050565b60105481565b60055460ff1690565b6008546001600160a01b031660006111da33611cbd565b905060016111e7336118c4565b106111f4576111f4612c2f565b336000908152600c602052604080822082905560075481516303d7ea0160e01b81526004810185905291516001600160a01b039091169283926303d7ea01926024808301939282900301818387803b15801561124f57600080fd5b505af1158015611263573d6000803e3d6000fd5b50505050505050565b6006546001600160a01b031633146112b9576040805162461bcd60e51b815260206004820181905260248201526000805160206134fc833981519152604482015290519081900360640190fd5b601155565b6000610e5e6112cb612755565b84610f7d85600160006112dc612755565b6001600160a01b03908116825260208083019390935260409182016000908120918c16815292529020549063ffffffff612c5216565b60195460ff16151560011461136e576040805162461bcd60e51b815260206004820152601860248201527f706f6f6c206465706f736974732068617320636c6f7365640000000000000000604482015290519081900360640190fd5b60643410156113b5576040805162461bcd60e51b815260206004820152600e60248201526d1cdd185ad9481d1bc81cdb585b1b60921b604482015290519081900360640190fd5b6113be336118c4565b61141957336000908152600b60205260409020429055601c54611408906113ec90600263ffffffff612a8c16565b336000908152600c60205260409020549063ffffffff612c5216565b336000908152600c60205260409020555b611421612c2f565b601754336000818152600a60205260409020429092019091556114449034612cac565b565b601a818154811061145357fe5b600091825260209091206007909102018054600182015460028301546003840154600485015460058601546006909601546001600160a01b03958616975093956001600160501b03938416959294919381169260ff600160501b83041692600160581b9092048116911689565b60055461010090046001600160a01b031681565b6006546001600160a01b03163314611521576040805162461bcd60e51b815260206004820181905260248201526000805160206134fc833981519152604482015290519081900360640190fd5b600680546001600160a01b0319166001600160a01b0392909216919091179055565b60185481565b6006546001600160a01b03163314611596576040805162461bcd60e51b815260206004820181905260248201526000805160206134fc833981519152604482015290519081900360640190fd5b6212750081106115db576040805162461bcd60e51b815260206004820152600b60248201526a696e76616c69642066656560a81b604482015290519081900360640190fd5b601755565b60175481565b60155481565b600f5481565b6006546001600160a01b0316331461163f576040805162461bcd60e51b815260206004820181905260248201526000805160206134fc833981519152604482015290519081900360640190fd5b600780546001600160a01b0319166001600160a01b0392909216919091179055565b60135481565b6009546040805163b7a9eaa960e01b81526001600160a01b03878116600483015291516000939290921691829163b7a9eaa9916024808301926020929190829003018186803b1580156116b957600080fd5b505afa1580156116cd573d6000803e3d6000fd5b505050506040513d60208110156116e357600080fd5b50516001600160a01b0316611736576040805162461bcd60e51b815260206004820152601460248201527334b73b30b634b2103a3930b234b733903830b4b960611b604482015290519081900360640190fd5b6000816001600160a01b031663b7a9eaa9886040518263ffffffff1660e01b815260040180826001600160a01b03166001600160a01b0316815260200191505060206040518083038186803b15801561178e57600080fd5b505afa1580156117a2573d6000803e3d6000fd5b505050506040513d60208110156117b857600080fd5b50519050600084156117f457600f54601054106117d7575060016117ef565b601054600f546117ec9163ffffffff612a4316565b90505b61181f565b601054600f54106118075750600161181f565b600f5460105461181c9163ffffffff612a4316565b90505b60135460408051630752a28960e31b8152600481018a90526024810192909252604482018890528615156064830152608482018390524760a4830152516001600160a01b03841691633a9514489160c4808301926020929190829003018186803b15801561188c57600080fd5b505afa1580156118a0573d6000803e3d6000fd5b505050506040513d60208110156118b657600080fd5b505198975050505050505050565b6001600160a01b0381166000908152602081905260409020545b919050565b601d5460ff1681565b6006546001600160a01b03163314611939576040805162461bcd60e51b815260206004820181905260248201526000805160206134fc833981519152604482015290519081900360640190fd5b60018111801561194a57506101f481105b611989576040805162461bcd60e51b815260206004820152600b60248201526a696e76616c69642066656560a81b604482015290519081900360640190fd5b601455565b600a6020526000908152604090205481565b6006546001600160a01b031681565b60048054604080516020601f6002600019610100600188161502019095169490940493840181900481028201810190925282815260609390929091830182828015610dd05780601f10610da557610100808354040283529160200191610dd0565b611a18613384565b601a8281548110611a2557fe5b600091825260208083206040805161012081018252600790940290910180546001600160a01b03908116855260018201549385019390935260028101546001600160501b03908116858401819052600383015460608701526004808401546080880152600584015480841660a0808a0182905260ff600160501b840416151560c08b0152600160581b909204881660e08a018190526006909601549097166101008901528551639a6fc8f560e01b815296909201909216918501919091529151939550939283928592639a6fc8f592602480840193829003018186803b158015611b0e57600080fd5b505afa158015611b22573d6000803e3d6000fd5b505050506040513d60a0811015611b3857600080fd5b50805160209091015190925090508015801590611b5d57506001600160501b03821615155b611b9e576040805162461bcd60e51b815260206004820152600d60248201526c1b9bdd081c9958591e481e595d609a1b604482015290519081900360640190fd5b6000611bb7601054600f54612c5290919063ffffffff16565b90508460c0015115611bf7578185602001511315611bde57611bd98587612da8565b611be8565b611be88587612dff565b600f8054600019019055611c27565b8460200151821315611c1257611c0d8587612da8565b611c1c565b611c1c8587612dff565b601080546000190190555b601d5460ff1615611c5457611c436113ec8660800151836125c8565b336000908152600c60205260409020555b505050505050565b6006546001600160a01b03163314611ca9576040805162461bcd60e51b815260206004820181905260248201526000805160206134fc833981519152604482015290519081900360640190fd5b6019805460ff19811660ff90911615179055565b6007546000906001600160a01b03166001611cd7846118c4565b1115611dcf576001600160a01b038381166000908152600e6020908152604080832054600d90925290912054601b54611dc7938516926357931484929091611d1e896118c4565b611d26610e80565b6040518663ffffffff1660e01b8152600401808681526020018581526020018481526020018381526020018281526020019550505050505060206040518083038186803b158015611d7657600080fd5b505afa158015611d8a573d6000803e3d6000fd5b505050506040513d6020811015611da057600080fd5b50516001600160a01b0385166000908152600c60205260409020549063ffffffff612c5216565b9150506118de565b50506001600160a01b0381166000908152600c60205260409020546118de565b6006546001600160a01b03163314611e3c576040805162461bcd60e51b815260206004820181905260248201526000805160206134fc833981519152604482015290519081900360640190fd5b601d805460ff1916911515919091179055565b6000610e5e611e5c612755565b84610f7d856040518060600160405280602581526020016135866025913960016000611e86612755565b6001600160a01b03908116825260208083019390935260409182016000908120918d1681529252902054919063ffffffff6129ac16565b601a5490565b6000610e5e611ed0612755565b8484612845565b60165481565b6006546001600160a01b03163314611f2a576040805162461bcd60e51b815260206004820181905260248201526000805160206134fc833981519152604482015290519081900360640190fd5b801580611f375750603281115b611f76576040805162461bcd60e51b815260206004820152600b60248201526a696e76616c69642066656560a81b604482015290519081900360640190fd5b601655565b6006546001600160a01b03163314611fc8576040805162461bcd60e51b815260206004820181905260248201526000805160206134fc833981519152604482015290519081900360640190fd5b600880546001600160a01b0319166001600160a01b0392909216919091179055565b6009546001600160a01b031681565b60135460009047908111156120245760135461201c90829063ffffffff612a4316565b915050610dd8565b6000915050610dd8565b60115481565b60145481565b3090565b601154816001600160501b0316101580156120645750601254816001600160501b031611155b6120a4576040805162461bcd60e51b815260206004820152600c60248201526b496e76616c69642074696d6560a01b604482015290519081900360640190fd5b6009546040805163b7a9eaa960e01b81526001600160a01b03858116600483015291519190921691829163b7a9eaa991602480820192602092909190829003018186803b1580156120f457600080fd5b505afa158015612108573d6000803e3d6000fd5b505050506040513d602081101561211e57600080fd5b50516001600160a01b031661217a576040805162461bcd60e51b815260206004820152601760248201527f496e76616c6964202070726963652070726f7669646572000000000000000000604482015290519081900360640190fd5b6000839050600080826001600160a01b031663feaf968c6040518163ffffffff1660e01b815260040160a06040518083038186803b1580156121bb57600080fd5b505afa1580156121cf573d6000803e3d6000fd5b505050506040513d60a08110156121e557600080fd5b508051602090910151601a5491935091506121fe611ff9565b34111561223f576040805162461bcd60e51b815260206004820152600a60248201526962657420746f2062696760b01b604482015290519081900360640190fd5b60006122568834896001600160501b03168c611667565b601d5490915060ff1615612283576122726113ec346000612528565b336000908152600c60205260409020555b61228c81612f20565b612294613384565b604051806101200160405280336001600160a01b03168152602001858152602001866001600160501b03168152602001348152602001838152602001896001600160501b031681526020018b151581526020018a6001600160a01b03168152602001306001600160a01b03168152509050601a81908060018154018082558091505060019003906000526020600020906007020160009091909190915060008201518160000160006101000a8154816001600160a01b0302191690836001600160a01b031602179055506020820151816001015560408201518160020160006101000a8154816001600160501b0302191690836001600160501b03160217905550606082015181600301556080820151816004015560a08201518160050160006101000a8154816001600160501b0302191690836001600160501b0316021790555060c082015181600501600a6101000a81548160ff02191690831515021790555060e082015181600501600b6101000a8154816001600160a01b0302191690836001600160a01b031602179055506101008201518160060160006101000a8154816001600160a01b0302191690836001600160a01b03160217905550505061246882601b54612c5290919063ffffffff16565b601b55891561247f57600f80546001019055612489565b6010805460010190555b60408051338152602081018690528082018490528b151560608201526001600160501b0380881660808301528a1660a0820152905184917fcd8984b7ffc01146a9ba9096d805b0bec246d7f8e52837a7b5f404464f6b229b919081900360c00190a250505050505050505050565b601b5481565b6001600160a01b03918216600090815260016020908152604080832093909416825291909152205490565b600754604080516314a718f360e31b815260048101859052476024820152831515604482015290516000926001600160a01b031691829163a538c79891606480820192602092909190829003018186803b15801561258557600080fd5b505afa158015612599573d6000803e3d6000fd5b505050506040513d60208110156125af57600080fd5b5051949350505050565b6008546001600160a01b031681565b60075460408051635856504f60e11b8152600481018590524760248201526044810184905290516000926001600160a01b031691829163b0aca09e91606480820192602092909190829003018186803b15801561258557600080fd5b600b6020526000908152604090205481565b6006546001600160a01b03163314612683576040805162461bcd60e51b815260206004820181905260248201526000805160206134fc833981519152604482015290519081900360640190fd5b600580546001600160a01b0390921661010002610100600160a81b0319909216919091179055565b60195460ff1681565b6006546001600160a01b03163314612701576040805162461bcd60e51b815260206004820181905260248201526000805160206134fc833981519152604482015290519081900360640190fd5b6001811180156127115750603281105b612750576040805162461bcd60e51b815260206004820152600b60248201526a696e76616c69642066656560a81b604482015290519081900360640190fd5b601555565b3390565b6001600160a01b03831661279e5760405162461bcd60e51b81526004018080602001828103825260248152602001806135626024913960400191505060405180910390fd5b6001600160a01b0382166127e35760405162461bcd60e51b81526004018080602001828103825260228152602001806134166022913960400191505060405180910390fd5b6001600160a01b03808416600081815260016020908152604080832094871680845294825291829020859055815185815291517f8c5be1e5ebec7d5bd14f71427d1e84f3dd0314c0f7b2291e5b200ac8c7c3b9259281900390910190a3505050565b6001600160a01b03831661288a5760405162461bcd60e51b815260040180806020018281038252602581526020018061353d6025913960400191505060405180910390fd5b6001600160a01b0382166128cf5760405162461bcd60e51b81526004018080602001828103825260238152602001806133d16023913960400191505060405180910390fd5b6128da838383612f39565b61291d81604051806060016040528060268152602001613438602691396001600160a01b038616600090815260208190526040902054919063ffffffff6129ac16565b6001600160a01b038085166000908152602081905260408082209390935590841681522054612952908263ffffffff612c5216565b6001600160a01b038084166000818152602081815260409182902094909455805185815290519193928716927fddf252ad1be2c89b69c2b068fc378daa952ba7f163c4a11628f55a4df523b3ef92918290030190a3505050565b60008184841115612a3b5760405162461bcd60e51b81526004018080602001828103825283818151815260200191508051906020019080838360005b83811015612a005781810151838201526020016129e8565b50505050905090810190601f168015612a2d5780820380516001836020036101000a031916815260200191505b509250505060405180910390fd5b505050900390565b6000612a8583836040518060400160405280601e81526020017f536166654d6174683a207375627472616374696f6e206f766572666c6f7700008152506129ac565b9392505050565b600082612a9b57506000610e62565b82820282848281612aa857fe5b0414612a855760405162461bcd60e51b81526004018080602001828103825260218152602001806134b36021913960400191505060405180910390fd5b6000612a8583836040518060400160405280601a81526020017f536166654d6174683a206469766973696f6e206279207a65726f000000000000815250612f3e565b6001600160a01b038216612b6c5760405162461bcd60e51b815260040180806020018281038252602181526020018061351c6021913960400191505060405180910390fd5b612b7882600083612f39565b612bbb816040518060600160405280602281526020016133f4602291396001600160a01b038516600090815260208190526040902054919063ffffffff6129ac16565b6001600160a01b038316600090815260208190526040902055600254612be7908263ffffffff612a4316565b6002556040805182815290516000916001600160a01b038516917fddf252ad1be2c89b69c2b068fc378daa952ba7f163c4a11628f55a4df523b3ef9181900360200190a35050565b336000908152600e60209081526040808320429055601b54600d90925290912055565b600082820183811015612a85576040805162461bcd60e51b815260206004820152601b60248201527f536166654d6174683a206164646974696f6e206f766572666c6f770000000000604482015290519081900360640190fd5b6001600160a01b038216612d07576040805162461bcd60e51b815260206004820152601f60248201527f45524332303a206d696e7420746f20746865207a65726f206164647265737300604482015290519081900360640190fd5b612d1360008383612f39565b600254612d26908263ffffffff612c5216565b6002556001600160a01b038216600090815260208190526040902054612d52908263ffffffff612c5216565b6001600160a01b0383166000818152602081815260408083209490945583518581529351929391927fddf252ad1be2c89b69c2b068fc378daa952ba7f163c4a11628f55a4df523b3ef9281900390910190a35050565b612db6826080015133612fa3565b6080820151601354612dcd9163ffffffff612a4316565b60135560405181907fa33fd53ba34795ffefaea3759c71f87d38b89ae12e40bc434c826fae0ca5358390600090a25050565b608082015160165481118015612e1757506000601654115b15612ec7576000612e3360165483612ae590919063ffffffff16565b60055460405191925061010090046001600160a01b0316906108fc8315029083906000818181858888f19350505050612eb3576040805162461bcd60e51b815260206004820152601b60248201527f64657646756e6420666565207472616e73666572206661696c65640000000000604482015290519081900360640190fd5b612ec3828263ffffffff612a4316565b9150505b612ed6813385600001516130bf565b6080830151601354612eed9163ffffffff612a4316565b60135560405182907fa2a53c7cb82eeb7994ccbbab71bea210cd63cfeb7823972fb5b6a49c3b0e1d4c90600090a2505050565b601354612f33908263ffffffff612c5216565b60135550565b505050565b60008183612f8d5760405162461bcd60e51b8152602060048201818152835160248401528351909283926044909101919085019080838360008315612a005781810151838201526020016129e8565b506000838581612f9957fe5b0495945050505050565b601354821115612fe45760405162461bcd60e51b815260040180806020018281038252602981526020018061348a6029913960400191505060405180910390fd5b6000662386f26fc1000083116130265761301f606461102a6130126004601454612a8c90919063ffffffff16565b869063ffffffff612ae516565b9050613043565b613040606461102a60145486612ae590919063ffffffff16565b90505b8015612f39576040516001600160a01b0383169082156108fc029083906000818181858888f19350505050612f39576040805162461bcd60e51b815260206004820152601e60248201527f676f6f642073616d61726974616e207472616e73666572206661696c65640000604482015290519081900360640190fd5b6013548311156131005760405162461bcd60e51b815260040180806020018281038252602c81526020018061345e602c913960400191505060405180910390fd5b47831115613155576040805162461bcd60e51b815260206004820152601b60248201527f696e737566666963656e742062616c616e636520696e20706f6f6c0000000000604482015290519081900360640190fd5b806001600160a01b0316826001600160a01b0316146132cd576000662386f26fc1000084116131b0576131a9606461102a61319c6004601454612a8c90919063ffffffff16565b879063ffffffff612ae516565b90506131cd565b6131ca606461102a60145487612ae590919063ffffffff16565b90505b80156132c7576040516001600160a01b0384169082156108fc029083906000818181858888f19350505050613249576040805162461bcd60e51b815260206004820152601960248201527f657865726369736572207472616e73666572206661696c656400000000000000604482015290519081900360640190fd5b6001600160a01b0382166108fc613266868463ffffffff612a4316565b6040518115909202916000818181858888f193505050506132c7576040805162461bcd60e51b81526020600482015260166024820152751dda5b9b995c881d1c985b9cd9995c8819985a5b195960521b604482015290519081900360640190fd5b5061333c565b6040516001600160a01b0382169084156108fc029085906000818181858888f1935050505061333c576040805162461bcd60e51b81526020600482015260166024820152751dda5b9b995c881d1c985b9cd9995c8819985a5b195960521b604482015290519081900360640190fd5b604080518481526001600160a01b038316602082015281517f9b5d1a613fa5f0790b36b13103706e31fca06b229d87e9915b29fc20c1d76490929181900390910190a1505050565b6040805161012081018252600080825260208201819052918101829052606081018290526080810182905260a0810182905260c0810182905260e081018290526101008101919091529056fe45524332303a207472616e7366657220746f20746865207a65726f206164647265737345524332303a206275726e20616d6f756e7420657863656564732062616c616e636545524332303a20617070726f766520746f20746865207a65726f206164647265737345524332303a207472616e7366657220616d6f756e7420657863656564732062616c616e6365696e737566666963656e7420706f6f6c2062616c616e636520617661696c61626c6520746f207061796f7574696e737566666963656e74206c6f636b656420706f6f6c2062616c616e636520746f20756e6c6f636b536166654d6174683a206d756c7469706c69636174696f6e206f766572666c6f7745524332303a207472616e7366657220616d6f756e74206578636565647320616c6c6f77616e63654f776e61626c653a2063616c6c6572206973206e6f7420746865206f776e657245524332303a206275726e2066726f6d20746865207a65726f206164647265737345524332303a207472616e736665722066726f6d20746865207a65726f206164647265737345524332303a20617070726f76652066726f6d20746865207a65726f206164647265737345524332303a2064656372656173656420616c6c6f77616e63652062656c6f77207a65726fa264697066735822122058602a1a7976521f2ac5ad489d58ec2aa25938be5e8b7082b801e8c856e1730664736f6c63430006060033",
  "immutableReferences": {},
  "source": "pragma solidity ^0.6.6;\n\nimport \"@openzeppelin/contracts/math/SafeMath.sol\";\nimport \"@openzeppelin/contracts/token/ERC20/ERC20.sol\";\n\n\n\nimport \"./BIOPTokenV4.sol\";\nimport \"./RateCalc.sol\";\nimport \"./interfaces/IUtilizationRewards.sol\";\nimport \"./interfaces/IBinaryOptions.sol\";\nimport \"./interfaces/IAPP.sol\";\n\n\ninterface AggregatorInterface {\n  function latestAnswer() external view returns (int256);\n  function latestTimestamp() external view returns (uint256);\n  function latestRound() external view returns (uint256);\n  function getAnswer(uint256 roundId) external view returns (int256);\n  function getTimestamp(uint256 roundId) external view returns (uint256);\n\n  event AnswerUpdated(int256 indexed current, uint256 indexed roundId, uint256 updatedAt);\n  event NewRound(uint256 indexed roundId, address indexed startedBy, uint256 startedAt);\n}\ninterface AggregatorV3Interface {\n\n  function decimals() external view returns (uint8);\n  function description() external view returns (string memory);\n  function version() external view returns (uint256);\n\n  // getRoundData and latestRoundData should both raise \"No data present\"\n  // if they do not have data to report, instead of returning unset values\n  // which could be misinterpreted as actual reported values.\n  function getRoundData(uint80 _roundId)\n    external\n    view\n    returns (\n      uint80 roundId,\n      int256 answer,\n      uint256 startedAt,\n      uint256 updatedAt,\n      uint80 answeredInRound\n    );\n  function latestRoundData()\n    external\n    view\n    returns (\n      uint80 roundId,\n      int256 answer,\n      uint256 startedAt,\n      uint256 updatedAt,\n      uint80 answeredInRound\n    );\n\n}\ninterface AggregatorV2V3Interface is AggregatorInterface, AggregatorV3Interface\n{\n}\n\n/**\n * @title The Owned contract\n * @notice A contract with helpers for basic contract ownership.\n */\ncontract Owned {\n\n  address public owner;\n  address private pendingOwner;\n\n  event OwnershipTransferRequested(\n    address indexed from,\n    address indexed to\n  );\n  event OwnershipTransferred(\n    address indexed from,\n    address indexed to\n  );\n\n  constructor() public {\n    owner = msg.sender;\n  }\n\n  /**\n   * @dev Allows an owner to begin transferring ownership to a new address,\n   * pending.\n   */\n  function transferOwnership(address _to)\n    external\n    onlyOwner()\n  {\n    pendingOwner = _to;\n\n    emit OwnershipTransferRequested(owner, _to);\n  }\n\n  /**\n   * @dev Allows an ownership transfer to be completed by the recipient.\n   */\n  function acceptOwnership()\n    external\n  {\n    require(msg.sender == pendingOwner, \"Must be proposed owner\");\n\n    address oldOwner = owner;\n    owner = msg.sender;\n    pendingOwner = address(0);\n\n    emit OwnershipTransferred(oldOwner, msg.sender);\n  }\n\n  /**\n   * @dev Reverts if called by anyone other than the contract owner.\n   */\n  modifier onlyOwner() {\n    require(msg.sender == owner, \"Only callable by owner\");\n    _;\n  }\n\n}\ncontract AggregatorProxy is AggregatorV2V3Interface, Owned {\n\n  struct Phase {\n    uint16 id;\n    AggregatorV2V3Interface aggregator;\n  }\n  Phase private currentPhase;\n  AggregatorV2V3Interface public proposedAggregator;\n  mapping(uint16 => AggregatorV2V3Interface) public phaseAggregators;\n\n  uint256 constant private PHASE_OFFSET = 64;\n  uint256 constant private PHASE_SIZE = 16;\n  uint256 constant private MAX_ID = 2**(PHASE_OFFSET+PHASE_SIZE) - 1;\n\n  constructor(address _aggregator) public Owned() {\n    setAggregator(_aggregator);\n  }\n\n  /**\n   * @notice Reads the current answer from aggregator delegated to.\n   *\n   * @dev #[deprecated] Use latestRoundData instead. This does not error if no\n   * answer has been reached, it will simply return 0. Either wait to point to\n   * an already answered Aggregator or use the recommended latestRoundData\n   * instead which includes better verification information.\n   */\n  function latestAnswer()\n    public\n    view\n    virtual\n    override\n    returns (int256 answer)\n  {\n    return currentPhase.aggregator.latestAnswer();\n  }\n\n  /**\n   * @notice Reads the last updated height from aggregator delegated to.\n   *\n   * @dev #[deprecated] Use latestRoundData instead. This does not error if no\n   * answer has been reached, it will simply return 0. Either wait to point to\n   * an already answered Aggregator or use the recommended latestRoundData\n   * instead which includes better verification information.\n   */\n  function latestTimestamp()\n    public\n    view\n    virtual\n    override\n    returns (uint256 updatedAt)\n  {\n    return currentPhase.aggregator.latestTimestamp();\n  }\n\n  /**\n   * @notice get past rounds answers\n   * @param _roundId the answer number to retrieve the answer for\n   *\n   * @dev #[deprecated] Use getRoundData instead. This does not error if no\n   * answer has been reached, it will simply return 0. Either wait to point to\n   * an already answered Aggregator or use the recommended getRoundData\n   * instead which includes better verification information.\n   */\n  function getAnswer(uint256 _roundId)\n    public\n    view\n    virtual\n    override\n    returns (int256 answer)\n  {\n    if (_roundId > MAX_ID) return 0;\n\n    (uint16 phaseId, uint64 aggregatorRoundId) = parseIds(_roundId);\n    AggregatorV2V3Interface aggregator = phaseAggregators[phaseId];\n    if (address(aggregator) == address(0)) return 0;\n\n    return aggregator.getAnswer(aggregatorRoundId);\n  }\n\n  /**\n   * @notice get block timestamp when an answer was last updated\n   * @param _roundId the answer number to retrieve the updated timestamp for\n   *\n   * @dev #[deprecated] Use getRoundData instead. This does not error if no\n   * answer has been reached, it will simply return 0. Either wait to point to\n   * an already answered Aggregator or use the recommended getRoundData\n   * instead which includes better verification information.\n   */\n  function getTimestamp(uint256 _roundId)\n    public\n    view\n    virtual\n    override\n    returns (uint256 updatedAt)\n  {\n    if (_roundId > MAX_ID) return 0;\n\n    (uint16 phaseId, uint64 aggregatorRoundId) = parseIds(_roundId);\n    AggregatorV2V3Interface aggregator = phaseAggregators[phaseId];\n    if (address(aggregator) == address(0)) return 0;\n\n    return aggregator.getTimestamp(aggregatorRoundId);\n  }\n\n  /**\n   * @notice get the latest completed round where the answer was updated. This\n   * ID includes the proxy's phase, to make sure round IDs increase even when\n   * switching to a newly deployed aggregator.\n   *\n   * @dev #[deprecated] Use latestRoundData instead. This does not error if no\n   * answer has been reached, it will simply return 0. Either wait to point to\n   * an already answered Aggregator or use the recommended latestRoundData\n   * instead which includes better verification information.\n   */\n  function latestRound()\n    public\n    view\n    virtual\n    override\n    returns (uint256 roundId)\n  {\n    Phase memory phase = currentPhase; // cache storage reads\n    return addPhase(phase.id, uint64(phase.aggregator.latestRound()));\n  }\n\n  /**\n   * @notice get data about a round. Consumers are encouraged to check\n   * that they're receiving fresh data by inspecting the updatedAt and\n   * answeredInRound return values.\n   * Note that different underlying implementations of AggregatorV3Interface\n   * have slightly different semantics for some of the return values. Consumers\n   * should determine what implementations they expect to receive\n   * data from and validate that they can properly handle return data from all\n   * of them.\n   * @param _roundId the requested round ID as presented through the proxy, this\n   * is made up of the aggregator's round ID with the phase ID encoded in the\n   * two highest order bytes\n   * @return roundId is the round ID from the aggregator for which the data was\n   * retrieved combined with an phase to ensure that round IDs get larger as\n   * time moves forward.\n   * @return answer is the answer for the given round\n   * @return startedAt is the timestamp when the round was started.\n   * (Only some AggregatorV3Interface implementations return meaningful values)\n   * @return updatedAt is the timestamp when the round last was updated (i.e.\n   * answer was last computed)\n   * @return answeredInRound is the round ID of the round in which the answer\n   * was computed.\n   * (Only some AggregatorV3Interface implementations return meaningful values)\n   * @dev Note that answer and updatedAt may change between queries.\n   */\n  function getRoundData(uint80 _roundId)\n    public\n    view\n    virtual\n    override\n    returns (\n      uint80 roundId,\n      int256 answer,\n      uint256 startedAt,\n      uint256 updatedAt,\n      uint80 answeredInRound\n    )\n  {\n    (uint16 phaseId, uint64 aggregatorRoundId) = parseIds(_roundId);\n\n    (\n      uint80 roundId,\n      int256 answer,\n      uint256 startedAt,\n      uint256 updatedAt,\n      uint80 ansIn\n    ) = phaseAggregators[phaseId].getRoundData(aggregatorRoundId);\n\n    return addPhaseIds(roundId, answer, startedAt, updatedAt, ansIn, phaseId);\n  }\n\n  /**\n   * @notice get data about the latest round. Consumers are encouraged to check\n   * that they're receiving fresh data by inspecting the updatedAt and\n   * answeredInRound return values.\n   * Note that different underlying implementations of AggregatorV3Interface\n   * have slightly different semantics for some of the return values. Consumers\n   * should determine what implementations they expect to receive\n   * data from and validate that they can properly handle return data from all\n   * of them.\n   * @return roundId is the round ID from the aggregator for which the data was\n   * retrieved combined with an phase to ensure that round IDs get larger as\n   * time moves forward.\n   * @return answer is the answer for the given round\n   * @return startedAt is the timestamp when the round was started.\n   * (Only some AggregatorV3Interface implementations return meaningful values)\n   * @return updatedAt is the timestamp when the round last was updated (i.e.\n   * answer was last computed)\n   * @return answeredInRound is the round ID of the round in which the answer\n   * was computed.\n   * (Only some AggregatorV3Interface implementations return meaningful values)\n   * @dev Note that answer and updatedAt may change between queries.\n   */\n  function latestRoundData()\n    public\n    view\n    virtual\n    override\n    returns (\n      uint80 roundId,\n      int256 answer,\n      uint256 startedAt,\n      uint256 updatedAt,\n      uint80 answeredInRound\n    )\n  {\n    Phase memory current = currentPhase; // cache storage reads\n\n    (\n      uint80 roundId,\n      int256 answer,\n      uint256 startedAt,\n      uint256 updatedAt,\n      uint80 ansIn\n    ) = current.aggregator.latestRoundData();\n\n    return addPhaseIds(roundId, answer, startedAt, updatedAt, ansIn, current.id);\n  }\n\n  /**\n   * @notice Used if an aggregator contract has been proposed.\n   * @param _roundId the round ID to retrieve the round data for\n   * @return roundId is the round ID for which data was retrieved\n   * @return answer is the answer for the given round\n   * @return startedAt is the timestamp when the round was started.\n   * (Only some AggregatorV3Interface implementations return meaningful values)\n   * @return updatedAt is the timestamp when the round last was updated (i.e.\n   * answer was last computed)\n   * @return answeredInRound is the round ID of the round in which the answer\n   * was computed.\n  */\n  function proposedGetRoundData(uint80 _roundId)\n    public\n    view\n    virtual\n    hasProposal()\n    returns (\n      uint80 roundId,\n      int256 answer,\n      uint256 startedAt,\n      uint256 updatedAt,\n      uint80 answeredInRound\n    )\n  {\n    return proposedAggregator.getRoundData(_roundId);\n  }\n\n  /**\n   * @notice Used if an aggregator contract has been proposed.\n   * @return roundId is the round ID for which data was retrieved\n   * @return answer is the answer for the given round\n   * @return startedAt is the timestamp when the round was started.\n   * (Only some AggregatorV3Interface implementations return meaningful values)\n   * @return updatedAt is the timestamp when the round last was updated (i.e.\n   * answer was last computed)\n   * @return answeredInRound is the round ID of the round in which the answer\n   * was computed.\n  */\n  function proposedLatestRoundData()\n    public\n    view\n    virtual\n    hasProposal()\n    returns (\n      uint80 roundId,\n      int256 answer,\n      uint256 startedAt,\n      uint256 updatedAt,\n      uint80 answeredInRound\n    )\n  {\n    return proposedAggregator.latestRoundData();\n  }\n\n  /**\n   * @notice returns the current phase's aggregator address.\n   */\n  function aggregator()\n    external\n    view\n    returns (address)\n  {\n    return address(currentPhase.aggregator);\n  }\n\n  /**\n   * @notice returns the current phase's ID.\n   */\n  function phaseId()\n    external\n    view\n    returns (uint16)\n  {\n    return currentPhase.id;\n  }\n\n  /**\n   * @notice represents the number of decimals the aggregator responses represent.\n   */\n  function decimals()\n    external\n    view\n    override\n    returns (uint8)\n  {\n    return currentPhase.aggregator.decimals();\n  }\n\n  /**\n   * @notice the version number representing the type of aggregator the proxy\n   * points to.\n   */\n  function version()\n    external\n    view\n    override\n    returns (uint256)\n  {\n    return currentPhase.aggregator.version();\n  }\n\n  /**\n   * @notice returns the description of the aggregator the proxy points to.\n   */\n  function description()\n    external\n    view\n    override\n    returns (string memory)\n  {\n    return currentPhase.aggregator.description();\n  }\n\n  /**\n   * @notice Allows the owner to propose a new address for the aggregator\n   * @param _aggregator The new address for the aggregator contract\n   */\n  function proposeAggregator(address _aggregator)\n    external\n    onlyOwner()\n  {\n    proposedAggregator = AggregatorV2V3Interface(_aggregator);\n  }\n\n  /**\n   * @notice Allows the owner to confirm and change the address\n   * to the proposed aggregator\n   * @dev Reverts if the given address doesn't match what was previously\n   * proposed\n   * @param _aggregator The new address for the aggregator contract\n   */\n  function confirmAggregator(address _aggregator)\n    external\n    onlyOwner()\n  {\n    require(_aggregator == address(proposedAggregator), \"Invalid proposed aggregator\");\n    delete proposedAggregator;\n    setAggregator(_aggregator);\n  }\n\n\n  /*\n   * Internal\n   */\n\n  function setAggregator(address _aggregator)\n    internal\n  {\n    uint16 id = currentPhase.id + 1;\n    currentPhase = Phase(id, AggregatorV2V3Interface(_aggregator));\n    phaseAggregators[id] = AggregatorV2V3Interface(_aggregator);\n  }\n\n  function addPhase(\n    uint16 _phase,\n    uint64 _originalId\n  )\n    internal\n    view\n    returns (uint80)\n  {\n    return uint80(uint256(_phase) << PHASE_OFFSET | _originalId);\n  }\n\n  function parseIds(\n    uint256 _roundId\n  )\n    internal\n    view\n    returns (uint16, uint64)\n  {\n    uint16 phaseId = uint16(_roundId >> PHASE_OFFSET);\n    uint64 aggregatorRoundId = uint64(_roundId);\n\n    return (phaseId, aggregatorRoundId);\n  }\n\n  function addPhaseIds(\n      uint80 roundId,\n      int256 answer,\n      uint256 startedAt,\n      uint256 updatedAt,\n      uint80 answeredInRound,\n      uint16 phaseId\n  )\n    internal\n    view\n    returns (uint80, int256, uint256, uint256, uint80)\n  {\n    return (\n      addPhase(phaseId, uint64(roundId)),\n      answer,\n      startedAt,\n      updatedAt,\n      addPhase(phaseId, uint64(answeredInRound))\n    );\n  }\n\n  /*\n   * Modifiers\n   */\n\n  modifier hasProposal() {\n    require(address(proposedAggregator) != address(0), \"No proposed aggregator present\");\n    _;\n  }\n\n}\n\n\ncontract BinaryOptions is ERC20, IBinaryOptions {\n    using SafeMath for uint56;\n    address payable public devFund;\n    address payable public owner;\n    address public uR; //utilization rewards\n    address public biop;\n    address public app;//the approved pp/ratecalc\n    mapping(address=>uint256) public nW; //next withdraw (used for pool lock time)\n    mapping(address=>uint256) public lW;//last withdraw.used for rewards calc\n    mapping(address=>uint256) private pClaims;//pending claims\n    mapping(address=>uint256) public iAL;//interchange at last claim \n    mapping(address=>uint256) public lST;//last stake time\n\n\n    uint256 public oC = 0;\n    uint256 public oP = 0;\n\n\n\n    uint256 public minT;//min rounds\n    uint256 public maxT;//max rounds\n    uint256 public lockedAmount;\n    uint256 public exerciserFee = 50;//in tenth percent\n    uint256 public expirerFee = 50;//in tenth percent\n    uint256 public devFundBetFee = 0;//200;//0.5%\n    uint256 public poolLockSeconds = 7 days;\n    uint256 public contractCreated;\n    bool public open = true;\n    Option[] public options;\n    \n    uint256 public tI = 0;//total interchange\n    uint256 public rwd =  20000000000000000; //base utilitzation reward\n    bool public rewEn = true;//rewards enabled\n\n\n    modifier onlyOwner() {\n        require(owner == msg.sender, \"Ownable: caller is not the owner\");\n        _;\n    }\n\n\n    /* Types */\n    struct Option {\n        address payable holder;\n        int256 sP;//strike\n        uint80 pR;//purchase round\n        uint256 pV;//purchase value\n        uint256 lV;// purchaseAmount+possible reward for correct bet\n        uint80 exp;//final round of option s\n        bool dir;//direction (true for call)\n        address pP;//price provider\n        address aPA;//alt pool address \n    }\n\n    /* Events */\n     event Create(\n        uint256 indexed id,\n        address payable account,\n        int256 sP,//strike\n        uint256 lV,//locked value\n        bool dir,\n        uint80 pR,//purchase round\n        uint80 exp//expiration round\n    );\n    event Payout(uint256 poolLost, address winner);\n    event Exercise(uint256 indexed id);\n    event Expire(uint256 indexed id);\n\n\n    /**\n     * @param name_ the name of the LP token\n     * @param symbol_ the symbol of the LP token\n     * @param biop_ address of the gov token\n     * @param uR_ address of utilization rewards contract\n     * @param app_ address of approved price providerss contract\n     */\n      constructor(string memory name_, string memory symbol_, address biop_, address uR_, address app_) public ERC20(name_, symbol_){\n        devFund = msg.sender;\n        owner = msg.sender;\n        biop = biop_;\n        lockedAmount = 0;\n        contractCreated = block.timestamp;\n        minT = 1;\n        maxT = 3;\n        uR = uR_;\n        app = app_;\n    }\n\n\n    function getMaxAvailable() public view returns(uint256) {\n        uint256 balance = address(this).balance;\n        if (balance > lockedAmount) {\n            return balance.sub(lockedAmount);\n        } else {\n            return 0;\n        }\n    }\n\n\n    function getOptionCount() public view returns(uint256) {\n        return options.length;\n    }\n  \n\n    //used for betting/exercise/expire calc\n    function getBetSizeBonus(uint256 amount, bool completion) public view returns(uint256) {\n        IUtilizationRewards r = IUtilizationRewards(uR);\n        return r.getBetExerciseBonus(amount, address(this).balance, completion);\n    }\n\n    /**\n     * @dev Update the amount of rewards pending for this user\n     * @param amount the size of the trade\n     * @param stack the amount of options pending before this execution\n     */\n    function getCompleteBonus(uint256 amount, uint256 stack) public view returns(uint256) {\n        IUtilizationRewards r = IUtilizationRewards(uR);\n        return r.getCompleteBonus(amount, address(this).balance, stack);\n    }\n\n\n    function getPendingClaims(address account) public view returns(uint256) {\n\n        IUtilizationRewards r = IUtilizationRewards(uR);\n        if (balanceOf(account) > 1) {\n            //staker reward bonus\n            //base*(weeks)*(poolBalanceBonus/10)*optionsBacked\n            return pClaims[account].add(\n                r.getLPStakingBonus(lST[account],iAL[account], tI, balanceOf(account), totalSupply())\n            );\n        } else {\n            //normal rewards\n            return pClaims[account];\n        }\n    }\n\n    function updateLPmetrics() internal {\n        lST[msg.sender] = block.timestamp;\n        iAL[msg.sender] = tI;\n    }\n     /**\n     * @dev distribute pending governance token claims to user\n     */\n    function claimRewards() external {\n        \n        BIOPTokenV4 b = BIOPTokenV4(biop);\n        \n        uint256 claims = getPendingClaims(msg.sender);\n        if (balanceOf(msg.sender) >= 1) {\n            updateLPmetrics();\n        }\n        pClaims[msg.sender] = 0;\n\n        IUtilizationRewards r = IUtilizationRewards(uR);\n        r.distributeClaim(claims);\n    }\n\n    /**\n     * @dev address of this contract, convenience method\n     */\n    function thisAddress() public view returns (address){\n        return address(this);\n    }\n\n    /**\n     * @dev update BIOP token address\n     * @param a the address for a new BIOP token to be used\n     */\n    function updateBIOPToken(address payable a) external override onlyOwner {\n        biop = a; \n    }\n\n    /**\n     * @dev update reward base amount\n     * @param newUR the new UtilizationRewards contract to use\n     */\n    function updateUtilizationRewards(address newUR) external override onlyOwner {\n        uR = newUR; \n    }\n\n    /**\n     * @dev update APP\n     * @param newAPP the new approved price provider (and ratecalc contract to use). Must be a IAPP\n     */\n    function updateAPP(address newAPP) external override onlyOwner {\n        app = newAPP; \n    }\n\n    \n\n    /**\n     * @dev enable or disable BIOP utilization rewards\n     * @param nx_ the new position for the rewEn switch\n     */\n    function enableRewards(bool nx_) external override onlyOwner {\n        rewEn = nx_;\n    }\n\n    /**\n     * @dev update the max rounds for option bets\n     * @param newMax_ the new maximum time (in rounds) an option may be created for (inclusive).\n     */\n    function setMaxT(uint256 newMax_) external override onlyOwner {\n        maxT = newMax_;\n    }\n\n    /**\n     * @dev update the min rounds for option bets\n     * @param newMin_ the new minimum rounds (in rounds) an option may be created for (inclusive).\n     */\n    function setMinT(uint256 newMin_) external override onlyOwner {\n        minT = newMin_;\n    }\n\n    \n\n    /**\n     * @dev set the fee users can recieve for exercising other users options\n     * @param exerciserFee_ the new fee (in tenth percent) for exercising a options itm\n     */\n    function updateExerciserFee(uint256 exerciserFee_) external override onlyOwner {\n        require(exerciserFee_ > 1 && exerciserFee_ < 500, \"invalid fee\");\n        exerciserFee = exerciserFee_;\n    }\n\n     /**\n     * @dev set the fee users can recieve for expiring other users options\n     * @param expirerFee_ the new fee (in tenth percent) for expiring a options\n     */\n    function updateExpirerFee(uint256 expirerFee_) external override onlyOwner {\n        require(expirerFee_ > 1 && expirerFee_ < 50, \"invalid fee\");\n        expirerFee = expirerFee_;\n    }\n\n    /**\n     * @dev set the fee users pay to buy an option\n     * @param devFundBetFee_ the new fee (in tenth percent) to buy an option\n     */\n    function updateDevFundBetFee(uint256 devFundBetFee_) external override onlyOwner {\n        require(devFundBetFee_ == 0 || devFundBetFee_ > 50, \"invalid fee\");\n        devFundBetFee = devFundBetFee_;\n    }\n\n     /**\n     * @dev update the pool stake lock up time.\n     * @param newLockSeconds_ the new lock time, in seconds\n     */\n    function updatePoolLockSeconds(uint256 newLockSeconds_) external override onlyOwner {\n        require(newLockSeconds_ >= 0 && newLockSeconds_ < 14 days, \"invalid fee\");\n        poolLockSeconds = newLockSeconds_;\n    }\n\n    /**\n     * @dev used to transfer ownership\n     * @param newOwner_ the address of governance contract which takes over control\n     */\n    function transferOwner(address payable newOwner_) external override onlyOwner {\n        owner = newOwner_;\n    }\n\n    /**\n     * @dev used to transfer devfund \n     * @param newDevFund the address of governance contract which takes over control\n     */\n    function transferDevFund(address payable newDevFund) external override onlyOwner {\n        devFund = newDevFund;\n    }\n\n\n     /**\n     * @dev used to send this pool into EOL mode when a newer one is open\n     */\n    function closeStaking() external override onlyOwner {\n        open = !open;\n    }\n\n   \n    \n\n    /**\n     * @dev send ETH to the pool. Recieve pETH token representing your claim.\n     * If rewards are available recieve BIOP governance tokens as well.\n    */\n    function stake() external payable {\n        require(open == true, \"pool deposits has closed\");\n        require(msg.value >= 100, \"stake to small\");\n        if (balanceOf(msg.sender) == 0) {\n            lW[msg.sender] = block.timestamp;\n            pClaims[msg.sender] = pClaims[msg.sender].add(rwd.mul(2));\n        }\n        updateLPmetrics();\n        nW[msg.sender] = block.timestamp + poolLockSeconds;//this one is seperate because it isn't updated on reward claim\n        \n        _mint(msg.sender, msg.value);\n    }\n\n    /**\n     * @dev recieve ETH from the pool. \n     * If the current time is before your next available withdraw a 1% fee will be applied.\n     * @param amount The amount of pETH to return the pool (burn).\n    */\n    function withdraw(uint256 amount) public {\n       require (balanceOf(msg.sender) >= amount, \"Insufficent Share Balance\");\n        lW[msg.sender] = block.timestamp;\n        //value to receive\n        uint256 vTR = amount.mul(address(this).balance).div(totalSupply().sub(lockedAmount));\n        _burn(msg.sender, amount);\n        if (block.timestamp <= nW[msg.sender]) {\n            //early withdraw fee\n            uint256 penalty = vTR.div(100);\n            require(devFund.send(penalty), \"transfer failed\");\n            require(msg.sender.send(vTR.sub(penalty)), \"transfer failed\");\n        } else {\n            require(msg.sender.send(vTR), \"transfer failed\");\n        }\n    }\n\n     /**\n    @dev helper for getting rate\n    @param pair the price provider\n    @param deposit bet amount\n    @param t time\n    @param k direction bool, true is call\n    @return the rate\n    */\n    function getRate(address pair, uint256 deposit, uint256 t, bool k) public view returns (uint256) {\n        IAPP app_ = IAPP(app);\n        require(app_.aprvd(pair) != 0x0000000000000000000000000000000000000000, \"invalid trading pair\");\n        \n        RateCalc rc = RateCalc(app_.aprvd(pair));\n        uint256 s;\n        if (k){\n            if (oP >= oC) {\n              s = 1;\n            } else {\n              s = oC.sub(oP);\n            }\n        } else {\n            if (oC >= oP) {\n              s = 1;\n            } else {\n              s = oP.sub(oC);\n            }\n        }\n        \n        return rc.rate(deposit, lockedAmount , t, k, s, address(this).balance);\n    }\n\n     /**\n    @dev Open a new call or put options.\n    @param k_ type of option to buy (true for call )\n    @param pp_ the address of the price provider to use (must be in the list of aprvd from IAPP)\n    @param t_ the rounds until your options expiration (must be minT < t_ > maxT)\n    */\n    function bet(bool k_, address pp_, uint80 t_) external payable {\n        require(\n            t_ >= minT && t_ <= maxT,\n            \"Invalid time\"\n        );\n        IAPP app_ = IAPP(app);\n        require(app_.aprvd(pp_) != 0x0000000000000000000000000000000000000000, \"Invalid  price provider\");\n        \n        AggregatorProxy priceProvider = AggregatorProxy(pp_);\n        (uint80 lR, int256 lA, , , ) = priceProvider.latestRoundData();\n        uint256 oID = options.length;\n\n        \n            //normal eth bet\n            require(msg.value <= getMaxAvailable(), \"bet to big\");\n\n\n            \n\n\n            uint256 lV = getRate(pp_, msg.value, t_, k_);\n            \n            if (rewEn) {\n                pClaims[msg.sender] = pClaims[msg.sender].add(getBetSizeBonus(msg.value, false));\n            }\n            lock(lV);\n        \n\n\n        Option memory op = Option(\n            msg.sender,\n            lA,\n            lR,\n            msg.value,\n            lV,\n            t_,//rounds until expiration\n            k_,\n            pp_,\n            address(this)\n        );\n\n        options.push(op);\n        tI = tI.add(lV);\n        if (k_) {\n            oC = oC+1;\n        } else {\n            oP = oP+1;\n        }\n        emit Create(oID, msg.sender, lA, lV, k_, lR, t_);\n    }\n\n  \n\n\n\n    \n\n     /**\n     * @notice exercises or expire a option\n     * @dev exercise and expire functions have been depreciated in favor of this single complete option\n     * @param oID id of the option to complete\n     */\n    function complete(uint256 oID)\n        external\n    {\n        Option memory option = options[oID];\n\n        AggregatorProxy priceProvider = AggregatorProxy(option.pP);\n        (uint80 lR, int256 lA, , , ) = priceProvider.getRoundData(uint80(option.pR+option.exp));\n        require(lA != 0 && lR != 0, \"not ready yet\");\n        uint256 stack = oC.add(oP);\n        if (option.dir) {\n            //call option\n            if (option.sP > lA) {\n              //OTM expire\n              expire(option, oID);\n            } else {\n              //ITM exercise\n              exercise(option, oID);\n            }\n            oC = oC-1;\n        } else {\n            //put option\n            if (lA > option.sP) {\n              //OTM expire\n              expire(option, oID);\n            } else {\n              //ITM exercise\n              exercise(option, oID);\n            }\n            oP = oP-1;\n        }\n\n\n        if (rewEn) {\n            pClaims[msg.sender] = pClaims[msg.sender].add(getCompleteBonus(option.lV, stack));\n        }\n    }\n\n    /**\n     * @notice exercise an option\n     * @dev use complete to exercise (or expire) an option. This is a internal function\n     * @param option the option to exercise\n     * @param oID the option id\n     */\n    function exercise(Option memory option, uint256 oID) internal {\n        //option expires ITM, we pay out\n\n        uint256 lv = option.lV;\n\n        //an optional (to be choosen by contract owner) fee on each option. \n        //A % of the bet money is sent as a fee. see devFundBetFee\n        if (lv > devFundBetFee && devFundBetFee > 0) {\n                uint256 fee = lv.div(devFundBetFee);\n                require(devFund.send(fee), \"devFund fee transfer failed\");\n                lv = lv.sub(fee);\n        }\n\n        payout(lv, msg.sender, option.holder);\n        lockedAmount = lockedAmount.sub(option.lV);\n        \n        emit Exercise(oID);\n    }\n\n     /**\n     * @notice expire an option\n     * @dev use complete to expire (or exercise) an option. This is a internal function\n     * @param option the option to expire\n     * @param oID the option id\n     */\n    function expire(Option memory option, uint256 oID)\n        internal\n    {   \n        unlock(option.lV, msg.sender);\n        lockedAmount = lockedAmount.sub(option.lV);\n        emit Expire(oID);\n    }\n\n    /**\n    @dev called by BinaryOptions contract to lock pool value coresponding to new binary options bought. \n    @param amount amount in ETH to lock from the pool total.\n    */\n    function lock(uint256 amount) internal {\n        lockedAmount = lockedAmount.add(amount);\n    }\n\n    /**\n    @dev called by BinaryOptions contract to unlock pool value coresponding to an option expiring otm. \n    @param amount amount in ETH to unlock\n    @param goodSamaritan the user paying to unlock these funds, they recieve a fee\n    */\n    function unlock(uint256 amount, address payable goodSamaritan) internal {\n        require(amount <= lockedAmount, \"insufficent locked pool balance to unlock\");\n        uint256 fee;\n        if (amount <= 10000000000000000) {//small options give bigger fee %\n            fee = amount.div(exerciserFee.mul(4)).div(100);\n        } else {\n            fee = amount.div(exerciserFee).div(100);\n        } \n        if (fee > 0) {\n            require(goodSamaritan.send(fee), \"good samaritan transfer failed\");\n        }\n    }\n\n    /**\n    @dev called by BinaryOptions contract to payout pool value coresponding to binary options expiring itm. \n    @param amount amount in ETH to unlock\n    @param exerciser address calling the exercise/expire function, this may the winner or another user who then earns a fee.\n    @param winner address of the winner.\n    @notice exerciser fees are subject to change see updateFeePercent above.\n    */\n    function payout(uint256 amount, address payable exerciser, address payable winner) internal {\n        require(amount <= lockedAmount, \"insufficent pool balance available to payout\");\n        require(amount <= address(this).balance, \"insufficent balance in pool\");\n        if (exerciser != winner) {\n            //good samaratin fee\n            uint256 fee;\n            if (amount <= 10000000000000000) {//small options give bigger fee %\n                fee = amount.div(exerciserFee.mul(4)).div(100);\n            } else {\n                fee = amount.div(exerciserFee).div(100);\n            } \n            if (fee > 0) {\n                require(exerciser.send(fee), \"exerciser transfer failed\");\n                require(winner.send(amount.sub(fee)), \"winner transfer failed\");\n            }\n        } else {  \n            require(winner.send(amount), \"winner transfer failed\");\n        }\n        emit Payout(amount, winner);\n    }\n\n}\n",
  "sourcePath": "/Users/x/Desktop/eth/BIOPv4/contracts/BinaryOptions.sol",
  "compiler": {
    "name": "solc",
    "version": "0.6.6+commit.6c089d02.Emscripten.clang"
  },
  "schemaVersion": "3.3.4",
  "updatedAt": "2021-05-15T00:45:48.116Z",
  "devdoc": {
    "methods": {
      "allowance(address,address)": {
        "details": "See {IERC20-allowance}."
      },
      "approve(address,uint256)": {
        "details": "See {IERC20-approve}.     * Requirements:     * - `spender` cannot be the zero address."
      },
      "balanceOf(address)": {
        "details": "See {IERC20-balanceOf}."
      },
      "bet(bool,address,uint80)": {
        "details": "Open a new call or put options.",
        "params": {
          "k_": "type of option to buy (true for call )",
          "pp_": "the address of the price provider to use (must be in the list of aprvd from IAPP)",
          "t_": "the rounds until your options expiration (must be minT < t_ > maxT)"
        }
      },
      "claimRewards()": {
        "details": "distribute pending governance token claims to user"
      },
      "closeStaking()": {
        "details": "used to send this pool into EOL mode when a newer one is open"
      },
      "complete(uint256)": {
        "details": "exercise and expire functions have been depreciated in favor of this single complete option",
        "params": {
          "oID": "id of the option to complete"
        }
      },
      "constructor": {
        "params": {
          "app_": "address of approved price providerss contract",
          "biop_": "address of the gov token",
          "name_": "the name of the LP token",
          "symbol_": "the symbol of the LP token",
          "uR_": "address of utilization rewards contract"
        }
      },
      "decimals()": {
        "details": "Returns the number of decimals used to get its user representation. For example, if `decimals` equals `2`, a balance of `505` tokens should be displayed to a user as `5,05` (`505 / 10 ** 2`).     * Tokens usually opt for a value of 18, imitating the relationship between Ether and Wei. This is the value {ERC20} uses, unless {_setupDecimals} is called.     * NOTE: This information is only used for _display_ purposes: it in no way affects any of the arithmetic of the contract, including {IERC20-balanceOf} and {IERC20-transfer}."
      },
      "decreaseAllowance(address,uint256)": {
        "details": "Atomically decreases the allowance granted to `spender` by the caller.     * This is an alternative to {approve} that can be used as a mitigation for problems described in {IERC20-approve}.     * Emits an {Approval} event indicating the updated allowance.     * Requirements:     * - `spender` cannot be the zero address. - `spender` must have allowance for the caller of at least `subtractedValue`."
      },
      "enableRewards(bool)": {
        "details": "enable or disable BIOP utilization rewards",
        "params": {
          "nx_": "the new position for the rewEn switch"
        }
      },
      "getCompleteBonus(uint256,uint256)": {
        "details": "Update the amount of rewards pending for this user",
        "params": {
          "amount": "the size of the trade",
          "stack": "the amount of options pending before this execution"
        }
      },
      "getRate(address,uint256,uint256,bool)": {
        "details": "helper for getting rate",
        "params": {
          "deposit": "bet amount",
          "k": "direction bool, true is call",
          "pair": "the price provider",
          "t": "time"
        },
        "returns": {
          "_0": "the rate"
        }
      },
      "increaseAllowance(address,uint256)": {
        "details": "Atomically increases the allowance granted to `spender` by the caller.     * This is an alternative to {approve} that can be used as a mitigation for problems described in {IERC20-approve}.     * Emits an {Approval} event indicating the updated allowance.     * Requirements:     * - `spender` cannot be the zero address."
      },
      "name()": {
        "details": "Returns the name of the token."
      },
      "setMaxT(uint256)": {
        "details": "update the max rounds for option bets",
        "params": {
          "newMax_": "the new maximum time (in rounds) an option may be created for (inclusive)."
        }
      },
      "setMinT(uint256)": {
        "details": "update the min rounds for option bets",
        "params": {
          "newMin_": "the new minimum rounds (in rounds) an option may be created for (inclusive)."
        }
      },
      "stake()": {
        "details": "send ETH to the pool. Recieve pETH token representing your claim. If rewards are available recieve BIOP governance tokens as well."
      },
      "symbol()": {
        "details": "Returns the symbol of the token, usually a shorter version of the name."
      },
      "thisAddress()": {
        "details": "address of this contract, convenience method"
      },
      "totalSupply()": {
        "details": "See {IERC20-totalSupply}."
      },
      "transfer(address,uint256)": {
        "details": "See {IERC20-transfer}.     * Requirements:     * - `recipient` cannot be the zero address. - the caller must have a balance of at least `amount`."
      },
      "transferDevFund(address)": {
        "details": "used to transfer devfund ",
        "params": {
          "newDevFund": "the address of governance contract which takes over control"
        }
      },
      "transferFrom(address,address,uint256)": {
        "details": "See {IERC20-transferFrom}.     * Emits an {Approval} event indicating the updated allowance. This is not required by the EIP. See the note at the beginning of {ERC20}.     * Requirements:     * - `sender` and `recipient` cannot be the zero address. - `sender` must have a balance of at least `amount`. - the caller must have allowance for ``sender``'s tokens of at least `amount`."
      },
      "transferOwner(address)": {
        "details": "used to transfer ownership",
        "params": {
          "newOwner_": "the address of governance contract which takes over control"
        }
      },
      "updateAPP(address)": {
        "details": "update APP",
        "params": {
          "newAPP": "the new approved price provider (and ratecalc contract to use). Must be a IAPP"
        }
      },
      "updateBIOPToken(address)": {
        "details": "update BIOP token address",
        "params": {
          "a": "the address for a new BIOP token to be used"
        }
      },
      "updateDevFundBetFee(uint256)": {
        "details": "set the fee users pay to buy an option",
        "params": {
          "devFundBetFee_": "the new fee (in tenth percent) to buy an option"
        }
      },
      "updateExerciserFee(uint256)": {
        "details": "set the fee users can recieve for exercising other users options",
        "params": {
          "exerciserFee_": "the new fee (in tenth percent) for exercising a options itm"
        }
      },
      "updateExpirerFee(uint256)": {
        "details": "set the fee users can recieve for expiring other users options",
        "params": {
          "expirerFee_": "the new fee (in tenth percent) for expiring a options"
        }
      },
      "updatePoolLockSeconds(uint256)": {
        "details": "update the pool stake lock up time.",
        "params": {
          "newLockSeconds_": "the new lock time, in seconds"
        }
      },
      "updateUtilizationRewards(address)": {
        "details": "update reward base amount",
        "params": {
          "newUR": "the new UtilizationRewards contract to use"
        }
      },
      "withdraw(uint256)": {
        "details": "recieve ETH from the pool.  If the current time is before your next available withdraw a 1% fee will be applied.",
        "params": {
          "amount": "The amount of pETH to return the pool (burn)."
        }
      }
    }
  },
  "userdoc": {
    "methods": {
      "complete(uint256)": {
        "notice": "exercises or expire a option"
      }
    }
  }
}