{
  "contractName": "BIOPTokenV4",
  "abi": [
    {
      "inputs": [
        {
          "internalType": "string",
          "name": "name_",
          "type": "string"
        },
        {
          "internalType": "string",
          "name": "symbol_",
          "type": "string"
        }
      ],
      "stateMutability": "nonpayable",
      "type": "constructor"
    },
    {
      "anonymous": false,
      "inputs": [
        {
          "indexed": true,
          "internalType": "address",
          "name": "owner",
          "type": "address"
        },
        {
          "indexed": true,
          "internalType": "address",
          "name": "spender",
          "type": "address"
        },
        {
          "indexed": false,
          "internalType": "uint256",
          "name": "value",
          "type": "uint256"
        }
      ],
      "name": "Approval",
      "type": "event"
    },
    {
      "anonymous": false,
      "inputs": [
        {
          "indexed": true,
          "internalType": "address",
          "name": "from",
          "type": "address"
        },
        {
          "indexed": true,
          "internalType": "address",
          "name": "to",
          "type": "address"
        },
        {
          "indexed": false,
          "internalType": "uint256",
          "name": "value",
          "type": "uint256"
        }
      ],
      "name": "Transfer",
      "type": "event"
    },
    {
      "inputs": [
        {
          "internalType": "address",
          "name": "owner",
          "type": "address"
        },
        {
          "internalType": "address",
          "name": "spender",
          "type": "address"
        }
      ],
      "name": "allowance",
      "outputs": [
        {
          "internalType": "uint256",
          "name": "",
          "type": "uint256"
        }
      ],
      "stateMutability": "view",
      "type": "function"
    },
    {
      "inputs": [
        {
          "internalType": "address",
          "name": "account",
          "type": "address"
        }
      ],
      "name": "balanceOf",
      "outputs": [
        {
          "internalType": "uint256",
          "name": "",
          "type": "uint256"
        }
      ],
      "stateMutability": "view",
      "type": "function"
    },
    {
      "inputs": [],
      "name": "decimals",
      "outputs": [
        {
          "internalType": "uint8",
          "name": "",
          "type": "uint8"
        }
      ],
      "stateMutability": "view",
      "type": "function"
    },
    {
      "inputs": [
        {
          "internalType": "address",
          "name": "spender",
          "type": "address"
        },
        {
          "internalType": "uint256",
          "name": "subtractedValue",
          "type": "uint256"
        }
      ],
      "name": "decreaseAllowance",
      "outputs": [
        {
          "internalType": "bool",
          "name": "",
          "type": "bool"
        }
      ],
      "stateMutability": "nonpayable",
      "type": "function"
    },
    {
      "inputs": [
        {
          "internalType": "address",
          "name": "spender",
          "type": "address"
        },
        {
          "internalType": "uint256",
          "name": "addedValue",
          "type": "uint256"
        }
      ],
      "name": "increaseAllowance",
      "outputs": [
        {
          "internalType": "bool",
          "name": "",
          "type": "bool"
        }
      ],
      "stateMutability": "nonpayable",
      "type": "function"
    },
    {
      "inputs": [],
      "name": "name",
      "outputs": [
        {
          "internalType": "string",
          "name": "",
          "type": "string"
        }
      ],
      "stateMutability": "view",
      "type": "function"
    },
    {
      "inputs": [],
      "name": "owner",
      "outputs": [
        {
          "internalType": "address",
          "name": "",
          "type": "address"
        }
      ],
      "stateMutability": "view",
      "type": "function"
    },
    {
      "inputs": [],
      "name": "symbol",
      "outputs": [
        {
          "internalType": "string",
          "name": "",
          "type": "string"
        }
      ],
      "stateMutability": "view",
      "type": "function"
    },
    {
      "inputs": [],
      "name": "totalSupply",
      "outputs": [
        {
          "internalType": "uint256",
          "name": "",
          "type": "uint256"
        }
      ],
      "stateMutability": "view",
      "type": "function"
    },
    {
      "inputs": [
        {
          "internalType": "address",
          "name": "recipient",
          "type": "address"
        },
        {
          "internalType": "uint256",
          "name": "amount",
          "type": "uint256"
        }
      ],
      "name": "transfer",
      "outputs": [
        {
          "internalType": "bool",
          "name": "",
          "type": "bool"
        }
      ],
      "stateMutability": "nonpayable",
      "type": "function"
    },
    {
      "inputs": [
        {
          "internalType": "address",
          "name": "sender",
          "type": "address"
        },
        {
          "internalType": "address",
          "name": "recipient",
          "type": "address"
        },
        {
          "internalType": "uint256",
          "name": "amount",
          "type": "uint256"
        }
      ],
      "name": "transferFrom",
      "outputs": [
        {
          "internalType": "bool",
          "name": "",
          "type": "bool"
        }
      ],
      "stateMutability": "nonpayable",
      "type": "function"
    },
    {
      "inputs": [
        {
          "internalType": "address",
          "name": "",
          "type": "address"
        }
      ],
      "name": "whitelist",
      "outputs": [
        {
          "internalType": "bool",
          "name": "",
          "type": "bool"
        }
      ],
      "stateMutability": "view",
      "type": "function"
    },
    {
      "inputs": [],
      "name": "whitelistEnabled",
      "outputs": [
        {
          "internalType": "bool",
          "name": "",
          "type": "bool"
        }
      ],
      "stateMutability": "view",
      "type": "function"
    },
    {
      "inputs": [
        {
          "internalType": "uint256",
          "name": "amount",
          "type": "uint256"
        }
      ],
      "name": "burn",
      "outputs": [],
      "stateMutability": "nonpayable",
      "type": "function"
    },
    {
      "inputs": [
        {
          "internalType": "address payable",
          "name": "newOwner_",
          "type": "address"
        }
      ],
      "name": "transferOwner",
      "outputs": [],
      "stateMutability": "nonpayable",
      "type": "function"
    },
    {
      "inputs": [
        {
          "internalType": "address payable",
          "name": "user",
          "type": "address"
        }
      ],
      "name": "addToWhitelist",
      "outputs": [],
      "stateMutability": "nonpayable",
      "type": "function"
    },
    {
      "inputs": [
        {
          "internalType": "address payable",
          "name": "user",
          "type": "address"
        }
      ],
      "name": "removeFromWhitelist",
      "outputs": [],
      "stateMutability": "nonpayable",
      "type": "function"
    },
    {
      "inputs": [],
      "name": "disableWhitelist",
      "outputs": [],
      "stateMutability": "nonpayable",
      "type": "function"
    },
    {
      "inputs": [
        {
          "internalType": "address",
          "name": "spender",
          "type": "address"
        },
        {
          "internalType": "uint256",
          "name": "amount",
          "type": "uint256"
        }
      ],
      "name": "approve",
      "outputs": [
        {
          "internalType": "bool",
          "name": "",
          "type": "bool"
        }
      ],
      "stateMutability": "nonpayable",
      "type": "function"
    }
  ],
  "bytecode": "0x60806040526005805461ff00191690553480156200001c57600080fd5b506040516200146d3803806200146d833981810160405260408110156200004257600080fd5b81019080805160405193929190846401000000008211156200006357600080fd5b9083019060208201858111156200007957600080fd5b82516401000000008111828201881017156200009457600080fd5b82525081516020918201929091019080838360005b83811015620000c3578181015183820152602001620000a9565b50505050905090810190601f168015620000f15780820380516001836020036101000a031916815260200191505b50604052602001805160405193929190846401000000008211156200011557600080fd5b9083019060208201858111156200012b57600080fd5b82516401000000008111828201881017156200014657600080fd5b82525081516020918201929091019080838360005b83811015620001755781810151838201526020016200015b565b50505050905090810190601f168015620001a35780820380516001836020036101000a031916815260200191505b50604052505082518391508290620001c3906003906020850190620003ce565b508051620001d9906004906020840190620003ce565b50506005805460ff19166012179055506200020b336c1068870b629722d92b038000006001600160e01b036200024f16565b50506005805461ff001916610100179055336000818152600660205260409020805460ff19166001179055600780546001600160a01b031916909117905562000473565b6001600160a01b038216620002ab576040805162461bcd60e51b815260206004820152601f60248201527f45524332303a206d696e7420746f20746865207a65726f206164647265737300604482015290519081900360640190fd5b620002c2600083836001600160e01b036200036716565b620002de816002546200036c60201b62000cc01790919060201c565b6002556001600160a01b038216600090815260208181526040909120546200031191839062000cc06200036c821b17901c565b6001600160a01b0383166000818152602081815260408083209490945583518581529351929391927fddf252ad1be2c89b69c2b068fc378daa952ba7f163c4a11628f55a4df523b3ef9281900390910190a35050565b505050565b600082820183811015620003c7576040805162461bcd60e51b815260206004820152601b60248201527f536166654d6174683a206164646974696f6e206f766572666c6f770000000000604482015290519081900360640190fd5b9392505050565b828054600181600116156101000203166002900490600052602060002090601f016020900481019282601f106200041157805160ff191683800117855562000441565b8280016001018555821562000441579182015b828111156200044157825182559160200191906001019062000424565b506200044f92915062000453565b5090565b6200047091905b808211156200044f57600081556001016200045a565b90565b610fea80620004836000396000f3fe608060405234801561001057600080fd5b50600436106101215760003560e01c806370a08231116100ad578063a457c2d711610071578063a457c2d714610368578063a9059cbb14610394578063d6b0f484146103c0578063dd62ed3e146103c8578063e43252d7146103f657610121565b806370a08231146102ca5780638ab1d681146102f05780638da5cb5b1461031657806395d89b411461033a5780639b19251a1461034257610121565b8063313ce567116100f4578063313ce56714610233578063395093511461025157806342966c681461027d5780634fb2e45d1461029c57806351fb012d146102c257610121565b806306fdde0314610126578063095ea7b3146101a357806318160ddd146101e357806323b872dd146101fd575b600080fd5b61012e61041c565b6040805160208082528351818301528351919283929083019185019080838360005b83811015610168578181015183820152602001610150565b50505050905090810190601f1680156101955780820380516001836020036101000a031916815260200191505b509250505060405180910390f35b6101cf600480360360408110156101b957600080fd5b506001600160a01b0381351690602001356104b2565b604080519115158252519081900360200190f35b6101eb610553565b60408051918252519081900360200190f35b6101cf6004803603606081101561021357600080fd5b506001600160a01b03813581169160208101359091169060400135610559565b61023b6105e6565b6040805160ff9092168252519081900360200190f35b6101cf6004803603604081101561026757600080fd5b506001600160a01b0381351690602001356105ef565b61029a6004803603602081101561029357600080fd5b5035610643565b005b61029a600480360360208110156102b257600080fd5b50356001600160a01b03166106a3565b6101cf61071d565b6101eb600480360360208110156102e057600080fd5b50356001600160a01b031661072b565b61029a6004803603602081101561030657600080fd5b50356001600160a01b0316610746565b61031e6107bf565b604080516001600160a01b039092168252519081900360200190f35b61012e6107ce565b6101cf6004803603602081101561035857600080fd5b50356001600160a01b031661082f565b6101cf6004803603604081101561037e57600080fd5b506001600160a01b038135169060200135610844565b6101cf600480360360408110156103aa57600080fd5b506001600160a01b0381351690602001356108b2565b61029a6108c6565b6101eb600480360360408110156103de57600080fd5b506001600160a01b038135811691602001351661092b565b61029a6004803603602081101561040c57600080fd5b50356001600160a01b0316610956565b60038054604080516020601f60026000196101006001881615020190951694909404938401819004810282018101909252828152606093909290918301828280156104a85780601f1061047d576101008083540402835291602001916104a8565b820191906000526020600020905b81548152906001019060200180831161048b57829003601f168201915b5050505050905090565b600554600090610100900460ff161561053857600660006104d16109d2565b6001600160a01b0316815260208101919091526040016000205460ff161515600114610538576040805162461bcd60e51b81526020600482015260116024820152703ab730b8383937bb32b21039b2b73232b960791b604482015290519081900360640190fd5b61054a6105436109d2565b84846109d6565b50600192915050565b60025490565b6000610566848484610ac2565b6105dc846105726109d2565b6105d785604051806060016040528060288152602001610efe602891396001600160a01b038a166000908152600160205260408120906105b06109d2565b6001600160a01b03168152602081019190915260400160002054919063ffffffff610c2916565b6109d6565b5060019392505050565b60055460ff1690565b600061054a6105fc6109d2565b846105d7856001600061060d6109d2565b6001600160a01b03908116825260208083019390935260409182016000908120918c16815292529020549063ffffffff610cc016565b8061064d3361072b565b1015610696576040805162461bcd60e51b8152602060048201526013602482015272696e737566666963656e742062616c616e636560681b604482015290519081900360640190fd5b6106a03382610d21565b50565b6007546001600160a01b031633146106fb576040805162461bcd60e51b815260206004820152601660248201527527b7363c9031b0b63630b1363290313c9037bbb732b960511b604482015290519081900360640190fd5b600780546001600160a01b0319166001600160a01b0392909216919091179055565b600554610100900460ff1681565b6001600160a01b031660009081526020819052604090205490565b6007546001600160a01b0316331461079e576040805162461bcd60e51b815260206004820152601660248201527527b7363c9031b0b63630b1363290313c9037bbb732b960511b604482015290519081900360640190fd5b6001600160a01b03166000908152600660205260409020805460ff19169055565b6007546001600160a01b031681565b60048054604080516020601f60026000196101006001881615020190951694909404938401819004810282018101909252828152606093909290918301828280156104a85780601f1061047d576101008083540402835291602001916104a8565b60066020526000908152604090205460ff1681565b600061054a6108516109d2565b846105d785604051806060016040528060258152602001610f90602591396001600061087b6109d2565b6001600160a01b03908116825260208083019390935260409182016000908120918d1681529252902054919063ffffffff610c2916565b600061054a6108bf6109d2565b8484610ac2565b6007546001600160a01b0316331461091e576040805162461bcd60e51b815260206004820152601660248201527527b7363c9031b0b63630b1363290313c9037bbb732b960511b604482015290519081900360640190fd5b6005805461ff0019169055565b6001600160a01b03918216600090815260016020908152604080832093909416825291909152205490565b6007546001600160a01b031633146109ae576040805162461bcd60e51b815260206004820152601660248201527527b7363c9031b0b63630b1363290313c9037bbb732b960511b604482015290519081900360640190fd5b6001600160a01b03166000908152600660205260409020805460ff19166001179055565b3390565b6001600160a01b038316610a1b5760405162461bcd60e51b8152600401808060200182810382526024815260200180610f6c6024913960400191505060405180910390fd5b6001600160a01b038216610a605760405162461bcd60e51b8152600401808060200182810382526022815260200180610eb66022913960400191505060405180910390fd5b6001600160a01b03808416600081815260016020908152604080832094871680845294825291829020859055815185815291517f8c5be1e5ebec7d5bd14f71427d1e84f3dd0314c0f7b2291e5b200ac8c7c3b9259281900390910190a3505050565b6001600160a01b038316610b075760405162461bcd60e51b8152600401808060200182810382526025815260200180610f476025913960400191505060405180910390fd5b6001600160a01b038216610b4c5760405162461bcd60e51b8152600401808060200182810382526023815260200180610e716023913960400191505060405180910390fd5b610b57838383610e29565b610b9a81604051806060016040528060268152602001610ed8602691396001600160a01b038616600090815260208190526040902054919063ffffffff610c2916565b6001600160a01b038085166000908152602081905260408082209390935590841681522054610bcf908263ffffffff610cc016565b6001600160a01b038084166000818152602081815260409182902094909455805185815290519193928716927fddf252ad1be2c89b69c2b068fc378daa952ba7f163c4a11628f55a4df523b3ef92918290030190a3505050565b60008184841115610cb85760405162461bcd60e51b81526004018080602001828103825283818151815260200191508051906020019080838360005b83811015610c7d578181015183820152602001610c65565b50505050905090810190601f168015610caa5780820380516001836020036101000a031916815260200191505b509250505060405180910390fd5b505050900390565b600082820183811015610d1a576040805162461bcd60e51b815260206004820152601b60248201527f536166654d6174683a206164646974696f6e206f766572666c6f770000000000604482015290519081900360640190fd5b9392505050565b6001600160a01b038216610d665760405162461bcd60e51b8152600401808060200182810382526021815260200180610f266021913960400191505060405180910390fd5b610d7282600083610e29565b610db581604051806060016040528060228152602001610e94602291396001600160a01b038516600090815260208190526040902054919063ffffffff610c2916565b6001600160a01b038316600090815260208190526040902055600254610de1908263ffffffff610e2e16565b6002556040805182815290516000916001600160a01b038516917fddf252ad1be2c89b69c2b068fc378daa952ba7f163c4a11628f55a4df523b3ef9181900360200190a35050565b505050565b6000610d1a83836040518060400160405280601e81526020017f536166654d6174683a207375627472616374696f6e206f766572666c6f770000815250610c2956fe45524332303a207472616e7366657220746f20746865207a65726f206164647265737345524332303a206275726e20616d6f756e7420657863656564732062616c616e636545524332303a20617070726f766520746f20746865207a65726f206164647265737345524332303a207472616e7366657220616d6f756e7420657863656564732062616c616e636545524332303a207472616e7366657220616d6f756e74206578636565647320616c6c6f77616e636545524332303a206275726e2066726f6d20746865207a65726f206164647265737345524332303a207472616e736665722066726f6d20746865207a65726f206164647265737345524332303a20617070726f76652066726f6d20746865207a65726f206164647265737345524332303a2064656372656173656420616c6c6f77616e63652062656c6f77207a65726fa2646970667358221220ab51dc099bf1ffbb4c4a26f1a3db87ee9b32bc8003b6990ab1451277bcdffb8d64736f6c63430006060033",
  "immutableReferences": {},
  "source": "pragma solidity 0.6.6;\n\nimport \"@openzeppelin/contracts/math/SafeMath.sol\";\nimport \"@openzeppelin/contracts/token/ERC20/ERC20.sol\";\n\ncontract BIOPTokenV4 is ERC20 {\n    bool public whitelistEnabled = false;\n    mapping(address=>bool) public whitelist;\n    address public owner;\n\n    constructor(string memory name_, string memory symbol_) public ERC20(name_, symbol_) {\n      _mint(msg.sender, 1300000300000000000000000000000);\n      /*\n      (✅ means a contract for this has been written)\n      late bonding curve = 250000000000000000000000000000✅\n      utilization rewards =650000000000000000000000000000✅\n      swap =                    ?300000000000000000000000✅\n      ITCO =               250000000000000000000000000000✅\n      DEX rewards =         80000000000000000000000000000 TODO\n      dev fund =            70000000000000000000000000000\n      */\n      whitelistEnabled = true;\n      whitelist[msg.sender] = true;\n      owner = msg.sender;\n    }\n\n     /**\n    * @dev enables DAO to burn tokens \n    * @param amount the amount of tokens to burn\n    */\n    function burn(uint256 amount) public {\n      require(balanceOf(msg.sender) >= amount, \"insufficent balance\");\n      _burn(msg.sender, amount);\n    }\n\n    //Temp whitelist functionality\n\n  /**\n   * @dev Reverts if called by anyone other than the contract owner.\n   */\n    modifier onlyOwner() {\n      require(msg.sender == owner, \"Only callable by owner\");\n      _;\n    }\n\n     /**\n    * @dev transfer ownership\n    * @param newOwner_ the new address to assume ownership responsiblity (the multisig)\n    */\n    function transferOwner(address payable newOwner_) public onlyOwner {\n      owner = newOwner_;\n    }\n\n   /**\n    * @dev enable a address to access the approve function while the whitelist is active\n    * @param user the address to approve\n    */\n    function addToWhitelist(address payable user) public onlyOwner {\n      whitelist[user] = true;\n    }\n\n   /**\n    * @dev disable a address to access the approve function while the whitelist is active\n    * @param user the address to revoke access from\n    */\n    function removeFromWhitelist(address payable user) public onlyOwner {\n      whitelist[user] = false;\n    }\n\n    /**\n    * @dev end the whitelist. This is a one time call, the whitelist cannot be renabled\n    */\n    function disableWhitelist() public onlyOwner {\n      whitelistEnabled = false;\n    }\n\n    /**\n    * @dev works like normal erc20 approve except when whitelist is enabled then sender must be whitelisted or revert.\n    */\n    function approve(address spender, uint256 amount) public override returns (bool) {      \n      if (whitelistEnabled) {\n        require(whitelist[_msgSender()] == true, \"unapproved sender\");\n      }\n      _approve(_msgSender(), spender, amount);\n      return true;\n    }\n\n\n}\n",
  "sourcePath": "/Users/x/Desktop/eth/BIOPv4/contracts/BIOPTokenV4.sol",
  "compiler": {
    "name": "solc",
    "version": "0.6.6+commit.6c089d02.Emscripten.clang"
  },
  "schemaVersion": "3.3.4",
  "updatedAt": "2021-06-14T19:21:29.434Z",
  "devdoc": {
    "methods": {
      "addToWhitelist(address)": {
        "details": "enable a address to access the approve function while the whitelist is active",
        "params": {
          "user": "the address to approve"
        }
      },
      "allowance(address,address)": {
        "details": "See {IERC20-allowance}."
      },
      "approve(address,uint256)": {
        "details": "works like normal erc20 approve except when whitelist is enabled then sender must be whitelisted or revert."
      },
      "balanceOf(address)": {
        "details": "See {IERC20-balanceOf}."
      },
      "burn(uint256)": {
        "details": "enables DAO to burn tokens ",
        "params": {
          "amount": "the amount of tokens to burn"
        }
      },
      "decimals()": {
        "details": "Returns the number of decimals used to get its user representation. For example, if `decimals` equals `2`, a balance of `505` tokens should be displayed to a user as `5,05` (`505 / 10 ** 2`).     * Tokens usually opt for a value of 18, imitating the relationship between Ether and Wei. This is the value {ERC20} uses, unless {_setupDecimals} is called.     * NOTE: This information is only used for _display_ purposes: it in no way affects any of the arithmetic of the contract, including {IERC20-balanceOf} and {IERC20-transfer}."
      },
      "decreaseAllowance(address,uint256)": {
        "details": "Atomically decreases the allowance granted to `spender` by the caller.     * This is an alternative to {approve} that can be used as a mitigation for problems described in {IERC20-approve}.     * Emits an {Approval} event indicating the updated allowance.     * Requirements:     * - `spender` cannot be the zero address. - `spender` must have allowance for the caller of at least `subtractedValue`."
      },
      "disableWhitelist()": {
        "details": "end the whitelist. This is a one time call, the whitelist cannot be renabled"
      },
      "increaseAllowance(address,uint256)": {
        "details": "Atomically increases the allowance granted to `spender` by the caller.     * This is an alternative to {approve} that can be used as a mitigation for problems described in {IERC20-approve}.     * Emits an {Approval} event indicating the updated allowance.     * Requirements:     * - `spender` cannot be the zero address."
      },
      "name()": {
        "details": "Returns the name of the token."
      },
      "removeFromWhitelist(address)": {
        "details": "disable a address to access the approve function while the whitelist is active",
        "params": {
          "user": "the address to revoke access from"
        }
      },
      "symbol()": {
        "details": "Returns the symbol of the token, usually a shorter version of the name."
      },
      "totalSupply()": {
        "details": "See {IERC20-totalSupply}."
      },
      "transfer(address,uint256)": {
        "details": "See {IERC20-transfer}.     * Requirements:     * - `recipient` cannot be the zero address. - the caller must have a balance of at least `amount`."
      },
      "transferFrom(address,address,uint256)": {
        "details": "See {IERC20-transferFrom}.     * Emits an {Approval} event indicating the updated allowance. This is not required by the EIP. See the note at the beginning of {ERC20}.     * Requirements:     * - `sender` and `recipient` cannot be the zero address. - `sender` must have a balance of at least `amount`. - the caller must have allowance for ``sender``'s tokens of at least `amount`."
      },
      "transferOwner(address)": {
        "details": "transfer ownership",
        "params": {
          "newOwner_": "the new address to assume ownership responsiblity (the multisig)"
        }
      }
    }
  },
  "userdoc": {
    "methods": {}
  }
}