{
  "contractName": "BIOPToken",
  "abi": [
    {
      "inputs": [
        {
          "internalType": "string",
          "name": "name_",
          "type": "string"
        },
        {
          "internalType": "string",
          "name": "symbol_",
          "type": "string"
        }
      ],
      "stateMutability": "nonpayable",
      "type": "constructor"
    },
    {
      "anonymous": false,
      "inputs": [
        {
          "indexed": true,
          "internalType": "address",
          "name": "owner",
          "type": "address"
        },
        {
          "indexed": true,
          "internalType": "address",
          "name": "spender",
          "type": "address"
        },
        {
          "indexed": false,
          "internalType": "uint256",
          "name": "value",
          "type": "uint256"
        }
      ],
      "name": "Approval",
      "type": "event"
    },
    {
      "anonymous": false,
      "inputs": [
        {
          "indexed": true,
          "internalType": "address",
          "name": "from",
          "type": "address"
        },
        {
          "indexed": true,
          "internalType": "address",
          "name": "to",
          "type": "address"
        },
        {
          "indexed": false,
          "internalType": "uint256",
          "name": "value",
          "type": "uint256"
        }
      ],
      "name": "Transfer",
      "type": "event"
    },
    {
      "inputs": [
        {
          "internalType": "address",
          "name": "owner",
          "type": "address"
        },
        {
          "internalType": "address",
          "name": "spender",
          "type": "address"
        }
      ],
      "name": "allowance",
      "outputs": [
        {
          "internalType": "uint256",
          "name": "",
          "type": "uint256"
        }
      ],
      "stateMutability": "view",
      "type": "function"
    },
    {
      "inputs": [
        {
          "internalType": "address",
          "name": "spender",
          "type": "address"
        },
        {
          "internalType": "uint256",
          "name": "amount",
          "type": "uint256"
        }
      ],
      "name": "approve",
      "outputs": [
        {
          "internalType": "bool",
          "name": "",
          "type": "bool"
        }
      ],
      "stateMutability": "nonpayable",
      "type": "function"
    },
    {
      "inputs": [
        {
          "internalType": "address",
          "name": "account",
          "type": "address"
        }
      ],
      "name": "balanceOf",
      "outputs": [
        {
          "internalType": "uint256",
          "name": "",
          "type": "uint256"
        }
      ],
      "stateMutability": "view",
      "type": "function"
    },
    {
      "inputs": [],
      "name": "binaryOptions",
      "outputs": [
        {
          "internalType": "address",
          "name": "",
          "type": "address"
        }
      ],
      "stateMutability": "view",
      "type": "function"
    },
    {
      "inputs": [],
      "name": "binaryOptionsSet",
      "outputs": [
        {
          "internalType": "bool",
          "name": "",
          "type": "bool"
        }
      ],
      "stateMutability": "view",
      "type": "function"
    },
    {
      "inputs": [],
      "name": "decimals",
      "outputs": [
        {
          "internalType": "uint8",
          "name": "",
          "type": "uint8"
        }
      ],
      "stateMutability": "view",
      "type": "function"
    },
    {
      "inputs": [
        {
          "internalType": "address",
          "name": "spender",
          "type": "address"
        },
        {
          "internalType": "uint256",
          "name": "subtractedValue",
          "type": "uint256"
        }
      ],
      "name": "decreaseAllowance",
      "outputs": [
        {
          "internalType": "bool",
          "name": "",
          "type": "bool"
        }
      ],
      "stateMutability": "nonpayable",
      "type": "function"
    },
    {
      "inputs": [],
      "name": "earlyClaims",
      "outputs": [
        {
          "internalType": "bool",
          "name": "",
          "type": "bool"
        }
      ],
      "stateMutability": "view",
      "type": "function"
    },
    {
      "inputs": [],
      "name": "earlyClaimsAvailable",
      "outputs": [
        {
          "internalType": "uint256",
          "name": "",
          "type": "uint256"
        }
      ],
      "stateMutability": "view",
      "type": "function"
    },
    {
      "inputs": [],
      "name": "gov",
      "outputs": [
        {
          "internalType": "address",
          "name": "",
          "type": "address"
        }
      ],
      "stateMutability": "view",
      "type": "function"
    },
    {
      "inputs": [
        {
          "internalType": "address",
          "name": "spender",
          "type": "address"
        },
        {
          "internalType": "uint256",
          "name": "addedValue",
          "type": "uint256"
        }
      ],
      "name": "increaseAllowance",
      "outputs": [
        {
          "internalType": "bool",
          "name": "",
          "type": "bool"
        }
      ],
      "stateMutability": "nonpayable",
      "type": "function"
    },
    {
      "inputs": [],
      "name": "name",
      "outputs": [
        {
          "internalType": "string",
          "name": "",
          "type": "string"
        }
      ],
      "stateMutability": "view",
      "type": "function"
    },
    {
      "inputs": [],
      "name": "owner",
      "outputs": [
        {
          "internalType": "address",
          "name": "",
          "type": "address"
        }
      ],
      "stateMutability": "view",
      "type": "function"
    },
    {
      "inputs": [],
      "name": "symbol",
      "outputs": [
        {
          "internalType": "string",
          "name": "",
          "type": "string"
        }
      ],
      "stateMutability": "view",
      "type": "function"
    },
    {
      "inputs": [],
      "name": "totalClaimsAvailable",
      "outputs": [
        {
          "internalType": "uint256",
          "name": "",
          "type": "uint256"
        }
      ],
      "stateMutability": "view",
      "type": "function"
    },
    {
      "inputs": [],
      "name": "totalSupply",
      "outputs": [
        {
          "internalType": "uint256",
          "name": "",
          "type": "uint256"
        }
      ],
      "stateMutability": "view",
      "type": "function"
    },
    {
      "inputs": [
        {
          "internalType": "address",
          "name": "recipient",
          "type": "address"
        },
        {
          "internalType": "uint256",
          "name": "amount",
          "type": "uint256"
        }
      ],
      "name": "transfer",
      "outputs": [
        {
          "internalType": "bool",
          "name": "",
          "type": "bool"
        }
      ],
      "stateMutability": "nonpayable",
      "type": "function"
    },
    {
      "inputs": [
        {
          "internalType": "address",
          "name": "sender",
          "type": "address"
        },
        {
          "internalType": "address",
          "name": "recipient",
          "type": "address"
        },
        {
          "internalType": "uint256",
          "name": "amount",
          "type": "uint256"
        }
      ],
      "name": "transferFrom",
      "outputs": [
        {
          "internalType": "bool",
          "name": "",
          "type": "bool"
        }
      ],
      "stateMutability": "nonpayable",
      "type": "function"
    },
    {
      "inputs": [
        {
          "internalType": "uint256",
          "name": "amount",
          "type": "uint256"
        }
      ],
      "name": "updateEarlyClaim",
      "outputs": [],
      "stateMutability": "nonpayable",
      "type": "function"
    },
    {
      "inputs": [
        {
          "internalType": "address payable",
          "name": "options_",
          "type": "address"
        }
      ],
      "name": "setupBinaryOptions",
      "outputs": [],
      "stateMutability": "nonpayable",
      "type": "function"
    },
    {
      "inputs": [
        {
          "internalType": "address payable",
          "name": "gov_",
          "type": "address"
        }
      ],
      "name": "setupGovernance",
      "outputs": [],
      "stateMutability": "nonpayable",
      "type": "function"
    }
  ],
  "bytecode": "0x608060405260058054610100600160a81b03191690556c05ae074690ec816b0fd00000006008556c097761759c34d7b26fb0000000600955600a805460ff191660011761ff00191690553480156200005657600080fd5b506040516200139e3803806200139e833981810160405260408110156200007c57600080fd5b81019080805160405193929190846401000000008211156200009d57600080fd5b908301906020820185811115620000b357600080fd5b8251640100000000811182820188101715620000ce57600080fd5b82525081516020918201929091019080838360005b83811015620000fd578181015183820152602001620000e3565b50505050905090810190601f1680156200012b5780820380516001836020036101000a031916815260200191505b50604052602001805160405193929190846401000000008211156200014f57600080fd5b9083019060208201858111156200016557600080fd5b82516401000000008111828201881017156200018057600080fd5b82525081516020918201929091019080838360005b83811015620001af57818101518382015260200162000195565b50505050905090810190601f168015620001dd5780820380516001836020036101000a031916815260200191505b50604052505082518391508290620001fd9060039060208501906200023d565b508051620002139060049060208401906200023d565b50506005805460ff191660121790555050600780546001600160a01b0319163317905550620002e2565b828054600181600116156101000203166002900490600052602060002090601f016020900481019282601f106200028057805160ff1916838001178555620002b0565b82800160010185558215620002b0579182015b82811115620002b057825182559160200191906001019062000293565b50620002be929150620002c2565b5090565b620002df91905b80821115620002be5760008155600101620002c9565b90565b6110ac80620002f26000396000f3fe608060405234801561001057600080fd5b50600436106101375760003560e01c80635e83612f116100b85780639901f1651161007c5780639901f1651461034a578063a457c2d714610352578063a9059cbb1461037e578063db943fa1146103aa578063dd62ed3e146103d0578063f331bff2146103fe57610137565b80635e83612f146102ef57806370a08231146102f7578063750a7ea31461031d5780638da5cb5b1461033a57806395d89b411461034257610137565b806323b872dd116100ff57806323b872dd1461023f5780633099152a14610275578063313ce5671461027d578063395093511461029b578063499b7211146102c757610137565b806306fdde031461013c578063095ea7b3146101b95780631160f1d0146101f957806312d43a511461021d57806318160ddd14610225575b600080fd5b610144610406565b6040805160208082528351818301528351919283929083019185019080838360005b8381101561017e578181015183820152602001610166565b50505050905090810190601f1680156101ab5780820380516001836020036101000a031916815260200191505b509250505060405180910390f35b6101e5600480360360408110156101cf57600080fd5b506001600160a01b03813516906020013561049c565b604080519115158252519081900360200190f35b6102016104b9565b604080516001600160a01b039092168252519081900360200190f35b6102016104cd565b61022d6104dc565b60408051918252519081900360200190f35b6101e56004803603606081101561025557600080fd5b506001600160a01b038135811691602081013590911690604001356104e2565b61022d61056f565b610285610575565b6040805160ff9092168252519081900360200190f35b6101e5600480360360408110156102b157600080fd5b506001600160a01b03813516906020013561057e565b6102ed600480360360208110156102dd57600080fd5b50356001600160a01b03166105d2565b005b6101e5610683565b61022d6004803603602081101561030d57600080fd5b50356001600160a01b0316610691565b6102ed6004803603602081101561033357600080fd5b50356106ac565b6102016107c4565b6101446107d3565b6101e5610834565b6101e56004803603604081101561036857600080fd5b506001600160a01b03813516906020013561083d565b6101e56004803603604081101561039457600080fd5b506001600160a01b0381351690602001356108ab565b6102ed600480360360208110156103c057600080fd5b50356001600160a01b03166108bf565b61022d600480360360408110156103e657600080fd5b506001600160a01b0381358116916020013516610952565b61022d61097d565b60038054604080516020601f60026000196101006001881615020190951694909404938401819004810282018101909252828152606093909290918301828280156104925780601f1061046757610100808354040283529160200191610492565b820191906000526020600020905b81548152906001019060200180831161047557829003601f168201915b5050505050905090565b60006104b06104a9610983565b8484610987565b50600192915050565b60055461010090046001600160a01b031681565b6006546001600160a01b031681565b60025490565b60006104ef848484610a73565b610565846104fb610983565b61056085604051806060016040528060288152602001610fe1602891396001600160a01b038a16600090815260016020526040812090610539610983565b6001600160a01b03168152602081019190915260400160002054919063ffffffff610bda16565b610987565b5060019392505050565b60085481565b60055460ff1690565b60006104b061058b610983565b84610560856001600061059c610983565b6001600160a01b03908116825260208083019390935260409182016000908120918c16815292529020549063ffffffff610c7116565b60055461010090046001600160a01b03163314610636576040805162461bcd60e51b815260206004820181905260248201527f4f776e61626c653a2063616c6c6572206973206e6f7420746865206f776e6572604482015290519081900360640190fd5b600754610659906001600160a01b03166c01431e0fae6d7217caa0000000610cd2565b610670816c05ae074690ec816b0fd0000000610cd2565b50600780546001600160a01b0319169055565b600a54610100900460ff1681565b6001600160a01b031660009081526020819052604090205490565b60055461010090046001600160a01b031633146106fa5760405162461bcd60e51b8152600401808060200182810382526032815260200180610faf6032913960400191505060405180910390fd5b600954600090610710908363ffffffff610dce16565b1015610763576040805162461bcd60e51b815260206004820152601c60248201527f696e737566666963656e7420636c61696d7320617661696c61626c6500000000604482015290519081900360640190fd5b600a5460ff16156107a857600854610781908263ffffffff610dce16565b60085561078e3282610cd2565b6000600854116107a357600a805460ff191690555b6107c1565b6107c16107bc82600463ffffffff610e1016565b610e52565b50565b6007546001600160a01b031681565b60048054604080516020601f60026000196101006001881615020190951694909404938401819004810282018101909252828152606093909290918301828280156104925780601f1061046757610100808354040283529160200191610492565b600a5460ff1681565b60006104b061084a610983565b84610560856040518060600160405280602581526020016110526025913960016000610874610983565b6001600160a01b03908116825260208083019390935260409182016000908120918d1681529252902054919063ffffffff610bda16565b60006104b06108b8610983565b8484610a73565b60055461010090046001600160a01b03161561092a5760055461010090046001600160a01b0316331461092a576040805162461bcd60e51b815260206004820152600e60248201526d34b73b30b634b21037b934b3b4b760911b604482015290519081900360640190fd5b600580546001600160a01b0390921661010002610100600160a81b0319909216919091179055565b6001600160a01b03918216600090815260016020908152604080832093909416825291909152205490565b60095481565b3390565b6001600160a01b0383166109cc5760405162461bcd60e51b815260040180806020018281038252602481526020018061102e6024913960400191505060405180910390fd5b6001600160a01b038216610a115760405162461bcd60e51b8152600401808060200182810382526022815260200180610f676022913960400191505060405180910390fd5b6001600160a01b03808416600081815260016020908152604080832094871680845294825291829020859055815185815291517f8c5be1e5ebec7d5bd14f71427d1e84f3dd0314c0f7b2291e5b200ac8c7c3b9259281900390910190a3505050565b6001600160a01b038316610ab85760405162461bcd60e51b81526004018080602001828103825260258152602001806110096025913960400191505060405180910390fd5b6001600160a01b038216610afd5760405162461bcd60e51b8152600401808060200182810382526023815260200180610f446023913960400191505060405180910390fd5b610b08838383610ed9565b610b4b81604051806060016040528060268152602001610f89602691396001600160a01b038616600090815260208190526040902054919063ffffffff610bda16565b6001600160a01b038085166000908152602081905260408082209390935590841681522054610b80908263ffffffff610c7116565b6001600160a01b038084166000818152602081815260409182902094909455805185815290519193928716927fddf252ad1be2c89b69c2b068fc378daa952ba7f163c4a11628f55a4df523b3ef92918290030190a3505050565b60008184841115610c695760405162461bcd60e51b81526004018080602001828103825283818151815260200191508051906020019080838360005b83811015610c2e578181015183820152602001610c16565b50505050905090810190601f168015610c5b5780820380516001836020036101000a031916815260200191505b509250505060405180910390fd5b505050900390565b600082820183811015610ccb576040805162461bcd60e51b815260206004820152601b60248201527f536166654d6174683a206164646974696f6e206f766572666c6f770000000000604482015290519081900360640190fd5b9392505050565b6001600160a01b038216610d2d576040805162461bcd60e51b815260206004820152601f60248201527f45524332303a206d696e7420746f20746865207a65726f206164647265737300604482015290519081900360640190fd5b610d3960008383610ed9565b600254610d4c908263ffffffff610c7116565b6002556001600160a01b038216600090815260208190526040902054610d78908263ffffffff610c7116565b6001600160a01b0383166000818152602081815260408083209490945583518581529351929391927fddf252ad1be2c89b69c2b068fc378daa952ba7f163c4a11628f55a4df523b3ef9281900390910190a35050565b6000610ccb83836040518060400160405280601e81526020017f536166654d6174683a207375627472616374696f6e206f766572666c6f770000815250610bda565b6000610ccb83836040518060400160405280601a81526020017f536166654d6174683a206469766973696f6e206279207a65726f000000000000815250610ede565b600954600090610e68908363ffffffff610dce16565b1015610ebb576040805162461bcd60e51b815260206004820152601c60248201527f696e737566666963656e7420636c61696d7320617661696c61626c6500000000604482015290519081900360640190fd5b600954610ece908263ffffffff610dce16565b506107c13282610cd2565b505050565b60008183610f2d5760405162461bcd60e51b8152602060048201818152835160248401528351909283926044909101919085019080838360008315610c2e578181015183820152602001610c16565b506000838581610f3957fe5b049594505050505056fe45524332303a207472616e7366657220746f20746865207a65726f206164647265737345524332303a20617070726f766520746f20746865207a65726f206164647265737345524332303a207472616e7366657220616d6f756e7420657863656564732062616c616e63654f776e61626c653a2063616c6c6572206973206e6f74207468652042696e617279204f7074696f6e7320436f6e747261637445524332303a207472616e7366657220616d6f756e74206578636565647320616c6c6f77616e636545524332303a207472616e736665722066726f6d20746865207a65726f206164647265737345524332303a20617070726f76652066726f6d20746865207a65726f206164647265737345524332303a2064656372656173656420616c6c6f77616e63652062656c6f77207a65726fa26469706673582212209c03123c4aa9a61bd643bab21188fb9a5d32cc610e9e577a321736ddf24ce25164736f6c63430006060033",
  "immutableReferences": {},
  "source": "pragma solidity ^0.6.6;\n\nimport \"@openzeppelin/contracts/math/SafeMath.sol\";\nimport \"@openzeppelin/contracts/token/ERC20/ERC20.sol\";\n\n\n\ncontract BIOPToken is ERC20 {\n    using SafeMath for uint256;\n    address public binaryOptions = 0x0000000000000000000000000000000000000000;\n    address public gov;\n    address public owner;\n    uint256 public earlyClaimsAvailable = 450000000000000000000000000000;\n    uint256 public totalClaimsAvailable = 750000000000000000000000000000;\n    bool public earlyClaims = true;\n    bool public binaryOptionsSet = false;\n\n    constructor(string memory name_, string memory symbol_) public ERC20(name_, symbol_) {\n      owner = msg.sender;\n    }\n    \n    modifier onlyBinaryOptions() {\n        require(binaryOptions == msg.sender, \"Ownable: caller is not the Binary Options Contract\");\n        _;\n    }\n    modifier onlyOwner() {\n        require(binaryOptions == msg.sender, \"Ownable: caller is not the owner\");\n        _;\n    }\n\n    function updateEarlyClaim(uint256 amount) external onlyBinaryOptions {\n        require(totalClaimsAvailable.sub(amount) >= 0, \"insufficent claims available\");\n        if (earlyClaims) {\n            earlyClaimsAvailable = earlyClaimsAvailable.sub(amount);\n            _mint(tx.origin, amount);\n            if (earlyClaimsAvailable <= 0) {\n                earlyClaims = false;\n            }\n        } else {\n            updateClaim(amount.div(4));\n        }\n    }\n\n     function updateClaim( uint256 amount) internal {\n        require(totalClaimsAvailable.sub(amount) >= 0, \"insufficent claims available\");\n        totalClaimsAvailable.sub(amount);\n        _mint(tx.origin, amount);\n    }\n\n    function setupBinaryOptions(address payable options_) external {\n        if (binaryOptions != 0x0000000000000000000000000000000000000000) {\n            require(binaryOptions == msg.sender, \"invalid origin\");\n        }\n        binaryOptions = options_;\n    }\n\n    function setupGovernance(address payable gov_) external onlyOwner {\n        _mint(owner, 100000000000000000000000000000);\n        _mint(gov_, 450000000000000000000000000000);\n        owner = 0x0000000000000000000000000000000000000000;\n    }\n}\n",
  "sourcePath": "/Users/x/Desktop/eth/BIOPv4/contracts/BIOPToken.sol",
  "compiler": {
    "name": "solc",
    "version": "0.6.6+commit.6c089d02.Emscripten.clang"
  },
  "schemaVersion": "3.3.4",
  "updatedAt": "2021-05-15T00:45:48.074Z",
  "devdoc": {
    "methods": {
      "allowance(address,address)": {
        "details": "See {IERC20-allowance}."
      },
      "approve(address,uint256)": {
        "details": "See {IERC20-approve}.     * Requirements:     * - `spender` cannot be the zero address."
      },
      "balanceOf(address)": {
        "details": "See {IERC20-balanceOf}."
      },
      "decimals()": {
        "details": "Returns the number of decimals used to get its user representation. For example, if `decimals` equals `2`, a balance of `505` tokens should be displayed to a user as `5,05` (`505 / 10 ** 2`).     * Tokens usually opt for a value of 18, imitating the relationship between Ether and Wei. This is the value {ERC20} uses, unless {_setupDecimals} is called.     * NOTE: This information is only used for _display_ purposes: it in no way affects any of the arithmetic of the contract, including {IERC20-balanceOf} and {IERC20-transfer}."
      },
      "decreaseAllowance(address,uint256)": {
        "details": "Atomically decreases the allowance granted to `spender` by the caller.     * This is an alternative to {approve} that can be used as a mitigation for problems described in {IERC20-approve}.     * Emits an {Approval} event indicating the updated allowance.     * Requirements:     * - `spender` cannot be the zero address. - `spender` must have allowance for the caller of at least `subtractedValue`."
      },
      "increaseAllowance(address,uint256)": {
        "details": "Atomically increases the allowance granted to `spender` by the caller.     * This is an alternative to {approve} that can be used as a mitigation for problems described in {IERC20-approve}.     * Emits an {Approval} event indicating the updated allowance.     * Requirements:     * - `spender` cannot be the zero address."
      },
      "name()": {
        "details": "Returns the name of the token."
      },
      "symbol()": {
        "details": "Returns the symbol of the token, usually a shorter version of the name."
      },
      "totalSupply()": {
        "details": "See {IERC20-totalSupply}."
      },
      "transfer(address,uint256)": {
        "details": "See {IERC20-transfer}.     * Requirements:     * - `recipient` cannot be the zero address. - the caller must have a balance of at least `amount`."
      },
      "transferFrom(address,address,uint256)": {
        "details": "See {IERC20-transferFrom}.     * Emits an {Approval} event indicating the updated allowance. This is not required by the EIP. See the note at the beginning of {ERC20}.     * Requirements:     * - `sender` and `recipient` cannot be the zero address. - `sender` must have a balance of at least `amount`. - the caller must have allowance for ``sender``'s tokens of at least `amount`."
      }
    }
  },
  "userdoc": {
    "methods": {}
  }
}