{
  "contractName": "BondingCurve",
  "abi": [
    {
      "inputs": [
        {
          "internalType": "address payable",
          "name": "tk_",
          "type": "address"
        },
        {
          "internalType": "uint32",
          "name": "_reserveRatio",
          "type": "uint32"
        }
      ],
      "stateMutability": "nonpayable",
      "type": "constructor"
    },
    {
      "inputs": [],
      "name": "buyFee",
      "outputs": [
        {
          "internalType": "uint256",
          "name": "",
          "type": "uint256"
        }
      ],
      "stateMutability": "view",
      "type": "function"
    },
    {
      "inputs": [
        {
          "internalType": "uint256",
          "name": "_supply",
          "type": "uint256"
        },
        {
          "internalType": "uint256",
          "name": "_reserveBalance",
          "type": "uint256"
        },
        {
          "internalType": "uint32",
          "name": "_reserveRatio",
          "type": "uint32"
        },
        {
          "internalType": "uint256",
          "name": "_depositAmount",
          "type": "uint256"
        }
      ],
      "name": "calculatePurchaseReturn",
      "outputs": [
        {
          "internalType": "uint256",
          "name": "",
          "type": "uint256"
        }
      ],
      "stateMutability": "view",
      "type": "function"
    },
    {
      "inputs": [
        {
          "internalType": "uint256",
          "name": "_supply",
          "type": "uint256"
        },
        {
          "internalType": "uint256",
          "name": "_reserveBalance",
          "type": "uint256"
        },
        {
          "internalType": "uint32",
          "name": "_reserveRatio",
          "type": "uint32"
        },
        {
          "internalType": "uint256",
          "name": "_sellAmount",
          "type": "uint256"
        }
      ],
      "name": "calculateSaleReturn",
      "outputs": [
        {
          "internalType": "uint256",
          "name": "",
          "type": "uint256"
        }
      ],
      "stateMutability": "view",
      "type": "function"
    },
    {
      "inputs": [
        {
          "internalType": "uint256",
          "name": "_continuousTokenAmount",
          "type": "uint256"
        }
      ],
      "name": "getContinuousBurnRefund",
      "outputs": [
        {
          "internalType": "uint256",
          "name": "",
          "type": "uint256"
        }
      ],
      "stateMutability": "view",
      "type": "function"
    },
    {
      "inputs": [
        {
          "internalType": "uint256",
          "name": "_reserveTokenAmount",
          "type": "uint256"
        }
      ],
      "name": "getContinuousMintReward",
      "outputs": [
        {
          "internalType": "uint256",
          "name": "",
          "type": "uint256"
        }
      ],
      "stateMutability": "view",
      "type": "function"
    },
    {
      "inputs": [],
      "name": "reserveRatio",
      "outputs": [
        {
          "internalType": "uint32",
          "name": "",
          "type": "uint32"
        }
      ],
      "stateMutability": "view",
      "type": "function"
    },
    {
      "inputs": [],
      "name": "sellFee",
      "outputs": [
        {
          "internalType": "uint256",
          "name": "",
          "type": "uint256"
        }
      ],
      "stateMutability": "view",
      "type": "function"
    },
    {
      "inputs": [],
      "name": "soldAmount",
      "outputs": [
        {
          "internalType": "uint256",
          "name": "",
          "type": "uint256"
        }
      ],
      "stateMutability": "view",
      "type": "function"
    },
    {
      "inputs": [],
      "name": "tbca",
      "outputs": [
        {
          "internalType": "uint256",
          "name": "",
          "type": "uint256"
        }
      ],
      "stateMutability": "view",
      "type": "function"
    },
    {
      "inputs": [],
      "name": "tk",
      "outputs": [
        {
          "internalType": "address",
          "name": "",
          "type": "address"
        }
      ],
      "stateMutability": "view",
      "type": "function"
    },
    {
      "inputs": [],
      "name": "version",
      "outputs": [
        {
          "internalType": "string",
          "name": "",
          "type": "string"
        }
      ],
      "stateMutability": "view",
      "type": "function"
    },
    {
      "inputs": [],
      "name": "continuousSupply",
      "outputs": [
        {
          "internalType": "uint256",
          "name": "",
          "type": "uint256"
        }
      ],
      "stateMutability": "view",
      "type": "function"
    },
    {
      "inputs": [],
      "name": "reserveBalance",
      "outputs": [
        {
          "internalType": "uint256",
          "name": "",
          "type": "uint256"
        }
      ],
      "stateMutability": "view",
      "type": "function"
    },
    {
      "inputs": [],
      "name": "buy",
      "outputs": [
        {
          "internalType": "uint256",
          "name": "",
          "type": "uint256"
        }
      ],
      "stateMutability": "payable",
      "type": "function"
    },
    {
      "inputs": [
        {
          "internalType": "uint256",
          "name": "amount",
          "type": "uint256"
        }
      ],
      "name": "sell",
      "outputs": [
        {
          "internalType": "uint256",
          "name": "",
          "type": "uint256"
        }
      ],
      "stateMutability": "nonpayable",
      "type": "function"
    }
  ],
  "bytecode": "0x60c06040526003608081905262302e3360e81b60a090815262000026916000919062000800565b506c050c783eb9b5c85f2a800000006083556000608455600260855560006086553480156200005457600080fd5b506040516200254038038062002540833981810160405260408110156200007a57600080fd5b5080516020909101516001641c35fedd1560601b036021556001646c3390ecc9605e1b036022556001640cf801476160611b0360235560016431bdb23e1d605f1b0360245560016502fb1d8fe083605b1b0360255560016505b771955b37605a1b036026556001650af67a93bb5160591b0360275560016515060c256cb360581b036028556001651428a2f98d7360581b036029556001654d515663970960561b03602a55600165944620b0e70f60551b03602b55600166011c592761c66760541b03602c5560016602214d10d014eb60531b03602d55600166020ade36b7dbef60531b03602e5560016603eab73b3bbfe360521b03602f556001660782ee3593f6d760511b036030556001661ccf4b44bb4821604f1b0360315560016606e7f88ad8a77760511b0360325560016669f3d1c921891d604d1b03603355600166cb2ff529eb71e5604c1b03603455600166c2d415c3db974b604c1b0360355560016702eb40f9f620fda7604a1b0360365560016705990681d961a1eb60491b03603755600167055e12902701414760491b0360385560016714962dee9dc9764160471b0360395560016704ef57b9b560fab560491b03603a5560016712ed7b32a58f552b60471b03603b556001679131271922eaa60760441b03603c556001678b380f3558668c4760441b03603d556001680215f77c045fbe885760421b03603e556001600160831b03603f556001670f577eded5773a1160471b036040556001680eb5ec597592befbf5603f1b036041556001681c35fedd14b861eb05603e1b036042556001683619c87664579bc94b603d1b0360435560016867c00a3b07ffc01fd7603c1b03604455600168c6f6c8f8739773a7a5603b1b03604555600168bec763f8209b7a72b1603b1b0360465560016902dbb8caad9b7097b91b60391b03604755600169057b3d49dda84556d6f760381b03604855600169054183095b2c8ececf3160381b036049556001690a14517cc6b9457111ef60371b03604a5560016913545598e5c23276ccf160361b03604b556001692511882c39c3adea96ff60351b03604c55600169471649d87199aa99075760341b03604d557004429a21a029d4c1457cfbffffffffffff604e55700415bc6d6fb7dd71af2cb3ffffffffffff604f557003eab73b3bbfe282243ce1ffffffffffff6050557003c1771ac9fb6b4c18e229ffffffffffff605155700399e96897690418f785257fffffffffff605255700373fc456c53bb779bf0ea9fffffffffff60535570034f9e8e490c48e67e6ab8bfffffffffff60545570032cbfd4a7adc790560b3337ffffffffff60555570030b50570f6e5d2acca94613ffffffffff6056557002eb40f9f620fda6b56c2861ffffffffff6057557002cc8340ecb0d0f520a6af58ffffffffff6058557002af09481380a0a35cf1ba02ffffffffff605955700292c5bdd3b92ec810287b1b3fffffffff605a55700277abdcdab07d5a77ac6d6b9fffffffff605b5570025daf6654b1eaa55fd64df5efffffffff605c55700244c49c648baa98192dce88b7ffffffff605d5570022ce03cd5619a311b2471268bffffffff605e55700215f77c045fbe885654a44a0fffffffff605f556001600160811b036060557001eaefdbdaaee7421fc4d3ede5ffffffff6061557001d6bd8b2eb257df7e8ca57b09bfffffff6062557001c35fedd14b861eb0443f7f133fffffff6063557001b0ce43b322bcde4a56e8ada5afffffff60645570019f0028ec1fff007f5a195a39dfffffff60655570018ded91f0e72ee74f49b15ba527ffffff60665570017d8ec7f04136f4e5615fd41a63ffffff60675570016ddc6556cdb84bdc8d12d22e6fffffff60685570015ecf52776a1155b5bd8395814f7fffff60695570015060c256cb23b3b3cc3754cf40ffffff606a557001428a2f98d728ae223ddab715be3fffff606b5570013545598e5c23276ccf0ede68034fffff606c557001288c4161ce1d6f54b7f61081194fffff606d5570011c592761c666aa641d5a01a40f17ffff606e55700110a688680a7530515f3e6e6cfdcdffff606f557001056f1b5bedf75c6bcb2ce8aed428ffff6070556ffaadceceeff8a0890f3875f008277fff6071556ff05dc6b27edad306388a600f6ba0bfff6072556fe67a5a25da41063de1495d5b18cdbfff6073556fdcff115b14eedde6fc3aa5353f2e4fff6074556fd3e7a3924312399f9aae2e0f868f8fff6075556fcb2ff529eb71e41582cccd5a1ee26fff6076556fc2d415c3db974ab32a51840c0b67edff6077556fbad03e7d883f69ad5b0a186184e06bff6078556fb320d03b2c343d4829abd6075f0cc5ff6079556fabc25204e02828d73c6e80bcdb1a95bf607a556fa4b16f74ee4bb2040a1ec6c15fbbf2df607b556f9deaf736ac1f569deb1b5ae3f36c130f607c556f976bd9952c7aa957f5937d790ef65037607d556f9131271922eaa6064b73a22d0bd4f2bf607e556f8b380f3558668c46c91c49a2f8e967b9607f556f857ddf0117efa215952912839f6473e66080556081805463ffffffff191663ffffffff90921691909117600160201b600160c01b0319163364010000000002179055608280546001600160a01b0319166001600160a01b03909216919091179055620008a5565b828054600181600116156101000203166002900490600052602060002090601f016020900481019282601f106200084357805160ff191683800117855562000873565b8280016001018555821562000873579182015b828111156200087357825182559160200191906001019062000856565b506200088192915062000885565b5090565b620008a291905b808211156200088157600081556001016200088c565b90565b611c8b80620008b56000396000f3fe6080604052600436106100e85760003560e01c806349f9b0f71161008a578063a6f2ae3a11610059578063a6f2ae3a14610314578063da12457a1461031c578063e4849b3214610331578063fa1a5f591461035b576100e8565b806349f9b0f71461020957806354fd4d501461024b5780637cbed3e0146102d5578063a10954fe146102ff576100e8565b806329a00e7c116100c657806329a00e7c146101885780632b14ca56146101ca5780632d189a3f146101df57806347062402146101f4576100e8565b80630c7d5cd8146100ed5780630d8f9f7f1461011b57806321f408be14610157575b600080fd5b3480156100f957600080fd5b50610102610370565b6040805163ffffffff9092168252519081900360200190f35b34801561012757600080fd5b506101456004803603602081101561013e57600080fd5b503561037c565b60408051918252519081900360200190f35b34801561016357600080fd5b5061016c6103a8565b604080516001600160a01b039092168252519081900360200190f35b34801561019457600080fd5b50610145600480360360808110156101ab57600080fd5b5080359060208101359063ffffffff60408201351690606001356103b7565b3480156101d657600080fd5b506101456104da565b3480156101eb57600080fd5b506101456104e0565b34801561020057600080fd5b506101456104e6565b34801561021557600080fd5b506101456004803603608081101561022c57600080fd5b5080359060208101359063ffffffff60408201351690606001356104ec565b34801561025757600080fd5b5061026061061b565b6040805160208082528351818301528351919283929083019185019080838360005b8381101561029a578181015183820152602001610282565b50505050905090810190601f1680156102c75780820380516001836020036101000a031916815260200191505b509250505060405180910390f35b3480156102e157600080fd5b50610145600480360360208110156102f857600080fd5b50356106a9565b34801561030b57600080fd5b506101456106cd565b6101456106d1565b34801561032857600080fd5b506101456108dc565b34801561033d57600080fd5b506101456004803603602081101561035457600080fd5b50356108e2565b34801561036757600080fd5b50610145610bba565b60815463ffffffff1681565b60006103a06103896108dc565b6103916106cd565b60815463ffffffff16856103b7565b90505b919050565b6082546001600160a01b031681565b600080851180156103c85750600084115b80156103da575060008363ffffffff16115b80156103ef5750620f424063ffffffff841611155b610432576040805162461bcd60e51b815260206004820152600f60248201526e24b73b30b634b21034b7383aba399760891b604482015290519081900360640190fd5b8161043f575060006104d2565b63ffffffff8316620f424014156104775761047084610464878563ffffffff610bc016565b9063ffffffff610c2216565b90506104d2565b6000808061048b858863ffffffff610c6416565b905061049c818888620f4240610cbe565b9093509150600060ff83166104b78a8663ffffffff610bc016565b901c90506104cb818a63ffffffff610e2d16565b9450505050505b949350505050565b60865481565b60835481565b60855481565b600080851180156104fd5750600084115b801561050f575060008363ffffffff16115b80156105245750620f424063ffffffff841611155b80156105305750848211155b610573576040805162461bcd60e51b815260206004820152600f60248201526e24b73b30b634b21034b7383aba399760891b604482015290519081900360640190fd5b81610580575060006104d2565b8482141561058f5750826104d2565b63ffffffff8316620f424014156105b45761047085610464868563ffffffff610bc016565b600080806105c8888663ffffffff610e2d16565b90506105d98882620f424089610cbe565b909350915060006105f0888563ffffffff610bc016565b905060ff831688901b61060d85610464848463ffffffff610e2d16565b9a9950505050505050505050565b6000805460408051602060026001851615610100026000190190941693909304601f810184900484028201840190925281815292918301828280156106a15780601f10610676576101008083540402835291602001916106a1565b820191906000526020600020905b81548152906001019060200180831161068457829003601f168201915b505050505081565b60006103a06106b66108dc565b6106be6106cd565b60815463ffffffff16856104ec565b4790565b60855460009034901561078b5760006106fa606461046460855485610c2290919063ffffffff16565b60815460405191925064010000000090046001600160a01b0316906108fc8315029083906000818181858888f19350505050610777576040805162461bcd60e51b8152602060048201526017602482015276189d5e48199959481d1c985b9cd9995c8819985a5b1959604a1b604482015290519081900360640190fd5b610787828263ffffffff610e2d16565b9150505b60006107968261037c565b90506083546107b082608454610c6490919063ffffffff16565b11156107fa576040805162461bcd60e51b81526020600482015260146024820152731b585e1a5b5d5b4818dd5c9d99481b5a5b9d195960621b604482015290519081900360640190fd5b6082546040805163a9059cbb60e01b81523360048201526024810184905290516001600160a01b0390921691829163a9059cbb9160448083019260209291908290030181600087803b15801561084f57600080fd5b505af1158015610863573d6000803e3d6000fd5b505050506040513d602081101561087957600080fd5b50516108be576040805162461bcd60e51b815260206004820152600f60248201526e1d1c985b9cd9995c8819985a5b1959608a1b604482015290519081900360640190fd5b6084546108d1908363ffffffff610c6416565b608455509091505090565b60845490565b608254604080516370a0823160e01b815233600482015290516000926001600160a01b031691849183916370a08231916024808301926020929190829003018186803b15801561093157600080fd5b505afa158015610945573d6000803e3d6000fd5b505050506040513d602081101561095b57600080fd5b505110156109b0576040805162461bcd60e51b815260206004820152601860248201527f696e737566666963656e742042494f502062616c616e63650000000000000000604482015290519081900360640190fd5b60006109bb846106a9565b608654909150600090156109f8576109e3606461046460855485610c2290919063ffffffff16565b90506109f5828263ffffffff610e2d16565b91505b604080516323b872dd60e01b81523360048201523060248201526044810187905290516001600160a01b038516916323b872dd9160648083019260209291908290030181600087803b158015610a4d57600080fd5b505af1158015610a61573d6000803e3d6000fd5b505050506040513d6020811015610a7757600080fd5b5051610abc576040805162461bcd60e51b815260206004820152600f60248201526e1d1c985b9cd9995c8819985a5b1959608a1b604482015290519081900360640190fd5b608454610acf908663ffffffff610e2d16565b6084558015610b53576081546040516401000000009091046001600160a01b0316906108fc8315029083906000818181858888f19350505050610b53576040805162461bcd60e51b8152602060048201526017602482015276189d5e48199959481d1c985b9cd9995c8819985a5b1959604a1b604482015290519081900360640190fd5b604051339083156108fc029084906000818181858888f19350505050610bb2576040805162461bcd60e51b815260206004820152600f60248201526e1d1c985b9cd9995c8819985a5b1959608a1b604482015290519081900360640190fd5b509392505050565b60845481565b600082610bcf57506000610c1c565b82820282848281610bdc57fe5b0414610c195760405162461bcd60e51b8152600401808060200182810382526021815260200180611c356021913960400191505060405180910390fd5b90505b92915050565b6000610c1983836040518060400160405280601a81526020017f536166654d6174683a206469766973696f6e206279207a65726f000000000000815250610e6f565b600082820183811015610c19576040805162461bcd60e51b815260206004820152601b60248201527f536166654d6174683a206164646974696f6e206f766572666c6f770000000000604482015290519081900360640190fd5b600080600160811b8610610d19576040805162461bcd60e51b815260206004820152601860248201527f626173654e2065786365656473206d61782076616c75652e0000000000000000604482015290519081900360640190fd5b84861015610d6e576040805162461bcd60e51b815260206004820152601c60248201527f4261736573203c203120617265206e6f7420737570706f727465642e00000000604482015290519081900360640190fd5b600080866001607f1b890281610d8057fe5b04905070015bf0a8b1457695355fb8ac404e7a79e3811015610dac57610da581610f11565b9150610db8565b610db5816112f3565b91505b60008563ffffffff168763ffffffff16840281610dd157fe5b049050600160831b811015610df757610de9816113a3565b607f94509450505050610e24565b6000610e0282611747565b9050610e1781607f0360ff1683901c826117d9565b95509350610e2492505050565b94509492505050565b6000610c1983836040518060400160405280601e81526020017f536166654d6174683a207375627472616374696f6e206f766572666c6f770000815250611b76565b60008183610efb5760405162461bcd60e51b81526004018080602001828103825283818151815260200191508051906020019080838360005b83811015610ec0578181015183820152602001610ea8565b50505050905090810190601f168015610eed5780820380516001836020036101000a031916815260200191505b509250505060405180910390fd5b506000838581610f0757fe5b0495945050505050565b6000808080806fd3094c70f034de4b96ff7d5b6f99fcd88610610f5a576001607e1b840193506fd3094c70f034de4b96ff7d5b6f99fcd86001607f1b870281610f5657fe5b0495505b6fa45af1e1f40c333b3de1db4dd55f29a78610610f9d576001607d1b840193506fa45af1e1f40c333b3de1db4dd55f29a76001607f1b870281610f9957fe5b0495505b6f910b022db7ae67ce76b441c27035c6a18610610fe0576001607c1b840193506f910b022db7ae67ce76b441c27035c6a16001607f1b870281610fdc57fe5b0495505b6f88415abbe9a76bead8d00cf112e4d4a88610611023576001607b1b840193506f88415abbe9a76bead8d00cf112e4d4a86001607f1b87028161101f57fe5b0495505b6f84102b00893f64c705e841d5d4064bd38610611066576001607a1b840193506f84102b00893f64c705e841d5d4064bd36001607f1b87028161106257fe5b0495505b6f8204055aaef1c8bd5c3259f4822735a286106110a957600160791b840193506f8204055aaef1c8bd5c3259f4822735a26001607f1b8702816110a557fe5b0495505b6f810100ab00222d861931c15e39b44e9986106110ec57600160781b840193506f810100ab00222d861931c15e39b44e996001607f1b8702816110e857fe5b0495505b6f808040155aabbbe9451521693554f733861061112f57600160771b840193506f808040155aabbbe9451521693554f7336001607f1b87028161112b57fe5b0495505b6f7fffffffffffffffffffffffffffffff19860192508291506001607f1b828002049050600160801b838103830204840193506001607f1b8183028161117157fe5b049150600160811b836faaaaaaaaaaaaaaaaaaaaaaaaaaaaaaaa0383028161119557fe5b04840193506001607f1b818302816111a957fe5b049150600360801b836f99999999999999999999999999999999038302816111cd57fe5b04840193506001607f1b818302816111e157fe5b049150600160821b836f924924924924924924924924924924920383028161120557fe5b04840193506001607f1b8183028161121957fe5b049150600560801b836f8e38e38e38e38e38e38e38e38e38e38e0383028161123d57fe5b04840193506001607f1b8183028161125157fe5b049150600360811b836f8ba2e8ba2e8ba2e8ba2e8ba2e8ba2e8b0383028161127557fe5b04840193506001607f1b8183028161128957fe5b049150600760801b836f89d89d89d89d89d89d89d89d89d89d89038302816112ad57fe5b04840193506001607f1b818302816112c157fe5b049150600160831b836f88888888888888888888888888888888038302816112e557fe5b049390930195945050505050565b60008082600160801b81106113265760006113136001607f1b8304611bd0565b60ff166001607f1b810293509190911c90505b6001607f1b81111561137657607f5b60ff811615611374576001607f1b828002049150600160801b821061136b57600182901c91506001810360ff166001901b830192505b60001901611335565b505b6f05b9de1d10bf4103d647b0955897ba806f03f80fe03f80fe03f80fe03f80fe03f8830204949350505050565b6000670168244fdac780006001607f1b6f0fffffffffffffffffffffffffffffff84168080028290048082028390048083028490049485026710e1b3be415a00009092026705a0913f6b1e000091909102010192909181830204905080664807432bc1800002830192506001607f1b8282028161141c57fe5b04905080660c0135dca0400002830192506001607f1b8282028161143c57fe5b049050806601b707b1cdc00002830192506001607f1b8282028161145c57fe5b049050806536e0f639b80002830192506001607f1b8282028161147b57fe5b04905080650618fee9f80002830192506001607f1b8282028161149a57fe5b04905080649c197dcc0002830192506001607f1b828202816114b857fe5b04905080640e30dce40002830192506001607f1b828202816114d657fe5b0490508064012ebd130002830192506001607f1b828202816114f457fe5b049050806317499f0002830192506001607f1b8282028161151157fe5b049050806301a9d48002830192506001607f1b8282028161152e57fe5b04905080621c638002830192506001607f1b8282028161154a57fe5b049050806201c63802830192506001607f1b8282028161156657fe5b04905080611ab802830192506001607f1b8282028161158157fe5b0490508061017c02830192506001607f1b8282028161159c57fe5b04905080601402830192506001607f1b828202816115b657fe5b6721c3677c82b400009190049384010482016001607f1b019290506001607c1b8516156116075770018ebef9eac820ae8682b9793ac6d1e7767001c3d6a24ed82218787d624d3e5eba95f984020492505b6001607d1b85161561163d577001368b2fc6f9609fe7aceb46aa619baed470018ebef9eac820ae8682b9793ac6d1e77884020492505b6001607e1b851615611672576fbc5ab1b16779be3575bd8f0520a9f21f7001368b2fc6f9609fe7aceb46aa619baed584020492505b6001607f1b8516156116a6576f454aaa8efe072e7f6ddbab84b40a55c96fbc5ab1b16779be3575bd8f0520a9f21e84020492505b600160801b8516156116da576f0960aadc109e7a3bf4578099615711ea6f454aaa8efe072e7f6ddbab84b40a55c584020492505b600160811b85161561170d576e2bf84208204f5977f9a8cf01fdce3d6f0960aadc109e7a3bf4578099615711d784020492505b600160821b85161561173e576d03c6ab775dd0b95b4cbee7e65d116e2bf84208204f5977f9a8cf01fdc30784020492505b50909392505050565b60006020607f5b8060ff168260010160ff161015611796576000600260ff848401160490508460018260ff166080811061177d57fe5b01541061178c57809250611790565b8091505b5061174e565b8360018260ff16608081106117a757fe5b0154106117b75791506103a39050565b8360018360ff16608081106117c857fe5b0154106117d7575090506103a3565bfe5b60008083905060008090508360ff16858302901c9150816f03442c4e6074a82f1797f72ac000000002810190508360ff16858302901c9150816f0116b96f757c380fb287fd0e4000000002810190508360ff16858302901c9150816e45ae5bdd5f0e03eca1ff439000000002810190508360ff16858302901c9150816e0defabf91302cd95b9ffda5000000002810190508360ff16858302901c9150816e02529ca9832b22439efff9b800000002810190508360ff16858302901c9150816d54f1cf12bd04e516b6da8800000002810190508360ff16858302901c9150816d0a9e39e257a09ca2d6db5100000002810190508360ff16858302901c9150816d012e066e7b839fa050c30900000002810190508360ff16858302901c9150816c1e33d7d926c329a1ad1a80000002810190508360ff16858302901c9150816c02bee513bdb4a6b19b5f80000002810190508360ff16858302901c9150816b3a9316fa79b88eccf2a0000002810190508360ff16858302901c9150816b048177ebe1fa81237520000002810190508360ff16858302901c9150816a5263fe90242dcbacf0000002810190508360ff16858302901c9150816a057e22099c030d9410000002810190508360ff16858302901c9150816957e22099c030d941000002810190508360ff16858302901c91508169052b6b5456997631000002810190508360ff16858302901c915081684985f67696bf74800002810190508360ff16858302901c9150816803dea12ea99e49800002810190508360ff16858302901c9150816731880f2214b6e00002810190508360ff16858302901c91508167025bcff56eb3600002810190508360ff16858302901c915081661b722e10ab100002810190508360ff16858302901c9150816601317c7007700002810190508360ff16858302901c915081650cba84aafa0002810190508360ff16858302901c9150816482573a0a0002810190508360ff16858302901c9150816405035ad90002810190508360ff16858302901c915081632f881b0002810190508360ff16858302901c9150816301b2934002810190508360ff16858302901c915081620efc4002810190508360ff16858302901c915081617fe002810190508360ff16858302901c91508161042002810190508360ff16858302901c915081602102810190508360ff16858302901c915081600102810190508360ff166001901b856f0688589cc0e9505e2f2fee55800000008381611b6a57fe5b04010195945050505050565b60008184841115611bc85760405162461bcd60e51b8152602060048201818152835160248401528351909283926044909101919085019080838360008315610ec0578181015183820152602001610ea8565b505050900390565b60008082610100811015611bf9575b6001811115611bf4576001918201911c611bdf565b611c2d565b60805b60ff811615611c2b57600160ff82161b8210611c20579182179160ff81169190911c905b60011c607f16611bfc565b505b509291505056fe536166654d6174683a206d756c7469706c69636174696f6e206f766572666c6f77a2646970667358221220297eff27888d5a42a37a0028fa22a9dc1d0dc1c215ead3091e24ae980577c15964736f6c63430006060033",
  "immutableReferences": {},
  "source": "pragma solidity 0.6.6;\n\n\nimport \"@openzeppelin/contracts/math/SafeMath.sol\";\nimport \"@openzeppelin/contracts/token/ERC20/ERC20.sol\";\n\n\nimport \"../ContinuousToken/curves/BancorBondingCurve.sol\";\n\ncontract BondingCurve  is BancorBondingCurve {\n    using SafeMath for uint256;\n    address payable owner;\n    address public tk;//token address\n\n    uint256 public tbca =400000000000000000000000000000;//total bonding curve available\n\n\n    uint256 public soldAmount = 0;\n    uint256 public buyFee = 2;//10th of percent\n    uint256 public sellFee = 0;//10th of percent\n\n    constructor(address payable tk_, uint32 _reserveRatio) public BancorBondingCurve(_reserveRatio) {\n        owner = msg.sender;\n        tk = tk_;\n    }\n\n    \n\n\n    //bonding curve functions\n\n     /**\n    * @dev method that returns BIOP amount sold by curve\n    */   \n    function continuousSupply() public override view returns (uint) {\n        return soldAmount;\n    }\n\n    /**\n    * @dev method that returns curves ETH (reserve) balance\n    */    \n    function reserveBalance() public override view returns (uint) {\n        return address(this).balance;\n    }\n\n    /**\n     * @notice purchase BIOP from the bonding curve. \n     the amount you get is based on the amount in the pool and the amount of eth u send.\n     */\n     function buy() public payable returns(uint256){\n        uint256 purchaseAmount = msg.value;\n        \n         if (buyFee > 0) {\n            uint256 fee = purchaseAmount.div(buyFee).div(100);\n            require(owner.send(fee), \"buy fee transfer failed\");\n           \n            purchaseAmount = purchaseAmount.sub(fee);\n        } \n        uint rewardAmount = getContinuousMintReward(purchaseAmount);\n        require(soldAmount.add(rewardAmount) <= tbca, \"maximum curve minted\");\n        ERC20 token = ERC20(tk);\n        require(token.transfer(msg.sender, rewardAmount), \"transfer failed\");\n        soldAmount = soldAmount.add(rewardAmount);\n        return purchaseAmount;\n    }\n\n    \n     /**\n     * @notice sell BIOP to the bonding curve. Users must first approve this contract for token\n     * @param amount the amount of BIOP to sell\n     */\n     function sell(uint256 amount) public returns (uint256){\n         ERC20 token = ERC20(tk);\n        require(token.balanceOf(msg.sender) >= amount, \"insufficent BIOP balance\");\n\n        uint256 ethToSend = getContinuousBurnRefund(amount);\n        uint256 fee = 0;\n        if (sellFee > 0) {\n            fee = ethToSend.div(buyFee).div(100);\n            ethToSend = ethToSend.sub(fee);\n        }\n        require(token.transferFrom(msg.sender, address(this), amount), \"transfer failed\");\n        \n        soldAmount = soldAmount.sub(amount);\n        if (fee != 0) {\n            require(owner.send(fee), \"buy fee transfer failed\");  \n        }\n        require(msg.sender.send(ethToSend), \"transfer failed\");\n        return ethToSend;\n        }\n}",
  "sourcePath": "/Users/x/Desktop/eth/BIOPv4/contracts/depreciated/BondingCurve.sol",
  "compiler": {
    "name": "solc",
    "version": "0.6.6+commit.6c089d02.Emscripten.clang"
  },
  "schemaVersion": "3.3.4",
  "updatedAt": "2021-03-22T19:19:04.208Z",
  "devdoc": {
    "methods": {
      "calculatePurchaseReturn(uint256,uint256,uint32,uint256)": {
        "details": "given a continuous token supply, reserve token balance, reserve ratio, and a deposit amount (in the reserve token), calculates the return for a given conversion (in the continuous token)    * Formula: Return = _supply * ((1 + _depositAmount / _reserveBalance) ^ (_reserveRatio / MAX_RESERVE_RATIO) - 1)",
        "params": {
          "_depositAmount": "deposit amount, in reserve token",
          "_reserveBalance": "total reserve token balance",
          "_reserveRatio": "reserve ratio, represented in ppm, 1-1000000",
          "_supply": "continuous token total supply"
        },
        "returns": {
          "_0": "purchase return amount"
        }
      },
      "calculateSaleReturn(uint256,uint256,uint32,uint256)": {
        "details": "given a continuous token supply, reserve token balance, reserve ratio and a sell amount (in the continuous token), calculates the return for a given conversion (in the reserve token)    * Formula: Return = _reserveBalance * (1 - (1 - _sellAmount / _supply) ^ (1 / (_reserveRatio / MAX_RESERVE_RATIO)))",
        "params": {
          "_reserveBalance": "total reserve token balance",
          "_reserveRatio": "constant reserve ratio, represented in ppm, 1-1000000",
          "_sellAmount": "sell amount, in the continuous token itself",
          "_supply": "continuous token total supply"
        },
        "returns": {
          "_0": "sale return amount"
        }
      },
      "continuousSupply()": {
        "details": "method that returns BIOP amount sold by curve"
      },
      "reserveBalance()": {
        "details": "method that returns curves ETH (reserve) balance"
      },
      "sell(uint256)": {
        "params": {
          "amount": "the amount of BIOP to sell"
        }
      }
    }
  },
  "userdoc": {
    "methods": {
      "buy()": {
        "notice": "purchase BIOP from the bonding curve.  the amount you get is based on the amount in the pool and the amount of eth u send."
      },
      "sell(uint256)": {
        "notice": "sell BIOP to the bonding curve. Users must first approve this contract for token"
      }
    }
  }
}