{
  "contractName": "DAO",
  "abi": [
    {
      "inputs": [
        {
          "internalType": "address",
          "name": "bo_",
          "type": "address"
        },
        {
          "internalType": "address",
          "name": "v4_",
          "type": "address"
        },
        {
          "internalType": "address",
          "name": "accessTiers_",
          "type": "address"
        },
        {
          "internalType": "address",
          "name": "app_",
          "type": "address"
        },
        {
          "internalType": "address",
          "name": "factory_",
          "type": "address"
        },
        {
          "internalType": "address payable",
          "name": "trsy_",
          "type": "address"
        }
      ],
      "stateMutability": "nonpayable",
      "type": "constructor"
    },
    {
      "anonymous": false,
      "inputs": [
        {
          "indexed": false,
          "internalType": "uint256",
          "name": "amount",
          "type": "uint256"
        },
        {
          "indexed": false,
          "internalType": "uint256",
          "name": "total",
          "type": "uint256"
        }
      ],
      "name": "Stake",
      "type": "event"
    },
    {
      "anonymous": false,
      "inputs": [
        {
          "indexed": false,
          "internalType": "uint256",
          "name": "amount",
          "type": "uint256"
        },
        {
          "indexed": false,
          "internalType": "uint256",
          "name": "total",
          "type": "uint256"
        }
      ],
      "name": "Withdraw",
      "type": "event"
    },
    {
      "stateMutability": "payable",
      "type": "fallback",
      "payable": true
    },
    {
      "inputs": [],
      "name": "aTA",
      "outputs": [
        {
          "internalType": "address",
          "name": "",
          "type": "address"
        }
      ],
      "stateMutability": "view",
      "type": "function",
      "constant": true
    },
    {
      "inputs": [],
      "name": "appA",
      "outputs": [
        {
          "internalType": "address",
          "name": "",
          "type": "address"
        }
      ],
      "stateMutability": "view",
      "type": "function",
      "constant": true
    },
    {
      "inputs": [],
      "name": "dBIOP",
      "outputs": [
        {
          "internalType": "uint256",
          "name": "",
          "type": "uint256"
        }
      ],
      "stateMutability": "view",
      "type": "function",
      "constant": true
    },
    {
      "inputs": [],
      "name": "fcry",
      "outputs": [
        {
          "internalType": "address",
          "name": "",
          "type": "address"
        }
      ],
      "stateMutability": "view",
      "type": "function",
      "constant": true
    },
    {
      "inputs": [
        {
          "internalType": "address",
          "name": "",
          "type": "address"
        }
      ],
      "name": "lST",
      "outputs": [
        {
          "internalType": "uint256",
          "name": "",
          "type": "uint256"
        }
      ],
      "stateMutability": "view",
      "type": "function",
      "constant": true
    },
    {
      "inputs": [],
      "name": "lastPaymentReceived",
      "outputs": [
        {
          "internalType": "uint256",
          "name": "",
          "type": "uint256"
        }
      ],
      "stateMutability": "view",
      "type": "function",
      "constant": true
    },
    {
      "inputs": [
        {
          "internalType": "address",
          "name": "",
          "type": "address"
        }
      ],
      "name": "lrc",
      "outputs": [
        {
          "internalType": "uint256",
          "name": "",
          "type": "uint256"
        }
      ],
      "stateMutability": "view",
      "type": "function",
      "constant": true
    },
    {
      "inputs": [],
      "name": "pA",
      "outputs": [
        {
          "internalType": "address",
          "name": "",
          "type": "address"
        }
      ],
      "stateMutability": "view",
      "type": "function",
      "constant": true
    },
    {
      "inputs": [
        {
          "internalType": "address",
          "name": "",
          "type": "address"
        }
      ],
      "name": "rep",
      "outputs": [
        {
          "internalType": "address payable",
          "name": "",
          "type": "address"
        }
      ],
      "stateMutability": "view",
      "type": "function",
      "constant": true
    },
    {
      "inputs": [
        {
          "internalType": "address",
          "name": "",
          "type": "address"
        }
      ],
      "name": "staked",
      "outputs": [
        {
          "internalType": "uint256",
          "name": "",
          "type": "uint256"
        }
      ],
      "stateMutability": "view",
      "type": "function",
      "constant": true
    },
    {
      "inputs": [],
      "name": "tA",
      "outputs": [
        {
          "internalType": "address",
          "name": "",
          "type": "address"
        }
      ],
      "stateMutability": "view",
      "type": "function",
      "constant": true
    },
    {
      "inputs": [],
      "name": "totalStakedAtLastPayment",
      "outputs": [
        {
          "internalType": "uint256",
          "name": "",
          "type": "uint256"
        }
      ],
      "stateMutability": "view",
      "type": "function",
      "constant": true
    },
    {
      "inputs": [],
      "name": "trg",
      "outputs": [
        {
          "internalType": "uint256",
          "name": "",
          "type": "uint256"
        }
      ],
      "stateMutability": "view",
      "type": "function",
      "constant": true
    },
    {
      "inputs": [],
      "name": "trsy",
      "outputs": [
        {
          "internalType": "address payable",
          "name": "",
          "type": "address"
        }
      ],
      "stateMutability": "view",
      "type": "function",
      "constant": true
    },
    {
      "inputs": [
        {
          "internalType": "address",
          "name": "",
          "type": "address"
        }
      ],
      "name": "votes",
      "outputs": [
        {
          "internalType": "uint256",
          "name": "",
          "type": "uint256"
        }
      ],
      "stateMutability": "view",
      "type": "function",
      "constant": true
    },
    {
      "inputs": [],
      "name": "totalStaked",
      "outputs": [
        {
          "internalType": "uint256",
          "name": "",
          "type": "uint256"
        }
      ],
      "stateMutability": "view",
      "type": "function",
      "constant": true
    },
    {
      "inputs": [
        {
          "internalType": "uint256",
          "name": "amount",
          "type": "uint256"
        }
      ],
      "name": "stake",
      "outputs": [],
      "stateMutability": "nonpayable",
      "type": "function"
    },
    {
      "inputs": [
        {
          "internalType": "uint256",
          "name": "amount",
          "type": "uint256"
        }
      ],
      "name": "withdraw",
      "outputs": [],
      "stateMutability": "nonpayable",
      "type": "function"
    },
    {
      "inputs": [
        {
          "internalType": "address payable",
          "name": "newSha",
          "type": "address"
        }
      ],
      "name": "endorse",
      "outputs": [],
      "stateMutability": "nonpayable",
      "type": "function"
    },
    {
      "inputs": [],
      "name": "unendorse",
      "outputs": [],
      "stateMutability": "nonpayable",
      "type": "function"
    },
    {
      "inputs": [
        {
          "internalType": "address",
          "name": "acc",
          "type": "address"
        }
      ],
      "name": "bRSLC",
      "outputs": [
        {
          "internalType": "uint256",
          "name": "",
          "type": "uint256"
        }
      ],
      "stateMutability": "view",
      "type": "function",
      "constant": true
    },
    {
      "inputs": [
        {
          "internalType": "address",
          "name": "account",
          "type": "address"
        }
      ],
      "name": "pendingETHRewards",
      "outputs": [
        {
          "internalType": "uint256",
          "name": "",
          "type": "uint256"
        }
      ],
      "stateMutability": "view",
      "type": "function",
      "constant": true
    },
    {
      "inputs": [],
      "name": "claimETHRewards",
      "outputs": [],
      "stateMutability": "nonpayable",
      "type": "function"
    },
    {
      "inputs": [
        {
          "internalType": "address",
          "name": "token_",
          "type": "address"
        }
      ],
      "name": "createTokenDenominatedBinaryOptions",
      "outputs": [],
      "stateMutability": "nonpayable",
      "type": "function"
    },
    {
      "inputs": [
        {
          "internalType": "uint256",
          "name": "nMT_",
          "type": "uint256"
        },
        {
          "internalType": "address",
          "name": "addy_",
          "type": "address"
        }
      ],
      "name": "uMXOT",
      "outputs": [],
      "stateMutability": "nonpayable",
      "type": "function"
    },
    {
      "inputs": [
        {
          "internalType": "uint256",
          "name": "nMT_",
          "type": "uint256"
        },
        {
          "internalType": "address",
          "name": "addy_",
          "type": "address"
        }
      ],
      "name": "uMNOT",
      "outputs": [],
      "stateMutability": "nonpayable",
      "type": "function"
    },
    {
      "inputs": [
        {
          "internalType": "uint256",
          "name": "newFee_",
          "type": "uint256"
        },
        {
          "internalType": "address",
          "name": "addy_",
          "type": "address"
        }
      ],
      "name": "updateSettlerFee",
      "outputs": [],
      "stateMutability": "nonpayable",
      "type": "function"
    },
    {
      "inputs": [
        {
          "internalType": "address",
          "name": "oldPP_",
          "type": "address"
        }
      ],
      "name": "removeTradingPair",
      "outputs": [],
      "stateMutability": "nonpayable",
      "type": "function"
    },
    {
      "inputs": [
        {
          "internalType": "address",
          "name": "newPP_",
          "type": "address"
        },
        {
          "internalType": "address",
          "name": "newRateCalc_",
          "type": "address"
        }
      ],
      "name": "addUpdateTradingPair",
      "outputs": [],
      "stateMutability": "nonpayable",
      "type": "function"
    },
    {
      "inputs": [
        {
          "internalType": "bool",
          "name": "nx_",
          "type": "bool"
        }
      ],
      "name": "enableRewards",
      "outputs": [],
      "stateMutability": "nonpayable",
      "type": "function"
    },
    {
      "inputs": [
        {
          "internalType": "uint256",
          "name": "amount",
          "type": "uint256"
        },
        {
          "internalType": "address payable",
          "name": "destination",
          "type": "address"
        }
      ],
      "name": "sendTreasuryFunds",
      "outputs": [],
      "stateMutability": "nonpayable",
      "type": "function"
    },
    {
      "inputs": [
        {
          "internalType": "address",
          "name": "token",
          "type": "address"
        },
        {
          "internalType": "uint256",
          "name": "amount",
          "type": "uint256"
        },
        {
          "internalType": "address payable",
          "name": "destination",
          "type": "address"
        }
      ],
      "name": "sendTreasuryERC20Funds",
      "outputs": [],
      "stateMutability": "nonpayable",
      "type": "function"
    },
    {
      "inputs": [
        {
          "internalType": "uint256",
          "name": "newLockSeconds_",
          "type": "uint256"
        },
        {
          "internalType": "address",
          "name": "addy_",
          "type": "address"
        }
      ],
      "name": "updatePoolLockTime",
      "outputs": [],
      "stateMutability": "nonpayable",
      "type": "function"
    },
    {
      "inputs": [
        {
          "internalType": "uint256",
          "name": "newProtocolFee_",
          "type": "uint256"
        },
        {
          "internalType": "address",
          "name": "addy_",
          "type": "address"
        }
      ],
      "name": "updateProtocolFee",
      "outputs": [],
      "stateMutability": "nonpayable",
      "type": "function"
    },
    {
      "inputs": [
        {
          "internalType": "address",
          "name": "newAPP_",
          "type": "address"
        },
        {
          "internalType": "address",
          "name": "addy_",
          "type": "address"
        }
      ],
      "name": "updateAPP",
      "outputs": [],
      "stateMutability": "nonpayable",
      "type": "function"
    },
    {
      "inputs": [
        {
          "internalType": "address",
          "name": "uR_",
          "type": "address"
        },
        {
          "internalType": "address payable",
          "name": "addy_",
          "type": "address"
        }
      ],
      "name": "updateUROwner",
      "outputs": [],
      "stateMutability": "nonpayable",
      "type": "function"
    },
    {
      "inputs": [
        {
          "internalType": "address",
          "name": "token_",
          "type": "address"
        }
      ],
      "name": "deactivateTokenDenominatedBinaryOptions",
      "outputs": [],
      "stateMutability": "nonpayable",
      "type": "function"
    },
    {
      "inputs": [
        {
          "internalType": "uint256",
          "name": "new_",
          "type": "uint256"
        }
      ],
      "name": "updateStakersPercent",
      "outputs": [],
      "stateMutability": "nonpayable",
      "type": "function"
    },
    {
      "inputs": [
        {
          "internalType": "address payable",
          "name": "new_",
          "type": "address"
        }
      ],
      "name": "updateTreasuryOwner",
      "outputs": [],
      "stateMutability": "nonpayable",
      "type": "function"
    },
    {
      "inputs": [
        {
          "internalType": "address",
          "name": "newAccessTiers_",
          "type": "address"
        }
      ],
      "name": "updateAccessTiers",
      "outputs": [],
      "stateMutability": "nonpayable",
      "type": "function"
    },
    {
      "inputs": [
        {
          "internalType": "address",
          "name": "addy_",
          "type": "address"
        }
      ],
      "name": "toggleStaking",
      "outputs": [],
      "stateMutability": "nonpayable",
      "type": "function"
    },
    {
      "inputs": [
        {
          "internalType": "address",
          "name": "newUR",
          "type": "address"
        }
      ],
      "name": "updateUtilizationRewards",
      "outputs": [],
      "stateMutability": "nonpayable",
      "type": "function"
    },
    {
      "inputs": [
        {
          "internalType": "address payable",
          "name": "a",
          "type": "address"
        }
      ],
      "name": "updateProtocol",
      "outputs": [],
      "stateMutability": "nonpayable",
      "type": "function"
    },
    {
      "inputs": [
        {
          "internalType": "address payable",
          "name": "a",
          "type": "address"
        }
      ],
      "name": "updateFactoryOwner",
      "outputs": [],
      "stateMutability": "nonpayable",
      "type": "function"
    },
    {
      "inputs": [
        {
          "internalType": "address payable",
          "name": "a",
          "type": "address"
        }
      ],
      "name": "updateFactory",
      "outputs": [],
      "stateMutability": "nonpayable",
      "type": "function"
    }
  ],
  "bytecode": "0x60e060405234801561001057600080fd5b50604051613c74380380613c74833981810160405260c081101561003357600080fd5b5080516020820151604083015160608085015160808087015160a0978801516001600160601b031997851b8816909252600080546001600160a01b039788166001600160a01b031991821617909155600180549688169682169690961790955591831b86169096526002805494909116939092169290921790559190911b1660c05260805160601c60a05160601c60c05160601c613b12610162600039806115c852806122015280612c435280612fa8528061326052806133e1525080611d4652806120cf52806125f25280613409525080610ba25280610bde5280610e235280610e5f528061138852806116f5528061173152806119585280611e645280611ea0528061233d5280612379528061259852806129cf5280612a295280612e385280612e745250613b126000f3fe6080604052600436106102725760003560e01c80638b49ea6d1161014f578063b2557cf9116100c1578063da4e8d711161007a578063da4e8d711461094a578063ecc7e82e1461095f578063ef7ab8ac14610998578063f20958f6146109cb578063fc9db96c146109fe578063ff98a75114610a3957610272565b8063b2557cf91461086c578063b4b72c1d14610881578063c621277a14610896578063c81461d6146108cf578063d8bff5a5146108e4578063d9f165dc1461091757610272565b80639b1559c3116101135780639b1559c31461076e578063a0e1c2d01461079a578063a509dcb5146107af578063a694fc3a146107c4578063a8fddd69146107ee578063aabe75791461082957610272565b80638b49ea6d1461066457806395866ba61461069d57806398807d84146106d8578063988307381461070b5780639a7540e41461073557610272565b80634c2a4166116101e85780636d095514116101ac5780636d0955141461056e5780636ea5511f146105a1578063727a573c146105d457806379da7e4d14610607578063816670f31461061c578063817b1cd21461064f57610272565b80634c2a4166146104a55780634fdac7af146104d857806358d5970e146104ed5780636a92cf8b146105265780636c91eb1e1461055957610272565b80632e1a7d4d1161023a5780632e1a7d4d1461039c5780632e7be65b146103c65780632f645252146103f75780633236ed561461042a578063480ea6281461045d57806349be4c331461047257610272565b806308433c25146102835780630a21ea7a146102be578063108e184d146102f15780631fa338151461033657806322d2d4a114610369575b61027a610a4e565b60075542600855005b34801561028f57600080fd5b506102bc600480360360408110156102a657600080fd5b50803590602001356001600160a01b0316610acd565b005b3480156102ca57600080fd5b506102bc600480360360208110156102e157600080fd5b50356001600160a01b0316610d4e565b3480156102fd57600080fd5b506103246004803603602081101561031457600080fd5b50356001600160a01b0316610fbc565b60408051918252519081900360200190f35b34801561034257600080fd5b506102bc6004803603602081101561035957600080fd5b50356001600160a01b0316610fce565b34801561037557600080fd5b506103246004803603602081101561038c57600080fd5b50356001600160a01b031661110f565b3480156103a857600080fd5b506102bc600480360360208110156103bf57600080fd5b5035611162565b3480156103d257600080fd5b506103db611386565b604080516001600160a01b039092168252519081900360200190f35b34801561040357600080fd5b506102bc6004803603602081101561041a57600080fd5b50356001600160a01b03166113aa565b34801561043657600080fd5b506103db6004803603602081101561044d57600080fd5b50356001600160a01b03166114a0565b34801561046957600080fd5b506103246114bb565b34801561047e57600080fd5b506103246004803603602081101561049557600080fd5b50356001600160a01b03166114c1565b3480156104b157600080fd5b506102bc600480360360208110156104c857600080fd5b50356001600160a01b03166114d3565b3480156104e457600080fd5b506103db611611565b3480156104f957600080fd5b506102bc6004803603604081101561051057600080fd5b50803590602001356001600160a01b0316611620565b34801561053257600080fd5b506102bc6004803603602081101561054957600080fd5b50356001600160a01b0316611863565b34801561056557600080fd5b506103db6119a1565b34801561057a57600080fd5b506103246004803603602081101561059157600080fd5b50356001600160a01b03166119b0565b3480156105ad57600080fd5b506102bc600480360360208110156105c457600080fd5b50356001600160a01b03166119e1565b3480156105e057600080fd5b506102bc600480360360208110156105f757600080fd5b50356001600160a01b0316611b4c565b34801561061357600080fd5b506103db611c42565b34801561062857600080fd5b506102bc6004803603602081101561063f57600080fd5b50356001600160a01b0316611c51565b34801561065b57600080fd5b50610324610a4e565b34801561067057600080fd5b506102bc6004803603604081101561068757600080fd5b50803590602001356001600160a01b0316611d8f565b3480156106a957600080fd5b506102bc600480360360408110156106c057600080fd5b506001600160a01b0381358116916020013516611fd2565b3480156106e457600080fd5b50610324600480360360208110156106fb57600080fd5b50356001600160a01b0316612118565b34801561071757600080fd5b506102bc6004803603602081101561072e57600080fd5b503561212a565b34801561074157600080fd5b506102bc6004803603604081101561075857600080fd5b50803590602001356001600160a01b0316612268565b34801561077a57600080fd5b506102bc6004803603602081101561079157600080fd5b503515156124ab565b3480156107a657600080fd5b506103246125ea565b3480156107bb57600080fd5b506103db6125f0565b3480156107d057600080fd5b506102bc600480360360208110156107e757600080fd5b5035612614565b3480156107fa57600080fd5b506102bc6004803603604081101561081157600080fd5b506001600160a01b03813581169160200135166128fa565b34801561083557600080fd5b506102bc6004803603606081101561084c57600080fd5b506001600160a01b03813581169160208101359160409091013516612b3f565b34801561087857600080fd5b50610324612c8c565b34801561088d57600080fd5b506102bc612c92565b3480156108a257600080fd5b506102bc600480360360408110156108b957600080fd5b50803590602001356001600160a01b0316612d63565b3480156108db57600080fd5b506103db612fa6565b3480156108f057600080fd5b506103246004803603602081101561090757600080fd5b50356001600160a01b0316612fca565b34801561092357600080fd5b506102bc6004803603602081101561093a57600080fd5b50356001600160a01b0316612fdc565b34801561095657600080fd5b506102bc6130d2565b34801561096b57600080fd5b506102bc6004803603604081101561098257600080fd5b50803590602001356001600160a01b0316613164565b3480156109a457600080fd5b506102bc600480360360208110156109bb57600080fd5b50356001600160a01b03166132fa565b3480156109d757600080fd5b506102bc600480360360208110156109ee57600080fd5b50356001600160a01b031661345c565b348015610a0a57600080fd5b506102bc60048036036040811015610a2157600080fd5b506001600160a01b0381358116916020013516613592565b348015610a4557600080fd5b506103246136b0565b60008054604080516370a0823160e01b815230600482015290516001600160a01b039092169182916370a08231916024808301926020929190829003018186803b158015610a9b57600080fd5b505afa158015610aaf573d6000803e3d6000fd5b505050506040513d6020811015610ac557600080fd5b505191505090565b600154336000908152600360209081526040808320546006548251630c1d2c4760e31b81526004810192909252602482015290516001600160a01b039094169384936360e9623893604480850194919392918390030190829087803b158015610b3557600080fd5b505af1158015610b49573d6000803e3d6000fd5b505050506040513d6020811015610b5f57600080fd5b5051610ba0576040805162461bcd60e51b815260206004820152601d6024820152600080516020613abd833981519152604482015290519081900360640190fd5b7f00000000000000000000000000000000000000000000000000000000000000006001600160a01b0316826001600160a01b03161415610c635760007f00000000000000000000000000000000000000000000000000000000000000009050806001600160a01b0316631d983e23856040518263ffffffff1660e01b815260040180828152602001915050600060405180830381600087803b158015610c4557600080fd5b505af1158015610c59573d6000803e3d6000fd5b5050505050610d49565b600254604080516314f1d87f60e01b81526001600160a01b0385811660048301529151919092169160009183916314f1d87f91602480830192602092919082900301818787803b158015610cb657600080fd5b505af1158015610cca573d6000803e3d6000fd5b505050506040513d6020811015610ce057600080fd5b50516040805163dbdf8dfb60e01b81526004810188905290519192506001600160a01b0383169163dbdf8dfb9160248082019260009290919082900301818387803b158015610d2e57600080fd5b505af1158015610d42573d6000803e3d6000fd5b5050505050505b505050565b6001543360009081526003602090815260408083205460065482516313c36b2f60e11b81526004810192909252602482015290516001600160a01b03909416938493632786d65e93604480850194919392918390030190829087803b158015610db657600080fd5b505af1158015610dca573d6000803e3d6000fd5b505050506040513d6020811015610de057600080fd5b5051610e21576040805162461bcd60e51b815260206004820152601d6024820152600080516020613abd833981519152604482015290519081900360640190fd5b7f00000000000000000000000000000000000000000000000000000000000000006001600160a01b0316826001600160a01b03161415610ed95760007f00000000000000000000000000000000000000000000000000000000000000009050806001600160a01b0316633b8105b36040518163ffffffff1660e01b8152600401600060405180830381600087803b158015610ebb57600080fd5b505af1158015610ecf573d6000803e3d6000fd5b5050505050610fb8565b600254604080516314f1d87f60e01b81526001600160a01b0385811660048301529151919092169160009183916314f1d87f91602480830192602092919082900301818787803b158015610f2c57600080fd5b505af1158015610f40573d6000803e3d6000fd5b505050506040513d6020811015610f5657600080fd5b505160408051633b8105b360e01b815290519192506001600160a01b03831691633b8105b39160048082019260009290919082900301818387803b158015610f9d57600080fd5b505af1158015610fb1573d6000803e3d6000fd5b5050505050505b5050565b600b6020526000908152604090205481565b6001543360009081526003602090815260408083205460065482516313c36b2f60e11b81526004810192909252602482015290516001600160a01b03909416938493632786d65e93604480850194919392918390030190829087803b15801561103657600080fd5b505af115801561104a573d6000803e3d6000fd5b505050506040513d602081101561106057600080fd5b50516110a1576040805162461bcd60e51b815260206004820152601d6024820152600080516020613abd833981519152604482015290519081900360640190fd5b60025460408051634fb2e45d60e01b81526001600160a01b038581166004830152915191909216918291634fb2e45d9160248082019260009290919082900301818387803b1580156110f257600080fd5b505af1158015611106573d6000803e3d6000fd5b50505050505050565b60008061111b836119b0565b6007546001600160a01b03851660009081526005602052604090205491925061115b9161114f90849063ffffffff6136b616565b9063ffffffff61370f16565b9392505050565b336000908152600560205260409020548111156111b7576040805162461bcd60e51b815260206004820152600e60248201526d1a5b9d985b1a5908185b5bdd5b9d60921b604482015290519081900360640190fd5b6000805433825260046020526040909120546001600160a01b039182169116156111e057600080fd5b6040805163a9059cbb60e01b81523360048201526024810184905290516001600160a01b0383169163a9059cbb9160448083019260209291908290030181600087803b15801561122f57600080fd5b505af1158015611243573d6000803e3d6000fd5b505050506040513d602081101561125957600080fd5b505161129d576040805162461bcd60e51b815260206004820152600e60248201526d1cdd185ada5b99c819985a5b195960921b604482015290519081900360640190fd5b336000908152600560205260409020546112bd908363ffffffff61375116565b3360009081526005602090815260408083209390935582516370a0823160e01b8152306004820152925191926001600160a01b038516926370a0823192602480840193919291829003018186803b15801561131757600080fd5b505afa15801561132b573d6000803e3d6000fd5b505050506040513d602081101561134157600080fd5b5051604080518581526020810183905281519293507f56ca301a9219608c91e7bcee90e083c19671d2cdcc96752c7af291cee5f9c8c8929081900390910190a1505050565b7f000000000000000000000000000000000000000000000000000000000000000081565b6001543360009081526003602090815260408083205460065482516313c36b2f60e11b81526004810192909252602482015290516001600160a01b03909416938493632786d65e93604480850194919392918390030190829087803b15801561141257600080fd5b505af1158015611426573d6000803e3d6000fd5b505050506040513d602081101561143c57600080fd5b505161147d576040805162461bcd60e51b815260206004820152601d6024820152600080516020613abd833981519152604482015290519081900360640190fd5b50600180546001600160a01b0319166001600160a01b0392909216919091179055565b6004602052600090815260409020546001600160a01b031681565b60095481565b600a6020526000908152604090205481565b6001543360009081526003602090815260408083205460065482516313c36b2f60e11b81526004810192909252602482015290516001600160a01b03909416938493632786d65e93604480850194919392918390030190829087803b15801561153b57600080fd5b505af115801561154f573d6000803e3d6000fd5b505050506040513d602081101561156557600080fd5b50516115a6576040805162461bcd60e51b815260206004820152601d6024820152600080516020613abd833981519152604482015290519081900360640190fd5b6040805163bcb6c0b560e01b81526001600160a01b03848116600483015291517f00000000000000000000000000000000000000000000000000000000000000009283169163bcb6c0b591602480830192600092919082900301818387803b1580156110f257600080fd5b6001546001600160a01b031681565b60015433600090815260036020908152604080832054600654825163b930926b60e01b81526004810192909252602482015290516001600160a01b0390941693849363b930926b93604480850194919392918390030190829087803b15801561168857600080fd5b505af115801561169c573d6000803e3d6000fd5b505050506040513d60208110156116b257600080fd5b50516116f3576040805162461bcd60e51b815260206004820152601d6024820152600080516020613abd833981519152604482015290519081900360640190fd5b7f00000000000000000000000000000000000000000000000000000000000000006001600160a01b0316826001600160a01b031614156117985760007f00000000000000000000000000000000000000000000000000000000000000009050806001600160a01b0316639f19904c856040518263ffffffff1660e01b815260040180828152602001915050600060405180830381600087803b158015610c4557600080fd5b600254604080516314f1d87f60e01b81526001600160a01b0385811660048301529151919092169160009183916314f1d87f91602480830192602092919082900301818787803b1580156117eb57600080fd5b505af11580156117ff573d6000803e3d6000fd5b505050506040513d602081101561181557600080fd5b5051604080516327c6641360e21b81526004810188905290519192506001600160a01b03831691639f19904c9160248082019260009290919082900301818387803b158015610d2e57600080fd5b6001543360009081526003602090815260408083205460065482516313c36b2f60e11b81526004810192909252602482015290516001600160a01b03909416938493632786d65e93604480850194919392918390030190829087803b1580156118cb57600080fd5b505af11580156118df573d6000803e3d6000fd5b505050506040513d60208110156118f557600080fd5b5051611936576040805162461bcd60e51b815260206004820152601d6024820152600080516020613abd833981519152604482015290519081900360640190fd5b60408051636a92cf8b60e01b81526001600160a01b03848116600483015291517f000000000000000000000000000000000000000000000000000000000000000092831691636a92cf8b91602480830192600092919082900301818387803b1580156110f257600080fd5b6002546001600160a01b031681565b6001600160a01b0381166000908152600a60205260408120546009546119db9163ffffffff61375116565b92915050565b6001600160a01b038116611a3c576040805162461bcd60e51b815260206004820152601960248201527f6d6179206e6f7420656e646f7273652030206164647265737300000000000000604482015290519081900360640190fd5b336000908152600460205260409020546001600160a01b031680611a845733600090815260056020526040902054600654611a7c9163ffffffff61379316565b600655611ad5565b336000908152600560209081526040808320546001600160a01b0385168452600390925290912054611abb9163ffffffff61375116565b6001600160a01b0382166000908152600360205260409020555b336000908152600560209081526040808320546001600160a01b0386168452600390925290912054611b0c9163ffffffff61379316565b6001600160a01b03909216600081815260036020908152604080832095909555338252600490529290922080546001600160a01b03191690921790915550565b6001543360009081526003602090815260408083205460065482516313c36b2f60e11b81526004810192909252602482015290516001600160a01b03909416938493632786d65e93604480850194919392918390030190829087803b158015611bb457600080fd5b505af1158015611bc8573d6000803e3d6000fd5b505050506040513d6020811015611bde57600080fd5b5051611c1f576040805162461bcd60e51b815260206004820152601d6024820152600080516020613abd833981519152604482015290519081900360640190fd5b50600080546001600160a01b0319166001600160a01b0392909216919091179055565b6000546001600160a01b031681565b60015433600090815260036020908152604080832054600654825163b930926b60e01b81526004810192909252602482015290516001600160a01b0390941693849363b930926b93604480850194919392918390030190829087803b158015611cb957600080fd5b505af1158015611ccd573d6000803e3d6000fd5b505050506040513d6020811015611ce357600080fd5b5051611d24576040805162461bcd60e51b815260206004820152601d6024820152600080516020613abd833981519152604482015290519081900360640190fd5b60408051637a5370f160e11b81526001600160a01b03848116600483015291517f00000000000000000000000000000000000000000000000000000000000000009283169163f4a6e1e291602480830192600092919082900301818387803b1580156110f257600080fd5b6001543360009081526003602090815260408083205460065482516335561a3160e11b81526004810192909252602482015290516001600160a01b03909416938493636aac346293604480850194919392918390030190829087803b158015611df757600080fd5b505af1158015611e0b573d6000803e3d6000fd5b505050506040513d6020811015611e2157600080fd5b5051611e62576040805162461bcd60e51b815260206004820152601d6024820152600080516020613abd833981519152604482015290519081900360640190fd5b7f00000000000000000000000000000000000000000000000000000000000000006001600160a01b0316826001600160a01b03161415611f075760007f00000000000000000000000000000000000000000000000000000000000000009050806001600160a01b0316635009a613856040518263ffffffff1660e01b815260040180828152602001915050600060405180830381600087803b158015610c4557600080fd5b600254604080516314f1d87f60e01b81526001600160a01b0385811660048301529151919092169160009183916314f1d87f91602480830192602092919082900301818787803b158015611f5a57600080fd5b505af1158015611f6e573d6000803e3d6000fd5b505050506040513d6020811015611f8457600080fd5b505160408051635009a61360e01b81526004810188905290519192506001600160a01b03831691635009a6139160248082019260009290919082900301818387803b158015610d2e57600080fd5b60015433600090815260036020908152604080832054600654825163b930926b60e01b81526004810192909252602482015290516001600160a01b0390941693849363b930926b93604480850194919392918390030190829087803b15801561203a57600080fd5b505af115801561204e573d6000803e3d6000fd5b505050506040513d602081101561206457600080fd5b50516120a5576040805162461bcd60e51b815260206004820152601d6024820152600080516020613abd833981519152604482015290519081900360640190fd5b6040805163bc08621560e01b81526001600160a01b038581166004830152848116602483015291517f00000000000000000000000000000000000000000000000000000000000000009283169163bc08621591604480830192600092919082900301818387803b158015610f9d57600080fd5b60056020526000908152604090205481565b6001543360009081526003602090815260408083205460065482516313c36b2f60e11b81526004810192909252602482015290516001600160a01b03909416938493632786d65e93604480850194919392918390030190829087803b15801561219257600080fd5b505af11580156121a6573d6000803e3d6000fd5b505050506040513d60208110156121bc57600080fd5b50516121fd576040805162461bcd60e51b815260206004820152601d6024820152600080516020613abd833981519152604482015290519081900360640190fd5b60007f00000000000000000000000000000000000000000000000000000000000000009050806001600160a01b031663173a9b44846040518263ffffffff1660e01b815260040180828152602001915050600060405180830381600087803b1580156110f257600080fd5b600154336000908152600360209081526040808320546006548251630c1d2c4760e31b81526004810192909252602482015290516001600160a01b039094169384936360e9623893604480850194919392918390030190829087803b1580156122d057600080fd5b505af11580156122e4573d6000803e3d6000fd5b505050506040513d60208110156122fa57600080fd5b505161233b576040805162461bcd60e51b815260206004820152601d6024820152600080516020613abd833981519152604482015290519081900360640190fd5b7f00000000000000000000000000000000000000000000000000000000000000006001600160a01b0316826001600160a01b031614156123e05760007f00000000000000000000000000000000000000000000000000000000000000009050806001600160a01b03166337637f45856040518263ffffffff1660e01b815260040180828152602001915050600060405180830381600087803b158015610c4557600080fd5b600254604080516314f1d87f60e01b81526001600160a01b0385811660048301529151919092169160009183916314f1d87f91602480830192602092919082900301818787803b15801561243357600080fd5b505af1158015612447573d6000803e3d6000fd5b505050506040513d602081101561245d57600080fd5b50516040805163c97d4b2b60e01b81526004810188905290519192506001600160a01b0383169163c97d4b2b9160248082019260009290919082900301818387803b158015610d2e57600080fd5b60015433600090815260036020908152604080832054600654825163b930926b60e01b81526004810192909252602482015290516001600160a01b0390941693849363b930926b93604480850194919392918390030190829087803b15801561251357600080fd5b505af1158015612527573d6000803e3d6000fd5b505050506040513d602081101561253d57600080fd5b505161257e576040805162461bcd60e51b815260206004820152601d6024820152600080516020613abd833981519152604482015290519081900360640190fd5b60408051639b1559c360e01b8152831515600482015290517f0000000000000000000000000000000000000000000000000000000000000000916001600160a01b03831691639b1559c39160248082019260009290919082900301818387803b1580156110f257600080fd5b60075481565b7f000000000000000000000000000000000000000000000000000000000000000081565b6000811161265a576040805162461bcd60e51b815260206004820152600e60248201526d1a5b9d985b1a5908185b5bdd5b9d60921b604482015290519081900360640190fd5b600054604080516370a0823160e01b815233600482015290516001600160a01b0390921691839183916370a0823191602480820192602092909190829003018186803b1580156126a957600080fd5b505afa1580156126bd573d6000803e3d6000fd5b505050506040513d60208110156126d357600080fd5b50511015612728576040805162461bcd60e51b815260206004820152601860248201527f696e737566666963656e742062696f702062616c616e63650000000000000000604482015290519081900360640190fd5b604080516323b872dd60e01b81523360048201523060248201526044810184905290516001600160a01b038316916323b872dd9160648083019260209291908290030181600087803b15801561277d57600080fd5b505af1158015612791573d6000803e3d6000fd5b505050506040513d60208110156127a757600080fd5b50516127eb576040805162461bcd60e51b815260206004820152600e60248201526d1cdd185ada5b99c819985a5b195960921b604482015290519081900360640190fd5b3360009081526005602052604081205461281757600954336000908152600a6020526040902055612839565b50336000908152600460205260409020546001600160a01b03166128396130d2565b33600090815260056020526040902054612859908463ffffffff61379316565b33600090815260056020908152604080832093909355600854600b90915291902054101561288957612889612c92565b336000908152600b602052604090204290556001600160a01b038116156128b3576128b3816119e1565b7fc9ec05ea5037818736839e1365dc3d9a74a735c447af0697da66633b7a9d0fab836128dd610a4e565b6040805192835260208301919091528051918290030190a1505050565b6001543360009081526003602090815260408083205460065482516335561a3160e11b81526004810192909252602482015290516001600160a01b03909416938493636aac346293604480850194919392918390030190829087803b15801561296257600080fd5b505af1158015612976573d6000803e3d6000fd5b505050506040513d602081101561298c57600080fd5b50516129cd576040805162461bcd60e51b815260206004820152601d6024820152600080516020613abd833981519152604482015290519081900360640190fd5b7f00000000000000000000000000000000000000000000000000000000000000006001600160a01b0316826001600160a01b03161415612a7257604080516307e665df60e01b81526001600160a01b03858116600483015291517f0000000000000000000000000000000000000000000000000000000000000000928316916307e665df91602480830192600092919082900301818387803b158015610c4557600080fd5b600254604080516314f1d87f60e01b81526001600160a01b0385811660048301529151919092169160009183916314f1d87f91602480830192602092919082900301818787803b158015612ac557600080fd5b505af1158015612ad9573d6000803e3d6000fd5b505050506040513d6020811015612aef57600080fd5b5051604080516307e665df60e01b81526001600160a01b0388811660048301529151929350908316916307e665df9160248082019260009290919082900301818387803b158015610d2e57600080fd5b60015433600090815260036020908152604080832054600654825163b930926b60e01b81526004810192909252602482015290516001600160a01b0390941693849363b930926b93604480850194919392918390030190829087803b158015612ba757600080fd5b505af1158015612bbb573d6000803e3d6000fd5b505050506040513d6020811015612bd157600080fd5b5051612c12576040805162461bcd60e51b815260206004820152601d6024820152600080516020613abd833981519152604482015290519081900360640190fd5b60408051632418420160e11b81526001600160a01b03868116600483015260248201869052848116604483015291517f000000000000000000000000000000000000000000000000000000000000000092831691634830840291606480830192600092919082900301818387803b158015610d2e57600080fd5b60085481565b600954336000908152600a60205260409020541115612ce25760405162461bcd60e51b8152600401808060200182810382526031815260200180613a056031913960400191505060405180910390fd5b600854336000908152600b60205260409020541115612d325760405162461bcd60e51b815260040180806020018281038252602c815260200180613a91602c913960400191505060405180910390fd5b6000612d3d3361110f565b600954336000818152600a6020526040902091909155909150612d6090826137ed565b50565b6001543360009081526003602090815260408083205460065482516335561a3160e11b81526004810192909252602482015290516001600160a01b03909416938493636aac346293604480850194919392918390030190829087803b158015612dcb57600080fd5b505af1158015612ddf573d6000803e3d6000fd5b505050506040513d6020811015612df557600080fd5b5051612e36576040805162461bcd60e51b815260206004820152601d6024820152600080516020613abd833981519152604482015290519081900360640190fd5b7f00000000000000000000000000000000000000000000000000000000000000006001600160a01b0316826001600160a01b03161415612edb5760007f00000000000000000000000000000000000000000000000000000000000000009050806001600160a01b0316634256dd78856040518263ffffffff1660e01b815260040180828152602001915050600060405180830381600087803b158015610c4557600080fd5b600254604080516314f1d87f60e01b81526001600160a01b0385811660048301529151919092169160009183916314f1d87f91602480830192602092919082900301818787803b158015612f2e57600080fd5b505af1158015612f42573d6000803e3d6000fd5b505050506040513d6020811015612f5857600080fd5b50516040805163084adbaf60e31b81526004810188905290519192506001600160a01b03831691634256dd789160248082019260009290919082900301818387803b158015610d2e57600080fd5b7f000000000000000000000000000000000000000000000000000000000000000081565b60036020526000908152604090205481565b6001543360009081526003602090815260408083205460065482516313c36b2f60e11b81526004810192909252602482015290516001600160a01b03909416938493632786d65e93604480850194919392918390030190829087803b15801561304457600080fd5b505af1158015613058573d6000803e3d6000fd5b505050506040513d602081101561306e57600080fd5b50516130af576040805162461bcd60e51b815260206004820152601d6024820152600080516020613abd833981519152604482015290519081900360640190fd5b50600280546001600160a01b0319166001600160a01b0392909216919091179055565b3360009081526004602090815260408083205460058352818420546001600160a01b039091168085526003909352922054909161310f9190613751565b6001600160a01b0382166000908152600360209081526040808320939093553382526004815282822080546001600160a01b031916905560059052205460065461315e9163ffffffff61375116565b60065550565b60015433600090815260036020908152604080832054600654825163b930926b60e01b81526004810192909252602482015290516001600160a01b0390941693849363b930926b93604480850194919392918390030190829087803b1580156131cc57600080fd5b505af11580156131e0573d6000803e3d6000fd5b505050506040513d60208110156131f657600080fd5b5051613237576040805162461bcd60e51b815260206004820152601d6024820152600080516020613abd833981519152604482015290519081900360640190fd5b60408051632c9a19dd60e21b8152600481018590526001600160a01b03848116602483015291517f0000000000000000000000000000000000000000000000000000000000000000926000929084169163b26867749160448082019260209290919082900301818787803b1580156132ae57600080fd5b505af11580156132c2573d6000803e3d6000fd5b505050506040513d60208110156132d857600080fd5b50516009549091506132f0908263ffffffff61379316565b6009555050505050565b600254604080516314f1d87f60e01b81526001600160a01b0384811660048301529151919092169160009183916314f1d87f91602480830192602092919082900301818787803b15801561334d57600080fd5b505af1158015613361573d6000803e3d6000fd5b505050506040513d602081101561337757600080fd5b505190506001600160a01b038116156133c15760405162461bcd60e51b81526004018080602001828103825260368152602001806139cf6036913960400191505060405180910390fd5b604080516306dd520960e51b81526001600160a01b0385811660048301527f0000000000000000000000000000000000000000000000000000000000000000811660248301527f00000000000000000000000000000000000000000000000000000000000000008116604483015291519184169163dbaa41209160648082019260009290919082900301818387803b1580156110f257600080fd5b600254604080516314f1d87f60e01b81526001600160a01b0384811660048301529151919092169182916314f1d87f916024808201926020929091908290030181600087803b1580156134ae57600080fd5b505af11580156134c2573d6000803e3d6000fd5b505050506040513d60208110156134d857600080fd5b50516001600160a01b031661351e5760405162461bcd60e51b81526004018080602001828103825260368152602001806139cf6036913960400191505060405180910390fd5b806001600160a01b0316633b7d0946836040518263ffffffff1660e01b815260040180826001600160a01b03166001600160a01b03168152602001915050600060405180830381600087803b15801561357657600080fd5b505af115801561358a573d6000803e3d6000fd5b505050505050565b6001543360009081526003602090815260408083205460065482516335561a3160e11b81526004810192909252602482015290516001600160a01b03909416938493636aac346293604480850194919392918390030190829087803b1580156135fa57600080fd5b505af115801561360e573d6000803e3d6000fd5b505050506040513d602081101561362457600080fd5b5051613665576040805162461bcd60e51b815260206004820152601d6024820152600080516020613abd833981519152604482015290519081900360640190fd5b60408051633d18c43360e11b81526001600160a01b03848116600483015291518592831691637a31886691602480830192600092919082900301818387803b158015610f9d57600080fd5b60065481565b6000826136c5575060006119db565b828202828482816136d257fe5b041461115b5760405162461bcd60e51b8152600401808060200182810382526021815260200180613a706021913960400191505060405180910390fd5b600061115b83836040518060400160405280601a81526020017f536166654d6174683a206469766973696f6e206279207a65726f0000000000008152506138d2565b600061115b83836040518060400160405280601e81526020017f536166654d6174683a207375627472616374696f6e206f766572666c6f770000815250613974565b60008282018381101561115b576040805162461bcd60e51b815260206004820152601b60248201527f536166654d6174683a206164646974696f6e206f766572666c6f770000000000604482015290519081900360640190fd5b80471015613842576040805162461bcd60e51b815260206004820152601d60248201527f416464726573733a20696e73756666696369656e742062616c616e6365000000604482015290519081900360640190fd5b6040516000906001600160a01b0384169083908381818185875af1925050503d806000811461388d576040519150601f19603f3d011682016040523d82523d6000602084013e613892565b606091505b5050905080610d495760405162461bcd60e51b815260040180806020018281038252603a815260200180613a36603a913960400191505060405180910390fd5b6000818361395e5760405162461bcd60e51b81526004018080602001828103825283818151815260200191508051906020019080838360005b8381101561392357818101518382015260200161390b565b50505050905090810190601f1680156139505780820380516001836020036101000a031916815260200191505b509250505060405180910390fd5b50600083858161396a57fe5b0495945050505050565b600081848411156139c65760405162461bcd60e51b815260206004820181815283516024840152835190928392604490910191908501908083836000831561392357818101518382015260200161390b565b50505090039056fe706f6f6c20666f72207468697320746f6b656e20616c7265616479206578697374732c207265706c61636520697420696e73746561646e6f207265776172647320617661696c61626c652c20616c726561647920636c61696d656420616c6c2070656e64696e67416464726573733a20756e61626c6520746f2073656e642076616c75652c20726563697069656e74206d61792068617665207265766572746564536166654d6174683a206d756c7469706c69636174696f6e206f766572666c6f776e6f207265776172647320617661696c61626c652c206e6f74207374616b6564206c6f6e6720656e6f756768696e737566666963656e7420656e646f7273656d656e7420706f776572000000a26469706673582212201f34f6fd8c6d9fbee16d81f1aeacf278edc291093dfb58ab4ccc2d7f33607c0e64736f6c63430006060033",
  "immutableReferences": {
    "1242": [
      {
        "length": 32,
        "start": 2978
      },
      {
        "length": 32,
        "start": 3038
      },
      {
        "length": 32,
        "start": 3619
      },
      {
        "length": 32,
        "start": 3679
      },
      {
        "length": 32,
        "start": 5000
      },
      {
        "length": 32,
        "start": 5877
      },
      {
        "length": 32,
        "start": 5937
      },
      {
        "length": 32,
        "start": 6488
      },
      {
        "length": 32,
        "start": 7780
      },
      {
        "length": 32,
        "start": 7840
      },
      {
        "length": 32,
        "start": 9021
      },
      {
        "length": 32,
        "start": 9081
      },
      {
        "length": 32,
        "start": 9624
      },
      {
        "length": 32,
        "start": 10703
      },
      {
        "length": 32,
        "start": 10793
      },
      {
        "length": 32,
        "start": 11832
      },
      {
        "length": 32,
        "start": 11892
      }
    ],
    "1244": [
      {
        "length": 32,
        "start": 7494
      },
      {
        "length": 32,
        "start": 8399
      },
      {
        "length": 32,
        "start": 9714
      },
      {
        "length": 32,
        "start": 13321
      }
    ],
    "1252": [
      {
        "length": 32,
        "start": 5576
      },
      {
        "length": 32,
        "start": 8705
      },
      {
        "length": 32,
        "start": 11331
      },
      {
        "length": 32,
        "start": 12200
      },
      {
        "length": 32,
        "start": 12896
      },
      {
        "length": 32,
        "start": 13281
      }
    ]
  },
  "source": "pragma solidity 0.6.6;\n\nimport \"@openzeppelin/contracts/math/SafeMath.sol\";\nimport \"@openzeppelin/contracts/token/ERC20/ERC20.sol\";\nimport \"@openzeppelin/contracts/utils/Address.sol\";\n\nimport \"./NativeAssetDenominatedBinaryOptions.sol\";\nimport \"./APP.sol\";\nimport \"./UtilizationRewards.sol\";\nimport \"./Treasury.sol\";\nimport \"./TokenDenominatedBinaryOptions/TokenDenominatedBinaryOptionsFactory.sol\";\nimport \"./interfaces/IAccessTiers.sol\";\n\n\n\n\n/**\n * @title DAO\n * @author github.com/Shalquiana\n * @dev governance for endorsing biopset protocol changes\n * @notice governance for endorsing biopset protocol changes\n * BIOP\n */\ncontract DAO {\n    using SafeMath for uint256;\n    address public immutable pA;//protocol address\n    address public immutable appA;//approved price providers address\n    address public tA;//token address\n    address public aTA;//access tiers address\n    address public fcry;//TokenDenominatedBinaryOptions factory address\n    address payable public immutable trsy;//treasury\n\n    mapping(address=>uint256) public votes;//amount of endorsement power currently directed at a address\n    mapping(address=>address payable) public rep;//representative/delegate/governer/endorsement currently backed by given address\n    mapping(address=>uint256) public staked;//amount of BIOP they have staked\n    uint256 public dBIOP;//the total amount of staked BIOP which has been endorsed for governance\n    uint256 public totalStakedAtLastPayment;\n    uint256 public lastPaymentReceived;\n\n    //ETH rewards for stakers\n    uint256 public trg;//total rewards generated\n    mapping(address=>uint256) public lrc;//last rewards claimed at trg point for this address\n    mapping(address=>uint256) public lST;//last stake time\n\n\n    constructor(address bo_, address v4_, address accessTiers_, address app_, address factory_, address payable trsy_) public {\n      pA = bo_;\n      tA = v4_;\n      aTA = accessTiers_;\n      appA = app_;\n      fcry = factory_;\n      trsy = trsy_;\n    }\n\n\n    event Stake(uint256 amount, uint256 total);\n    event Withdraw(uint256 amount, uint256 total);\n\n    function totalStaked() public view returns (uint256) {\n        ERC20 token = ERC20(tA);\n        return token.balanceOf(address(this));\n    }\n\n    /**\n     * @notice stake your BIOP and begin earning rewards\n     * @param amount the amount in BIOP you want to stake\n     */\n    function stake(uint256 amount) public {\n        require(amount > 0, \"invalid amount\");\n        ERC20 token = ERC20(tA);\n        require(token.balanceOf(msg.sender) >= amount, \"insufficent biop balance\");\n        require(token.transferFrom(msg.sender, address(this), amount), \"staking failed\");\n        \n        address payable delegate;\n        if (staked[msg.sender] == 0) {\n            //only for ETH\n            lrc[msg.sender] = trg;\n        } else {\n            //automatically unendorse and rendorse if depositing to an existing non-zero stake to prevent endorsement amounts from becoming out of sync\n            delegate = rep[msg.sender];\n            unendorse();\n        }\n        staked[msg.sender] = staked[msg.sender].add(amount);\n\n        //claim pending rewards automatically if applicable before updating lST\n        if (lST[msg.sender] < lastPaymentReceived) {\n            claimETHRewards();\n        }\n        lST[msg.sender] = block.timestamp;\n\n        if (delegate != 0x0000000000000000000000000000000000000000) {\n            endorse(delegate);\n        }\n        emit Stake(amount, totalStaked());\n    }\n\n\n\n    /**\n     * @notice withdraw your BIOP and stop earning rewards. You must unendorse before you can withdraw\n     * @param amount the amount in BIOP you want to withdraw\n     */\n    function withdraw(uint256 amount) public {\n        require(staked[msg.sender] >= amount, \"invalid amount\");\n        ERC20 token = ERC20(tA);\n        require(rep[msg.sender] ==  0x0000000000000000000000000000000000000000);\n        require(token.transfer(msg.sender, amount), \"staking failed\");\n        staked[msg.sender] = staked[msg.sender].sub(amount);\n\n        uint256 totalBalance = token.balanceOf(address(this));\n        emit Withdraw(amount, totalBalance);\n    }\n\n     /**\n     * @notice endorses your voting power to a specific address(sha)\n     * @param newSha the address to endorse\n     */\n    function endorse(address payable newSha) public {\n        require(newSha != 0x0000000000000000000000000000000000000000, \"may not endorse 0 address\");\n        address oldSha = rep[msg.sender];\n        if (oldSha == 0x0000000000000000000000000000000000000000) {\n            dBIOP = dBIOP.add(staked[msg.sender]);\n        } else {\n            votes[oldSha] = votes[oldSha].sub(staked[msg.sender]);\n        }\n        votes[newSha] = votes[newSha].add(staked[msg.sender]);\n        rep[msg.sender] = newSha;\n    }\n\n     /**\n     * @notice unendorse your voting power. you will still earn staking rewards\n     * but your voting power won't back anyone.\n     */\n    function unendorse() public {\n        address oldSha = rep[msg.sender];\n        votes[oldSha] = votes[oldSha].sub(staked[msg.sender]);\n        rep[msg.sender] =  0x0000000000000000000000000000000000000000;\n        dBIOP = dBIOP.sub(staked[msg.sender]);\n    }\n\n    /**\n    * @notice base ETH rewards since last claim\n    * @param acc the account to get the answer for\n    */\n    function bRSLC(address acc) public view returns (uint256) {\n        return trg.sub(lrc[acc]);\n    }\n\n    function pendingETHRewards(address account) public view returns (uint256) {\n        uint256 base = bRSLC(account);\n        return base.mul(staked[account]).div(totalStakedAtLastPayment);\n    }\n\n\n    function claimETHRewards() public {\n        require(lrc[msg.sender] <= trg, \"no rewards available, already claimed all pending\");\n        require(lST[msg.sender] <= lastPaymentReceived, \"no rewards available, not staked long enough\");\n\n        uint256 toSend = pendingETHRewards(msg.sender);\n        lrc[msg.sender] = trg;\n        Address.sendValue(msg.sender, toSend);\n    }\n\n\n\n    /**\n     * @notice modifier for actions requiring tier 1 endorsement\n     */\n    modifier tierOneDelegation() {\n        IAccessTiers tiers = IAccessTiers(aTA);\n        require(tiers.tier1(votes[msg.sender], dBIOP), \"insufficent endorsement power\");\n        _;\n    }\n\n    /**\n     * @notice modifier for actions requiring a tier 2 endorsement\n     */\n    modifier tierTwoDelegation() {\n        IAccessTiers tiers = IAccessTiers(aTA);\n        require(tiers.tier2(votes[msg.sender], dBIOP), \"insufficent endorsement power\");\n        _;\n    }\n\n    /**\n     * @notice modifier for actions requiring a tier 3 endorsement\n     */\n    modifier tierThreeDelegation() {\n        IAccessTiers tiers = IAccessTiers(aTA);\n        require(tiers.tier3(votes[msg.sender], dBIOP), \"insufficent endorsement power\");\n        _;\n    }\n\n    /**\n     * @notice modifier for actions requiring a tier 4 endorsement\n     */\n    modifier tierFourDelegation() {\n        IAccessTiers tiers = IAccessTiers(aTA);\n        require(tiers.tier4(votes[msg.sender], dBIOP), \"insufficent endorsement power\");\n        _;\n    }\n\n\n\n\n\n    //this function has to be present or transfers to the DAO fail silently\n    fallback () external payable {\n        totalStakedAtLastPayment = totalStaked();\n        lastPaymentReceived = block.timestamp;\n    }\n\n     /**\n     * @notice create a new TokenDenominatedBinaryOptions pool\n     * @param token_ the erc20 address to underwrite the new pool\n     */\n    function createTokenDenominatedBinaryOptions(address token_) public {\n        TokenDenominatedBinaryOptionsFactory factory = TokenDenominatedBinaryOptionsFactory(fcry);\n        address tAddress = factory.getTokenDenominatedBinaryOptionsAddress(token_);\n        require(tAddress == 0x0000000000000000000000000000000000000000, \"pool for this token already exists, replace it instead\");\n        factory.createTokenDenominatedBinaryOptions(token_, trsy, appA);\n    }\n\n\n\n\n\n\n\n    /*\n\n\n\n                                                              .-=\n                      =                               :-=+#%@@@@@\n               @+@+* -*   -==: ==-+.           -=+#%@@@@@@@@@@@@@\n                :%    %. -%-=* :%              %@@@@@@@@@@@@@@@@@\n               .=== .===: -==: ===.            %@@@@%*+=--@@@@@@@\n                                               --.       .@@@@@@@\n                                                         .@@@@@@@\n                                                         .@@@@@@@\n                                                         .@@@@@@@\n                                                         .@@@@@@@\n                                                         .@@@@@@@\n                                                         .@@@@@@@\n                      .:    :.                           .@@@@@@@\n                     -@@#  #@@=                          .@@@@@@@\n                     +@@#  %@@=                          .@@@@@@@\n                     *@@*  @@@-                          .@@@@@@@\n                     #@@+ .@@@:                          .@@@@@@@\n                 .---@@@*-+@@@=--                        .@@@@@@@\n                 +@@@@@@@@@@@@@@@.                       .@@@@@@@\n                    .@@@: =@@@                           .@@@@@@@\n                    :@@@. +@@#                           .@@@@@@@\n                 -*##@@@##%@@@##*                        .@@@@@@@\n                 -##%@@@##@@@%##*                        .@@@@@@@\n                    +@@#  #@@=                           .@@@@@@@\n                    *@@*  @@@:                           .@@@@@@@\n                    *@@+  @@@.                 +**********@@@@@@@**********=\n                    #@@= .@@@                  %@@@@@@@@@@@@@@@@@@@@@@@@@@@%\n                    .--   :=:                  %@@@@@@@@@@@@@@@@@@@@@@@@@@@%\n\n\n\n\n\n\n     */\n\n\n    /**\n     * @notice update the maximum time an option can be created for\n     * @param nMT_ the time (in seconds) of maximum possible binary option\n     * @param addy_ the address of the pool to update or the token used for the TokenDenominatedBinaryOptions pool (pass pA to use the default ETH pool)\n     */\n    function uMXOT(uint256 nMT_, address addy_) external tierOneDelegation {\n        if (addy_ == pA) {\n            INativeAssetDenominatedBinaryOptions pr = INativeAssetDenominatedBinaryOptions(pA);\n            pr.setMaxT(nMT_);\n        } else {\n            TokenDenominatedBinaryOptionsFactory factory = TokenDenominatedBinaryOptionsFactory(fcry);\n            TokenDenominatedBinaryOptions pr = TokenDenominatedBinaryOptions(factory.getTokenDenominatedBinaryOptionsAddress(addy_));\n            pr.updateMaxT(nMT_);\n        }\n    }\n\n    /**\n     * @notice update the minimum time an option can be created for\n     * @param nMT_ the time (in seconds) of minimum possible binary option\n     * @param addy_ the address of the pool to update or the token used for the TokenDenominatedBinaryOptions pool (pass pA to use the default ETH pool)\n     */\n    function uMNOT(uint256 nMT_, address addy_) external tierOneDelegation {\n        if (addy_ == pA) {\n            INativeAssetDenominatedBinaryOptions pr = INativeAssetDenominatedBinaryOptions(pA);\n            pr.setMinT(nMT_);\n        } else {\n            TokenDenominatedBinaryOptionsFactory factory = TokenDenominatedBinaryOptionsFactory(fcry);\n            TokenDenominatedBinaryOptions pr = TokenDenominatedBinaryOptions(factory.getTokenDenominatedBinaryOptionsAddress(addy_));\n            pr.updateMinT(nMT_);\n        }\n    }\n\n    /*\n\n\n                                                    .:-+*##%@@@@@@%#*+=:\n              :::::   *                        .=+#@@@@@@@@@@@@@@@@@@@@@@%+:\n              @-@=#: =*.  .+=+- :*=+*:        -@@@@@@@@@@@@@@@@@@@@@@@@@@@@@%=\n               .@:    %:  #*--#. **           -@@@@@@@%#+=-::::::-=*@@@@@@@@@@%-\n              :+**- :+*++ .++++ -**+          -@@@#=:                :*@@@@@@@@@=\n                                              .=.                      :%@@@@@@@@=\n                                                                        .@@@@@@@@@.\n                                                                         +@@@@@@@@=\n                                                                         :@@@@@@@@+\n                                                                         -@@@@@@@@=\n                                                                         #@@@@@@@@:\n                                                                        -@@@@@@@@#\n                                                                       :@@@@@@@@%\n                                                                      -@@@@@@@@%.\n                      *#*   -##-                                    .*@@@@@@@@*\n                     =@@@-  @@@%                                   =@@@@@@@@#:\n                     +@@@: .@@@#                                 =%@@@@@@@%-\n                     *@@@. :@@@*                              .+@@@@@@@@#-\n                     #@@@  -@@@=                            .*@@@@@@@@*.\n                  ...%@@@..=@@@=..                        :#@@@@@@@%=.\n                :@@@@@@@@@@@@@@@@@@                     -%@@@@@@@%-\n                 +++*@@@%++%@@@*++=                   :#@@@@@@@#:\n                    :@@@+  #@@@                     :#@@@@@@@#:\n                    -@@@=  %@@@                    +@@@@@@@%-\n                .#%%@@@@@%%@@@@%%%*              -@@@@@@@@*\n                .#%%@@@@%%%@@@@%%%*             *@@@@@@@@=\n                    #@@@  .@@@*               .%@@@@@@@@-\n                    %@@@  :@@@+              .%@@@@@@@@*\n                    @@@%  -@@@=              @@@@@@@@@@#**************************.\n                    @@@#  =@@@-              @@@@@@@@@@@@@@@@@@@@@@@@@@@@@@@@@@@@@:\n                    @@@+  =@@@.              @@@@@@@@@@@@@@@@@@@@@@@@@@@@@@@@@@@@@:\n                     :.    .:.               @@@@@@@@@@@@@@@@@@@@@@@@@@@@@@@@@@@@@:\n\n\n\n\n\n     */\n\n    /**\n     * @notice update fee paid to settlers\n     * @param newFee_ the new fee\n     * @param addy_ the address of the pool to update or the token used for the TokenDenominatedBinaryOptions pool (pass pA to use the default ETH pool)\n     */\n    function updateSettlerFee(uint256 newFee_, address addy_) external tierTwoDelegation {\n        if (addy_ == pA) {\n            INativeAssetDenominatedBinaryOptions pr = INativeAssetDenominatedBinaryOptions(pA);\n            pr.updateSettlerFee(newFee_);\n        } else {\n            TokenDenominatedBinaryOptionsFactory factory = TokenDenominatedBinaryOptionsFactory(fcry);\n            TokenDenominatedBinaryOptions pr = TokenDenominatedBinaryOptions(factory.getTokenDenominatedBinaryOptionsAddress(addy_));\n            pr.updateSettlerFee(newFee_);\n        }\n    }\n\n    /**\n     * @notice remove a trading pair\n     * @param oldPP_ the address of trading pair to be removed\n     */\n    function removeTradingPair(address oldPP_) external tierTwoDelegation {\n        APP app = APP(appA);\n        app.removePP(oldPP_);\n    }\n\n    /**\n     * @notice add (or update the RateCalc of existing) trading pair\n     * @param newPP_ the address of trading pair to be added\n     * @param newRateCalc_ the address of the rate calc to be used for this pair\n     */\n    function addUpdateTradingPair(address newPP_, address newRateCalc_) external tierTwoDelegation {\n        APP app = APP(appA);\n        app.addPP(newPP_, newRateCalc_);\n    }\n\n\n\n    /**\n     * @notice enable or disable BIOP rewards, only for the main ETH pool\n     * @param nx_ the new boolean value of rewardsEnabled\n     */\n    function enableRewards(bool nx_) external tierTwoDelegation {\n        INativeAssetDenominatedBinaryOptions pr = INativeAssetDenominatedBinaryOptions(pA);\n        pr.enableRewards(nx_);\n    }\n\n      /**\n     * @notice distribute treasury ETH funds to some destination\n     * @param amount the new amount to send from the treasury, in wei\n     * @param destination where the ETH should be sent\n     */\n    function sendTreasuryFunds(uint256 amount, address payable destination) external tierTwoDelegation {\n        Treasury ty = Treasury(trsy);\n        uint256 toAdd = ty.sendFunds(amount, destination);\n        trg = trg.add(toAdd);\n    }\n\n    /**\n     * @notice distribute treasury ERC20 funds to some destination\n     * @param token the ERC20 address to transfer tokens of\n     * @param amount the new amount to send from the treasury, in wei equivalent\n     * @param destination where the tokens should be sent\n     */\n    function sendTreasuryERC20Funds(address token, uint256 amount, address payable destination) external tierTwoDelegation {\n        Treasury ty = Treasury(trsy);\n        ty.sendERC20Funds(token, amount, destination);\n    }\n\n    /*\n\n\n                                                        .:::::::::.\n                                               .-=*#%@@@@@@@@@@@@@@@@@#*=:\n          -+++++   #.                         %@@@@@@@@@@@@@@@@@@@@@@@@@@@@#=\n          +:+%.%  +%-  .*++*: =%++#:          %@@@@@@@@@@@@@@@@@@@@@@@@@@@@@@@+\n            +%     %-  +@==+=  @-             %@@@@#*=-:..      .:-+%@@@@@@@@@@%.\n           ++++. -++++  -+++. ++++            *+-.                   .+@@@@@@@@@%\n                                                                       :@@@@@@@@@-\n                                                                        +@@@@@@@@*\n                                                                        :@@@@@@@@*\n                                                                        :@@@@@@@@+\n                                                                        =@@@@@@@@:\n                                                                       .@@@@@@@@=\n                                                                      :%@@@@@@@=\n                                                                    .*@@@@@@@%:\n                                                                .:+#@@@@@@@#-\n                    .      .                       :======++*#%@@@@@@@@@*-\n                  -@@@-  =@@@:                     +@@@@@@@@@@@@@@@@%=.\n                  *@@@=  *@@@-                     +@@@@@@@@@@@@@@@@@@@#+-.\n                  #@@@-  #@@@:                     -++++++**#%%@@@@@@@@@@@@%+:\n                  %@@@.  %@@@.                                  .:=#@@@@@@@@@@%-\n                  @@@@   @@@@                                        :*@@@@@@@@@%.\n              :::-@@@@:::@@@@:::                                       .#@@@@@@@@@:\n             #@@@@@@@@@@@@@@@@@@#                                        #@@@@@@@@@.\n             :+++*@@@%++*@@@%+++:                                         @@@@@@@@@+\n                 -@@@*  =@@@+                                             *@@@@@@@@#\n                 =@@@+  +@@@=                                             +@@@@@@@@%\n             =###%@@@%##%@@@%###=                                         *@@@@@@@@#\n             *@@@@@@@@@@@@@@@@@@*                                        .@@@@@@@@@+\n                 #@@@:  %@@@.                                            %@@@@@@@@@.\n                 %@@@.  @@@@                                           .%@@@@@@@@@+\n                 @@@@  .@@@%                 +=:                     :*@@@@@@@@@@+\n                 @@@@  :@@@#                 %@@@@#+=-.          .-+%@@@@@@@@@@@-\n                .@@@%  -@@@*                 %@@@@@@@@@@@@%%%%%@@@@@@@@@@@@@@@=\n                 +%#-   *%#:                 %@@@@@@@@@@@@@@@@@@@@@@@@@@@@@*-\n                                             -+*#%@@@@@@@@@@@@@@@@@@@@%*=.\n                                                    ..:--=======--:.\n\n\n     */\n\n\n\n    /**\n     * @notice update soft lock time for the main pool.\n     * @param newLockSeconds_ the time (in seconds) of the soft pool lock\n     * @param addy_ the address of the pool to update or the token used for the TokenDenominatedBinaryOptions pool (pass pA to use the default ETH pool)\n     */\n    function updatePoolLockTime(uint256 newLockSeconds_, address addy_) external tierThreeDelegation {\n        if (addy_ == pA) {\n            INativeAssetDenominatedBinaryOptions pr = INativeAssetDenominatedBinaryOptions(pA);\n            pr.updatePoolLockSeconds(newLockSeconds_);\n        } else {\n            TokenDenominatedBinaryOptionsFactory factory = TokenDenominatedBinaryOptionsFactory(fcry);\n            TokenDenominatedBinaryOptions pr = TokenDenominatedBinaryOptions(factory.getTokenDenominatedBinaryOptionsAddress(addy_));\n            pr.updatePoolLockSeconds(newLockSeconds_);\n        }\n    }\n\n    /**\n     * @notice update the fee paid by trader when they make a trade\n     * @param newProtocolFee_ the time (in seconds) of the soft pool lock\n     * @param addy_ the address of the pool to update or the token used for the TokenDenominatedBinaryOptions pool (pass pA to use the default ETH pool)\n     */\n    function updateProtocolFee(uint256 newProtocolFee_, address addy_) external tierThreeDelegation {\n        if (addy_ == pA) {\n            NativeAssetDenominatedBinaryOptions pr = NativeAssetDenominatedBinaryOptions(pA);\n            pr.updateProtocolFee(newProtocolFee_);\n        } else {\n            TokenDenominatedBinaryOptionsFactory factory = TokenDenominatedBinaryOptionsFactory(fcry);\n            TokenDenominatedBinaryOptions pr = TokenDenominatedBinaryOptions(factory.getTokenDenominatedBinaryOptionsAddress(addy_));\n            pr.updateProtocolFee(newProtocolFee_);\n        }\n    }\n\n   /**\n     * @dev update APP\n     * @param newAPP_ the new approved price provider (and ratecalc contract to use). Must be a IAPP\n     * @param addy_ the address of the pool to update or the token used for the TokenDenominatedBinaryOptions pool (pass pA to use the default ETH pool)\n     */\n    function updateAPP(address newAPP_, address addy_) external tierThreeDelegation {\n\n        if (addy_ == pA) {\n            INativeAssetDenominatedBinaryOptions pr = INativeAssetDenominatedBinaryOptions(pA);\n            pr.updateAPP(newAPP_);\n        } else {\n            TokenDenominatedBinaryOptionsFactory factory = TokenDenominatedBinaryOptionsFactory(fcry);\n            TokenDenominatedBinaryOptions pr = TokenDenominatedBinaryOptions(factory.getTokenDenominatedBinaryOptionsAddress(addy_));\n            pr.updateAPP(newAPP_);\n        }\n    }\n\n    /**\n     * @dev update owner of Utilization rewards contract address\n     * @param uR_ the utilization rewards contract address\n     * @param addy_ the address of the new owner\n     */\n    function updateUROwner(address uR_, address payable addy_) external tierThreeDelegation {\n        UtilizationRewards ur = UtilizationRewards(uR_);\n       ur.transferDAO(addy_);\n    }\n\n\n    /**\n     * @notice deactivate a TokenDenominatedBinaryOptions pool\n     */\n    function deactivateTokenDenominatedBinaryOptions(address token_) public {\n        TokenDenominatedBinaryOptionsFactory factory =TokenDenominatedBinaryOptionsFactory(fcry);\n        require(factory.getTokenDenominatedBinaryOptionsAddress(token_) != 0x0000000000000000000000000000000000000000, \"pool for this token already exists, replace it instead\");\n        factory.removePool(token_);\n    }\n\n    /*\n\n\n\n\n\n                       -                                       +######:\n                %*@*+ =*   -=-  =:==                         .%@@@@@@@-\n                .:%    @  +#-+= ++ .                        =@@@@@@@@@-\n                .=== .===. -==:.==-                       .#@@@@@@@@@@-\n                                                         =@@@@@@%@@@@@-\n                                                        *@@@@@#.*@@@@@-\n                                                      -@@@@@@+  *@@@@@-\n                                                     *@@@@@#.   *@@@@@-\n                                                   -@@@@@@=     *@@@@@-\n                                                  *@@@@@%.      *@@@@@-\n                                                :%@@@@@+        *@@@@@-\n                       --   .-:                +@@@@@%:         *@@@@@-\n                      +@@*  @@@.             .%@@@@@+           *@@@@@-\n                      *@@+  @@@.            =@@@@@%:            *@@@@@-\n                      #@@= .@@@           .#@@@@@+              *@@@@@-\n                      %@@- -@@%          =@@@@@%-               *@@@@@-\n                  :***@@@#*#@@@**=      *@@@@@@#################@@@@@@%######-\n                  =#%%@@@%%@@@@%%+      %@@@@@@@@@@@@@@@@@@@@@@@@@@@@@@@@@@@@+\n                     .@@@  +@@+         %@@@@@@@@@@@@@@@@@@@@@@@@@@@@@@@@@@@@+\n                     -@@@  #@@=         .......................:@@@@@@+......\n                  +@@@@@@@@@@@@@@#                             .@@@@@@-\n                  .-=#@@%==@@@+==:                             .@@@@@@-\n                     *@@*  @@@.                                .@@@@@@-\n                     #@@+ .@@@                                 .@@@@@@-\n                     %@@= :@@@                                 .@@@@@@-\n                     *@%. .%@+                                 .@@@@@@-\n                                                                ******:\n\n     */\n\n      /**\n     * @notice change the amount (as percent) that is sent direct to dao stakers when treasury sends ETH funds\n     * @param new_ the new percent. (100 = 100%, 10 = 10%, 2 = 2%)\n     */\n    function updateStakersPercent(uint256 new_) external tierFourDelegation {\n        Treasury ty = Treasury(trsy);\n        ty.updateStakerPercent(new_);\n    }\n\n\n       /**\n     * @notice change the owner of treasury\n     * @param new_ the address of new governance address\n     */\n    function updateTreasuryOwner(address payable new_) external tierFourDelegation {\n        Treasury ty = Treasury(trsy);\n        ty.updateDAO(new_);\n    }\n\n     /**\n     * @notice change the access tiers contract address used to guard all access tier functions\n     * @param newAccessTiers_ the new access tiers contract to use. It should conform to AccessTiers interface\n     */\n    function updateAccessTiers(address newAccessTiers_) external tierFourDelegation {\n        aTA = newAccessTiers_;\n    }\n\n    /**\n     * @notice prevent new deposits into the pool. Effectivly end that pool.\n     * @param addy_ the address of the pool to update or the token used for the TokenDenominatedBinaryOptions pool (pass pA to use the default ETH pool)\n     */\n    function toggleStaking(address addy_) external tierFourDelegation {\n         if (addy_ == pA) {\n            INativeAssetDenominatedBinaryOptions pr = INativeAssetDenominatedBinaryOptions(pA);\n            pr.toggleStaking();\n        } else {\n            TokenDenominatedBinaryOptionsFactory factory = TokenDenominatedBinaryOptionsFactory(fcry);\n            TokenDenominatedBinaryOptions pr = TokenDenominatedBinaryOptions(factory.getTokenDenominatedBinaryOptionsAddress(addy_));\n            pr.toggleStaking();\n        }\n    }\n\n    /**\n     * @dev update reward base amount, only for main ETH pool\n     * @param newUR the new UtilizationRewards contract to use\n     */\n    function updateUtilizationRewards(address newUR) external tierFourDelegation {\n        INativeAssetDenominatedBinaryOptions pr = INativeAssetDenominatedBinaryOptions(pA);\n        pr.updateUtilizationRewards(newUR);\n    }\n\n\n\n\n    /**\n     * @notice update the main ETH pool\n     * @param a the address of the new INativeAssetDenominatedBinaryOptions pool to use\n     */\n    function updateProtocol(address payable a) external tierFourDelegation {\n        INativeAssetDenominatedBinaryOptions t = INativeAssetDenominatedBinaryOptions(a);\n        tA = a;\n    }\n\n    /**\n     * @notice update the factoryOwner\n     * @param a the address of the new DAO to control the factory\n     */\n    function updateFactoryOwner(address payable a) external tierFourDelegation {\n        TokenDenominatedBinaryOptionsFactory factory = TokenDenominatedBinaryOptionsFactory(fcry);\n        factory.transferOwner(a);\n    }\n\n    /**\n     * @notice update the factory\n     * @param a the address of the new factory to be controlled by the DAO\n     */\n    function updateFactory(address payable a) external tierFourDelegation {\n        fcry = a;\n    }\n\n}\n",
  "sourcePath": "/Users/x/Desktop/eth/BIOPv4/contracts/DAO.sol",
  "compiler": {
    "name": "solc",
    "version": "0.6.6+commit.6c089d02.Emscripten.clang"
  },
  "schemaVersion": "3.3.4",
  "updatedAt": "2021-06-22T04:29:44.233Z",
  "networkType": "ethereum",
  "devdoc": {
    "author": "github.com/Shalquiana",
    "details": "governance for endorsing biopset protocol changes",
    "methods": {
      "addUpdateTradingPair(address,address)": {
        "params": {
          "newPP_": "the address of trading pair to be added",
          "newRateCalc_": "the address of the rate calc to be used for this pair"
        }
      },
      "bRSLC(address)": {
        "params": {
          "acc": "the account to get the answer for"
        }
      },
      "createTokenDenominatedBinaryOptions(address)": {
        "params": {
          "token_": "the erc20 address to underwrite the new pool"
        }
      },
      "enableRewards(bool)": {
        "params": {
          "nx_": "the new boolean value of rewardsEnabled"
        }
      },
      "endorse(address)": {
        "params": {
          "newSha": "the address to endorse"
        }
      },
      "removeTradingPair(address)": {
        "params": {
          "oldPP_": "the address of trading pair to be removed"
        }
      },
      "sendTreasuryERC20Funds(address,uint256,address)": {
        "params": {
          "amount": "the new amount to send from the treasury, in wei equivalent",
          "destination": "where the tokens should be sent",
          "token": "the ERC20 address to transfer tokens of"
        }
      },
      "sendTreasuryFunds(uint256,address)": {
        "params": {
          "amount": "the new amount to send from the treasury, in wei",
          "destination": "where the ETH should be sent"
        }
      },
      "stake(uint256)": {
        "params": {
          "amount": "the amount in BIOP you want to stake"
        }
      },
      "toggleStaking(address)": {
        "params": {
          "addy_": "the address of the pool to update or the token used for the TokenDenominatedBinaryOptions pool (pass pA to use the default ETH pool)"
        }
      },
      "uMNOT(uint256,address)": {
        "params": {
          "addy_": "the address of the pool to update or the token used for the TokenDenominatedBinaryOptions pool (pass pA to use the default ETH pool)",
          "nMT_": "the time (in seconds) of minimum possible binary option"
        }
      },
      "uMXOT(uint256,address)": {
        "params": {
          "addy_": "the address of the pool to update or the token used for the TokenDenominatedBinaryOptions pool (pass pA to use the default ETH pool)",
          "nMT_": "the time (in seconds) of maximum possible binary option"
        }
      },
      "updateAPP(address,address)": {
        "details": "update APP",
        "params": {
          "addy_": "the address of the pool to update or the token used for the TokenDenominatedBinaryOptions pool (pass pA to use the default ETH pool)",
          "newAPP_": "the new approved price provider (and ratecalc contract to use). Must be a IAPP"
        }
      },
      "updateAccessTiers(address)": {
        "params": {
          "newAccessTiers_": "the new access tiers contract to use. It should conform to AccessTiers interface"
        }
      },
      "updateFactory(address)": {
        "params": {
          "a": "the address of the new factory to be controlled by the DAO"
        }
      },
      "updateFactoryOwner(address)": {
        "params": {
          "a": "the address of the new DAO to control the factory"
        }
      },
      "updatePoolLockTime(uint256,address)": {
        "params": {
          "addy_": "the address of the pool to update or the token used for the TokenDenominatedBinaryOptions pool (pass pA to use the default ETH pool)",
          "newLockSeconds_": "the time (in seconds) of the soft pool lock"
        }
      },
      "updateProtocol(address)": {
        "params": {
          "a": "the address of the new INativeAssetDenominatedBinaryOptions pool to use"
        }
      },
      "updateProtocolFee(uint256,address)": {
        "params": {
          "addy_": "the address of the pool to update or the token used for the TokenDenominatedBinaryOptions pool (pass pA to use the default ETH pool)",
          "newProtocolFee_": "the time (in seconds) of the soft pool lock"
        }
      },
      "updateSettlerFee(uint256,address)": {
        "params": {
          "addy_": "the address of the pool to update or the token used for the TokenDenominatedBinaryOptions pool (pass pA to use the default ETH pool)",
          "newFee_": "the new fee"
        }
      },
      "updateStakersPercent(uint256)": {
        "params": {
          "new_": "the new percent. (100 = 100%, 10 = 10%, 2 = 2%)"
        }
      },
      "updateTreasuryOwner(address)": {
        "params": {
          "new_": "the address of new governance address"
        }
      },
      "updateUROwner(address,address)": {
        "details": "update owner of Utilization rewards contract address",
        "params": {
          "addy_": "the address of the new owner",
          "uR_": "the utilization rewards contract address"
        }
      },
      "updateUtilizationRewards(address)": {
        "details": "update reward base amount, only for main ETH pool",
        "params": {
          "newUR": "the new UtilizationRewards contract to use"
        }
      },
      "withdraw(uint256)": {
        "params": {
          "amount": "the amount in BIOP you want to withdraw"
        }
      }
    },
    "title": "DAO"
  },
  "userdoc": {
    "methods": {
      "addUpdateTradingPair(address,address)": {
        "notice": "add (or update the RateCalc of existing) trading pair"
      },
      "bRSLC(address)": {
        "notice": "base ETH rewards since last claim"
      },
      "createTokenDenominatedBinaryOptions(address)": {
        "notice": "create a new TokenDenominatedBinaryOptions pool"
      },
      "deactivateTokenDenominatedBinaryOptions(address)": {
        "notice": "deactivate a TokenDenominatedBinaryOptions pool"
      },
      "enableRewards(bool)": {
        "notice": "enable or disable BIOP rewards, only for the main ETH pool"
      },
      "endorse(address)": {
        "notice": "endorses your voting power to a specific address(sha)"
      },
      "removeTradingPair(address)": {
        "notice": "remove a trading pair"
      },
      "sendTreasuryERC20Funds(address,uint256,address)": {
        "notice": "distribute treasury ERC20 funds to some destination"
      },
      "sendTreasuryFunds(uint256,address)": {
        "notice": "distribute treasury ETH funds to some destination"
      },
      "stake(uint256)": {
        "notice": "stake your BIOP and begin earning rewards"
      },
      "toggleStaking(address)": {
        "notice": "prevent new deposits into the pool. Effectivly end that pool."
      },
      "uMNOT(uint256,address)": {
        "notice": "update the minimum time an option can be created for"
      },
      "uMXOT(uint256,address)": {
        "notice": "update the maximum time an option can be created for"
      },
      "unendorse()": {
        "notice": "unendorse your voting power. you will still earn staking rewards but your voting power won't back anyone."
      },
      "updateAccessTiers(address)": {
        "notice": "change the access tiers contract address used to guard all access tier functions"
      },
      "updateFactory(address)": {
        "notice": "update the factory"
      },
      "updateFactoryOwner(address)": {
        "notice": "update the factoryOwner"
      },
      "updatePoolLockTime(uint256,address)": {
        "notice": "update soft lock time for the main pool."
      },
      "updateProtocol(address)": {
        "notice": "update the main ETH pool"
      },
      "updateProtocolFee(uint256,address)": {
        "notice": "update the fee paid by trader when they make a trade"
      },
      "updateSettlerFee(uint256,address)": {
        "notice": "update fee paid to settlers"
      },
      "updateStakersPercent(uint256)": {
        "notice": "change the amount (as percent) that is sent direct to dao stakers when treasury sends ETH funds"
      },
      "updateTreasuryOwner(address)": {
        "notice": "change the owner of treasury"
      },
      "withdraw(uint256)": {
        "notice": "withdraw your BIOP and stop earning rewards. You must unendorse before you can withdraw"
      }
    },
    "notice": "governance for endorsing biopset protocol changes BIOP"
  }
}