{
  "contractName": "DAO",
  "abi": [
    {
      "inputs": [
        {
          "internalType": "address",
          "name": "bo_",
          "type": "address"
        },
        {
          "internalType": "address",
          "name": "v4_",
          "type": "address"
        },
        {
          "internalType": "address",
          "name": "accessTiers_",
          "type": "address"
        },
        {
          "internalType": "address",
          "name": "app_",
          "type": "address"
        },
        {
          "internalType": "address",
          "name": "factory_",
          "type": "address"
        },
        {
          "internalType": "address payable",
          "name": "trsy_",
          "type": "address"
        }
      ],
      "stateMutability": "nonpayable",
      "type": "constructor"
    },
    {
      "anonymous": false,
      "inputs": [
        {
          "indexed": false,
          "internalType": "uint256",
          "name": "amount",
          "type": "uint256"
        },
        {
          "indexed": false,
          "internalType": "uint256",
          "name": "total",
          "type": "uint256"
        }
      ],
      "name": "Stake",
      "type": "event"
    },
    {
      "anonymous": false,
      "inputs": [
        {
          "indexed": false,
          "internalType": "uint256",
          "name": "amount",
          "type": "uint256"
        },
        {
          "indexed": false,
          "internalType": "uint256",
          "name": "total",
          "type": "uint256"
        }
      ],
      "name": "Withdraw",
      "type": "event"
    },
    {
      "stateMutability": "payable",
      "type": "fallback"
    },
    {
      "inputs": [],
      "name": "aTA",
      "outputs": [
        {
          "internalType": "address",
          "name": "",
          "type": "address"
        }
      ],
      "stateMutability": "view",
      "type": "function"
    },
    {
      "inputs": [],
      "name": "appA",
      "outputs": [
        {
          "internalType": "address",
          "name": "",
          "type": "address"
        }
      ],
      "stateMutability": "view",
      "type": "function"
    },
    {
      "inputs": [],
      "name": "dBIOP",
      "outputs": [
        {
          "internalType": "uint256",
          "name": "",
          "type": "uint256"
        }
      ],
      "stateMutability": "view",
      "type": "function"
    },
    {
      "inputs": [],
      "name": "fcry",
      "outputs": [
        {
          "internalType": "address",
          "name": "",
          "type": "address"
        }
      ],
      "stateMutability": "view",
      "type": "function"
    },
    {
      "inputs": [
        {
          "internalType": "address",
          "name": "",
          "type": "address"
        }
      ],
      "name": "lrc",
      "outputs": [
        {
          "internalType": "uint256",
          "name": "",
          "type": "uint256"
        }
      ],
      "stateMutability": "view",
      "type": "function"
    },
    {
      "inputs": [],
      "name": "pA",
      "outputs": [
        {
          "internalType": "address",
          "name": "",
          "type": "address"
        }
      ],
      "stateMutability": "view",
      "type": "function"
    },
    {
      "inputs": [
        {
          "internalType": "address",
          "name": "",
          "type": "address"
        }
      ],
      "name": "rep",
      "outputs": [
        {
          "internalType": "address payable",
          "name": "",
          "type": "address"
        }
      ],
      "stateMutability": "view",
      "type": "function"
    },
    {
      "inputs": [
        {
          "internalType": "address",
          "name": "",
          "type": "address"
        }
      ],
      "name": "staked",
      "outputs": [
        {
          "internalType": "uint256",
          "name": "",
          "type": "uint256"
        }
      ],
      "stateMutability": "view",
      "type": "function"
    },
    {
      "inputs": [],
      "name": "tA",
      "outputs": [
        {
          "internalType": "address",
          "name": "",
          "type": "address"
        }
      ],
      "stateMutability": "view",
      "type": "function"
    },
    {
      "inputs": [],
      "name": "trg",
      "outputs": [
        {
          "internalType": "uint256",
          "name": "",
          "type": "uint256"
        }
      ],
      "stateMutability": "view",
      "type": "function"
    },
    {
      "inputs": [],
      "name": "trsy",
      "outputs": [
        {
          "internalType": "address payable",
          "name": "",
          "type": "address"
        }
      ],
      "stateMutability": "view",
      "type": "function"
    },
    {
      "inputs": [
        {
          "internalType": "address",
          "name": "",
          "type": "address"
        }
      ],
      "name": "votes",
      "outputs": [
        {
          "internalType": "uint256",
          "name": "",
          "type": "uint256"
        }
      ],
      "stateMutability": "view",
      "type": "function"
    },
    {
      "inputs": [],
      "name": "totalStaked",
      "outputs": [
        {
          "internalType": "uint256",
          "name": "",
          "type": "uint256"
        }
      ],
      "stateMutability": "view",
      "type": "function"
    },
    {
      "inputs": [
        {
          "internalType": "uint256",
          "name": "amount",
          "type": "uint256"
        }
      ],
      "name": "stake",
      "outputs": [],
      "stateMutability": "nonpayable",
      "type": "function"
    },
    {
      "inputs": [
        {
          "internalType": "uint256",
          "name": "amount",
          "type": "uint256"
        }
      ],
      "name": "withdraw",
      "outputs": [],
      "stateMutability": "nonpayable",
      "type": "function"
    },
    {
      "inputs": [
        {
          "internalType": "address payable",
          "name": "newSha",
          "type": "address"
        }
      ],
      "name": "endorse",
      "outputs": [],
      "stateMutability": "nonpayable",
      "type": "function"
    },
    {
      "inputs": [],
      "name": "unendorse",
      "outputs": [],
      "stateMutability": "nonpayable",
      "type": "function"
    },
    {
      "inputs": [
        {
          "internalType": "address",
          "name": "acc",
          "type": "address"
        }
      ],
      "name": "bRSLC",
      "outputs": [
        {
          "internalType": "uint256",
          "name": "",
          "type": "uint256"
        }
      ],
      "stateMutability": "view",
      "type": "function"
    },
    {
      "inputs": [
        {
          "internalType": "address",
          "name": "account",
          "type": "address"
        }
      ],
      "name": "pendingETHRewards",
      "outputs": [
        {
          "internalType": "uint256",
          "name": "",
          "type": "uint256"
        }
      ],
      "stateMutability": "view",
      "type": "function"
    },
    {
      "inputs": [],
      "name": "claimETHRewards",
      "outputs": [],
      "stateMutability": "nonpayable",
      "type": "function"
    },
    {
      "inputs": [
        {
          "internalType": "address",
          "name": "token_",
          "type": "address"
        }
      ],
      "name": "createTokenDenominatedBinaryOptions",
      "outputs": [],
      "stateMutability": "nonpayable",
      "type": "function"
    },
    {
      "inputs": [
        {
          "internalType": "uint256",
          "name": "nMT_",
          "type": "uint256"
        },
        {
          "internalType": "address",
          "name": "addy_",
          "type": "address"
        }
      ],
      "name": "uMXOT",
      "outputs": [],
      "stateMutability": "nonpayable",
      "type": "function"
    },
    {
      "inputs": [
        {
          "internalType": "uint256",
          "name": "nMT_",
          "type": "uint256"
        },
        {
          "internalType": "address",
          "name": "addy_",
          "type": "address"
        }
      ],
      "name": "uMNOT",
      "outputs": [],
      "stateMutability": "nonpayable",
      "type": "function"
    },
    {
      "inputs": [
        {
          "internalType": "uint256",
          "name": "newFee_",
          "type": "uint256"
        },
        {
          "internalType": "address",
          "name": "addy_",
          "type": "address"
        }
      ],
      "name": "updateSettlerFee",
      "outputs": [],
      "stateMutability": "nonpayable",
      "type": "function"
    },
    {
      "inputs": [
        {
          "internalType": "address",
          "name": "oldPP_",
          "type": "address"
        }
      ],
      "name": "removeTradingPair",
      "outputs": [],
      "stateMutability": "nonpayable",
      "type": "function"
    },
    {
      "inputs": [
        {
          "internalType": "address",
          "name": "newPP_",
          "type": "address"
        },
        {
          "internalType": "address",
          "name": "newRateCalc_",
          "type": "address"
        }
      ],
      "name": "addUpdateTradingPair",
      "outputs": [],
      "stateMutability": "nonpayable",
      "type": "function"
    },
    {
      "inputs": [
        {
          "internalType": "bool",
          "name": "nx_",
          "type": "bool"
        }
      ],
      "name": "enableRewards",
      "outputs": [],
      "stateMutability": "nonpayable",
      "type": "function"
    },
    {
      "inputs": [
        {
          "internalType": "uint256",
          "name": "amount",
          "type": "uint256"
        },
        {
          "internalType": "address payable",
          "name": "destination",
          "type": "address"
        }
      ],
      "name": "sendTreasuryFunds",
      "outputs": [],
      "stateMutability": "nonpayable",
      "type": "function"
    },
    {
      "inputs": [
        {
          "internalType": "address",
          "name": "token",
          "type": "address"
        },
        {
          "internalType": "uint256",
          "name": "amount",
          "type": "uint256"
        },
        {
          "internalType": "address payable",
          "name": "destination",
          "type": "address"
        }
      ],
      "name": "sendTreasuryERC20Funds",
      "outputs": [],
      "stateMutability": "nonpayable",
      "type": "function"
    },
    {
      "inputs": [
        {
          "internalType": "uint256",
          "name": "newLockSeconds_",
          "type": "uint256"
        },
        {
          "internalType": "address",
          "name": "addy_",
          "type": "address"
        }
      ],
      "name": "updatePoolLockTime",
      "outputs": [],
      "stateMutability": "nonpayable",
      "type": "function"
    },
    {
      "inputs": [
        {
          "internalType": "uint256",
          "name": "newProtocolFee_",
          "type": "uint256"
        },
        {
          "internalType": "address",
          "name": "addy_",
          "type": "address"
        }
      ],
      "name": "updateProtocolFee",
      "outputs": [],
      "stateMutability": "nonpayable",
      "type": "function"
    },
    {
      "inputs": [
        {
          "internalType": "address",
          "name": "newAPP_",
          "type": "address"
        },
        {
          "internalType": "address",
          "name": "addy_",
          "type": "address"
        }
      ],
      "name": "updateAPP",
      "outputs": [],
      "stateMutability": "nonpayable",
      "type": "function"
    },
    {
      "inputs": [
        {
          "internalType": "address",
          "name": "uR_",
          "type": "address"
        },
        {
          "internalType": "address payable",
          "name": "addy_",
          "type": "address"
        }
      ],
      "name": "updateUROwner",
      "outputs": [],
      "stateMutability": "nonpayable",
      "type": "function"
    },
    {
      "inputs": [
        {
          "internalType": "address",
          "name": "token_",
          "type": "address"
        }
      ],
      "name": "deactivateTokenDenominatedBinaryOptions",
      "outputs": [],
      "stateMutability": "nonpayable",
      "type": "function"
    },
    {
      "inputs": [
        {
          "internalType": "uint256",
          "name": "new_",
          "type": "uint256"
        }
      ],
      "name": "updateStakersPercent",
      "outputs": [],
      "stateMutability": "nonpayable",
      "type": "function"
    },
    {
      "inputs": [
        {
          "internalType": "address payable",
          "name": "new_",
          "type": "address"
        }
      ],
      "name": "updateTreasuryOwner",
      "outputs": [],
      "stateMutability": "nonpayable",
      "type": "function"
    },
    {
      "inputs": [
        {
          "internalType": "address",
          "name": "newAccessTiers_",
          "type": "address"
        }
      ],
      "name": "updateAccessTiers",
      "outputs": [],
      "stateMutability": "nonpayable",
      "type": "function"
    },
    {
      "inputs": [
        {
          "internalType": "address",
          "name": "addy_",
          "type": "address"
        }
      ],
      "name": "closeStaking",
      "outputs": [],
      "stateMutability": "nonpayable",
      "type": "function"
    },
    {
      "inputs": [
        {
          "internalType": "address",
          "name": "newUR",
          "type": "address"
        }
      ],
      "name": "updateUtilizationRewards",
      "outputs": [],
      "stateMutability": "nonpayable",
      "type": "function"
    },
    {
      "inputs": [
        {
          "internalType": "address payable",
          "name": "a",
          "type": "address"
        }
      ],
      "name": "updateProtocol",
      "outputs": [],
      "stateMutability": "nonpayable",
      "type": "function"
    },
    {
      "inputs": [
        {
          "internalType": "address payable",
          "name": "a",
          "type": "address"
        }
      ],
      "name": "updateFactoryOwner",
      "outputs": [],
      "stateMutability": "nonpayable",
      "type": "function"
    },
    {
      "inputs": [
        {
          "internalType": "address payable",
          "name": "a",
          "type": "address"
        }
      ],
      "name": "updateFactory",
      "outputs": [],
      "stateMutability": "nonpayable",
      "type": "function"
    }
  ],
  "bytecode": "0x608060405260006009556000600a5534801561001a57600080fd5b5060405161376e38038061376e833981810160405260c081101561003d57600080fd5b508051602082015160408301516060840151608085015160a090950151600080546001600160a01b039687166001600160a01b0319918216179091556002805495871695821695909517909455600380549386169385169390931790925560018054918516918416919091179055600480549484169483169490941790935560058054929093169116179055613696806100d86000396000f3fe6080604052600436106102515760003560e01c806395866ba611610139578063b4b72c1d116100b6578063da4e8d711161007a578063da4e8d71146108bb578063ecc7e82e146108d0578063ef7ab8ac14610909578063f20958f61461093c578063fc9db96c1461096f578063ff98a751146109aa57610251565b8063b4b72c1d146107f2578063c621277a14610807578063c81461d614610840578063d8bff5a514610855578063d9f165dc1461088857610251565b8063a509dcb5116100fd578063a509dcb514610702578063a694fc3a14610717578063a8fddd6914610741578063a9d6279d1461077c578063aabe7579146107af57610251565b806395866ba61461060557806398807d841461064057806398830738146106735780639a7540e41461069d5780639b1559c3146106d657610251565b80634fdac7af116101d25780636ea5511f116101965780636ea5511f14610509578063727a573c1461053c57806379da7e4d1461056f578063816670f314610584578063817b1cd2146105b75780638b49ea6d146105cc57610251565b80634fdac7af1461044057806358d5970e146104555780636a92cf8b1461048e5780636c91eb1e146104c15780636d095514146104d657610251565b80632f645252116102195780632f6452521461035f5780633236ed5614610392578063480ea628146103c557806349be4c33146103da5780634c2a41661461040d57610251565b806308433c25146102535780631fa338151461028c57806322d2d4a1146102bf5780632e1a7d4d146103045780632e7be65b1461032e575b005b34801561025f57600080fd5b506102516004803603604081101561027657600080fd5b50803590602001356001600160a01b03166109bf565b34801561029857600080fd5b50610251600480360360208110156102af57600080fd5b50356001600160a01b0316610c01565b3480156102cb57600080fd5b506102f2600480360360208110156102e257600080fd5b50356001600160a01b0316610d44565b60408051918252519081900360200190f35b34801561031057600080fd5b506102516004803603602081101561032757600080fd5b5035610d9a565b34801561033a57600080fd5b50610343610fbf565b604080516001600160a01b039092168252519081900360200190f35b34801561036b57600080fd5b506102516004803603602081101561038257600080fd5b50356001600160a01b0316610fce565b34801561039e57600080fd5b50610343600480360360208110156103b557600080fd5b50356001600160a01b03166110c4565b3480156103d157600080fd5b506102f26110df565b3480156103e657600080fd5b506102f2600480360360208110156103fd57600080fd5b50356001600160a01b03166110e5565b34801561041957600080fd5b506102516004803603602081101561043057600080fd5b50356001600160a01b03166110f7565b34801561044c57600080fd5b5061034361121b565b34801561046157600080fd5b506102516004803603604081101561047857600080fd5b50803590602001356001600160a01b031661122a565b34801561049a57600080fd5b50610251600480360360208110156104b157600080fd5b50356001600160a01b031661142e565b3480156104cd57600080fd5b5061034361154e565b3480156104e257600080fd5b506102f2600480360360208110156104f957600080fd5b50356001600160a01b031661155d565b34801561051557600080fd5b506102516004803603602081101561052c57600080fd5b50356001600160a01b031661158e565b34801561054857600080fd5b506102516004803603602081101561055f57600080fd5b50356001600160a01b03166116f9565b34801561057b57600080fd5b506103436117ef565b34801561059057600080fd5b50610251600480360360208110156105a757600080fd5b50356001600160a01b03166117fe565b3480156105c357600080fd5b506102f2611922565b3480156105d857600080fd5b50610251600480360360408110156105ef57600080fd5b50803590602001356001600160a01b03166119a2565b34801561061157600080fd5b506102516004803603604081101561062857600080fd5b506001600160a01b0381358116916020013516611ba6565b34801561064c57600080fd5b506102f26004803603602081101561066357600080fd5b50356001600160a01b0316611cf0565b34801561067f57600080fd5b506102516004803603602081101561069657600080fd5b5035611d02565b3480156106a957600080fd5b50610251600480360360408110156106c057600080fd5b50803590602001356001600160a01b0316611e23565b3480156106e257600080fd5b50610251600480360360208110156106f957600080fd5b50351515612027565b34801561070e57600080fd5b50610343612147565b34801561072357600080fd5b506102516004803603602081101561073a57600080fd5b5035612156565b34801561074d57600080fd5b506102516004803603604081101561076457600080fd5b506001600160a01b038135811691602001351661240a565b34801561078857600080fd5b506102516004803603602081101561079f57600080fd5b50356001600160a01b0316612611565b3480156107bb57600080fd5b50610251600480360360608110156107d257600080fd5b506001600160a01b03813581169160208101359160409091013516612829565b3480156107fe57600080fd5b5061025161295c565b34801561081357600080fd5b506102516004803603604081101561082a57600080fd5b50803590602001356001600160a01b03166129ea565b34801561084c57600080fd5b50610343612bee565b34801561086157600080fd5b506102f26004803603602081101561087857600080fd5b50356001600160a01b0316612bfd565b34801561089457600080fd5b50610251600480360360208110156108ab57600080fd5b50356001600160a01b0316612c0f565b3480156108c757600080fd5b50610251612d05565b3480156108dc57600080fd5b50610251600480360360408110156108f357600080fd5b50803590602001356001600160a01b0316612d97565b34801561091557600080fd5b506102516004803603602081101561092c57600080fd5b50356001600160a01b0316612f10565b34801561094857600080fd5b506102516004803603602081101561095f57600080fd5b50356001600160a01b031661303b565b34801561097b57600080fd5b506102516004803603604081101561099257600080fd5b506001600160a01b0381358116916020013516613173565b3480156109b657600080fd5b506102f2613291565b600354336000908152600660209081526040808320546009548251630c1d2c4760e31b81526004810192909252602482015290516001600160a01b039094169384936360e9623893604480850194919392918390030190829087803b158015610a2757600080fd5b505af1158015610a3b573d6000803e3d6000fd5b505050506040513d6020811015610a5157600080fd5b5051610a92576040805162461bcd60e51b815260206004820152601d6024820152600080516020613641833981519152604482015290519081900360640190fd5b6000546001600160a01b0383811691161415610b12576000805460408051631d983e2360e01b81526004810187905290516001600160a01b03909216928392631d983e2392602480820193929182900301818387803b158015610af457600080fd5b505af1158015610b08573d6000803e3d6000fd5b5050505050610bfc565b60048054604080516314f1d87f60e01b81526001600160a01b03868116948201949094529051929091169160009183916314f1d87f9160248082019260209290919082900301818787803b158015610b6957600080fd5b505af1158015610b7d573d6000803e3d6000fd5b505050506040513d6020811015610b9357600080fd5b50516040805163dbdf8dfb60e01b81526004810188905290519192506001600160a01b0383169163dbdf8dfb9160248082019260009290919082900301818387803b158015610be157600080fd5b505af1158015610bf5573d6000803e3d6000fd5b5050505050505b505050565b6003543360009081526006602090815260408083205460095482516313c36b2f60e11b81526004810192909252602482015290516001600160a01b03909416938493632786d65e93604480850194919392918390030190829087803b158015610c6957600080fd5b505af1158015610c7d573d6000803e3d6000fd5b505050506040513d6020811015610c9357600080fd5b5051610cd4576040805162461bcd60e51b815260206004820152601d6024820152600080516020613641833981519152604482015290519081900360640190fd5b6004805460408051634fb2e45d60e01b81526001600160a01b0386811694820194909452905192909116918291634fb2e45d91602480830192600092919082900301818387803b158015610d2757600080fd5b505af1158015610d3b573d6000803e3d6000fd5b50505050505050565b600080610d508361155d565b9050610d93610d5d611922565b6001600160a01b038516600090815260086020526040902054610d8790849063ffffffff61329716565b9063ffffffff6132f016565b9392505050565b33600090815260086020526040902054811115610def576040805162461bcd60e51b815260206004820152600e60248201526d1a5b9d985b1a5908185b5bdd5b9d60921b604482015290519081900360640190fd5b600254336000908152600760205260409020546001600160a01b03918216911615610e1957600080fd5b6040805163a9059cbb60e01b81523360048201526024810184905290516001600160a01b0383169163a9059cbb9160448083019260209291908290030181600087803b158015610e6857600080fd5b505af1158015610e7c573d6000803e3d6000fd5b505050506040513d6020811015610e9257600080fd5b5051610ed6576040805162461bcd60e51b815260206004820152600e60248201526d1cdd185ada5b99c819985a5b195960921b604482015290519081900360640190fd5b33600090815260086020526040902054610ef6908363ffffffff61333216565b3360009081526008602090815260408083209390935582516370a0823160e01b8152306004820152925191926001600160a01b038516926370a0823192602480840193919291829003018186803b158015610f5057600080fd5b505afa158015610f64573d6000803e3d6000fd5b505050506040513d6020811015610f7a57600080fd5b5051604080518581526020810183905281519293507f56ca301a9219608c91e7bcee90e083c19671d2cdcc96752c7af291cee5f9c8c8929081900390910190a1505050565b6000546001600160a01b031681565b6003543360009081526006602090815260408083205460095482516313c36b2f60e11b81526004810192909252602482015290516001600160a01b03909416938493632786d65e93604480850194919392918390030190829087803b15801561103657600080fd5b505af115801561104a573d6000803e3d6000fd5b505050506040513d602081101561106057600080fd5b50516110a1576040805162461bcd60e51b815260206004820152601d6024820152600080516020613641833981519152604482015290519081900360640190fd5b50600380546001600160a01b0319166001600160a01b0392909216919091179055565b6007602052600090815260409020546001600160a01b031681565b600a5481565b600b6020526000908152604090205481565b6003543360009081526006602090815260408083205460095482516313c36b2f60e11b81526004810192909252602482015290516001600160a01b03909416938493632786d65e93604480850194919392918390030190829087803b15801561115f57600080fd5b505af1158015611173573d6000803e3d6000fd5b505050506040513d602081101561118957600080fd5b50516111ca576040805162461bcd60e51b815260206004820152601d6024820152600080516020613641833981519152604482015290519081900360640190fd5b6005546040805163bcb6c0b560e01b81526001600160a01b03858116600483015291519190921691829163bcb6c0b59160248082019260009290919082900301818387803b158015610d2757600080fd5b6003546001600160a01b031681565b60035433600090815260066020908152604080832054600954825163b930926b60e01b81526004810192909252602482015290516001600160a01b0390941693849363b930926b93604480850194919392918390030190829087803b15801561129257600080fd5b505af11580156112a6573d6000803e3d6000fd5b505050506040513d60208110156112bc57600080fd5b50516112fd576040805162461bcd60e51b815260206004820152601d6024820152600080516020613641833981519152604482015290519081900360640190fd5b6000546001600160a01b038381169116141561135f5760008054604080516327c6641360e21b81526004810187905290516001600160a01b03909216928392639f19904c92602480820193929182900301818387803b158015610af457600080fd5b60048054604080516314f1d87f60e01b81526001600160a01b03868116948201949094529051929091169160009183916314f1d87f9160248082019260209290919082900301818787803b1580156113b657600080fd5b505af11580156113ca573d6000803e3d6000fd5b505050506040513d60208110156113e057600080fd5b5051604080516327c6641360e21b81526004810188905290519192506001600160a01b03831691639f19904c9160248082019260009290919082900301818387803b158015610be157600080fd5b6003543360009081526006602090815260408083205460095482516313c36b2f60e11b81526004810192909252602482015290516001600160a01b03909416938493632786d65e93604480850194919392918390030190829087803b15801561149657600080fd5b505af11580156114aa573d6000803e3d6000fd5b505050506040513d60208110156114c057600080fd5b5051611501576040805162461bcd60e51b815260206004820152601d6024820152600080516020613641833981519152604482015290519081900360640190fd5b6000805460408051636a92cf8b60e01b81526001600160a01b038681166004830152915191909216928392636a92cf8b926024808301939282900301818387803b158015610d2757600080fd5b6004546001600160a01b031681565b6001600160a01b0381166000908152600b6020526040812054600a546115889163ffffffff61333216565b92915050565b6001600160a01b0381166115e9576040805162461bcd60e51b815260206004820152601960248201527f6d6179206e6f7420656e646f7273652030206164647265737300000000000000604482015290519081900360640190fd5b336000908152600760205260409020546001600160a01b03168061163157336000908152600860205260409020546009546116299163ffffffff61337416565b600955611682565b336000908152600860209081526040808320546001600160a01b03851684526006909252909120546116689163ffffffff61333216565b6001600160a01b0382166000908152600660205260409020555b336000908152600860209081526040808320546001600160a01b03861684526006909252909120546116b99163ffffffff61337416565b6001600160a01b03909216600081815260066020908152604080832095909555338252600790529290922080546001600160a01b03191690921790915550565b6003543360009081526006602090815260408083205460095482516313c36b2f60e11b81526004810192909252602482015290516001600160a01b03909416938493632786d65e93604480850194919392918390030190829087803b15801561176157600080fd5b505af1158015611775573d6000803e3d6000fd5b505050506040513d602081101561178b57600080fd5b50516117cc576040805162461bcd60e51b815260206004820152601d6024820152600080516020613641833981519152604482015290519081900360640190fd5b50600280546001600160a01b0319166001600160a01b0392909216919091179055565b6002546001600160a01b031681565b60035433600090815260066020908152604080832054600954825163b930926b60e01b81526004810192909252602482015290516001600160a01b0390941693849363b930926b93604480850194919392918390030190829087803b15801561186657600080fd5b505af115801561187a573d6000803e3d6000fd5b505050506040513d602081101561189057600080fd5b50516118d1576040805162461bcd60e51b815260206004820152601d6024820152600080516020613641833981519152604482015290519081900360640190fd5b60015460408051637a5370f160e11b81526001600160a01b03858116600483015291519190921691829163f4a6e1e29160248082019260009290919082900301818387803b158015610d2757600080fd5b600254604080516370a0823160e01b815230600482015290516000926001600160a01b03169182916370a0823191602480820192602092909190829003018186803b15801561197057600080fd5b505afa158015611984573d6000803e3d6000fd5b505050506040513d602081101561199a57600080fd5b505191505090565b6003543360009081526006602090815260408083205460095482516335561a3160e11b81526004810192909252602482015290516001600160a01b03909416938493636aac346293604480850194919392918390030190829087803b158015611a0a57600080fd5b505af1158015611a1e573d6000803e3d6000fd5b505050506040513d6020811015611a3457600080fd5b5051611a75576040805162461bcd60e51b815260206004820152601d6024820152600080516020613641833981519152604482015290519081900360640190fd5b6000546001600160a01b0383811691161415611ad7576000805460408051635009a61360e01b81526004810187905290516001600160a01b03909216928392635009a61392602480820193929182900301818387803b158015610af457600080fd5b60048054604080516314f1d87f60e01b81526001600160a01b03868116948201949094529051929091169160009183916314f1d87f9160248082019260209290919082900301818787803b158015611b2e57600080fd5b505af1158015611b42573d6000803e3d6000fd5b505050506040513d6020811015611b5857600080fd5b505160408051635009a61360e01b81526004810188905290519192506001600160a01b03831691635009a6139160248082019260009290919082900301818387803b158015610be157600080fd5b60035433600090815260066020908152604080832054600954825163b930926b60e01b81526004810192909252602482015290516001600160a01b0390941693849363b930926b93604480850194919392918390030190829087803b158015611c0e57600080fd5b505af1158015611c22573d6000803e3d6000fd5b505050506040513d6020811015611c3857600080fd5b5051611c79576040805162461bcd60e51b815260206004820152601d6024820152600080516020613641833981519152604482015290519081900360640190fd5b6001546040805163bc08621560e01b81526001600160a01b038681166004830152858116602483015291519190921691829163bc0862159160448082019260009290919082900301818387803b158015611cd257600080fd5b505af1158015611ce6573d6000803e3d6000fd5b5050505050505050565b60086020526000908152604090205481565b6003543360009081526006602090815260408083205460095482516313c36b2f60e11b81526004810192909252602482015290516001600160a01b03909416938493632786d65e93604480850194919392918390030190829087803b158015611d6a57600080fd5b505af1158015611d7e573d6000803e3d6000fd5b505050506040513d6020811015611d9457600080fd5b5051611dd5576040805162461bcd60e51b815260206004820152601d6024820152600080516020613641833981519152604482015290519081900360640190fd5b600554604080516305cea6d160e21b81526004810185905290516001600160a01b0390921691829163173a9b4491602480830192600092919082900301818387803b158015610d2757600080fd5b600354336000908152600660209081526040808320546009548251630c1d2c4760e31b81526004810192909252602482015290516001600160a01b039094169384936360e9623893604480850194919392918390030190829087803b158015611e8b57600080fd5b505af1158015611e9f573d6000803e3d6000fd5b505050506040513d6020811015611eb557600080fd5b5051611ef6576040805162461bcd60e51b815260206004820152601d6024820152600080516020613641833981519152604482015290519081900360640190fd5b6000546001600160a01b0383811691161415611f585760008054604080516337637f4560e01b81526004810187905290516001600160a01b039092169283926337637f4592602480820193929182900301818387803b158015610af457600080fd5b60048054604080516314f1d87f60e01b81526001600160a01b03868116948201949094529051929091169160009183916314f1d87f9160248082019260209290919082900301818787803b158015611faf57600080fd5b505af1158015611fc3573d6000803e3d6000fd5b505050506040513d6020811015611fd957600080fd5b50516040805163c97d4b2b60e01b81526004810188905290519192506001600160a01b0383169163c97d4b2b9160248082019260009290919082900301818387803b158015610be157600080fd5b60035433600090815260066020908152604080832054600954825163b930926b60e01b81526004810192909252602482015290516001600160a01b0390941693849363b930926b93604480850194919392918390030190829087803b15801561208f57600080fd5b505af11580156120a3573d6000803e3d6000fd5b505050506040513d60208110156120b957600080fd5b50516120fa576040805162461bcd60e51b815260206004820152601d6024820152600080516020613641833981519152604482015290519081900360640190fd5b6000805460408051639b1559c360e01b8152851515600482015290516001600160a01b03909216928392639b1559c392602480820193929182900301818387803b158015610d2757600080fd5b6001546001600160a01b031681565b6000811161219c576040805162461bcd60e51b815260206004820152600e60248201526d1a5b9d985b1a5908185b5bdd5b9d60921b604482015290519081900360640190fd5b600254604080516370a0823160e01b815233600482015290516001600160a01b0390921691839183916370a0823191602480820192602092909190829003018186803b1580156121eb57600080fd5b505afa1580156121ff573d6000803e3d6000fd5b505050506040513d602081101561221557600080fd5b5051101561226a576040805162461bcd60e51b815260206004820152601860248201527f696e737566666963656e742062696f702062616c616e63650000000000000000604482015290519081900360640190fd5b604080516323b872dd60e01b81523360048201523060248201526044810184905290516001600160a01b038316916323b872dd9160648083019260209291908290030181600087803b1580156122bf57600080fd5b505af11580156122d3573d6000803e3d6000fd5b505050506040513d60208110156122e957600080fd5b505161232d576040805162461bcd60e51b815260206004820152600e60248201526d1cdd185ada5b99c819985a5b195960921b604482015290519081900360640190fd5b3360009081526008602052604081205461235957600a54336000908152600b602052604090205561237b565b50336000908152600760205260409020546001600160a01b031661237b612d05565b3360009081526008602052604090205461239b908463ffffffff61337416565b336000908152600860205260409020556001600160a01b038116156123c3576123c38161158e565b7fc9ec05ea5037818736839e1365dc3d9a74a735c447af0697da66633b7a9d0fab836123ed611922565b6040805192835260208301919091528051918290030190a1505050565b6003543360009081526006602090815260408083205460095482516335561a3160e11b81526004810192909252602482015290516001600160a01b03909416938493636aac346293604480850194919392918390030190829087803b15801561247257600080fd5b505af1158015612486573d6000803e3d6000fd5b505050506040513d602081101561249c57600080fd5b50516124dd576040805162461bcd60e51b815260206004820152601d6024820152600080516020613641833981519152604482015290519081900360640190fd5b6000546001600160a01b03838116911614156125405760008054604080516307e665df60e01b81526001600160a01b0387811660048301529151919092169283926307e665df926024808301939282900301818387803b158015610af457600080fd5b60048054604080516314f1d87f60e01b81526001600160a01b03868116948201949094529051929091169160009183916314f1d87f9160248082019260209290919082900301818787803b15801561259757600080fd5b505af11580156125ab573d6000803e3d6000fd5b505050506040513d60208110156125c157600080fd5b5051604080516307e665df60e01b81526001600160a01b0388811660048301529151929350908316916307e665df9160248082019260009290919082900301818387803b158015610be157600080fd5b6003543360009081526006602090815260408083205460095482516313c36b2f60e11b81526004810192909252602482015290516001600160a01b03909416938493632786d65e93604480850194919392918390030190829087803b15801561267957600080fd5b505af115801561268d573d6000803e3d6000fd5b505050506040513d60208110156126a357600080fd5b50516126e4576040805162461bcd60e51b815260206004820152601d6024820152600080516020613641833981519152604482015290519081900360640190fd5b6000546001600160a01b038381169116141561275d5760008054604080516398cfe58760e01b815290516001600160a01b039092169283926398cfe58792600480820193929182900301818387803b15801561273f57600080fd5b505af1158015612753573d6000803e3d6000fd5b5050505050612825565b60048054604080516314f1d87f60e01b81526001600160a01b03868116948201949094529051929091169160009183916314f1d87f9160248082019260209290919082900301818787803b1580156127b457600080fd5b505af11580156127c8573d6000803e3d6000fd5b505050506040513d60208110156127de57600080fd5b5051604080516398cfe58760e01b815290519192506001600160a01b038316916398cfe5879160048082019260009290919082900301818387803b158015611cd257600080fd5b5050565b60035433600090815260066020908152604080832054600954825163b930926b60e01b81526004810192909252602482015290516001600160a01b0390941693849363b930926b93604480850194919392918390030190829087803b15801561289157600080fd5b505af11580156128a5573d6000803e3d6000fd5b505050506040513d60208110156128bb57600080fd5b50516128fc576040805162461bcd60e51b815260206004820152601d6024820152600080516020613641833981519152604482015290519081900360640190fd5b60055460408051632418420160e11b81526001600160a01b03878116600483015260248201879052858116604483015291519190921691829163483084029160648082019260009290919082900301818387803b158015610be157600080fd5b600a54336000908152600b602052604090205411156129b9576040805162461bcd60e51b81526020600482015260146024820152736e6f207265776172647320617661696c61626c6560601b604482015290519081900360640190fd5b60006129c433610d44565b600a54336000818152600b60205260409020919091559091506129e790826133ce565b50565b6003543360009081526006602090815260408083205460095482516335561a3160e11b81526004810192909252602482015290516001600160a01b03909416938493636aac346293604480850194919392918390030190829087803b158015612a5257600080fd5b505af1158015612a66573d6000803e3d6000fd5b505050506040513d6020811015612a7c57600080fd5b5051612abd576040805162461bcd60e51b815260206004820152601d6024820152600080516020613641833981519152604482015290519081900360640190fd5b6000546001600160a01b0383811691161415612b1f57600080546040805163084adbaf60e31b81526004810187905290516001600160a01b03909216928392634256dd7892602480820193929182900301818387803b158015610af457600080fd5b60048054604080516314f1d87f60e01b81526001600160a01b03868116948201949094529051929091169160009183916314f1d87f9160248082019260209290919082900301818787803b158015612b7657600080fd5b505af1158015612b8a573d6000803e3d6000fd5b505050506040513d6020811015612ba057600080fd5b50516040805163084adbaf60e31b81526004810188905290519192506001600160a01b03831691634256dd789160248082019260009290919082900301818387803b158015610be157600080fd5b6005546001600160a01b031681565b60066020526000908152604090205481565b6003543360009081526006602090815260408083205460095482516313c36b2f60e11b81526004810192909252602482015290516001600160a01b03909416938493632786d65e93604480850194919392918390030190829087803b158015612c7757600080fd5b505af1158015612c8b573d6000803e3d6000fd5b505050506040513d6020811015612ca157600080fd5b5051612ce2576040805162461bcd60e51b815260206004820152601d6024820152600080516020613641833981519152604482015290519081900360640190fd5b50600480546001600160a01b0319166001600160a01b0392909216919091179055565b3360009081526007602090815260408083205460088352818420546001600160a01b0390911680855260069093529220549091612d429190613332565b6001600160a01b0382166000908152600660209081526040808320939093553382526007815282822080546001600160a01b0319169055600890522054600954612d919163ffffffff61333216565b60095550565b60035433600090815260066020908152604080832054600954825163b930926b60e01b81526004810192909252602482015290516001600160a01b0390941693849363b930926b93604480850194919392918390030190829087803b158015612dff57600080fd5b505af1158015612e13573d6000803e3d6000fd5b505050506040513d6020811015612e2957600080fd5b5051612e6a576040805162461bcd60e51b815260206004820152601d6024820152600080516020613641833981519152604482015290519081900360640190fd5b60055460408051632c9a19dd60e21b8152600481018690526001600160a01b03858116602483015291519190921691600091839163b268677491604480830192602092919082900301818787803b158015612ec457600080fd5b505af1158015612ed8573d6000803e3d6000fd5b505050506040513d6020811015612eee57600080fd5b5051600a54909150612f06908263ffffffff61337416565b600a555050505050565b60048054604080516314f1d87f60e01b81526001600160a01b03858116948201949094529051929091169160009183916314f1d87f9160248082019260209290919082900301818787803b158015612f6757600080fd5b505af1158015612f7b573d6000803e3d6000fd5b505050506040513d6020811015612f9157600080fd5b505190506001600160a01b03811615612fdb5760405162461bcd60e51b81526004018080602001828103825260368152602001806135b06036913960400191505060405180910390fd5b600554600154604080516306dd520960e51b81526001600160a01b03878116600483015293841660248201529183166044830152519184169163dbaa41209160648082019260009290919082900301818387803b158015610d2757600080fd5b60048054604080516314f1d87f60e01b81526001600160a01b03858116948201949094529051929091169182916314f1d87f9160248083019260209291908290030181600087803b15801561308f57600080fd5b505af11580156130a3573d6000803e3d6000fd5b505050506040513d60208110156130b957600080fd5b50516001600160a01b03166130ff5760405162461bcd60e51b81526004018080602001828103825260368152602001806135b06036913960400191505060405180910390fd5b806001600160a01b0316633b7d0946836040518263ffffffff1660e01b815260040180826001600160a01b03166001600160a01b03168152602001915050600060405180830381600087803b15801561315757600080fd5b505af115801561316b573d6000803e3d6000fd5b505050505050565b6003543360009081526006602090815260408083205460095482516335561a3160e11b81526004810192909252602482015290516001600160a01b03909416938493636aac346293604480850194919392918390030190829087803b1580156131db57600080fd5b505af11580156131ef573d6000803e3d6000fd5b505050506040513d602081101561320557600080fd5b5051613246576040805162461bcd60e51b815260206004820152601d6024820152600080516020613641833981519152604482015290519081900360640190fd5b60408051633d18c43360e11b81526001600160a01b03848116600483015291518592831691637a31886691602480830192600092919082900301818387803b158015611cd257600080fd5b60095481565b6000826132a657506000611588565b828202828482816132b357fe5b0414610d935760405162461bcd60e51b81526004018080602001828103825260218152602001806136206021913960400191505060405180910390fd5b6000610d9383836040518060400160405280601a81526020017f536166654d6174683a206469766973696f6e206279207a65726f0000000000008152506134b3565b6000610d9383836040518060400160405280601e81526020017f536166654d6174683a207375627472616374696f6e206f766572666c6f770000815250613555565b600082820183811015610d93576040805162461bcd60e51b815260206004820152601b60248201527f536166654d6174683a206164646974696f6e206f766572666c6f770000000000604482015290519081900360640190fd5b80471015613423576040805162461bcd60e51b815260206004820152601d60248201527f416464726573733a20696e73756666696369656e742062616c616e6365000000604482015290519081900360640190fd5b6040516000906001600160a01b0384169083908381818185875af1925050503d806000811461346e576040519150601f19603f3d011682016040523d82523d6000602084013e613473565b606091505b5050905080610bfc5760405162461bcd60e51b815260040180806020018281038252603a8152602001806135e6603a913960400191505060405180910390fd5b6000818361353f5760405162461bcd60e51b81526004018080602001828103825283818151815260200191508051906020019080838360005b838110156135045781810151838201526020016134ec565b50505050905090810190601f1680156135315780820380516001836020036101000a031916815260200191505b509250505060405180910390fd5b50600083858161354b57fe5b0495945050505050565b600081848411156135a75760405162461bcd60e51b81526020600482018181528351602484015283519092839260449091019190850190808383600083156135045781810151838201526020016134ec565b50505090039056fe706f6f6c20666f72207468697320746f6b656e20616c7265616479206578697374732c207265706c61636520697420696e7374656164416464726573733a20756e61626c6520746f2073656e642076616c75652c20726563697069656e74206d61792068617665207265766572746564536166654d6174683a206d756c7469706c69636174696f6e206f766572666c6f77696e737566666963656e7420656e646f7273656d656e7420706f776572000000a26469706673582212202153bddfa1d65d34f299bda444c17c6d10999ebbf15735db75d3059c9256128864736f6c63430006060033",
  "immutableReferences": {},
  "source": "pragma solidity 0.6.6;\n\nimport \"@openzeppelin/contracts/math/SafeMath.sol\";\nimport \"@openzeppelin/contracts/token/ERC20/ERC20.sol\";\nimport \"@openzeppelin/contracts/utils/Address.sol\";\n\nimport \"./NativeAssetDenominatedBinaryOptions.sol\";\nimport \"./APP.sol\";\nimport \"./UtilizationRewards.sol\";\nimport \"./Treasury.sol\";\nimport \"./TokenDenominatedBinaryOptions/TokenDenominatedBinaryOptionsFactory.sol\";\nimport \"./interfaces/IAccessTiers.sol\";\n\n\n\n\n/**\n * @title DAO\n * @author github.com/Shalquiana\n * @dev governance for endorsing biopset protocol changes\n * @notice governance for endorsing biopset protocol changes\n * BIOP\n */\ncontract DAO {\n    using SafeMath for uint256;\n    address public pA;//protocol address\n    address public appA;//approved price providers address\n    address public tA;//token address\n    address public aTA;//access tiers address\n    address public fcry;//TokenDenominatedBinaryOptions factory address\n    address payable public trsy;//treasury\n\n    mapping(address=>uint256) public votes;//amount of endorsement power currently directed at a address\n    mapping(address=>address payable) public rep;//representative/delegate/governer/endorsement currently backed by given address\n    mapping(address=>uint256) public staked;//amount of BIOP they have staked\n    uint256 public dBIOP = 0;//the total amount of staked BIOP which has been endorsed for governance\n\n    //ETH rewards for stakers\n    uint256 public trg = 0;//total rewards generated\n    mapping(address=>uint256) public lrc;//last rewards claimed at trg point for this address\n\n\n\n    constructor(address bo_, address v4_, address accessTiers_, address app_, address factory_, address payable trsy_) public {\n      pA = bo_;\n      tA = v4_;\n      aTA = accessTiers_;\n      appA = app_;\n      fcry = factory_;\n      trsy = trsy_;\n    }\n\n\n    event Stake(uint256 amount, uint256 total);\n    event Withdraw(uint256 amount, uint256 total);\n\n    function totalStaked() public view returns (uint256) {\n        ERC20 token = ERC20(tA);\n        return token.balanceOf(address(this));\n    }\n\n    /**\n     * @notice stake your BIOP and begin earning rewards\n     * @param amount the amount in BIOP you want to stake\n     */\n    function stake(uint256 amount) public {\n        require(amount > 0, \"invalid amount\");\n        ERC20 token = ERC20(tA);\n        require(token.balanceOf(msg.sender) >= amount, \"insufficent biop balance\");\n        require(token.transferFrom(msg.sender, address(this), amount), \"staking failed\");\n        \n        address payable delegate;\n        if (staked[msg.sender] == 0) {\n            //only for ETH\n            lrc[msg.sender] = trg;\n        } else {\n            //automatically unendorse and rendorse if depositing to an existing non-zero stake to prevent endorsement amounts from becoming out of sync\n            delegate = rep[msg.sender];\n            unendorse();\n        }\n        staked[msg.sender] = staked[msg.sender].add(amount);\n        if (delegate != 0x0000000000000000000000000000000000000000) {\n            endorse(delegate);\n        }\n        emit Stake(amount, totalStaked());\n    }\n\n\n\n    /**\n     * @notice withdraw your BIOP and stop earning rewards. You must unendorse before you can withdraw\n     * @param amount the amount in BIOP you want to withdraw\n     */\n    function withdraw(uint256 amount) public {\n        require(staked[msg.sender] >= amount, \"invalid amount\");\n        ERC20 token = ERC20(tA);\n        require(rep[msg.sender] ==  0x0000000000000000000000000000000000000000);\n        require(token.transfer(msg.sender, amount), \"staking failed\");\n        staked[msg.sender] = staked[msg.sender].sub(amount);\n\n        uint256 totalBalance = token.balanceOf(address(this));\n        emit Withdraw(amount, totalBalance);\n    }\n\n     /**\n     * @notice endorses your voting power to a specific address(sha)\n     * @param newSha the address to endorse\n     */\n    function endorse(address payable newSha) public {\n        require(newSha != 0x0000000000000000000000000000000000000000, \"may not endorse 0 address\");\n        address oldSha = rep[msg.sender];\n        if (oldSha == 0x0000000000000000000000000000000000000000) {\n            dBIOP = dBIOP.add(staked[msg.sender]);\n        } else {\n            votes[oldSha] = votes[oldSha].sub(staked[msg.sender]);\n        }\n        votes[newSha] = votes[newSha].add(staked[msg.sender]);\n        rep[msg.sender] = newSha;\n    }\n\n     /**\n     * @notice unendorse your voting power. you will still earn staking rewards\n     * but your voting power won't back anyone.\n     */\n    function unendorse() public {\n        address oldSha = rep[msg.sender];\n        votes[oldSha] = votes[oldSha].sub(staked[msg.sender]);\n        rep[msg.sender] =  0x0000000000000000000000000000000000000000;\n        dBIOP = dBIOP.sub(staked[msg.sender]);\n    }\n\n    /**\n    * @notice base ETH rewards since last claim\n    * @param acc the account to get the answer for\n    */\n    function bRSLC(address acc) public view returns (uint256) {\n        return trg.sub(lrc[acc]);\n    }\n\n    function pendingETHRewards(address account) public view returns (uint256) {\n        uint256 base = bRSLC(account);\n        return base.mul(staked[account]).div(totalStaked());\n    }\n\n\n    function claimETHRewards() public {\n        require(lrc[msg.sender] <= trg, \"no rewards available\");\n\n        uint256 toSend = pendingETHRewards(msg.sender);\n        lrc[msg.sender] = trg;\n        Address.sendValue(msg.sender, toSend);\n    }\n\n\n\n    /**\n     * @notice modifier for actions requiring tier 1 endorsement\n     */\n    modifier tierOneDelegation() {\n        IAccessTiers tiers = IAccessTiers(aTA);\n        require(tiers.tier1(votes[msg.sender], dBIOP), \"insufficent endorsement power\");\n        _;\n    }\n\n    /**\n     * @notice modifier for actions requiring a tier 2 endorsement\n     */\n    modifier tierTwoDelegation() {\n        IAccessTiers tiers = IAccessTiers(aTA);\n        require(tiers.tier2(votes[msg.sender], dBIOP), \"insufficent endorsement power\");\n        _;\n    }\n\n    /**\n     * @notice modifier for actions requiring a tier 3 endorsement\n     */\n    modifier tierThreeDelegation() {\n        IAccessTiers tiers = IAccessTiers(aTA);\n        require(tiers.tier3(votes[msg.sender], dBIOP), \"insufficent endorsement power\");\n        _;\n    }\n\n    /**\n     * @notice modifier for actions requiring a tier 4 endorsement\n     */\n    modifier tierFourDelegation() {\n        IAccessTiers tiers = IAccessTiers(aTA);\n        require(tiers.tier4(votes[msg.sender], dBIOP), \"insufficent endorsement power\");\n        _;\n    }\n\n\n\n\n\n    //this function has to be present or transfers to the DAO fail silently\n    fallback () external payable {\n    }\n\n     /**\n     * @notice create a new TokenDenominatedBinaryOptions pool\n     * @param token_ the erc20 address to underwrite the new pool\n     */\n    function createTokenDenominatedBinaryOptions(address token_) public {\n        TokenDenominatedBinaryOptionsFactory factory = TokenDenominatedBinaryOptionsFactory(fcry);\n        address tAddress = factory.getTokenDenominatedBinaryOptionsAddress(token_);\n        require(tAddress == 0x0000000000000000000000000000000000000000, \"pool for this token already exists, replace it instead\");\n        factory.createTokenDenominatedBinaryOptions(token_, trsy, appA);\n    }\n\n\n\n\n\n\n\n    /*\n\n\n\n                                                              .-=\n                      =                               :-=+#%@@@@@\n               @+@+* -*   -==: ==-+.           -=+#%@@@@@@@@@@@@@\n                :%    %. -%-=* :%              %@@@@@@@@@@@@@@@@@\n               .=== .===: -==: ===.            %@@@@%*+=--@@@@@@@\n                                               --.       .@@@@@@@\n                                                         .@@@@@@@\n                                                         .@@@@@@@\n                                                         .@@@@@@@\n                                                         .@@@@@@@\n                                                         .@@@@@@@\n                                                         .@@@@@@@\n                      .:    :.                           .@@@@@@@\n                     -@@#  #@@=                          .@@@@@@@\n                     +@@#  %@@=                          .@@@@@@@\n                     *@@*  @@@-                          .@@@@@@@\n                     #@@+ .@@@:                          .@@@@@@@\n                 .---@@@*-+@@@=--                        .@@@@@@@\n                 +@@@@@@@@@@@@@@@.                       .@@@@@@@\n                    .@@@: =@@@                           .@@@@@@@\n                    :@@@. +@@#                           .@@@@@@@\n                 -*##@@@##%@@@##*                        .@@@@@@@\n                 -##%@@@##@@@%##*                        .@@@@@@@\n                    +@@#  #@@=                           .@@@@@@@\n                    *@@*  @@@:                           .@@@@@@@\n                    *@@+  @@@.                 +**********@@@@@@@**********=\n                    #@@= .@@@                  %@@@@@@@@@@@@@@@@@@@@@@@@@@@%\n                    .--   :=:                  %@@@@@@@@@@@@@@@@@@@@@@@@@@@%\n\n\n\n\n\n\n     */\n\n\n    /**\n     * @notice update the maximum time an option can be created for\n     * @param nMT_ the time (in seconds) of maximum possible binary option\n     * @param addy_ the address of the pool to update or the token used for the TokenDenominatedBinaryOptions pool (pass pA to use the default ETH pool)\n     */\n    function uMXOT(uint256 nMT_, address addy_) external tierOneDelegation {\n        if (addy_ == pA) {\n            INativeAssetDenominatedBinaryOptions pr = INativeAssetDenominatedBinaryOptions(pA);\n            pr.setMaxT(nMT_);\n        } else {\n            TokenDenominatedBinaryOptionsFactory factory = TokenDenominatedBinaryOptionsFactory(fcry);\n            TokenDenominatedBinaryOptions pr = TokenDenominatedBinaryOptions(factory.getTokenDenominatedBinaryOptionsAddress(addy_));\n            pr.updateMaxT(nMT_);\n        }\n    }\n\n    /**\n     * @notice update the maximum time an option can be created for\n     * @param nMT_ the time (in seconds) of maximum possible binary option\n     * @param addy_ the address of the pool to update or the token used for the TokenDenominatedBinaryOptions pool (pass pA to use the default ETH pool)\n     */\n    function uMNOT(uint256 nMT_, address addy_) external tierOneDelegation {\n        if (addy_ == pA) {\n            INativeAssetDenominatedBinaryOptions pr = INativeAssetDenominatedBinaryOptions(pA);\n            pr.setMinT(nMT_);\n        } else {\n            TokenDenominatedBinaryOptionsFactory factory = TokenDenominatedBinaryOptionsFactory(fcry);\n            TokenDenominatedBinaryOptions pr = TokenDenominatedBinaryOptions(factory.getTokenDenominatedBinaryOptionsAddress(addy_));\n            pr.updateMinT(nMT_);\n        }\n    }\n\n    /*\n\n\n                                                    .:-+*##%@@@@@@%#*+=:\n              :::::   *                        .=+#@@@@@@@@@@@@@@@@@@@@@@%+:\n              @-@=#: =*.  .+=+- :*=+*:        -@@@@@@@@@@@@@@@@@@@@@@@@@@@@@%=\n               .@:    %:  #*--#. **           -@@@@@@@%#+=-::::::-=*@@@@@@@@@@%-\n              :+**- :+*++ .++++ -**+          -@@@#=:                :*@@@@@@@@@=\n                                              .=.                      :%@@@@@@@@=\n                                                                        .@@@@@@@@@.\n                                                                         +@@@@@@@@=\n                                                                         :@@@@@@@@+\n                                                                         -@@@@@@@@=\n                                                                         #@@@@@@@@:\n                                                                        -@@@@@@@@#\n                                                                       :@@@@@@@@%\n                                                                      -@@@@@@@@%.\n                      *#*   -##-                                    .*@@@@@@@@*\n                     =@@@-  @@@%                                   =@@@@@@@@#:\n                     +@@@: .@@@#                                 =%@@@@@@@%-\n                     *@@@. :@@@*                              .+@@@@@@@@#-\n                     #@@@  -@@@=                            .*@@@@@@@@*.\n                  ...%@@@..=@@@=..                        :#@@@@@@@%=.\n                :@@@@@@@@@@@@@@@@@@                     -%@@@@@@@%-\n                 +++*@@@%++%@@@*++=                   :#@@@@@@@#:\n                    :@@@+  #@@@                     :#@@@@@@@#:\n                    -@@@=  %@@@                    +@@@@@@@%-\n                .#%%@@@@@%%@@@@%%%*              -@@@@@@@@*\n                .#%%@@@@%%%@@@@%%%*             *@@@@@@@@=\n                    #@@@  .@@@*               .%@@@@@@@@-\n                    %@@@  :@@@+              .%@@@@@@@@*\n                    @@@%  -@@@=              @@@@@@@@@@#**************************.\n                    @@@#  =@@@-              @@@@@@@@@@@@@@@@@@@@@@@@@@@@@@@@@@@@@:\n                    @@@+  =@@@.              @@@@@@@@@@@@@@@@@@@@@@@@@@@@@@@@@@@@@:\n                     :.    .:.               @@@@@@@@@@@@@@@@@@@@@@@@@@@@@@@@@@@@@:\n\n\n\n\n\n     */\n\n    /**\n     * @notice update fee paid to settlers\n     * @param newFee_ the new fee\n     * @param addy_ the address of the pool to update or the token used for the TokenDenominatedBinaryOptions pool (pass pA to use the default ETH pool)\n     */\n    function updateSettlerFee(uint256 newFee_, address addy_) external tierTwoDelegation {\n        if (addy_ == pA) {\n            INativeAssetDenominatedBinaryOptions pr = INativeAssetDenominatedBinaryOptions(pA);\n            pr.updateSettlerFee(newFee_);\n        } else {\n            TokenDenominatedBinaryOptionsFactory factory = TokenDenominatedBinaryOptionsFactory(fcry);\n            TokenDenominatedBinaryOptions pr = TokenDenominatedBinaryOptions(factory.getTokenDenominatedBinaryOptionsAddress(addy_));\n            pr.updateSettlerFee(newFee_);\n        }\n    }\n\n    /**\n     * @notice remove a trading pair\n     * @param oldPP_ the address of trading pair to be removed\n     */\n    function removeTradingPair(address oldPP_) external tierTwoDelegation {\n        APP app = APP(appA);\n        app.removePP(oldPP_);\n    }\n\n    /**\n     * @notice add (or update the RateCalc of existing) trading pair\n     * @param newPP_ the address of trading pair to be added\n     * @param newRateCalc_ the address of the rate calc to be used for this pair\n     */\n    function addUpdateTradingPair(address newPP_, address newRateCalc_) external tierTwoDelegation {\n        APP app = APP(appA);\n        app.addPP(newPP_, newRateCalc_);\n    }\n\n\n\n    /**\n     * @notice enable or disable BIOP rewards, only for the main ETH pool\n     * @param nx_ the new boolean value of rewardsEnabled\n     */\n    function enableRewards(bool nx_) external tierTwoDelegation {\n        INativeAssetDenominatedBinaryOptions pr = INativeAssetDenominatedBinaryOptions(pA);\n        pr.enableRewards(nx_);\n    }\n\n      /**\n     * @notice distribute treasury ETH funds to some destination\n     * @param amount the new amount to send from the treasury, in wei\n     * @param destination where the ETH should be sent\n     */\n    function sendTreasuryFunds(uint256 amount, address payable destination) external tierTwoDelegation {\n        Treasury ty = Treasury(trsy);\n        uint256 toAdd = ty.sendFunds(amount, destination);\n        trg = trg.add(toAdd);\n    }\n\n    /**\n     * @notice distribute treasury ERC20 funds to some destination\n     * @param token the ERC20 address to transfer tokens of\n     * @param amount the new amount to send from the treasury, in wei equivalent\n     * @param destination where the tokens should be sent\n     */\n    function sendTreasuryERC20Funds(address token, uint256 amount, address payable destination) external tierTwoDelegation {\n        Treasury ty = Treasury(trsy);\n        ty.sendERC20Funds(token, amount, destination);\n    }\n\n    /*\n\n\n                                                        .:::::::::.\n                                               .-=*#%@@@@@@@@@@@@@@@@@#*=:\n          -+++++   #.                         %@@@@@@@@@@@@@@@@@@@@@@@@@@@@#=\n          +:+%.%  +%-  .*++*: =%++#:          %@@@@@@@@@@@@@@@@@@@@@@@@@@@@@@@+\n            +%     %-  +@==+=  @-             %@@@@#*=-:..      .:-+%@@@@@@@@@@%.\n           ++++. -++++  -+++. ++++            *+-.                   .+@@@@@@@@@%\n                                                                       :@@@@@@@@@-\n                                                                        +@@@@@@@@*\n                                                                        :@@@@@@@@*\n                                                                        :@@@@@@@@+\n                                                                        =@@@@@@@@:\n                                                                       .@@@@@@@@=\n                                                                      :%@@@@@@@=\n                                                                    .*@@@@@@@%:\n                                                                .:+#@@@@@@@#-\n                    .      .                       :======++*#%@@@@@@@@@*-\n                  -@@@-  =@@@:                     +@@@@@@@@@@@@@@@@%=.\n                  *@@@=  *@@@-                     +@@@@@@@@@@@@@@@@@@@#+-.\n                  #@@@-  #@@@:                     -++++++**#%%@@@@@@@@@@@@%+:\n                  %@@@.  %@@@.                                  .:=#@@@@@@@@@@%-\n                  @@@@   @@@@                                        :*@@@@@@@@@%.\n              :::-@@@@:::@@@@:::                                       .#@@@@@@@@@:\n             #@@@@@@@@@@@@@@@@@@#                                        #@@@@@@@@@.\n             :+++*@@@%++*@@@%+++:                                         @@@@@@@@@+\n                 -@@@*  =@@@+                                             *@@@@@@@@#\n                 =@@@+  +@@@=                                             +@@@@@@@@%\n             =###%@@@%##%@@@%###=                                         *@@@@@@@@#\n             *@@@@@@@@@@@@@@@@@@*                                        .@@@@@@@@@+\n                 #@@@:  %@@@.                                            %@@@@@@@@@.\n                 %@@@.  @@@@                                           .%@@@@@@@@@+\n                 @@@@  .@@@%                 +=:                     :*@@@@@@@@@@+\n                 @@@@  :@@@#                 %@@@@#+=-.          .-+%@@@@@@@@@@@-\n                .@@@%  -@@@*                 %@@@@@@@@@@@@%%%%%@@@@@@@@@@@@@@@=\n                 +%#-   *%#:                 %@@@@@@@@@@@@@@@@@@@@@@@@@@@@@*-\n                                             -+*#%@@@@@@@@@@@@@@@@@@@@%*=.\n                                                    ..:--=======--:.\n\n\n     */\n\n\n\n    /**\n     * @notice update soft lock time for the main pool.\n     * @param newLockSeconds_ the time (in seconds) of the soft pool lock\n     * @param addy_ the address of the pool to update or the token used for the TokenDenominatedBinaryOptions pool (pass pA to use the default ETH pool)\n     */\n    function updatePoolLockTime(uint256 newLockSeconds_, address addy_) external tierThreeDelegation {\n        if (addy_ == pA) {\n            INativeAssetDenominatedBinaryOptions pr = INativeAssetDenominatedBinaryOptions(pA);\n            pr.updatePoolLockSeconds(newLockSeconds_);\n        } else {\n            TokenDenominatedBinaryOptionsFactory factory = TokenDenominatedBinaryOptionsFactory(fcry);\n            TokenDenominatedBinaryOptions pr = TokenDenominatedBinaryOptions(factory.getTokenDenominatedBinaryOptionsAddress(addy_));\n            pr.updatePoolLockSeconds(newLockSeconds_);\n        }\n    }\n\n    /**\n     * @notice update the fee paid by trader when they make a trade\n     * @param newProtocolFee_ the time (in seconds) of the soft pool lock\n     * @param addy_ the address of the pool to update or the token used for the TokenDenominatedBinaryOptions pool (pass pA to use the default ETH pool)\n     */\n    function updateProtocolFee(uint256 newProtocolFee_, address addy_) external tierThreeDelegation {\n        if (addy_ == pA) {\n            NativeAssetDenominatedBinaryOptions pr = NativeAssetDenominatedBinaryOptions(pA);\n            pr.updateProtocolFee(newProtocolFee_);\n        } else {\n            TokenDenominatedBinaryOptionsFactory factory = TokenDenominatedBinaryOptionsFactory(fcry);\n            TokenDenominatedBinaryOptions pr = TokenDenominatedBinaryOptions(factory.getTokenDenominatedBinaryOptionsAddress(addy_));\n            pr.updateProtocolFee(newProtocolFee_);\n        }\n    }\n\n   /**\n     * @dev update APP\n     * @param newAPP_ the new approved price provider (and ratecalc contract to use). Must be a IAPP\n     * @param addy_ the address of the pool to update or the token used for the TokenDenominatedBinaryOptions pool (pass pA to use the default ETH pool)\n     */\n    function updateAPP(address newAPP_, address addy_) external tierThreeDelegation {\n\n        if (addy_ == pA) {\n            INativeAssetDenominatedBinaryOptions pr = INativeAssetDenominatedBinaryOptions(pA);\n            pr.updateAPP(newAPP_);\n        } else {\n            TokenDenominatedBinaryOptionsFactory factory = TokenDenominatedBinaryOptionsFactory(fcry);\n            TokenDenominatedBinaryOptions pr = TokenDenominatedBinaryOptions(factory.getTokenDenominatedBinaryOptionsAddress(addy_));\n            pr.updateAPP(newAPP_);\n        }\n    }\n\n    /**\n     * @dev update owner of Utilization rewards contract address\n     * @param uR_ the utilization rewards contract address\n     * @param addy_ the address of the new owner\n     */\n    function updateUROwner(address uR_, address payable addy_) external tierThreeDelegation {\n        UtilizationRewards ur = UtilizationRewards(uR_);\n       ur.transferDAO(addy_);\n    }\n\n\n    /**\n     * @notice deactivate a TokenDenominatedBinaryOptions pool\n     */\n    function deactivateTokenDenominatedBinaryOptions(address token_) public {\n        TokenDenominatedBinaryOptionsFactory factory =TokenDenominatedBinaryOptionsFactory(fcry);\n        require(factory.getTokenDenominatedBinaryOptionsAddress(token_) != 0x0000000000000000000000000000000000000000, \"pool for this token already exists, replace it instead\");\n        factory.removePool(token_);\n    }\n\n    /*\n\n\n\n\n\n                       -                                       +######:\n                %*@*+ =*   -=-  =:==                         .%@@@@@@@-\n                .:%    @  +#-+= ++ .                        =@@@@@@@@@-\n                .=== .===. -==:.==-                       .#@@@@@@@@@@-\n                                                         =@@@@@@%@@@@@-\n                                                        *@@@@@#.*@@@@@-\n                                                      -@@@@@@+  *@@@@@-\n                                                     *@@@@@#.   *@@@@@-\n                                                   -@@@@@@=     *@@@@@-\n                                                  *@@@@@%.      *@@@@@-\n                                                :%@@@@@+        *@@@@@-\n                       --   .-:                +@@@@@%:         *@@@@@-\n                      +@@*  @@@.             .%@@@@@+           *@@@@@-\n                      *@@+  @@@.            =@@@@@%:            *@@@@@-\n                      #@@= .@@@           .#@@@@@+              *@@@@@-\n                      %@@- -@@%          =@@@@@%-               *@@@@@-\n                  :***@@@#*#@@@**=      *@@@@@@#################@@@@@@%######-\n                  =#%%@@@%%@@@@%%+      %@@@@@@@@@@@@@@@@@@@@@@@@@@@@@@@@@@@@+\n                     .@@@  +@@+         %@@@@@@@@@@@@@@@@@@@@@@@@@@@@@@@@@@@@+\n                     -@@@  #@@=         .......................:@@@@@@+......\n                  +@@@@@@@@@@@@@@#                             .@@@@@@-\n                  .-=#@@%==@@@+==:                             .@@@@@@-\n                     *@@*  @@@.                                .@@@@@@-\n                     #@@+ .@@@                                 .@@@@@@-\n                     %@@= :@@@                                 .@@@@@@-\n                     *@%. .%@+                                 .@@@@@@-\n                                                                ******:\n\n     */\n\n      /**\n     * @notice change the amount (as percent) that is sent direct to dao stakers when treasury sends ETH funds\n     * @param new_ the new percent. (100 = 100%, 10 = 10%, 2 = 2%)\n     */\n    function updateStakersPercent(uint256 new_) external tierFourDelegation {\n        Treasury ty = Treasury(trsy);\n        ty.updateStakerPercent(new_);\n    }\n\n\n       /**\n     * @notice change the owner of treasury\n     * @param new_ the address of new governance address\n     */\n    function updateTreasuryOwner(address payable new_) external tierFourDelegation {\n        Treasury ty = Treasury(trsy);\n        ty.updateDAO(new_);\n    }\n\n     /**\n     * @notice change the access tiers contract address used to guard all access tier functions\n     * @param newAccessTiers_ the new access tiers contract to use. It should conform to AccessTiers interface\n     */\n    function updateAccessTiers(address newAccessTiers_) external tierFourDelegation {\n        aTA = newAccessTiers_;\n    }\n\n    /**\n     * @notice prevent new deposits into the pool. Effectivly end that pool.\n     * @param addy_ the address of the pool to update or the token used for the TokenDenominatedBinaryOptions pool (pass pA to use the default ETH pool)\n     */\n    function closeStaking(address addy_) external tierFourDelegation {\n         if (addy_ == pA) {\n            INativeAssetDenominatedBinaryOptions pr = INativeAssetDenominatedBinaryOptions(pA);\n            pr.closeStaking();\n        } else {\n            TokenDenominatedBinaryOptionsFactory factory = TokenDenominatedBinaryOptionsFactory(fcry);\n            TokenDenominatedBinaryOptions pr = TokenDenominatedBinaryOptions(factory.getTokenDenominatedBinaryOptionsAddress(addy_));\n            pr.closeStaking();\n        }\n    }\n\n    /**\n     * @dev update reward base amount, only for main ETH pool\n     * @param newUR the new UtilizationRewards contract to use\n     */\n    function updateUtilizationRewards(address newUR) external tierFourDelegation {\n        INativeAssetDenominatedBinaryOptions pr = INativeAssetDenominatedBinaryOptions(pA);\n        pr.updateUtilizationRewards(newUR);\n    }\n\n\n\n\n    /**\n     * @notice update the main ETH pool\n     * @param a the address of the new INativeAssetDenominatedBinaryOptions pool to use\n     */\n    function updateProtocol(address payable a) external tierFourDelegation {\n        INativeAssetDenominatedBinaryOptions t = INativeAssetDenominatedBinaryOptions(a);\n        tA = a;\n    }\n\n    /**\n     * @notice update the factoryOwner\n     * @param a the address of the new DAO to control the factory\n     */\n    function updateFactoryOwner(address payable a) external tierFourDelegation {\n        TokenDenominatedBinaryOptionsFactory factory = TokenDenominatedBinaryOptionsFactory(fcry);\n        factory.transferOwner(a);\n    }\n\n    /**\n     * @notice update the factory\n     * @param a the address of the new factory to be controlled by the DAO\n     */\n    function updateFactory(address payable a) external tierFourDelegation {\n        fcry = a;\n    }\n\n}\n",
  "sourcePath": "/Users/x/Desktop/eth/BIOPv4/contracts/DAO.sol",
  "compiler": {
    "name": "solc",
    "version": "0.6.6+commit.6c089d02.Emscripten.clang"
  },
  "schemaVersion": "3.3.4",
  "updatedAt": "2021-06-14T19:21:29.570Z",
  "devdoc": {
    "author": "github.com/Shalquiana",
    "details": "governance for endorsing biopset protocol changes",
    "methods": {
      "addUpdateTradingPair(address,address)": {
        "params": {
          "newPP_": "the address of trading pair to be added",
          "newRateCalc_": "the address of the rate calc to be used for this pair"
        }
      },
      "bRSLC(address)": {
        "params": {
          "acc": "the account to get the answer for"
        }
      },
      "closeStaking(address)": {
        "params": {
          "addy_": "the address of the pool to update or the token used for the TokenDenominatedBinaryOptions pool (pass pA to use the default ETH pool)"
        }
      },
      "createTokenDenominatedBinaryOptions(address)": {
        "params": {
          "token_": "the erc20 address to underwrite the new pool"
        }
      },
      "enableRewards(bool)": {
        "params": {
          "nx_": "the new boolean value of rewardsEnabled"
        }
      },
      "endorse(address)": {
        "params": {
          "newSha": "the address to endorse"
        }
      },
      "removeTradingPair(address)": {
        "params": {
          "oldPP_": "the address of trading pair to be removed"
        }
      },
      "sendTreasuryERC20Funds(address,uint256,address)": {
        "params": {
          "amount": "the new amount to send from the treasury, in wei equivalent",
          "destination": "where the tokens should be sent",
          "token": "the ERC20 address to transfer tokens of"
        }
      },
      "sendTreasuryFunds(uint256,address)": {
        "params": {
          "amount": "the new amount to send from the treasury, in wei",
          "destination": "where the ETH should be sent"
        }
      },
      "stake(uint256)": {
        "params": {
          "amount": "the amount in BIOP you want to stake"
        }
      },
      "uMNOT(uint256,address)": {
        "params": {
          "addy_": "the address of the pool to update or the token used for the TokenDenominatedBinaryOptions pool (pass pA to use the default ETH pool)",
          "nMT_": "the time (in seconds) of maximum possible binary option"
        }
      },
      "uMXOT(uint256,address)": {
        "params": {
          "addy_": "the address of the pool to update or the token used for the TokenDenominatedBinaryOptions pool (pass pA to use the default ETH pool)",
          "nMT_": "the time (in seconds) of maximum possible binary option"
        }
      },
      "updateAPP(address,address)": {
        "details": "update APP",
        "params": {
          "addy_": "the address of the pool to update or the token used for the TokenDenominatedBinaryOptions pool (pass pA to use the default ETH pool)",
          "newAPP_": "the new approved price provider (and ratecalc contract to use). Must be a IAPP"
        }
      },
      "updateAccessTiers(address)": {
        "params": {
          "newAccessTiers_": "the new access tiers contract to use. It should conform to AccessTiers interface"
        }
      },
      "updateFactory(address)": {
        "params": {
          "a": "the address of the new factory to be controlled by the DAO"
        }
      },
      "updateFactoryOwner(address)": {
        "params": {
          "a": "the address of the new DAO to control the factory"
        }
      },
      "updatePoolLockTime(uint256,address)": {
        "params": {
          "addy_": "the address of the pool to update or the token used for the TokenDenominatedBinaryOptions pool (pass pA to use the default ETH pool)",
          "newLockSeconds_": "the time (in seconds) of the soft pool lock"
        }
      },
      "updateProtocol(address)": {
        "params": {
          "a": "the address of the new INativeAssetDenominatedBinaryOptions pool to use"
        }
      },
      "updateProtocolFee(uint256,address)": {
        "params": {
          "addy_": "the address of the pool to update or the token used for the TokenDenominatedBinaryOptions pool (pass pA to use the default ETH pool)",
          "newProtocolFee_": "the time (in seconds) of the soft pool lock"
        }
      },
      "updateSettlerFee(uint256,address)": {
        "params": {
          "addy_": "the address of the pool to update or the token used for the TokenDenominatedBinaryOptions pool (pass pA to use the default ETH pool)",
          "newFee_": "the new fee"
        }
      },
      "updateStakersPercent(uint256)": {
        "params": {
          "new_": "the new percent. (100 = 100%, 10 = 10%, 2 = 2%)"
        }
      },
      "updateTreasuryOwner(address)": {
        "params": {
          "new_": "the address of new governance address"
        }
      },
      "updateUROwner(address,address)": {
        "details": "update owner of Utilization rewards contract address",
        "params": {
          "addy_": "the address of the new owner",
          "uR_": "the utilization rewards contract address"
        }
      },
      "updateUtilizationRewards(address)": {
        "details": "update reward base amount, only for main ETH pool",
        "params": {
          "newUR": "the new UtilizationRewards contract to use"
        }
      },
      "withdraw(uint256)": {
        "params": {
          "amount": "the amount in BIOP you want to withdraw"
        }
      }
    },
    "title": "DAO"
  },
  "userdoc": {
    "methods": {
      "addUpdateTradingPair(address,address)": {
        "notice": "add (or update the RateCalc of existing) trading pair"
      },
      "bRSLC(address)": {
        "notice": "base ETH rewards since last claim"
      },
      "closeStaking(address)": {
        "notice": "prevent new deposits into the pool. Effectivly end that pool."
      },
      "createTokenDenominatedBinaryOptions(address)": {
        "notice": "create a new TokenDenominatedBinaryOptions pool"
      },
      "deactivateTokenDenominatedBinaryOptions(address)": {
        "notice": "deactivate a TokenDenominatedBinaryOptions pool"
      },
      "enableRewards(bool)": {
        "notice": "enable or disable BIOP rewards, only for the main ETH pool"
      },
      "endorse(address)": {
        "notice": "endorses your voting power to a specific address(sha)"
      },
      "removeTradingPair(address)": {
        "notice": "remove a trading pair"
      },
      "sendTreasuryERC20Funds(address,uint256,address)": {
        "notice": "distribute treasury ERC20 funds to some destination"
      },
      "sendTreasuryFunds(uint256,address)": {
        "notice": "distribute treasury ETH funds to some destination"
      },
      "stake(uint256)": {
        "notice": "stake your BIOP and begin earning rewards"
      },
      "uMNOT(uint256,address)": {
        "notice": "update the maximum time an option can be created for"
      },
      "uMXOT(uint256,address)": {
        "notice": "update the maximum time an option can be created for"
      },
      "unendorse()": {
        "notice": "unendorse your voting power. you will still earn staking rewards but your voting power won't back anyone."
      },
      "updateAccessTiers(address)": {
        "notice": "change the access tiers contract address used to guard all access tier functions"
      },
      "updateFactory(address)": {
        "notice": "update the factory"
      },
      "updateFactoryOwner(address)": {
        "notice": "update the factoryOwner"
      },
      "updatePoolLockTime(uint256,address)": {
        "notice": "update soft lock time for the main pool."
      },
      "updateProtocol(address)": {
        "notice": "update the main ETH pool"
      },
      "updateProtocolFee(uint256,address)": {
        "notice": "update the fee paid by trader when they make a trade"
      },
      "updateSettlerFee(uint256,address)": {
        "notice": "update fee paid to settlers"
      },
      "updateStakersPercent(uint256)": {
        "notice": "change the amount (as percent) that is sent direct to dao stakers when treasury sends ETH funds"
      },
      "updateTreasuryOwner(address)": {
        "notice": "change the owner of treasury"
      },
      "withdraw(uint256)": {
        "notice": "withdraw your BIOP and stop earning rewards. You must unendorse before you can withdraw"
      }
    },
    "notice": "governance for endorsing biopset protocol changes BIOP"
  }
}