{
  "contractName": "DelegatedAccessTiers",
  "abi": [
    {
      "inputs": [
        {
          "internalType": "uint256",
          "name": "power",
          "type": "uint256"
        },
        {
          "internalType": "uint256",
          "name": "total",
          "type": "uint256"
        }
      ],
      "name": "tier1",
      "outputs": [
        {
          "internalType": "bool",
          "name": "",
          "type": "bool"
        }
      ],
      "stateMutability": "nonpayable",
      "type": "function"
    },
    {
      "inputs": [
        {
          "internalType": "uint256",
          "name": "power",
          "type": "uint256"
        },
        {
          "internalType": "uint256",
          "name": "total",
          "type": "uint256"
        }
      ],
      "name": "tier2",
      "outputs": [
        {
          "internalType": "bool",
          "name": "",
          "type": "bool"
        }
      ],
      "stateMutability": "nonpayable",
      "type": "function"
    },
    {
      "inputs": [
        {
          "internalType": "uint256",
          "name": "power",
          "type": "uint256"
        },
        {
          "internalType": "uint256",
          "name": "total",
          "type": "uint256"
        }
      ],
      "name": "tier3",
      "outputs": [
        {
          "internalType": "bool",
          "name": "",
          "type": "bool"
        }
      ],
      "stateMutability": "nonpayable",
      "type": "function"
    },
    {
      "inputs": [
        {
          "internalType": "uint256",
          "name": "power",
          "type": "uint256"
        },
        {
          "internalType": "uint256",
          "name": "total",
          "type": "uint256"
        }
      ],
      "name": "tier4",
      "outputs": [
        {
          "internalType": "bool",
          "name": "",
          "type": "bool"
        }
      ],
      "stateMutability": "nonpayable",
      "type": "function"
    }
  ],
  "bytecode": "0x608060405234801561001057600080fd5b50610316806100206000396000f3fe608060405234801561001057600080fd5b506004361061004c5760003560e01c80632786d65e1461005157806360e96238146100885780636aac3462146100ab578063b930926b146100ce575b600080fd5b6100746004803603604081101561006757600080fd5b50803590602001356100f1565b604080519115158252519081900360200190f35b6100746004803603604081101561009e57600080fd5b5080359060200135610135565b610074600480360360408110156100c157600080fd5b5080359060200135610149565b610074600480360360408110156100e457600080fd5b5080359060200135610162565b600080610116600961010a85600a63ffffffff61017b16565b9063ffffffff6101c416565b905080841061012957600191505061012f565b60009150505b92915050565b60008061011683600263ffffffff61017b16565b600080610116600361010a85600463ffffffff61017b16565b600080610116600261010a85600363ffffffff61017b16565b60006101bd83836040518060400160405280601a81526020017f536166654d6174683a206469766973696f6e206279207a65726f00000000000081525061021d565b9392505050565b6000826101d35750600061012f565b828202828482816101e057fe5b04146101bd5760405162461bcd60e51b81526004018080602001828103825260218152602001806102c06021913960400191505060405180910390fd5b600081836102a95760405162461bcd60e51b81526004018080602001828103825283818151815260200191508051906020019080838360005b8381101561026e578181015183820152602001610256565b50505050905090810190601f16801561029b5780820380516001836020036101000a031916815260200191505b509250505060405180910390fd5b5060008385816102b557fe5b049594505050505056fe536166654d6174683a206d756c7469706c69636174696f6e206f766572666c6f77a2646970667358221220177af9c650691c3a3f30b40967efa18e8164711d798b818a1c57ca1016f7363c64736f6c63430006060033",
  "immutableReferences": {},
  "source": "pragma solidity ^0.6.6;\n\nimport \"@openzeppelin/contracts/math/SafeMath.sol\";\nimport \"./interfaces/IAccessTiers.sol\";\n\ncontract DelegatedAccessTiers is IAccessTiers {\n    using SafeMath for uint256;\n    function tier1(uint256 power, uint256 total) external override returns (bool) {\n        uint256 half = total.div(2);\n        if (power >= half) {\n            return true;\n        }\n        return false;\n    }\n\n    function tier2(uint256 power, uint256 total) external override returns (bool) {\n        uint256 twothirds = total.div(3).mul(2);\n        if (power >= twothirds) {\n            return true;\n        }\n        return false;\n    }\n\n    function tier3(uint256 power, uint256 total) external override returns (bool) {\n        uint256 threeQuarters = total.div(4).mul(3);\n        if (power >= threeQuarters) {\n            return true;\n        }\n        return false;\n    }\n\n    function tier4(uint256 power, uint256 total) external override returns (bool) {\n        uint256 ninety = total.div(10).mul(9);\n        if (power >= ninety) {\n            return true;\n        }\n        return false;\n    }\n}",
  "sourcePath": "/Users/x/Desktop/eth/BIOPv4/contracts/DelegatedAccessTiers.sol",
  "compiler": {
    "name": "solc",
    "version": "0.6.6+commit.6c089d02.Emscripten.clang"
  },
  "schemaVersion": "3.3.4",
  "updatedAt": "2021-06-05T16:25:03.407Z",
  "networkType": "ethereum",
  "devdoc": {
    "methods": {}
  },
  "userdoc": {
    "methods": {}
  }
}