{
  "contractName": "DelegatedGov",
  "abi": [
    {
      "inputs": [
        {
          "internalType": "address",
          "name": "bo_",
          "type": "address"
        },
        {
          "internalType": "address",
          "name": "v3_",
          "type": "address"
        },
        {
          "internalType": "address",
          "name": "accessTiers_",
          "type": "address"
        },
        {
          "internalType": "address payable",
          "name": "proxy_",
          "type": "address"
        },
        {
          "internalType": "address",
          "name": "app_",
          "type": "address"
        },
        {
          "internalType": "address",
          "name": "factory_",
          "type": "address"
        }
      ],
      "stateMutability": "nonpayable",
      "type": "constructor"
    },
    {
      "anonymous": false,
      "inputs": [
        {
          "indexed": false,
          "internalType": "uint256",
          "name": "amount",
          "type": "uint256"
        },
        {
          "indexed": false,
          "internalType": "uint256",
          "name": "total",
          "type": "uint256"
        }
      ],
      "name": "Stake",
      "type": "event"
    },
    {
      "anonymous": false,
      "inputs": [
        {
          "indexed": false,
          "internalType": "uint256",
          "name": "amount",
          "type": "uint256"
        },
        {
          "indexed": false,
          "internalType": "uint256",
          "name": "total",
          "type": "uint256"
        }
      ],
      "name": "Withdraw",
      "type": "event"
    },
    {
      "stateMutability": "payable",
      "type": "fallback"
    },
    {
      "inputs": [],
      "name": "aTA",
      "outputs": [
        {
          "internalType": "address",
          "name": "",
          "type": "address"
        }
      ],
      "stateMutability": "view",
      "type": "function"
    },
    {
      "inputs": [],
      "name": "appA",
      "outputs": [
        {
          "internalType": "address",
          "name": "",
          "type": "address"
        }
      ],
      "stateMutability": "view",
      "type": "function"
    },
    {
      "inputs": [],
      "name": "fcry",
      "outputs": [
        {
          "internalType": "address",
          "name": "",
          "type": "address"
        }
      ],
      "stateMutability": "view",
      "type": "function"
    },
    {
      "inputs": [
        {
          "internalType": "address",
          "name": "",
          "type": "address"
        }
      ],
      "name": "lrc",
      "outputs": [
        {
          "internalType": "uint256",
          "name": "",
          "type": "uint256"
        }
      ],
      "stateMutability": "view",
      "type": "function"
    },
    {
      "inputs": [],
      "name": "pA",
      "outputs": [
        {
          "internalType": "address",
          "name": "",
          "type": "address"
        }
      ],
      "stateMutability": "view",
      "type": "function"
    },
    {
      "inputs": [],
      "name": "pX",
      "outputs": [
        {
          "internalType": "address payable",
          "name": "",
          "type": "address"
        }
      ],
      "stateMutability": "view",
      "type": "function"
    },
    {
      "inputs": [
        {
          "internalType": "address",
          "name": "",
          "type": "address"
        }
      ],
      "name": "rep",
      "outputs": [
        {
          "internalType": "address",
          "name": "",
          "type": "address"
        }
      ],
      "stateMutability": "view",
      "type": "function"
    },
    {
      "inputs": [
        {
          "internalType": "address",
          "name": "",
          "type": "address"
        }
      ],
      "name": "shas",
      "outputs": [
        {
          "internalType": "uint256",
          "name": "",
          "type": "uint256"
        }
      ],
      "stateMutability": "view",
      "type": "function"
    },
    {
      "inputs": [
        {
          "internalType": "address",
          "name": "",
          "type": "address"
        }
      ],
      "name": "staked",
      "outputs": [
        {
          "internalType": "uint256",
          "name": "",
          "type": "uint256"
        }
      ],
      "stateMutability": "view",
      "type": "function"
    },
    {
      "inputs": [],
      "name": "tA",
      "outputs": [
        {
          "internalType": "address",
          "name": "",
          "type": "address"
        }
      ],
      "stateMutability": "view",
      "type": "function"
    },
    {
      "inputs": [],
      "name": "trg",
      "outputs": [
        {
          "internalType": "uint256",
          "name": "",
          "type": "uint256"
        }
      ],
      "stateMutability": "view",
      "type": "function"
    },
    {
      "inputs": [],
      "name": "trsy",
      "outputs": [
        {
          "internalType": "address payable",
          "name": "",
          "type": "address"
        }
      ],
      "stateMutability": "view",
      "type": "function"
    },
    {
      "inputs": [],
      "name": "totalStaked",
      "outputs": [
        {
          "internalType": "uint256",
          "name": "",
          "type": "uint256"
        }
      ],
      "stateMutability": "view",
      "type": "function"
    },
    {
      "inputs": [
        {
          "internalType": "uint256",
          "name": "amount",
          "type": "uint256"
        }
      ],
      "name": "stake",
      "outputs": [],
      "stateMutability": "nonpayable",
      "type": "function"
    },
    {
      "inputs": [
        {
          "internalType": "uint256",
          "name": "amount",
          "type": "uint256"
        }
      ],
      "name": "withdraw",
      "outputs": [],
      "stateMutability": "nonpayable",
      "type": "function"
    },
    {
      "inputs": [
        {
          "internalType": "address payable",
          "name": "newSha",
          "type": "address"
        }
      ],
      "name": "delegate",
      "outputs": [],
      "stateMutability": "nonpayable",
      "type": "function"
    },
    {
      "inputs": [],
      "name": "undelegate",
      "outputs": [],
      "stateMutability": "nonpayable",
      "type": "function"
    },
    {
      "inputs": [
        {
          "internalType": "address",
          "name": "acc",
          "type": "address"
        }
      ],
      "name": "bRSLC",
      "outputs": [
        {
          "internalType": "uint256",
          "name": "",
          "type": "uint256"
        }
      ],
      "stateMutability": "view",
      "type": "function"
    },
    {
      "inputs": [
        {
          "internalType": "address",
          "name": "account",
          "type": "address"
        }
      ],
      "name": "pendingETHRewards",
      "outputs": [
        {
          "internalType": "uint256",
          "name": "",
          "type": "uint256"
        }
      ],
      "stateMutability": "view",
      "type": "function"
    },
    {
      "inputs": [],
      "name": "claimETHRewards",
      "outputs": [],
      "stateMutability": "nonpayable",
      "type": "function"
    },
    {
      "inputs": [],
      "name": "sRTG",
      "outputs": [],
      "stateMutability": "nonpayable",
      "type": "function"
    },
    {
      "inputs": [
        {
          "internalType": "address",
          "name": "token_",
          "type": "address"
        }
      ],
      "name": "createEBOP20",
      "outputs": [],
      "stateMutability": "nonpayable",
      "type": "function"
    },
    {
      "inputs": [
        {
          "internalType": "uint256",
          "name": "nMT_",
          "type": "uint256"
        },
        {
          "internalType": "address",
          "name": "addy_",
          "type": "address"
        }
      ],
      "name": "uMXOT",
      "outputs": [],
      "stateMutability": "nonpayable",
      "type": "function"
    },
    {
      "inputs": [
        {
          "internalType": "uint256",
          "name": "nMT_",
          "type": "uint256"
        },
        {
          "internalType": "address",
          "name": "addy_",
          "type": "address"
        }
      ],
      "name": "uMNOT",
      "outputs": [],
      "stateMutability": "nonpayable",
      "type": "function"
    },
    {
      "inputs": [
        {
          "internalType": "uint256",
          "name": "newFee_",
          "type": "uint256"
        },
        {
          "internalType": "address",
          "name": "addy_",
          "type": "address"
        }
      ],
      "name": "updateExerciserFee",
      "outputs": [],
      "stateMutability": "nonpayable",
      "type": "function"
    },
    {
      "inputs": [
        {
          "internalType": "uint256",
          "name": "newFee_",
          "type": "uint256"
        },
        {
          "internalType": "address",
          "name": "addy_",
          "type": "address"
        }
      ],
      "name": "updateExpirerFee",
      "outputs": [],
      "stateMutability": "nonpayable",
      "type": "function"
    },
    {
      "inputs": [
        {
          "internalType": "address",
          "name": "oldPP_",
          "type": "address"
        }
      ],
      "name": "removeTradingPair",
      "outputs": [],
      "stateMutability": "nonpayable",
      "type": "function"
    },
    {
      "inputs": [
        {
          "internalType": "address",
          "name": "newPP_",
          "type": "address"
        },
        {
          "internalType": "address",
          "name": "newRateCalc_",
          "type": "address"
        }
      ],
      "name": "addUpdateTradingPair",
      "outputs": [],
      "stateMutability": "nonpayable",
      "type": "function"
    },
    {
      "inputs": [
        {
          "internalType": "bool",
          "name": "nx_",
          "type": "bool"
        }
      ],
      "name": "enableRewards",
      "outputs": [],
      "stateMutability": "nonpayable",
      "type": "function"
    },
    {
      "inputs": [
        {
          "internalType": "uint256",
          "name": "n_",
          "type": "uint256"
        }
      ],
      "name": "updateGovProxyFee",
      "outputs": [],
      "stateMutability": "nonpayable",
      "type": "function"
    },
    {
      "inputs": [
        {
          "internalType": "uint256",
          "name": "amount",
          "type": "uint256"
        },
        {
          "internalType": "address payable",
          "name": "destination",
          "type": "address"
        }
      ],
      "name": "sendTreasuryFunds",
      "outputs": [],
      "stateMutability": "nonpayable",
      "type": "function"
    },
    {
      "inputs": [
        {
          "internalType": "address",
          "name": "token",
          "type": "address"
        },
        {
          "internalType": "uint256",
          "name": "amount",
          "type": "uint256"
        },
        {
          "internalType": "address payable",
          "name": "destination",
          "type": "address"
        }
      ],
      "name": "sendTreasuryERC20Funds",
      "outputs": [],
      "stateMutability": "nonpayable",
      "type": "function"
    },
    {
      "inputs": [
        {
          "internalType": "uint256",
          "name": "newLockSeconds_",
          "type": "uint256"
        },
        {
          "internalType": "address",
          "name": "addy_",
          "type": "address"
        }
      ],
      "name": "updatePoolLockTime",
      "outputs": [],
      "stateMutability": "nonpayable",
      "type": "function"
    },
    {
      "inputs": [
        {
          "internalType": "uint256",
          "name": "newBetFee_",
          "type": "uint256"
        },
        {
          "internalType": "address",
          "name": "addy_",
          "type": "address"
        }
      ],
      "name": "updateBetFee",
      "outputs": [],
      "stateMutability": "nonpayable",
      "type": "function"
    },
    {
      "inputs": [
        {
          "internalType": "address",
          "name": "newAPP_",
          "type": "address"
        },
        {
          "internalType": "address",
          "name": "addy_",
          "type": "address"
        }
      ],
      "name": "updateAPP",
      "outputs": [],
      "stateMutability": "nonpayable",
      "type": "function"
    },
    {
      "inputs": [
        {
          "internalType": "uint256",
          "name": "new_",
          "type": "uint256"
        }
      ],
      "name": "updateTrsyPercent",
      "outputs": [],
      "stateMutability": "nonpayable",
      "type": "function"
    },
    {
      "inputs": [
        {
          "internalType": "address",
          "name": "token_",
          "type": "address"
        }
      ],
      "name": "deactivateEBOP20",
      "outputs": [],
      "stateMutability": "nonpayable",
      "type": "function"
    },
    {
      "inputs": [
        {
          "internalType": "address payable",
          "name": "new_",
          "type": "address"
        }
      ],
      "name": "updateTrsyAddy",
      "outputs": [],
      "stateMutability": "nonpayable",
      "type": "function"
    },
    {
      "inputs": [
        {
          "internalType": "address",
          "name": "newAccessTiers_",
          "type": "address"
        }
      ],
      "name": "updateAccessTiers",
      "outputs": [],
      "stateMutability": "nonpayable",
      "type": "function"
    },
    {
      "inputs": [
        {
          "internalType": "address",
          "name": "addy_",
          "type": "address"
        }
      ],
      "name": "closeStaking",
      "outputs": [],
      "stateMutability": "nonpayable",
      "type": "function"
    },
    {
      "inputs": [
        {
          "internalType": "address",
          "name": "newUR",
          "type": "address"
        }
      ],
      "name": "updateUtilizationRewards",
      "outputs": [],
      "stateMutability": "nonpayable",
      "type": "function"
    },
    {
      "inputs": [
        {
          "internalType": "address payable",
          "name": "a",
          "type": "address"
        }
      ],
      "name": "updateBIOPToken",
      "outputs": [],
      "stateMutability": "nonpayable",
      "type": "function"
    },
    {
      "inputs": [
        {
          "internalType": "address payable",
          "name": "a",
          "type": "address"
        }
      ],
      "name": "updateProtocol",
      "outputs": [],
      "stateMutability": "nonpayable",
      "type": "function"
    },
    {
      "inputs": [
        {
          "internalType": "address payable",
          "name": "a",
          "type": "address"
        }
      ],
      "name": "updateFactoryOwner",
      "outputs": [],
      "stateMutability": "nonpayable",
      "type": "function"
    },
    {
      "inputs": [
        {
          "internalType": "address payable",
          "name": "a",
          "type": "address"
        }
      ],
      "name": "updateFactory",
      "outputs": [],
      "stateMutability": "nonpayable",
      "type": "function"
    }
  ],
  "bytecode": "0x60806040526000600a556000600b5534801561001a57600080fd5b5060405161392f38038061392f833981810160405260c081101561003d57600080fd5b508051602082015160408301516060840151608085015160a090950151600080546001600160a01b039687166001600160a01b0319918216179091556002805495871695821695909517909455600380549386169385169390931790925560058054918516918416919091179055600180549484169483169490941790935560048054929093169116179055613857806100d86000396000f3fe6080604052600436106102725760003560e01c80638b49ea6d1161014f578063aabe7579116100c1578063d469ce481161007a578063d469ce4814610921578063d52dca1014610954578063d89d00a214610987578063d9f165dc146109b1578063ecc7e82e146109e4578063f1fb658f14610a1d57610272565b8063aabe757914610839578063b4b72c1d1461087c578063b57ef6a814610891578063b7314189146108c4578063beece98c146108d9578063c81461d61461090c57610272565b80639a7540e4116101135780639a7540e4146107275780639b1559c314610760578063a509dcb51461078c578063a694fc3a146107a1578063a8fddd69146107cb578063a9d6279d1461080657610272565b80638b49ea6d146106325780638d64f1e61461066b57806392ab89bb146106a457806395866ba6146106b957806398807d84146106f457610272565b80634fdac7af116101e85780636d095514116101ac5780636d0955141461055a578063727a573c1461058d57806379da7e4d146105c05780637c3d7c6d146105d5578063816670f3146105ea578063817b1cd21461061d57610272565b80634fdac7af146104915780635c19a95c146104a65780635eeca82b146104d95780636a92cf8b146105125780636c91eb1e1461054557610272565b80632f6452521161023a5780632f645252146103805780633236ed56146103b3578063343bfd44146103e657806337fef88314610410578063480ea6281461044957806349be4c331461045e57610272565b806308433c25146102745780631fa33815146102ad57806322d2d4a1146102e05780632e1a7d4d146103255780632e7be65b1461034f575b005b34801561028057600080fd5b506102726004803603604081101561029757600080fd5b50803590602001356001600160a01b0316610a50565b3480156102b957600080fd5b50610272600480360360208110156102d057600080fd5b50356001600160a01b0316610c92565b3480156102ec57600080fd5b506103136004803603602081101561030357600080fd5b50356001600160a01b0316610d01565b60408051918252519081900360200190f35b34801561033157600080fd5b506102726004803603602081101561034857600080fd5b5035610d57565b34801561035b57600080fd5b50610364610f7c565b604080516001600160a01b039092168252519081900360200190f35b34801561038c57600080fd5b50610272600480360360208110156103a357600080fd5b50356001600160a01b0316610f8b565b3480156103bf57600080fd5b50610364600480360360208110156103d657600080fd5b50356001600160a01b0316611081565b3480156103f257600080fd5b506102726004803603602081101561040957600080fd5b503561109c565b34801561041c57600080fd5b506102726004803603604081101561043357600080fd5b50803590602001356001600160a01b03166111da565b34801561045557600080fd5b506103136113de565b34801561046a57600080fd5b506103136004803603602081101561048157600080fd5b50356001600160a01b03166113e4565b34801561049d57600080fd5b506103646113f6565b3480156104b257600080fd5b50610272600480360360208110156104c957600080fd5b50356001600160a01b0316611405565b3480156104e557600080fd5b50610272600480360360408110156104fc57600080fd5b50803590602001356001600160a01b0316611515565b34801561051e57600080fd5b506102726004803603602081101561053557600080fd5b50356001600160a01b0316611719565b34801561055157600080fd5b50610364611839565b34801561056657600080fd5b506103136004803603602081101561057d57600080fd5b50356001600160a01b0316611848565b34801561059957600080fd5b50610272600480360360208110156105b057600080fd5b50356001600160a01b0316611879565b3480156105cc57600080fd5b5061036461189b565b3480156105e157600080fd5b506102726118aa565b3480156105f657600080fd5b506102726004803603602081101561060d57600080fd5b50356001600160a01b0316611991565b34801561062957600080fd5b50610313611ab5565b34801561063e57600080fd5b506102726004803603604081101561065557600080fd5b50803590602001356001600160a01b0316611b35565b34801561067757600080fd5b506102726004803603604081101561068e57600080fd5b50803590602001356001600160a01b0316611d39565b3480156106b057600080fd5b50610272611f3d565b3480156106c557600080fd5b50610272600480360360408110156106dc57600080fd5b506001600160a01b0381358116916020013516611fcf565b34801561070057600080fd5b506103136004803603602081101561071757600080fd5b50356001600160a01b0316612119565b34801561073357600080fd5b506102726004803603604081101561074a57600080fd5b50803590602001356001600160a01b031661212b565b34801561076c57600080fd5b506102726004803603602081101561078357600080fd5b5035151561232f565b34801561079857600080fd5b5061036461244f565b3480156107ad57600080fd5b50610272600480360360208110156107c457600080fd5b503561245e565b3480156107d757600080fd5b50610272600480360360408110156107ee57600080fd5b506001600160a01b03813581169160200135166126d3565b34801561081257600080fd5b506102726004803603602081101561082957600080fd5b50356001600160a01b03166128da565b34801561084557600080fd5b506102726004803603606081101561085c57600080fd5b506001600160a01b03813581169160208101359160409091013516612af2565b34801561088857600080fd5b50610272612c25565b34801561089d57600080fd5b50610272600480360360208110156108b457600080fd5b50356001600160a01b0316612d06565b3480156108d057600080fd5b50610364612f31565b3480156108e557600080fd5b50610272600480360360208110156108fc57600080fd5b50356001600160a01b0316612f40565b34801561091857600080fd5b506103646130a1565b34801561092d57600080fd5b506102726004803603602081101561094457600080fd5b50356001600160a01b03166130b0565b34801561096057600080fd5b506102726004803603602081101561097757600080fd5b50356001600160a01b03166131db565b34801561099357600080fd5b50610272600480360360208110156109aa57600080fd5b50356132f7565b3480156109bd57600080fd5b50610272600480360360208110156109d457600080fd5b50356001600160a01b0316613418565b3480156109f057600080fd5b5061027260048036036040811015610a0757600080fd5b50803590602001356001600160a01b031661343a565b348015610a2957600080fd5b5061031360048036036020811015610a4057600080fd5b50356001600160a01b0316613565565b60035433600090815260076020908152604080832054600a548251630c1d2c4760e31b81526004810192909252602482015290516001600160a01b039094169384936360e9623893604480850194919392918390030190829087803b158015610ab857600080fd5b505af1158015610acc573d6000803e3d6000fd5b505050506040513d6020811015610ae257600080fd5b5051610b23576040805162461bcd60e51b815260206004820152601a60248201526000805160206137e1833981519152604482015290519081900360640190fd5b6000546001600160a01b0383811691161415610ba3576000805460408051631d983e2360e01b81526004810187905290516001600160a01b03909216928392631d983e2392602480820193929182900301818387803b158015610b8557600080fd5b505af1158015610b99573d6000803e3d6000fd5b5050505050610c8d565b600480546040805163410e5b0760e11b81526001600160a01b038681169482019490945290519290911691600091839163821cb60e9160248082019260209290919082900301818787803b158015610bfa57600080fd5b505af1158015610c0e573d6000803e3d6000fd5b505050506040513d6020811015610c2457600080fd5b50516040805163dbdf8dfb60e01b81526004810188905290519192506001600160a01b0383169163dbdf8dfb9160248082019260009290919082900301818387803b158015610c7257600080fd5b505af1158015610c86573d6000803e3d6000fd5b5050505050505b505050565b6004805460408051634fb2e45d60e01b81526001600160a01b0385811694820194909452905192909116918291634fb2e45d91602480830192600092919082900301818387803b158015610ce557600080fd5b505af1158015610cf9573d6000803e3d6000fd5b505050505050565b600080610d0d83611848565b9050610d50610d1a611ab5565b6001600160a01b038516600090815260096020526040902054610d4490849063ffffffff61357716565b9063ffffffff6135d016565b9392505050565b33600090815260096020526040902054811115610dac576040805162461bcd60e51b815260206004820152600e60248201526d1a5b9d985b1a5908185b5bdd5b9d60921b604482015290519081900360640190fd5b600254336000908152600860205260409020546001600160a01b03918216911615610dd657600080fd5b6040805163a9059cbb60e01b81523360048201526024810184905290516001600160a01b0383169163a9059cbb9160448083019260209291908290030181600087803b158015610e2557600080fd5b505af1158015610e39573d6000803e3d6000fd5b505050506040513d6020811015610e4f57600080fd5b5051610e93576040805162461bcd60e51b815260206004820152600e60248201526d1cdd185ada5b99c819985a5b195960921b604482015290519081900360640190fd5b33600090815260096020526040902054610eb3908363ffffffff61361216565b3360009081526009602090815260408083209390935582516370a0823160e01b8152306004820152925191926001600160a01b038516926370a0823192602480840193919291829003018186803b158015610f0d57600080fd5b505afa158015610f21573d6000803e3d6000fd5b505050506040513d6020811015610f3757600080fd5b5051604080518581526020810183905281519293507f56ca301a9219608c91e7bcee90e083c19671d2cdcc96752c7af291cee5f9c8c8929081900390910190a1505050565b6000546001600160a01b031681565b60035433600090815260076020908152604080832054600a5482516313c36b2f60e11b81526004810192909252602482015290516001600160a01b03909416938493632786d65e93604480850194919392918390030190829087803b158015610ff357600080fd5b505af1158015611007573d6000803e3d6000fd5b505050506040513d602081101561101d57600080fd5b505161105e576040805162461bcd60e51b815260206004820152601a60248201526000805160206137e1833981519152604482015290519081900360640190fd5b50600380546001600160a01b0319166001600160a01b0392909216919091179055565b6008602052600090815260409020546001600160a01b031681565b60035433600090815260076020908152604080832054600a5482516335561a3160e11b81526004810192909252602482015290516001600160a01b03909416938493636aac346293604480850194919392918390030190829087803b15801561110457600080fd5b505af1158015611118573d6000803e3d6000fd5b505050506040513d602081101561112e57600080fd5b505161116f576040805162461bcd60e51b815260206004820152601a60248201526000805160206137e1833981519152604482015290519081900360640190fd5b6005546040805163ea6be26760e01b81526004810185905290516001600160a01b0390921691829163ea6be26791602480830192600092919082900301818387803b1580156111bd57600080fd5b505af11580156111d1573d6000803e3d6000fd5b50505050505050565b60035433600090815260076020908152604080832054600a54825163b930926b60e01b81526004810192909252602482015290516001600160a01b0390941693849363b930926b93604480850194919392918390030190829087803b15801561124257600080fd5b505af1158015611256573d6000803e3d6000fd5b505050506040513d602081101561126c57600080fd5b50516112ad576040805162461bcd60e51b815260206004820152601a60248201526000805160206137e1833981519152604482015290519081900360640190fd5b6000546001600160a01b038381169116141561130f57600080546040805163fd4cbc0560e01b81526004810187905290516001600160a01b0390921692839263fd4cbc0592602480820193929182900301818387803b158015610b8557600080fd5b600480546040805163410e5b0760e11b81526001600160a01b038681169482019490945290519290911691600091839163821cb60e9160248082019260209290919082900301818787803b15801561136657600080fd5b505af115801561137a573d6000803e3d6000fd5b505050506040513d602081101561139057600080fd5b50516040805163fd4cbc0560e01b81526004810188905290519192506001600160a01b0383169163fd4cbc059160248082019260009290919082900301818387803b158015610c7257600080fd5b600b5481565b600c6020526000908152604090205481565b6003546001600160a01b031681565b336000908152600860205260409020546001600160a01b03168061144d5733600090815260096020526040902054600a546114459163ffffffff61365416565b600a5561149e565b336000908152600960209081526040808320546001600160a01b03851684526007909252909120546114849163ffffffff61361216565b6001600160a01b0382166000908152600760205260409020555b336000908152600960209081526040808320546001600160a01b03861684526007909252909120546114d59163ffffffff61365416565b6001600160a01b03909216600081815260076020908152604080832095909555338252600890529290922080546001600160a01b03191690921790915550565b60035433600090815260076020908152604080832054600a5482516335561a3160e11b81526004810192909252602482015290516001600160a01b03909416938493636aac346293604480850194919392918390030190829087803b15801561157d57600080fd5b505af1158015611591573d6000803e3d6000fd5b505050506040513d60208110156115a757600080fd5b50516115e8576040805162461bcd60e51b815260206004820152601a60248201526000805160206137e1833981519152604482015290519081900360640190fd5b6000546001600160a01b038381169116141561164a576000805460408051635699b24560e11b81526004810187905290516001600160a01b0390921692839263ad33648a92602480820193929182900301818387803b158015610b8557600080fd5b600480546040805163410e5b0760e11b81526001600160a01b038681169482019490945290519290911691600091839163821cb60e9160248082019260209290919082900301818787803b1580156116a157600080fd5b505af11580156116b5573d6000803e3d6000fd5b505050506040513d60208110156116cb57600080fd5b505160408051630f0d262d60e21b81526004810188905290519192506001600160a01b03831691633c3498b49160248082019260009290919082900301818387803b158015610c7257600080fd5b60035433600090815260076020908152604080832054600a5482516313c36b2f60e11b81526004810192909252602482015290516001600160a01b03909416938493632786d65e93604480850194919392918390030190829087803b15801561178157600080fd5b505af1158015611795573d6000803e3d6000fd5b505050506040513d60208110156117ab57600080fd5b50516117ec576040805162461bcd60e51b815260206004820152601a60248201526000805160206137e1833981519152604482015290519081900360640190fd5b6000805460408051636a92cf8b60e01b81526001600160a01b038681166004830152915191909216928392636a92cf8b926024808301939282900301818387803b1580156111bd57600080fd5b6004546001600160a01b031681565b6001600160a01b0381166000908152600c6020526040812054600b546118739163ffffffff61361216565b92915050565b600280546001600160a01b0319166001600160a01b0392909216919091179055565b6002546001600160a01b031681565b336000908152600960205260409020546064106118fd576040805162461bcd60e51b815260206004820152600c60248201526b34b73b30b634b2103ab9b2b960a11b604482015290519081900360640190fd5b60055460408051634e6314fb60e01b815290516001600160a01b03909216916000918391634e6314fb9160048082019260209290919082900301818787803b15801561194857600080fd5b505af115801561195c573d6000803e3d6000fd5b505050506040513d602081101561197257600080fd5b5051600b5490915061198a908263ffffffff61365416565b600b555050565b60035433600090815260076020908152604080832054600a54825163b930926b60e01b81526004810192909252602482015290516001600160a01b0390941693849363b930926b93604480850194919392918390030190829087803b1580156119f957600080fd5b505af1158015611a0d573d6000803e3d6000fd5b505050506040513d6020811015611a2357600080fd5b5051611a64576040805162461bcd60e51b815260206004820152601a60248201526000805160206137e1833981519152604482015290519081900360640190fd5b60015460408051637a5370f160e11b81526001600160a01b03858116600483015291519190921691829163f4a6e1e29160248082019260009290919082900301818387803b1580156111bd57600080fd5b600254604080516370a0823160e01b815230600482015290516000926001600160a01b03169182916370a0823191602480820192602092909190829003018186803b158015611b0357600080fd5b505afa158015611b17573d6000803e3d6000fd5b505050506040513d6020811015611b2d57600080fd5b505191505090565b60035433600090815260076020908152604080832054600a5482516335561a3160e11b81526004810192909252602482015290516001600160a01b03909416938493636aac346293604480850194919392918390030190829087803b158015611b9d57600080fd5b505af1158015611bb1573d6000803e3d6000fd5b505050506040513d6020811015611bc757600080fd5b5051611c08576040805162461bcd60e51b815260206004820152601a60248201526000805160206137e1833981519152604482015290519081900360640190fd5b6000546001600160a01b0383811691161415611c6a576000805460408051635009a61360e01b81526004810187905290516001600160a01b03909216928392635009a61392602480820193929182900301818387803b158015610b8557600080fd5b600480546040805163410e5b0760e11b81526001600160a01b038681169482019490945290519290911691600091839163821cb60e9160248082019260209290919082900301818787803b158015611cc157600080fd5b505af1158015611cd5573d6000803e3d6000fd5b505050506040513d6020811015611ceb57600080fd5b505160408051635009a61360e01b81526004810188905290519192506001600160a01b03831691635009a6139160248082019260009290919082900301818387803b158015610c7257600080fd5b60035433600090815260076020908152604080832054600a54825163b930926b60e01b81526004810192909252602482015290516001600160a01b0390941693849363b930926b93604480850194919392918390030190829087803b158015611da157600080fd5b505af1158015611db5573d6000803e3d6000fd5b505050506040513d6020811015611dcb57600080fd5b5051611e0c576040805162461bcd60e51b815260206004820152601a60248201526000805160206137e1833981519152604482015290519081900360640190fd5b6000546001600160a01b0383811691161415611e6e576000805460408051634506369360e11b81526004810187905290516001600160a01b03909216928392638a0c6d2692602480820193929182900301818387803b158015610b8557600080fd5b600480546040805163410e5b0760e11b81526001600160a01b038681169482019490945290519290911691600091839163821cb60e9160248082019260209290919082900301818787803b158015611ec557600080fd5b505af1158015611ed9573d6000803e3d6000fd5b505050506040513d6020811015611eef57600080fd5b505160408051634506369360e11b81526004810188905290519192506001600160a01b03831691638a0c6d269160248082019260009290919082900301818387803b158015610c7257600080fd5b3360009081526008602090815260408083205460098352818420546001600160a01b0390911680855260079093529220549091611f7a9190613612565b6001600160a01b0382166000908152600760209081526040808320939093553382526008815282822080546001600160a01b0319169055600990522054600a54611fc99163ffffffff61361216565b600a5550565b60035433600090815260076020908152604080832054600a54825163b930926b60e01b81526004810192909252602482015290516001600160a01b0390941693849363b930926b93604480850194919392918390030190829087803b15801561203757600080fd5b505af115801561204b573d6000803e3d6000fd5b505050506040513d602081101561206157600080fd5b50516120a2576040805162461bcd60e51b815260206004820152601a60248201526000805160206137e1833981519152604482015290519081900360640190fd5b6001546040805163bc08621560e01b81526001600160a01b038681166004830152858116602483015291519190921691829163bc0862159160448082019260009290919082900301818387803b1580156120fb57600080fd5b505af115801561210f573d6000803e3d6000fd5b5050505050505050565b60096020526000908152604090205481565b60035433600090815260076020908152604080832054600a548251630c1d2c4760e31b81526004810192909252602482015290516001600160a01b039094169384936360e9623893604480850194919392918390030190829087803b15801561219357600080fd5b505af11580156121a7573d6000803e3d6000fd5b505050506040513d60208110156121bd57600080fd5b50516121fe576040805162461bcd60e51b815260206004820152601a60248201526000805160206137e1833981519152604482015290519081900360640190fd5b6000546001600160a01b03838116911614156122605760008054604080516337637f4560e01b81526004810187905290516001600160a01b039092169283926337637f4592602480820193929182900301818387803b158015610b8557600080fd5b600480546040805163410e5b0760e11b81526001600160a01b038681169482019490945290519290911691600091839163821cb60e9160248082019260209290919082900301818787803b1580156122b757600080fd5b505af11580156122cb573d6000803e3d6000fd5b505050506040513d60208110156122e157600080fd5b50516040805163c97d4b2b60e01b81526004810188905290519192506001600160a01b0383169163c97d4b2b9160248082019260009290919082900301818387803b158015610c7257600080fd5b60035433600090815260076020908152604080832054600a54825163b930926b60e01b81526004810192909252602482015290516001600160a01b0390941693849363b930926b93604480850194919392918390030190829087803b15801561239757600080fd5b505af11580156123ab573d6000803e3d6000fd5b505050506040513d60208110156123c157600080fd5b5051612402576040805162461bcd60e51b815260206004820152601a60248201526000805160206137e1833981519152604482015290519081900360640190fd5b6000805460408051639b1559c360e01b8152851515600482015290516001600160a01b03909216928392639b1559c392602480820193929182900301818387803b1580156111bd57600080fd5b6001546001600160a01b031681565b600081116124a4576040805162461bcd60e51b815260206004820152600e60248201526d1a5b9d985b1a5908185b5bdd5b9d60921b604482015290519081900360640190fd5b600254604080516370a0823160e01b815233600482015290516001600160a01b0390921691839183916370a0823191602480820192602092909190829003018186803b1580156124f357600080fd5b505afa158015612507573d6000803e3d6000fd5b505050506040513d602081101561251d57600080fd5b50511015612572576040805162461bcd60e51b815260206004820152601860248201527f696e737566666963656e742062696f702062616c616e63650000000000000000604482015290519081900360640190fd5b604080516323b872dd60e01b81523360048201523060248201526044810184905290516001600160a01b038316916323b872dd9160648083019260209291908290030181600087803b1580156125c757600080fd5b505af11580156125db573d6000803e3d6000fd5b505050506040513d60208110156125f157600080fd5b5051612635576040805162461bcd60e51b815260206004820152600e60248201526d1cdd185ada5b99c819985a5b195960921b604482015290519081900360640190fd5b3360009081526009602052604090205461265d57600b54336000908152600c60205260409020555b3360009081526009602052604090205461267d908363ffffffff61365416565b336000908152600960205260409020557fc9ec05ea5037818736839e1365dc3d9a74a735c447af0697da66633b7a9d0fab826126b7611ab5565b6040805192835260208301919091528051918290030190a15050565b60035433600090815260076020908152604080832054600a5482516335561a3160e11b81526004810192909252602482015290516001600160a01b03909416938493636aac346293604480850194919392918390030190829087803b15801561273b57600080fd5b505af115801561274f573d6000803e3d6000fd5b505050506040513d602081101561276557600080fd5b50516127a6576040805162461bcd60e51b815260206004820152601a60248201526000805160206137e1833981519152604482015290519081900360640190fd5b6000546001600160a01b03838116911614156128095760008054604080516307e665df60e01b81526001600160a01b0387811660048301529151919092169283926307e665df926024808301939282900301818387803b158015610b8557600080fd5b600480546040805163410e5b0760e11b81526001600160a01b038681169482019490945290519290911691600091839163821cb60e9160248082019260209290919082900301818787803b15801561286057600080fd5b505af1158015612874573d6000803e3d6000fd5b505050506040513d602081101561288a57600080fd5b5051604080516307e665df60e01b81526001600160a01b0388811660048301529151929350908316916307e665df9160248082019260009290919082900301818387803b158015610c7257600080fd5b60035433600090815260076020908152604080832054600a5482516313c36b2f60e11b81526004810192909252602482015290516001600160a01b03909416938493632786d65e93604480850194919392918390030190829087803b15801561294257600080fd5b505af1158015612956573d6000803e3d6000fd5b505050506040513d602081101561296c57600080fd5b50516129ad576040805162461bcd60e51b815260206004820152601a60248201526000805160206137e1833981519152604482015290519081900360640190fd5b6000546001600160a01b0383811691161415612a265760008054604080516398cfe58760e01b815290516001600160a01b039092169283926398cfe58792600480820193929182900301818387803b158015612a0857600080fd5b505af1158015612a1c573d6000803e3d6000fd5b5050505050612aee565b600480546040805163410e5b0760e11b81526001600160a01b038681169482019490945290519290911691600091839163821cb60e9160248082019260209290919082900301818787803b158015612a7d57600080fd5b505af1158015612a91573d6000803e3d6000fd5b505050506040513d6020811015612aa757600080fd5b5051604080516398cfe58760e01b815290519192506001600160a01b038316916398cfe5879160048082019260009290919082900301818387803b1580156120fb57600080fd5b5050565b60035433600090815260076020908152604080832054600a54825163b930926b60e01b81526004810192909252602482015290516001600160a01b0390941693849363b930926b93604480850194919392918390030190829087803b158015612b5a57600080fd5b505af1158015612b6e573d6000803e3d6000fd5b505050506040513d6020811015612b8457600080fd5b5051612bc5576040805162461bcd60e51b815260206004820152601a60248201526000805160206137e1833981519152604482015290519081900360640190fd5b60065460408051632418420160e11b81526001600160a01b03878116600483015260248201879052858116604483015291519190921691829163483084029160648082019260009290919082900301818387803b158015610c7257600080fd5b600b54336000908152600c60205260409020541115612c82576040805162461bcd60e51b81526020600482015260146024820152736e6f207265776172647320617661696c61626c6560601b604482015290519081900360640190fd5b6000612c8d33610d01565b600b54336000818152600c60205260408082209390935591519293509183156108fc0291849190818181858888f19350505050612d03576040805162461bcd60e51b815260206004820152600f60248201526e1d1c985b9cd9995c8819985a5b1959608a1b604482015290519081900360640190fd5b50565b6000819050604051602001808063042494f560e41b815250600401905060405160208183030381529060405280519060200120816001600160a01b03166395d89b416040518163ffffffff1660e01b815260040160006040518083038186803b158015612d7257600080fd5b505afa158015612d86573d6000803e3d6000fd5b505050506040513d6000823e601f3d908101601f191682016040526020811015612daf57600080fd5b8101908080516040519392919084640100000000821115612dcf57600080fd5b908301906020820185811115612de457600080fd5b8251640100000000811182820188101715612dfe57600080fd5b82525081516020918201929091019080838360005b83811015612e2b578181015183820152602001612e13565b50505050905090810190601f168015612e585780820380516001836020036101000a031916815260200191505b506040525050506040516020018082805190602001908083835b60208310612e915780518252601f199092019160209182019101612e72565b6001836020036101000a0380198251168184511680821785525050505050509050019150506040516020818303038152906040528051906020012014612f0e576040805162461bcd60e51b815260206004820152600d60248201526c24b73b30b634b2103a37b5b2b760991b604482015290519081900360640190fd5b50600280546001600160a01b0319166001600160a01b0392909216919091179055565b6005546001600160a01b031681565b60035433600090815260076020908152604080832054600a5482516313c36b2f60e11b81526004810192909252602482015290516001600160a01b03909416938493632786d65e93604480850194919392918390030190829087803b158015612fa857600080fd5b505af1158015612fbc573d6000803e3d6000fd5b505050506040513d6020811015612fd257600080fd5b5051613013576040805162461bcd60e51b815260206004820152601a60248201526000805160206137e1833981519152604482015290519081900360640190fd5b60055460408051637f51bb1f60e01b81526001600160a01b038581166004830152915191909216918291637f51bb1f9160248082019260009290919082900301818387803b15801561306457600080fd5b505af1158015613078573d6000803e3d6000fd5b5050600680546001600160a01b0319166001600160a01b03969096169590951790945550505050565b6006546001600160a01b031681565b600480546040805163410e5b0760e11b81526001600160a01b038581169482019490945290519290911691600091839163821cb60e9160248082019260209290919082900301818787803b15801561310757600080fd5b505af115801561311b573d6000803e3d6000fd5b505050506040513d602081101561313157600080fd5b505190506001600160a01b0381161561317b5760405162461bcd60e51b81526004018080602001828103825260368152602001806137ab6036913960400191505060405180910390fd5b60065460015460408051639a6a976f60e01b81526001600160a01b038781166004830152938416602482015291831660448301525191841691639a6a976f9160648082019260009290919082900301818387803b1580156111bd57600080fd5b600480546040805163410e5b0760e11b81526001600160a01b038581169482019490945290519290911691829163821cb60e9160248083019260209291908290030181600087803b15801561322f57600080fd5b505af1158015613243573d6000803e3d6000fd5b505050506040513d602081101561325957600080fd5b50516001600160a01b031661329f5760405162461bcd60e51b81526004018080602001828103825260368152602001806137ab6036913960400191505060405180910390fd5b806001600160a01b0316633b7d0946836040518263ffffffff1660e01b815260040180826001600160a01b03166001600160a01b03168152602001915050600060405180830381600087803b158015610ce557600080fd5b60035433600090815260076020908152604080832054600a54825163b930926b60e01b81526004810192909252602482015290516001600160a01b0390941693849363b930926b93604480850194919392918390030190829087803b15801561335f57600080fd5b505af1158015613373573d6000803e3d6000fd5b505050506040513d602081101561338957600080fd5b50516133ca576040805162461bcd60e51b815260206004820152601a60248201526000805160206137e1833981519152604482015290519081900360640190fd5b6005546040805163ea2a6e6360e01b81526004810185905290516001600160a01b0390921691829163ea2a6e6391602480830192600092919082900301818387803b1580156111bd57600080fd5b600480546001600160a01b0319166001600160a01b0392909216919091179055565b60035433600090815260076020908152604080832054600a54825163b930926b60e01b81526004810192909252602482015290516001600160a01b0390941693849363b930926b93604480850194919392918390030190829087803b1580156134a257600080fd5b505af11580156134b6573d6000803e3d6000fd5b505050506040513d60208110156134cc57600080fd5b505161350d576040805162461bcd60e51b815260206004820152601a60248201526000805160206137e1833981519152604482015290519081900360640190fd5b60065460408051632c9a19dd60e21b8152600481018690526001600160a01b03858116602483015291519190921691829163b26867749160448082019260009290919082900301818387803b1580156120fb57600080fd5b60076020526000908152604090205481565b60008261358657506000611873565b8282028284828161359357fe5b0414610d505760405162461bcd60e51b81526004018080602001828103825260218152602001806138016021913960400191505060405180910390fd5b6000610d5083836040518060400160405280601a81526020017f536166654d6174683a206469766973696f6e206279207a65726f0000000000008152506136ae565b6000610d5083836040518060400160405280601e81526020017f536166654d6174683a207375627472616374696f6e206f766572666c6f770000815250613750565b600082820183811015610d50576040805162461bcd60e51b815260206004820152601b60248201527f536166654d6174683a206164646974696f6e206f766572666c6f770000000000604482015290519081900360640190fd5b6000818361373a5760405162461bcd60e51b81526004018080602001828103825283818151815260200191508051906020019080838360005b838110156136ff5781810151838201526020016136e7565b50505050905090810190601f16801561372c5780820380516001836020036101000a031916815260200191505b509250505060405180910390fd5b50600083858161374657fe5b0495945050505050565b600081848411156137a25760405162461bcd60e51b81526020600482018181528351602484015283519092839260449091019190850190808383600083156136ff5781810151838201526020016136e7565b50505090039056fe706f6f6c20666f72207468697320746f6b656e20616c7265616479206578697374732c207265706c61636520697420696e7374656164696e737566666963656e742064656c656761746520706f776572000000000000536166654d6174683a206d756c7469706c69636174696f6e206f766572666c6f77a26469706673582212209b706b4704aff150394c1adc3bcc4c1280aa2af46f430a29f9ed948acb66a74364736f6c63430006060033",
  "immutableReferences": {},
  "source": "pragma solidity ^0.6.6;\n\nimport \"@openzeppelin/contracts/math/SafeMath.sol\";\nimport \"@openzeppelin/contracts/token/ERC20/ERC20.sol\";\n\nimport \"./interfaces/IBinaryOptions.sol\";\nimport \"./APP.sol\";\nimport \"./GovProxy.sol\";\nimport \"./Treasury.sol\";\nimport \"./EBOP20/EBOP20.sol\";\nimport \"./EBOP20/EBOP20Factory.sol\";\ninterface AccessTiers {\n    /**\n     * @notice Returns the rate to pay out for a given amount\n     * @param power the amount of control held by user trying to access this action\n     * @param total the total amount of control available\n     * @return boolean of users access to this tier\n     */\n    function tier1(uint256 power, uint256 total) external returns (bool);\n\n    /**\n     * @notice Returns the rate to pay out for a given amount\n     * @param power the amount of control held by user trying to access this action\n     * @param total the total amount of control available\n     * @return boolean of users access to this tier\n     */\n    function tier2(uint256 power, uint256 total) external returns (bool);\n\n\n    /**\n     * @notice Returns the rate to pay out for a given amount\n     * @param power the amount of control held by user trying to access this action\n     * @param total the total amount of control available\n     * @return boolean of users access to this tier\n     */\n    function tier3(uint256 power, uint256 total) external returns (bool);\n\n\n    /**\n     * @notice Returns the rate to pay out for a given amount\n     * @param power the amount of control held by user trying to access this action\n     * @param total the total amount of control available\n     * @return boolean of users access to this tier\n     */\n    function tier4(uint256 power, uint256 total) external returns (bool);\n}\n\ncontract DelegatedAccessTiers is AccessTiers {\n    using SafeMath for uint256;\n    function tier1(uint256 power, uint256 total) external override returns (bool) {\n        uint256 half = total.div(2);\n        if (power >= half) {\n            return true;\n        }\n        return false;\n    }\n\n    function tier2(uint256 power, uint256 total) external override returns (bool) {\n        uint256 twothirds = total.div(3).mul(2);\n        if (power >= twothirds) {\n            return true;\n        }\n        return false;\n    }\n\n    function tier3(uint256 power, uint256 total) external override returns (bool) {\n        uint256 threeQuarters = total.div(4).mul(3);\n        if (power >= threeQuarters) {\n            return true;\n        }\n        return false;\n    }\n\n    function tier4(uint256 power, uint256 total) external override returns (bool) {\n        uint256 ninety = total.div(10).mul(9);\n        if (power >= ninety) {\n            return true;\n        }\n        return false;\n    }\n}\n\n\n\n/**\n * @title DelegatedGov\n * @author github.com/Shalquiana\n * @dev governance for biopset protocol\n * @notice governance for biopset protocol\n * BIOP\n */\ncontract DelegatedGov {\n    using SafeMath for uint256;\n    address public pA;//protocol address\n    address public appA;//approved price providers address\n    address public tA;//token address\n    address public aTA;//access tiers address\n    address public fcry;//ebop20 factory address\n    address payable public pX;//proxy\n    address payable public trsy;//treasury\n    \n    mapping(address=>uint256) public shas;//amounts of voting power held by each sha\n    mapping(address=>address) public rep;//representative/delegate/governer currently backed by given address\n    mapping(address=>uint256) public staked;//amount of BIOP they have staked\n    uint256 dBIOP = 0;//the total amount of staked BIOP which has been delegated for governance\n\n    //ETH rewards for stakers\n    uint256 public trg = 0;//total rewards generated\n    mapping(address=>uint256) public lrc;//last rewards claimed at trg point for this address \n    \n    \n\n    constructor(address bo_, address v3_, address accessTiers_, address payable proxy_, address app_, address factory_) public {\n      pA = bo_;\n      tA = v3_;\n      aTA = accessTiers_;\n      pX = proxy_;\n      appA = app_;\n      fcry = factory_;\n    }\n\n\n    event Stake(uint256 amount, uint256 total);\n    event Withdraw(uint256 amount, uint256 total);\n\n    function totalStaked() public view returns (uint256) {\n        ERC20 token = ERC20(tA);\n        return token.balanceOf(address(this));\n    }\n\n    /**\n     * @notice stake your BIOP and begin earning rewards\n     * @param amount the amount in BIOP you want to stake\n     */\n    function stake(uint256 amount) public {\n        require(amount > 0, \"invalid amount\");\n        ERC20 token = ERC20(tA);\n        require(token.balanceOf(msg.sender) >= amount, \"insufficent biop balance\");\n        require(token.transferFrom(msg.sender, address(this), amount), \"staking failed\");\n        if (staked[msg.sender] == 0) {\n            //only for ETH\n            lrc[msg.sender] = trg;\n        }\n        staked[msg.sender] = staked[msg.sender].add(amount);\n        emit Stake(amount, totalStaked());\n    }\n\n \n\n    /**\n     * @notice withdraw your BIOP and stop earning rewards. You must undelegate before you can withdraw\n     * @param amount the amount in BIOP you want to withdraw\n     */\n    function withdraw(uint256 amount) public {\n        require(staked[msg.sender] >= amount, \"invalid amount\");\n        ERC20 token = ERC20(tA);\n        require(rep[msg.sender] ==  0x0000000000000000000000000000000000000000);\n        require(token.transfer(msg.sender, amount), \"staking failed\");\n        staked[msg.sender] = staked[msg.sender].sub(amount);\n\n        uint256 totalBalance = token.balanceOf(address(this));\n        emit Withdraw(amount, totalBalance);\n    }\n\n     /**\n     * @notice delegates your voting power to a specific address(sha)\n     * @param newSha the address of the delegate to voting power\n     */\n    function delegate(address payable newSha) public {\n        address oldSha = rep[msg.sender];\n        if (oldSha == 0x0000000000000000000000000000000000000000) {\n            dBIOP = dBIOP.add(staked[msg.sender]);\n        } else {\n            shas[oldSha] = shas[oldSha].sub(staked[msg.sender]);\n        }\n        shas[newSha] = shas[newSha].add(staked[msg.sender]);\n        rep[msg.sender] = newSha;\n    }\n\n     /**\n     * @notice undelegate your voting power. you will still earn staking rewards \n     * but your voting power won't back any delegate.\n     */\n    function undelegate() public {\n        address oldSha = rep[msg.sender];\n        shas[oldSha] = shas[oldSha].sub(staked[msg.sender]);\n        rep[msg.sender] =  0x0000000000000000000000000000000000000000;\n        dBIOP = dBIOP.sub(staked[msg.sender]);\n    }\n\n    /** \n    * @notice base ETH rewards since last claim\n    * @param acc the account to get the answer for\n    */\n    function bRSLC(address acc) public view returns (uint256) {\n        return trg.sub(lrc[acc]);\n    }\n\n    function pendingETHRewards(address account) public view returns (uint256) {\n        uint256 base = bRSLC(account);\n        return base.mul(staked[account]).div(totalStaked());\n    }\n\n\n    function claimETHRewards() public {\n        require(lrc[msg.sender] <= trg, \"no rewards available\");\n        \n        uint256 toSend = pendingETHRewards(msg.sender);\n        lrc[msg.sender] = trg;\n        require(msg.sender.send(toSend), \"transfer failed\");\n    }\n\n    \n\n    /**\n     * @notice modifier for actions requiring tier 1 delegation\n     */\n    modifier tierOneDelegation() {\n        AccessTiers tiers = AccessTiers(aTA);\n        require(tiers.tier1(shas[msg.sender], dBIOP), \"insufficent delegate power\");\n        _;\n    }\n\n    /**\n     * @notice modifier for actions requiring a tier 2 delegation\n     */\n    modifier tierTwoDelegation() {\n        AccessTiers tiers = AccessTiers(aTA);\n        require(tiers.tier2(shas[msg.sender], dBIOP), \"insufficent delegate power\");\n        _;\n    }\n\n    /**\n     * @notice modifier for actions requiring a tier 3 delegation\n     */\n    modifier tierThreeDelegation() {\n        AccessTiers tiers = AccessTiers(aTA);\n        require(tiers.tier3(shas[msg.sender], dBIOP), \"insufficent delegate power\");\n        _;\n    }\n\n    /**\n     * @notice modifier for actions requiring a tier 4 delegation\n     */\n    modifier tierFourDelegation() {\n        AccessTiers tiers = AccessTiers(aTA);\n        require(tiers.tier4(shas[msg.sender], dBIOP), \"insufficent delegate power\");\n        _;\n    }\n\n\n    //this function has to be present or transfers to the GOV fail silently\n    fallback () external payable {}\n\n\n    // 0 tier anyone whose staked can do these two\n    /**\n     * @notice Send rewards from the proxy to gov and collect a fee\n     */\n    function sRTG() external {\n        require(staked[msg.sender] > 100, \"invalid user\");\n        GovProxy gp = GovProxy(pX);\n        uint256 r = gp.transferToGov();\n        trg = trg.add(r);\n    }\n\n    /**\n     * @notice create a new EBOP20 pool\n     * @param token_ the erc20 address to underwrite the new pool\n     */\n    function createEBOP20(address token_) public {\n        EBOP20Factory factory = EBOP20Factory(fcry);\n        address tAddress = factory.getEBOP20Address(token_);\n        require(tAddress == 0x0000000000000000000000000000000000000000, \"pool for this token already exists, replace it instead\");\n        factory.createEBOP20(token_, trsy, appA);\n    }\n\n\n\n    /* \n                                                                                              \n                                                                                          \n                                                                                          \n                                                              .-=                         \n                      =                               :-=+#%@@@@@                         \n               @+@+* -*   -==: ==-+.           -=+#%@@@@@@@@@@@@@                         \n                :%    %. -%-=* :%              %@@@@@@@@@@@@@@@@@                         \n               .=== .===: -==: ===.            %@@@@%*+=--@@@@@@@                         \n                                               --.       .@@@@@@@                         \n                                                         .@@@@@@@                         \n                                                         .@@@@@@@                         \n                                                         .@@@@@@@                         \n                                                         .@@@@@@@                         \n                                                         .@@@@@@@                         \n                                                         .@@@@@@@                         \n                      .:    :.                           .@@@@@@@                         \n                     -@@#  #@@=                          .@@@@@@@                         \n                     +@@#  %@@=                          .@@@@@@@                         \n                     *@@*  @@@-                          .@@@@@@@                         \n                     #@@+ .@@@:                          .@@@@@@@                         \n                 .---@@@*-+@@@=--                        .@@@@@@@                         \n                 +@@@@@@@@@@@@@@@.                       .@@@@@@@                         \n                    .@@@: =@@@                           .@@@@@@@                         \n                    :@@@. +@@#                           .@@@@@@@                         \n                 -*##@@@##%@@@##*                        .@@@@@@@                         \n                 -##%@@@##@@@%##*                        .@@@@@@@                         \n                    +@@#  #@@=                           .@@@@@@@                         \n                    *@@*  @@@:                           .@@@@@@@                         \n                    *@@+  @@@.                 +**********@@@@@@@**********=              \n                    #@@= .@@@                  %@@@@@@@@@@@@@@@@@@@@@@@@@@@%              \n                    .--   :=:                  %@@@@@@@@@@@@@@@@@@@@@@@@@@@%              \n                                                                                          \n                                                                                          \n                                                                                          \n                                                                                          \n                                                                                          \n                                                                                          \n     */\n\n\n    /**\n     * @notice update the maximum time an option can be created for\n     * @param nMT_ the time (in seconds) of maximum possible bet\n     * @param addy_ the address of the pool to update or the token used for the EBOP20 pool (pass pA to use the default ETH pool)\n     */\n    function uMXOT(uint256 nMT_, address addy_) external tierOneDelegation {\n        if (addy_ == pA) {\n            IBinaryOptions pr = IBinaryOptions(pA);\n            pr.setMaxT(nMT_);\n        } else {\n            EBOP20Factory factory = EBOP20Factory(fcry);\n            EBOP20 pr = EBOP20(factory.getEBOP20Address(addy_));\n            pr.updateMaxT(nMT_);\n        }\n    }\n\n    /**\n     * @notice update the maximum time an option can be created for\n     * @param nMT_ the time (in seconds) of maximum possible bet\n     * @param addy_ the address of the pool to update or the token used for the EBOP20 pool (pass pA to use the default ETH pool)\n     */\n    function uMNOT(uint256 nMT_, address addy_) external tierOneDelegation {\n        if (addy_ == pA) {\n            IBinaryOptions pr = IBinaryOptions(pA);\n            pr.setMinT(nMT_);\n        } else {\n            EBOP20Factory factory = EBOP20Factory(fcry);\n            EBOP20 pr = EBOP20(factory.getEBOP20Address(addy_));\n            pr.updateMinT(nMT_);\n        }\n    }\n\n    /* \n                                                                                                  \n                                                                                          \n                                                    .:-+*##%@@@@@@%#*+=:                  \n              :::::   *                        .=+#@@@@@@@@@@@@@@@@@@@@@@%+:              \n              @-@=#: =*.  .+=+- :*=+*:        -@@@@@@@@@@@@@@@@@@@@@@@@@@@@@%=            \n               .@:    %:  #*--#. **           -@@@@@@@%#+=-::::::-=*@@@@@@@@@@%-          \n              :+**- :+*++ .++++ -**+          -@@@#=:                :*@@@@@@@@@=         \n                                              .=.                      :%@@@@@@@@=        \n                                                                        .@@@@@@@@@.       \n                                                                         +@@@@@@@@=       \n                                                                         :@@@@@@@@+       \n                                                                         -@@@@@@@@=       \n                                                                         #@@@@@@@@:       \n                                                                        -@@@@@@@@#        \n                                                                       :@@@@@@@@%         \n                                                                      -@@@@@@@@%.         \n                      *#*   -##-                                    .*@@@@@@@@*           \n                     =@@@-  @@@%                                   =@@@@@@@@#:            \n                     +@@@: .@@@#                                 =%@@@@@@@%-              \n                     *@@@. :@@@*                              .+@@@@@@@@#-                \n                     #@@@  -@@@=                            .*@@@@@@@@*.                  \n                  ...%@@@..=@@@=..                        :#@@@@@@@%=.                    \n                :@@@@@@@@@@@@@@@@@@                     -%@@@@@@@%-                       \n                 +++*@@@%++%@@@*++=                   :#@@@@@@@#:                         \n                    :@@@+  #@@@                     :#@@@@@@@#:                           \n                    -@@@=  %@@@                    +@@@@@@@%-                             \n                .#%%@@@@@%%@@@@%%%*              -@@@@@@@@*                               \n                .#%%@@@@%%%@@@@%%%*             *@@@@@@@@=                                \n                    #@@@  .@@@*               .%@@@@@@@@-                                 \n                    %@@@  :@@@+              .%@@@@@@@@*                                  \n                    @@@%  -@@@=              @@@@@@@@@@#**************************.       \n                    @@@#  =@@@-              @@@@@@@@@@@@@@@@@@@@@@@@@@@@@@@@@@@@@:       \n                    @@@+  =@@@.              @@@@@@@@@@@@@@@@@@@@@@@@@@@@@@@@@@@@@:       \n                     :.    .:.               @@@@@@@@@@@@@@@@@@@@@@@@@@@@@@@@@@@@@:       \n                                                                                          \n                                                                                          \n                                                                                          \n                                                                                          \n\n     */\n\n    /**\n     * @notice update fee paid to exercisers\n     * @param newFee_ the new fee\n     * @param addy_ the address of the pool to update or the token used for the EBOP20 pool (pass pA to use the default ETH pool)\n     */\n    function updateExerciserFee(uint256 newFee_, address addy_) external tierTwoDelegation {\n        if (addy_ == pA) {\n            IBinaryOptions pr = IBinaryOptions(pA);\n            pr.updateExerciserFee(newFee_);\n        } else {\n            EBOP20Factory factory = EBOP20Factory(fcry);\n            EBOP20 pr = EBOP20(factory.getEBOP20Address(addy_));\n            pr.updateExerciserFee(newFee_);\n        }\n    }\n\n    /**\n     * @notice update fee paid to expirers\n     * @param newFee_ the new fee\n     * @param addy_ the address of the pool to update or the token used for the EBOP20 pool (pass pA to use the default ETH pool)\n     */\n    function updateExpirerFee(uint256 newFee_, address addy_) external tierTwoDelegation {\n        if (addy_ == pA) {\n            IBinaryOptions pr = IBinaryOptions(pA);\n            pr.updateExpirerFee(newFee_);\n        } else {\n            EBOP20Factory factory = EBOP20Factory(fcry);\n            EBOP20 pr = EBOP20(factory.getEBOP20Address(addy_));\n            pr.updateExpirerFee(newFee_);\n        }\n    }\n\n    /**\n     * @notice remove a trading pair\n     * @param oldPP_ the address of trading pair to be removed\n     */\n    function removeTradingPair(address oldPP_) external tierTwoDelegation {\n        APP app = APP(appA);\n        app.removePP(oldPP_);\n    }\n\n    /**\n     * @notice add (or update the RateCalc of existing) trading pair \n     * @param newPP_ the address of trading pair to be added\n     * @param newRateCalc_ the address of the rate calc to be used for this pair\n     */\n    function addUpdateTradingPair(address newPP_, address newRateCalc_) external tierTwoDelegation {\n        APP app = APP(appA);\n        app.addPP(newPP_, newRateCalc_);\n    }\n\n   \n\n    /**\n     * @notice enable or disable BIOP rewards, only for the main ETH pool\n     * @param nx_ the new boolean value of rewardsEnabled\n     */\n    function enableRewards(bool nx_) external tierTwoDelegation {\n        IBinaryOptions pr = IBinaryOptions(pA);\n        pr.enableRewards(nx_);\n    }\n\n    /**\n     * @notice update the fee paid to the user whose tx transfers bet fees from GovProxy to the DelegatedGov\n     * @param n_ the new fee\n     */\n    function updateGovProxyFee(uint256 n_) external tierTwoDelegation {\n        GovProxy gp = GovProxy(pX);\n        gp.updateTFee(n_);\n    }\n\n      /**\n     * @notice distribute treasury ETH funds to some destination\n     * @param amount the new amount to send from the treasury, in wei\n     * @param destination where the ETH should be sent\n     */\n    function sendTreasuryFunds(uint256 amount, address payable destination) external tierTwoDelegation {\n        Treasury ty = Treasury(trsy);\n        ty.sendFunds(amount, destination);\n    }\n\n      /**\n     * @notice distribute treasury ERC20 funds to some destination\n     * @param token the ERC20 address to transfer tokens of\n     * @param amount the new amount to send from the treasury, in wei equivalent\n     * @param destination where the tokens should be sent\n     */\n    function sendTreasuryERC20Funds(address token, uint256 amount, address payable destination) external tierTwoDelegation {\n        Treasury ty = Treasury(trsy);\n        ty.sendERC20Funds(token, amount, destination);\n    }\n\n    /* \n                                                                                              \n                                                                                          \n                                                        .:::::::::.                       \n                                               .-=*#%@@@@@@@@@@@@@@@@@#*=:                \n          -+++++   #.                         %@@@@@@@@@@@@@@@@@@@@@@@@@@@@#=             \n          +:+%.%  +%-  .*++*: =%++#:          %@@@@@@@@@@@@@@@@@@@@@@@@@@@@@@@+           \n            +%     %-  +@==+=  @-             %@@@@#*=-:..      .:-+%@@@@@@@@@@%.         \n           ++++. -++++  -+++. ++++            *+-.                   .+@@@@@@@@@%         \n                                                                       :@@@@@@@@@-        \n                                                                        +@@@@@@@@*        \n                                                                        :@@@@@@@@*        \n                                                                        :@@@@@@@@+        \n                                                                        =@@@@@@@@:        \n                                                                       .@@@@@@@@=         \n                                                                      :%@@@@@@@=          \n                                                                    .*@@@@@@@%:           \n                                                                .:+#@@@@@@@#-             \n                    .      .                       :======++*#%@@@@@@@@@*-                \n                  -@@@-  =@@@:                     +@@@@@@@@@@@@@@@@%=.                   \n                  *@@@=  *@@@-                     +@@@@@@@@@@@@@@@@@@@#+-.               \n                  #@@@-  #@@@:                     -++++++**#%%@@@@@@@@@@@@%+:            \n                  %@@@.  %@@@.                                  .:=#@@@@@@@@@@%-          \n                  @@@@   @@@@                                        :*@@@@@@@@@%.        \n              :::-@@@@:::@@@@:::                                       .#@@@@@@@@@:       \n             #@@@@@@@@@@@@@@@@@@#                                        #@@@@@@@@@.      \n             :+++*@@@%++*@@@%+++:                                         @@@@@@@@@+      \n                 -@@@*  =@@@+                                             *@@@@@@@@#      \n                 =@@@+  +@@@=                                             +@@@@@@@@%      \n             =###%@@@%##%@@@%###=                                         *@@@@@@@@#      \n             *@@@@@@@@@@@@@@@@@@*                                        .@@@@@@@@@+      \n                 #@@@:  %@@@.                                            %@@@@@@@@@.      \n                 %@@@.  @@@@                                           .%@@@@@@@@@+       \n                 @@@@  .@@@%                 +=:                     :*@@@@@@@@@@+        \n                 @@@@  :@@@#                 %@@@@#+=-.          .-+%@@@@@@@@@@@-         \n                .@@@%  -@@@*                 %@@@@@@@@@@@@%%%%%@@@@@@@@@@@@@@@=           \n                 +%#-   *%#:                 %@@@@@@@@@@@@@@@@@@@@@@@@@@@@@*-             \n                                             -+*#%@@@@@@@@@@@@@@@@@@@@%*=.                \n                                                    ..:--=======--:.                      \n                                                                                          \n\n     */\n\n    \n\n    /**\n     * @notice update soft lock time for the main pool. \n     * @param newLockSeconds_ the time (in seconds) of the soft pool lock\n     * @param addy_ the address of the pool to update or the token used for the EBOP20 pool (pass pA to use the default ETH pool)\n     */\n    function updatePoolLockTime(uint256 newLockSeconds_, address addy_) external tierThreeDelegation {\n        if (addy_ == pA) {\n            IBinaryOptions pr = IBinaryOptions(pA);\n            pr.updatePoolLockSeconds(newLockSeconds_);\n        } else {\n            EBOP20Factory factory = EBOP20Factory(fcry);\n            EBOP20 pr = EBOP20(factory.getEBOP20Address(addy_));\n            pr.updatePoolLockSeconds(newLockSeconds_);\n        }\n    }\n\n    /**\n     * @notice update the fee paid by betters when they make a bet\n     * @param newBetFee_ the time (in seconds) of the soft pool lock\n     * @param addy_ the address of the pool to update or the token used for the EBOP20 pool (pass pA to use the default ETH pool)\n     */\n    function updateBetFee(uint256 newBetFee_, address addy_) external tierThreeDelegation {\n        if (addy_ == pA) {\n            IBinaryOptions pr = IBinaryOptions(pA);\n            pr.updateDevFundBetFee(newBetFee_);\n        } else {\n            EBOP20Factory factory = EBOP20Factory(fcry);\n            EBOP20 pr = EBOP20(factory.getEBOP20Address(addy_));\n            pr.updateDAOBetFee(newBetFee_);\n        }\n    }\n\n   /**\n     * @dev update APP\n     * @param newAPP_ the new approved price provider (and ratecalc contract to use). Must be a IAPP\n     * @param addy_ the address of the pool to update or the token used for the EBOP20 pool (pass pA to use the default ETH pool)\n     */\n    function updateAPP(address newAPP_, address addy_) external tierThreeDelegation {\n        \n        if (addy_ == pA) {\n            IBinaryOptions pr = IBinaryOptions(pA);\n            pr.updateAPP(newAPP_);\n        } else {\n            EBOP20Factory factory = EBOP20Factory(fcry);\n            EBOP20 pr = EBOP20(factory.getEBOP20Address(addy_));\n            pr.updateAPP(newAPP_);\n        }\n    }\n\n      /**\n     * @notice change the amount (as percent) that is sent from proxy to treasury\n     * @param new_ the new amount to send to treasury. (1 = 100%, 10 = 10%, 100 = 1%)\n     */\n    function updateTrsyPercent(uint256 new_) external tierThreeDelegation {\n        GovProxy py = GovProxy(pX);\n        py.updateTreasuryAmount(new_);\n    }\n\n    /**\n     * @notice deactivate a EBOP20 pool\n     */\n    function deactivateEBOP20(address token_) public {\n        EBOP20Factory factory = EBOP20Factory(fcry);\n        require(factory.getEBOP20Address(token_) != 0x0000000000000000000000000000000000000000, \"pool for this token already exists, replace it instead\");\n        factory.removePool(token_);\n    }\n\n    /* \n                                                                                              \n                                                                                          \n                                                                                          \n                                                                                          \n                                                                                          \n                       -                                       +######:                   \n                %*@*+ =*   -=-  =:==                         .%@@@@@@@-                   \n                .:%    @  +#-+= ++ .                        =@@@@@@@@@-                   \n                .=== .===. -==:.==-                       .#@@@@@@@@@@-                   \n                                                         =@@@@@@%@@@@@-                   \n                                                        *@@@@@#.*@@@@@-                   \n                                                      -@@@@@@+  *@@@@@-                   \n                                                     *@@@@@#.   *@@@@@-                   \n                                                   -@@@@@@=     *@@@@@-                   \n                                                  *@@@@@%.      *@@@@@-                   \n                                                :%@@@@@+        *@@@@@-                   \n                       --   .-:                +@@@@@%:         *@@@@@-                   \n                      +@@*  @@@.             .%@@@@@+           *@@@@@-                   \n                      *@@+  @@@.            =@@@@@%:            *@@@@@-                   \n                      #@@= .@@@           .#@@@@@+              *@@@@@-                   \n                      %@@- -@@%          =@@@@@%-               *@@@@@-                   \n                  :***@@@#*#@@@**=      *@@@@@@#################@@@@@@%######-            \n                  =#%%@@@%%@@@@%%+      %@@@@@@@@@@@@@@@@@@@@@@@@@@@@@@@@@@@@+            \n                     .@@@  +@@+         %@@@@@@@@@@@@@@@@@@@@@@@@@@@@@@@@@@@@+            \n                     -@@@  #@@=         .......................:@@@@@@+......             \n                  +@@@@@@@@@@@@@@#                             .@@@@@@-                   \n                  .-=#@@%==@@@+==:                             .@@@@@@-                   \n                     *@@*  @@@.                                .@@@@@@-                   \n                     #@@+ .@@@                                 .@@@@@@-                   \n                     %@@= :@@@                                 .@@@@@@-                   \n                     *@%. .%@+                                 .@@@@@@-                   \n                                                                ******:                   \n                                                                                          \n     */\n\n\n     /**\n     * @notice change the address that the proxy sends treasury funds too\n     * @param new_ the new address to use for treasury\n     */\n    function updateTrsyAddy(address payable new_) external tierFourDelegation {\n        GovProxy py = GovProxy(pX);\n        py.updateTreasury(new_);\n        trsy = new_;\n    }\n\n     /**\n     * @notice change the access tiers contract address used to guard all access tier functions\n     * @param newAccessTiers_ the new access tiers contract to use. It should conform to AccessTiers interface\n     */\n    function updateAccessTiers(address newAccessTiers_) external tierFourDelegation {\n        aTA = newAccessTiers_;\n    }\n\n    /**\n     * @notice prevent new deposits into the pool. Effectivly end that pool.\n     * @param addy_ the address of the pool to update or the token used for the EBOP20 pool (pass pA to use the default ETH pool)\n     */\n    function closeStaking(address addy_) external tierFourDelegation {\n         if (addy_ == pA) {\n            IBinaryOptions pr = IBinaryOptions(pA);\n            pr.closeStaking();\n        } else {\n            EBOP20Factory factory = EBOP20Factory(fcry);\n            EBOP20 pr = EBOP20(factory.getEBOP20Address(addy_));\n            pr.closeStaking();\n        }\n    }\n\n    /**\n     * @dev update reward base amount, only for main ETH pool\n     * @param newUR the new UtilizationRewards contract to use\n     */\n    function updateUtilizationRewards(address newUR) external tierFourDelegation {\n        IBinaryOptions pr = IBinaryOptions(pA);\n        pr.updateUtilizationRewards(newUR);\n    }\n\n\n\n    /**\n     * @notice update the biop token used by the DAO\n     * @param a the address of the new ERC20 BIOP token to use\n     */\n    function updateBIOPToken(address payable a) external  {\n        ERC20 t = ERC20(a);\n        require(keccak256(abi.encodePacked((t.symbol()))) == keccak256(abi.encodePacked((\"BIOP\"))), \"Invalid token\");\n        tA = a;\n    }\n\n    /**\n     * @notice update the main ETH pool\n     * @param a the address of the new BinaryOptions pool to use\n     */\n    function updateProtocol(address payable a) external  {\n        IBinaryOptions t = IBinaryOptions(a);\n        tA = a;\n    }\n\n    /**\n     * @notice update the factoryOwner\n     * @param a the address of the new DAO to control the factory\n     */\n    function updateFactoryOwner(address payable a) external  {\n        EBOP20Factory factory = EBOP20Factory(fcry);\n        factory.transferOwner(a);\n    }\n\n    /**\n     * @notice update the factory\n     * @param a the address of the new factory to be controlled by the DAO\n     */\n    function updateFactory(address payable a) external  {\n        fcry = a;\n    }\n\n}\n",
  "sourcePath": "/Users/x/Desktop/eth/BIOPv4/contracts/DelegatedGov.sol",
  "compiler": {
    "name": "solc",
    "version": "0.6.6+commit.6c089d02.Emscripten.clang"
  },
  "schemaVersion": "3.3.4",
  "updatedAt": "2021-05-14T23:07:18.727Z",
  "devdoc": {
    "author": "github.com/Shalquiana",
    "details": "governance for biopset protocol",
    "methods": {
      "addUpdateTradingPair(address,address)": {
        "params": {
          "newPP_": "the address of trading pair to be added",
          "newRateCalc_": "the address of the rate calc to be used for this pair"
        }
      },
      "bRSLC(address)": {
        "params": {
          "acc": "the account to get the answer for"
        }
      },
      "closeStaking(address)": {
        "params": {
          "addy_": "the address of the pool to update or the token used for the EBOP20 pool (pass pA to use the default ETH pool)"
        }
      },
      "createEBOP20(address)": {
        "params": {
          "token_": "the erc20 address to underwrite the new pool"
        }
      },
      "delegate(address)": {
        "params": {
          "newSha": "the address of the delegate to voting power"
        }
      },
      "enableRewards(bool)": {
        "params": {
          "nx_": "the new boolean value of rewardsEnabled"
        }
      },
      "removeTradingPair(address)": {
        "params": {
          "oldPP_": "the address of trading pair to be removed"
        }
      },
      "sendTreasuryERC20Funds(address,uint256,address)": {
        "params": {
          "amount": "the new amount to send from the treasury, in wei equivalent",
          "destination": "where the tokens should be sent",
          "token": "the ERC20 address to transfer tokens of"
        }
      },
      "sendTreasuryFunds(uint256,address)": {
        "params": {
          "amount": "the new amount to send from the treasury, in wei",
          "destination": "where the ETH should be sent"
        }
      },
      "stake(uint256)": {
        "params": {
          "amount": "the amount in BIOP you want to stake"
        }
      },
      "uMNOT(uint256,address)": {
        "params": {
          "addy_": "the address of the pool to update or the token used for the EBOP20 pool (pass pA to use the default ETH pool)",
          "nMT_": "the time (in seconds) of maximum possible bet"
        }
      },
      "uMXOT(uint256,address)": {
        "params": {
          "addy_": "the address of the pool to update or the token used for the EBOP20 pool (pass pA to use the default ETH pool)",
          "nMT_": "the time (in seconds) of maximum possible bet"
        }
      },
      "updateAPP(address,address)": {
        "details": "update APP",
        "params": {
          "addy_": "the address of the pool to update or the token used for the EBOP20 pool (pass pA to use the default ETH pool)",
          "newAPP_": "the new approved price provider (and ratecalc contract to use). Must be a IAPP"
        }
      },
      "updateAccessTiers(address)": {
        "params": {
          "newAccessTiers_": "the new access tiers contract to use. It should conform to AccessTiers interface"
        }
      },
      "updateBIOPToken(address)": {
        "params": {
          "a": "the address of the new ERC20 BIOP token to use"
        }
      },
      "updateBetFee(uint256,address)": {
        "params": {
          "addy_": "the address of the pool to update or the token used for the EBOP20 pool (pass pA to use the default ETH pool)",
          "newBetFee_": "the time (in seconds) of the soft pool lock"
        }
      },
      "updateExerciserFee(uint256,address)": {
        "params": {
          "addy_": "the address of the pool to update or the token used for the EBOP20 pool (pass pA to use the default ETH pool)",
          "newFee_": "the new fee"
        }
      },
      "updateExpirerFee(uint256,address)": {
        "params": {
          "addy_": "the address of the pool to update or the token used for the EBOP20 pool (pass pA to use the default ETH pool)",
          "newFee_": "the new fee"
        }
      },
      "updateFactory(address)": {
        "params": {
          "a": "the address of the new factory to be controlled by the DAO"
        }
      },
      "updateFactoryOwner(address)": {
        "params": {
          "a": "the address of the new DAO to control the factory"
        }
      },
      "updateGovProxyFee(uint256)": {
        "params": {
          "n_": "the new fee"
        }
      },
      "updatePoolLockTime(uint256,address)": {
        "params": {
          "addy_": "the address of the pool to update or the token used for the EBOP20 pool (pass pA to use the default ETH pool)",
          "newLockSeconds_": "the time (in seconds) of the soft pool lock"
        }
      },
      "updateProtocol(address)": {
        "params": {
          "a": "the address of the new BinaryOptions pool to use"
        }
      },
      "updateTrsyAddy(address)": {
        "params": {
          "new_": "the new address to use for treasury"
        }
      },
      "updateTrsyPercent(uint256)": {
        "params": {
          "new_": "the new amount to send to treasury. (1 = 100%, 10 = 10%, 100 = 1%)"
        }
      },
      "updateUtilizationRewards(address)": {
        "details": "update reward base amount, only for main ETH pool",
        "params": {
          "newUR": "the new UtilizationRewards contract to use"
        }
      },
      "withdraw(uint256)": {
        "params": {
          "amount": "the amount in BIOP you want to withdraw"
        }
      }
    },
    "title": "DelegatedGov"
  },
  "userdoc": {
    "methods": {
      "addUpdateTradingPair(address,address)": {
        "notice": "add (or update the RateCalc of existing) trading pair "
      },
      "bRSLC(address)": {
        "notice": "base ETH rewards since last claim"
      },
      "closeStaking(address)": {
        "notice": "prevent new deposits into the pool. Effectivly end that pool."
      },
      "createEBOP20(address)": {
        "notice": "create a new EBOP20 pool"
      },
      "deactivateEBOP20(address)": {
        "notice": "deactivate a EBOP20 pool"
      },
      "delegate(address)": {
        "notice": "delegates your voting power to a specific address(sha)"
      },
      "enableRewards(bool)": {
        "notice": "enable or disable BIOP rewards, only for the main ETH pool"
      },
      "removeTradingPair(address)": {
        "notice": "remove a trading pair"
      },
      "sRTG()": {
        "notice": "Send rewards from the proxy to gov and collect a fee"
      },
      "sendTreasuryERC20Funds(address,uint256,address)": {
        "notice": "distribute treasury ERC20 funds to some destination"
      },
      "sendTreasuryFunds(uint256,address)": {
        "notice": "distribute treasury ETH funds to some destination"
      },
      "stake(uint256)": {
        "notice": "stake your BIOP and begin earning rewards"
      },
      "uMNOT(uint256,address)": {
        "notice": "update the maximum time an option can be created for"
      },
      "uMXOT(uint256,address)": {
        "notice": "update the maximum time an option can be created for"
      },
      "undelegate()": {
        "notice": "undelegate your voting power. you will still earn staking rewards  but your voting power won't back any delegate."
      },
      "updateAccessTiers(address)": {
        "notice": "change the access tiers contract address used to guard all access tier functions"
      },
      "updateBIOPToken(address)": {
        "notice": "update the biop token used by the DAO"
      },
      "updateBetFee(uint256,address)": {
        "notice": "update the fee paid by betters when they make a bet"
      },
      "updateExerciserFee(uint256,address)": {
        "notice": "update fee paid to exercisers"
      },
      "updateExpirerFee(uint256,address)": {
        "notice": "update fee paid to expirers"
      },
      "updateFactory(address)": {
        "notice": "update the factory"
      },
      "updateFactoryOwner(address)": {
        "notice": "update the factoryOwner"
      },
      "updateGovProxyFee(uint256)": {
        "notice": "update the fee paid to the user whose tx transfers bet fees from GovProxy to the DelegatedGov"
      },
      "updatePoolLockTime(uint256,address)": {
        "notice": "update soft lock time for the main pool. "
      },
      "updateProtocol(address)": {
        "notice": "update the main ETH pool"
      },
      "updateTrsyAddy(address)": {
        "notice": "change the address that the proxy sends treasury funds too"
      },
      "updateTrsyPercent(uint256)": {
        "notice": "change the amount (as percent) that is sent from proxy to treasury"
      },
      "withdraw(uint256)": {
        "notice": "withdraw your BIOP and stop earning rewards. You must undelegate before you can withdraw"
      }
    },
    "notice": "governance for biopset protocol BIOP"
  }
}