{
  "contractName": "EBOP20",
  "abi": [
    {
      "inputs": [
        {
          "internalType": "string",
          "name": "name_",
          "type": "string"
        },
        {
          "internalType": "string",
          "name": "symbol_",
          "type": "string"
        },
        {
          "internalType": "address",
          "name": "token_",
          "type": "address"
        },
        {
          "internalType": "address payable",
          "name": "dao_",
          "type": "address"
        },
        {
          "internalType": "address",
          "name": "app_",
          "type": "address"
        },
        {
          "internalType": "address payable",
          "name": "treasury_",
          "type": "address"
        }
      ],
      "stateMutability": "nonpayable",
      "type": "constructor"
    },
    {
      "anonymous": false,
      "inputs": [
        {
          "indexed": true,
          "internalType": "address",
          "name": "owner",
          "type": "address"
        },
        {
          "indexed": true,
          "internalType": "address",
          "name": "spender",
          "type": "address"
        },
        {
          "indexed": false,
          "internalType": "uint256",
          "name": "value",
          "type": "uint256"
        }
      ],
      "name": "Approval",
      "type": "event"
    },
    {
      "anonymous": false,
      "inputs": [
        {
          "indexed": true,
          "internalType": "uint256",
          "name": "id",
          "type": "uint256"
        },
        {
          "indexed": false,
          "internalType": "address payable",
          "name": "account",
          "type": "address"
        },
        {
          "indexed": false,
          "internalType": "int256",
          "name": "sP",
          "type": "int256"
        },
        {
          "indexed": false,
          "internalType": "uint256",
          "name": "lV",
          "type": "uint256"
        },
        {
          "indexed": false,
          "internalType": "bool",
          "name": "dir",
          "type": "bool"
        },
        {
          "indexed": false,
          "internalType": "uint80",
          "name": "pR",
          "type": "uint80"
        },
        {
          "indexed": false,
          "internalType": "uint80",
          "name": "exp",
          "type": "uint80"
        }
      ],
      "name": "Create",
      "type": "event"
    },
    {
      "anonymous": false,
      "inputs": [
        {
          "indexed": true,
          "internalType": "uint256",
          "name": "id",
          "type": "uint256"
        }
      ],
      "name": "Exercise",
      "type": "event"
    },
    {
      "anonymous": false,
      "inputs": [
        {
          "indexed": true,
          "internalType": "uint256",
          "name": "id",
          "type": "uint256"
        }
      ],
      "name": "Expire",
      "type": "event"
    },
    {
      "anonymous": false,
      "inputs": [
        {
          "indexed": false,
          "internalType": "uint256",
          "name": "poolLost",
          "type": "uint256"
        },
        {
          "indexed": false,
          "internalType": "address",
          "name": "winner",
          "type": "address"
        }
      ],
      "name": "Payout",
      "type": "event"
    },
    {
      "anonymous": false,
      "inputs": [
        {
          "indexed": true,
          "internalType": "address",
          "name": "from",
          "type": "address"
        },
        {
          "indexed": true,
          "internalType": "address",
          "name": "to",
          "type": "address"
        },
        {
          "indexed": false,
          "internalType": "uint256",
          "name": "value",
          "type": "uint256"
        }
      ],
      "name": "Transfer",
      "type": "event"
    },
    {
      "inputs": [
        {
          "internalType": "address",
          "name": "owner",
          "type": "address"
        },
        {
          "internalType": "address",
          "name": "spender",
          "type": "address"
        }
      ],
      "name": "allowance",
      "outputs": [
        {
          "internalType": "uint256",
          "name": "",
          "type": "uint256"
        }
      ],
      "stateMutability": "view",
      "type": "function"
    },
    {
      "inputs": [],
      "name": "app",
      "outputs": [
        {
          "internalType": "address",
          "name": "",
          "type": "address"
        }
      ],
      "stateMutability": "view",
      "type": "function"
    },
    {
      "inputs": [
        {
          "internalType": "address",
          "name": "spender",
          "type": "address"
        },
        {
          "internalType": "uint256",
          "name": "amount",
          "type": "uint256"
        }
      ],
      "name": "approve",
      "outputs": [
        {
          "internalType": "bool",
          "name": "",
          "type": "bool"
        }
      ],
      "stateMutability": "nonpayable",
      "type": "function"
    },
    {
      "inputs": [
        {
          "internalType": "address",
          "name": "account",
          "type": "address"
        }
      ],
      "name": "balanceOf",
      "outputs": [
        {
          "internalType": "uint256",
          "name": "",
          "type": "uint256"
        }
      ],
      "stateMutability": "view",
      "type": "function"
    },
    {
      "inputs": [],
      "name": "daoBetFee",
      "outputs": [
        {
          "internalType": "uint256",
          "name": "",
          "type": "uint256"
        }
      ],
      "stateMutability": "view",
      "type": "function"
    },
    {
      "inputs": [],
      "name": "decimals",
      "outputs": [
        {
          "internalType": "uint8",
          "name": "",
          "type": "uint8"
        }
      ],
      "stateMutability": "view",
      "type": "function"
    },
    {
      "inputs": [
        {
          "internalType": "address",
          "name": "spender",
          "type": "address"
        },
        {
          "internalType": "uint256",
          "name": "subtractedValue",
          "type": "uint256"
        }
      ],
      "name": "decreaseAllowance",
      "outputs": [
        {
          "internalType": "bool",
          "name": "",
          "type": "bool"
        }
      ],
      "stateMutability": "nonpayable",
      "type": "function"
    },
    {
      "inputs": [],
      "name": "exerciserFee",
      "outputs": [
        {
          "internalType": "uint256",
          "name": "",
          "type": "uint256"
        }
      ],
      "stateMutability": "view",
      "type": "function"
    },
    {
      "inputs": [],
      "name": "expirerFee",
      "outputs": [
        {
          "internalType": "uint256",
          "name": "",
          "type": "uint256"
        }
      ],
      "stateMutability": "view",
      "type": "function"
    },
    {
      "inputs": [
        {
          "internalType": "address",
          "name": "spender",
          "type": "address"
        },
        {
          "internalType": "uint256",
          "name": "addedValue",
          "type": "uint256"
        }
      ],
      "name": "increaseAllowance",
      "outputs": [
        {
          "internalType": "bool",
          "name": "",
          "type": "bool"
        }
      ],
      "stateMutability": "nonpayable",
      "type": "function"
    },
    {
      "inputs": [],
      "name": "lockedAmount",
      "outputs": [
        {
          "internalType": "uint256",
          "name": "",
          "type": "uint256"
        }
      ],
      "stateMutability": "view",
      "type": "function"
    },
    {
      "inputs": [],
      "name": "maxT",
      "outputs": [
        {
          "internalType": "uint256",
          "name": "",
          "type": "uint256"
        }
      ],
      "stateMutability": "view",
      "type": "function"
    },
    {
      "inputs": [],
      "name": "minT",
      "outputs": [
        {
          "internalType": "uint256",
          "name": "",
          "type": "uint256"
        }
      ],
      "stateMutability": "view",
      "type": "function"
    },
    {
      "inputs": [
        {
          "internalType": "address",
          "name": "",
          "type": "address"
        }
      ],
      "name": "nW",
      "outputs": [
        {
          "internalType": "uint256",
          "name": "",
          "type": "uint256"
        }
      ],
      "stateMutability": "view",
      "type": "function"
    },
    {
      "inputs": [],
      "name": "name",
      "outputs": [
        {
          "internalType": "string",
          "name": "",
          "type": "string"
        }
      ],
      "stateMutability": "view",
      "type": "function"
    },
    {
      "inputs": [],
      "name": "oC",
      "outputs": [
        {
          "internalType": "uint256",
          "name": "",
          "type": "uint256"
        }
      ],
      "stateMutability": "view",
      "type": "function"
    },
    {
      "inputs": [],
      "name": "oP",
      "outputs": [
        {
          "internalType": "uint256",
          "name": "",
          "type": "uint256"
        }
      ],
      "stateMutability": "view",
      "type": "function"
    },
    {
      "inputs": [],
      "name": "open",
      "outputs": [
        {
          "internalType": "bool",
          "name": "",
          "type": "bool"
        }
      ],
      "stateMutability": "view",
      "type": "function"
    },
    {
      "inputs": [
        {
          "internalType": "uint256",
          "name": "",
          "type": "uint256"
        }
      ],
      "name": "options",
      "outputs": [
        {
          "internalType": "address payable",
          "name": "holder",
          "type": "address"
        },
        {
          "internalType": "int256",
          "name": "sP",
          "type": "int256"
        },
        {
          "internalType": "uint80",
          "name": "pR",
          "type": "uint80"
        },
        {
          "internalType": "uint256",
          "name": "pV",
          "type": "uint256"
        },
        {
          "internalType": "uint256",
          "name": "lV",
          "type": "uint256"
        },
        {
          "internalType": "uint80",
          "name": "exp",
          "type": "uint80"
        },
        {
          "internalType": "bool",
          "name": "dir",
          "type": "bool"
        },
        {
          "internalType": "address",
          "name": "pP",
          "type": "address"
        }
      ],
      "stateMutability": "view",
      "type": "function"
    },
    {
      "inputs": [],
      "name": "owner",
      "outputs": [
        {
          "internalType": "address payable",
          "name": "",
          "type": "address"
        }
      ],
      "stateMutability": "view",
      "type": "function"
    },
    {
      "inputs": [],
      "name": "poolLockSeconds",
      "outputs": [
        {
          "internalType": "uint256",
          "name": "",
          "type": "uint256"
        }
      ],
      "stateMutability": "view",
      "type": "function"
    },
    {
      "inputs": [],
      "name": "sT",
      "outputs": [
        {
          "internalType": "address",
          "name": "",
          "type": "address"
        }
      ],
      "stateMutability": "view",
      "type": "function"
    },
    {
      "inputs": [],
      "name": "symbol",
      "outputs": [
        {
          "internalType": "string",
          "name": "",
          "type": "string"
        }
      ],
      "stateMutability": "view",
      "type": "function"
    },
    {
      "inputs": [],
      "name": "totalSupply",
      "outputs": [
        {
          "internalType": "uint256",
          "name": "",
          "type": "uint256"
        }
      ],
      "stateMutability": "view",
      "type": "function"
    },
    {
      "inputs": [
        {
          "internalType": "address",
          "name": "recipient",
          "type": "address"
        },
        {
          "internalType": "uint256",
          "name": "amount",
          "type": "uint256"
        }
      ],
      "name": "transfer",
      "outputs": [
        {
          "internalType": "bool",
          "name": "",
          "type": "bool"
        }
      ],
      "stateMutability": "nonpayable",
      "type": "function"
    },
    {
      "inputs": [
        {
          "internalType": "address",
          "name": "sender",
          "type": "address"
        },
        {
          "internalType": "address",
          "name": "recipient",
          "type": "address"
        },
        {
          "internalType": "uint256",
          "name": "amount",
          "type": "uint256"
        }
      ],
      "name": "transferFrom",
      "outputs": [
        {
          "internalType": "bool",
          "name": "",
          "type": "bool"
        }
      ],
      "stateMutability": "nonpayable",
      "type": "function"
    },
    {
      "inputs": [],
      "name": "treasury",
      "outputs": [
        {
          "internalType": "address payable",
          "name": "",
          "type": "address"
        }
      ],
      "stateMutability": "view",
      "type": "function"
    },
    {
      "inputs": [
        {
          "internalType": "address payable",
          "name": "newDAO_",
          "type": "address"
        }
      ],
      "name": "updateOwner",
      "outputs": [],
      "stateMutability": "nonpayable",
      "type": "function"
    },
    {
      "inputs": [
        {
          "internalType": "address",
          "name": "newAPP_",
          "type": "address"
        }
      ],
      "name": "updateAPP",
      "outputs": [],
      "stateMutability": "nonpayable",
      "type": "function"
    },
    {
      "inputs": [
        {
          "internalType": "address payable",
          "name": "newTreasury_",
          "type": "address"
        }
      ],
      "name": "updateTreasury",
      "outputs": [],
      "stateMutability": "nonpayable",
      "type": "function"
    },
    {
      "inputs": [
        {
          "internalType": "uint256",
          "name": "newBase_",
          "type": "uint256"
        }
      ],
      "name": "updateBase",
      "outputs": [],
      "stateMutability": "nonpayable",
      "type": "function"
    },
    {
      "inputs": [
        {
          "internalType": "uint256",
          "name": "exerciserFee_",
          "type": "uint256"
        }
      ],
      "name": "updateExerciserFee",
      "outputs": [],
      "stateMutability": "nonpayable",
      "type": "function"
    },
    {
      "inputs": [
        {
          "internalType": "uint256",
          "name": "expirerFee_",
          "type": "uint256"
        }
      ],
      "name": "updateExpirerFee",
      "outputs": [],
      "stateMutability": "nonpayable",
      "type": "function"
    },
    {
      "inputs": [
        {
          "internalType": "uint256",
          "name": "daoBetFee_",
          "type": "uint256"
        }
      ],
      "name": "updateDAOBetFee",
      "outputs": [],
      "stateMutability": "nonpayable",
      "type": "function"
    },
    {
      "inputs": [
        {
          "internalType": "uint256",
          "name": "newLockSeconds_",
          "type": "uint256"
        }
      ],
      "name": "updatePoolLockSeconds",
      "outputs": [],
      "stateMutability": "nonpayable",
      "type": "function"
    },
    {
      "inputs": [
        {
          "internalType": "uint256",
          "name": "newMax_",
          "type": "uint256"
        }
      ],
      "name": "updateMaxT",
      "outputs": [],
      "stateMutability": "nonpayable",
      "type": "function"
    },
    {
      "inputs": [
        {
          "internalType": "uint256",
          "name": "newMin_",
          "type": "uint256"
        }
      ],
      "name": "updateMinT",
      "outputs": [],
      "stateMutability": "nonpayable",
      "type": "function"
    },
    {
      "inputs": [],
      "name": "closeStaking",
      "outputs": [],
      "stateMutability": "nonpayable",
      "type": "function"
    },
    {
      "inputs": [
        {
          "internalType": "uint256",
          "name": "amount_",
          "type": "uint256"
        }
      ],
      "name": "stake",
      "outputs": [],
      "stateMutability": "nonpayable",
      "type": "function"
    },
    {
      "inputs": [
        {
          "internalType": "uint256",
          "name": "amount_",
          "type": "uint256"
        }
      ],
      "name": "withdraw",
      "outputs": [],
      "stateMutability": "nonpayable",
      "type": "function"
    },
    {
      "inputs": [],
      "name": "getMaxAvailable",
      "outputs": [
        {
          "internalType": "uint256",
          "name": "",
          "type": "uint256"
        }
      ],
      "stateMutability": "view",
      "type": "function"
    },
    {
      "inputs": [
        {
          "internalType": "address",
          "name": "pair",
          "type": "address"
        },
        {
          "internalType": "uint256",
          "name": "deposit",
          "type": "uint256"
        },
        {
          "internalType": "uint256",
          "name": "t",
          "type": "uint256"
        },
        {
          "internalType": "bool",
          "name": "k",
          "type": "bool"
        }
      ],
      "name": "getRate",
      "outputs": [
        {
          "internalType": "uint256",
          "name": "",
          "type": "uint256"
        }
      ],
      "stateMutability": "view",
      "type": "function"
    },
    {
      "inputs": [
        {
          "internalType": "bool",
          "name": "k_",
          "type": "bool"
        },
        {
          "internalType": "address",
          "name": "pp_",
          "type": "address"
        },
        {
          "internalType": "uint80",
          "name": "t_",
          "type": "uint80"
        },
        {
          "internalType": "uint256",
          "name": "a_",
          "type": "uint256"
        }
      ],
      "name": "bet",
      "outputs": [],
      "stateMutability": "nonpayable",
      "type": "function"
    },
    {
      "inputs": [
        {
          "internalType": "uint256",
          "name": "oID",
          "type": "uint256"
        }
      ],
      "name": "complete",
      "outputs": [
        {
          "internalType": "bool",
          "name": "",
          "type": "bool"
        }
      ],
      "stateMutability": "nonpayable",
      "type": "function"
    }
  ],
  "bytecode": "0x60806040526000600a819055600b819055670de0b6b3a7640000600c556032601081905560115560125562093a806013556014805460ff191660011790553480156200004a57600080fd5b506040516200353238038062003532833981810160405260c08110156200007057600080fd5b81019080805160405193929190846401000000008211156200009157600080fd5b908301906020820185811115620000a757600080fd5b8251640100000000811182820188101715620000c257600080fd5b82525081516020918201929091019080838360005b83811015620000f1578181015183820152602001620000d7565b50505050905090810190601f1680156200011f5780820380516001836020036101000a031916815260200191505b50604052602001805160405193929190846401000000008211156200014357600080fd5b9083019060208201858111156200015957600080fd5b82516401000000008111828201881017156200017457600080fd5b82525081516020918201929091019080838360005b83811015620001a357818101518382015260200162000189565b50505050905090810190601f168015620001d15780820380516001836020036101000a031916815260200191505b506040908152602082810151918301516060840151608090940151885193965090945091879187916200020b91600391908501906200029c565b508051620002219060049060208401906200029c565b5050600580546001600160a01b0396871661010002610100600160a81b031960ff199092166012179190911617905550600680549385166001600160a01b031994851617905560088054928516928416929092179091556007805491909316911617905550506001600d556003600e556000600f5562000341565b828054600181600116156101000203166002900490600052602060002090601f016020900481019282601f10620002df57805160ff19168380011785556200030f565b828001600101855582156200030f579182015b828111156200030f578251825591602001919060010190620002f2565b506200031d92915062000321565b5090565b6200033e91905b808211156200031d576000815560010162000328565b90565b6131e180620003516000396000f3fe608060405234801561001057600080fd5b50600436106102745760003560e01c80637f51bb1f11610151578063a9059cbb116100c3578063d25b00d011610087578063d25b00d014610751578063dbdf8dfb14610759578063dd62ed3e14610776578063ed2b949e146107a4578063fcfff16f146107ac578063fd4cbc05146107b457610274565b8063a9059cbb146106f0578063b76564bd1461071c578063bac2e6db14610724578063c89723911461072c578063c97d4b2b1461073457610274565b806395d89b411161011557806395d89b411461067257806396cff5251461067a578063971d852f1461068257806398cfe5871461069f578063a457c2d7146106a7578063a694fc3a146106d357610274565b80637f51bb1f146105db578063880cdc31146106015780638a0c6d26146106275780638a300e68146106445780638da5cb5b1461066a57610274565b80633c3498b4116101ea57806360baaaae116101ae57806360baaaae1461053f57806361d027b31461054757806363691eaa1461056b5780636ab28bc8146105735780636ab7d6d01461057b57806370a08231146105b557610274565b80633c3498b4146104685780633f003b7914610485578063409e2205146104a25780635009a6131461051a578063602d86081461053757610274565b80632085749d1161023c5780632085749d1461038057806323b872dd146103c35780632e1a7d4d146103f95780632f67e35914610416578063313ce5671461041e578063395093511461043c57610274565b806306fdde031461027957806307e665df146102f6578063095ea7b31461031e57806318126dce1461035e57806318160ddd14610378575b600080fd5b6102816107d1565b6040805160208082528351818301528351919283929083019185019080838360005b838110156102bb5781810151838201526020016102a3565b50505050905090810190601f1680156102e85780820380516001836020036101000a031916815260200191505b509250505060405180910390f35b61031c6004803603602081101561030c57600080fd5b50356001600160a01b0316610868565b005b61034a6004803603604081101561033457600080fd5b506001600160a01b0381351690602001356108d7565b604080519115158252519081900360200190f35b6103666108f5565b60408051918252519081900360200190f35b6103666108fb565b61031c6004803603608081101561039657600080fd5b5080351515906001600160a01b03602082013516906001600160501b036040820135169060600135610901565b61034a600480360360608110156103d957600080fd5b506001600160a01b03813581169160208101359091169060400135610d8b565b61031c6004803603602081101561040f57600080fd5b5035610e18565b6103666111e2565b6104266111e8565b6040805160ff9092168252519081900360200190f35b61034a6004803603604081101561045257600080fd5b506001600160a01b0381351690602001356111f1565b61031c6004803603602081101561047e57600080fd5b5035611245565b61031c6004803603602081101561049b57600080fd5b50356112e3565b6104bf600480360360208110156104b857600080fd5b5035611335565b604080516001600160a01b03998a16815260208101989098526001600160501b039687168882015260608801959095526080870193909352931660a085015291151560c0840152921660e08201529051908190036101000190f35b61031c6004803603602081101561053057600080fd5b50356113a6565b61036661143d565b610366611443565b61054f611449565b604080516001600160a01b039092168252519081900360200190f35b610366611458565b61036661145e565b6103666004803603608081101561059157600080fd5b506001600160a01b0381351690602081013590604081013590606001351515611464565b610366600480360360208110156105cb57600080fd5b50356001600160a01b0316611746565b61031c600480360360208110156105f157600080fd5b50356001600160a01b0316611765565b61031c6004803603602081101561061757600080fd5b50356001600160a01b03166117d4565b61031c6004803603602081101561063d57600080fd5b5035611843565b6103666004803603602081101561065a57600080fd5b50356001600160a01b03166118e5565b61054f6118f7565b610281611906565b61054f611967565b61034a6004803603602081101561069857600080fd5b503561197b565b61031c611b9f565b61034a600480360360408110156106bd57600080fd5b506001600160a01b038135169060200135611c00565b61031c600480360360208110156106e957600080fd5b5035611c6e565b61034a6004803603604081101561070657600080fd5b506001600160a01b038135169060200135611dbe565b61054f611dd2565b610366611de1565b610366611e96565b61031c6004803603602081101561074a57600080fd5b5035611e9c565b610366611eee565b61031c6004803603602081101561076f57600080fd5b5035611ef4565b6103666004803603604081101561078c57600080fd5b506001600160a01b0381358116916020013516611f46565b610366611f71565b61034a611f77565b61031c600480360360208110156107ca57600080fd5b5035611f80565b60038054604080516020601f600260001961010060018816150201909516949094049384018190048102820181019092528281526060939092909183018282801561085d5780601f106108325761010080835404028352916020019161085d565b820191906000526020600020905b81548152906001019060200180831161084057829003601f168201915b505050505090505b90565b6006546001600160a01b031633146108b5576040805162461bcd60e51b815260206004820181905260248201526000805160206130fd833981519152604482015290519081900360640190fd5b600880546001600160a01b0319166001600160a01b0392909216919091179055565b60006108eb6108e4612021565b8484612025565b5060015b92915050565b600e5481565b60025490565b600d54826001600160501b0316101580156109275750600e54826001600160501b031611155b610967576040805162461bcd60e51b815260206004820152600c60248201526b496e76616c69642074696d6560a01b604482015290519081900360640190fd5b61097083612111565b6109c1576040805162461bcd60e51b815260206004820152601760248201527f496e76616c6964202070726963652070726f7669646572000000000000000000604482015290519081900360640190fd5b6109c9611de1565b811115610a0a576040805162461bcd60e51b815260206004820152600a60248201526962657420746f2062696760b01b604482015290519081900360640190fd5b600554604080516323b872dd60e01b81523360048201523060248201526044810184905290516101009092046001600160a01b03169182916323b872dd9160648083019260209291908290030181600087803b158015610a6957600080fd5b505af1158015610a7d573d6000803e3d6000fd5b505050506040513d6020811015610a9357600080fd5b505060408051633fabe5a360e21b81529051859160009182916001600160a01b0385169163feaf968c9160048082019260a092909190829003018186803b158015610add57600080fd5b505afa158015610af1573d6000803e3d6000fd5b505050506040513d60a0811015610b0757600080fd5b50805160209091015160155491935091506000610b2f89886001600160501b038b168d611464565b9050610b3a816121a1565b610b42612f8d565b604051806101000160405280336001600160a01b03168152602001858152602001866001600160501b031681526020018981526020018381526020018a6001600160501b031681526020018c151581526020018b6001600160a01b031681525090508a15610bb857600a80546001019055610bc2565b600b805460010190555b601581908060018154018082558091505060019003906000526020600020906006020160009091909190915060008201518160000160006101000a8154816001600160a01b0302191690836001600160a01b031602179055506020820151816001015560408201518160020160006101000a8154816001600160501b0302191690836001600160501b03160217905550606082015181600301556080820151816004015560a08201518160050160006101000a8154816001600160501b0302191690836001600160501b0316021790555060c082015181600501600a6101000a81548160ff02191690831515021790555060e082015181600501600b6101000a8154816001600160a01b0302191690836001600160a01b031602179055505050827fcd8984b7ffc01146a9ba9096d805b0bec246d7f8e52837a7b5f404464f6b229b3386858f8a8f8c0160405180876001600160a01b03166001600160a01b0316815260200186815260200185815260200184151515158152602001836001600160501b03166001600160501b03168152602001826001600160501b03166001600160501b03168152602001965050505050505060405180910390a25050505050505050505050565b6000610d988484846121ba565b610e0e84610da4612021565b610e09856040518060600160405280602881526020016130d5602891396001600160a01b038a16600090815260016020526040812090610de2612021565b6001600160a01b03168152602081019190915260400160002054919063ffffffff61232116565b612025565b5060019392505050565b80610e2233611746565b1015610e75576040805162461bcd60e51b815260206004820152601960248201527f496e737566666963656e742053686172652042616c616e636500000000000000604482015290519081900360640190fd5b6000600560019054906101000a90046001600160a01b031690506000610f3e610eae600f54610ea26108fb565b9063ffffffff6123b816565b604080516370a0823160e01b81523060048201529051610f32916001600160a01b038716916370a0823191602480820192602092909190829003018186803b158015610ef957600080fd5b505afa158015610f0d573d6000803e3d6000fd5b505050506040513d6020811015610f2357600080fd5b5051869063ffffffff61240116565b9063ffffffff61245a16565b9050610f4a338461249c565b33600090815260096020526040902054421161111f576000610f7382606463ffffffff61245a16565b6007546040805163a9059cbb60e01b81526001600160a01b0392831660048201526024810184905290519293509085169163a9059cbb916044808201926020929091908290030181600087803b158015610fcc57600080fd5b505af1158015610fe0573d6000803e3d6000fd5b505050506040513d6020811015610ff657600080fd5b505161103b576040805162461bcd60e51b815260206004820152600f60248201526e1d1c985b9cd9995c8819985a5b1959608a1b604482015290519081900360640190fd5b6001600160a01b03831663a9059cbb3361105b858563ffffffff6123b816565b6040518363ffffffff1660e01b815260040180836001600160a01b03166001600160a01b0316815260200182815260200192505050602060405180830381600087803b1580156110aa57600080fd5b505af11580156110be573d6000803e3d6000fd5b505050506040513d60208110156110d457600080fd5b5051611119576040805162461bcd60e51b815260206004820152600f60248201526e1d1c985b9cd9995c8819985a5b1959608a1b604482015290519081900360640190fd5b506111dd565b6040805163a9059cbb60e01b81523360048201526024810183905290516001600160a01b0384169163a9059cbb9160448083019260209291908290030181600087803b15801561116e57600080fd5b505af1158015611182573d6000803e3d6000fd5b505050506040513d602081101561119857600080fd5b50516111dd576040805162461bcd60e51b815260206004820152600f60248201526e1d1c985b9cd9995c8819985a5b1959608a1b604482015290519081900360640190fd5b505050565b600b5481565b60055460ff1690565b60006108eb6111fe612021565b84610e09856001600061120f612021565b6001600160a01b03908116825260208083019390935260409182016000908120918c16815292529020549063ffffffff6125a416565b6006546001600160a01b03163314611292576040805162461bcd60e51b815260206004820181905260248201526000805160206130fd833981519152604482015290519081900360640190fd5b80158061129f5750603281115b6112de576040805162461bcd60e51b815260206004820152600b60248201526a696e76616c69642066656560a81b604482015290519081900360640190fd5b601255565b6006546001600160a01b03163314611330576040805162461bcd60e51b815260206004820181905260248201526000805160206130fd833981519152604482015290519081900360640190fd5b600c55565b6015818154811061134257fe5b60009182526020909120600690910201805460018201546002830154600384015460048501546005909501546001600160a01b03948516965092946001600160501b03928316949193909281169160ff600160501b83041691600160581b90041688565b6006546001600160a01b031633146113f3576040805162461bcd60e51b815260206004820181905260248201526000805160206130fd833981519152604482015290519081900360640190fd5b621275008110611438576040805162461bcd60e51b815260206004820152600b60248201526a696e76616c69642066656560a81b604482015290519081900360640190fd5b601355565b60135481565b60115481565b6007546001600160a01b031681565b600a5481565b600f5481565b6008546040805163b7a9eaa960e01b81526001600160a01b03878116600483015291516000939290921691829163b7a9eaa9916024808301926020929190829003018186803b1580156114b657600080fd5b505afa1580156114ca573d6000803e3d6000fd5b505050506040513d60208110156114e057600080fd5b50516001600160a01b0316611533576040805162461bcd60e51b815260206004820152601460248201527334b73b30b634b2103a3930b234b733903830b4b960611b604482015290519081900360640190fd5b6000816001600160a01b031663b7a9eaa9886040518263ffffffff1660e01b815260040180826001600160a01b03166001600160a01b0316815260200191505060206040518083038186803b15801561158b57600080fd5b505afa15801561159f573d6000803e3d6000fd5b505050506040513d60208110156115b557600080fd5b50519050600084156115f157600a54600b54106115d4575060016115ec565b600b54600a546115e99163ffffffff6123b816565b90505b61161c565b600b54600a54106116045750600161161c565b600a54600b546116199163ffffffff6123b816565b90505b600554600f54604080516370a0823160e01b815230600482015290516001600160a01b03610100909404841693861692633a951448928c928c918c91899189916370a0823191602480820192602092909190829003018186803b15801561168257600080fd5b505afa158015611696573d6000803e3d6000fd5b505050506040513d60208110156116ac57600080fd5b5051604080516001600160e01b031960e08a901b1681526004810197909752602487019590955260448601939093529015156064850152608484015260a48301525160c4808301926020929190829003018186803b15801561170d57600080fd5b505afa158015611721573d6000803e3d6000fd5b505050506040513d602081101561173757600080fd5b50519998505050505050505050565b6001600160a01b0381166000908152602081905260409020545b919050565b6006546001600160a01b031633146117b2576040805162461bcd60e51b815260206004820181905260248201526000805160206130fd833981519152604482015290519081900360640190fd5b600780546001600160a01b0319166001600160a01b0392909216919091179055565b6006546001600160a01b03163314611821576040805162461bcd60e51b815260206004820181905260248201526000805160206130fd833981519152604482015290519081900360640190fd5b600680546001600160a01b0319166001600160a01b0392909216919091179055565b6006546001600160a01b03163314611890576040805162461bcd60e51b815260206004820181905260248201526000805160206130fd833981519152604482015290519081900360640190fd5b6001811180156118a157506101f481105b6118e0576040805162461bcd60e51b815260206004820152600b60248201526a696e76616c69642066656560a81b604482015290519081900360640190fd5b601055565b60096020526000908152604090205481565b6006546001600160a01b031681565b60048054604080516020601f600260001961010060018816150201909516949094049384018190048102820181019092528281526060939092909183018282801561085d5780601f106108325761010080835404028352916020019161085d565b60055461010090046001600160a01b031681565b6000611985612f8d565b6015838154811061199257fe5b600091825260208083206040805161010081018252600690940290910180546001600160a01b03908116855260018201549385019390935260028101546001600160501b0390811685840181905260038301546060870152600480840154608088015260059093015480831660a080890182905260ff600160501b840416151560c08a0152600160581b90920490961660e088018190528551639a6fc8f560e01b815296909201909216928501929092529151939550939283928592639a6fc8f592602480840193829003018186803b158015611a6e57600080fd5b505afa158015611a82573d6000803e3d6000fd5b505050506040513d60a0811015611a9857600080fd5b50805160209091015190925090508015801590611abd57506001600160501b03821615155b611afe576040805162461bcd60e51b815260206004820152600d60248201526c1b9bdd081c9958591e481e595d609a1b604482015290519081900360640190fd5b6000611b17600b54600a546125a490919063ffffffff16565b90508460c0015115611b57578185602001511315611b3e57611b3985886125fe565b611b48565b611b48858861289a565b600a8054600019019055611b95565b8460200151821315611b7257611b6d85886125fe565b611b7c565b611b7c858861289a565b5050600b8054600019019055505060c001519050611760565b5050505050919050565b6006546001600160a01b03163314611bec576040805162461bcd60e51b815260206004820181905260248201526000805160206130fd833981519152604482015290519081900360640190fd5b6014805460ff19811660ff90911615179055565b60006108eb611c0d612021565b84610e09856040518060600160405280602581526020016131876025913960016000611c37612021565b6001600160a01b03908116825260208083019390935260409182016000908120918d1681529252902054919063ffffffff61232116565b60145460ff161515600114611cca576040805162461bcd60e51b815260206004820152601860248201527f706f6f6c206465706f736974732068617320636c6f7365640000000000000000604482015290519081900360640190fd5b600554604080516323b872dd60e01b81523360048201523060248201526044810184905290516101009092046001600160a01b03169182916323b872dd9160648083019260209291908290030181600087803b158015611d2957600080fd5b505af1158015611d3d573d6000803e3d6000fd5b505050506040513d6020811015611d5357600080fd5b5051611d97576040805162461bcd60e51b815260206004820152600e60248201526d19195c1bdcda5d0819985a5b195960921b604482015290519081900360640190fd5b60135433600081815260096020526040902042909201909155611dba90836129b6565b5050565b60006108eb611dcb612021565b84846121ba565b6008546001600160a01b031681565b600554604080516370a0823160e01b8152306004820152905160009261010090046001600160a01b031691839183916370a08231916024808301926020929190829003018186803b158015611e3557600080fd5b505afa158015611e49573d6000803e3d6000fd5b505050506040513d6020811015611e5f57600080fd5b5051600f54909150811115611e8b57600f54611e8290829063ffffffff6123b816565b92505050610865565b600092505050610865565b600d5481565b6006546001600160a01b03163314611ee9576040805162461bcd60e51b815260206004820181905260248201526000805160206130fd833981519152604482015290519081900360640190fd5b600d55565b60105481565b6006546001600160a01b03163314611f41576040805162461bcd60e51b815260206004820181905260248201526000805160206130fd833981519152604482015290519081900360640190fd5b600e55565b6001600160a01b03918216600090815260016020908152604080832093909416825291909152205490565b60125481565b60145460ff1681565b6006546001600160a01b03163314611fcd576040805162461bcd60e51b815260206004820181905260248201526000805160206130fd833981519152604482015290519081900360640190fd5b600181118015611fdd5750603281105b61201c576040805162461bcd60e51b815260206004820152600b60248201526a696e76616c69642066656560a81b604482015290519081900360640190fd5b601155565b3390565b6001600160a01b03831661206a5760405162461bcd60e51b81526004018080602001828103825260248152602001806131636024913960400191505060405180910390fd5b6001600160a01b0382166120af5760405162461bcd60e51b81526004018080602001828103825260228152602001806130176022913960400191505060405180910390fd5b6001600160a01b03808416600081815260016020908152604080832094871680845294825291829020859055815185815291517f8c5be1e5ebec7d5bd14f71427d1e84f3dd0314c0f7b2291e5b200ac8c7c3b9259281900390910190a3505050565b6008546040805163b7a9eaa960e01b81526001600160a01b03848116600483015291516000939290921691829163b7a9eaa9916024808301926020929190829003018186803b15801561216357600080fd5b505afa158015612177573d6000803e3d6000fd5b505050506040513d602081101561218d57600080fd5b50516001600160a01b031615159392505050565b600f546121b4908263ffffffff6125a416565b600f5550565b6001600160a01b0383166121ff5760405162461bcd60e51b815260040180806020018281038252602581526020018061313e6025913960400191505060405180910390fd5b6001600160a01b0382166122445760405162461bcd60e51b8152600401808060200182810382526023815260200180612fd26023913960400191505060405180910390fd5b61224f8383836111dd565b61229281604051806060016040528060268152602001613039602691396001600160a01b038616600090815260208190526040902054919063ffffffff61232116565b6001600160a01b0380851660009081526020819052604080822093909355908416815220546122c7908263ffffffff6125a416565b6001600160a01b038084166000818152602081815260409182902094909455805185815290519193928716927fddf252ad1be2c89b69c2b068fc378daa952ba7f163c4a11628f55a4df523b3ef92918290030190a3505050565b600081848411156123b05760405162461bcd60e51b81526004018080602001828103825283818151815260200191508051906020019080838360005b8381101561237557818101518382015260200161235d565b50505050905090810190601f1680156123a25780820380516001836020036101000a031916815260200191505b509250505060405180910390fd5b505050900390565b60006123fa83836040518060400160405280601e81526020017f536166654d6174683a207375627472616374696f6e206f766572666c6f770000815250612321565b9392505050565b600082612410575060006108ef565b8282028284828161241d57fe5b04146123fa5760405162461bcd60e51b81526004018080602001828103825260218152602001806130b46021913960400191505060405180910390fd5b60006123fa83836040518060400160405280601a81526020017f536166654d6174683a206469766973696f6e206279207a65726f000000000000815250612ab2565b6001600160a01b0382166124e15760405162461bcd60e51b815260040180806020018281038252602181526020018061311d6021913960400191505060405180910390fd5b6124ed826000836111dd565b61253081604051806060016040528060228152602001612ff5602291396001600160a01b038516600090815260208190526040902054919063ffffffff61232116565b6001600160a01b03831660009081526020819052604090205560025461255c908263ffffffff6123b816565b6002556040805182815290516000916001600160a01b038516917fddf252ad1be2c89b69c2b068fc378daa952ba7f163c4a11628f55a4df523b3ef9181900360200190a35050565b6000828201838110156123fa576040805162461bcd60e51b815260206004820152601b60248201527f536166654d6174683a206164646974696f6e206f766572666c6f770000000000604482015290519081900360640190fd5b600f54826080015111156126435760405162461bcd60e51b815260040180806020018281038252602981526020018061308b6029913960400191505060405180910390fd5b600554604080516370a0823160e01b815230600482015290516101009092046001600160a01b03169182916370a08231916024808301926020929190829003018186803b15801561269357600080fd5b505afa1580156126a7573d6000803e3d6000fd5b505050506040513d60208110156126bd57600080fd5b505160808401511115612717576040805162461bcd60e51b815260206004820152601b60248201527f696e737566666963656e742062616c616e636520696e20706f6f6c0000000000604482015290519081900360640190fd5b6000600c5484608001511161275c576127556064610f32612744600460105461240190919063ffffffff16565b60808801519063ffffffff61245a16565b905061277d565b61277a6064610f32601054876080015161245a90919063ffffffff16565b90505b801561284f576040805163a9059cbb60e01b81523360048201526024810183905290516001600160a01b0384169163a9059cbb9160448083019260209291908290030181600087803b1580156127d257600080fd5b505af11580156127e6573d6000803e3d6000fd5b505050506040513d60208110156127fc57600080fd5b505161284f576040805162461bcd60e51b815260206004820152601e60248201527f676f6f642073616d61726974616e207472616e73666572206661696c65640000604482015290519081900360640190fd5b6080840151600f546128669163ffffffff6123b816565b600f5560405183907fa33fd53ba34795ffefaea3759c71f87d38b89ae12e40bc434c826fae0ca5358390600090a250505050565b6080820151601254811180156128b257506000601254115b1561295d5760006128ce6012548361245a90919063ffffffff16565b6006546040519192506001600160a01b03169082156108fc029083906000818181858888f19350505050612949576040805162461bcd60e51b815260206004820152601b60248201527f64657646756e6420666565207472616e73666572206661696c65640000000000604482015290519081900360640190fd5b612959828263ffffffff6123b816565b9150505b61296c81338560000151612b17565b6080830151600f546129839163ffffffff6123b816565b600f5560405182907fa2a53c7cb82eeb7994ccbbab71bea210cd63cfeb7823972fb5b6a49c3b0e1d4c90600090a2505050565b6001600160a01b038216612a11576040805162461bcd60e51b815260206004820152601f60248201527f45524332303a206d696e7420746f20746865207a65726f206164647265737300604482015290519081900360640190fd5b612a1d600083836111dd565b600254612a30908263ffffffff6125a416565b6002556001600160a01b038216600090815260208190526040902054612a5c908263ffffffff6125a416565b6001600160a01b0383166000818152602081815260408083209490945583518581529351929391927fddf252ad1be2c89b69c2b068fc378daa952ba7f163c4a11628f55a4df523b3ef9281900390910190a35050565b60008183612b015760405162461bcd60e51b815260206004820181815283516024840152835190928392604490910191908501908083836000831561237557818101518382015260200161235d565b506000838581612b0d57fe5b0495945050505050565b600f54831115612b585760405162461bcd60e51b815260040180806020018281038252602c81526020018061305f602c913960400191505060405180910390fd5b600554604080516370a0823160e01b815230600482015290516101009092046001600160a01b03169182916370a08231916024808301926020929190829003018186803b158015612ba857600080fd5b505afa158015612bbc573d6000803e3d6000fd5b505050506040513d6020811015612bd257600080fd5b5051841115612c28576040805162461bcd60e51b815260206004820152601b60248201527f696e737566666963656e742062616c616e636520696e20706f6f6c0000000000604482015290519081900360640190fd5b816001600160a01b0316836001600160a01b031614612e6e576000662386f26fc100008511612c8357612c7c6064610f32612c6f600460105461240190919063ffffffff16565b889063ffffffff61245a16565b9050612ca0565b612c9d6064610f326010548861245a90919063ffffffff16565b90505b8015612e6857816001600160a01b031663a9059cbb85836040518363ffffffff1660e01b815260040180836001600160a01b03166001600160a01b0316815260200182815260200192505050602060405180830381600087803b158015612d0657600080fd5b505af1158015612d1a573d6000803e3d6000fd5b505050506040513d6020811015612d3057600080fd5b5051612d83576040805162461bcd60e51b815260206004820152601960248201527f657865726369736572207472616e73666572206661696c656400000000000000604482015290519081900360640190fd5b6001600160a01b03821663a9059cbb84612da3888563ffffffff6123b816565b6040518363ffffffff1660e01b815260040180836001600160a01b03166001600160a01b0316815260200182815260200192505050602060405180830381600087803b158015612df257600080fd5b505af1158015612e06573d6000803e3d6000fd5b505050506040513d6020811015612e1c57600080fd5b5051612e68576040805162461bcd60e51b81526020600482015260166024820152751dda5b9b995c881d1c985b9cd9995c8819985a5b195960521b604482015290519081900360640190fd5b50612f44565b806001600160a01b031663a9059cbb83866040518363ffffffff1660e01b815260040180836001600160a01b03166001600160a01b0316815260200182815260200192505050602060405180830381600087803b158015612ece57600080fd5b505af1158015612ee2573d6000803e3d6000fd5b505050506040513d6020811015612ef857600080fd5b5051612f44576040805162461bcd60e51b81526020600482015260166024820152751dda5b9b995c881d1c985b9cd9995c8819985a5b195960521b604482015290519081900360640190fd5b604080518581526001600160a01b038416602082015281517f9b5d1a613fa5f0790b36b13103706e31fca06b229d87e9915b29fc20c1d76490929181900390910190a150505050565b6040805161010081018252600080825260208201819052918101829052606081018290526080810182905260a0810182905260c0810182905260e08101919091529056fe45524332303a207472616e7366657220746f20746865207a65726f206164647265737345524332303a206275726e20616d6f756e7420657863656564732062616c616e636545524332303a20617070726f766520746f20746865207a65726f206164647265737345524332303a207472616e7366657220616d6f756e7420657863656564732062616c616e6365696e737566666963656e7420706f6f6c2062616c616e636520617661696c61626c6520746f207061796f7574696e737566666963656e74206c6f636b656420706f6f6c2062616c616e636520746f20756e6c6f636b536166654d6174683a206d756c7469706c69636174696f6e206f766572666c6f7745524332303a207472616e7366657220616d6f756e74206578636565647320616c6c6f77616e63654f776e61626c653a2063616c6c6572206973206e6f7420746865206f776e657245524332303a206275726e2066726f6d20746865207a65726f206164647265737345524332303a207472616e736665722066726f6d20746865207a65726f206164647265737345524332303a20617070726f76652066726f6d20746865207a65726f206164647265737345524332303a2064656372656173656420616c6c6f77616e63652062656c6f77207a65726fa2646970667358221220ade83697709db38a74961d6569eef72407761e624d48d9c102e72206b3ea0a6a64736f6c63430006060033",
  "immutableReferences": {},
  "source": "pragma solidity ^0.6.6;\n\nimport \"@openzeppelin/contracts/math/SafeMath.sol\";\nimport \"@openzeppelin/contracts/token/ERC20/ERC20.sol\";\n\n\n\nimport \"../RateCalc.sol\";\nimport \"../interfaces/IUtilizationRewards.sol\";\nimport \"../interfaces/IEBOP20.sol\";\nimport \"../interfaces/IAPP.sol\";\n\n\ninterface AggregatorInterface {\n  function latestAnswer() external view returns (int256);\n  function latestTimestamp() external view returns (uint256);\n  function latestRound() external view returns (uint256);\n  function getAnswer(uint256 roundId) external view returns (int256);\n  function getTimestamp(uint256 roundId) external view returns (uint256);\n\n  event AnswerUpdated(int256 indexed current, uint256 indexed roundId, uint256 updatedAt);\n  event NewRound(uint256 indexed roundId, address indexed startedBy, uint256 startedAt);\n}\ninterface AggregatorV3Interface {\n\n  function decimals() external view returns (uint8);\n  function description() external view returns (string memory);\n  function version() external view returns (uint256);\n\n  // getRoundData and latestRoundData should both raise \"No data present\"\n  // if they do not have data to report, instead of returning unset values\n  // which could be misinterpreted as actual reported values.\n  function getRoundData(uint80 _roundId)\n    external\n    view\n    returns (\n      uint80 roundId,\n      int256 answer,\n      uint256 startedAt,\n      uint256 updatedAt,\n      uint80 answeredInRound\n    );\n  function latestRoundData()\n    external\n    view\n    returns (\n      uint80 roundId,\n      int256 answer,\n      uint256 startedAt,\n      uint256 updatedAt,\n      uint80 answeredInRound\n    );\n\n}\ninterface AggregatorV2V3Interface is AggregatorInterface, AggregatorV3Interface\n{\n}\n\n/**\n * @title The Owned contract\n * @notice A contract with helpers for basic contract ownership.\n */\ncontract Owned {\n\n  address public owner;\n  address private pendingOwner;\n\n  event OwnershipTransferRequested(\n    address indexed from,\n    address indexed to\n  );\n  event OwnershipTransferred(\n    address indexed from,\n    address indexed to\n  );\n\n  constructor() public {\n    owner = msg.sender;\n  }\n\n  /**\n   * @dev Allows an owner to begin transferring ownership to a new address,\n   * pending.\n   */\n  function transferOwnership(address _to)\n    external\n    onlyOwner()\n  {\n    pendingOwner = _to;\n\n    emit OwnershipTransferRequested(owner, _to);\n  }\n\n  /**\n   * @dev Allows an ownership transfer to be completed by the recipient.\n   */\n  function acceptOwnership()\n    external\n  {\n    require(msg.sender == pendingOwner, \"Must be proposed owner\");\n\n    address oldOwner = owner;\n    owner = msg.sender;\n    pendingOwner = address(0);\n\n    emit OwnershipTransferred(oldOwner, msg.sender);\n  }\n\n  /**\n   * @dev Reverts if called by anyone other than the contract owner.\n   */\n  modifier onlyOwner() {\n    require(msg.sender == owner, \"Only callable by owner\");\n    _;\n  }\n\n}\ncontract AggregatorProxy is AggregatorV2V3Interface, Owned {\n\n  struct Phase {\n    uint16 id;\n    AggregatorV2V3Interface aggregator;\n  }\n  Phase private currentPhase;\n  AggregatorV2V3Interface public proposedAggregator;\n  mapping(uint16 => AggregatorV2V3Interface) public phaseAggregators;\n\n  uint256 constant private PHASE_OFFSET = 64;\n  uint256 constant private PHASE_SIZE = 16;\n  uint256 constant private MAX_ID = 2**(PHASE_OFFSET+PHASE_SIZE) - 1;\n\n  constructor(address _aggregator) public Owned() {\n    setAggregator(_aggregator);\n  }\n\n  /**\n   * @notice Reads the current answer from aggregator delegated to.\n   *\n   * @dev #[deprecated] Use latestRoundData instead. This does not error if no\n   * answer has been reached, it will simply return 0. Either wait to point to\n   * an already answered Aggregator or use the recommended latestRoundData\n   * instead which includes better verification information.\n   */\n  function latestAnswer()\n    public\n    view\n    virtual\n    override\n    returns (int256 answer)\n  {\n    return currentPhase.aggregator.latestAnswer();\n  }\n\n  /**\n   * @notice Reads the last updated height from aggregator delegated to.\n   *\n   * @dev #[deprecated] Use latestRoundData instead. This does not error if no\n   * answer has been reached, it will simply return 0. Either wait to point to\n   * an already answered Aggregator or use the recommended latestRoundData\n   * instead which includes better verification information.\n   */\n  function latestTimestamp()\n    public\n    view\n    virtual\n    override\n    returns (uint256 updatedAt)\n  {\n    return currentPhase.aggregator.latestTimestamp();\n  }\n\n  /**\n   * @notice get past rounds answers\n   * @param _roundId the answer number to retrieve the answer for\n   *\n   * @dev #[deprecated] Use getRoundData instead. This does not error if no\n   * answer has been reached, it will simply return 0. Either wait to point to\n   * an already answered Aggregator or use the recommended getRoundData\n   * instead which includes better verification information.\n   */\n  function getAnswer(uint256 _roundId)\n    public\n    view\n    virtual\n    override\n    returns (int256 answer)\n  {\n    if (_roundId > MAX_ID) return 0;\n\n    (uint16 phaseId, uint64 aggregatorRoundId) = parseIds(_roundId);\n    AggregatorV2V3Interface aggregator = phaseAggregators[phaseId];\n    if (address(aggregator) == address(0)) return 0;\n\n    return aggregator.getAnswer(aggregatorRoundId);\n  }\n\n  /**\n   * @notice get block timestamp when an answer was last updated\n   * @param _roundId the answer number to retrieve the updated timestamp for\n   *\n   * @dev #[deprecated] Use getRoundData instead. This does not error if no\n   * answer has been reached, it will simply return 0. Either wait to point to\n   * an already answered Aggregator or use the recommended getRoundData\n   * instead which includes better verification information.\n   */\n  function getTimestamp(uint256 _roundId)\n    public\n    view\n    virtual\n    override\n    returns (uint256 updatedAt)\n  {\n    if (_roundId > MAX_ID) return 0;\n\n    (uint16 phaseId, uint64 aggregatorRoundId) = parseIds(_roundId);\n    AggregatorV2V3Interface aggregator = phaseAggregators[phaseId];\n    if (address(aggregator) == address(0)) return 0;\n\n    return aggregator.getTimestamp(aggregatorRoundId);\n  }\n\n  /**\n   * @notice get the latest completed round where the answer was updated. This\n   * ID includes the proxy's phase, to make sure round IDs increase even when\n   * switching to a newly deployed aggregator.\n   *\n   * @dev #[deprecated] Use latestRoundData instead. This does not error if no\n   * answer has been reached, it will simply return 0. Either wait to point to\n   * an already answered Aggregator or use the recommended latestRoundData\n   * instead which includes better verification information.\n   */\n  function latestRound()\n    public\n    view\n    virtual\n    override\n    returns (uint256 roundId)\n  {\n    Phase memory phase = currentPhase; // cache storage reads\n    return addPhase(phase.id, uint64(phase.aggregator.latestRound()));\n  }\n\n  /**\n   * @notice get data about a round. Consumers are encouraged to check\n   * that they're receiving fresh data by inspecting the updatedAt and\n   * answeredInRound return values.\n   * Note that different underlying implementations of AggregatorV3Interface\n   * have slightly different semantics for some of the return values. Consumers\n   * should determine what implementations they expect to receive\n   * data from and validate that they can properly handle return data from all\n   * of them.\n   * @param _roundId the requested round ID as presented through the proxy, this\n   * is made up of the aggregator's round ID with the phase ID encoded in the\n   * two highest order bytes\n   * @return roundId is the round ID from the aggregator for which the data was\n   * retrieved combined with an phase to ensure that round IDs get larger as\n   * time moves forward.\n   * @return answer is the answer for the given round\n   * @return startedAt is the timestamp when the round was started.\n   * (Only some AggregatorV3Interface implementations return meaningful values)\n   * @return updatedAt is the timestamp when the round last was updated (i.e.\n   * answer was last computed)\n   * @return answeredInRound is the round ID of the round in which the answer\n   * was computed.\n   * (Only some AggregatorV3Interface implementations return meaningful values)\n   * @dev Note that answer and updatedAt may change between queries.\n   */\n  function getRoundData(uint80 _roundId)\n    public\n    view\n    virtual\n    override\n    returns (\n      uint80 roundId,\n      int256 answer,\n      uint256 startedAt,\n      uint256 updatedAt,\n      uint80 answeredInRound\n    )\n  {\n    (uint16 phaseId, uint64 aggregatorRoundId) = parseIds(_roundId);\n\n    (\n      uint80 roundId,\n      int256 answer,\n      uint256 startedAt,\n      uint256 updatedAt,\n      uint80 ansIn\n    ) = phaseAggregators[phaseId].getRoundData(aggregatorRoundId);\n\n    return addPhaseIds(roundId, answer, startedAt, updatedAt, ansIn, phaseId);\n  }\n\n  /**\n   * @notice get data about the latest round. Consumers are encouraged to check\n   * that they're receiving fresh data by inspecting the updatedAt and\n   * answeredInRound return values.\n   * Note that different underlying implementations of AggregatorV3Interface\n   * have slightly different semantics for some of the return values. Consumers\n   * should determine what implementations they expect to receive\n   * data from and validate that they can properly handle return data from all\n   * of them.\n   * @return roundId is the round ID from the aggregator for which the data was\n   * retrieved combined with an phase to ensure that round IDs get larger as\n   * time moves forward.\n   * @return answer is the answer for the given round\n   * @return startedAt is the timestamp when the round was started.\n   * (Only some AggregatorV3Interface implementations return meaningful values)\n   * @return updatedAt is the timestamp when the round last was updated (i.e.\n   * answer was last computed)\n   * @return answeredInRound is the round ID of the round in which the answer\n   * was computed.\n   * (Only some AggregatorV3Interface implementations return meaningful values)\n   * @dev Note that answer and updatedAt may change between queries.\n   */\n  function latestRoundData()\n    public\n    view\n    virtual\n    override\n    returns (\n      uint80 roundId,\n      int256 answer,\n      uint256 startedAt,\n      uint256 updatedAt,\n      uint80 answeredInRound\n    )\n  {\n    Phase memory current = currentPhase; // cache storage reads\n\n    (\n      uint80 roundId,\n      int256 answer,\n      uint256 startedAt,\n      uint256 updatedAt,\n      uint80 ansIn\n    ) = current.aggregator.latestRoundData();\n\n    return addPhaseIds(roundId, answer, startedAt, updatedAt, ansIn, current.id);\n  }\n\n  /**\n   * @notice Used if an aggregator contract has been proposed.\n   * @param _roundId the round ID to retrieve the round data for\n   * @return roundId is the round ID for which data was retrieved\n   * @return answer is the answer for the given round\n   * @return startedAt is the timestamp when the round was started.\n   * (Only some AggregatorV3Interface implementations return meaningful values)\n   * @return updatedAt is the timestamp when the round last was updated (i.e.\n   * answer was last computed)\n   * @return answeredInRound is the round ID of the round in which the answer\n   * was computed.\n  */\n  function proposedGetRoundData(uint80 _roundId)\n    public\n    view\n    virtual\n    hasProposal()\n    returns (\n      uint80 roundId,\n      int256 answer,\n      uint256 startedAt,\n      uint256 updatedAt,\n      uint80 answeredInRound\n    )\n  {\n    return proposedAggregator.getRoundData(_roundId);\n  }\n\n  /**\n   * @notice Used if an aggregator contract has been proposed.\n   * @return roundId is the round ID for which data was retrieved\n   * @return answer is the answer for the given round\n   * @return startedAt is the timestamp when the round was started.\n   * (Only some AggregatorV3Interface implementations return meaningful values)\n   * @return updatedAt is the timestamp when the round last was updated (i.e.\n   * answer was last computed)\n   * @return answeredInRound is the round ID of the round in which the answer\n   * was computed.\n  */\n  function proposedLatestRoundData()\n    public\n    view\n    virtual\n    hasProposal()\n    returns (\n      uint80 roundId,\n      int256 answer,\n      uint256 startedAt,\n      uint256 updatedAt,\n      uint80 answeredInRound\n    )\n  {\n    return proposedAggregator.latestRoundData();\n  }\n\n  /**\n   * @notice returns the current phase's aggregator address.\n   */\n  function aggregator()\n    external\n    view\n    returns (address)\n  {\n    return address(currentPhase.aggregator);\n  }\n\n  /**\n   * @notice returns the current phase's ID.\n   */\n  function phaseId()\n    external\n    view\n    returns (uint16)\n  {\n    return currentPhase.id;\n  }\n\n  /**\n   * @notice represents the number of decimals the aggregator responses represent.\n   */\n  function decimals()\n    external\n    view\n    override\n    returns (uint8)\n  {\n    return currentPhase.aggregator.decimals();\n  }\n\n  /**\n   * @notice the version number representing the type of aggregator the proxy\n   * points to.\n   */\n  function version()\n    external\n    view\n    override\n    returns (uint256)\n  {\n    return currentPhase.aggregator.version();\n  }\n\n  /**\n   * @notice returns the description of the aggregator the proxy points to.\n   */\n  function description()\n    external\n    view\n    override\n    returns (string memory)\n  {\n    return currentPhase.aggregator.description();\n  }\n\n  /**\n   * @notice Allows the owner to propose a new address for the aggregator\n   * @param _aggregator The new address for the aggregator contract\n   */\n  function proposeAggregator(address _aggregator)\n    external\n    onlyOwner()\n  {\n    proposedAggregator = AggregatorV2V3Interface(_aggregator);\n  }\n\n  /**\n   * @notice Allows the owner to confirm and change the address\n   * to the proposed aggregator\n   * @dev Reverts if the given address doesn't match what was previously\n   * proposed\n   * @param _aggregator The new address for the aggregator contract\n   */\n  function confirmAggregator(address _aggregator)\n    external\n    onlyOwner()\n  {\n    require(_aggregator == address(proposedAggregator), \"Invalid proposed aggregator\");\n    delete proposedAggregator;\n    setAggregator(_aggregator);\n  }\n\n\n  /*\n   * Internal\n   */\n\n  function setAggregator(address _aggregator)\n    internal\n  {\n    uint16 id = currentPhase.id + 1;\n    currentPhase = Phase(id, AggregatorV2V3Interface(_aggregator));\n    phaseAggregators[id] = AggregatorV2V3Interface(_aggregator);\n  }\n\n  function addPhase(\n    uint16 _phase,\n    uint64 _originalId\n  )\n    internal\n    view\n    returns (uint80)\n  {\n    return uint80(uint256(_phase) << PHASE_OFFSET | _originalId);\n  }\n\n  function parseIds(\n    uint256 _roundId\n  )\n    internal\n    view\n    returns (uint16, uint64)\n  {\n    uint16 phaseId = uint16(_roundId >> PHASE_OFFSET);\n    uint64 aggregatorRoundId = uint64(_roundId);\n\n    return (phaseId, aggregatorRoundId);\n  }\n\n  function addPhaseIds(\n      uint80 roundId,\n      int256 answer,\n      uint256 startedAt,\n      uint256 updatedAt,\n      uint80 answeredInRound,\n      uint16 phaseId\n  )\n    internal\n    view\n    returns (uint80, int256, uint256, uint256, uint80)\n  {\n    return (\n      addPhase(phaseId, uint64(roundId)),\n      answer,\n      startedAt,\n      updatedAt,\n      addPhase(phaseId, uint64(answeredInRound))\n    );\n  }\n\n  /*\n   * Modifiers\n   */\n\n  modifier hasProposal() {\n    require(address(proposedAggregator) != address(0), \"No proposed aggregator present\");\n    _;\n  }\n\n}\n\n\ncontract EBOP20 is ERC20, IEBOP20 {\n  address public sT;//the token pooled in this contract\n  address payable public owner;\n  address payable public treasury;\n\n\n  address public app;//the approved pp/ratecalc\n  mapping(address=>uint256) public nW; //next withdraw (used for pool lock time)\n\n\n  uint256 public oC = 0;\n  uint256 public oP = 0;\n\n  uint256 base = 1000000000000000000;//one token of the underlying, used for expiring\n  uint256 public minT;//min rounds\n  uint256 public maxT;//max rounds\n  uint256 public lockedAmount;\n  uint256 public exerciserFee = 50;//in tenth percent\n  uint256 public expirerFee = 50;//in tenth percent\n  uint256 public daoBetFee = 0;//200;//0.5%\n  uint256 public poolLockSeconds = 7 days;\n  bool public open = true;\n  Option[] public options;\n\n  modifier onlyOwner() {\n    require(owner == msg.sender, \"Ownable: caller is not the owner\");\n    _;\n  }\n\n  /* Types */\n  struct Option {\n    address payable holder;\n    int256 sP;//strike\n    uint80 pR;//purchase round\n    uint256 pV;//purchase value\n    uint256 lV;// purchaseAmount+possible reward for correct bet\n    uint80 exp;//final round of option s\n    bool dir;//direction (true for call)\n    address pP;//price provider\n  }\n\n  /* Events */\n  event Create(\n    uint256 indexed id,\n    address payable account,\n    int256 sP,//strike\n    uint256 lV,//locked value\n    bool dir,\n    uint80 pR,//purchase round\n    uint80 exp//expiration round\n  );\n    event Payout(uint256 poolLost, address winner);\n    event Exercise(uint256 indexed id);\n    event Expire(uint256 indexed id);\n\n  constructor(string memory name_, string memory symbol_, address token_, address payable dao_, address app_, address payable treasury_) public ERC20(name_, symbol_) {\n    sT = token_;\n    owner = dao_;\n    app = app_;\n    treasury = treasury_;\n    minT = 1;\n    maxT = 3;\n    lockedAmount = 0;\n  } \n\n  //start of governance/maintanance functions\n\n  /**\n    * @dev set the new address to control this contract\n    * @param newDAO_ the new owner's address\n    */\n  function updateOwner(address payable newDAO_) public onlyOwner {\n    owner = newDAO_;\n  }\n\n  /**\n    * @dev set the new address of the Approved Price Providers(APP)\n    * @param newAPP_ the new APP address\n    */\n  function updateAPP(address newAPP_) public onlyOwner {\n    app = newAPP_;\n  }\n\n  /**\n    * @dev set the new address of the treasury that early withdraw fees or bet fees go to\n    * @param newTreasury_ the new Treasury address\n    */\n  function updateTreasury(address payable newTreasury_) public onlyOwner {\n    treasury = newTreasury_;\n  }\n\n  /**\n    * @dev set the base amount of the token. important for tokens that have more or less then 18 decimal places\n    * @param newBase_ the new base amount\n    */\n  function updateBase(uint256 newBase_) public onlyOwner {\n    base = newBase_;\n  }\n\n  /**\n    * @dev set the fee users can recieve for exercising other users options\n    * @param exerciserFee_ the new fee (in tenth percent) for exercising a options itm\n    */\n  function updateExerciserFee(uint256 exerciserFee_) external onlyOwner {\n    require(exerciserFee_ > 1 && exerciserFee_ < 500, \"invalid fee\");\n    exerciserFee = exerciserFee_;\n  }\n\n  /**\n    * @dev set the fee users can recieve for expiring other users options\n    * @param expirerFee_ the new fee (in tenth percent) for expiring a options\n    */\n  function updateExpirerFee(uint256 expirerFee_) external onlyOwner {\n    require(expirerFee_ > 1 && expirerFee_ < 50, \"invalid fee\");\n    expirerFee = expirerFee_;\n  }\n\n  /**\n    * @dev set the fee users pay to buy an option\n    * @param daoBetFee_ the new fee (in tenth percent) to buy an option\n    */\n  function updateDAOBetFee(uint256 daoBetFee_) external onlyOwner {\n    require(daoBetFee_ == 0 || daoBetFee_ > 50, \"invalid fee\");\n    daoBetFee = daoBetFee_;\n  }\n\n  /**\n    * @dev update the pool stake lock up time.\n    * @param newLockSeconds_ the new lock time, in seconds\n    */\n  function updatePoolLockSeconds(uint256 newLockSeconds_) external onlyOwner {\n    require(newLockSeconds_ >= 0 && newLockSeconds_ < 14 days, \"invalid fee\");\n    poolLockSeconds = newLockSeconds_;\n  }\n\n  /**\n    * @dev update the max rounds for option bets\n    * @param newMax_ the new maximum time (in rounds) an option may be created for (inclusive).\n    */\n  function updateMaxT(uint256 newMax_) external onlyOwner {\n    maxT = newMax_;\n  }\n\n  /**\n    * @dev update the min rounds for option bets\n    * @param newMin_ the new minimum rounds (in rounds) an option may be created for (inclusive).\n    */\n  function updateMinT(uint256 newMin_) external onlyOwner {\n    minT = newMin_;\n  }\n\n   /**\n     * @dev used to send this pool into EOL mode when a newer one is open\n     */\n    function closeStaking() external onlyOwner {\n        open = !open;\n    }\n\n  // End of governance/maintanance functions\n\n  //start of usage functions\n\n   /**\n    * @dev deposit into the pool\n    * @param amount_ the amount you want to deposit to be used for underwriting options\n    */\n  function stake(uint256 amount_) public override {\n    require(open == true, \"pool deposits has closed\");\n    ERC20 token = ERC20(sT);\n    require(token.transferFrom(msg.sender, address(this), amount_), \"deposit failed\");\n    nW[msg.sender] = block.timestamp + poolLockSeconds;\n    _mint(msg.sender, amount_);\n  }\n\n  /**\n    * @dev recieve tokens from the pool. \n    * If the current time is before your next available withdraw a 1% fee will be applied.\n    * @param amount_ The amount of LP token to return the pool (burn).\n    */\n  function withdraw(uint256 amount_) public override {\n    require (balanceOf(msg.sender) >= amount_, \"Insufficent Share Balance\");\n    ERC20 token = ERC20(sT);\n    //value to receive\n    uint256 vTR = amount_.mul(token.balanceOf(address(this))).div(totalSupply().sub(lockedAmount));\n    _burn(msg.sender, amount_);\n    if (block.timestamp <= nW[msg.sender]) {\n      //early withdraw fee\n      uint256 penalty = vTR.div(100);\n      require(token.transfer(treasury, penalty), \"transfer failed\");\n      require(token.transfer(msg.sender, vTR.sub(penalty)), \"transfer failed\");\n    } else {\n      require(token.transfer(msg.sender, vTR), \"transfer failed\");\n    }\n  }\n\n  /**\n    @dev Get the largest amount a bet can be created for\n    */\n  function getMaxAvailable() public view returns(uint256) {\n    ERC20 token = ERC20(sT);\n    uint256 balance = token.balanceOf(address(this));\n    if (balance > lockedAmount) {\n      return balance.sub(lockedAmount);\n    } else {\n      return 0;\n    }\n  }\n\n  /**\n    @dev helper for getting rate\n    @param pair the price provider\n    @param deposit bet amount\n    @param t time\n    @param k direction bool, true is call\n    @return the rate\n    */\n  function getRate(address pair, uint256 deposit, uint256 t, bool k) public view returns (uint256) {\n    IAPP app_ = IAPP(app);\n    require(app_.aprvd(pair) != 0x0000000000000000000000000000000000000000, \"invalid trading pair\");\n          \n    RateCalc rc = RateCalc(app_.aprvd(pair));\n    uint256 s;\n    if (k){\n      if (oP >= oC) {\n        s = 1;\n      } else {\n        s = oC.sub(oP);\n      }\n    } else {\n      if (oC >= oP) {\n        s = 1;\n      } else {\n        s = oP.sub(oC);\n      }\n    }\n    ERC20 token = ERC20(sT);\n    return rc.rate(deposit, lockedAmount , t, k, s, token.balanceOf(address(this)));\n  }\n\n  /**\n    @dev called by BinaryOptions contract to lock pool value coresponding to new binary options bought. \n    @param amount amount in ETH to lock from the pool total.\n    */\n  function lock(uint256 amount) internal {\n    lockedAmount = lockedAmount.add(amount);\n  }\n\n  /**\n    @dev check if a price provider is approved.\n    @param pp_ the oracle feed to check\n    **/\n  function isApproved(address pp_) internal returns(bool){\n    IAPP app_ = IAPP(app);\n    return app_.aprvd(pp_) != 0x0000000000000000000000000000000000000000;\n  }\n\n  /**\n    @dev Open a new call or put options.\n    @param k_ type of option to buy (true for call )\n    @param pp_ the address of the price provider to use (must be in the list of aprvd from IAPP)\n    @param t_ the rounds until your options expiration (must be minT < t_ > maxT)\n    @param a_ the amount to spend on on the option\n    */\n  function bet(bool k_, address pp_, uint80 t_, uint256 a_) external override {\n    require(\n      t_ >= minT && t_ <= maxT,\n      \"Invalid time\"\n    );\n    require(isApproved(pp_), \"Invalid  price provider\");\n    require(a_ <= getMaxAvailable(), \"bet to big\");  \n\n    ERC20 token = ERC20(sT);\n    token.transferFrom(msg.sender, address(this), a_);\n\n    AggregatorProxy priceProvider = AggregatorProxy(pp_);\n    (uint80 lR, int256 lA, , , ) = priceProvider.latestRoundData();\n    uint256 oID = options.length; \n\n    uint256 lV = getRate(pp_, a_, t_, k_);\n    lock(lV);\n\n    Option memory op = Option(\n      msg.sender,\n      lA,\n      lR,\n      a_,\n      lV,\n      t_,//rounds until expiration\n      k_,\n      pp_\n    );\n    if (k_) {\n      oC = oC+1;\n    } else {\n      oP = oP+1;\n    }\n    options.push(op);\n    emit Create(oID, msg.sender, lA, lV, k_, lR, lR+t_);\n  }\n\n  /**\n    * @notice exercises or expire a option\n    * @dev exercise and expire functions have been depreciated in favor of this single complete option\n    * @param oID id of the option to complete\n    */\n  function complete(uint256 oID) external override returns(bool){\n    Option memory option = options[oID];\n    AggregatorProxy priceProvider = AggregatorProxy(option.pP);\n    (uint80 lR, int256 lA, , , ) = priceProvider.getRoundData(uint80(option.pR+option.exp));\n    require(lA != 0 && lR != 0, \"not ready yet\");\n    uint256 stack = oC.add(oP);\n    if (option.dir) {\n      //call option\n      if (option.sP > lA) {\n        //OTM expire\n        expire(option, oID);\n      } else {\n        //ITM exercise\n        exercise(option, oID);\n      }\n      oC = oC-1;\n    } else {\n      //put option\n      if (lA > option.sP) {\n        //OTM expire\n        expire(option, oID);\n      } else {\n        //ITM exercise\n        exercise(option, oID);\n      }\n      oP = oP-1;\n      return option.dir;\n    }\n  }\n\n  /**\n    @dev called by BinaryOptions contract to payout pool value coresponding to binary options expiring itm. \n    @param amount amount in ERC20 to send\n    @param exerciser address calling the exercise/expire function, this may the winner or another user who then earns a fee.\n    @param winner address of the winner.\n    @notice exerciser fees are subject to change see updateFeePercent above.\n    */\n  function payout(uint256 amount, address payable exerciser, address payable winner) internal {\n    require(amount <= lockedAmount, \"insufficent pool balance available to payout\");\n\n    ERC20 token = ERC20(sT);\n    require(amount <= token.balanceOf(address(this)), \"insufficent balance in pool\");\n    if (exerciser != winner) {\n      //good samaratin fee\n      uint256 fee;\n      if (amount <= 10000000000000000) {//small options give bigger fee %\n        fee = amount.div(exerciserFee.mul(4)).div(100);\n      } else {\n        fee = amount.div(exerciserFee).div(100);\n      } \n\n      if (fee > 0) {\n        require(token.transfer(exerciser, fee), \"exerciser transfer failed\");\n        require(token.transfer(winner, amount.sub(fee)), \"winner transfer failed\");\n      }\n    } else {  \n      require(token.transfer(winner, amount), \"winner transfer failed\");\n    }\n    emit Payout(amount, winner);\n  }\n\n  /**\n     * @notice exercise an option\n     * @dev use complete to exercise an option. This is a internal function\n     * @param option the option to exercise\n     * @param oID the option id\n     */\n  function exercise(Option memory option, uint256 oID) internal {\n    //option expires ITM, pool pays out\n\n    uint256 lv = option.lV;\n    //an optional (to be choosen by contract owner) fee on each option. \n    //A % of the bet money is sent as a fee. see daoBetFee\n    if (lv > daoBetFee && daoBetFee > 0) {\n      uint256 fee = lv.div(daoBetFee);\n      require(owner.send(fee), \"devFund fee transfer failed\");\n      lv = lv.sub(fee);\n    }\n    payout(lv, msg.sender, option.holder);\n    lockedAmount = lockedAmount.sub(option.lV);\n    emit Exercise(oID);\n  }\n\n  /**\n     * @notice expire an option\n     * @dev use complete to expire an option. This is a internal function\n     * @param option the option to exercise\n     * @param oID the option id\n     */\n  function expire(Option memory option, uint256 oID) internal {\n    require(option.lV <= lockedAmount, \"insufficent locked pool balance to unlock\");\n    \n    \n    ERC20 token = ERC20(sT);\n    require(option.lV <= token.balanceOf(address(this)), \"insufficent balance in pool\");\n    uint256 fee;\n    if (option.lV <= base) {//small options give bigger fee %\n      fee = option.lV.div(exerciserFee.mul(4)).div(100);\n    } else {\n      fee = option.lV.div(exerciserFee).div(100);\n    } \n\n    if (fee > 0) {\n      require(token.transfer(msg.sender, fee), \"good samaritan transfer failed\");\n    }\n    lockedAmount = lockedAmount.sub(option.lV);\n    emit Expire(oID);\n  }\n}\n",
  "sourcePath": "/Users/x/Desktop/eth/BIOPv4/contracts/EBOP20/EBOP20.sol",
  "compiler": {
    "name": "solc",
    "version": "0.6.6+commit.6c089d02.Emscripten.clang"
  },
  "schemaVersion": "3.3.4",
  "updatedAt": "2021-05-14T23:07:18.743Z",
  "devdoc": {
    "methods": {
      "allowance(address,address)": {
        "details": "See {IERC20-allowance}."
      },
      "approve(address,uint256)": {
        "details": "See {IERC20-approve}.     * Requirements:     * - `spender` cannot be the zero address."
      },
      "balanceOf(address)": {
        "details": "See {IERC20-balanceOf}."
      },
      "bet(bool,address,uint80,uint256)": {
        "details": "Open a new call or put options.",
        "params": {
          "a_": "the amount to spend on on the option",
          "k_": "type of option to buy (true for call )",
          "pp_": "the address of the price provider to use (must be in the list of aprvd from IAPP)",
          "t_": "the rounds until your options expiration (must be minT < t_ > maxT)"
        }
      },
      "closeStaking()": {
        "details": "used to send this pool into EOL mode when a newer one is open"
      },
      "complete(uint256)": {
        "details": "exercise and expire functions have been depreciated in favor of this single complete option",
        "params": {
          "oID": "id of the option to complete"
        }
      },
      "decimals()": {
        "details": "Returns the number of decimals used to get its user representation. For example, if `decimals` equals `2`, a balance of `505` tokens should be displayed to a user as `5,05` (`505 / 10 ** 2`).     * Tokens usually opt for a value of 18, imitating the relationship between Ether and Wei. This is the value {ERC20} uses, unless {_setupDecimals} is called.     * NOTE: This information is only used for _display_ purposes: it in no way affects any of the arithmetic of the contract, including {IERC20-balanceOf} and {IERC20-transfer}."
      },
      "decreaseAllowance(address,uint256)": {
        "details": "Atomically decreases the allowance granted to `spender` by the caller.     * This is an alternative to {approve} that can be used as a mitigation for problems described in {IERC20-approve}.     * Emits an {Approval} event indicating the updated allowance.     * Requirements:     * - `spender` cannot be the zero address. - `spender` must have allowance for the caller of at least `subtractedValue`."
      },
      "getMaxAvailable()": {
        "details": "Get the largest amount a bet can be created for"
      },
      "getRate(address,uint256,uint256,bool)": {
        "details": "helper for getting rate",
        "params": {
          "deposit": "bet amount",
          "k": "direction bool, true is call",
          "pair": "the price provider",
          "t": "time"
        },
        "returns": {
          "_0": "the rate"
        }
      },
      "increaseAllowance(address,uint256)": {
        "details": "Atomically increases the allowance granted to `spender` by the caller.     * This is an alternative to {approve} that can be used as a mitigation for problems described in {IERC20-approve}.     * Emits an {Approval} event indicating the updated allowance.     * Requirements:     * - `spender` cannot be the zero address."
      },
      "name()": {
        "details": "Returns the name of the token."
      },
      "stake(uint256)": {
        "details": "deposit into the pool",
        "params": {
          "amount_": "the amount you want to deposit to be used for underwriting options"
        }
      },
      "symbol()": {
        "details": "Returns the symbol of the token, usually a shorter version of the name."
      },
      "totalSupply()": {
        "details": "See {IERC20-totalSupply}."
      },
      "transfer(address,uint256)": {
        "details": "See {IERC20-transfer}.     * Requirements:     * - `recipient` cannot be the zero address. - the caller must have a balance of at least `amount`."
      },
      "transferFrom(address,address,uint256)": {
        "details": "See {IERC20-transferFrom}.     * Emits an {Approval} event indicating the updated allowance. This is not required by the EIP. See the note at the beginning of {ERC20}.     * Requirements:     * - `sender` and `recipient` cannot be the zero address. - `sender` must have a balance of at least `amount`. - the caller must have allowance for ``sender``'s tokens of at least `amount`."
      },
      "updateAPP(address)": {
        "details": "set the new address of the Approved Price Providers(APP)",
        "params": {
          "newAPP_": "the new APP address"
        }
      },
      "updateBase(uint256)": {
        "details": "set the base amount of the token. important for tokens that have more or less then 18 decimal places",
        "params": {
          "newBase_": "the new base amount"
        }
      },
      "updateDAOBetFee(uint256)": {
        "details": "set the fee users pay to buy an option",
        "params": {
          "daoBetFee_": "the new fee (in tenth percent) to buy an option"
        }
      },
      "updateExerciserFee(uint256)": {
        "details": "set the fee users can recieve for exercising other users options",
        "params": {
          "exerciserFee_": "the new fee (in tenth percent) for exercising a options itm"
        }
      },
      "updateExpirerFee(uint256)": {
        "details": "set the fee users can recieve for expiring other users options",
        "params": {
          "expirerFee_": "the new fee (in tenth percent) for expiring a options"
        }
      },
      "updateMaxT(uint256)": {
        "details": "update the max rounds for option bets",
        "params": {
          "newMax_": "the new maximum time (in rounds) an option may be created for (inclusive)."
        }
      },
      "updateMinT(uint256)": {
        "details": "update the min rounds for option bets",
        "params": {
          "newMin_": "the new minimum rounds (in rounds) an option may be created for (inclusive)."
        }
      },
      "updateOwner(address)": {
        "details": "set the new address to control this contract",
        "params": {
          "newDAO_": "the new owner's address"
        }
      },
      "updatePoolLockSeconds(uint256)": {
        "details": "update the pool stake lock up time.",
        "params": {
          "newLockSeconds_": "the new lock time, in seconds"
        }
      },
      "updateTreasury(address)": {
        "details": "set the new address of the treasury that early withdraw fees or bet fees go to",
        "params": {
          "newTreasury_": "the new Treasury address"
        }
      },
      "withdraw(uint256)": {
        "details": "recieve tokens from the pool.  If the current time is before your next available withdraw a 1% fee will be applied.",
        "params": {
          "amount_": "The amount of LP token to return the pool (burn)."
        }
      }
    }
  },
  "userdoc": {
    "methods": {
      "complete(uint256)": {
        "notice": "exercises or expire a option"
      }
    }
  }
}