{
  "contractName": "EBOP20Factory",
  "abi": [
    {
      "inputs": [],
      "stateMutability": "nonpayable",
      "type": "constructor"
    },
    {
      "anonymous": false,
      "inputs": [
        {
          "indexed": false,
          "internalType": "contract EBOP20",
          "name": "ebop20",
          "type": "address"
        }
      ],
      "name": "EBOP20Created",
      "type": "event"
    },
    {
      "inputs": [
        {
          "internalType": "address",
          "name": "",
          "type": "address"
        }
      ],
      "name": "ebop20Addresses",
      "outputs": [
        {
          "internalType": "address",
          "name": "",
          "type": "address"
        }
      ],
      "stateMutability": "view",
      "type": "function"
    },
    {
      "inputs": [],
      "name": "owner",
      "outputs": [
        {
          "internalType": "address payable",
          "name": "",
          "type": "address"
        }
      ],
      "stateMutability": "view",
      "type": "function"
    },
    {
      "inputs": [
        {
          "internalType": "address",
          "name": "token_",
          "type": "address"
        }
      ],
      "name": "getEBOP20Address",
      "outputs": [
        {
          "internalType": "address",
          "name": "",
          "type": "address"
        }
      ],
      "stateMutability": "nonpayable",
      "type": "function"
    },
    {
      "inputs": [
        {
          "internalType": "address payable",
          "name": "newDAO_",
          "type": "address"
        }
      ],
      "name": "transferOwner",
      "outputs": [],
      "stateMutability": "nonpayable",
      "type": "function"
    },
    {
      "inputs": [
        {
          "internalType": "address",
          "name": "token_",
          "type": "address"
        },
        {
          "internalType": "address payable",
          "name": "treasury_",
          "type": "address"
        },
        {
          "internalType": "address",
          "name": "app_",
          "type": "address"
        }
      ],
      "name": "createEBOP20",
      "outputs": [],
      "stateMutability": "nonpayable",
      "type": "function"
    },
    {
      "inputs": [
        {
          "internalType": "address",
          "name": "tokenAddress_",
          "type": "address"
        }
      ],
      "name": "removePool",
      "outputs": [],
      "stateMutability": "nonpayable",
      "type": "function"
    }
  ],
  "bytecode": "0x608060405234801561001057600080fd5b50600180546001600160a01b03191633179055613a37806100326000396000f3fe608060405234801561001057600080fd5b50600436106100625760003560e01c80633b7d0946146100675780634fb2e45d1461008f578063821cb60e146100b55780638da5cb5b146100f7578063932df674146100ff5780639a6a976f14610125575b600080fd5b61008d6004803603602081101561007d57600080fd5b50356001600160a01b031661015d565b005b61008d600480360360208110156100a557600080fd5b50356001600160a01b03166101e3565b6100db600480360360208110156100cb57600080fd5b50356001600160a01b0316610264565b604080516001600160a01b039092168252519081900360200190f35b6100db610282565b6100db6004803603602081101561011557600080fd5b50356001600160a01b0316610291565b61008d6004803603606081101561013b57600080fd5b506001600160a01b0381358116916020810135821691604090910135166102ac565b6001546001600160a01b031633146101bc576040805162461bcd60e51b815260206004820181905260248201527f4f776e61626c653a2063616c6c6572206973206e6f7420746865206f776e6572604482015290519081900360640190fd5b6001600160a01b0316600090815260208190526040902080546001600160a01b0319169055565b6001546001600160a01b03163314610242576040805162461bcd60e51b815260206004820181905260248201527f4f776e61626c653a2063616c6c6572206973206e6f7420746865206f776e6572604482015290519081900360640190fd5b600180546001600160a01b0319166001600160a01b0392909216919091179055565b6001600160a01b039081166000908152602081905260409020541690565b6001546001600160a01b031681565b6000602081905290815260409020546001600160a01b031681565b604080516402837b7b6160dd1b602080830191909152640100000000600160c01b039086901b166306fdde038117831b60258301528251601d818403018152603d83018452600760fc1b605d8401526395d89b41909117831b605e8301528251605681840301815260769092019283905260015486936000939185916001600160a01b03919091169087908990610342906104c2565b6001600160a01b03808616604083015284811660608301528381166080830152821660a082015260c08082528751908201528651819060208083019160e08401918b019080838360005b838110156103a457818101518382015260200161038c565b50505050905090810190601f1680156103d15780820380516001836020036101000a031916815260200191505b5083810382528851815288516020918201918a019080838360005b838110156104045781810151838201526020016103ec565b50505050905090810190601f1680156104315780820380516001836020036101000a031916815260200191505b5098505050505050505050604051809103906000f080158015610458573d6000803e3d6000fd5b506001600160a01b038381166000908152602081815260409182902080546001600160a01b0319169385169384179055815192835290519293507f60ce2a416320e8589f3a7ba72d8d4ccb2d41ee883decb653caaab8a9a4706bdc92918290030190a15050505050565b613532806104d08339019056fe60806040526000600a819055600b819055670de0b6b3a7640000600c556032601081905560115560125562093a806013556014805460ff191660011790553480156200004a57600080fd5b506040516200353238038062003532833981810160405260c08110156200007057600080fd5b81019080805160405193929190846401000000008211156200009157600080fd5b908301906020820185811115620000a757600080fd5b8251640100000000811182820188101715620000c257600080fd5b82525081516020918201929091019080838360005b83811015620000f1578181015183820152602001620000d7565b50505050905090810190601f1680156200011f5780820380516001836020036101000a031916815260200191505b50604052602001805160405193929190846401000000008211156200014357600080fd5b9083019060208201858111156200015957600080fd5b82516401000000008111828201881017156200017457600080fd5b82525081516020918201929091019080838360005b83811015620001a357818101518382015260200162000189565b50505050905090810190601f168015620001d15780820380516001836020036101000a031916815260200191505b506040908152602082810151918301516060840151608090940151885193965090945091879187916200020b91600391908501906200029c565b508051620002219060049060208401906200029c565b5050600580546001600160a01b0396871661010002610100600160a81b031960ff199092166012179190911617905550600680549385166001600160a01b031994851617905560088054928516928416929092179091556007805491909316911617905550506001600d556003600e556000600f5562000341565b828054600181600116156101000203166002900490600052602060002090601f016020900481019282601f10620002df57805160ff19168380011785556200030f565b828001600101855582156200030f579182015b828111156200030f578251825591602001919060010190620002f2565b506200031d92915062000321565b5090565b6200033e91905b808211156200031d576000815560010162000328565b90565b6131e180620003516000396000f3fe608060405234801561001057600080fd5b50600436106102745760003560e01c80637f51bb1f11610151578063a9059cbb116100c3578063d25b00d011610087578063d25b00d014610751578063dbdf8dfb14610759578063dd62ed3e14610776578063ed2b949e146107a4578063fcfff16f146107ac578063fd4cbc05146107b457610274565b8063a9059cbb146106f0578063b76564bd1461071c578063bac2e6db14610724578063c89723911461072c578063c97d4b2b1461073457610274565b806395d89b411161011557806395d89b411461067257806396cff5251461067a578063971d852f1461068257806398cfe5871461069f578063a457c2d7146106a7578063a694fc3a146106d357610274565b80637f51bb1f146105db578063880cdc31146106015780638a0c6d26146106275780638a300e68146106445780638da5cb5b1461066a57610274565b80633c3498b4116101ea57806360baaaae116101ae57806360baaaae1461053f57806361d027b31461054757806363691eaa1461056b5780636ab28bc8146105735780636ab7d6d01461057b57806370a08231146105b557610274565b80633c3498b4146104685780633f003b7914610485578063409e2205146104a25780635009a6131461051a578063602d86081461053757610274565b80632085749d1161023c5780632085749d1461038057806323b872dd146103c35780632e1a7d4d146103f95780632f67e35914610416578063313ce5671461041e578063395093511461043c57610274565b806306fdde031461027957806307e665df146102f6578063095ea7b31461031e57806318126dce1461035e57806318160ddd14610378575b600080fd5b6102816107d1565b6040805160208082528351818301528351919283929083019185019080838360005b838110156102bb5781810151838201526020016102a3565b50505050905090810190601f1680156102e85780820380516001836020036101000a031916815260200191505b509250505060405180910390f35b61031c6004803603602081101561030c57600080fd5b50356001600160a01b0316610868565b005b61034a6004803603604081101561033457600080fd5b506001600160a01b0381351690602001356108d7565b604080519115158252519081900360200190f35b6103666108f5565b60408051918252519081900360200190f35b6103666108fb565b61031c6004803603608081101561039657600080fd5b5080351515906001600160a01b03602082013516906001600160501b036040820135169060600135610901565b61034a600480360360608110156103d957600080fd5b506001600160a01b03813581169160208101359091169060400135610d8b565b61031c6004803603602081101561040f57600080fd5b5035610e18565b6103666111e2565b6104266111e8565b6040805160ff9092168252519081900360200190f35b61034a6004803603604081101561045257600080fd5b506001600160a01b0381351690602001356111f1565b61031c6004803603602081101561047e57600080fd5b5035611245565b61031c6004803603602081101561049b57600080fd5b50356112e3565b6104bf600480360360208110156104b857600080fd5b5035611335565b604080516001600160a01b03998a16815260208101989098526001600160501b039687168882015260608801959095526080870193909352931660a085015291151560c0840152921660e08201529051908190036101000190f35b61031c6004803603602081101561053057600080fd5b50356113a6565b61036661143d565b610366611443565b61054f611449565b604080516001600160a01b039092168252519081900360200190f35b610366611458565b61036661145e565b6103666004803603608081101561059157600080fd5b506001600160a01b0381351690602081013590604081013590606001351515611464565b610366600480360360208110156105cb57600080fd5b50356001600160a01b0316611746565b61031c600480360360208110156105f157600080fd5b50356001600160a01b0316611765565b61031c6004803603602081101561061757600080fd5b50356001600160a01b03166117d4565b61031c6004803603602081101561063d57600080fd5b5035611843565b6103666004803603602081101561065a57600080fd5b50356001600160a01b03166118e5565b61054f6118f7565b610281611906565b61054f611967565b61034a6004803603602081101561069857600080fd5b503561197b565b61031c611b9f565b61034a600480360360408110156106bd57600080fd5b506001600160a01b038135169060200135611c00565b61031c600480360360208110156106e957600080fd5b5035611c6e565b61034a6004803603604081101561070657600080fd5b506001600160a01b038135169060200135611dbe565b61054f611dd2565b610366611de1565b610366611e96565b61031c6004803603602081101561074a57600080fd5b5035611e9c565b610366611eee565b61031c6004803603602081101561076f57600080fd5b5035611ef4565b6103666004803603604081101561078c57600080fd5b506001600160a01b0381358116916020013516611f46565b610366611f71565b61034a611f77565b61031c600480360360208110156107ca57600080fd5b5035611f80565b60038054604080516020601f600260001961010060018816150201909516949094049384018190048102820181019092528281526060939092909183018282801561085d5780601f106108325761010080835404028352916020019161085d565b820191906000526020600020905b81548152906001019060200180831161084057829003601f168201915b505050505090505b90565b6006546001600160a01b031633146108b5576040805162461bcd60e51b815260206004820181905260248201526000805160206130fd833981519152604482015290519081900360640190fd5b600880546001600160a01b0319166001600160a01b0392909216919091179055565b60006108eb6108e4612021565b8484612025565b5060015b92915050565b600e5481565b60025490565b600d54826001600160501b0316101580156109275750600e54826001600160501b031611155b610967576040805162461bcd60e51b815260206004820152600c60248201526b496e76616c69642074696d6560a01b604482015290519081900360640190fd5b61097083612111565b6109c1576040805162461bcd60e51b815260206004820152601760248201527f496e76616c6964202070726963652070726f7669646572000000000000000000604482015290519081900360640190fd5b6109c9611de1565b811115610a0a576040805162461bcd60e51b815260206004820152600a60248201526962657420746f2062696760b01b604482015290519081900360640190fd5b600554604080516323b872dd60e01b81523360048201523060248201526044810184905290516101009092046001600160a01b03169182916323b872dd9160648083019260209291908290030181600087803b158015610a6957600080fd5b505af1158015610a7d573d6000803e3d6000fd5b505050506040513d6020811015610a9357600080fd5b505060408051633fabe5a360e21b81529051859160009182916001600160a01b0385169163feaf968c9160048082019260a092909190829003018186803b158015610add57600080fd5b505afa158015610af1573d6000803e3d6000fd5b505050506040513d60a0811015610b0757600080fd5b50805160209091015160155491935091506000610b2f89886001600160501b038b168d611464565b9050610b3a816121a1565b610b42612f8d565b604051806101000160405280336001600160a01b03168152602001858152602001866001600160501b031681526020018981526020018381526020018a6001600160501b031681526020018c151581526020018b6001600160a01b031681525090508a15610bb857600a80546001019055610bc2565b600b805460010190555b601581908060018154018082558091505060019003906000526020600020906006020160009091909190915060008201518160000160006101000a8154816001600160a01b0302191690836001600160a01b031602179055506020820151816001015560408201518160020160006101000a8154816001600160501b0302191690836001600160501b03160217905550606082015181600301556080820151816004015560a08201518160050160006101000a8154816001600160501b0302191690836001600160501b0316021790555060c082015181600501600a6101000a81548160ff02191690831515021790555060e082015181600501600b6101000a8154816001600160a01b0302191690836001600160a01b031602179055505050827fcd8984b7ffc01146a9ba9096d805b0bec246d7f8e52837a7b5f404464f6b229b3386858f8a8f8c0160405180876001600160a01b03166001600160a01b0316815260200186815260200185815260200184151515158152602001836001600160501b03166001600160501b03168152602001826001600160501b03166001600160501b03168152602001965050505050505060405180910390a25050505050505050505050565b6000610d988484846121ba565b610e0e84610da4612021565b610e09856040518060600160405280602881526020016130d5602891396001600160a01b038a16600090815260016020526040812090610de2612021565b6001600160a01b03168152602081019190915260400160002054919063ffffffff61232116565b612025565b5060019392505050565b80610e2233611746565b1015610e75576040805162461bcd60e51b815260206004820152601960248201527f496e737566666963656e742053686172652042616c616e636500000000000000604482015290519081900360640190fd5b6000600560019054906101000a90046001600160a01b031690506000610f3e610eae600f54610ea26108fb565b9063ffffffff6123b816565b604080516370a0823160e01b81523060048201529051610f32916001600160a01b038716916370a0823191602480820192602092909190829003018186803b158015610ef957600080fd5b505afa158015610f0d573d6000803e3d6000fd5b505050506040513d6020811015610f2357600080fd5b5051869063ffffffff61240116565b9063ffffffff61245a16565b9050610f4a338461249c565b33600090815260096020526040902054421161111f576000610f7382606463ffffffff61245a16565b6007546040805163a9059cbb60e01b81526001600160a01b0392831660048201526024810184905290519293509085169163a9059cbb916044808201926020929091908290030181600087803b158015610fcc57600080fd5b505af1158015610fe0573d6000803e3d6000fd5b505050506040513d6020811015610ff657600080fd5b505161103b576040805162461bcd60e51b815260206004820152600f60248201526e1d1c985b9cd9995c8819985a5b1959608a1b604482015290519081900360640190fd5b6001600160a01b03831663a9059cbb3361105b858563ffffffff6123b816565b6040518363ffffffff1660e01b815260040180836001600160a01b03166001600160a01b0316815260200182815260200192505050602060405180830381600087803b1580156110aa57600080fd5b505af11580156110be573d6000803e3d6000fd5b505050506040513d60208110156110d457600080fd5b5051611119576040805162461bcd60e51b815260206004820152600f60248201526e1d1c985b9cd9995c8819985a5b1959608a1b604482015290519081900360640190fd5b506111dd565b6040805163a9059cbb60e01b81523360048201526024810183905290516001600160a01b0384169163a9059cbb9160448083019260209291908290030181600087803b15801561116e57600080fd5b505af1158015611182573d6000803e3d6000fd5b505050506040513d602081101561119857600080fd5b50516111dd576040805162461bcd60e51b815260206004820152600f60248201526e1d1c985b9cd9995c8819985a5b1959608a1b604482015290519081900360640190fd5b505050565b600b5481565b60055460ff1690565b60006108eb6111fe612021565b84610e09856001600061120f612021565b6001600160a01b03908116825260208083019390935260409182016000908120918c16815292529020549063ffffffff6125a416565b6006546001600160a01b03163314611292576040805162461bcd60e51b815260206004820181905260248201526000805160206130fd833981519152604482015290519081900360640190fd5b80158061129f5750603281115b6112de576040805162461bcd60e51b815260206004820152600b60248201526a696e76616c69642066656560a81b604482015290519081900360640190fd5b601255565b6006546001600160a01b03163314611330576040805162461bcd60e51b815260206004820181905260248201526000805160206130fd833981519152604482015290519081900360640190fd5b600c55565b6015818154811061134257fe5b60009182526020909120600690910201805460018201546002830154600384015460048501546005909501546001600160a01b03948516965092946001600160501b03928316949193909281169160ff600160501b83041691600160581b90041688565b6006546001600160a01b031633146113f3576040805162461bcd60e51b815260206004820181905260248201526000805160206130fd833981519152604482015290519081900360640190fd5b621275008110611438576040805162461bcd60e51b815260206004820152600b60248201526a696e76616c69642066656560a81b604482015290519081900360640190fd5b601355565b60135481565b60115481565b6007546001600160a01b031681565b600a5481565b600f5481565b6008546040805163b7a9eaa960e01b81526001600160a01b03878116600483015291516000939290921691829163b7a9eaa9916024808301926020929190829003018186803b1580156114b657600080fd5b505afa1580156114ca573d6000803e3d6000fd5b505050506040513d60208110156114e057600080fd5b50516001600160a01b0316611533576040805162461bcd60e51b815260206004820152601460248201527334b73b30b634b2103a3930b234b733903830b4b960611b604482015290519081900360640190fd5b6000816001600160a01b031663b7a9eaa9886040518263ffffffff1660e01b815260040180826001600160a01b03166001600160a01b0316815260200191505060206040518083038186803b15801561158b57600080fd5b505afa15801561159f573d6000803e3d6000fd5b505050506040513d60208110156115b557600080fd5b50519050600084156115f157600a54600b54106115d4575060016115ec565b600b54600a546115e99163ffffffff6123b816565b90505b61161c565b600b54600a54106116045750600161161c565b600a54600b546116199163ffffffff6123b816565b90505b600554600f54604080516370a0823160e01b815230600482015290516001600160a01b03610100909404841693861692633a951448928c928c918c91899189916370a0823191602480820192602092909190829003018186803b15801561168257600080fd5b505afa158015611696573d6000803e3d6000fd5b505050506040513d60208110156116ac57600080fd5b5051604080516001600160e01b031960e08a901b1681526004810197909752602487019590955260448601939093529015156064850152608484015260a48301525160c4808301926020929190829003018186803b15801561170d57600080fd5b505afa158015611721573d6000803e3d6000fd5b505050506040513d602081101561173757600080fd5b50519998505050505050505050565b6001600160a01b0381166000908152602081905260409020545b919050565b6006546001600160a01b031633146117b2576040805162461bcd60e51b815260206004820181905260248201526000805160206130fd833981519152604482015290519081900360640190fd5b600780546001600160a01b0319166001600160a01b0392909216919091179055565b6006546001600160a01b03163314611821576040805162461bcd60e51b815260206004820181905260248201526000805160206130fd833981519152604482015290519081900360640190fd5b600680546001600160a01b0319166001600160a01b0392909216919091179055565b6006546001600160a01b03163314611890576040805162461bcd60e51b815260206004820181905260248201526000805160206130fd833981519152604482015290519081900360640190fd5b6001811180156118a157506101f481105b6118e0576040805162461bcd60e51b815260206004820152600b60248201526a696e76616c69642066656560a81b604482015290519081900360640190fd5b601055565b60096020526000908152604090205481565b6006546001600160a01b031681565b60048054604080516020601f600260001961010060018816150201909516949094049384018190048102820181019092528281526060939092909183018282801561085d5780601f106108325761010080835404028352916020019161085d565b60055461010090046001600160a01b031681565b6000611985612f8d565b6015838154811061199257fe5b600091825260208083206040805161010081018252600690940290910180546001600160a01b03908116855260018201549385019390935260028101546001600160501b0390811685840181905260038301546060870152600480840154608088015260059093015480831660a080890182905260ff600160501b840416151560c08a0152600160581b90920490961660e088018190528551639a6fc8f560e01b815296909201909216928501929092529151939550939283928592639a6fc8f592602480840193829003018186803b158015611a6e57600080fd5b505afa158015611a82573d6000803e3d6000fd5b505050506040513d60a0811015611a9857600080fd5b50805160209091015190925090508015801590611abd57506001600160501b03821615155b611afe576040805162461bcd60e51b815260206004820152600d60248201526c1b9bdd081c9958591e481e595d609a1b604482015290519081900360640190fd5b6000611b17600b54600a546125a490919063ffffffff16565b90508460c0015115611b57578185602001511315611b3e57611b3985886125fe565b611b48565b611b48858861289a565b600a8054600019019055611b95565b8460200151821315611b7257611b6d85886125fe565b611b7c565b611b7c858861289a565b5050600b8054600019019055505060c001519050611760565b5050505050919050565b6006546001600160a01b03163314611bec576040805162461bcd60e51b815260206004820181905260248201526000805160206130fd833981519152604482015290519081900360640190fd5b6014805460ff19811660ff90911615179055565b60006108eb611c0d612021565b84610e09856040518060600160405280602581526020016131876025913960016000611c37612021565b6001600160a01b03908116825260208083019390935260409182016000908120918d1681529252902054919063ffffffff61232116565b60145460ff161515600114611cca576040805162461bcd60e51b815260206004820152601860248201527f706f6f6c206465706f736974732068617320636c6f7365640000000000000000604482015290519081900360640190fd5b600554604080516323b872dd60e01b81523360048201523060248201526044810184905290516101009092046001600160a01b03169182916323b872dd9160648083019260209291908290030181600087803b158015611d2957600080fd5b505af1158015611d3d573d6000803e3d6000fd5b505050506040513d6020811015611d5357600080fd5b5051611d97576040805162461bcd60e51b815260206004820152600e60248201526d19195c1bdcda5d0819985a5b195960921b604482015290519081900360640190fd5b60135433600081815260096020526040902042909201909155611dba90836129b6565b5050565b60006108eb611dcb612021565b84846121ba565b6008546001600160a01b031681565b600554604080516370a0823160e01b8152306004820152905160009261010090046001600160a01b031691839183916370a08231916024808301926020929190829003018186803b158015611e3557600080fd5b505afa158015611e49573d6000803e3d6000fd5b505050506040513d6020811015611e5f57600080fd5b5051600f54909150811115611e8b57600f54611e8290829063ffffffff6123b816565b92505050610865565b600092505050610865565b600d5481565b6006546001600160a01b03163314611ee9576040805162461bcd60e51b815260206004820181905260248201526000805160206130fd833981519152604482015290519081900360640190fd5b600d55565b60105481565b6006546001600160a01b03163314611f41576040805162461bcd60e51b815260206004820181905260248201526000805160206130fd833981519152604482015290519081900360640190fd5b600e55565b6001600160a01b03918216600090815260016020908152604080832093909416825291909152205490565b60125481565b60145460ff1681565b6006546001600160a01b03163314611fcd576040805162461bcd60e51b815260206004820181905260248201526000805160206130fd833981519152604482015290519081900360640190fd5b600181118015611fdd5750603281105b61201c576040805162461bcd60e51b815260206004820152600b60248201526a696e76616c69642066656560a81b604482015290519081900360640190fd5b601155565b3390565b6001600160a01b03831661206a5760405162461bcd60e51b81526004018080602001828103825260248152602001806131636024913960400191505060405180910390fd5b6001600160a01b0382166120af5760405162461bcd60e51b81526004018080602001828103825260228152602001806130176022913960400191505060405180910390fd5b6001600160a01b03808416600081815260016020908152604080832094871680845294825291829020859055815185815291517f8c5be1e5ebec7d5bd14f71427d1e84f3dd0314c0f7b2291e5b200ac8c7c3b9259281900390910190a3505050565b6008546040805163b7a9eaa960e01b81526001600160a01b03848116600483015291516000939290921691829163b7a9eaa9916024808301926020929190829003018186803b15801561216357600080fd5b505afa158015612177573d6000803e3d6000fd5b505050506040513d602081101561218d57600080fd5b50516001600160a01b031615159392505050565b600f546121b4908263ffffffff6125a416565b600f5550565b6001600160a01b0383166121ff5760405162461bcd60e51b815260040180806020018281038252602581526020018061313e6025913960400191505060405180910390fd5b6001600160a01b0382166122445760405162461bcd60e51b8152600401808060200182810382526023815260200180612fd26023913960400191505060405180910390fd5b61224f8383836111dd565b61229281604051806060016040528060268152602001613039602691396001600160a01b038616600090815260208190526040902054919063ffffffff61232116565b6001600160a01b0380851660009081526020819052604080822093909355908416815220546122c7908263ffffffff6125a416565b6001600160a01b038084166000818152602081815260409182902094909455805185815290519193928716927fddf252ad1be2c89b69c2b068fc378daa952ba7f163c4a11628f55a4df523b3ef92918290030190a3505050565b600081848411156123b05760405162461bcd60e51b81526004018080602001828103825283818151815260200191508051906020019080838360005b8381101561237557818101518382015260200161235d565b50505050905090810190601f1680156123a25780820380516001836020036101000a031916815260200191505b509250505060405180910390fd5b505050900390565b60006123fa83836040518060400160405280601e81526020017f536166654d6174683a207375627472616374696f6e206f766572666c6f770000815250612321565b9392505050565b600082612410575060006108ef565b8282028284828161241d57fe5b04146123fa5760405162461bcd60e51b81526004018080602001828103825260218152602001806130b46021913960400191505060405180910390fd5b60006123fa83836040518060400160405280601a81526020017f536166654d6174683a206469766973696f6e206279207a65726f000000000000815250612ab2565b6001600160a01b0382166124e15760405162461bcd60e51b815260040180806020018281038252602181526020018061311d6021913960400191505060405180910390fd5b6124ed826000836111dd565b61253081604051806060016040528060228152602001612ff5602291396001600160a01b038516600090815260208190526040902054919063ffffffff61232116565b6001600160a01b03831660009081526020819052604090205560025461255c908263ffffffff6123b816565b6002556040805182815290516000916001600160a01b038516917fddf252ad1be2c89b69c2b068fc378daa952ba7f163c4a11628f55a4df523b3ef9181900360200190a35050565b6000828201838110156123fa576040805162461bcd60e51b815260206004820152601b60248201527f536166654d6174683a206164646974696f6e206f766572666c6f770000000000604482015290519081900360640190fd5b600f54826080015111156126435760405162461bcd60e51b815260040180806020018281038252602981526020018061308b6029913960400191505060405180910390fd5b600554604080516370a0823160e01b815230600482015290516101009092046001600160a01b03169182916370a08231916024808301926020929190829003018186803b15801561269357600080fd5b505afa1580156126a7573d6000803e3d6000fd5b505050506040513d60208110156126bd57600080fd5b505160808401511115612717576040805162461bcd60e51b815260206004820152601b60248201527f696e737566666963656e742062616c616e636520696e20706f6f6c0000000000604482015290519081900360640190fd5b6000600c5484608001511161275c576127556064610f32612744600460105461240190919063ffffffff16565b60808801519063ffffffff61245a16565b905061277d565b61277a6064610f32601054876080015161245a90919063ffffffff16565b90505b801561284f576040805163a9059cbb60e01b81523360048201526024810183905290516001600160a01b0384169163a9059cbb9160448083019260209291908290030181600087803b1580156127d257600080fd5b505af11580156127e6573d6000803e3d6000fd5b505050506040513d60208110156127fc57600080fd5b505161284f576040805162461bcd60e51b815260206004820152601e60248201527f676f6f642073616d61726974616e207472616e73666572206661696c65640000604482015290519081900360640190fd5b6080840151600f546128669163ffffffff6123b816565b600f5560405183907fa33fd53ba34795ffefaea3759c71f87d38b89ae12e40bc434c826fae0ca5358390600090a250505050565b6080820151601254811180156128b257506000601254115b1561295d5760006128ce6012548361245a90919063ffffffff16565b6006546040519192506001600160a01b03169082156108fc029083906000818181858888f19350505050612949576040805162461bcd60e51b815260206004820152601b60248201527f64657646756e6420666565207472616e73666572206661696c65640000000000604482015290519081900360640190fd5b612959828263ffffffff6123b816565b9150505b61296c81338560000151612b17565b6080830151600f546129839163ffffffff6123b816565b600f5560405182907fa2a53c7cb82eeb7994ccbbab71bea210cd63cfeb7823972fb5b6a49c3b0e1d4c90600090a2505050565b6001600160a01b038216612a11576040805162461bcd60e51b815260206004820152601f60248201527f45524332303a206d696e7420746f20746865207a65726f206164647265737300604482015290519081900360640190fd5b612a1d600083836111dd565b600254612a30908263ffffffff6125a416565b6002556001600160a01b038216600090815260208190526040902054612a5c908263ffffffff6125a416565b6001600160a01b0383166000818152602081815260408083209490945583518581529351929391927fddf252ad1be2c89b69c2b068fc378daa952ba7f163c4a11628f55a4df523b3ef9281900390910190a35050565b60008183612b015760405162461bcd60e51b815260206004820181815283516024840152835190928392604490910191908501908083836000831561237557818101518382015260200161235d565b506000838581612b0d57fe5b0495945050505050565b600f54831115612b585760405162461bcd60e51b815260040180806020018281038252602c81526020018061305f602c913960400191505060405180910390fd5b600554604080516370a0823160e01b815230600482015290516101009092046001600160a01b03169182916370a08231916024808301926020929190829003018186803b158015612ba857600080fd5b505afa158015612bbc573d6000803e3d6000fd5b505050506040513d6020811015612bd257600080fd5b5051841115612c28576040805162461bcd60e51b815260206004820152601b60248201527f696e737566666963656e742062616c616e636520696e20706f6f6c0000000000604482015290519081900360640190fd5b816001600160a01b0316836001600160a01b031614612e6e576000662386f26fc100008511612c8357612c7c6064610f32612c6f600460105461240190919063ffffffff16565b889063ffffffff61245a16565b9050612ca0565b612c9d6064610f326010548861245a90919063ffffffff16565b90505b8015612e6857816001600160a01b031663a9059cbb85836040518363ffffffff1660e01b815260040180836001600160a01b03166001600160a01b0316815260200182815260200192505050602060405180830381600087803b158015612d0657600080fd5b505af1158015612d1a573d6000803e3d6000fd5b505050506040513d6020811015612d3057600080fd5b5051612d83576040805162461bcd60e51b815260206004820152601960248201527f657865726369736572207472616e73666572206661696c656400000000000000604482015290519081900360640190fd5b6001600160a01b03821663a9059cbb84612da3888563ffffffff6123b816565b6040518363ffffffff1660e01b815260040180836001600160a01b03166001600160a01b0316815260200182815260200192505050602060405180830381600087803b158015612df257600080fd5b505af1158015612e06573d6000803e3d6000fd5b505050506040513d6020811015612e1c57600080fd5b5051612e68576040805162461bcd60e51b81526020600482015260166024820152751dda5b9b995c881d1c985b9cd9995c8819985a5b195960521b604482015290519081900360640190fd5b50612f44565b806001600160a01b031663a9059cbb83866040518363ffffffff1660e01b815260040180836001600160a01b03166001600160a01b0316815260200182815260200192505050602060405180830381600087803b158015612ece57600080fd5b505af1158015612ee2573d6000803e3d6000fd5b505050506040513d6020811015612ef857600080fd5b5051612f44576040805162461bcd60e51b81526020600482015260166024820152751dda5b9b995c881d1c985b9cd9995c8819985a5b195960521b604482015290519081900360640190fd5b604080518581526001600160a01b038416602082015281517f9b5d1a613fa5f0790b36b13103706e31fca06b229d87e9915b29fc20c1d76490929181900390910190a150505050565b6040805161010081018252600080825260208201819052918101829052606081018290526080810182905260a0810182905260c0810182905260e08101919091529056fe45524332303a207472616e7366657220746f20746865207a65726f206164647265737345524332303a206275726e20616d6f756e7420657863656564732062616c616e636545524332303a20617070726f766520746f20746865207a65726f206164647265737345524332303a207472616e7366657220616d6f756e7420657863656564732062616c616e6365696e737566666963656e7420706f6f6c2062616c616e636520617661696c61626c6520746f207061796f7574696e737566666963656e74206c6f636b656420706f6f6c2062616c616e636520746f20756e6c6f636b536166654d6174683a206d756c7469706c69636174696f6e206f766572666c6f7745524332303a207472616e7366657220616d6f756e74206578636565647320616c6c6f77616e63654f776e61626c653a2063616c6c6572206973206e6f7420746865206f776e657245524332303a206275726e2066726f6d20746865207a65726f206164647265737345524332303a207472616e736665722066726f6d20746865207a65726f206164647265737345524332303a20617070726f76652066726f6d20746865207a65726f206164647265737345524332303a2064656372656173656420616c6c6f77616e63652062656c6f77207a65726fa2646970667358221220ade83697709db38a74961d6569eef72407761e624d48d9c102e72206b3ea0a6a64736f6c63430006060033a2646970667358221220c493bfa51a7793cc9b3b109f141bf84cfa5e0ed3667f61b27f8d8b9c9b49282264736f6c63430006060033",
  "immutableReferences": {},
  "source": "\nimport \"@openzeppelin/contracts/token/ERC20/ERC20.sol\";\n\nimport \"./EBOP20.sol\";\n\ncontract EBOP20Factory {\n    mapping(address => address) public ebop20Addresses;//erc20 token address mapped to ebop20 pool address\n    event EBOP20Created(EBOP20 ebop20);\n\n    address payable public owner;\n\n    constructor() public {\n        owner = msg.sender ;\n    }\n\n    function getEBOP20Address(address token_) public returns(address) {\n        return ebop20Addresses[token_];\n    }\n\n    /**\n    * @dev set the new address to control this contract\n    * @param newDAO_ the new owner's address\n    */\n    function transferOwner(address payable newDAO_) public onlyOwner {\n        owner = newDAO_;\n    }\n\n    modifier onlyOwner() {\n        require(owner == msg.sender, \"Ownable: caller is not the owner\");\n        _;\n    }\n\n    /**\n    * @dev create a new EBOP20 contract\n    * @param token_ the token which will be used as the underlying asset\n    */\n    function createEBOP20(address token_, address payable treasury_, address app_) external {\n        ERC20 token = ERC20(token_);\n        EBOP20 newPool = new EBOP20(string(abi.encodePacked(\"Pool \", token.name)),  string(abi.encodePacked(\"p\", token.symbol)), token_, owner, app_, treasury_);\n        ebop20Addresses[address(token)] = address(newPool);\n        emit EBOP20Created(newPool);\n    }\n\n    /**\n    * @dev remove a new EBOP20 contract\n    * @param tokenAddress_ the underlying asset of the pool to delist\n    */\n    function removePool(address tokenAddress_) external onlyOwner {\n        ebop20Addresses[tokenAddress_] = 0x0000000000000000000000000000000000000000;\n    }\n}",
  "sourcePath": "/Users/x/Desktop/eth/BIOPv4/contracts/EBOP20/EBOP20Factory.sol",
  "compiler": {
    "name": "solc",
    "version": "0.6.6+commit.6c089d02.Emscripten.clang"
  },
  "schemaVersion": "3.3.4",
  "updatedAt": "2021-05-14T23:07:18.778Z",
  "devdoc": {
    "methods": {
      "createEBOP20(address,address,address)": {
        "details": "create a new EBOP20 contract",
        "params": {
          "token_": "the token which will be used as the underlying asset"
        }
      },
      "removePool(address)": {
        "details": "remove a new EBOP20 contract",
        "params": {
          "tokenAddress_": "the underlying asset of the pool to delist"
        }
      },
      "transferOwner(address)": {
        "details": "set the new address to control this contract",
        "params": {
          "newDAO_": "the new owner's address"
        }
      }
    }
  },
  "userdoc": {
    "methods": {}
  }
}