{
  "contractName": "FakePriceProvider",
  "abi": [
    {
      "inputs": [
        {
          "internalType": "uint256",
          "name": "_price",
          "type": "uint256"
        }
      ],
      "stateMutability": "nonpayable",
      "type": "constructor"
    },
    {
      "anonymous": false,
      "inputs": [
        {
          "indexed": true,
          "internalType": "int256",
          "name": "current",
          "type": "int256"
        },
        {
          "indexed": true,
          "internalType": "uint256",
          "name": "roundId",
          "type": "uint256"
        },
        {
          "indexed": false,
          "internalType": "uint256",
          "name": "updatedAt",
          "type": "uint256"
        }
      ],
      "name": "AnswerUpdated",
      "type": "event"
    },
    {
      "anonymous": false,
      "inputs": [
        {
          "indexed": true,
          "internalType": "uint256",
          "name": "roundId",
          "type": "uint256"
        },
        {
          "indexed": true,
          "internalType": "address",
          "name": "startedBy",
          "type": "address"
        },
        {
          "indexed": false,
          "internalType": "uint256",
          "name": "startedAt",
          "type": "uint256"
        }
      ],
      "name": "NewRound",
      "type": "event"
    },
    {
      "anonymous": false,
      "inputs": [
        {
          "indexed": true,
          "internalType": "address",
          "name": "from",
          "type": "address"
        },
        {
          "indexed": true,
          "internalType": "address",
          "name": "to",
          "type": "address"
        }
      ],
      "name": "OwnershipTransferRequested",
      "type": "event"
    },
    {
      "anonymous": false,
      "inputs": [
        {
          "indexed": true,
          "internalType": "address",
          "name": "from",
          "type": "address"
        },
        {
          "indexed": true,
          "internalType": "address",
          "name": "to",
          "type": "address"
        }
      ],
      "name": "OwnershipTransferred",
      "type": "event"
    },
    {
      "inputs": [],
      "name": "acceptOwnership",
      "outputs": [],
      "stateMutability": "nonpayable",
      "type": "function"
    },
    {
      "inputs": [],
      "name": "owner",
      "outputs": [
        {
          "internalType": "address",
          "name": "",
          "type": "address"
        }
      ],
      "stateMutability": "view",
      "type": "function",
      "constant": true
    },
    {
      "inputs": [],
      "name": "price",
      "outputs": [
        {
          "internalType": "uint256",
          "name": "",
          "type": "uint256"
        }
      ],
      "stateMutability": "view",
      "type": "function",
      "constant": true
    },
    {
      "inputs": [],
      "name": "round",
      "outputs": [
        {
          "internalType": "uint80",
          "name": "",
          "type": "uint80"
        }
      ],
      "stateMutability": "view",
      "type": "function",
      "constant": true
    },
    {
      "inputs": [
        {
          "internalType": "address",
          "name": "_to",
          "type": "address"
        }
      ],
      "name": "transferOwnership",
      "outputs": [],
      "stateMutability": "nonpayable",
      "type": "function"
    },
    {
      "inputs": [
        {
          "internalType": "uint256",
          "name": "_price",
          "type": "uint256"
        }
      ],
      "name": "setPrice",
      "outputs": [],
      "stateMutability": "nonpayable",
      "type": "function"
    },
    {
      "inputs": [
        {
          "internalType": "uint256",
          "name": "_price",
          "type": "uint256"
        },
        {
          "internalType": "uint80",
          "name": "_round",
          "type": "uint80"
        }
      ],
      "name": "updateRound",
      "outputs": [],
      "stateMutability": "nonpayable",
      "type": "function"
    },
    {
      "inputs": [],
      "name": "latestAnswer",
      "outputs": [
        {
          "internalType": "int256",
          "name": "",
          "type": "int256"
        }
      ],
      "stateMutability": "view",
      "type": "function",
      "constant": true
    },
    {
      "inputs": [],
      "name": "latestTimestamp",
      "outputs": [
        {
          "internalType": "uint256",
          "name": "",
          "type": "uint256"
        }
      ],
      "stateMutability": "view",
      "type": "function",
      "constant": true
    },
    {
      "inputs": [
        {
          "internalType": "uint256",
          "name": "_roundId",
          "type": "uint256"
        }
      ],
      "name": "getAnswer",
      "outputs": [
        {
          "internalType": "int256",
          "name": "",
          "type": "int256"
        }
      ],
      "stateMutability": "view",
      "type": "function",
      "constant": true
    },
    {
      "inputs": [
        {
          "internalType": "uint256",
          "name": "_roundId",
          "type": "uint256"
        }
      ],
      "name": "getTimestamp",
      "outputs": [
        {
          "internalType": "uint256",
          "name": "",
          "type": "uint256"
        }
      ],
      "stateMutability": "view",
      "type": "function",
      "constant": true
    },
    {
      "inputs": [],
      "name": "latestRound",
      "outputs": [
        {
          "internalType": "uint256",
          "name": "",
          "type": "uint256"
        }
      ],
      "stateMutability": "view",
      "type": "function",
      "constant": true
    },
    {
      "inputs": [
        {
          "internalType": "uint80",
          "name": "_roundId",
          "type": "uint80"
        }
      ],
      "name": "getRoundData",
      "outputs": [
        {
          "internalType": "uint80",
          "name": "roundId",
          "type": "uint80"
        },
        {
          "internalType": "int256",
          "name": "answer",
          "type": "int256"
        },
        {
          "internalType": "uint256",
          "name": "startedAt",
          "type": "uint256"
        },
        {
          "internalType": "uint256",
          "name": "updatedAt",
          "type": "uint256"
        },
        {
          "internalType": "uint80",
          "name": "answeredInRound",
          "type": "uint80"
        }
      ],
      "stateMutability": "view",
      "type": "function",
      "constant": true
    },
    {
      "inputs": [],
      "name": "latestRoundData",
      "outputs": [
        {
          "internalType": "uint80",
          "name": "roundId",
          "type": "uint80"
        },
        {
          "internalType": "int256",
          "name": "answer",
          "type": "int256"
        },
        {
          "internalType": "uint256",
          "name": "startedAt",
          "type": "uint256"
        },
        {
          "internalType": "uint256",
          "name": "updatedAt",
          "type": "uint256"
        },
        {
          "internalType": "uint80",
          "name": "answeredInRound",
          "type": "uint80"
        }
      ],
      "stateMutability": "view",
      "type": "function",
      "constant": true
    },
    {
      "inputs": [
        {
          "internalType": "uint80",
          "name": "_roundId",
          "type": "uint80"
        }
      ],
      "name": "proposedGetRoundData",
      "outputs": [
        {
          "internalType": "uint80",
          "name": "roundId",
          "type": "uint80"
        },
        {
          "internalType": "int256",
          "name": "answer",
          "type": "int256"
        },
        {
          "internalType": "uint256",
          "name": "startedAt",
          "type": "uint256"
        },
        {
          "internalType": "uint256",
          "name": "updatedAt",
          "type": "uint256"
        },
        {
          "internalType": "uint80",
          "name": "answeredInRound",
          "type": "uint80"
        }
      ],
      "stateMutability": "view",
      "type": "function",
      "constant": true
    },
    {
      "inputs": [],
      "name": "proposedLatestRoundData",
      "outputs": [
        {
          "internalType": "uint80",
          "name": "roundId",
          "type": "uint80"
        },
        {
          "internalType": "int256",
          "name": "answer",
          "type": "int256"
        },
        {
          "internalType": "uint256",
          "name": "startedAt",
          "type": "uint256"
        },
        {
          "internalType": "uint256",
          "name": "updatedAt",
          "type": "uint256"
        },
        {
          "internalType": "uint80",
          "name": "answeredInRound",
          "type": "uint80"
        }
      ],
      "stateMutability": "view",
      "type": "function",
      "constant": true
    },
    {
      "inputs": [],
      "name": "aggregator",
      "outputs": [
        {
          "internalType": "address",
          "name": "",
          "type": "address"
        }
      ],
      "stateMutability": "view",
      "type": "function",
      "constant": true
    },
    {
      "inputs": [],
      "name": "phaseId",
      "outputs": [
        {
          "internalType": "uint16",
          "name": "",
          "type": "uint16"
        }
      ],
      "stateMutability": "view",
      "type": "function",
      "constant": true
    },
    {
      "inputs": [],
      "name": "decimals",
      "outputs": [
        {
          "internalType": "uint8",
          "name": "",
          "type": "uint8"
        }
      ],
      "stateMutability": "view",
      "type": "function",
      "constant": true
    },
    {
      "inputs": [],
      "name": "version",
      "outputs": [
        {
          "internalType": "uint256",
          "name": "",
          "type": "uint256"
        }
      ],
      "stateMutability": "view",
      "type": "function",
      "constant": true
    },
    {
      "inputs": [],
      "name": "description",
      "outputs": [
        {
          "internalType": "string",
          "name": "",
          "type": "string"
        }
      ],
      "stateMutability": "view",
      "type": "function",
      "constant": true
    },
    {
      "inputs": [
        {
          "internalType": "address",
          "name": "_aggregator",
          "type": "address"
        }
      ],
      "name": "proposeAggregator",
      "outputs": [],
      "stateMutability": "nonpayable",
      "type": "function"
    },
    {
      "inputs": [
        {
          "internalType": "address",
          "name": "_aggregator",
          "type": "address"
        }
      ],
      "name": "confirmAggregator",
      "outputs": [],
      "stateMutability": "nonpayable",
      "type": "function"
    }
  ],
  "bytecode": "0x6003805460ff1916600817905560c0604052601360808190527f5465737420696d706c656d656e746174696c6e0000000000000000000000000060a090815261004b91600491906100a9565b5034801561005857600080fd5b506040516108453803806108458339818101604052602081101561007b57600080fd5b5051600080546001600160a01b03191633179055600255600580546001600160501b03191681179055610144565b828054600181600116156101000203166002900490600052602060002090601f016020900481019282601f106100ea57805160ff1916838001178555610117565b82800160010185558215610117579182015b828111156101175782518255916020019190600101906100fc565b50610123929150610127565b5090565b61014191905b80821115610123576000815560010161012d565b90565b6106f2806101536000396000f3fe608060405234801561001057600080fd5b506004361061014d5760003560e01c80638205bf6a116100c3578063a928c0961161007c578063a928c09614610353578063b5ab58dc14610379578063b633620c14610379578063f2fde38b14610396578063f8a2abd314610353578063feaf968c146103265761014d565b80638205bf6a146103165780638da5cb5b1461031e5780638f6b4d911461032657806391b7f5ed1461032e5780639a6fc8f514610227578063a035b1fe1461034b5761014d565b806354fd4d501161011557806354fd4d501461020057806358303b10146102085780636001ac5314610227578063668a0f02146102895780637284e4161461029157806379ba50971461030e5761014d565b806307a781fe14610152578063146ca53114610180578063245a7bfc146101a4578063313ce567146101c857806350d25bcd146101e6575b600080fd5b61017e6004803603604081101561016857600080fd5b50803590602001356001600160501b03166103bc565b005b6101886103e6565b604080516001600160501b039092168252519081900360200190f35b6101ac6103f5565b604080516001600160a01b039092168252519081900360200190f35b6101d06103f9565b6040805160ff9092168252519081900360200190f35b6101ee610402565b60408051918252519081900360200190f35b6101ee610408565b610210610408565b6040805161ffff9092168252519081900360200190f35b61024d6004803603602081101561023d57600080fd5b50356001600160501b031661040d565b604080516001600160501b0396871681526020810195909552848101939093526060840191909152909216608082015290519081900360a00190f35b6101ee610427565b610299610436565b6040805160208082528351818301528351919283929083019185019080838360005b838110156102d35781810151838201526020016102bb565b50505050905090810190601f1680156103005780820380516001836020036101000a031916815260200191505b509250505060405180910390f35b61017e6104cc565b6101ee61057b565b6101ac61057f565b61024d61058e565b61017e6004803603602081101561034457600080fd5b50356105a7565b6101ee6105ac565b61017e6004803603602081101561036957600080fd5b50356001600160a01b03166105b2565b6101ee6004803603602081101561038f57600080fd5b503561060d565b61017e600480360360208110156103ac57600080fd5b50356001600160a01b0316610613565b6002919091556005805469ffffffffffffffffffff19166001600160501b03909216919091179055565b6005546001600160501b031681565b3090565b60035460ff1690565b60025490565b600090565b506002546005546001600160501b03169160009081908190565b6005546001600160501b031690565b60048054604080516020601f60026000196101006001881615020190951694909404938401819004810282018101909252828152606093909290918301828280156104c25780601f10610497576101008083540402835291602001916104c2565b820191906000526020600020905b8154815290600101906020018083116104a557829003601f168201915b5050505050905090565b6001546001600160a01b03163314610524576040805162461bcd60e51b815260206004820152601660248201527526bab9ba10313290383937b837b9b2b21037bbb732b960511b604482015290519081900360640190fd5b60008054336001600160a01b0319808316821784556001805490911690556040516001600160a01b0390921692909183917f8be0079c531659141344cd1fd0a4f28419497f9722a3daafe3b4186f6b6457e091a350565b4290565b6000546001600160a01b031681565b6002546005546001600160501b03169160009081908190565b600255565b60025481565b6000546001600160a01b0316331461060a576040805162461bcd60e51b815260206004820152601660248201527527b7363c9031b0b63630b1363290313c9037bbb732b960511b604482015290519081900360640190fd5b50565b50600090565b6000546001600160a01b0316331461066b576040805162461bcd60e51b815260206004820152601660248201527527b7363c9031b0b63630b1363290313c9037bbb732b960511b604482015290519081900360640190fd5b600180546001600160a01b0319166001600160a01b0383811691821790925560008054604051929316917fed8889f560326eb138920d842192f0eb3dd22b4f139c87a2c57538e05bae12789190a35056fea2646970667358221220a70c26d95920f63326a6a1e976150ffbefbecdc54aa12cd409fe125d5c86f9f664736f6c63430006060033",
  "immutableReferences": {},
  "source": "pragma solidity ^0.6.6;\n\n//import \"@chainlink/contracts/src/v0.6/interfaces/AggregatorV3Interface.sol\";\n\ncontract Owned {\n\n  address public owner;\n  address private pendingOwner;\n\n  event OwnershipTransferRequested(\n    address indexed from,\n    address indexed to\n  );\n  event OwnershipTransferred(\n    address indexed from,\n    address indexed to\n  );\n\n  constructor() public {\n    owner = msg.sender;\n  }\n\n  /**\n   * @dev Allows an owner to begin transferring ownership to a new address,\n   * pending.\n   */\n  function transferOwnership(address _to)\n    external\n    onlyOwner()\n  {\n    pendingOwner = _to;\n\n    emit OwnershipTransferRequested(owner, _to);\n  }\n\n  /**\n   * @dev Allows an ownership transfer to be completed by the recipient.\n   */\n  function acceptOwnership()\n    external\n  {\n    require(msg.sender == pendingOwner, \"Must be proposed owner\");\n\n    address oldOwner = owner;\n    owner = msg.sender;\n    pendingOwner = address(0);\n\n    emit OwnershipTransferred(oldOwner, msg.sender);\n  }\n\n  /**\n   * @dev Reverts if called by anyone other than the contract owner.\n   */\n  modifier onlyOwner() {\n    require(msg.sender == owner, \"Only callable by owner\");\n    _;\n  }\n\n}\ninterface AggregatorV3Interface {\n\n  function decimals() external view returns (uint8);\n  function description() external view returns (string memory);\n  function version() external view returns (uint256);\n\n  // getRoundData and latestRoundData should both raise \"No data present\"\n  // if they do not have data to report, instead of returning unset values\n  // which could be misinterpreted as actual reported values.\n  function getRoundData(uint80 _roundId)\n    external\n    view\n    returns (\n      uint80 roundId,\n      int256 answer,\n      uint256 startedAt,\n      uint256 updatedAt,\n      uint80 answeredInRound\n    );\n  function latestRoundData()\n    external\n    view\n    returns (\n      uint80 roundId,\n      int256 answer,\n      uint256 startedAt,\n      uint256 updatedAt,\n      uint80 answeredInRound\n    );\n\n}\n/* contract FakePriceProvider is AggregatorV3Interface {\n    uint256 public price;\n    uint8 public override decimals = 8;\n    string public override description = \"Test implementatiln\";\n    uint256 public override version = 0;\n    uint80 public round;\n\n    constructor(uint256 _price) public {\n        price = _price;\n        round = uint80(5);\n    }\n\n    function setPrice(uint256 _price) external {\n        price = _price;\n    }\n\n    function updateRound(uint256 _price, uint80 _round) external {\n        price = _price;\n        round = _round;\n    }\n\n    function getRoundData(uint80) external override view returns (uint80, int256, uint256, uint256, uint80) {\n        return (round,int(price), uint256(0), uint256(0), uint80(0));\n    }\n\n    function latestAnswer() external view returns(int result) {\n        (, result, , , ) = latestRoundData();\n    }\n\n    function latestRoundData()\n        public\n        override\n        view\n        returns (\n            uint80 roundId,\n            int256 answer,\n            uint256,\n            uint256,\n            uint80\n        )\n    {\n        answer = int(price);\n        roundId = round;\n    }\n} */\ninterface AggregatorInterface {\n  function latestAnswer() external view returns (int256);\n  function latestTimestamp() external view returns (uint256);\n  function latestRound() external view returns (uint256);\n  function getAnswer(uint256 roundId) external view returns (int256);\n  function getTimestamp(uint256 roundId) external view returns (uint256);\n\n  event AnswerUpdated(int256 indexed current, uint256 indexed roundId, uint256 updatedAt);\n  event NewRound(uint256 indexed roundId, address indexed startedBy, uint256 startedAt);\n}\n\ninterface AggregatorV2V3Interface is AggregatorInterface, AggregatorV3Interface\n{\n}\n\n/**\n * @title A trusted proxy for updating where current answers are read from\n * @notice This contract provides a consistent address for the\n * CurrentAnwerInterface but delegates where it reads from to the owner, who is\n * trusted to update it.\n */\ncontract FakePriceProvider is AggregatorV2V3Interface, Owned {\n\n     uint256 public price;\n    uint8 private override decimals_ = 8;\n    string private override description_ = \"Test implementatiln\";\n    uint80 public round;\n\n  constructor(uint256 _price) public {\n        price = _price;\n        round = uint80(5);\n    }\n\n     function setPrice(uint256 _price) external {\n        price = _price;\n    }\n\n    function updateRound(uint256 _price, uint80 _round) external {\n        price = _price;\n        round = _round;\n    }\n\n  function latestAnswer()\n    public\n    view\n    virtual\n    override\n    returns (int256)\n  {\n    return int256(price);\n  }\n\n  function latestTimestamp()\n    public\n    view\n    virtual\n    override\n    returns (uint256)\n  {\n    return block.timestamp;\n  }\n\n  function getAnswer(uint256 _roundId)\n    public\n    view\n    virtual\n    override\n    returns (int256)\n  {\n      return int256(0);\n  }\n\n  function getTimestamp(uint256 _roundId)\n    public\n    view\n    virtual\n    override\n    returns (uint256)\n  {\n    return uint256(0);\n  }\n\n \n  function latestRound()\n    public\n    view\n    virtual\n    override\n    returns (uint256)\n  {\n    return round;\n  }\n\n  function getRoundData(uint80 _roundId)\n    public\n    view\n    virtual\n    override\n    returns (\n      uint80 roundId,\n      int256 answer,\n      uint256 startedAt,\n      uint256 updatedAt,\n      uint80 answeredInRound\n    )\n  {\n        answer = int256(price);\n        roundId = round;\n    return (roundId, answer, uint256(0), uint256(0), uint80(0));\n  }\n\n  function latestRoundData()\n    public\n    view\n    virtual\n    override\n    returns (\n      uint80 roundId,\n      int256 answer,\n      uint256 startedAt,\n      uint256 updatedAt,\n      uint80 answeredInRound\n    )\n  {\n      answer = int256(price);\n        roundId = round;\n    return (roundId, answer, uint256(0), uint256(0), uint80(0));\n \n  }\n\n  function proposedGetRoundData(uint80 _roundId)\n    public\n    view\n    virtual\n    hasProposal()\n    returns (\n      uint80 roundId,\n      int256 answer,\n      uint256 startedAt,\n      uint256 updatedAt,\n      uint80 answeredInRound\n    )\n  {\n     answer = int256(price);\n        roundId = round;\n    return (roundId, answer, uint256(0), uint256(0), uint80(0));\n \n  }\n\n  function proposedLatestRoundData()\n    public\n    view\n    virtual\n    hasProposal()\n    returns (\n      uint80 roundId,\n      int256 answer,\n      uint256 startedAt,\n      uint256 updatedAt,\n      uint80 answeredInRound\n    )\n  {  \n      answer = int256(price);\n        roundId = round;\n    return (roundId, answer, uint256(0), uint256(0), uint80(0));\n \n  }\n\n  function aggregator()\n    external\n    view\n    returns (address)\n  {\n    return address(this);\n  }\n\n  function phaseId()\n    external\n    view\n    returns (uint16)\n  {\n    return uint16(0);\n  }\n\n  function decimals()\n    external\n    view\n    override\n    returns (uint8)\n  {\n    return decimals_;\n  }\n\n  \n  function version()\n    external\n    view\n    override\n    returns (uint256)\n  {\n    return uint256(0);\n  }\n\n  \n  function description()\n    external\n    view\n    override\n    returns (string memory)\n  {\n    return description_;\n  }\n\n \n  function proposeAggregator(address _aggregator)\n    external\n    onlyOwner()\n  {\n   price = price;\n  }\n\n  /**\n   * @notice Allows the owner to confirm and change the address\n   * to the proposed aggregator\n   * @dev Reverts if the given address doesn't match what was previously\n   * proposed\n   * @param _aggregator The new address for the aggregator contract\n   */\n  function confirmAggregator(address _aggregator)\n    external\n    onlyOwner()\n  {\n      price = price;\n  }\n\n\n  /*\n   * Internal\n   */\n\n  function setAggregator(address _aggregator)\n    internal\n  {\n      price = price;\n  }\n\n  function addPhase(\n    uint16 _phase,\n    uint64 _originalId\n  )\n    internal\n    view\n    returns (uint80)\n  {\n    return uint80(0);\n  }\n\n  function parseIds(\n    uint256 _roundId\n  )\n    internal\n    view\n    returns (uint16, uint64)\n  {\n    return (uint16(0), uint64(0));\n  }\n\n  function addPhaseIds(\n      uint80 roundId,\n      int256 answer,\n      uint256 startedAt,\n      uint256 updatedAt,\n      uint80 answeredInRound,\n      uint16 phaseId\n  )\n    internal\n    view\n    returns (uint80, int256, uint256, uint256, uint80)\n  {\n    return (uint80(0), int256(0), uint256(0), uint256(0), uint80(0));\n  }\n\n  /*\n   * Modifiers\n   */\n\n  modifier hasProposal() {\n    require(true, \"No proposed aggregator present\");\n    _;\n  }\n\n}\n\n",
  "sourcePath": "/Users/x/Desktop/eth/BIOPv4/contracts/placeholders/FakePriceProvider.sol",
  "compiler": {
    "name": "solc",
    "version": "0.6.6+commit.6c089d02.Emscripten.clang"
  },
  "schemaVersion": "3.3.4",
  "updatedAt": "2021-05-15T01:01:11.565Z",
  "networkType": "ethereum",
  "devdoc": {
    "methods": {
      "acceptOwnership()": {
        "details": "Allows an ownership transfer to be completed by the recipient."
      },
      "confirmAggregator(address)": {
        "details": "Reverts if the given address doesn't match what was previously proposed",
        "params": {
          "_aggregator": "The new address for the aggregator contract"
        }
      },
      "transferOwnership(address)": {
        "details": "Allows an owner to begin transferring ownership to a new address, pending."
      }
    },
    "title": "A trusted proxy for updating where current answers are read from"
  },
  "userdoc": {
    "methods": {
      "confirmAggregator(address)": {
        "notice": "Allows the owner to confirm and change the address to the proposed aggregator"
      }
    },
    "notice": "This contract provides a consistent address for the CurrentAnwerInterface but delegates where it reads from to the owner, who is trusted to update it."
  }
}