{
  "contractName": "GovProxy",
  "abi": [
    {
      "inputs": [],
      "stateMutability": "nonpayable",
      "type": "constructor"
    },
    {
      "stateMutability": "payable",
      "type": "fallback",
      "payable": true
    },
    {
      "inputs": [],
      "name": "dgov",
      "outputs": [
        {
          "internalType": "address payable",
          "name": "",
          "type": "address"
        }
      ],
      "stateMutability": "view",
      "type": "function",
      "constant": true
    },
    {
      "inputs": [],
      "name": "tFee",
      "outputs": [
        {
          "internalType": "uint256",
          "name": "",
          "type": "uint256"
        }
      ],
      "stateMutability": "view",
      "type": "function",
      "constant": true
    },
    {
      "inputs": [],
      "name": "treasury",
      "outputs": [
        {
          "internalType": "address payable",
          "name": "",
          "type": "address"
        }
      ],
      "stateMutability": "view",
      "type": "function",
      "constant": true
    },
    {
      "inputs": [],
      "name": "treasuryFee",
      "outputs": [
        {
          "internalType": "uint256",
          "name": "",
          "type": "uint256"
        }
      ],
      "stateMutability": "view",
      "type": "function",
      "constant": true
    },
    {
      "inputs": [
        {
          "internalType": "uint256",
          "name": "new_",
          "type": "uint256"
        }
      ],
      "name": "updateTFee",
      "outputs": [],
      "stateMutability": "nonpayable",
      "type": "function"
    },
    {
      "inputs": [
        {
          "internalType": "address payable",
          "name": "new_",
          "type": "address"
        }
      ],
      "name": "updateDGov",
      "outputs": [],
      "stateMutability": "nonpayable",
      "type": "function"
    },
    {
      "inputs": [
        {
          "internalType": "uint256",
          "name": "new_",
          "type": "uint256"
        }
      ],
      "name": "updateTreasuryAmount",
      "outputs": [],
      "stateMutability": "nonpayable",
      "type": "function"
    },
    {
      "inputs": [
        {
          "internalType": "address payable",
          "name": "new_",
          "type": "address"
        }
      ],
      "name": "updateTreasury",
      "outputs": [],
      "stateMutability": "nonpayable",
      "type": "function"
    },
    {
      "inputs": [],
      "name": "transferToGov",
      "outputs": [
        {
          "internalType": "uint256",
          "name": "",
          "type": "uint256"
        }
      ],
      "stateMutability": "nonpayable",
      "type": "function"
    }
  ],
  "bytecode": "0x60806040526064600255600a60035534801561001a57600080fd5b50600080546001600160a01b031916331790556106e08061003c6000396000f3fe6080604052600436106100865760003560e01c8063cc32d17611610059578063cc32d17614610128578063d14bf77f1461013d578063e82100b314610152578063ea2a6e6314610185578063ea6be267146101af57610086565b8063153b6f66146100885780634e6314fb146100b957806361d027b3146100e05780637f51bb1f146100f5575b005b34801561009457600080fd5b5061009d6101d9565b604080516001600160a01b039092168252519081900360200190f35b3480156100c557600080fd5b506100ce6101e8565b60408051918252519081900360200190f35b3480156100ec57600080fd5b5061009d610366565b34801561010157600080fd5b506100866004803603602081101561011857600080fd5b50356001600160a01b0316610375565b34801561013457600080fd5b506100ce6103e4565b34801561014957600080fd5b506100ce6103ea565b34801561015e57600080fd5b506100866004803603602081101561017557600080fd5b50356001600160a01b03166103f0565b34801561019157600080fd5b50610086600480360360208110156101a857600080fd5b503561045f565b3480156101bb57600080fd5b50610086600480360360208110156101d257600080fd5b50356104b1565b6000546001600160a01b031681565b600080546001600160a01b03163314610236576040805162461bcd60e51b815260206004820152601f602482015260008051602061068b833981519152604482015290519081900360640190fd5b60004711610281576040805162461bcd60e51b81526020600482015260136024820152722737ba3434b733903a37903a3930b739b332b960691b604482015290519081900360640190fd5b60006102986002544761050390919063ffffffff16565b905060006003546000146102f4576003546102c9906102bd478563ffffffff61054c16565b9063ffffffff61050316565b6001546040519192506001600160a01b03169082156108fc029083906000818181858888f150505050505b60035460009060011015610342576000610314478563ffffffff61054c16565b600080546040519293506001600160a01b03169183156108fc0291849190818181858888f150939450505050505b604051329084156108fc029085906000818181858888f15093965050505050505090565b6001546001600160a01b031681565b6000546001600160a01b031633146103c2576040805162461bcd60e51b815260206004820152601f602482015260008051602061068b833981519152604482015290519081900360640190fd5b600180546001600160a01b0319166001600160a01b0392909216919091179055565b60035481565b60025481565b6000546001600160a01b0316331461043d576040805162461bcd60e51b815260206004820152601f602482015260008051602061068b833981519152604482015290519081900360640190fd5b600080546001600160a01b0319166001600160a01b0392909216919091179055565b6000546001600160a01b031633146104ac576040805162461bcd60e51b815260206004820152601f602482015260008051602061068b833981519152604482015290519081900360640190fd5b600255565b6000546001600160a01b031633146104fe576040805162461bcd60e51b815260206004820152601f602482015260008051602061068b833981519152604482015290519081900360640190fd5b600355565b600061054583836040518060400160405280601a81526020017f536166654d6174683a206469766973696f6e206279207a65726f00000000000081525061058e565b9392505050565b600061054583836040518060400160405280601e81526020017f536166654d6174683a207375627472616374696f6e206f766572666c6f770000815250610630565b6000818361061a5760405162461bcd60e51b81526004018080602001828103825283818151815260200191508051906020019080838360005b838110156105df5781810151838201526020016105c7565b50505050905090810190601f16801561060c5780820380516001836020036101000a031916815260200191505b509250505060405180910390fd5b50600083858161062657fe5b0495945050505050565b600081848411156106825760405162461bcd60e51b81526020600482018181528351602484015283519092839260449091019190850190808383600083156105df5781810151838201526020016105c7565b50505090039056fe4f776e61626c653a2063616c6c6572206973206e6f74207468652064676f7600a2646970667358221220059356fc98d99839b3ac03faccc3c3db834de11b5a3d94230b95eafe3c329b5c64736f6c63430006060033",
  "immutableReferences": {},
  "source": "pragma solidity ^0.6.6;\n\nimport \"@openzeppelin/contracts/math/SafeMath.sol\";\nimport \"@openzeppelin/contracts/token/ERC20/ERC20.sol\";\n\n/**\n * @title Binary Options Gov Proxy\n * @author github.com/BIOPset\n * @dev intermediary holds funds generated from bets until they are transfered to gov\n * @notice intermediary holds funds generated from bets until they are transfered to gov\n * Biop\n */\ncontract GovProxy {\n    using SafeMath for uint256;\n    address payable public dgov;\n    address payable public treasury;\n    uint256 public tFee = 100;//1%. This fee is for the transfer caller\n    uint256 public treasuryFee = 10;//10%\n\n    constructor() public {\n        dgov = msg.sender;\n    }\n      \n\n    modifier onlyDGov() {\n        require(dgov == msg.sender, \"Ownable: caller is not the dgov\");\n        _;\n    }\n\n    function updateTFee(uint256 new_) external onlyDGov {\n        tFee = new_;\n    }\n\n    function updateDGov(address payable new_) external onlyDGov {\n        dgov = new_;\n    }\n\n    function updateTreasuryAmount(uint256 new_) external onlyDGov {\n        treasuryFee = new_;\n    }\n\n    function updateTreasury(address payable new_) external onlyDGov {\n        treasury = new_;\n    }\n\n    /**\n    * @dev transfer ETH or ERC20 tokens to the treasury or to the DGov directly for stakers to claim\n    */\n    function transferToGov() external onlyDGov returns(uint256){\n            require(address(this).balance > 0, \"Nothing to transfer\");\n            uint256 fee = address(this).balance.div(tFee);\n            uint256 tT;\n            if (treasuryFee != 0) {\n                //if treasury fee is not zero then calculate it\n                tT = (address(this).balance.sub(fee)).div(treasuryFee);\n                treasury.send(tT);\n            }\n            uint256 fG = 0;//amount for gov direct is zero by default\n            if (treasuryFee > 1) {\n                //if treasury fee is not 100% send some direct to gov\n                uint256 tG = address(this).balance.sub(fee);\n                dgov.send(tG);\n                fG = tG;\n            }\n            tx.origin.send(fee);\n            return fG;\n       \n    }\n\n    fallback () external payable {}\n}\n",
  "sourcePath": "/Users/x/Desktop/eth/BIOPv4/contracts/GovProxy.sol",
  "compiler": {
    "name": "solc",
    "version": "0.6.6+commit.6c089d02.Emscripten.clang"
  },
  "schemaVersion": "3.3.4",
  "updatedAt": "2021-05-15T01:01:11.455Z",
  "networkType": "ethereum",
  "devdoc": {
    "author": "github.com/BIOPset",
    "details": "intermediary holds funds generated from bets until they are transfered to gov",
    "methods": {
      "transferToGov()": {
        "details": "transfer ETH or ERC20 tokens to the treasury or to the DGov directly for stakers to claim"
      }
    },
    "title": "Binary Options Gov Proxy"
  },
  "userdoc": {
    "methods": {},
    "notice": "intermediary holds funds generated from bets until they are transfered to gov Biop"
  }
}