{
  "contractName": "GovProxy",
  "abi": [
    {
      "inputs": [],
      "stateMutability": "nonpayable",
      "type": "constructor"
    },
    {
      "stateMutability": "payable",
      "type": "fallback",
      "payable": true
    },
    {
      "inputs": [],
      "name": "dgov",
      "outputs": [
        {
          "internalType": "address payable",
          "name": "",
          "type": "address"
        }
      ],
      "stateMutability": "view",
      "type": "function",
      "constant": true
    },
    {
      "inputs": [],
      "name": "tFee",
      "outputs": [
        {
          "internalType": "uint256",
          "name": "",
          "type": "uint256"
        }
      ],
      "stateMutability": "view",
      "type": "function",
      "constant": true
    },
    {
      "inputs": [
        {
          "internalType": "uint256",
          "name": "new_",
          "type": "uint256"
        }
      ],
      "name": "updateTFee",
      "outputs": [],
      "stateMutability": "nonpayable",
      "type": "function"
    },
    {
      "inputs": [
        {
          "internalType": "address payable",
          "name": "new_",
          "type": "address"
        }
      ],
      "name": "updateDGov",
      "outputs": [],
      "stateMutability": "nonpayable",
      "type": "function"
    },
    {
      "inputs": [],
      "name": "transferToGov",
      "outputs": [
        {
          "internalType": "uint256",
          "name": "",
          "type": "uint256"
        }
      ],
      "stateMutability": "nonpayable",
      "type": "function"
    }
  ],
  "bytecode": "0x6080604052606460015534801561001557600080fd5b50600080546001600160a01b031916331790556104f0806100376000396000f3fe60806040526004361061004a5760003560e01c8063153b6f661461004c5780634e6314fb1461007d578063d14bf77f146100a4578063e82100b3146100b9578063ea2a6e63146100ec575b005b34801561005857600080fd5b50610061610116565b604080516001600160a01b039092168252519081900360200190f35b34801561008957600080fd5b50610092610125565b60408051918252519081900360200190f35b3480156100b057600080fd5b50610092610248565b3480156100c557600080fd5b5061004a600480360360208110156100dc57600080fd5b50356001600160a01b031661024e565b3480156100f857600080fd5b5061004a6004803603602081101561010f57600080fd5b50356102cf565b6000546001600160a01b031681565b600080546001600160a01b03163314610185576040805162461bcd60e51b815260206004820152601f60248201527f4f776e61626c653a2063616c6c6572206973206e6f74207468652064676f7600604482015290519081900360640190fd5b600047116101d0576040805162461bcd60e51b81526020600482015260136024820152722737ba3434b733903a37903a3930b739b332b960691b604482015290519081900360640190fd5b60006101e76001544761033390919063ffffffff16565b905060006101fb478363ffffffff61037c16565b600080546040519293506001600160a01b03169183156108fc0291849190818181858888f1505060405132935085156108fc0292508591506000818181858888f150939550505050505090565b60015481565b6000546001600160a01b031633146102ad576040805162461bcd60e51b815260206004820152601f60248201527f4f776e61626c653a2063616c6c6572206973206e6f74207468652064676f7600604482015290519081900360640190fd5b600080546001600160a01b0319166001600160a01b0392909216919091179055565b6000546001600160a01b0316331461032e576040805162461bcd60e51b815260206004820152601f60248201527f4f776e61626c653a2063616c6c6572206973206e6f74207468652064676f7600604482015290519081900360640190fd5b600155565b600061037583836040518060400160405280601a81526020017f536166654d6174683a206469766973696f6e206279207a65726f0000000000008152506103be565b9392505050565b600061037583836040518060400160405280601e81526020017f536166654d6174683a207375627472616374696f6e206f766572666c6f770000815250610460565b6000818361044a5760405162461bcd60e51b81526004018080602001828103825283818151815260200191508051906020019080838360005b8381101561040f5781810151838201526020016103f7565b50505050905090810190601f16801561043c5780820380516001836020036101000a031916815260200191505b509250505060405180910390fd5b50600083858161045657fe5b0495945050505050565b600081848411156104b25760405162461bcd60e51b815260206004820181815283516024840152835190928392604490910191908501908083836000831561040f5781810151838201526020016103f7565b50505090039056fea2646970667358221220a091d2223a10eba9d27c5b2b4c60f713f5a0aa682ec92f93ed5f0651e70a33db64736f6c63430006060033",
  "immutableReferences": {},
  "source": "pragma solidity ^0.6.6;\n\nimport \"@openzeppelin/contracts/math/SafeMath.sol\";\n\n/**\n * @title Binary Options Gov Proxy\n * @author github.com/BIOPset\n * @dev intermediary holds funds generated from bets until they are transfered to gov\n * @notice intermediary holds funds generated from bets until they are transfered to gov\n * Biop\n */\ncontract GovProxy {\n    using SafeMath for uint256;\n    address payable public dgov;\n    uint256 public tFee = 100;//1%\n\n    constructor() public {\n        dgov = msg.sender;\n    }\n      \n\n    modifier onlyDGov() {\n        require(dgov == msg.sender, \"Ownable: caller is not the dgov\");\n        _;\n    }\n\n    function updateTFee(uint256 new_) external onlyDGov {\n        tFee = new_;\n    }\n\n    function updateDGov(address payable new_) external onlyDGov {\n        dgov = new_;\n    }\n\n\n    function transferToGov() external onlyDGov returns(uint256){\n        require(address(this).balance > 0, \"Nothing to transfer\");\n        uint256 fee = address(this).balance.div(tFee);\n        uint256 tG = address(this).balance.sub(fee);\n        dgov.send(tG);\n        tx.origin.send(fee);\n        return tG;\n    }\n\n    fallback () external payable {}\n}",
  "sourcePath": "/Users/x/Desktop/eth/BIOPv4/contracts/GovProxy.sol",
  "compiler": {
    "name": "solc",
    "version": "0.6.6+commit.6c089d02.Emscripten.clang"
  },
  "schemaVersion": "3.3.4",
  "updatedAt": "2021-04-05T17:26:13.828Z",
  "networkType": "ethereum",
  "devdoc": {
    "author": "github.com/BIOPset",
    "details": "intermediary holds funds generated from bets until they are transfered to gov",
    "methods": {},
    "title": "Binary Options Gov Proxy"
  },
  "userdoc": {
    "methods": {},
    "notice": "intermediary holds funds generated from bets until they are transfered to gov Biop"
  }
}