{
  "contractName": "ITCO",
  "abi": [
    {
      "inputs": [
        {
          "internalType": "address payable",
          "name": "tk_",
          "type": "address"
        }
      ],
      "stateMutability": "nonpayable",
      "type": "constructor"
    },
    {
      "stateMutability": "payable",
      "type": "fallback"
    },
    {
      "inputs": [],
      "name": "base",
      "outputs": [
        {
          "internalType": "uint256",
          "name": "",
          "type": "uint256"
        }
      ],
      "stateMutability": "view",
      "type": "function"
    },
    {
      "inputs": [],
      "name": "end",
      "outputs": [
        {
          "internalType": "uint256",
          "name": "",
          "type": "uint256"
        }
      ],
      "stateMutability": "view",
      "type": "function"
    },
    {
      "inputs": [],
      "name": "sta",
      "outputs": [
        {
          "internalType": "uint256",
          "name": "",
          "type": "uint256"
        }
      ],
      "stateMutability": "view",
      "type": "function"
    },
    {
      "inputs": [],
      "name": "tk",
      "outputs": [
        {
          "internalType": "address payable",
          "name": "",
          "type": "address"
        }
      ],
      "stateMutability": "view",
      "type": "function"
    },
    {
      "inputs": [],
      "name": "total",
      "outputs": [
        {
          "internalType": "uint256",
          "name": "",
          "type": "uint256"
        }
      ],
      "stateMutability": "view",
      "type": "function"
    },
    {
      "inputs": [
        {
          "internalType": "address payable",
          "name": "newOwner_",
          "type": "address"
        }
      ],
      "name": "transferOwner",
      "outputs": [],
      "stateMutability": "nonpayable",
      "type": "function"
    },
    {
      "inputs": [
        {
          "internalType": "uint256",
          "name": "a",
          "type": "uint256"
        },
        {
          "internalType": "uint256",
          "name": "t",
          "type": "uint256"
        }
      ],
      "name": "open",
      "outputs": [],
      "stateMutability": "nonpayable",
      "type": "function"
    },
    {
      "inputs": [],
      "name": "currentTier",
      "outputs": [
        {
          "internalType": "uint256",
          "name": "",
          "type": "uint256"
        },
        {
          "internalType": "uint256",
          "name": "",
          "type": "uint256"
        }
      ],
      "stateMutability": "view",
      "type": "function"
    },
    {
      "inputs": [],
      "name": "collect",
      "outputs": [],
      "stateMutability": "nonpayable",
      "type": "function"
    }
  ],
  "bytecode": "0x6080604052600060025560006003556000600455670de0b6b3a7640000600655695f4a8c8375d1554000006007556974778f4b571c4bc00000600855699ed194db19b238c0000060095569de589d32bd931c400000600a556a01287626ee52197b000000600b556a017d2a320dd74555000000600c556548c273950000600d556551dac207a000600e55655af3107a4000600f5565640b5eece000601055656d23ad5f800060115565763bfbd220006012553480156100bd57600080fd5b50604051610d0d380380610d0d833981810160405260208110156100e057600080fd5b5051600180546001600160a01b03199081163317909155600080546001600160a01b0390931692909116919091179055610bee8061011f6000396000f3fe6080604052600436106100865760003560e01c80634fb2e45d116100595780634fb2e45d146104385780635001f3b51461046b578063d679677a14610480578063e5225381146104ae578063efbe1c1c146104c357610086565b806321f408be146103995780632ddbd13a146103ca5780634082de67146103f15780634d17f7fc14610423575b6000600354116100d3576040805162461bcd60e51b8152602060048201526013602482015272125090d3c81b9bdd081bdc195b9959081e595d606a1b604482015290519081900360640190fd5b600454421061011a576040805162461bcd60e51b815260206004820152600e60248201526d125090d3c81a185cc8195b99195960921b604482015290519081900360640190fd5b6000600b54600254106101305750601254610185565b600a54600254106101445750601154610185565b600954600254106101585750601054610185565b6008546002541061016c5750600f54610185565b600754600254106101805750600e54610185565b50600d545b8034116101c35760405162461bcd60e51b8152600401808060200182810382526021815260200180610b776021913960400191505060405180910390fd5b60006101d5348363ffffffff6104d816565b90506101ec6006548261052390919063ffffffff16565b60008054604080516370a0823160e01b815230600482015290519394506001600160a01b039091169283916370a08231916024808301926020929190829003018186803b15801561023c57600080fd5b505afa158015610250573d6000803e3d6000fd5b505050506040513d602081101561026657600080fd5b50519050828110156102bf576040805162461bcd60e51b815260206004820181905260248201527f696e737566666963656e742062616c616e6365206c65667420696e206974636f604482015290519081900360640190fd5b6002546102d2903463ffffffff61057c16565b6002556040805163a9059cbb60e01b81523360048201526024810185905290516001600160a01b0384169163a9059cbb9160448083019260209291908290030181600087803b15801561032457600080fd5b505af1158015610338573d6000803e3d6000fd5b505050506040513d602081101561034e57600080fd5b5051610393576040805162461bcd60e51b815260206004820152600f60248201526e1d1c985b9cd9995c8819985a5b1959608a1b604482015290519081900360640190fd5b50505050005b3480156103a557600080fd5b506103ae6105d6565b604080516001600160a01b039092168252519081900360200190f35b3480156103d657600080fd5b506103df6105e5565b60408051918252519081900360200190f35b3480156103fd57600080fd5b506104216004803603604081101561041457600080fd5b50803590602001356105eb565b005b34801561042f57600080fd5b506103df610726565b34801561044457600080fd5b506104216004803603602081101561045b57600080fd5b50356001600160a01b031661072c565b34801561047757600080fd5b506103df6107ad565b34801561048c57600080fd5b506104956107b3565b6040805192835260208301919091528051918290030190f35b3480156104ba57600080fd5b5061042161083c565b3480156104cf57600080fd5b506103df610ace565b600061051a83836040518060400160405280601a81526020017f536166654d6174683a206469766973696f6e206279207a65726f000000000000815250610ad4565b90505b92915050565b6000826105325750600061051d565b8282028284828161053f57fe5b041461051a5760405162461bcd60e51b8152600401808060200182810382526021815260200180610b986021913960400191505060405180910390fd5b60008282018381101561051a576040805162461bcd60e51b815260206004820152601b60248201527f536166654d6174683a206164646974696f6e206f766572666c6f770000000000604482015290519081900360640190fd5b6000546001600160a01b031681565b60055481565b6001546001600160a01b0316331461064a576040805162461bcd60e51b815260206004820181905260248201527f4f776e61626c653a2063616c6c6572206973206e6f7420746865206f776e6572604482015290519081900360640190fd5b60008054604080516323b872dd60e01b81523360048201523060248201526044810186905290516001600160a01b039092169283926323b872dd926064808201936020939283900390910190829087803b1580156106a757600080fd5b505af11580156106bb573d6000803e3d6000fd5b505050506040513d60208110156106d157600080fd5b5051610716576040805162461bcd60e51b815260206004820152600f60248201526e1d1c985b9cd9995c8819985a5b1959608a1b604482015290519081900360640190fd5b5042600381905501600455600555565b60035481565b6001546001600160a01b0316331461078b576040805162461bcd60e51b815260206004820181905260248201527f4f776e61626c653a2063616c6c6572206973206e6f7420746865206f776e6572604482015290519081900360640190fd5b600180546001600160a01b0319166001600160a01b0392909216919091179055565b60065481565b600080600080600b54600254106107d05750506012546006610834565b600a54600254106107e75750506011546005610834565b600954600254106107fe5750506010546004610834565b60085460025410610815575050600f546003610834565b6007546002541061082c575050600e546002610834565b5050600d5460015b925090509091565b6001546001600160a01b0316331461089b576040805162461bcd60e51b815260206004820181905260248201527f4f776e61626c653a2063616c6c6572206973206e6f7420746865206f776e6572604482015290519081900360640190fd5b6004546108e5576040805162461bcd60e51b8152602060048201526013602482015272125510d3c81b9bdd081bdc195b9959081e595d606a1b604482015290519081900360640190fd5b6004544211610930576040805162461bcd60e51b8152602060048201526012602482015271125510d3c81b9bdd08195b991959081e595d60721b604482015290519081900360640190fd5b60405133904780156108fc02916000818181858888f1935050505061098e576040805162461bcd60e51b815260206004820152600f60248201526e1d1c985b9cd9995c8819985a5b1959608a1b604482015290519081900360640190fd5b60008054604080516370a0823160e01b815230600482015290516001600160a01b03909216929183916370a08231916024808301926020929190829003018186803b1580156109dc57600080fd5b505afa1580156109f0573d6000803e3d6000fd5b505050506040513d6020811015610a0657600080fd5b50516040805163a9059cbb60e01b81523360048201526024810183905290519192506001600160a01b0384169163a9059cbb916044808201926020929091908290030181600087803b158015610a5b57600080fd5b505af1158015610a6f573d6000803e3d6000fd5b505050506040513d6020811015610a8557600080fd5b5051610aca576040805162461bcd60e51b815260206004820152600f60248201526e1d1c985b9cd9995c8819985a5b1959608a1b604482015290519081900360640190fd5b5050565b60045481565b60008183610b605760405162461bcd60e51b81526004018080602001828103825283818151815260200191508051906020019080838360005b83811015610b25578181015183820152602001610b0d565b50505050905090810190601f168015610b525780820380516001836020036101000a031916815260200191505b509250505060405180910390fd5b506000838581610b6c57fe5b049594505050505056fe696e737566666963656e74207061796d656e7420666f72206f6e6520746f6b656e536166654d6174683a206d756c7469706c69636174696f6e206f766572666c6f77a26469706673582212203803d700dfec8400ae3e690d454979d8d219d41aed61dc19272c845fb441648e64736f6c63430006060033",
  "immutableReferences": {},
  "source": "pragma solidity 0.6.6;// We declare the version of solidity this file is written in\n\n\nimport \"@openzeppelin/contracts/math/SafeMath.sol\";// We bring in OpenZeppelin's SafeMath Library\nimport \"@openzeppelin/contracts/token/ERC20/ERC20.sol\";// We bring in OpenZeppelin's ERC20 implementation\n\n\n/**\n* @title Tiered IBCO (ITCO)\n* @author Shalaquiana\n* @notice this implementation has a known flaw, the price of tokens does not change if tier increases during a single purhcase, the buyer receives all tokens for the previous tier price.\n* Licensed to everyone\n*/\ncontract ITCO { //We define that this is the Tiered IBCO(ITCO) contract\n    using SafeMath for uint256;// We set the SafeMath library for all uint256 variables\n    address payable public tk; //address of the token being used in the ibco\n    address payable owner; //the address that is running the ITCO\n    uint256 totalDeps = 0;//total deposits that have been recieved by the pool\n    uint256 public sta = 0;//start of the itco\n    uint256 public end = 0; //the end time of the itco\n    uint256 public total;// total amount of tokens available from the itco\n\n\n    uint256 public base = 1000000000000000000;//1 token with 18 decimals, helper\n\n    \n    //Tiers. The amount (in the) that marks the top of that tier\n    uint256 t1 =  450000000000000000000000;// 18 decimals by default so this is 450000\n    uint256 t2 =  550000000000000000000000;\n    uint256 t3 =  750000000000000000000000;\n    uint256 t4 = 1050000000000000000000000;\n    uint256 t5 = 1400000000000000000000000;\n    uint256 t6 = 1800000000000000000000000;\n\n    //token price at each tier. Dates are from like maybe 1/4/21?\n    uint256 p1 =  80000000000000;//~$0.12\n    uint256 p2 =  90000000000000;//~$0.14\n    uint256 p3 = 100000000000000;//~$0.16\n    uint256 p4 = 110000000000000;//~$0.17\n    uint256 p5 = 120000000000000;//~$0.19\n    uint256 p6 = 130000000000000;//~$0.20\n\n\n    /**\n    * @notice start the ibco\n    * @param tk_ address of token to be ibco'd\n    */\n    constructor(address payable tk_) public {\n        owner = msg.sender;// set the owner of the itco contract\n        tk = tk_;// set teh token used for the itco\n    }\n\n    modifier onlyOwner() {// this section defines a guard function run to protect functions only accessible by the owner\n        require(owner == msg.sender, \"Ownable: caller is not the owner\");\n        _;// weird requirement for modififer types in solidity, if you know why plz share\n    }\n\n      /**\n    * @dev transfer ownership\n    * @param newOwner_ the new address to assume ownership responsiblity (the multisig)\n    */\n    function transferOwner(address payable newOwner_) public onlyOwner {\n      owner = newOwner_;\n    }\n\n    /**\n    * @notice start the ibco\n    * @dev owner must approve IBCO contract before start will succeed\n    * @param a the amount of token to include in ibco\n    * @param t the total length of the ibco (seconnds after start)\n     */\n    function open(uint a, uint256 t) external onlyOwner {\n        ERC20 token = ERC20(tk);//load the token being itco'd for transfering the total amount to distribute in\n        require(token.transferFrom(msg.sender, address(this), a), \"transfer failed\");// transfer the amount from the owner to the itco contract\n        sta = block.timestamp;// set the start time of the itco to when this function is called\n        end = block.timestamp + t;// set the end time of the itco to t seconds from when this function is called\n        total = a;// set the total amount in the itco equal to the the amount deposited\n    }\n\n    /**\n    * @notice returns the current tier and current price. helper function\n    * @dev first variable returned is tier, second is price\n     */\n    function currentTier() external view returns (uint256, uint256){\n        uint256 price;\n        uint256 t;\n        if (totalDeps >= t5) {// if the total deposits so far exceeds the top of t5(tier five), use tier 6\n            t = 6;// set the tier to 6\n            price = p6;// set the price to the tier 6 price\n        } else if (totalDeps >= t4) {// if the total deposits so far exceeds the top of t4(tier four), use tier 5\n            t = 5;\n            price = p5;\n        } else if (totalDeps >= t3) {// if the total deposits so far exceeds the top of t4(tier three), use tier 4\n            t = 4;\n            price = p4;\n        } else if (totalDeps >= t2) {// if the total deposits so far exceeds the top of t2(tier two), use tier 3\n            t = 3;\n            price = p3;\n        } else if (totalDeps >= t1) {// if the total deposits so far exceeds the top of t1(tier one), use tier 2\n            t = 2;\n            price = p2;\n        } else {//use tier one if we haven't exceeded it's top yet\n            t = 1;\n            price = p1;\n        }\n        return (t, price);//now that the tier and price have been found we return them to the function caller\n    }\n\n\n    /**\n    * @notice withdraw the ETH emassed in the ibco\n    */\n    function collect() external onlyOwner {\n        require(end != 0, \"ITCO not opened yet\");// have to wait for itco to end to withdraw funds\n        require(block.timestamp > end, \"ITCO not ended yet\");// have to wait for itco to end to withdraw funds\n        require(msg.sender.send(address(this).balance), \"transfer failed\");//send all ETH held in the contract to the owner\n\n        //collect leftover tokens from unreached tiers\n        ERC20 token = ERC20(tk);//load the token that was ITCO'd\n        uint256 balance = token.balanceOf(address(this));// load the current balance of the tokens the itco still has\n        require(token.transfer(msg.sender, balance), \"transfer failed\");//return any left over tokens(those that didn't sell) to the owner\n    }\n\n    \n\n    /**\n    * @notice recieve ETH in this contract\n    */\n    fallback () external payable {//this is what happens when users send ETH to particpate in the itco\n        require(sta > 0, \"IBCO not opened yet\");//return ETH if itco didn't start yet\n        require(block.timestamp < end, \"IBCO has ended\");//return ETH if itco has already ended\n        \n        uint256 price;\n        if (totalDeps >= t5) {// if the total deposits so far exceeds the top of t5(tier five), use tier 6\n            price = p6;// set the price to the tier 6 price\n        } else if (totalDeps >= t4) {// if the total deposits so far exceeds the top of t4(tier four), use tier 5\n            price = p5;\n        } else if (totalDeps >= t3) {// if the total deposits so far exceeds the top of t4(tier three), use tier 4\n            price = p4;\n        } else if (totalDeps >= t2) {// if the total deposits so far exceeds the top of t2(tier two), use tier 3\n            price = p3;\n        } else if (totalDeps >= t1) {// if the total deposits so far exceeds the top of t1(tier one), use tier 2\n            price = p2;\n        } else {//use tier one if we haven't exceeded it's top yet\n            price = p1;\n        }\n        \n        require(msg.value > price, \"insufficent payment for one token\");//minimum purchase from the itco during any one transaction is one full token\n\n        //tokens to send\n        uint256 tTS = (msg.value.div(price));//calculate the number of tokens that will be transfered in this sale.\n        tTS = tTS.mul(base);//add 18 0s, change base if using for a token with more or less then 18 decimals)\n        \n        ERC20 token = ERC20(tk);// load the token being used in the itco\n        uint256 balance = token.balanceOf(address(this));// load the current number of tokens left in the itco\n        require(balance >= tTS, \"insufficent balance left in itco\");// return ETH if all there arent enough tokens left for this sale\n\n        totalDeps = totalDeps.add(msg.value);// update the total amount deposited in the pool\n        require(token.transfer(msg.sender, tTS), \"transfer failed\");// send tokens to the user who purchased them\n    }\n\n}",
  "sourcePath": "/Users/x/Desktop/eth/BIOPv4/contracts/ITCO.sol",
  "compiler": {
    "name": "solc",
    "version": "0.6.6+commit.6c089d02.Emscripten.clang"
  },
  "schemaVersion": "3.3.4",
  "updatedAt": "2021-05-14T23:07:18.947Z",
  "devdoc": {
    "author": "Shalaquiana",
    "methods": {
      "constructor": {
        "params": {
          "tk_": "address of token to be ibco'd"
        }
      },
      "currentTier()": {
        "details": "first variable returned is tier, second is price"
      },
      "open(uint256,uint256)": {
        "details": "owner must approve IBCO contract before start will succeed",
        "params": {
          "a": "the amount of token to include in ibco",
          "t": "the total length of the ibco (seconnds after start)"
        }
      },
      "transferOwner(address)": {
        "details": "transfer ownership",
        "params": {
          "newOwner_": "the new address to assume ownership responsiblity (the multisig)"
        }
      }
    },
    "title": "Tiered IBCO (ITCO)"
  },
  "userdoc": {
    "methods": {
      "collect()": {
        "notice": "withdraw the ETH emassed in the ibco"
      },
      "constructor": "start the ibco",
      "currentTier()": {
        "notice": "returns the current tier and current price. helper function"
      },
      "open(uint256,uint256)": {
        "notice": "start the ibco"
      }
    },
    "notice": "this implementation has a known flaw, the price of tokens does not change if tier increases during a single purhcase, the buyer receives all tokens for the previous tier price. Licensed to everyone"
  }
}