{
  "contractName": "LateStageBondingCurve",
  "abi": [
    {
      "inputs": [
        {
          "internalType": "address",
          "name": "token_",
          "type": "address"
        },
        {
          "internalType": "uint32",
          "name": "_reserveRatio",
          "type": "uint32"
        }
      ],
      "stateMutability": "nonpayable",
      "type": "constructor"
    },
    {
      "inputs": [],
      "name": "buyFee",
      "outputs": [
        {
          "internalType": "uint256",
          "name": "",
          "type": "uint256"
        }
      ],
      "stateMutability": "view",
      "type": "function",
      "constant": true
    },
    {
      "inputs": [
        {
          "internalType": "uint256",
          "name": "_supply",
          "type": "uint256"
        },
        {
          "internalType": "uint256",
          "name": "_reserveBalance",
          "type": "uint256"
        },
        {
          "internalType": "uint32",
          "name": "_reserveRatio",
          "type": "uint32"
        },
        {
          "internalType": "uint256",
          "name": "_depositAmount",
          "type": "uint256"
        }
      ],
      "name": "calculatePurchaseReturn",
      "outputs": [
        {
          "internalType": "uint256",
          "name": "",
          "type": "uint256"
        }
      ],
      "stateMutability": "view",
      "type": "function",
      "constant": true
    },
    {
      "inputs": [
        {
          "internalType": "uint256",
          "name": "_supply",
          "type": "uint256"
        },
        {
          "internalType": "uint256",
          "name": "_reserveBalance",
          "type": "uint256"
        },
        {
          "internalType": "uint32",
          "name": "_reserveRatio",
          "type": "uint32"
        },
        {
          "internalType": "uint256",
          "name": "_sellAmount",
          "type": "uint256"
        }
      ],
      "name": "calculateSaleReturn",
      "outputs": [
        {
          "internalType": "uint256",
          "name": "",
          "type": "uint256"
        }
      ],
      "stateMutability": "view",
      "type": "function",
      "constant": true
    },
    {
      "inputs": [
        {
          "internalType": "uint256",
          "name": "_continuousTokenAmount",
          "type": "uint256"
        }
      ],
      "name": "getContinuousBurnRefund",
      "outputs": [
        {
          "internalType": "uint256",
          "name": "",
          "type": "uint256"
        }
      ],
      "stateMutability": "view",
      "type": "function",
      "constant": true
    },
    {
      "inputs": [
        {
          "internalType": "uint256",
          "name": "_reserveTokenAmount",
          "type": "uint256"
        }
      ],
      "name": "getContinuousMintReward",
      "outputs": [
        {
          "internalType": "uint256",
          "name": "",
          "type": "uint256"
        }
      ],
      "stateMutability": "view",
      "type": "function",
      "constant": true
    },
    {
      "inputs": [],
      "name": "reserveRatio",
      "outputs": [
        {
          "internalType": "uint32",
          "name": "",
          "type": "uint32"
        }
      ],
      "stateMutability": "view",
      "type": "function",
      "constant": true
    },
    {
      "inputs": [],
      "name": "sellFee",
      "outputs": [
        {
          "internalType": "uint256",
          "name": "",
          "type": "uint256"
        }
      ],
      "stateMutability": "view",
      "type": "function",
      "constant": true
    },
    {
      "inputs": [],
      "name": "soldAmount",
      "outputs": [
        {
          "internalType": "uint256",
          "name": "",
          "type": "uint256"
        }
      ],
      "stateMutability": "view",
      "type": "function",
      "constant": true
    },
    {
      "inputs": [],
      "name": "tbca",
      "outputs": [
        {
          "internalType": "uint256",
          "name": "",
          "type": "uint256"
        }
      ],
      "stateMutability": "view",
      "type": "function",
      "constant": true
    },
    {
      "inputs": [],
      "name": "version",
      "outputs": [
        {
          "internalType": "string",
          "name": "",
          "type": "string"
        }
      ],
      "stateMutability": "view",
      "type": "function",
      "constant": true
    },
    {
      "inputs": [
        {
          "internalType": "uint256",
          "name": "total",
          "type": "uint256"
        }
      ],
      "name": "open",
      "outputs": [],
      "stateMutability": "nonpayable",
      "type": "function"
    },
    {
      "inputs": [
        {
          "internalType": "address payable",
          "name": "newDAO_",
          "type": "address"
        }
      ],
      "name": "transferDAO",
      "outputs": [],
      "stateMutability": "nonpayable",
      "type": "function"
    },
    {
      "inputs": [
        {
          "internalType": "uint256",
          "name": "newFee_",
          "type": "uint256"
        }
      ],
      "name": "updateBuyFee",
      "outputs": [],
      "stateMutability": "nonpayable",
      "type": "function"
    },
    {
      "inputs": [
        {
          "internalType": "uint256",
          "name": "newFee_",
          "type": "uint256"
        }
      ],
      "name": "updateSellFee",
      "outputs": [],
      "stateMutability": "nonpayable",
      "type": "function"
    },
    {
      "inputs": [],
      "name": "continuousSupply",
      "outputs": [
        {
          "internalType": "uint256",
          "name": "",
          "type": "uint256"
        }
      ],
      "stateMutability": "view",
      "type": "function",
      "constant": true
    },
    {
      "inputs": [],
      "name": "reserveBalance",
      "outputs": [
        {
          "internalType": "uint256",
          "name": "",
          "type": "uint256"
        }
      ],
      "stateMutability": "view",
      "type": "function",
      "constant": true
    },
    {
      "inputs": [],
      "name": "buy",
      "outputs": [],
      "stateMutability": "payable",
      "type": "function",
      "payable": true
    },
    {
      "inputs": [
        {
          "internalType": "uint256",
          "name": "amount",
          "type": "uint256"
        }
      ],
      "name": "sell",
      "outputs": [
        {
          "internalType": "uint256",
          "name": "",
          "type": "uint256"
        }
      ],
      "stateMutability": "nonpayable",
      "type": "function"
    }
  ],
  "bytecode": "0x60c06040526003608081905262302e3360e81b60a09081526200002691600091906200080b565b50608280546001600160a01b03191690556000608481905560026085556086553480156200005357600080fd5b50604051620027fe380380620027fe833981810160405260408110156200007957600080fd5b5080516020909101516001641c35fedd1560601b036021556001646c3390ecc9605e1b036022556001640cf801476160611b0360235560016431bdb23e1d605f1b0360245560016502fb1d8fe083605b1b0360255560016505b771955b37605a1b036026556001650af67a93bb5160591b0360275560016515060c256cb360581b036028556001651428a2f98d7360581b036029556001654d515663970960561b03602a55600165944620b0e70f60551b03602b55600166011c592761c66760541b03602c5560016602214d10d014eb60531b03602d55600166020ade36b7dbef60531b03602e5560016603eab73b3bbfe360521b03602f556001660782ee3593f6d760511b036030556001661ccf4b44bb4821604f1b0360315560016606e7f88ad8a77760511b0360325560016669f3d1c921891d604d1b03603355600166cb2ff529eb71e5604c1b03603455600166c2d415c3db974b604c1b0360355560016702eb40f9f620fda7604a1b0360365560016705990681d961a1eb60491b03603755600167055e12902701414760491b0360385560016714962dee9dc9764160471b0360395560016704ef57b9b560fab560491b03603a5560016712ed7b32a58f552b60471b03603b556001679131271922eaa60760441b03603c556001678b380f3558668c4760441b03603d556001680215f77c045fbe885760421b03603e556001600160831b03603f556001670f577eded5773a1160471b036040556001680eb5ec597592befbf5603f1b036041556001681c35fedd14b861eb05603e1b036042556001683619c87664579bc94b603d1b0360435560016867c00a3b07ffc01fd7603c1b03604455600168c6f6c8f8739773a7a5603b1b03604555600168bec763f8209b7a72b1603b1b0360465560016902dbb8caad9b7097b91b60391b03604755600169057b3d49dda84556d6f760381b03604855600169054183095b2c8ececf3160381b036049556001690a14517cc6b9457111ef60371b03604a5560016913545598e5c23276ccf160361b03604b556001692511882c39c3adea96ff60351b03604c55600169471649d87199aa99075760341b03604d557004429a21a029d4c1457cfbffffffffffff604e55700415bc6d6fb7dd71af2cb3ffffffffffff604f557003eab73b3bbfe282243ce1ffffffffffff6050557003c1771ac9fb6b4c18e229ffffffffffff605155700399e96897690418f785257fffffffffff605255700373fc456c53bb779bf0ea9fffffffffff60535570034f9e8e490c48e67e6ab8bfffffffffff60545570032cbfd4a7adc790560b3337ffffffffff60555570030b50570f6e5d2acca94613ffffffffff6056557002eb40f9f620fda6b56c2861ffffffffff6057557002cc8340ecb0d0f520a6af58ffffffffff6058557002af09481380a0a35cf1ba02ffffffffff605955700292c5bdd3b92ec810287b1b3fffffffff605a55700277abdcdab07d5a77ac6d6b9fffffffff605b5570025daf6654b1eaa55fd64df5efffffffff605c55700244c49c648baa98192dce88b7ffffffff605d5570022ce03cd5619a311b2471268bffffffff605e55700215f77c045fbe885654a44a0fffffffff605f556001600160811b036060557001eaefdbdaaee7421fc4d3ede5ffffffff6061557001d6bd8b2eb257df7e8ca57b09bfffffff6062557001c35fedd14b861eb0443f7f133fffffff6063557001b0ce43b322bcde4a56e8ada5afffffff60645570019f0028ec1fff007f5a195a39dfffffff60655570018ded91f0e72ee74f49b15ba527ffffff60665570017d8ec7f04136f4e5615fd41a63ffffff60675570016ddc6556cdb84bdc8d12d22e6fffffff60685570015ecf52776a1155b5bd8395814f7fffff60695570015060c256cb23b3b3cc3754cf40ffffff606a557001428a2f98d728ae223ddab715be3fffff606b5570013545598e5c23276ccf0ede68034fffff606c557001288c4161ce1d6f54b7f61081194fffff606d5570011c592761c666aa641d5a01a40f17ffff606e55700110a688680a7530515f3e6e6cfdcdffff606f557001056f1b5bedf75c6bcb2ce8aed428ffff6070556ffaadceceeff8a0890f3875f008277fff6071556ff05dc6b27edad306388a600f6ba0bfff6072556fe67a5a25da41063de1495d5b18cdbfff6073556fdcff115b14eedde6fc3aa5353f2e4fff6074556fd3e7a3924312399f9aae2e0f868f8fff6075556fcb2ff529eb71e41582cccd5a1ee26fff6076556fc2d415c3db974ab32a51840c0b67edff6077556fbad03e7d883f69ad5b0a186184e06bff6078556fb320d03b2c343d4829abd6075f0cc5ff6079556fabc25204e02828d73c6e80bcdb1a95bf607a556fa4b16f74ee4bb2040a1ec6c15fbbf2df607b556f9deaf736ac1f569deb1b5ae3f36c130f607c556f976bd9952c7aa957f5937d790ef65037607d556f9131271922eaa6064b73a22d0bd4f2bf607e556f8b380f3558668c46c91c49a2f8e967b9607f556f857ddf0117efa215952912839f6473e66080556081805460828054336001600160a01b031990911617905563ffffffff191663ffffffff90921691909117600160201b600160c01b0319166401000000006001600160a01b0390931692909202919091179055620186a0608455620008b0565b828054600181600116156101000203166002900490600052602060002090601f016020900481019282601f106200084e57805160ff19168380011785556200087e565b828001600101855582156200087e579182015b828111156200087e57825182559160200191906001019062000861565b506200088c92915062000890565b5090565b620008ad91905b808211156200088c576000815560010162000897565b90565b611f3e80620008c06000396000f3fe6080604052600436106101095760003560e01c806354fd4d5011610095578063a10954fe11610064578063a10954fe146103a2578063a6f2ae3a146103b7578063da12457a146103bf578063e4849b32146103d4578063fa1a5f59146103fe57610109565b806354fd4d5014610291578063690e7c091461031b5780637a318866146103455780637cbed3e01461037857610109565b80632b14ca56116100dc5780632b14ca56146101e65780632d189a3f146101fb578063467abe0a14610210578063470624021461023a57806349f9b0f71461024f57610109565b80630c7d5cd81461010e5780630d8f9f7f1461013c5780631d933a4a1461017857806329a00e7c146101a4575b600080fd5b34801561011a57600080fd5b50610123610413565b6040805163ffffffff9092168252519081900360200190f35b34801561014857600080fd5b506101666004803603602081101561015f57600080fd5b503561041f565b60408051918252519081900360200190f35b34801561018457600080fd5b506101a26004803603602081101561019b57600080fd5b503561044b565b005b3480156101b057600080fd5b50610166600480360360808110156101c757600080fd5b5080359060208101359063ffffffff60408201351690606001356104ec565b3480156101f257600080fd5b5061016661060f565b34801561020757600080fd5b50610166610615565b34801561021c57600080fd5b506101a26004803603602081101561023357600080fd5b503561061b565b34801561024657600080fd5b506101666106bc565b34801561025b57600080fd5b506101666004803603608081101561027257600080fd5b5080359060208101359063ffffffff60408201351690606001356106c2565b34801561029d57600080fd5b506102a66107f1565b6040805160208082528351818301528351919283929083019185019080838360005b838110156102e05781810151838201526020016102c8565b50505050905090810190601f16801561030d5780820380516001836020036101000a031916815260200191505b509250505060405180910390f35b34801561032757600080fd5b506101a26004803603602081101561033e57600080fd5b503561087f565b34801561035157600080fd5b506101a26004803603602081101561036857600080fd5b50356001600160a01b031661095e565b34801561038457600080fd5b506101666004803603602081101561039b57600080fd5b50356109cd565b3480156103ae57600080fd5b506101666109f1565b6101a26109f5565b3480156103cb57600080fd5b50610166610bb4565b3480156103e057600080fd5b50610166600480360360208110156103f757600080fd5b5035610bba565b34801561040a57600080fd5b50610166610e4d565b60815463ffffffff1681565b600061044361042c610bb4565b6104346109f1565b60815463ffffffff16856104ec565b90505b919050565b6082546001600160a01b03163314610498576040805162461bcd60e51b815260206004820152601e6024820152600080516020611ec8833981519152604482015290519081900360640190fd5b6000811180156104a85750602881105b6104e7576040805162461bcd60e51b815260206004820152600b60248201526a696e76616c69642066656560a81b604482015290519081900360640190fd5b608655565b600080851180156104fd5750600084115b801561050f575060008363ffffffff16115b80156105245750620f424063ffffffff841611155b610567576040805162461bcd60e51b815260206004820152600f60248201526e24b73b30b634b21034b7383aba399760891b604482015290519081900360640190fd5b8161057457506000610607565b63ffffffff8316620f424014156105ac576105a584610599878563ffffffff610e5316565b9063ffffffff610eb516565b9050610607565b600080806105c0858863ffffffff610ef716565b90506105d1818888620f4240610f51565b9093509150600060ff83166105ec8a8663ffffffff610e5316565b901c9050610600818a63ffffffff6110c016565b9450505050505b949350505050565b60865481565b60835481565b6082546001600160a01b03163314610668576040805162461bcd60e51b815260206004820152601e6024820152600080516020611ec8833981519152604482015290519081900360640190fd5b6000811180156106785750602881105b6106b7576040805162461bcd60e51b815260206004820152600b60248201526a696e76616c69642066656560a81b604482015290519081900360640190fd5b608555565b60855481565b600080851180156106d35750600084115b80156106e5575060008363ffffffff16115b80156106fa5750620f424063ffffffff841611155b80156107065750848211155b610749576040805162461bcd60e51b815260206004820152600f60248201526e24b73b30b634b21034b7383aba399760891b604482015290519081900360640190fd5b8161075657506000610607565b84821415610765575082610607565b63ffffffff8316620f4240141561078a576105a585610599868563ffffffff610e5316565b6000808061079e888663ffffffff6110c016565b90506107af8882620f424089610f51565b909350915060006107c6888563ffffffff610e5316565b905060ff831688901b6107e385610599848463ffffffff6110c016565b9a9950505050505050505050565b6000805460408051602060026001851615610100026000190190941693909304601f810184900484028201840190925281815292918301828280156108775780601f1061084c57610100808354040283529160200191610877565b820191906000526020600020905b81548152906001019060200180831161085a57829003601f168201915b505050505081565b6082546001600160a01b031633146108cc576040805162461bcd60e51b815260206004820152601e6024820152600080516020611ec8833981519152604482015290519081900360640190fd5b608154604080516323b872dd60e01b81523360048201523060248201526044810184905290516401000000009092046001600160a01b0316916323b872dd916064808201926020929091908290030181600087803b15801561092d57600080fd5b505af1158015610941573d6000803e3d6000fd5b505050506040513d602081101561095757600080fd5b5050608355565b6082546001600160a01b031633146109ab576040805162461bcd60e51b815260206004820152601e6024820152600080516020611ec8833981519152604482015290519081900360640190fd5b608280546001600160a01b0319166001600160a01b0392909216919091179055565b60006104436109da610bb4565b6109e26109f1565b60815463ffffffff16856106c2565b4790565b608554349015610aa4576000610a1b606461059960855485610eb590919063ffffffff16565b6082546040519192506001600160a01b03169082156108fc029083906000818181858888f19350505050610a90576040805162461bcd60e51b8152602060048201526017602482015276189d5e48199959481d1c985b9cd9995c8819985a5b1959604a1b604482015290519081900360640190fd5b610aa0828263ffffffff6110c016565b9150505b6000610aaf8261041f565b9050608354610ac982608454610ef790919063ffffffff16565b1115610b13576040805162461bcd60e51b81526020600482015260146024820152731b585e1a5b5d5b4818dd5c9d99481b5a5b9d195960621b604482015290519081900360640190fd5b6081546040805163a9059cbb60e01b81523360048201526024810184905290516401000000009092046001600160a01b03169163a9059cbb916044808201926020929091908290030181600087803b158015610b6e57600080fd5b505af1158015610b82573d6000803e3d6000fd5b505050506040513d6020811015610b9857600080fd5b5050608454610bad908263ffffffff610ef716565b6084555050565b60845490565b608154604080516370a0823160e01b8152336004820152905160009284926401000000009091046001600160a01b0316916370a0823191602480820192602092909190829003018186803b158015610c1157600080fd5b505afa158015610c25573d6000803e3d6000fd5b505050506040513d6020811015610c3b57600080fd5b50511015610c90576040805162461bcd60e51b815260206004820152601860248201527f696e737566666963656e742042494f502062616c616e63650000000000000000604482015290519081900360640190fd5b6000610c9b836109cd565b60865490915015610d4b576000610cc2606461059960855485610eb590919063ffffffff16565b6082546040519192506001600160a01b03169082156108fc029083906000818181858888f19350505050610d37576040805162461bcd60e51b8152602060048201526017602482015276189d5e48199959481d1c985b9cd9995c8819985a5b1959604a1b604482015290519081900360640190fd5b610d47828263ffffffff6110c016565b9150505b608454610d5e908463ffffffff6110c016565b608455608154604080516323b872dd60e01b81523360048201523060248201526044810186905290516401000000009092046001600160a01b0316916323b872dd916064808201926020929091908290030181600087803b158015610dc257600080fd5b505af1158015610dd6573d6000803e3d6000fd5b505050506040513d6020811015610dec57600080fd5b5050604051339082156108fc029083906000818181858888f19350505050610443576040805162461bcd60e51b815260206004820152600f60248201526e1d1c985b9cd9995c8819985a5b1959608a1b604482015290519081900360640190fd5b60845481565b600082610e6257506000610eaf565b82820282848281610e6f57fe5b0414610eac5760405162461bcd60e51b8152600401808060200182810382526021815260200180611ee86021913960400191505060405180910390fd5b90505b92915050565b6000610eac83836040518060400160405280601a81526020017f536166654d6174683a206469766973696f6e206279207a65726f000000000000815250611102565b600082820183811015610eac576040805162461bcd60e51b815260206004820152601b60248201527f536166654d6174683a206164646974696f6e206f766572666c6f770000000000604482015290519081900360640190fd5b600080600160811b8610610fac576040805162461bcd60e51b815260206004820152601860248201527f626173654e2065786365656473206d61782076616c75652e0000000000000000604482015290519081900360640190fd5b84861015611001576040805162461bcd60e51b815260206004820152601c60248201527f4261736573203c203120617265206e6f7420737570706f727465642e00000000604482015290519081900360640190fd5b600080866001607f1b89028161101357fe5b04905070015bf0a8b1457695355fb8ac404e7a79e381101561103f57611038816111a4565b915061104b565b61104881611586565b91505b60008563ffffffff168763ffffffff1684028161106457fe5b049050600160831b81101561108a5761107c81611636565b607f945094505050506110b7565b6000611095826119da565b90506110aa81607f0360ff1683901c82611a6c565b955093506110b792505050565b94509492505050565b6000610eac83836040518060400160405280601e81526020017f536166654d6174683a207375627472616374696f6e206f766572666c6f770000815250611e09565b6000818361118e5760405162461bcd60e51b81526004018080602001828103825283818151815260200191508051906020019080838360005b8381101561115357818101518382015260200161113b565b50505050905090810190601f1680156111805780820380516001836020036101000a031916815260200191505b509250505060405180910390fd5b50600083858161119a57fe5b0495945050505050565b6000808080806fd3094c70f034de4b96ff7d5b6f99fcd886106111ed576001607e1b840193506fd3094c70f034de4b96ff7d5b6f99fcd86001607f1b8702816111e957fe5b0495505b6fa45af1e1f40c333b3de1db4dd55f29a78610611230576001607d1b840193506fa45af1e1f40c333b3de1db4dd55f29a76001607f1b87028161122c57fe5b0495505b6f910b022db7ae67ce76b441c27035c6a18610611273576001607c1b840193506f910b022db7ae67ce76b441c27035c6a16001607f1b87028161126f57fe5b0495505b6f88415abbe9a76bead8d00cf112e4d4a886106112b6576001607b1b840193506f88415abbe9a76bead8d00cf112e4d4a86001607f1b8702816112b257fe5b0495505b6f84102b00893f64c705e841d5d4064bd386106112f9576001607a1b840193506f84102b00893f64c705e841d5d4064bd36001607f1b8702816112f557fe5b0495505b6f8204055aaef1c8bd5c3259f4822735a2861061133c57600160791b840193506f8204055aaef1c8bd5c3259f4822735a26001607f1b87028161133857fe5b0495505b6f810100ab00222d861931c15e39b44e99861061137f57600160781b840193506f810100ab00222d861931c15e39b44e996001607f1b87028161137b57fe5b0495505b6f808040155aabbbe9451521693554f73386106113c257600160771b840193506f808040155aabbbe9451521693554f7336001607f1b8702816113be57fe5b0495505b6f7fffffffffffffffffffffffffffffff19860192508291506001607f1b828002049050600160801b838103830204840193506001607f1b8183028161140457fe5b049150600160811b836faaaaaaaaaaaaaaaaaaaaaaaaaaaaaaaa0383028161142857fe5b04840193506001607f1b8183028161143c57fe5b049150600360801b836f999999999999999999999999999999990383028161146057fe5b04840193506001607f1b8183028161147457fe5b049150600160821b836f924924924924924924924924924924920383028161149857fe5b04840193506001607f1b818302816114ac57fe5b049150600560801b836f8e38e38e38e38e38e38e38e38e38e38e038302816114d057fe5b04840193506001607f1b818302816114e457fe5b049150600360811b836f8ba2e8ba2e8ba2e8ba2e8ba2e8ba2e8b0383028161150857fe5b04840193506001607f1b8183028161151c57fe5b049150600760801b836f89d89d89d89d89d89d89d89d89d89d890383028161154057fe5b04840193506001607f1b8183028161155457fe5b049150600160831b836f888888888888888888888888888888880383028161157857fe5b049390930195945050505050565b60008082600160801b81106115b95760006115a66001607f1b8304611e63565b60ff166001607f1b810293509190911c90505b6001607f1b81111561160957607f5b60ff811615611607576001607f1b828002049150600160801b82106115fe57600182901c91506001810360ff166001901b830192505b600019016115c8565b505b6f05b9de1d10bf4103d647b0955897ba806f03f80fe03f80fe03f80fe03f80fe03f8830204949350505050565b6000670168244fdac780006001607f1b6f0fffffffffffffffffffffffffffffff84168080028290048082028390048083028490049485026710e1b3be415a00009092026705a0913f6b1e000091909102010192909181830204905080664807432bc1800002830192506001607f1b828202816116af57fe5b04905080660c0135dca0400002830192506001607f1b828202816116cf57fe5b049050806601b707b1cdc00002830192506001607f1b828202816116ef57fe5b049050806536e0f639b80002830192506001607f1b8282028161170e57fe5b04905080650618fee9f80002830192506001607f1b8282028161172d57fe5b04905080649c197dcc0002830192506001607f1b8282028161174b57fe5b04905080640e30dce40002830192506001607f1b8282028161176957fe5b0490508064012ebd130002830192506001607f1b8282028161178757fe5b049050806317499f0002830192506001607f1b828202816117a457fe5b049050806301a9d48002830192506001607f1b828202816117c157fe5b04905080621c638002830192506001607f1b828202816117dd57fe5b049050806201c63802830192506001607f1b828202816117f957fe5b04905080611ab802830192506001607f1b8282028161181457fe5b0490508061017c02830192506001607f1b8282028161182f57fe5b04905080601402830192506001607f1b8282028161184957fe5b6721c3677c82b400009190049384010482016001607f1b019290506001607c1b85161561189a5770018ebef9eac820ae8682b9793ac6d1e7767001c3d6a24ed82218787d624d3e5eba95f984020492505b6001607d1b8516156118d0577001368b2fc6f9609fe7aceb46aa619baed470018ebef9eac820ae8682b9793ac6d1e77884020492505b6001607e1b851615611905576fbc5ab1b16779be3575bd8f0520a9f21f7001368b2fc6f9609fe7aceb46aa619baed584020492505b6001607f1b851615611939576f454aaa8efe072e7f6ddbab84b40a55c96fbc5ab1b16779be3575bd8f0520a9f21e84020492505b600160801b85161561196d576f0960aadc109e7a3bf4578099615711ea6f454aaa8efe072e7f6ddbab84b40a55c584020492505b600160811b8516156119a0576e2bf84208204f5977f9a8cf01fdce3d6f0960aadc109e7a3bf4578099615711d784020492505b600160821b8516156119d1576d03c6ab775dd0b95b4cbee7e65d116e2bf84208204f5977f9a8cf01fdc30784020492505b50909392505050565b60006020607f5b8060ff168260010160ff161015611a29576000600260ff848401160490508460018260ff1660808110611a1057fe5b015410611a1f57809250611a23565b8091505b506119e1565b8360018260ff1660808110611a3a57fe5b015410611a4a5791506104469050565b8360018360ff1660808110611a5b57fe5b015410611a6a57509050610446565bfe5b60008083905060008090508360ff16858302901c9150816f03442c4e6074a82f1797f72ac000000002810190508360ff16858302901c9150816f0116b96f757c380fb287fd0e4000000002810190508360ff16858302901c9150816e45ae5bdd5f0e03eca1ff439000000002810190508360ff16858302901c9150816e0defabf91302cd95b9ffda5000000002810190508360ff16858302901c9150816e02529ca9832b22439efff9b800000002810190508360ff16858302901c9150816d54f1cf12bd04e516b6da8800000002810190508360ff16858302901c9150816d0a9e39e257a09ca2d6db5100000002810190508360ff16858302901c9150816d012e066e7b839fa050c30900000002810190508360ff16858302901c9150816c1e33d7d926c329a1ad1a80000002810190508360ff16858302901c9150816c02bee513bdb4a6b19b5f80000002810190508360ff16858302901c9150816b3a9316fa79b88eccf2a0000002810190508360ff16858302901c9150816b048177ebe1fa81237520000002810190508360ff16858302901c9150816a5263fe90242dcbacf0000002810190508360ff16858302901c9150816a057e22099c030d9410000002810190508360ff16858302901c9150816957e22099c030d941000002810190508360ff16858302901c91508169052b6b5456997631000002810190508360ff16858302901c915081684985f67696bf74800002810190508360ff16858302901c9150816803dea12ea99e49800002810190508360ff16858302901c9150816731880f2214b6e00002810190508360ff16858302901c91508167025bcff56eb3600002810190508360ff16858302901c915081661b722e10ab100002810190508360ff16858302901c9150816601317c7007700002810190508360ff16858302901c915081650cba84aafa0002810190508360ff16858302901c9150816482573a0a0002810190508360ff16858302901c9150816405035ad90002810190508360ff16858302901c915081632f881b0002810190508360ff16858302901c9150816301b2934002810190508360ff16858302901c915081620efc4002810190508360ff16858302901c915081617fe002810190508360ff16858302901c91508161042002810190508360ff16858302901c915081602102810190508360ff16858302901c915081600102810190508360ff166001901b856f0688589cc0e9505e2f2fee55800000008381611dfd57fe5b04010195945050505050565b60008184841115611e5b5760405162461bcd60e51b815260206004820181815283516024840152835190928392604490910191908501908083836000831561115357818101518382015260200161113b565b505050900390565b60008082610100811015611e8c575b6001811115611e87576001918201911c611e72565b611ec0565b60805b60ff811615611ebe57600160ff82161b8210611eb3579182179160ff81169190911c905b60011c607f16611e8f565b505b509291505056fe4f776e61626c653a2063616c6c6572206973206e6f74207468652064616f0000536166654d6174683a206d756c7469706c69636174696f6e206f766572666c6f77a2646970667358221220ca6dde234f97970b1a99de2869d6369ca68f74bf2c97af4943a031f936b62a5a64736f6c63430006060033",
  "immutableReferences": {},
  "source": "pragma solidity ^0.6.6;\n\nimport \"@openzeppelin/contracts/math/SafeMath.sol\";\nimport \"@openzeppelin/contracts/token/ERC20/ERC20.sol\";\n\nimport \"./ContinuousToken/curves/BancorBondingCurve.sol\";\ncontract LateStageBondingCurve is BancorBondingCurve {\n    using SafeMath for uint256;\n    ERC20 token;\n    address payable dao = 0x0000000000000000000000000000000000000000;\n    uint256 public tbca;//total bonding curve available\n                                      \n\n    uint256 public soldAmount = 0;\n    uint256 public buyFee = 2;//in 10th of percent\n    uint256 public sellFee = 0;//in 10th of percent\n\n    constructor(address token_,  uint32 _reserveRatio) public BancorBondingCurve(_reserveRatio) {\n      dao = msg.sender;\n      token = ERC20(token_);\n      soldAmount = 100000;//require a non zero value to start\n    }\n\n    /**\n    * @dev run this function to make the deposit that starts the latestage bonding curve\n    * @param total the amount of erc20 tokens to transfer into this contract\n     */\n    function open(uint256 total) public onlyDAO {\n      token.transferFrom(msg.sender, address(this), total);\n      tbca = total;\n    }\n\n    function transferDAO(address payable newDAO_) public onlyDAO {\n        dao = newDAO_;\n    }\n\n\n     /** \n     * @dev set the fee users pay in ETH to buy BIOP from the bonding curve\n     * @param newFee_ the new fee (in tenth percent) for buying on the curve\n     */\n    function updateBuyFee(uint256 newFee_) external onlyDAO {\n        require(newFee_ > 0 && newFee_ < 40, \"invalid fee\");\n        buyFee = newFee_;\n    }\n\n    /** \n     * @dev set the fee users pay in ETH to sell BIOP to the bonding curve\n     * @param newFee_ the new fee (in tenth percent) for selling on the curve\n     */\n    function updateSellFee(uint256 newFee_) external onlyDAO {\n        require(newFee_ > 0 && newFee_ < 40, \"invalid fee\");\n        sellFee = newFee_;\n    }\n\n    \n    modifier onlyDAO() {\n        require(dao == msg.sender, \"Ownable: caller is not the dao\");\n        _;\n    }\n\n    //bonding curve functions\n\n     /**\n    * @dev method that returns BIOP amount sold by curve\n    */   \n    function continuousSupply() public override view returns (uint) {\n        return soldAmount;\n    }\n\n    /**\n    * @dev method that returns curves ETH (reserve) balance\n    */    \n    function reserveBalance() public override view returns (uint) {\n        return address(this).balance;\n    }\n\n    /**\n     * @notice purchase BIOP from the bonding curve. \n     the amount you get is based on the amount in the pool and the amount of eth u send.\n     */\n     function buy() public payable {\n        uint256 purchaseAmount = msg.value;\n        \n         if (buyFee > 0) {\n            uint256 fee = purchaseAmount.div(buyFee).div(100);\n            require(dao.send(fee), \"buy fee transfer failed\");\n            purchaseAmount = purchaseAmount.sub(fee);\n        } \n        uint rewardAmount = getContinuousMintReward(purchaseAmount);\n        require(soldAmount.add(rewardAmount) <= tbca, \"maximum curve minted\");\n        token.transfer(msg.sender, rewardAmount);\n        soldAmount = soldAmount.add(rewardAmount);\n    }\n\n    \n     /**\n     * @notice sell BIOP to the bonding curve\n     * @param amount the amount of BIOP to sell\n     */\n     function sell(uint256 amount) public returns (uint256){\n        require(token.balanceOf(msg.sender) >= amount, \"insufficent BIOP balance\");\n\n        uint256 ethToSend = getContinuousBurnRefund(amount);\n        if (sellFee > 0) {\n            uint256 fee = ethToSend.div(buyFee).div(100);\n            require(dao.send(fee), \"buy fee transfer failed\");\n            \n            ethToSend = ethToSend.sub(fee);\n        }\n        soldAmount = soldAmount.sub(amount);\n        token.transferFrom(msg.sender, address(this), amount);\n        require(msg.sender.send(ethToSend), \"transfer failed\");\n        return ethToSend;\n        }\n}\n",
  "sourcePath": "/Users/x/Desktop/eth/BIOPv4/contracts/LateStageBondingCurve.sol",
  "compiler": {
    "name": "solc",
    "version": "0.6.6+commit.6c089d02.Emscripten.clang"
  },
  "schemaVersion": "3.3.4",
  "updatedAt": "2021-05-15T01:01:11.555Z",
  "networkType": "ethereum",
  "devdoc": {
    "methods": {
      "calculatePurchaseReturn(uint256,uint256,uint32,uint256)": {
        "details": "given a continuous token supply, reserve token balance, reserve ratio, and a deposit amount (in the reserve token), calculates the return for a given conversion (in the continuous token)    * Formula: Return = _supply * ((1 + _depositAmount / _reserveBalance) ^ (_reserveRatio / MAX_RESERVE_RATIO) - 1)",
        "params": {
          "_depositAmount": "deposit amount, in reserve token",
          "_reserveBalance": "total reserve token balance",
          "_reserveRatio": "reserve ratio, represented in ppm, 1-1000000",
          "_supply": "continuous token total supply"
        },
        "returns": {
          "_0": "purchase return amount"
        }
      },
      "calculateSaleReturn(uint256,uint256,uint32,uint256)": {
        "details": "given a continuous token supply, reserve token balance, reserve ratio and a sell amount (in the continuous token), calculates the return for a given conversion (in the reserve token)    * Formula: Return = _reserveBalance * (1 - (1 - _sellAmount / _supply) ^ (1 / (_reserveRatio / MAX_RESERVE_RATIO)))",
        "params": {
          "_reserveBalance": "total reserve token balance",
          "_reserveRatio": "constant reserve ratio, represented in ppm, 1-1000000",
          "_sellAmount": "sell amount, in the continuous token itself",
          "_supply": "continuous token total supply"
        },
        "returns": {
          "_0": "sale return amount"
        }
      },
      "continuousSupply()": {
        "details": "method that returns BIOP amount sold by curve"
      },
      "open(uint256)": {
        "details": "run this function to make the deposit that starts the latestage bonding curve",
        "params": {
          "total": "the amount of erc20 tokens to transfer into this contract"
        }
      },
      "reserveBalance()": {
        "details": "method that returns curves ETH (reserve) balance"
      },
      "sell(uint256)": {
        "params": {
          "amount": "the amount of BIOP to sell"
        }
      },
      "updateBuyFee(uint256)": {
        "details": "set the fee users pay in ETH to buy BIOP from the bonding curve",
        "params": {
          "newFee_": "the new fee (in tenth percent) for buying on the curve"
        }
      },
      "updateSellFee(uint256)": {
        "details": "set the fee users pay in ETH to sell BIOP to the bonding curve",
        "params": {
          "newFee_": "the new fee (in tenth percent) for selling on the curve"
        }
      }
    }
  },
  "userdoc": {
    "methods": {
      "buy()": {
        "notice": "purchase BIOP from the bonding curve.  the amount you get is based on the amount in the pool and the amount of eth u send."
      },
      "sell(uint256)": {
        "notice": "sell BIOP to the bonding curve"
      }
    }
  }
}