{
  "contractName": "NativeAssetDenominatedBinaryOptions",
  "abi": [
    {
      "inputs": [
        {
          "internalType": "string",
          "name": "name_",
          "type": "string"
        },
        {
          "internalType": "string",
          "name": "symbol_",
          "type": "string"
        },
        {
          "internalType": "address",
          "name": "biop_",
          "type": "address"
        },
        {
          "internalType": "address",
          "name": "uR_",
          "type": "address"
        },
        {
          "internalType": "address",
          "name": "app_",
          "type": "address"
        }
      ],
      "stateMutability": "nonpayable",
      "type": "constructor"
    },
    {
      "anonymous": false,
      "inputs": [
        {
          "indexed": true,
          "internalType": "address",
          "name": "owner",
          "type": "address"
        },
        {
          "indexed": true,
          "internalType": "address",
          "name": "spender",
          "type": "address"
        },
        {
          "indexed": false,
          "internalType": "uint256",
          "name": "value",
          "type": "uint256"
        }
      ],
      "name": "Approval",
      "type": "event"
    },
    {
      "anonymous": false,
      "inputs": [
        {
          "indexed": true,
          "internalType": "uint256",
          "name": "id",
          "type": "uint256"
        },
        {
          "indexed": false,
          "internalType": "address payable",
          "name": "account",
          "type": "address"
        },
        {
          "indexed": false,
          "internalType": "int256",
          "name": "sP",
          "type": "int256"
        },
        {
          "indexed": false,
          "internalType": "uint256",
          "name": "lV",
          "type": "uint256"
        },
        {
          "indexed": false,
          "internalType": "bool",
          "name": "dir",
          "type": "bool"
        },
        {
          "indexed": false,
          "internalType": "uint80",
          "name": "pR",
          "type": "uint80"
        },
        {
          "indexed": false,
          "internalType": "uint80",
          "name": "exp",
          "type": "uint80"
        }
      ],
      "name": "Create",
      "type": "event"
    },
    {
      "anonymous": false,
      "inputs": [
        {
          "indexed": true,
          "internalType": "uint256",
          "name": "id",
          "type": "uint256"
        }
      ],
      "name": "Exercise",
      "type": "event"
    },
    {
      "anonymous": false,
      "inputs": [
        {
          "indexed": true,
          "internalType": "uint256",
          "name": "id",
          "type": "uint256"
        }
      ],
      "name": "Expire",
      "type": "event"
    },
    {
      "anonymous": false,
      "inputs": [
        {
          "indexed": false,
          "internalType": "uint256",
          "name": "poolLost",
          "type": "uint256"
        },
        {
          "indexed": false,
          "internalType": "address",
          "name": "winner",
          "type": "address"
        }
      ],
      "name": "Payout",
      "type": "event"
    },
    {
      "anonymous": false,
      "inputs": [
        {
          "indexed": true,
          "internalType": "address",
          "name": "from",
          "type": "address"
        },
        {
          "indexed": true,
          "internalType": "address",
          "name": "to",
          "type": "address"
        },
        {
          "indexed": false,
          "internalType": "uint256",
          "name": "value",
          "type": "uint256"
        }
      ],
      "name": "Transfer",
      "type": "event"
    },
    {
      "inputs": [
        {
          "internalType": "address",
          "name": "owner",
          "type": "address"
        },
        {
          "internalType": "address",
          "name": "spender",
          "type": "address"
        }
      ],
      "name": "allowance",
      "outputs": [
        {
          "internalType": "uint256",
          "name": "",
          "type": "uint256"
        }
      ],
      "stateMutability": "view",
      "type": "function",
      "constant": true
    },
    {
      "inputs": [],
      "name": "app",
      "outputs": [
        {
          "internalType": "address",
          "name": "",
          "type": "address"
        }
      ],
      "stateMutability": "view",
      "type": "function",
      "constant": true
    },
    {
      "inputs": [
        {
          "internalType": "address",
          "name": "spender",
          "type": "address"
        },
        {
          "internalType": "uint256",
          "name": "amount",
          "type": "uint256"
        }
      ],
      "name": "approve",
      "outputs": [
        {
          "internalType": "bool",
          "name": "",
          "type": "bool"
        }
      ],
      "stateMutability": "nonpayable",
      "type": "function"
    },
    {
      "inputs": [
        {
          "internalType": "address",
          "name": "account",
          "type": "address"
        }
      ],
      "name": "balanceOf",
      "outputs": [
        {
          "internalType": "uint256",
          "name": "",
          "type": "uint256"
        }
      ],
      "stateMutability": "view",
      "type": "function",
      "constant": true
    },
    {
      "inputs": [],
      "name": "biop",
      "outputs": [
        {
          "internalType": "address",
          "name": "",
          "type": "address"
        }
      ],
      "stateMutability": "view",
      "type": "function",
      "constant": true
    },
    {
      "inputs": [],
      "name": "contractCreated",
      "outputs": [
        {
          "internalType": "uint256",
          "name": "",
          "type": "uint256"
        }
      ],
      "stateMutability": "view",
      "type": "function",
      "constant": true
    },
    {
      "inputs": [],
      "name": "decimals",
      "outputs": [
        {
          "internalType": "uint8",
          "name": "",
          "type": "uint8"
        }
      ],
      "stateMutability": "view",
      "type": "function",
      "constant": true
    },
    {
      "inputs": [
        {
          "internalType": "address",
          "name": "spender",
          "type": "address"
        },
        {
          "internalType": "uint256",
          "name": "subtractedValue",
          "type": "uint256"
        }
      ],
      "name": "decreaseAllowance",
      "outputs": [
        {
          "internalType": "bool",
          "name": "",
          "type": "bool"
        }
      ],
      "stateMutability": "nonpayable",
      "type": "function"
    },
    {
      "inputs": [
        {
          "internalType": "address",
          "name": "",
          "type": "address"
        }
      ],
      "name": "iAL",
      "outputs": [
        {
          "internalType": "uint256",
          "name": "",
          "type": "uint256"
        }
      ],
      "stateMutability": "view",
      "type": "function",
      "constant": true
    },
    {
      "inputs": [
        {
          "internalType": "address",
          "name": "spender",
          "type": "address"
        },
        {
          "internalType": "uint256",
          "name": "addedValue",
          "type": "uint256"
        }
      ],
      "name": "increaseAllowance",
      "outputs": [
        {
          "internalType": "bool",
          "name": "",
          "type": "bool"
        }
      ],
      "stateMutability": "nonpayable",
      "type": "function"
    },
    {
      "inputs": [
        {
          "internalType": "address",
          "name": "",
          "type": "address"
        }
      ],
      "name": "lST",
      "outputs": [
        {
          "internalType": "uint256",
          "name": "",
          "type": "uint256"
        }
      ],
      "stateMutability": "view",
      "type": "function",
      "constant": true
    },
    {
      "inputs": [
        {
          "internalType": "address",
          "name": "",
          "type": "address"
        }
      ],
      "name": "lW",
      "outputs": [
        {
          "internalType": "uint256",
          "name": "",
          "type": "uint256"
        }
      ],
      "stateMutability": "view",
      "type": "function",
      "constant": true
    },
    {
      "inputs": [],
      "name": "lockedAmount",
      "outputs": [
        {
          "internalType": "uint256",
          "name": "",
          "type": "uint256"
        }
      ],
      "stateMutability": "view",
      "type": "function",
      "constant": true
    },
    {
      "inputs": [],
      "name": "maxT",
      "outputs": [
        {
          "internalType": "uint256",
          "name": "",
          "type": "uint256"
        }
      ],
      "stateMutability": "view",
      "type": "function",
      "constant": true
    },
    {
      "inputs": [],
      "name": "minT",
      "outputs": [
        {
          "internalType": "uint256",
          "name": "",
          "type": "uint256"
        }
      ],
      "stateMutability": "view",
      "type": "function",
      "constant": true
    },
    {
      "inputs": [
        {
          "internalType": "address",
          "name": "",
          "type": "address"
        }
      ],
      "name": "nW",
      "outputs": [
        {
          "internalType": "uint256",
          "name": "",
          "type": "uint256"
        }
      ],
      "stateMutability": "view",
      "type": "function",
      "constant": true
    },
    {
      "inputs": [],
      "name": "name",
      "outputs": [
        {
          "internalType": "string",
          "name": "",
          "type": "string"
        }
      ],
      "stateMutability": "view",
      "type": "function",
      "constant": true
    },
    {
      "inputs": [],
      "name": "oC",
      "outputs": [
        {
          "internalType": "uint256",
          "name": "",
          "type": "uint256"
        }
      ],
      "stateMutability": "view",
      "type": "function",
      "constant": true
    },
    {
      "inputs": [],
      "name": "oP",
      "outputs": [
        {
          "internalType": "uint256",
          "name": "",
          "type": "uint256"
        }
      ],
      "stateMutability": "view",
      "type": "function",
      "constant": true
    },
    {
      "inputs": [],
      "name": "open",
      "outputs": [
        {
          "internalType": "bool",
          "name": "",
          "type": "bool"
        }
      ],
      "stateMutability": "view",
      "type": "function",
      "constant": true
    },
    {
      "inputs": [
        {
          "internalType": "uint256",
          "name": "",
          "type": "uint256"
        }
      ],
      "name": "options",
      "outputs": [
        {
          "internalType": "address payable",
          "name": "holder",
          "type": "address"
        },
        {
          "internalType": "int256",
          "name": "sP",
          "type": "int256"
        },
        {
          "internalType": "uint80",
          "name": "pR",
          "type": "uint80"
        },
        {
          "internalType": "uint256",
          "name": "pV",
          "type": "uint256"
        },
        {
          "internalType": "uint256",
          "name": "lV",
          "type": "uint256"
        },
        {
          "internalType": "uint80",
          "name": "exp",
          "type": "uint80"
        },
        {
          "internalType": "bool",
          "name": "dir",
          "type": "bool"
        },
        {
          "internalType": "address",
          "name": "pP",
          "type": "address"
        },
        {
          "internalType": "address",
          "name": "aPA",
          "type": "address"
        }
      ],
      "stateMutability": "view",
      "type": "function",
      "constant": true
    },
    {
      "inputs": [],
      "name": "owner",
      "outputs": [
        {
          "internalType": "address payable",
          "name": "",
          "type": "address"
        }
      ],
      "stateMutability": "view",
      "type": "function",
      "constant": true
    },
    {
      "inputs": [],
      "name": "poolLockSeconds",
      "outputs": [
        {
          "internalType": "uint256",
          "name": "",
          "type": "uint256"
        }
      ],
      "stateMutability": "view",
      "type": "function",
      "constant": true
    },
    {
      "inputs": [],
      "name": "protocolFee",
      "outputs": [
        {
          "internalType": "uint256",
          "name": "",
          "type": "uint256"
        }
      ],
      "stateMutability": "view",
      "type": "function",
      "constant": true
    },
    {
      "inputs": [],
      "name": "rewEn",
      "outputs": [
        {
          "internalType": "bool",
          "name": "",
          "type": "bool"
        }
      ],
      "stateMutability": "view",
      "type": "function",
      "constant": true
    },
    {
      "inputs": [],
      "name": "rwd",
      "outputs": [
        {
          "internalType": "uint256",
          "name": "",
          "type": "uint256"
        }
      ],
      "stateMutability": "view",
      "type": "function",
      "constant": true
    },
    {
      "inputs": [],
      "name": "settlerFee",
      "outputs": [
        {
          "internalType": "uint256",
          "name": "",
          "type": "uint256"
        }
      ],
      "stateMutability": "view",
      "type": "function",
      "constant": true
    },
    {
      "inputs": [],
      "name": "symbol",
      "outputs": [
        {
          "internalType": "string",
          "name": "",
          "type": "string"
        }
      ],
      "stateMutability": "view",
      "type": "function",
      "constant": true
    },
    {
      "inputs": [],
      "name": "tI",
      "outputs": [
        {
          "internalType": "uint256",
          "name": "",
          "type": "uint256"
        }
      ],
      "stateMutability": "view",
      "type": "function",
      "constant": true
    },
    {
      "inputs": [],
      "name": "totalSupply",
      "outputs": [
        {
          "internalType": "uint256",
          "name": "",
          "type": "uint256"
        }
      ],
      "stateMutability": "view",
      "type": "function",
      "constant": true
    },
    {
      "inputs": [
        {
          "internalType": "address",
          "name": "recipient",
          "type": "address"
        },
        {
          "internalType": "uint256",
          "name": "amount",
          "type": "uint256"
        }
      ],
      "name": "transfer",
      "outputs": [
        {
          "internalType": "bool",
          "name": "",
          "type": "bool"
        }
      ],
      "stateMutability": "nonpayable",
      "type": "function"
    },
    {
      "inputs": [
        {
          "internalType": "address",
          "name": "sender",
          "type": "address"
        },
        {
          "internalType": "address",
          "name": "recipient",
          "type": "address"
        },
        {
          "internalType": "uint256",
          "name": "amount",
          "type": "uint256"
        }
      ],
      "name": "transferFrom",
      "outputs": [
        {
          "internalType": "bool",
          "name": "",
          "type": "bool"
        }
      ],
      "stateMutability": "nonpayable",
      "type": "function"
    },
    {
      "inputs": [],
      "name": "treasury",
      "outputs": [
        {
          "internalType": "address payable",
          "name": "",
          "type": "address"
        }
      ],
      "stateMutability": "view",
      "type": "function",
      "constant": true
    },
    {
      "inputs": [],
      "name": "uR",
      "outputs": [
        {
          "internalType": "address",
          "name": "",
          "type": "address"
        }
      ],
      "stateMutability": "view",
      "type": "function",
      "constant": true
    },
    {
      "inputs": [],
      "name": "getMaxAvailable",
      "outputs": [
        {
          "internalType": "uint256",
          "name": "",
          "type": "uint256"
        }
      ],
      "stateMutability": "view",
      "type": "function",
      "constant": true
    },
    {
      "inputs": [],
      "name": "getOptionCount",
      "outputs": [
        {
          "internalType": "uint256",
          "name": "",
          "type": "uint256"
        }
      ],
      "stateMutability": "view",
      "type": "function",
      "constant": true
    },
    {
      "inputs": [
        {
          "internalType": "uint256",
          "name": "amount",
          "type": "uint256"
        },
        {
          "internalType": "bool",
          "name": "completion",
          "type": "bool"
        }
      ],
      "name": "getTradeExerciseBonus",
      "outputs": [
        {
          "internalType": "uint256",
          "name": "",
          "type": "uint256"
        }
      ],
      "stateMutability": "view",
      "type": "function",
      "constant": true
    },
    {
      "inputs": [
        {
          "internalType": "uint256",
          "name": "amount",
          "type": "uint256"
        },
        {
          "internalType": "uint256",
          "name": "stack",
          "type": "uint256"
        }
      ],
      "name": "getCompleteBonus",
      "outputs": [
        {
          "internalType": "uint256",
          "name": "",
          "type": "uint256"
        }
      ],
      "stateMutability": "view",
      "type": "function",
      "constant": true
    },
    {
      "inputs": [
        {
          "internalType": "address",
          "name": "account",
          "type": "address"
        }
      ],
      "name": "getPendingClaims",
      "outputs": [
        {
          "internalType": "uint256",
          "name": "",
          "type": "uint256"
        }
      ],
      "stateMutability": "view",
      "type": "function",
      "constant": true
    },
    {
      "inputs": [],
      "name": "claimRewards",
      "outputs": [],
      "stateMutability": "nonpayable",
      "type": "function"
    },
    {
      "inputs": [],
      "name": "thisAddress",
      "outputs": [
        {
          "internalType": "address",
          "name": "",
          "type": "address"
        }
      ],
      "stateMutability": "view",
      "type": "function",
      "constant": true
    },
    {
      "inputs": [
        {
          "internalType": "address",
          "name": "newUR",
          "type": "address"
        }
      ],
      "name": "updateUtilizationRewards",
      "outputs": [],
      "stateMutability": "nonpayable",
      "type": "function"
    },
    {
      "inputs": [
        {
          "internalType": "address",
          "name": "newAPP",
          "type": "address"
        }
      ],
      "name": "updateAPP",
      "outputs": [],
      "stateMutability": "nonpayable",
      "type": "function"
    },
    {
      "inputs": [
        {
          "internalType": "bool",
          "name": "nx_",
          "type": "bool"
        }
      ],
      "name": "enableRewards",
      "outputs": [],
      "stateMutability": "nonpayable",
      "type": "function"
    },
    {
      "inputs": [
        {
          "internalType": "uint256",
          "name": "newMax_",
          "type": "uint256"
        }
      ],
      "name": "setMaxT",
      "outputs": [],
      "stateMutability": "nonpayable",
      "type": "function"
    },
    {
      "inputs": [
        {
          "internalType": "uint256",
          "name": "newMin_",
          "type": "uint256"
        }
      ],
      "name": "setMinT",
      "outputs": [],
      "stateMutability": "nonpayable",
      "type": "function"
    },
    {
      "inputs": [
        {
          "internalType": "uint256",
          "name": "fee_",
          "type": "uint256"
        }
      ],
      "name": "updateSettlerFee",
      "outputs": [],
      "stateMutability": "nonpayable",
      "type": "function"
    },
    {
      "inputs": [
        {
          "internalType": "uint256",
          "name": "newProtocolFee_",
          "type": "uint256"
        }
      ],
      "name": "updateProtocolFee",
      "outputs": [],
      "stateMutability": "nonpayable",
      "type": "function"
    },
    {
      "inputs": [
        {
          "internalType": "uint256",
          "name": "newLockSeconds_",
          "type": "uint256"
        }
      ],
      "name": "updatePoolLockSeconds",
      "outputs": [],
      "stateMutability": "nonpayable",
      "type": "function"
    },
    {
      "inputs": [
        {
          "internalType": "address payable",
          "name": "newOwner_",
          "type": "address"
        }
      ],
      "name": "transferOwner",
      "outputs": [],
      "stateMutability": "nonpayable",
      "type": "function"
    },
    {
      "inputs": [
        {
          "internalType": "address payable",
          "name": "newTreasury_",
          "type": "address"
        }
      ],
      "name": "transferDevFund",
      "outputs": [],
      "stateMutability": "nonpayable",
      "type": "function"
    },
    {
      "inputs": [],
      "name": "closeStaking",
      "outputs": [],
      "stateMutability": "nonpayable",
      "type": "function"
    },
    {
      "inputs": [],
      "name": "stake",
      "outputs": [],
      "stateMutability": "payable",
      "type": "function",
      "payable": true
    },
    {
      "inputs": [
        {
          "internalType": "uint256",
          "name": "amount",
          "type": "uint256"
        }
      ],
      "name": "withdraw",
      "outputs": [],
      "stateMutability": "nonpayable",
      "type": "function"
    },
    {
      "inputs": [
        {
          "internalType": "address",
          "name": "pair",
          "type": "address"
        },
        {
          "internalType": "uint256",
          "name": "deposit",
          "type": "uint256"
        },
        {
          "internalType": "uint256",
          "name": "t",
          "type": "uint256"
        },
        {
          "internalType": "bool",
          "name": "k",
          "type": "bool"
        }
      ],
      "name": "getRate",
      "outputs": [
        {
          "internalType": "uint256",
          "name": "",
          "type": "uint256"
        }
      ],
      "stateMutability": "view",
      "type": "function",
      "constant": true
    },
    {
      "inputs": [
        {
          "internalType": "bool",
          "name": "k_",
          "type": "bool"
        },
        {
          "internalType": "address",
          "name": "pp_",
          "type": "address"
        },
        {
          "internalType": "uint80",
          "name": "t_",
          "type": "uint80"
        }
      ],
      "name": "openPosition",
      "outputs": [],
      "stateMutability": "payable",
      "type": "function",
      "payable": true
    },
    {
      "inputs": [
        {
          "internalType": "uint256",
          "name": "oID",
          "type": "uint256"
        }
      ],
      "name": "complete",
      "outputs": [],
      "stateMutability": "nonpayable",
      "type": "function"
    }
  ],
  "bytecode": "0x60806040526000600f8190556010819055600560145560646015556212750060165560188054600160ff199182168117909255601a9290925566470de4df820000601b55601c80549092161790553480156200005a57600080fd5b506040516200372638038062003726833981810160405260a08110156200008057600080fd5b8101908080516040519392919084640100000000821115620000a157600080fd5b908301906020820185811115620000b757600080fd5b8251640100000000811182820188101715620000d257600080fd5b82525081516020918201929091019080838360005b8381101562000101578181015183820152602001620000e7565b50505050905090810190601f1680156200012f5780820380516001836020036101000a031916815260200191505b50604052602001805160405193929190846401000000008211156200015357600080fd5b9083019060208201858111156200016957600080fd5b82516401000000008111828201881017156200018457600080fd5b82525081516020918201929091019080838360005b83811015620001b357818101518382015260200162000199565b50505050905090810190601f168015620001e15780820380516001836020036101000a031916815260200191505b506040908152602082810151918301516060909301518751929550929350869186916200021491600391850190620002b7565b5080516200022a906004906020840190620002b7565b505060058054336101008102610100600160a81b031960ff1990931660129081179390931617909255600680546001600160a01b03199081169093179055600880546001600160a01b0397881690841617905560006013554260175560016011556003905560078054948616948216949094179093555060098054919093169116179055506200035c9050565b828054600181600116156101000203166002900490600052602060002090601f016020900481019282601f10620002fa57805160ff19168380011785556200032a565b828001600101855582156200032a579182015b828111156200032a5782518255916020019190600101906200030d565b50620003389291506200033c565b5090565b6200035991905b8082111562000338576000815560010162000343565b90565b6133ba806200036c6000396000f3fe6080604052600436106103765760003560e01c80636a92cf8b116101d1578063a6bd542711610102578063d4dca69b116100a0578063e4ae17001161006f578063e4ae170014610c06578063e56e03cc14610c36578063f200fb2014610c69578063fcfff16f14610c9c57610376565b8063d4dca69b14610b8c578063db05c54714610ba1578063dd62ed3e14610bb6578063e4523ef914610bf157610376565b8063b76564bd116100dc578063b76564bd14610b1b578063bac2e6db14610b30578063c0fb034714610b45578063c897239114610b7757610376565b8063a6bd542714610ab8578063a9059cbb14610acd578063b0e21e8a14610b0657610376565b806395d89b411161016f57806399f914051161014957806399f91405146109f65780639b1559c314610a295780639f19904c14610a55578063a457c2d714610a7f57610376565b806395d89b41146109a2578063971d852f146109b757806398cfe587146109e157610376565b806370a08231116101ab57806370a082311461091257806383880e51146109455780638a300e681461095a5780638da5cb5b1461098d57610376565b80636a92cf8b146108835780636ab28bc8146108b65780636ab7d6d0146108cb57610376565b8063313ce567116102ab5780634e9e3252116102495780635009a613116102235780635009a6131461081a578063602d86081461084457806361d027b31461085957806363691eaa1461086e57610376565b80634e9e3252146107bd5780634fb2e45d146107d25780634fce9c841461080557610376565b8063395093511161028557806339509351146106c25780633a4b66f1146106fb578063409e2205146107035780634256dd781461079357610376565b8063313ce56714610658578063372500ab1461068357806337637f451461069857610376565b80631a30433a116103185780631d983e23116102f25780631d983e23146105ac57806323b872dd146105d65780632e1a7d4d146106195780632f67e3591461064357610376565b80631a30433a146105295780631a8972d3146105665780631c94c4291461057b57610376565b8063108e184d11610354578063108e184d1461048757806318126dce146104cc57806318160ddd146104e157806319174be6146104f657610376565b806306fdde031461037b57806307e665df14610405578063095ea7b31461043a575b600080fd5b34801561038757600080fd5b50610390610cb1565b6040805160208082528351818301528351919283929083019185019080838360005b838110156103ca5781810151838201526020016103b2565b50505050905090810190601f1680156103f75780820380516001836020036101000a031916815260200191505b509250505060405180910390f35b34801561041157600080fd5b506104386004803603602081101561042857600080fd5b50356001600160a01b0316610d48565b005b34801561044657600080fd5b506104736004803603604081101561045d57600080fd5b506001600160a01b038135169060200135610db7565b604080519115158252519081900360200190f35b34801561049357600080fd5b506104ba600480360360208110156104aa57600080fd5b50356001600160a01b0316610dd5565b60408051918252519081900360200190f35b3480156104d857600080fd5b506104ba610de7565b3480156104ed57600080fd5b506104ba610ded565b34801561050257600080fd5b506104ba6004803603602081101561051957600080fd5b50356001600160a01b0316610df3565b6104386004803603606081101561053f57600080fd5b50803515159060208101356001600160a01b031690604001356001600160501b0316610e05565b34801561057257600080fd5b506104ba6112e6565b34801561058757600080fd5b506105906112ec565b604080516001600160a01b039092168252519081900360200190f35b3480156105b857600080fd5b50610438600480360360208110156105cf57600080fd5b50356112fb565b3480156105e257600080fd5b50610473600480360360608110156105f957600080fd5b506001600160a01b0381358116916020810135909116906040013561134d565b34801561062557600080fd5b506104386004803603602081101561063c57600080fd5b50356113da565b34801561064f57600080fd5b506104ba611602565b34801561066457600080fd5b5061066d611608565b6040805160ff9092168252519081900360200190f35b34801561068f57600080fd5b50610438611611565b3480156106a457600080fd5b50610438600480360360208110156106bb57600080fd5b50356116ad565b3480156106ce57600080fd5b50610473600480360360408110156106e557600080fd5b506001600160a01b0381351690602001356116ff565b610438611753565b34801561070f57600080fd5b5061072d6004803603602081101561072657600080fd5b5035611861565b604080516001600160a01b039a8b16815260208101999099526001600160501b0397881689820152606089019690965260808801949094529190941660a086015292151560c085015291841660e084015292166101008201529051908190036101200190f35b34801561079f57600080fd5b50610438600480360360208110156107b657600080fd5b50356118db565b3480156107c957600080fd5b506104ba611979565b3480156107de57600080fd5b50610438600480360360208110156107f557600080fd5b50356001600160a01b031661197f565b34801561081157600080fd5b506104ba6119ee565b34801561082657600080fd5b506104386004803603602081101561083d57600080fd5b50356119f4565b34801561085057600080fd5b506104ba611a9d565b34801561086557600080fd5b50610590611aa3565b34801561087a57600080fd5b506104ba611ab7565b34801561088f57600080fd5b50610438600480360360208110156108a657600080fd5b50356001600160a01b0316611abd565b3480156108c257600080fd5b506104ba611b2c565b3480156108d757600080fd5b506104ba600480360360808110156108ee57600080fd5b506001600160a01b0381351690602081013590604081013590606001351515611b32565b34801561091e57600080fd5b506104ba6004803603602081101561093557600080fd5b50356001600160a01b0316611d8f565b34801561095157600080fd5b50610473611dae565b34801561096657600080fd5b506104ba6004803603602081101561097d57600080fd5b50356001600160a01b0316611db7565b34801561099957600080fd5b50610590611dc9565b3480156109ae57600080fd5b50610390611dd8565b3480156109c357600080fd5b50610438600480360360208110156109da57600080fd5b5035611e39565b3480156109ed57600080fd5b50610438612084565b348015610a0257600080fd5b506104ba60048036036020811015610a1957600080fd5b50356001600160a01b03166120e5565b348015610a3557600080fd5b5061043860048036036020811015610a4c57600080fd5b50351515612217565b348015610a6157600080fd5b5061043860048036036020811015610a7857600080fd5b5035612277565b348015610a8b57600080fd5b5061047360048036036040811015610aa257600080fd5b506001600160a01b038135169060200135612318565b348015610ac457600080fd5b506104ba612386565b348015610ad957600080fd5b5061047360048036036040811015610af057600080fd5b506001600160a01b03813516906020013561238c565b348015610b1257600080fd5b506104ba6123a0565b348015610b2757600080fd5b506105906123a6565b348015610b3c57600080fd5b506104ba6123b5565b348015610b5157600080fd5b506104ba60048036036040811015610b6857600080fd5b508035906020013515156123ea565b348015610b8357600080fd5b506104ba61247b565b348015610b9857600080fd5b50610590612481565b348015610bad57600080fd5b506104ba612485565b348015610bc257600080fd5b506104ba60048036036040811015610bd957600080fd5b506001600160a01b038135811691602001351661248b565b348015610bfd57600080fd5b506105906124b6565b348015610c1257600080fd5b506104ba60048036036040811015610c2957600080fd5b50803590602001356124c5565b348015610c4257600080fd5b506104ba60048036036020811015610c5957600080fd5b50356001600160a01b0316612521565b348015610c7557600080fd5b5061043860048036036020811015610c8c57600080fd5b50356001600160a01b0316612533565b348015610ca857600080fd5b506104736125a8565b60038054604080516020601f6002600019610100600188161502019095169490940493840181900481028201810190925282815260609390929091830182828015610d3d5780601f10610d1257610100808354040283529160200191610d3d565b820191906000526020600020905b815481529060010190602001808311610d2057829003601f168201915b505050505090505b90565b6006546001600160a01b03163314610d95576040805162461bcd60e51b815260206004820181905260248201526000805160206132d6833981519152604482015290519081900360640190fd5b600980546001600160a01b0319166001600160a01b0392909216919091179055565b6000610dcb610dc46125b1565b84846125b5565b5060015b92915050565b600e6020526000908152604090205481565b60125481565b60025490565b600d6020526000908152604090205481565b601154816001600160501b031610158015610e2b5750601254816001600160501b031611155b610e6b576040805162461bcd60e51b815260206004820152600c60248201526b496e76616c69642074696d6560a01b604482015290519081900360640190fd5b6009546040805163b7a9eaa960e01b81526001600160a01b03858116600483015291519190921691829163b7a9eaa991602480820192602092909190829003018186803b158015610ebb57600080fd5b505afa158015610ecf573d6000803e3d6000fd5b505050506040513d6020811015610ee557600080fd5b50516001600160a01b0316610f41576040805162461bcd60e51b815260206004820152601760248201527f496e76616c6964202070726963652070726f7669646572000000000000000000604482015290519081900360640190fd5b6000839050600080826001600160a01b031663feaf968c6040518163ffffffff1660e01b815260040160a06040518083038186803b158015610f8257600080fd5b505afa158015610f96573d6000803e3d6000fd5b505050506040513d60a0811015610fac57600080fd5b5080516020909101516019549193509150610fc56123b5565b341115611012576040805162461bcd60e51b81526020600482015260166024820152756f7074696f6e2076616c756520746f6f206c6172676560501b604482015290519081900360640190fd5b60006110298834896001600160501b03168c611b32565b601c5490915060ff1615611072576110616110453460006123ea565b336000908152600c60205260409020549063ffffffff6126a116565b336000908152600c60205260409020555b61107b81612702565b61108361315e565b604051806101200160405280336001600160a01b03168152602001858152602001866001600160501b03168152602001348152602001838152602001896001600160501b031681526020018b151581526020018a6001600160a01b03168152602001306001600160a01b03168152509050601981908060018154018082558091505060019003906000526020600020906007020160009091909190915060008201518160000160006101000a8154816001600160a01b0302191690836001600160a01b031602179055506020820151816001015560408201518160020160006101000a8154816001600160501b0302191690836001600160501b03160217905550606082015181600301556080820151816004015560a08201518160050160006101000a8154816001600160501b0302191690836001600160501b0316021790555060c082015181600501600a6101000a81548160ff02191690831515021790555060e082015181600501600b6101000a8154816001600160a01b0302191690836001600160a01b031602179055506101008201518160060160006101000a8154816001600160a01b0302191690836001600160a01b03160217905550505061125782601a546126a190919063ffffffff16565b601a55891561126e57600f80546001019055611278565b6010805460010190555b60408051338152602081018690528082018490528b151560608201526001600160501b0380881660808301528a1660a0820152905184917fcd8984b7ffc01146a9ba9096d805b0bec246d7f8e52837a7b5f404464f6b229b919081900360c00190a250505050505050505050565b601b5481565b6007546001600160a01b031681565b6006546001600160a01b03163314611348576040805162461bcd60e51b815260206004820181905260248201526000805160206132d6833981519152604482015290519081900360640190fd5b601255565b600061135a84848461271b565b6113d0846113666125b1565b6113cb856040518060600160405280602881526020016132ae602891396001600160a01b038a166000908152600160205260408120906113a46125b1565b6001600160a01b03168152602081019190915260400160002054919063ffffffff61288216565b6125b5565b5060019392505050565b806113e433611d8f565b1015611437576040805162461bcd60e51b815260206004820152601960248201527f496e737566666963656e742053686172652042616c616e636500000000000000604482015290519081900360640190fd5b336000908152600b60205260408120429055601354611484906114689061145c610ded565b9063ffffffff61291916565b611478844763ffffffff61295b16565b9063ffffffff6129b416565b905061149033836129f6565b336000908152600a6020526040902054421161159f5760006114b982606463ffffffff6129b416565b60055460405191925061010090046001600160a01b0316906108fc8315029083906000818181858888f1935050505061152b576040805162461bcd60e51b815260206004820152600f60248201526e1d1c985b9cd9995c8819985a5b1959608a1b604482015290519081900360640190fd5b336108fc61153f848463ffffffff61291916565b6040518115909202916000818181858888f19350505050611599576040805162461bcd60e51b815260206004820152600f60248201526e1d1c985b9cd9995c8819985a5b1959608a1b604482015290519081900360640190fd5b506115fe565b604051339082156108fc029083906000818181858888f193505050506115fe576040805162461bcd60e51b815260206004820152600f60248201526e1d1c985b9cd9995c8819985a5b1959608a1b604482015290519081900360640190fd5b5050565b60105481565b60055460ff1690565b600061161c336120e5565b9050600161162933611d8f565b1061163657611636612afe565b336000908152600c602052604080822082905560075481516303d7ea0160e01b81526004810185905291516001600160a01b039091169283926303d7ea01926024808301939282900301818387803b15801561169157600080fd5b505af11580156116a5573d6000803e3d6000fd5b505050505050565b6006546001600160a01b031633146116fa576040805162461bcd60e51b815260206004820181905260248201526000805160206132d6833981519152604482015290519081900360640190fd5b601155565b6000610dcb61170c6125b1565b846113cb856001600061171d6125b1565b6001600160a01b03908116825260208083019390935260409182016000908120918c16815292529020549063ffffffff6126a116565b60185460ff1615156001146117a5576040805162461bcd60e51b81526020600482015260136024820152721c1bdbdb0819195c1bdcda5d0818db1bdcd959606a1b604482015290519081900360640190fd5b60643410156117ec576040805162461bcd60e51b815260206004820152600e60248201526d1cdd185ad9481d1bc81cdb585b1b60921b604482015290519081900360640190fd5b6117f533611d8f565b61183457336000908152600b60205260409020429055601b546118239061104590600263ffffffff61295b16565b336000908152600c60205260409020555b61183c612afe565b601654336000818152600a602052604090204290920190915561185f9034612b21565b565b6019818154811061186e57fe5b600091825260209091206007909102018054600182015460028301546003840154600485015460058601546006909601546001600160a01b03958616975093956001600160501b03938416959294919381169260ff600160501b83041692600160581b9092048116911689565b6006546001600160a01b03163314611928576040805162461bcd60e51b815260206004820181905260248201526000805160206132d6833981519152604482015290519081900360640190fd5b8015806119355750603281115b611974576040805162461bcd60e51b815260206004820152600b60248201526a696e76616c69642066656560a81b604482015290519081900360640190fd5b601555565b60145481565b6006546001600160a01b031633146119cc576040805162461bcd60e51b815260206004820181905260248201526000805160206132d6833981519152604482015290519081900360640190fd5b600680546001600160a01b0319166001600160a01b0392909216919091179055565b60175481565b6006546001600160a01b03163314611a41576040805162461bcd60e51b815260206004820181905260248201526000805160206132d6833981519152604482015290519081900360640190fd5b621275008110611a98576040805162461bcd60e51b815260206004820152601860248201527f696e76616c696420706f6f6c206c6f636b20706572696f640000000000000000604482015290519081900360640190fd5b601655565b60165481565b60055461010090046001600160a01b031681565b600f5481565b6006546001600160a01b03163314611b0a576040805162461bcd60e51b815260206004820181905260248201526000805160206132d6833981519152604482015290519081900360640190fd5b600780546001600160a01b0319166001600160a01b0392909216919091179055565b60135481565b6009546040805163b7a9eaa960e01b81526001600160a01b03878116600483015291516000939290921691829163b7a9eaa9916024808301926020929190829003018186803b158015611b8457600080fd5b505afa158015611b98573d6000803e3d6000fd5b505050506040513d6020811015611bae57600080fd5b50516001600160a01b0316611c01576040805162461bcd60e51b815260206004820152601460248201527334b73b30b634b2103a3930b234b733903830b4b960611b604482015290519081900360640190fd5b6000816001600160a01b031663b7a9eaa9886040518263ffffffff1660e01b815260040180826001600160a01b03166001600160a01b0316815260200191505060206040518083038186803b158015611c5957600080fd5b505afa158015611c6d573d6000803e3d6000fd5b505050506040513d6020811015611c8357600080fd5b5051905060008415611cbf57600f5460105410611ca257506001611cba565b601054600f54611cb79163ffffffff61291916565b90505b611cea565b601054600f5410611cd257506001611cea565b600f54601054611ce79163ffffffff61291916565b90505b60135460408051630752a28960e31b8152600481018a90526024810192909252604482018890528615156064830152608482018390524760a4830152516001600160a01b03841691633a9514489160c4808301926020929190829003018186803b158015611d5757600080fd5b505afa158015611d6b573d6000803e3d6000fd5b505050506040513d6020811015611d8157600080fd5b505198975050505050505050565b6001600160a01b0381166000908152602081905260409020545b919050565b601c5460ff1681565b600a6020526000908152604090205481565b6006546001600160a01b031681565b60048054604080516020601f6002600019610100600188161502019095169490940493840181900481028201810190925282815260609390929091830182828015610d3d5780601f10610d1257610100808354040283529160200191610d3d565b611e4161315e565b60198281548110611e4e57fe5b600091825260208083206040805161012081018252600790940290910180546001600160a01b03908116855260018201549385019390935260028101546001600160501b03908116858401819052600383015460608701526004808401546080880152600584015480841660a0808a0182905260ff600160501b840416151560c08b0152600160581b909204881660e08a018190526006909601549097166101008901528551639a6fc8f560e01b815296909201909216918501919091529151939550939283928592639a6fc8f592602480840193829003018186803b158015611f3757600080fd5b505afa158015611f4b573d6000803e3d6000fd5b505050506040513d60a0811015611f6157600080fd5b50805160209091015190925090508015801590611f8657506001600160501b03821615155b611fc7576040805162461bcd60e51b815260206004820152600d60248201526c1b9bdd081c9958591e481e595d609a1b604482015290519081900360640190fd5b6000611fe0601054600f546126a190919063ffffffff16565b90508460c0015115612020578185602001511315612007576120028587612c1d565b612011565b6120118587612c74565b600f8054600019019055612050565b846020015182131561203b576120368587612c1d565b612045565b6120458587612c74565b601080546000190190555b601c5460ff16156116a55761206c6110458660800151836124c5565b336000908152600c6020526040902055505050505050565b6006546001600160a01b031633146120d1576040805162461bcd60e51b815260206004820181905260248201526000805160206132d6833981519152604482015290519081900360640190fd5b6018805460ff19811660ff90911615179055565b6007546000906001600160a01b031660016120ff84611d8f565b11156121f7576001600160a01b038381166000908152600e6020908152604080832054600d90925290912054601a546121ef93851692635793148492909161214689611d8f565b61214e610ded565b6040518663ffffffff1660e01b8152600401808681526020018581526020018481526020018381526020018281526020019550505050505060206040518083038186803b15801561219e57600080fd5b505afa1580156121b2573d6000803e3d6000fd5b505050506040513d60208110156121c857600080fd5b50516001600160a01b0385166000908152600c60205260409020549063ffffffff6126a116565b915050611da9565b50506001600160a01b0381166000908152600c6020526040902054611da9565b6006546001600160a01b03163314612264576040805162461bcd60e51b815260206004820181905260248201526000805160206132d6833981519152604482015290519081900360640190fd5b601c805460ff1916911515919091179055565b6006546001600160a01b031633146122c4576040805162461bcd60e51b815260206004820181905260248201526000805160206132d6833981519152604482015290519081900360640190fd5b6001811180156122d45750606481105b612313576040805162461bcd60e51b815260206004820152600b60248201526a696e76616c69642066656560a81b604482015290519081900360640190fd5b601455565b6000610dcb6123256125b1565b846113cb85604051806060016040528060258152602001613360602591396001600061234f6125b1565b6001600160a01b03908116825260208083019390935260409182016000908120918d1681529252902054919063ffffffff61288216565b60195490565b6000610dcb6123996125b1565b848461271b565b60155481565b6009546001600160a01b031681565b60135460009047908111156123e0576013546123d890829063ffffffff61291916565b915050610d45565b6000915050610d45565b6007546040805163076a375160e51b815260048101859052476024820152831515604482015290516000926001600160a01b031691829163ed46ea2091606480820192602092909190829003018186803b15801561244757600080fd5b505afa15801561245b573d6000803e3d6000fd5b505050506040513d602081101561247157600080fd5b5051949350505050565b60115481565b3090565b601a5481565b6001600160a01b03918216600090815260016020908152604080832093909416825291909152205490565b6008546001600160a01b031681565b60075460408051635856504f60e11b8152600481018590524760248201526044810184905290516000926001600160a01b031691829163b0aca09e91606480820192602092909190829003018186803b15801561244757600080fd5b600b6020526000908152604090205481565b6006546001600160a01b03163314612580576040805162461bcd60e51b815260206004820181905260248201526000805160206132d6833981519152604482015290519081900360640190fd5b600580546001600160a01b0390921661010002610100600160a81b0319909216919091179055565b60185460ff1681565b3390565b6001600160a01b0383166125fa5760405162461bcd60e51b815260040180806020018281038252602481526020018061333c6024913960400191505060405180910390fd5b6001600160a01b03821661263f5760405162461bcd60e51b81526004018080602001828103825260228152602001806131f06022913960400191505060405180910390fd5b6001600160a01b03808416600081815260016020908152604080832094871680845294825291829020859055815185815291517f8c5be1e5ebec7d5bd14f71427d1e84f3dd0314c0f7b2291e5b200ac8c7c3b9259281900390910190a3505050565b6000828201838110156126fb576040805162461bcd60e51b815260206004820152601b60248201527f536166654d6174683a206164646974696f6e206f766572666c6f770000000000604482015290519081900360640190fd5b9392505050565b601354612715908263ffffffff6126a116565b60135550565b6001600160a01b0383166127605760405162461bcd60e51b81526004018080602001828103825260258152602001806133176025913960400191505060405180910390fd5b6001600160a01b0382166127a55760405162461bcd60e51b81526004018080602001828103825260238152602001806131ab6023913960400191505060405180910390fd5b6127b0838383612d95565b6127f381604051806060016040528060268152602001613212602691396001600160a01b038616600090815260208190526040902054919063ffffffff61288216565b6001600160a01b038085166000908152602081905260408082209390935590841681522054612828908263ffffffff6126a116565b6001600160a01b038084166000818152602081815260409182902094909455805185815290519193928716927fddf252ad1be2c89b69c2b068fc378daa952ba7f163c4a11628f55a4df523b3ef92918290030190a3505050565b600081848411156129115760405162461bcd60e51b81526004018080602001828103825283818151815260200191508051906020019080838360005b838110156128d65781810151838201526020016128be565b50505050905090810190601f1680156129035780820380516001836020036101000a031916815260200191505b509250505060405180910390fd5b505050900390565b60006126fb83836040518060400160405280601e81526020017f536166654d6174683a207375627472616374696f6e206f766572666c6f770000815250612882565b60008261296a57506000610dcf565b8282028284828161297757fe5b04146126fb5760405162461bcd60e51b815260040180806020018281038252602181526020018061328d6021913960400191505060405180910390fd5b60006126fb83836040518060400160405280601a81526020017f536166654d6174683a206469766973696f6e206279207a65726f000000000000815250612d9a565b6001600160a01b038216612a3b5760405162461bcd60e51b81526004018080602001828103825260218152602001806132f66021913960400191505060405180910390fd5b612a4782600083612d95565b612a8a816040518060600160405280602281526020016131ce602291396001600160a01b038516600090815260208190526040902054919063ffffffff61288216565b6001600160a01b038316600090815260208190526040902055600254612ab6908263ffffffff61291916565b6002556040805182815290516000916001600160a01b038516917fddf252ad1be2c89b69c2b068fc378daa952ba7f163c4a11628f55a4df523b3ef9181900360200190a35050565b336000908152600e60209081526040808320429055601a54600d90925290912055565b6001600160a01b038216612b7c576040805162461bcd60e51b815260206004820152601f60248201527f45524332303a206d696e7420746f20746865207a65726f206164647265737300604482015290519081900360640190fd5b612b8860008383612d95565b600254612b9b908263ffffffff6126a116565b6002556001600160a01b038216600090815260208190526040902054612bc7908263ffffffff6126a116565b6001600160a01b0383166000818152602081815260408083209490945583518581529351929391927fddf252ad1be2c89b69c2b068fc378daa952ba7f163c4a11628f55a4df523b3ef9281900390910190a35050565b612c2b826080015133612dff565b6080820151601354612c429163ffffffff61291916565b60135560405181907fa33fd53ba34795ffefaea3759c71f87d38b89ae12e40bc434c826fae0ca5358390600090a25050565b608082015160155481118015612c8c57506000601554115b15612d3c576000612ca8601554836129b490919063ffffffff16565b60055460405191925061010090046001600160a01b0316906108fc8315029083906000818181858888f19350505050612d28576040805162461bcd60e51b815260206004820152601b60248201527f70726f746f636f6c466565207472616e73666572206661696c65640000000000604482015290519081900360640190fd5b612d38828263ffffffff61291916565b9150505b612d4b81338560000151612eda565b6080830151601354612d629163ffffffff61291916565b60135560405182907fa2a53c7cb82eeb7994ccbbab71bea210cd63cfeb7823972fb5b6a49c3b0e1d4c90600090a2505050565b505050565b60008183612de95760405162461bcd60e51b81526020600482018181528351602484015283519092839260449091019190850190808383600083156128d65781810151838201526020016128be565b506000838581612df557fe5b0495945050505050565b601354821115612e405760405162461bcd60e51b81526004018080602001828103825260298152602001806132646029913960400191505060405180910390fd5b6000612e5c6064611478601454866129b490919063ffffffff16565b90508015612d95576040516001600160a01b0383169082156108fc029083906000818181858888f19350505050612d95576040805162461bcd60e51b815260206004820152601e60248201527f676f6f642073616d61726974616e207472616e73666572206661696c65640000604482015290519081900360640190fd5b601354831115612f1b5760405162461bcd60e51b815260040180806020018281038252602c815260200180613238602c913960400191505060405180910390fd5b47831115612f70576040805162461bcd60e51b815260206004820152601b60248201527f696e737566666963656e742062616c616e636520696e20706f6f6c0000000000604482015290519081900360640190fd5b806001600160a01b0316826001600160a01b0316146130a7576000612fa56064611478601454876129b490919063ffffffff16565b905080156130a1576040516001600160a01b0384169082156108fc029083906000818181858888f19350505050613023576040805162461bcd60e51b815260206004820152601960248201527f657865726369736572207472616e73666572206661696c656400000000000000604482015290519081900360640190fd5b6001600160a01b0382166108fc613040868463ffffffff61291916565b6040518115909202916000818181858888f193505050506130a1576040805162461bcd60e51b81526020600482015260166024820152751dda5b9b995c881d1c985b9cd9995c8819985a5b195960521b604482015290519081900360640190fd5b50613116565b6040516001600160a01b0382169084156108fc029085906000818181858888f19350505050613116576040805162461bcd60e51b81526020600482015260166024820152751dda5b9b995c881d1c985b9cd9995c8819985a5b195960521b604482015290519081900360640190fd5b604080518481526001600160a01b038316602082015281517f9b5d1a613fa5f0790b36b13103706e31fca06b229d87e9915b29fc20c1d76490929181900390910190a1505050565b6040805161012081018252600080825260208201819052918101829052606081018290526080810182905260a0810182905260c0810182905260e081018290526101008101919091529056fe45524332303a207472616e7366657220746f20746865207a65726f206164647265737345524332303a206275726e20616d6f756e7420657863656564732062616c616e636545524332303a20617070726f766520746f20746865207a65726f206164647265737345524332303a207472616e7366657220616d6f756e7420657863656564732062616c616e6365696e737566666963656e7420706f6f6c2062616c616e636520617661696c61626c6520746f207061796f7574696e737566666963656e74206c6f636b656420706f6f6c2062616c616e636520746f20756e6c6f636b536166654d6174683a206d756c7469706c69636174696f6e206f766572666c6f7745524332303a207472616e7366657220616d6f756e74206578636565647320616c6c6f77616e63654f776e61626c653a2063616c6c6572206973206e6f7420746865206f776e657245524332303a206275726e2066726f6d20746865207a65726f206164647265737345524332303a207472616e736665722066726f6d20746865207a65726f206164647265737345524332303a20617070726f76652066726f6d20746865207a65726f206164647265737345524332303a2064656372656173656420616c6c6f77616e63652062656c6f77207a65726fa2646970667358221220bbf49606247cd67146b369fb3bd5ebf2dd39a32bebe0fe1ea84a73cac18aaf3d64736f6c63430006060033",
  "immutableReferences": {},
  "source": "pragma solidity ^0.6.6;\n\nimport \"@openzeppelin/contracts/math/SafeMath.sol\";\nimport \"@openzeppelin/contracts/token/ERC20/ERC20.sol\";\n\n\n\nimport \"./BIOPTokenV4.sol\";\nimport \"./RateCalc.sol\";\nimport \"./interfaces/IUtilizationRewards.sol\";\nimport \"./interfaces/INativeAssetDenominatedBinaryOptions.sol\";\nimport \"./interfaces/IAPP.sol\";\nimport \"./Chainlink/AggregatorProxy.sol\";\n\n\ncontract NativeAssetDenominatedBinaryOptions is ERC20, INativeAssetDenominatedBinaryOptions {\n    using SafeMath for uint56;\n    address payable public treasury;\n    address payable public owner;\n    address public uR; //utilization rewards\n    address public biop;\n    address public app;//the approved pp/ratecalc\n    mapping(address=>uint256) public nW; //next withdraw (used for pool lock time)\n    mapping(address=>uint256) public lW;//last withdraw.used for rewards calc\n    mapping(address=>uint256) private pClaims;//pending claims\n    mapping(address=>uint256) public iAL;//interchange at last claim\n    mapping(address=>uint256) public lST;//last stake time\n\n\n    uint256 public oC = 0;\n    uint256 public oP = 0;\n\n\n\n    uint256 public minT;//minimum number of rounds\n    uint256 public maxT;//maximum number of rounds\n    uint256 public lockedAmount;//the amount locked into the pool by the liquidity provider\n    uint256 public settlerFee = 5;//0.2%\n    uint256 public protocolFee = 100;//1%\n    uint256 public poolLockSeconds = 1209600;//14 days\n    uint256 public contractCreated;\n    bool public open = true;\n    Option[] public options;\n\n    uint256 public tI = 0;//total interchange\n    uint256 public rwd =  20000000000000000; //base utilization reward (0.02 BIOP)\n    bool public rewEn = true;//rewards enabled\n\n\n    modifier onlyOwner() {\n        require(owner == msg.sender, \"Ownable: caller is not the owner\");\n        _;\n    }\n\n\n    /* Types */\n    struct Option {\n        address payable holder;\n        int256 sP;//strike\n        uint80 pR;//purchase round\n        uint256 pV;//purchase value\n        uint256 lV;// in-the-money option value (lockedValue)\n        uint80 exp;//expiration round\n        bool dir;//direction (true for call)\n        address pP;//price provider\n        address aPA;//alt pool address\n    }\n\n    /* Events */\n     event Create(\n        uint256 indexed id,\n        address payable account,\n        int256 sP,//strike\n        uint256 lV,//locked value\n        bool dir,//direction (true for call)\n        uint80 pR,//purchase round\n        uint80 exp//expiration round\n    );\n    event Payout(uint256 poolLost, address winner);\n    event Exercise(uint256 indexed id);\n    event Expire(uint256 indexed id);\n\n\n    /**\n     * @param name_ the name of the LP token\n     * @param symbol_ the symbol of the LP token\n     * @param biop_ address of the gov token\n     * @param uR_ address of utilization rewards contract\n     * @param app_ address of approved price providers contract\n     */\n      constructor(string memory name_, string memory symbol_, address biop_, address uR_, address app_) public ERC20(name_, symbol_){\n        treasury = msg.sender;\n        owner = msg.sender;\n        biop = biop_;\n        lockedAmount = 0;\n        contractCreated = block.timestamp;\n        minT = 1;\n        maxT = 3;\n        uR = uR_;\n        app = app_;\n    }\n\n    /**\n      @dev Get the largest amount a bet can be created for\n      */\n    function getMaxAvailable() public view returns(uint256) {\n        uint256 balance = address(this).balance;\n        if (balance > lockedAmount) {\n            return balance.sub(lockedAmount);\n        } else {\n            return 0;\n        }\n    }\n\n\n    function getOptionCount() public view returns(uint256) {\n        return options.length;\n    }\n\n\n    //used for openPosition/settlement calculations\n    function getTradeExerciseBonus(uint256 amount, bool completion) public view returns(uint256) {\n        IUtilizationRewards r = IUtilizationRewards(uR);\n        return r.getTradeExerciseBonus(amount, address(this).balance, completion);\n    }\n\n    /**\n     * @dev Update the amount of rewards pending for this user\n     * @param amount the size of the trade\n     * @param stack the amount of options pending before this execution\n     */\n    function getCompleteBonus(uint256 amount, uint256 stack) public view returns(uint256) {\n        IUtilizationRewards r = IUtilizationRewards(uR);\n        return r.getCompleteBonus(amount, address(this).balance, stack);\n    }\n\n\n    function getPendingClaims(address account) public view returns(uint256) {\n\n        IUtilizationRewards r = IUtilizationRewards(uR);\n        if (balanceOf(account) > 1) {\n            //reward bonus for staking\n            //base*(weeks)*(poolBalanceBonus/10)*optionsBacked\n            return pClaims[account].add(\n                r.getLPStakingBonus(lST[account],iAL[account], tI, balanceOf(account), totalSupply())\n            );\n        } else {\n            //normal rewards\n            return pClaims[account];\n        }\n    }\n\n    function updateLPmetrics() internal {\n        lST[msg.sender] = block.timestamp;\n        iAL[msg.sender] = tI;\n    }\n     /**\n     * @dev distribute pending governance token claims to user\n     */\n    function claimRewards() external {\n        uint256 claims = getPendingClaims(msg.sender);\n        if (balanceOf(msg.sender) >= 1) {\n            updateLPmetrics();\n        }\n        pClaims[msg.sender] = 0;\n\n        IUtilizationRewards r = IUtilizationRewards(uR);\n        r.distributeClaim(claims);\n    }\n\n    /**\n     * @dev address of this contract, convenience method\n     */\n    function thisAddress() public view returns (address){\n        return address(this);\n    }\n\n    /**\n     * @dev update reward base amount\n     * @param newUR the new UtilizationRewards contract to use\n     */\n    function updateUtilizationRewards(address newUR) external override onlyOwner {\n        uR = newUR;\n    }\n\n    /**\n     * @dev update APP\n     * @param newAPP the new approved price provider (and ratecalc contract to use). Must be a IAPP\n     */\n    function updateAPP(address newAPP) external override onlyOwner {\n        app = newAPP;\n    }\n\n\n\n    /**\n     * @dev enable or disable BIOP utilization rewards\n     * @param nx_ the new position for the rewEn switch\n     */\n    function enableRewards(bool nx_) external override onlyOwner {\n        rewEn = nx_;\n    }\n\n    /**\n     * @dev update the max rounds for option bets\n     * @param newMax_ the new maximum time (in rounds) an option may be created for (inclusive).\n     */\n    function setMaxT(uint256 newMax_) external override onlyOwner {\n        maxT = newMax_;\n    }\n\n    /**\n     * @dev update the min rounds for option bets\n     * @param newMin_ the new minimum time (in rounds) an option may be created for (inclusive).\n     */\n    function setMinT(uint256 newMin_) external override onlyOwner {\n        minT = newMin_;\n    }\n\n\n\n    /**\n     * @dev set the fee users can recieve for settling other users options\n     * @param fee_ the new fee (in tenth percent) for settling a options\n     */\n    function updateSettlerFee(uint256 fee_) external override onlyOwner {\n        require(fee_ > 1 && fee_ < 100, \"invalid fee\");\n        settlerFee = fee_;\n    }\n\n\n\n    /**\n     * @dev set the fee users pay to buy an option\n     * @param newProtocolFee_ the new fee (in tenth percent) to buy an option\n     */\n    function updateProtocolFee(uint256 newProtocolFee_) external override onlyOwner {\n        require(newProtocolFee_ == 0 || newProtocolFee_ > 50, \"invalid fee\");\n        protocolFee = newProtocolFee_;\n    }\n\n     /**\n     * @dev update the pool stake lock up time.\n     * @param newLockSeconds_ the new lock time, in seconds\n     */\n    function updatePoolLockSeconds(uint256 newLockSeconds_) external override onlyOwner {\n        //make sure that the pool lock period never exceeds 14 days (1209600 seconds)\n        require(newLockSeconds_ >= 0 && newLockSeconds_ < 1209600, \"invalid pool lock period\");\n        poolLockSeconds = newLockSeconds_;\n    }\n\n    /**\n     * @dev used to transfer ownership\n     * @param newOwner_ the address of governance contract which takes over control\n     */\n    function transferOwner(address payable newOwner_) external override onlyOwner {\n        owner = newOwner_;\n    }\n\n    /**\n     * @dev used to transfer fees\n     * @param newTreasury_ the new address to use\n     */\n    function transferDevFund(address payable newTreasury_) external override onlyOwner {\n        treasury = newTreasury_;\n    }\n\n\n     /**\n     * @dev used to send this pool into EOL mode when a newer one is open\n     */\n    function closeStaking() external override onlyOwner {\n        open = !open;\n    }\n\n\n\n\n    /**\n     * @dev send ETH to the pool. Recieve pETH token representing your claim.\n     * If rewards are available recieve BIOP governance tokens as well.\n    */\n    function stake() external payable {\n        require(open == true, \"pool deposit closed\");\n        require(msg.value >= 100, \"stake to small\");\n        if (balanceOf(msg.sender) == 0) {\n            lW[msg.sender] = block.timestamp;\n            pClaims[msg.sender] = pClaims[msg.sender].add(rwd.mul(2));\n        }\n        updateLPmetrics();\n        nW[msg.sender] = block.timestamp + poolLockSeconds;//this one is seperate because it isn't updated on reward claim\n\n        _mint(msg.sender, msg.value);\n    }\n\n    /**\n     * @dev recieve ETH from the pool.\n     * If the current time is before your next available withdraw a 1% fee will be applied.\n     * @param amount The amount of pETH to return the pool (burn).\n    */\n    function withdraw(uint256 amount) public {\n       require (balanceOf(msg.sender) >= amount, \"Insufficent Share Balance\");\n        lW[msg.sender] = block.timestamp;\n        //value to receive\n        uint256 vTR = amount.mul(address(this).balance).div(totalSupply().sub(lockedAmount));\n        _burn(msg.sender, amount);\n        if (block.timestamp <= nW[msg.sender]) {\n            //early withdraw fee\n            uint256 penalty = vTR.div(100);\n            require(treasury.send(penalty), \"transfer failed\");\n            require(msg.sender.send(vTR.sub(penalty)), \"transfer failed\");\n        } else {\n            require(msg.sender.send(vTR), \"transfer failed\");\n        }\n    }\n\n     /**\n    @dev helper for getting rate\n    @param pair the price provider\n    @param deposit bet amount\n    @param t time\n    @param k direction bool, true is call\n    @return the rate\n    */\n    function getRate(address pair, uint256 deposit, uint256 t, bool k) public view returns (uint256) {\n        IAPP app_ = IAPP(app);\n        require(app_.aprvd(pair) != 0x0000000000000000000000000000000000000000, \"invalid trading pair\");\n\n        RateCalc rc = RateCalc(app_.aprvd(pair));\n        uint256 s;\n        if (k){\n            if (oP >= oC) {\n              s = 1;\n            } else {\n              s = oC.sub(oP);\n            }\n        } else {\n            if (oC >= oP) {\n              s = 1;\n            } else {\n              s = oP.sub(oC);\n            }\n        }\n\n        return rc.rate(deposit, lockedAmount , t, k, s, address(this).balance);\n    }\n\n     /**\n    @dev Open a new call or put options.\n    @param k_ type of option to buy (true for call )\n    @param pp_ the address of the price provider to use (must be in the list of aprvd from IAPP)\n    @param t_ the rounds until your options expiration (must be minT < t_ > maxT)\n    */\n    function openPosition(bool k_, address pp_, uint80 t_) external payable override {\n        require(\n            t_ >= minT && t_ <= maxT,\n            \"Invalid time\"\n        );\n        IAPP app_ = IAPP(app);\n        require(app_.aprvd(pp_) != 0x0000000000000000000000000000000000000000, \"Invalid  price provider\");\n\n        AggregatorProxy priceProvider = AggregatorProxy(pp_);\n        (uint80 lR, int256 lA, , , ) = priceProvider.latestRoundData();\n        uint256 oID = options.length;\n\n\n            //normal eth bet\n            require(msg.value <= getMaxAvailable(), \"option value too large\");\n\n\n\n\n\n            uint256 lV = getRate(pp_, msg.value, t_, k_);\n\n            if (rewEn) {\n                pClaims[msg.sender] = pClaims[msg.sender].add(getTradeExerciseBonus(msg.value, false));\n            }\n            lock(lV);\n\n\n\n        Option memory op = Option(\n            msg.sender,\n            lA,\n            lR,\n            msg.value,\n            lV,\n            t_,//rounds until expiration\n            k_,\n            pp_,\n            address(this)\n        );\n\n        options.push(op);\n        tI = tI.add(lV);\n        if (k_) {\n            oC = oC+1;\n        } else {\n            oP = oP+1;\n        }\n        emit Create(oID, msg.sender, lA, lV, k_, lR, t_);\n    }\n\n\n\n\n\n\n\n     /**\n     * @notice settle an option\n     * @dev exercise and expire functions have been deprecated in favor of this single complete option\n     * @param oID id of the option to complete\n     */\n    function complete(uint256 oID)\n        external\n    {\n        Option memory option = options[oID];\n\n        AggregatorProxy priceProvider = AggregatorProxy(option.pP);\n        (uint80 lR, int256 lA, , , ) = priceProvider.getRoundData(uint80(option.pR+option.exp));\n        require(lA != 0 && lR != 0, \"not ready yet\");\n        uint256 stack = oC.add(oP);\n        if (option.dir) {\n            //call option\n            if (option.sP > lA) {\n              //OTM expire\n              expire(option, oID);\n            } else {\n              //ITM exercise\n              exercise(option, oID);\n            }\n            oC = oC-1;\n        } else {\n            //put option\n            if (lA > option.sP) {\n              //OTM expire\n              expire(option, oID);\n            } else {\n              //ITM exercise\n              exercise(option, oID);\n            }\n            oP = oP-1;\n        }\n\n\n        if (rewEn) {\n            pClaims[msg.sender] = pClaims[msg.sender].add(getCompleteBonus(option.lV, stack));\n        }\n    }\n\n    /**\n     * @notice exercise an option\n     * @dev use complete to exercise (or expire) an option. This is a internal function\n     * @param option the option to exercise\n     * @param oID the option id\n     */\n    function exercise(Option memory option, uint256 oID) internal {\n        //option expires ITM, we pay out\n\n        uint256 lv = option.lV;\n\n        //an optional (to be choosen by contract owner) fee on each option.\n        //A % of the trade money is sent as a fee. see protocolFee\n        if (lv > protocolFee && protocolFee > 0) {\n                uint256 fee = lv.div(protocolFee);\n                require(treasury.send(fee), \"protocolFee transfer failed\");\n                lv = lv.sub(fee);\n        }\n\n        payout(lv, msg.sender, option.holder);\n        lockedAmount = lockedAmount.sub(option.lV);\n\n        emit Exercise(oID);\n    }\n\n     /**\n     * @notice expire an option\n     * @dev use complete to expire (or exercise) an option. This is a internal function\n     * @param option the option to expire\n     * @param oID the option id\n     */\n    function expire(Option memory option, uint256 oID)\n        internal\n    {\n        unlock(option.lV, msg.sender);\n        lockedAmount = lockedAmount.sub(option.lV);\n        emit Expire(oID);\n    }\n\n    /**\n    @dev called by BinaryOptions contract to lock pool value coresponding to new binary options bought.\n    @param amount amount in ETH to lock from the pool total.\n    */\n    function lock(uint256 amount) internal {\n        lockedAmount = lockedAmount.add(amount);\n    }\n\n    /**\n    @dev called by BinaryOptions contract to unlock pool value coresponding to an option expiring otm.\n    @param amount amount in ETH to unlock\n    @param goodSamaritan the user paying to unlock these funds, they recieve a fee\n    */\n    function unlock(uint256 amount, address payable goodSamaritan) internal {\n        require(amount <= lockedAmount, \"insufficent locked pool balance to unlock\");\n        uint256 fee = amount.div(settlerFee).div(100);\n        if (fee > 0) {\n            require(goodSamaritan.send(fee), \"good samaritan transfer failed\");\n        }\n    }\n\n    /**\n    @dev called by BinaryOptions contract to payout pool value coresponding to binary options expiring itm.\n    @param amount amount in ETH to unlock\n    @param exerciser address calling the exercise/expire function, this may the winner or another user who then earns a fee.\n    @param winner address of the winner.\n    @notice exerciser fees are subject to change see updateFeePercent above.\n    */\n    function payout(uint256 amount, address payable exerciser, address payable winner) internal {\n        require(amount <= lockedAmount, \"insufficent pool balance available to payout\");\n        require(amount <= address(this).balance, \"insufficent balance in pool\");\n        if (exerciser != winner) {\n            //good samaratin fee\n            uint256 fee = amount.div(settlerFee).div(100);\n            if (fee > 0) {\n                require(exerciser.send(fee), \"exerciser transfer failed\");\n                require(winner.send(amount.sub(fee)), \"winner transfer failed\");\n            }\n        } else {\n            require(winner.send(amount), \"winner transfer failed\");\n        }\n        emit Payout(amount, winner);\n    }\n\n}\n",
  "sourcePath": "/Users/x/Desktop/eth/BIOPv4/contracts/NativeAssetDenominatedBinaryOptions.sol",
  "compiler": {
    "name": "solc",
    "version": "0.6.6+commit.6c089d02.Emscripten.clang"
  },
  "schemaVersion": "3.3.4",
  "updatedAt": "2021-05-21T05:28:33.052Z",
  "networkType": "ethereum",
  "devdoc": {
    "methods": {
      "allowance(address,address)": {
        "details": "See {IERC20-allowance}."
      },
      "approve(address,uint256)": {
        "details": "See {IERC20-approve}.     * Requirements:     * - `spender` cannot be the zero address."
      },
      "balanceOf(address)": {
        "details": "See {IERC20-balanceOf}."
      },
      "claimRewards()": {
        "details": "distribute pending governance token claims to user"
      },
      "closeStaking()": {
        "details": "used to send this pool into EOL mode when a newer one is open"
      },
      "complete(uint256)": {
        "details": "exercise and expire functions have been deprecated in favor of this single complete option",
        "params": {
          "oID": "id of the option to complete"
        }
      },
      "constructor": {
        "params": {
          "app_": "address of approved price providers contract",
          "biop_": "address of the gov token",
          "name_": "the name of the LP token",
          "symbol_": "the symbol of the LP token",
          "uR_": "address of utilization rewards contract"
        }
      },
      "decimals()": {
        "details": "Returns the number of decimals used to get its user representation. For example, if `decimals` equals `2`, a balance of `505` tokens should be displayed to a user as `5,05` (`505 / 10 ** 2`).     * Tokens usually opt for a value of 18, imitating the relationship between Ether and Wei. This is the value {ERC20} uses, unless {_setupDecimals} is called.     * NOTE: This information is only used for _display_ purposes: it in no way affects any of the arithmetic of the contract, including {IERC20-balanceOf} and {IERC20-transfer}."
      },
      "decreaseAllowance(address,uint256)": {
        "details": "Atomically decreases the allowance granted to `spender` by the caller.     * This is an alternative to {approve} that can be used as a mitigation for problems described in {IERC20-approve}.     * Emits an {Approval} event indicating the updated allowance.     * Requirements:     * - `spender` cannot be the zero address. - `spender` must have allowance for the caller of at least `subtractedValue`."
      },
      "enableRewards(bool)": {
        "details": "enable or disable BIOP utilization rewards",
        "params": {
          "nx_": "the new position for the rewEn switch"
        }
      },
      "getCompleteBonus(uint256,uint256)": {
        "details": "Update the amount of rewards pending for this user",
        "params": {
          "amount": "the size of the trade",
          "stack": "the amount of options pending before this execution"
        }
      },
      "getMaxAvailable()": {
        "details": "Get the largest amount a bet can be created for"
      },
      "getRate(address,uint256,uint256,bool)": {
        "details": "helper for getting rate",
        "params": {
          "deposit": "bet amount",
          "k": "direction bool, true is call",
          "pair": "the price provider",
          "t": "time"
        },
        "returns": {
          "_0": "the rate"
        }
      },
      "increaseAllowance(address,uint256)": {
        "details": "Atomically increases the allowance granted to `spender` by the caller.     * This is an alternative to {approve} that can be used as a mitigation for problems described in {IERC20-approve}.     * Emits an {Approval} event indicating the updated allowance.     * Requirements:     * - `spender` cannot be the zero address."
      },
      "name()": {
        "details": "Returns the name of the token."
      },
      "openPosition(bool,address,uint80)": {
        "details": "Open a new call or put options.",
        "params": {
          "k_": "type of option to buy (true for call )",
          "pp_": "the address of the price provider to use (must be in the list of aprvd from IAPP)",
          "t_": "the rounds until your options expiration (must be minT < t_ > maxT)"
        }
      },
      "setMaxT(uint256)": {
        "details": "update the max rounds for option bets",
        "params": {
          "newMax_": "the new maximum time (in rounds) an option may be created for (inclusive)."
        }
      },
      "setMinT(uint256)": {
        "details": "update the min rounds for option bets",
        "params": {
          "newMin_": "the new minimum time (in rounds) an option may be created for (inclusive)."
        }
      },
      "stake()": {
        "details": "send ETH to the pool. Recieve pETH token representing your claim. If rewards are available recieve BIOP governance tokens as well."
      },
      "symbol()": {
        "details": "Returns the symbol of the token, usually a shorter version of the name."
      },
      "thisAddress()": {
        "details": "address of this contract, convenience method"
      },
      "totalSupply()": {
        "details": "See {IERC20-totalSupply}."
      },
      "transfer(address,uint256)": {
        "details": "See {IERC20-transfer}.     * Requirements:     * - `recipient` cannot be the zero address. - the caller must have a balance of at least `amount`."
      },
      "transferDevFund(address)": {
        "details": "used to transfer fees",
        "params": {
          "newTreasury_": "the new address to use"
        }
      },
      "transferFrom(address,address,uint256)": {
        "details": "See {IERC20-transferFrom}.     * Emits an {Approval} event indicating the updated allowance. This is not required by the EIP. See the note at the beginning of {ERC20}.     * Requirements:     * - `sender` and `recipient` cannot be the zero address. - `sender` must have a balance of at least `amount`. - the caller must have allowance for ``sender``'s tokens of at least `amount`."
      },
      "transferOwner(address)": {
        "details": "used to transfer ownership",
        "params": {
          "newOwner_": "the address of governance contract which takes over control"
        }
      },
      "updateAPP(address)": {
        "details": "update APP",
        "params": {
          "newAPP": "the new approved price provider (and ratecalc contract to use). Must be a IAPP"
        }
      },
      "updatePoolLockSeconds(uint256)": {
        "details": "update the pool stake lock up time.",
        "params": {
          "newLockSeconds_": "the new lock time, in seconds"
        }
      },
      "updateProtocolFee(uint256)": {
        "details": "set the fee users pay to buy an option",
        "params": {
          "newProtocolFee_": "the new fee (in tenth percent) to buy an option"
        }
      },
      "updateSettlerFee(uint256)": {
        "details": "set the fee users can recieve for settling other users options",
        "params": {
          "fee_": "the new fee (in tenth percent) for settling a options"
        }
      },
      "updateUtilizationRewards(address)": {
        "details": "update reward base amount",
        "params": {
          "newUR": "the new UtilizationRewards contract to use"
        }
      },
      "withdraw(uint256)": {
        "details": "recieve ETH from the pool. If the current time is before your next available withdraw a 1% fee will be applied.",
        "params": {
          "amount": "The amount of pETH to return the pool (burn)."
        }
      }
    }
  },
  "userdoc": {
    "methods": {
      "complete(uint256)": {
        "notice": "settle an option"
      }
    }
  }
}