{
  "contractName": "NativeAssetDenominatedBinaryOptions",
  "abi": [
    {
      "inputs": [
        {
          "internalType": "string",
          "name": "name_",
          "type": "string"
        },
        {
          "internalType": "string",
          "name": "symbol_",
          "type": "string"
        },
        {
          "internalType": "address",
          "name": "biop_",
          "type": "address"
        },
        {
          "internalType": "address",
          "name": "uR_",
          "type": "address"
        },
        {
          "internalType": "address",
          "name": "app_",
          "type": "address"
        }
      ],
      "stateMutability": "nonpayable",
      "type": "constructor"
    },
    {
      "anonymous": false,
      "inputs": [
        {
          "indexed": true,
          "internalType": "address",
          "name": "owner",
          "type": "address"
        },
        {
          "indexed": true,
          "internalType": "address",
          "name": "spender",
          "type": "address"
        },
        {
          "indexed": false,
          "internalType": "uint256",
          "name": "value",
          "type": "uint256"
        }
      ],
      "name": "Approval",
      "type": "event"
    },
    {
      "anonymous": false,
      "inputs": [
        {
          "indexed": true,
          "internalType": "uint256",
          "name": "id",
          "type": "uint256"
        },
        {
          "indexed": false,
          "internalType": "address payable",
          "name": "account",
          "type": "address"
        },
        {
          "indexed": false,
          "internalType": "int256",
          "name": "sP",
          "type": "int256"
        },
        {
          "indexed": false,
          "internalType": "uint256",
          "name": "lV",
          "type": "uint256"
        },
        {
          "indexed": false,
          "internalType": "bool",
          "name": "dir",
          "type": "bool"
        },
        {
          "indexed": false,
          "internalType": "uint80",
          "name": "pR",
          "type": "uint80"
        },
        {
          "indexed": false,
          "internalType": "uint80",
          "name": "exp",
          "type": "uint80"
        }
      ],
      "name": "Create",
      "type": "event"
    },
    {
      "anonymous": false,
      "inputs": [
        {
          "indexed": true,
          "internalType": "uint256",
          "name": "id",
          "type": "uint256"
        }
      ],
      "name": "Exercise",
      "type": "event"
    },
    {
      "anonymous": false,
      "inputs": [
        {
          "indexed": true,
          "internalType": "uint256",
          "name": "id",
          "type": "uint256"
        }
      ],
      "name": "Expire",
      "type": "event"
    },
    {
      "anonymous": false,
      "inputs": [
        {
          "indexed": false,
          "internalType": "uint256",
          "name": "poolLost",
          "type": "uint256"
        },
        {
          "indexed": false,
          "internalType": "address",
          "name": "winner",
          "type": "address"
        }
      ],
      "name": "Payout",
      "type": "event"
    },
    {
      "anonymous": false,
      "inputs": [
        {
          "indexed": true,
          "internalType": "address",
          "name": "from",
          "type": "address"
        },
        {
          "indexed": true,
          "internalType": "address",
          "name": "to",
          "type": "address"
        },
        {
          "indexed": false,
          "internalType": "uint256",
          "name": "value",
          "type": "uint256"
        }
      ],
      "name": "Transfer",
      "type": "event"
    },
    {
      "inputs": [
        {
          "internalType": "address",
          "name": "owner",
          "type": "address"
        },
        {
          "internalType": "address",
          "name": "spender",
          "type": "address"
        }
      ],
      "name": "allowance",
      "outputs": [
        {
          "internalType": "uint256",
          "name": "",
          "type": "uint256"
        }
      ],
      "stateMutability": "view",
      "type": "function",
      "constant": true
    },
    {
      "inputs": [],
      "name": "app",
      "outputs": [
        {
          "internalType": "address",
          "name": "",
          "type": "address"
        }
      ],
      "stateMutability": "view",
      "type": "function",
      "constant": true
    },
    {
      "inputs": [
        {
          "internalType": "address",
          "name": "spender",
          "type": "address"
        },
        {
          "internalType": "uint256",
          "name": "amount",
          "type": "uint256"
        }
      ],
      "name": "approve",
      "outputs": [
        {
          "internalType": "bool",
          "name": "",
          "type": "bool"
        }
      ],
      "stateMutability": "nonpayable",
      "type": "function"
    },
    {
      "inputs": [
        {
          "internalType": "address",
          "name": "account",
          "type": "address"
        }
      ],
      "name": "balanceOf",
      "outputs": [
        {
          "internalType": "uint256",
          "name": "",
          "type": "uint256"
        }
      ],
      "stateMutability": "view",
      "type": "function",
      "constant": true
    },
    {
      "inputs": [],
      "name": "biop",
      "outputs": [
        {
          "internalType": "address",
          "name": "",
          "type": "address"
        }
      ],
      "stateMutability": "view",
      "type": "function",
      "constant": true
    },
    {
      "inputs": [],
      "name": "contractCreated",
      "outputs": [
        {
          "internalType": "uint256",
          "name": "",
          "type": "uint256"
        }
      ],
      "stateMutability": "view",
      "type": "function",
      "constant": true
    },
    {
      "inputs": [],
      "name": "decimals",
      "outputs": [
        {
          "internalType": "uint8",
          "name": "",
          "type": "uint8"
        }
      ],
      "stateMutability": "view",
      "type": "function",
      "constant": true
    },
    {
      "inputs": [
        {
          "internalType": "address",
          "name": "spender",
          "type": "address"
        },
        {
          "internalType": "uint256",
          "name": "subtractedValue",
          "type": "uint256"
        }
      ],
      "name": "decreaseAllowance",
      "outputs": [
        {
          "internalType": "bool",
          "name": "",
          "type": "bool"
        }
      ],
      "stateMutability": "nonpayable",
      "type": "function"
    },
    {
      "inputs": [
        {
          "internalType": "address",
          "name": "",
          "type": "address"
        }
      ],
      "name": "iAL",
      "outputs": [
        {
          "internalType": "uint256",
          "name": "",
          "type": "uint256"
        }
      ],
      "stateMutability": "view",
      "type": "function",
      "constant": true
    },
    {
      "inputs": [
        {
          "internalType": "address",
          "name": "spender",
          "type": "address"
        },
        {
          "internalType": "uint256",
          "name": "addedValue",
          "type": "uint256"
        }
      ],
      "name": "increaseAllowance",
      "outputs": [
        {
          "internalType": "bool",
          "name": "",
          "type": "bool"
        }
      ],
      "stateMutability": "nonpayable",
      "type": "function"
    },
    {
      "inputs": [
        {
          "internalType": "address",
          "name": "",
          "type": "address"
        }
      ],
      "name": "lST",
      "outputs": [
        {
          "internalType": "uint256",
          "name": "",
          "type": "uint256"
        }
      ],
      "stateMutability": "view",
      "type": "function",
      "constant": true
    },
    {
      "inputs": [
        {
          "internalType": "address",
          "name": "",
          "type": "address"
        }
      ],
      "name": "lW",
      "outputs": [
        {
          "internalType": "uint256",
          "name": "",
          "type": "uint256"
        }
      ],
      "stateMutability": "view",
      "type": "function",
      "constant": true
    },
    {
      "inputs": [],
      "name": "lockedAmount",
      "outputs": [
        {
          "internalType": "uint256",
          "name": "",
          "type": "uint256"
        }
      ],
      "stateMutability": "view",
      "type": "function",
      "constant": true
    },
    {
      "inputs": [],
      "name": "maxT",
      "outputs": [
        {
          "internalType": "uint256",
          "name": "",
          "type": "uint256"
        }
      ],
      "stateMutability": "view",
      "type": "function",
      "constant": true
    },
    {
      "inputs": [],
      "name": "minT",
      "outputs": [
        {
          "internalType": "uint256",
          "name": "",
          "type": "uint256"
        }
      ],
      "stateMutability": "view",
      "type": "function",
      "constant": true
    },
    {
      "inputs": [
        {
          "internalType": "address",
          "name": "",
          "type": "address"
        }
      ],
      "name": "nW",
      "outputs": [
        {
          "internalType": "uint256",
          "name": "",
          "type": "uint256"
        }
      ],
      "stateMutability": "view",
      "type": "function",
      "constant": true
    },
    {
      "inputs": [],
      "name": "name",
      "outputs": [
        {
          "internalType": "string",
          "name": "",
          "type": "string"
        }
      ],
      "stateMutability": "view",
      "type": "function",
      "constant": true
    },
    {
      "inputs": [],
      "name": "oC",
      "outputs": [
        {
          "internalType": "uint256",
          "name": "",
          "type": "uint256"
        }
      ],
      "stateMutability": "view",
      "type": "function",
      "constant": true
    },
    {
      "inputs": [],
      "name": "oP",
      "outputs": [
        {
          "internalType": "uint256",
          "name": "",
          "type": "uint256"
        }
      ],
      "stateMutability": "view",
      "type": "function",
      "constant": true
    },
    {
      "inputs": [],
      "name": "open",
      "outputs": [
        {
          "internalType": "bool",
          "name": "",
          "type": "bool"
        }
      ],
      "stateMutability": "view",
      "type": "function",
      "constant": true
    },
    {
      "inputs": [
        {
          "internalType": "uint256",
          "name": "",
          "type": "uint256"
        }
      ],
      "name": "options",
      "outputs": [
        {
          "internalType": "address payable",
          "name": "holder",
          "type": "address"
        },
        {
          "internalType": "int256",
          "name": "sP",
          "type": "int256"
        },
        {
          "internalType": "uint256",
          "name": "pV",
          "type": "uint256"
        },
        {
          "internalType": "uint256",
          "name": "lV",
          "type": "uint256"
        },
        {
          "internalType": "uint80",
          "name": "pR",
          "type": "uint80"
        },
        {
          "internalType": "uint80",
          "name": "exp",
          "type": "uint80"
        },
        {
          "internalType": "bool",
          "name": "dir",
          "type": "bool"
        },
        {
          "internalType": "address",
          "name": "pP",
          "type": "address"
        },
        {
          "internalType": "address",
          "name": "aPA",
          "type": "address"
        },
        {
          "internalType": "bool",
          "name": "complete",
          "type": "bool"
        }
      ],
      "stateMutability": "view",
      "type": "function",
      "constant": true
    },
    {
      "inputs": [],
      "name": "owner",
      "outputs": [
        {
          "internalType": "address payable",
          "name": "",
          "type": "address"
        }
      ],
      "stateMutability": "view",
      "type": "function",
      "constant": true
    },
    {
      "inputs": [],
      "name": "poolLockSeconds",
      "outputs": [
        {
          "internalType": "uint256",
          "name": "",
          "type": "uint256"
        }
      ],
      "stateMutability": "view",
      "type": "function",
      "constant": true
    },
    {
      "inputs": [],
      "name": "protocolFee",
      "outputs": [
        {
          "internalType": "uint256",
          "name": "",
          "type": "uint256"
        }
      ],
      "stateMutability": "view",
      "type": "function",
      "constant": true
    },
    {
      "inputs": [],
      "name": "rewEn",
      "outputs": [
        {
          "internalType": "bool",
          "name": "",
          "type": "bool"
        }
      ],
      "stateMutability": "view",
      "type": "function",
      "constant": true
    },
    {
      "inputs": [],
      "name": "rwd",
      "outputs": [
        {
          "internalType": "uint256",
          "name": "",
          "type": "uint256"
        }
      ],
      "stateMutability": "view",
      "type": "function",
      "constant": true
    },
    {
      "inputs": [],
      "name": "settlerFee",
      "outputs": [
        {
          "internalType": "uint256",
          "name": "",
          "type": "uint256"
        }
      ],
      "stateMutability": "view",
      "type": "function",
      "constant": true
    },
    {
      "inputs": [],
      "name": "symbol",
      "outputs": [
        {
          "internalType": "string",
          "name": "",
          "type": "string"
        }
      ],
      "stateMutability": "view",
      "type": "function",
      "constant": true
    },
    {
      "inputs": [],
      "name": "tI",
      "outputs": [
        {
          "internalType": "uint256",
          "name": "",
          "type": "uint256"
        }
      ],
      "stateMutability": "view",
      "type": "function",
      "constant": true
    },
    {
      "inputs": [],
      "name": "totalSupply",
      "outputs": [
        {
          "internalType": "uint256",
          "name": "",
          "type": "uint256"
        }
      ],
      "stateMutability": "view",
      "type": "function",
      "constant": true
    },
    {
      "inputs": [
        {
          "internalType": "address",
          "name": "recipient",
          "type": "address"
        },
        {
          "internalType": "uint256",
          "name": "amount",
          "type": "uint256"
        }
      ],
      "name": "transfer",
      "outputs": [
        {
          "internalType": "bool",
          "name": "",
          "type": "bool"
        }
      ],
      "stateMutability": "nonpayable",
      "type": "function"
    },
    {
      "inputs": [
        {
          "internalType": "address",
          "name": "sender",
          "type": "address"
        },
        {
          "internalType": "address",
          "name": "recipient",
          "type": "address"
        },
        {
          "internalType": "uint256",
          "name": "amount",
          "type": "uint256"
        }
      ],
      "name": "transferFrom",
      "outputs": [
        {
          "internalType": "bool",
          "name": "",
          "type": "bool"
        }
      ],
      "stateMutability": "nonpayable",
      "type": "function"
    },
    {
      "inputs": [],
      "name": "treasury",
      "outputs": [
        {
          "internalType": "address payable",
          "name": "",
          "type": "address"
        }
      ],
      "stateMutability": "view",
      "type": "function",
      "constant": true
    },
    {
      "inputs": [],
      "name": "uR",
      "outputs": [
        {
          "internalType": "address",
          "name": "",
          "type": "address"
        }
      ],
      "stateMutability": "view",
      "type": "function",
      "constant": true
    },
    {
      "inputs": [],
      "name": "getMaxAvailable",
      "outputs": [
        {
          "internalType": "uint256",
          "name": "",
          "type": "uint256"
        }
      ],
      "stateMutability": "view",
      "type": "function",
      "constant": true
    },
    {
      "inputs": [],
      "name": "getOptionCount",
      "outputs": [
        {
          "internalType": "uint256",
          "name": "",
          "type": "uint256"
        }
      ],
      "stateMutability": "view",
      "type": "function",
      "constant": true
    },
    {
      "inputs": [
        {
          "internalType": "uint256",
          "name": "amount",
          "type": "uint256"
        },
        {
          "internalType": "bool",
          "name": "completion",
          "type": "bool"
        }
      ],
      "name": "getTradeExerciseBonus",
      "outputs": [
        {
          "internalType": "uint256",
          "name": "",
          "type": "uint256"
        }
      ],
      "stateMutability": "view",
      "type": "function",
      "constant": true
    },
    {
      "inputs": [
        {
          "internalType": "address",
          "name": "account",
          "type": "address"
        }
      ],
      "name": "getPendingClaims",
      "outputs": [
        {
          "internalType": "uint256",
          "name": "",
          "type": "uint256"
        }
      ],
      "stateMutability": "view",
      "type": "function",
      "constant": true
    },
    {
      "inputs": [],
      "name": "claimRewards",
      "outputs": [],
      "stateMutability": "nonpayable",
      "type": "function"
    },
    {
      "inputs": [],
      "name": "thisAddress",
      "outputs": [
        {
          "internalType": "address",
          "name": "",
          "type": "address"
        }
      ],
      "stateMutability": "view",
      "type": "function",
      "constant": true
    },
    {
      "inputs": [
        {
          "internalType": "address",
          "name": "newUR",
          "type": "address"
        }
      ],
      "name": "updateUtilizationRewards",
      "outputs": [],
      "stateMutability": "nonpayable",
      "type": "function"
    },
    {
      "inputs": [
        {
          "internalType": "address",
          "name": "newAPP",
          "type": "address"
        }
      ],
      "name": "updateAPP",
      "outputs": [],
      "stateMutability": "nonpayable",
      "type": "function"
    },
    {
      "inputs": [
        {
          "internalType": "bool",
          "name": "nx_",
          "type": "bool"
        }
      ],
      "name": "enableRewards",
      "outputs": [],
      "stateMutability": "nonpayable",
      "type": "function"
    },
    {
      "inputs": [
        {
          "internalType": "uint256",
          "name": "newMax_",
          "type": "uint256"
        }
      ],
      "name": "setMaxT",
      "outputs": [],
      "stateMutability": "nonpayable",
      "type": "function"
    },
    {
      "inputs": [
        {
          "internalType": "uint256",
          "name": "newMin_",
          "type": "uint256"
        }
      ],
      "name": "setMinT",
      "outputs": [],
      "stateMutability": "nonpayable",
      "type": "function"
    },
    {
      "inputs": [
        {
          "internalType": "uint256",
          "name": "fee_",
          "type": "uint256"
        }
      ],
      "name": "updateSettlerFee",
      "outputs": [],
      "stateMutability": "nonpayable",
      "type": "function"
    },
    {
      "inputs": [
        {
          "internalType": "uint256",
          "name": "newProtocolFee_",
          "type": "uint256"
        }
      ],
      "name": "updateProtocolFee",
      "outputs": [],
      "stateMutability": "nonpayable",
      "type": "function"
    },
    {
      "inputs": [
        {
          "internalType": "uint256",
          "name": "newLockSeconds_",
          "type": "uint256"
        }
      ],
      "name": "updatePoolLockSeconds",
      "outputs": [],
      "stateMutability": "nonpayable",
      "type": "function"
    },
    {
      "inputs": [
        {
          "internalType": "address payable",
          "name": "newOwner_",
          "type": "address"
        }
      ],
      "name": "transferOwner",
      "outputs": [],
      "stateMutability": "nonpayable",
      "type": "function"
    },
    {
      "inputs": [
        {
          "internalType": "address payable",
          "name": "newTreasury_",
          "type": "address"
        }
      ],
      "name": "transferDevFund",
      "outputs": [],
      "stateMutability": "nonpayable",
      "type": "function"
    },
    {
      "inputs": [],
      "name": "toggleStaking",
      "outputs": [],
      "stateMutability": "nonpayable",
      "type": "function"
    },
    {
      "inputs": [],
      "name": "stake",
      "outputs": [],
      "stateMutability": "payable",
      "type": "function",
      "payable": true
    },
    {
      "inputs": [
        {
          "internalType": "uint256",
          "name": "amount",
          "type": "uint256"
        }
      ],
      "name": "withdraw",
      "outputs": [],
      "stateMutability": "nonpayable",
      "type": "function"
    },
    {
      "inputs": [
        {
          "internalType": "address",
          "name": "pair",
          "type": "address"
        },
        {
          "internalType": "uint256",
          "name": "deposit",
          "type": "uint256"
        },
        {
          "internalType": "uint256",
          "name": "t",
          "type": "uint256"
        },
        {
          "internalType": "bool",
          "name": "k",
          "type": "bool"
        }
      ],
      "name": "getRate",
      "outputs": [
        {
          "internalType": "uint256",
          "name": "",
          "type": "uint256"
        }
      ],
      "stateMutability": "view",
      "type": "function",
      "constant": true
    },
    {
      "inputs": [
        {
          "internalType": "bool",
          "name": "k_",
          "type": "bool"
        },
        {
          "internalType": "address",
          "name": "pp_",
          "type": "address"
        },
        {
          "internalType": "uint80",
          "name": "t_",
          "type": "uint80"
        }
      ],
      "name": "openPosition",
      "outputs": [],
      "stateMutability": "payable",
      "type": "function",
      "payable": true
    },
    {
      "inputs": [
        {
          "internalType": "uint256",
          "name": "oID",
          "type": "uint256"
        }
      ],
      "name": "complete",
      "outputs": [],
      "stateMutability": "nonpayable",
      "type": "function"
    }
  ],
  "bytecode": "0x6080604052600560145560646015556212750060165560188054600160ff19918216811790925566470de4df820000601b55601c805490911690911790553480156200004a57600080fd5b506040516200380638038062003806833981810160405260a08110156200007057600080fd5b81019080805160405193929190846401000000008211156200009157600080fd5b908301906020820185811115620000a757600080fd5b8251640100000000811182820188101715620000c257600080fd5b82525081516020918201929091019080838360005b83811015620000f1578181015183820152602001620000d7565b50505050905090810190601f1680156200011f5780820380516001836020036101000a031916815260200191505b50604052602001805160405193929190846401000000008211156200014357600080fd5b9083019060208201858111156200015957600080fd5b82516401000000008111828201881017156200017457600080fd5b82525081516020918201929091019080838360005b83811015620001a357818101518382015260200162000189565b50505050905090810190601f168015620001d15780820380516001836020036101000a031916815260200191505b506040908152602082810151918301516060909301518751929550929350869186916200020491600391850190620002a7565b5080516200021a906004906020840190620002a7565b505060058054336101008102610100600160a81b031960ff1990931660129081179390931617909255600680546001600160a01b03199081169093179055600880546001600160a01b0397881690841617905560006013554260175560016011819055905560078054948616948216949094179093555060098054919093169116179055506200034c9050565b828054600181600116156101000203166002900490600052602060002090601f016020900481019282601f10620002ea57805160ff19168380011785556200031a565b828001600101855582156200031a579182015b828111156200031a578251825591602001919060010190620002fd565b50620003289291506200032c565b5090565b6200034991905b8082111562000328576000815560010162000333565b90565b6134aa806200035c6000396000f3fe60806040526004361061036b5760003560e01c806363691eaa116101c6578063a6bd5427116100f7578063d4dca69b11610095578063e4523ef91161006f578063e4523ef914610bef578063e56e03cc14610c04578063f200fb2014610c37578063fcfff16f14610c6a5761036b565b8063d4dca69b14610b8a578063db05c54714610b9f578063dd62ed3e14610bb45761036b565b8063b76564bd116100d1578063b76564bd14610b19578063bac2e6db14610b2e578063c0fb034714610b43578063c897239114610b755761036b565b8063a6bd542714610ab6578063a9059cbb14610acb578063b0e21e8a14610b045761036b565b80638da5cb5b1161016457806399f914051161013e57806399f91405146109f45780639b1559c314610a275780639f19904c14610a53578063a457c2d714610a7d5761036b565b80638da5cb5b146109a057806395d89b41146109b5578063971d852f146109ca5761036b565b80636ab7d6d0116101a05780636ab7d6d0146108de57806370a082311461092557806383880e51146109585780638a300e681461096d5761036b565b806363691eaa146108815780636a92cf8b146108965780636ab28bc8146108c95761036b565b8063313ce567116102a05780634256dd781161023e5780634fce9c84116102185780634fce9c84146108185780635009a6131461082d578063602d86081461085757806361d027b31461086c5761036b565b80634256dd78146107a65780634e9e3252146107d05780634fb2e45d146107e55761036b565b8063395093511161027a57806339509351146106b75780633a4b66f1146106f05780633b8105b3146106f8578063409e22051461070d5761036b565b8063313ce5671461064d578063372500ab1461067857806337637f451461068d5761036b565b80631a30433a1161030d5780631d983e23116102e75780631d983e23146105a157806323b872dd146105cb5780632e1a7d4d1461060e5780632f67e359146106385761036b565b80631a30433a1461051e5780631a8972d31461055b5780631c94c429146105705761036b565b8063108e184d11610349578063108e184d1461047c57806318126dce146104c157806318160ddd146104d657806319174be6146104eb5761036b565b806306fdde031461037057806307e665df146103fa578063095ea7b31461042f575b600080fd5b34801561037c57600080fd5b50610385610c7f565b6040805160208082528351818301528351919283929083019185019080838360005b838110156103bf5781810151838201526020016103a7565b50505050905090810190601f1680156103ec5780820380516001836020036101000a031916815260200191505b509250505060405180910390f35b34801561040657600080fd5b5061042d6004803603602081101561041d57600080fd5b50356001600160a01b0316610d16565b005b34801561043b57600080fd5b506104686004803603604081101561045257600080fd5b506001600160a01b038135169060200135610d85565b604080519115158252519081900360200190f35b34801561048857600080fd5b506104af6004803603602081101561049f57600080fd5b50356001600160a01b0316610da3565b60408051918252519081900360200190f35b3480156104cd57600080fd5b506104af610db5565b3480156104e257600080fd5b506104af610dbb565b3480156104f757600080fd5b506104af6004803603602081101561050e57600080fd5b50356001600160a01b0316610dc1565b61042d6004803603606081101561053457600080fd5b50803515159060208101356001600160a01b031690604001356001600160501b0316610dd3565b34801561056757600080fd5b506104af6112dc565b34801561057c57600080fd5b506105856112e2565b604080516001600160a01b039092168252519081900360200190f35b3480156105ad57600080fd5b5061042d600480360360208110156105c457600080fd5b50356112f1565b3480156105d757600080fd5b50610468600480360360608110156105ee57600080fd5b506001600160a01b03813581169160208101359091169060400135611343565b34801561061a57600080fd5b5061042d6004803603602081101561063157600080fd5b50356113d0565b34801561064457600080fd5b506104af6115f9565b34801561065957600080fd5b506106626115ff565b6040805160ff9092168252519081900360200190f35b34801561068457600080fd5b5061042d611608565b34801561069957600080fd5b5061042d600480360360208110156106b057600080fd5b50356117b8565b3480156106c357600080fd5b50610468600480360360408110156106da57600080fd5b506001600160a01b03813516906020013561180a565b61042d61185e565b34801561070457600080fd5b5061042d611967565b34801561071957600080fd5b506107376004803603602081101561073057600080fd5b50356119c8565b604080516001600160a01b039b8c168152602081019a909a528981019890985260608901969096526001600160501b0394851660808901529290931660a0870152151560c086015290851660e08501529093166101008301529115156101208201529051908190036101400190f35b3480156107b257600080fd5b5061042d600480360360208110156107c957600080fd5b5035611a4d565b3480156107dc57600080fd5b506104af611aeb565b3480156107f157600080fd5b5061042d6004803603602081101561080857600080fd5b50356001600160a01b0316611af1565b34801561082457600080fd5b506104af611b60565b34801561083957600080fd5b5061042d6004803603602081101561085057600080fd5b5035611b66565b34801561086357600080fd5b506104af611c0f565b34801561087857600080fd5b50610585611c15565b34801561088d57600080fd5b506104af611c29565b3480156108a257600080fd5b5061042d600480360360208110156108b957600080fd5b50356001600160a01b0316611c2f565b3480156108d557600080fd5b506104af611c9e565b3480156108ea57600080fd5b506104af6004803603608081101561090157600080fd5b506001600160a01b0381351690602081013590604081013590606001351515611ca4565b34801561093157600080fd5b506104af6004803603602081101561094857600080fd5b50356001600160a01b0316611eab565b34801561096457600080fd5b50610468611eca565b34801561097957600080fd5b506104af6004803603602081101561099057600080fd5b50356001600160a01b0316611ed3565b3480156109ac57600080fd5b50610585611ee5565b3480156109c157600080fd5b50610385611ef4565b3480156109d657600080fd5b5061042d600480360360208110156109ed57600080fd5b5035611f55565b348015610a0057600080fd5b506104af60048036036020811015610a1757600080fd5b50356001600160a01b0316612234565b348015610a3357600080fd5b5061042d60048036036020811015610a4a57600080fd5b50351515612366565b348015610a5f57600080fd5b5061042d60048036036020811015610a7657600080fd5b50356123c6565b348015610a8957600080fd5b5061046860048036036040811015610aa057600080fd5b506001600160a01b03813516906020013561245c565b348015610ac257600080fd5b506104af6124ca565b348015610ad757600080fd5b5061046860048036036040811015610aee57600080fd5b506001600160a01b0381351690602001356124d0565b348015610b1057600080fd5b506104af6124e4565b348015610b2557600080fd5b506105856124ea565b348015610b3a57600080fd5b506104af6124f9565b348015610b4f57600080fd5b506104af60048036036040811015610b6657600080fd5b5080359060200135151561252e565b348015610b8157600080fd5b506104af6125bf565b348015610b9657600080fd5b506105856125c5565b348015610bab57600080fd5b506104af6125c9565b348015610bc057600080fd5b506104af60048036036040811015610bd757600080fd5b506001600160a01b03813581169160200135166125cf565b348015610bfb57600080fd5b506105856125fa565b348015610c1057600080fd5b506104af60048036036020811015610c2757600080fd5b50356001600160a01b0316612609565b348015610c4357600080fd5b5061042d60048036036020811015610c5a57600080fd5b50356001600160a01b031661261b565b348015610c7657600080fd5b50610468612690565b60038054604080516020601f6002600019610100600188161502019095169490940493840181900481028201810190925282815260609390929091830182828015610d0b5780601f10610ce057610100808354040283529160200191610d0b565b820191906000526020600020905b815481529060010190602001808311610cee57829003601f168201915b505050505090505b90565b6006546001600160a01b03163314610d63576040805162461bcd60e51b815260206004820181905260248201526000805160206133c6833981519152604482015290519081900360640190fd5b600980546001600160a01b0319166001600160a01b0392909216919091179055565b6000610d99610d92612699565b848461269d565b5060015b92915050565b600e6020526000908152604090205481565b60125481565b60025490565b600d6020526000908152604090205481565b601154816001600160501b031610158015610df95750601254816001600160501b031611155b610e39576040805162461bcd60e51b815260206004820152600c60248201526b496e76616c69642074696d6560a01b604482015290519081900360640190fd5b6009546040805163b7a9eaa960e01b81526001600160a01b03858116600483015291519190921691829163b7a9eaa991602480820192602092909190829003018186803b158015610e8957600080fd5b505afa158015610e9d573d6000803e3d6000fd5b505050506040513d6020811015610eb357600080fd5b50516001600160a01b0316610f0f576040805162461bcd60e51b815260206004820152601760248201527f496e76616c6964202070726963652070726f7669646572000000000000000000604482015290519081900360640190fd5b6000839050600080826001600160a01b031663feaf968c6040518163ffffffff1660e01b815260040160a06040518083038186803b158015610f5057600080fd5b505afa158015610f64573d6000803e3d6000fd5b505050506040513d60a0811015610f7a57600080fd5b5080516020909101516019549193509150610f936124f9565b341115610fe0576040805162461bcd60e51b81526020600482015260166024820152756f7074696f6e2076616c756520746f6f206c6172676560501b604482015290519081900360640190fd5b6000610ff78834896001600160501b03168c611ca4565b601c5490915060ff16156110405761102f61101334600061252e565b336000908152600c60205260409020549063ffffffff61278916565b336000908152600c60205260409020555b611049816127ea565b611051613246565b604051806101400160405280336001600160a01b03168152602001858152602001348152602001838152602001866001600160501b03168152602001896001600160501b031681526020018b151581526020018a6001600160a01b03168152602001306001600160a01b03168152602001600015158152509050601981908060018154018082558091505060019003906000526020600020906007020160009091909190915060008201518160000160006101000a8154816001600160a01b0302191690836001600160a01b0316021790555060208201518160010155604082015181600201556060820151816003015560808201518160040160006101000a8154816001600160501b0302191690836001600160501b0316021790555060a082015181600401600a6101000a8154816001600160501b0302191690836001600160501b0316021790555060c08201518160040160146101000a81548160ff02191690831515021790555060e08201518160050160006101000a8154816001600160a01b0302191690836001600160a01b031602179055506101008201518160060160006101000a8154816001600160a01b0302191690836001600160a01b031602179055506101208201518160060160146101000a81548160ff021916908315150217905550505061124f82601a5461278990919063ffffffff16565b601a55891561126557600f80548301905561126e565b60108054830190555b60408051338152602081018690528082018490528b151560608201526001600160501b0380881660808301528a1660a0820152905184917fcd8984b7ffc01146a9ba9096d805b0bec246d7f8e52837a7b5f404464f6b229b919081900360c00190a250505050505050505050565b601b5481565b6007546001600160a01b031681565b6006546001600160a01b0316331461133e576040805162461bcd60e51b815260206004820181905260248201526000805160206133c6833981519152604482015290519081900360640190fd5b601255565b6000611350848484612803565b6113c68461135c612699565b6113c18560405180606001604052806028815260200161339e602891396001600160a01b038a1660009081526001602052604081209061139a612699565b6001600160a01b03168152602081019190915260400160002054919063ffffffff61296a16565b61269d565b5060019392505050565b806113da33611eab565b101561142d576040805162461bcd60e51b815260206004820152601960248201527f496e737566666963656e742053686172652042616c616e636500000000000000604482015290519081900360640190fd5b336000908152600b6020526040812042905561147b61144a610dbb565b61146f61146260135447612a0190919063ffffffff16565b859063ffffffff612a4316565b9063ffffffff612a9c16565b90506114873383612ade565b336000908152600a602052604090205442116115965760006114b082606463ffffffff612a9c16565b60055460405191925061010090046001600160a01b0316906108fc8315029083906000818181858888f19350505050611522576040805162461bcd60e51b815260206004820152600f60248201526e1d1c985b9cd9995c8819985a5b1959608a1b604482015290519081900360640190fd5b336108fc611536848463ffffffff612a0116565b6040518115909202916000818181858888f19350505050611590576040805162461bcd60e51b815260206004820152600f60248201526e1d1c985b9cd9995c8819985a5b1959608a1b604482015290519081900360640190fd5b506115f5565b604051339082156108fc029083906000818181858888f193505050506115f5576040805162461bcd60e51b815260206004820152600f60248201526e1d1c985b9cd9995c8819985a5b1959608a1b604482015290519081900360640190fd5b5050565b60105481565b60055460ff1690565b600754336000818152600e6020908152604080832054600d909252822054601a546001600160a01b039095169492938593635793148493929161164a90611eab565b611652610dbb565b6040518663ffffffff1660e01b8152600401808681526020018581526020018481526020018381526020018281526020019550505050505060206040518083038186803b1580156116a257600080fd5b505afa1580156116b6573d6000803e3d6000fd5b505050506040513d60208110156116cc57600080fd5b5051336000818152600c60205260409020549192506001906116ed90611eab565b106116fa576116fa612be6565b60408051633a0d778960e11b8152600481018490526024810183905233604482015290516000916001600160a01b0386169163741aef129160648082019260209290919082900301818787803b15801561175357600080fd5b505af1158015611767573d6000803e3d6000fd5b505050506040513d602081101561177d57600080fd5b5051336000908152600c60205260409020549091506117a2908263ffffffff612a0116565b336000908152600c602052604090205550505050565b6006546001600160a01b03163314611805576040805162461bcd60e51b815260206004820181905260248201526000805160206133c6833981519152604482015290519081900360640190fd5b601155565b6000610d99611817612699565b846113c18560016000611828612699565b6001600160a01b03908116825260208083019390935260409182016000908120918c16815292529020549063ffffffff61278916565b60185460ff166118ab576040805162461bcd60e51b81526020600482015260136024820152721c1bdbdb0819195c1bdcda5d0818db1bdcd959606a1b604482015290519081900360640190fd5b60643410156118f2576040805162461bcd60e51b815260206004820152600e60248201526d1cdd185ad9481d1bc81cdb585b1b60921b604482015290519081900360640190fd5b6118fb33611eab565b61193a57336000908152600b60205260409020429055601b546119299061101390600263ffffffff612a4316565b336000908152600c60205260409020555b611942612be6565b601654336000818152600a60205260409020429092019091556119659034612c09565b565b6006546001600160a01b031633146119b4576040805162461bcd60e51b815260206004820181905260248201526000805160206133c6833981519152604482015290519081900360640190fd5b6018805460ff19811660ff90911615179055565b601981815481106119d557fe5b600091825260209091206007909102018054600182015460028301546003840154600485015460058601546006909601546001600160a01b0395861697509395929491936001600160501b0380831694600160501b84049091169360ff600160a01b948590048116949282169391821692909104168a565b6006546001600160a01b03163314611a9a576040805162461bcd60e51b815260206004820181905260248201526000805160206133c6833981519152604482015290519081900360640190fd5b801580611aa75750603281115b611ae6576040805162461bcd60e51b815260206004820152600b60248201526a696e76616c69642066656560a81b604482015290519081900360640190fd5b601555565b60145481565b6006546001600160a01b03163314611b3e576040805162461bcd60e51b815260206004820181905260248201526000805160206133c6833981519152604482015290519081900360640190fd5b600680546001600160a01b0319166001600160a01b0392909216919091179055565b60175481565b6006546001600160a01b03163314611bb3576040805162461bcd60e51b815260206004820181905260248201526000805160206133c6833981519152604482015290519081900360640190fd5b621275008110611c0a576040805162461bcd60e51b815260206004820152601860248201527f696e76616c696420706f6f6c206c6f636b20706572696f640000000000000000604482015290519081900360640190fd5b601655565b60165481565b60055461010090046001600160a01b031681565b600f5481565b6006546001600160a01b03163314611c7c576040805162461bcd60e51b815260206004820181905260248201526000805160206133c6833981519152604482015290519081900360640190fd5b600780546001600160a01b0319166001600160a01b0392909216919091179055565b60135481565b6009546040805163b7a9eaa960e01b81526001600160a01b03878116600483015291516000939290921691829163b7a9eaa9916024808301926020929190829003018186803b158015611cf657600080fd5b505afa158015611d0a573d6000803e3d6000fd5b505050506040513d6020811015611d2057600080fd5b50516001600160a01b0316611d73576040805162461bcd60e51b815260206004820152601460248201527334b73b30b634b2103a3930b234b733903830b4b960611b604482015290519081900360640190fd5b6000816001600160a01b031663b7a9eaa9886040518263ffffffff1660e01b815260040180826001600160a01b03166001600160a01b0316815260200191505060206040518083038186803b158015611dcb57600080fd5b505afa158015611ddf573d6000803e3d6000fd5b505050506040513d6020811015611df557600080fd5b5051601354600f54601054604080516323417ee760e11b8152600481018c90526024810194909452604484018a90528815156064850152608484019290925260a48301524760c4830152519192506001600160a01b03831691634682fdce9160e480820192602092909190829003018186803b158015611e7457600080fd5b505afa158015611e88573d6000803e3d6000fd5b505050506040513d6020811015611e9e57600080fd5b5051979650505050505050565b6001600160a01b0381166000908152602081905260409020545b919050565b601c5460ff1681565b600a6020526000908152604090205481565b6006546001600160a01b031681565b60048054604080516020601f6002600019610100600188161502019095169490940493840181900481028201810190925282815260609390929091830182828015610d0b5780601f10610ce057610100808354040283529160200191610d0b565b611f5d613246565b60198281548110611f6a57fe5b60009182526020918290206040805161014081018252600790930290910180546001600160a01b0390811684526001820154948401949094526002810154918301919091526003810154606083015260048101546001600160501b038082166080850152600160501b82041660a084015260ff600160a01b918290048116151560c08501526005830154851660e085015260069092015493841661010084015290920490911615801561012083015290915061206d576040805162461bcd60e51b815260206004820152601860248201527f6f7074696f6e20616c726561647920636f6d706c657465640000000000000000604482015290519081900360640190fd5b60008160e001519050600080826001600160a01b0316639a6fc8f58560a001518660800151016040518263ffffffff1660e01b815260040180826001600160501b03166001600160501b0316815260200191505060a06040518083038186803b1580156120d957600080fd5b505afa1580156120ed573d6000803e3d6000fd5b505050506040513d60a081101561210357600080fd5b5080516020909101519092509050801580159061212857506001600160501b03821615155b612169576040805162461bcd60e51b815260206004820152600d60248201526c1b9bdd081c9958591e481e595d609a1b604482015290519081900360640190fd5b600161012085015260c0840151156121bf578084602001511315612196576121918486612d05565b6121a0565b6121a08486612d5c565b6060840151600f546121b79163ffffffff612a0116565b600f556121ff565b83602001518113156121da576121d58486612d05565b6121e4565b6121e48486612d5c565b60608401516010546121fb9163ffffffff612a0116565b6010555b601c5460ff161561222d5761221c6110138560600151600161252e565b336000908152600c60205260409020555b5050505050565b6007546000906001600160a01b0316600161224e84611eab565b1115612346576001600160a01b038381166000908152600e6020908152604080832054600d90925290912054601a5461233e93851692635793148492909161229589611eab565b61229d610dbb565b6040518663ffffffff1660e01b8152600401808681526020018581526020018481526020018381526020018281526020019550505050505060206040518083038186803b1580156122ed57600080fd5b505afa158015612301573d6000803e3d6000fd5b505050506040513d602081101561231757600080fd5b50516001600160a01b0385166000908152600c60205260409020549063ffffffff61278916565b915050611ec5565b50506001600160a01b0381166000908152600c6020526040902054611ec5565b6006546001600160a01b031633146123b3576040805162461bcd60e51b815260206004820181905260248201526000805160206133c6833981519152604482015290519081900360640190fd5b601c805460ff1916911515919091179055565b6006546001600160a01b03163314612413576040805162461bcd60e51b815260206004820181905260248201526000805160206133c6833981519152604482015290519081900360640190fd5b6005811015612457576040805162461bcd60e51b815260206004820152600b60248201526a696e76616c69642066656560a81b604482015290519081900360640190fd5b601455565b6000610d99612469612699565b846113c1856040518060600160405280602581526020016134506025913960016000612493612699565b6001600160a01b03908116825260208083019390935260409182016000908120918d1681529252902054919063ffffffff61296a16565b60195490565b6000610d996124dd612699565b8484612803565b60155481565b6009546001600160a01b031681565b60135460009047908111156125245760135461251c90829063ffffffff612a0116565b915050610d13565b6000915050610d13565b6007546040805163076a375160e51b815260048101859052476024820152831515604482015290516000926001600160a01b031691829163ed46ea2091606480820192602092909190829003018186803b15801561258b57600080fd5b505afa15801561259f573d6000803e3d6000fd5b505050506040513d60208110156125b557600080fd5b5051949350505050565b60115481565b3090565b601a5481565b6001600160a01b03918216600090815260016020908152604080832093909416825291909152205490565b6008546001600160a01b031681565b600b6020526000908152604090205481565b6006546001600160a01b03163314612668576040805162461bcd60e51b815260206004820181905260248201526000805160206133c6833981519152604482015290519081900360640190fd5b600580546001600160a01b0390921661010002610100600160a81b0319909216919091179055565b60185460ff1681565b3390565b6001600160a01b0383166126e25760405162461bcd60e51b815260040180806020018281038252602481526020018061342c6024913960400191505060405180910390fd5b6001600160a01b0382166127275760405162461bcd60e51b81526004018080602001828103825260228152602001806132e06022913960400191505060405180910390fd5b6001600160a01b03808416600081815260016020908152604080832094871680845294825291829020859055815185815291517f8c5be1e5ebec7d5bd14f71427d1e84f3dd0314c0f7b2291e5b200ac8c7c3b9259281900390910190a3505050565b6000828201838110156127e3576040805162461bcd60e51b815260206004820152601b60248201527f536166654d6174683a206164646974696f6e206f766572666c6f770000000000604482015290519081900360640190fd5b9392505050565b6013546127fd908263ffffffff61278916565b60135550565b6001600160a01b0383166128485760405162461bcd60e51b81526004018080602001828103825260258152602001806134076025913960400191505060405180910390fd5b6001600160a01b03821661288d5760405162461bcd60e51b815260040180806020018281038252602381526020018061329b6023913960400191505060405180910390fd5b612898838383612e7d565b6128db81604051806060016040528060268152602001613302602691396001600160a01b038616600090815260208190526040902054919063ffffffff61296a16565b6001600160a01b038085166000908152602081905260408082209390935590841681522054612910908263ffffffff61278916565b6001600160a01b038084166000818152602081815260409182902094909455805185815290519193928716927fddf252ad1be2c89b69c2b068fc378daa952ba7f163c4a11628f55a4df523b3ef92918290030190a3505050565b600081848411156129f95760405162461bcd60e51b81526004018080602001828103825283818151815260200191508051906020019080838360005b838110156129be5781810151838201526020016129a6565b50505050905090810190601f1680156129eb5780820380516001836020036101000a031916815260200191505b509250505060405180910390fd5b505050900390565b60006127e383836040518060400160405280601e81526020017f536166654d6174683a207375627472616374696f6e206f766572666c6f77000081525061296a565b600082612a5257506000610d9d565b82820282848281612a5f57fe5b04146127e35760405162461bcd60e51b815260040180806020018281038252602181526020018061337d6021913960400191505060405180910390fd5b60006127e383836040518060400160405280601a81526020017f536166654d6174683a206469766973696f6e206279207a65726f000000000000815250612e82565b6001600160a01b038216612b235760405162461bcd60e51b81526004018080602001828103825260218152602001806133e66021913960400191505060405180910390fd5b612b2f82600083612e7d565b612b72816040518060600160405280602281526020016132be602291396001600160a01b038516600090815260208190526040902054919063ffffffff61296a16565b6001600160a01b038316600090815260208190526040902055600254612b9e908263ffffffff612a0116565b6002556040805182815290516000916001600160a01b038516917fddf252ad1be2c89b69c2b068fc378daa952ba7f163c4a11628f55a4df523b3ef9181900360200190a35050565b336000908152600e60209081526040808320439055601a54600d90925290912055565b6001600160a01b038216612c64576040805162461bcd60e51b815260206004820152601f60248201527f45524332303a206d696e7420746f20746865207a65726f206164647265737300604482015290519081900360640190fd5b612c7060008383612e7d565b600254612c83908263ffffffff61278916565b6002556001600160a01b038216600090815260208190526040902054612caf908263ffffffff61278916565b6001600160a01b0383166000818152602081815260408083209490945583518581529351929391927fddf252ad1be2c89b69c2b068fc378daa952ba7f163c4a11628f55a4df523b3ef9281900390910190a35050565b612d13826060015133612ee7565b6060820151601354612d2a9163ffffffff612a0116565b60135560405181907fa33fd53ba34795ffefaea3759c71f87d38b89ae12e40bc434c826fae0ca5358390600090a25050565b606082015160155481118015612d7457506000601554115b15612e24576000612d9060155483612a9c90919063ffffffff16565b60055460405191925061010090046001600160a01b0316906108fc8315029083906000818181858888f19350505050612e10576040805162461bcd60e51b815260206004820152601b60248201527f70726f746f636f6c466565207472616e73666572206661696c65640000000000604482015290519081900360640190fd5b612e20828263ffffffff612a0116565b9150505b612e3381338560000151612fc2565b6060830151601354612e4a9163ffffffff612a0116565b60135560405182907fa2a53c7cb82eeb7994ccbbab71bea210cd63cfeb7823972fb5b6a49c3b0e1d4c90600090a2505050565b505050565b60008183612ed15760405162461bcd60e51b81526020600482018181528351602484015283519092839260449091019190850190808383600083156129be5781810151838201526020016129a6565b506000838581612edd57fe5b0495945050505050565b601354821115612f285760405162461bcd60e51b81526004018080602001828103825260298152602001806133546029913960400191505060405180910390fd5b6000612f44606461146f60145486612a9c90919063ffffffff16565b90508015612e7d576040516001600160a01b0383169082156108fc029083906000818181858888f19350505050612e7d576040805162461bcd60e51b815260206004820152601e60248201527f676f6f642073616d61726974616e207472616e73666572206661696c65640000604482015290519081900360640190fd5b6013548311156130035760405162461bcd60e51b815260040180806020018281038252602c815260200180613328602c913960400191505060405180910390fd5b47831115613058576040805162461bcd60e51b815260206004820152601b60248201527f696e737566666963656e742062616c616e636520696e20706f6f6c0000000000604482015290519081900360640190fd5b806001600160a01b0316826001600160a01b03161461318f57600061308d606461146f60145487612a9c90919063ffffffff16565b9050801561310b576040516001600160a01b0384169082156108fc029083906000818181858888f1935050505061310b576040805162461bcd60e51b815260206004820152601960248201527f657865726369736572207472616e73666572206661696c656400000000000000604482015290519081900360640190fd5b6001600160a01b0382166108fc613128868463ffffffff612a0116565b6040518115909202916000818181858888f19350505050613189576040805162461bcd60e51b81526020600482015260166024820152751dda5b9b995c881d1c985b9cd9995c8819985a5b195960521b604482015290519081900360640190fd5b506131fe565b6040516001600160a01b0382169084156108fc029085906000818181858888f193505050506131fe576040805162461bcd60e51b81526020600482015260166024820152751dda5b9b995c881d1c985b9cd9995c8819985a5b195960521b604482015290519081900360640190fd5b604080518481526001600160a01b038316602082015281517f9b5d1a613fa5f0790b36b13103706e31fca06b229d87e9915b29fc20c1d76490929181900390910190a1505050565b6040805161014081018252600080825260208201819052918101829052606081018290526080810182905260a0810182905260c0810182905260e0810182905261010081018290526101208101919091529056fe45524332303a207472616e7366657220746f20746865207a65726f206164647265737345524332303a206275726e20616d6f756e7420657863656564732062616c616e636545524332303a20617070726f766520746f20746865207a65726f206164647265737345524332303a207472616e7366657220616d6f756e7420657863656564732062616c616e6365696e737566666963656e7420706f6f6c2062616c616e636520617661696c61626c6520746f207061796f7574696e737566666963656e74206c6f636b656420706f6f6c2062616c616e636520746f20756e6c6f636b536166654d6174683a206d756c7469706c69636174696f6e206f766572666c6f7745524332303a207472616e7366657220616d6f756e74206578636565647320616c6c6f77616e63654f776e61626c653a2063616c6c6572206973206e6f7420746865206f776e657245524332303a206275726e2066726f6d20746865207a65726f206164647265737345524332303a207472616e736665722066726f6d20746865207a65726f206164647265737345524332303a20617070726f76652066726f6d20746865207a65726f206164647265737345524332303a2064656372656173656420616c6c6f77616e63652062656c6f77207a65726fa2646970667358221220c9735781d1d987cffd49e99ce2237eb52496c28d7afa62ff03e3f844c862867864736f6c63430006060033",
  "immutableReferences": {},
  "source": "pragma solidity 0.6.6;\n\nimport \"@openzeppelin/contracts/math/SafeMath.sol\";\nimport \"@openzeppelin/contracts/token/ERC20/ERC20.sol\";\n\n\n\nimport \"./BIOPTokenV4.sol\";\nimport \"./RateCalc.sol\";\nimport \"./interfaces/IUtilizationRewards.sol\";\nimport \"./interfaces/INativeAssetDenominatedBinaryOptions.sol\";\nimport \"./interfaces/IAPP.sol\";\nimport \"./Chainlink/AggregatorProxy.sol\";\n\n\ncontract NativeAssetDenominatedBinaryOptions is ERC20, INativeAssetDenominatedBinaryOptions {\n    using SafeMath for uint256;\n    address payable public treasury;\n    address payable public owner;\n    address public uR; //utilization rewards\n    address public biop;\n    address public app;//the approved pp/ratecalc\n    mapping(address=>uint256) public nW; //next withdraw (used for pool lock time)\n    mapping(address=>uint256) public lW;//last withdraw.used for rewards calc\n    mapping(address=>uint256) private pClaims;//pending claims\n    mapping(address=>uint256) public iAL;//interchange at last claim\n    mapping(address=>uint256) public lST;//last stake time\n\n\n    uint256 public oC;//the total amount of captial locked in call direction\n    uint256 public oP;//the total amount of capital locked in put direction\n\n\n\n    uint256 public minT;//minimum number of rounds\n    uint256 public maxT;//maximum number of rounds\n    uint256 public lockedAmount;//the amount locked into the pool by the liquidity provider\n    uint256 public settlerFee = 5;//0.2%\n    uint256 public protocolFee = 100;//1%\n    uint256 public poolLockSeconds = 1209600;//14 days\n    uint256 public contractCreated;\n    bool public open = true;\n    Option[] public options;\n\n    uint256 public tI;//total interchange\n    uint256 public rwd =  20000000000000000; //base utilization reward (0.02 BIOP)\n    bool public rewEn = true;//rewards enabled\n\n\n    modifier onlyOwner() {\n        require(owner == msg.sender, \"Ownable: caller is not the owner\");\n        _;\n    }\n\n\n    /* Types */\n    struct Option {\n        address payable holder;\n        int256 sP;//strike\n        uint256 pV;//purchase value\n        uint256 lV;// in-the-money option value (lockedValue)\n        uint80 pR;//purchase round\n        uint80 exp;//expiration round\n        bool dir;//direction (true for call)\n        address pP;//price provider\n        address aPA;//alt pool address\n        bool complete;\n    }\n\n    /* Events */\n     event Create(\n        uint256 indexed id,\n        address payable account,\n        int256 sP,//strike\n        uint256 lV,//locked value\n        bool dir,//direction (true for call)\n        uint80 pR,//purchase round\n        uint80 exp//expiration round\n    );\n    event Payout(uint256 poolLost, address winner);\n    event Exercise(uint256 indexed id);\n    event Expire(uint256 indexed id);\n\n\n    /**\n     * @param name_ the name of the LP token\n     * @param symbol_ the symbol of the LP token\n     * @param biop_ address of the gov token\n     * @param uR_ address of utilization rewards contract\n     * @param app_ address of approved price providers contract\n     */\n      constructor(string memory name_, string memory symbol_, address biop_, address uR_, address app_) public ERC20(name_, symbol_){\n        treasury = msg.sender;\n        owner = msg.sender;\n        biop = biop_;\n        lockedAmount = 0;\n        contractCreated = block.timestamp;\n        minT = 1;\n        maxT = 1;\n        uR = uR_;\n        app = app_;\n    }\n\n    /**\n      @dev Get the maximum option premium (payment) possible\n      */\n    function getMaxAvailable() public view returns(uint256) {\n        uint256 balance = address(this).balance;\n        if (balance > lockedAmount) {\n            return balance.sub(lockedAmount);\n        } else {\n            return 0;\n        }\n    }\n\n\n    function getOptionCount() public view returns(uint256) {\n        return options.length;\n    }\n\n\n    //used for openPosition/settlement calculations\n    function getTradeExerciseBonus(uint256 amount, bool completion) public view returns(uint256) {\n        IUtilizationRewards r = IUtilizationRewards(uR);\n        return r.getTradeExerciseBonus(amount, address(this).balance, completion);\n    }\n\n\n\n    function getPendingClaims(address account) public view returns(uint256) {\n\n        IUtilizationRewards r = IUtilizationRewards(uR);\n        if (balanceOf(account) > 1) {\n            //reward bonus for staking\n            //base*(weeks)*(poolBalanceBonus/10)*optionsBacked\n            return pClaims[account].add(\n                r.getLPStakingBonus(lST[account],iAL[account], tI, balanceOf(account), totalSupply())\n            );\n        } else {\n            //normal rewards\n            return pClaims[account];\n        }\n    }\n\n    function updateLPmetrics() internal {\n        lST[msg.sender] = block.number;\n        iAL[msg.sender] = tI;\n    }\n\n     /**\n     * @dev distribute pending governance token claims to user\n     */\n    function claimRewards() external {\n        IUtilizationRewards r = IUtilizationRewards(uR);\n        uint256 stakerClaims = r.getLPStakingBonus(lST[msg.sender],iAL[msg.sender], tI, balanceOf(msg.sender), totalSupply());\n        uint256 otherClaims = pClaims[msg.sender];\n        if (balanceOf(msg.sender) >= 1) {\n            updateLPmetrics();\n        }\n\n        uint256 otherClaimed = r.distributeClaim(stakerClaims, otherClaims, msg.sender);\n        \n        pClaims[msg.sender] = pClaims[msg.sender].sub(otherClaimed);\n    }\n\n    /**\n     * @dev address of this contract, convenience method\n     */\n    function thisAddress() public view returns (address){\n        return address(this);\n    }\n\n    /**\n     * @dev update reward base amount\n     * @param newUR the new UtilizationRewards contract to use\n     */\n    function updateUtilizationRewards(address newUR) external override onlyOwner {\n        uR = newUR;\n    }\n\n    /**\n     * @dev update APP\n     * @param newAPP the new approved price provider (and ratecalc contract to use). Must be a IAPP\n     */\n    function updateAPP(address newAPP) external override onlyOwner {\n        app = newAPP;\n    }\n\n\n\n    /**\n     * @dev enable or disable BIOP utilization rewards\n     * @param nx_ the new position for the rewEn switch\n     */\n    function enableRewards(bool nx_) external override onlyOwner {\n        rewEn = nx_;\n    }\n\n    /**\n     * @dev update the max rounds for an option position\n     * @param newMax_ the new maximum time (in rounds) an option may be created for (inclusive).\n     */\n    function setMaxT(uint256 newMax_) external override onlyOwner {\n        maxT = newMax_;\n    }\n\n    /**\n     * @dev update the min rounds for an option position\n     * @param newMin_ the new minimum time (in rounds) an option may be created for (inclusive).\n     */\n    function setMinT(uint256 newMin_) external override onlyOwner {\n        minT = newMin_;\n    }\n\n\n\n    /**\n     * @dev set the fee users can recieve for settling other users options\n     * @param fee_ the new fee for settling a options\n     */\n    function updateSettlerFee(uint256 fee_) external override onlyOwner {\n        require(fee_ >= 5, \"invalid fee\");\n        settlerFee = fee_;\n    }\n\n\n\n    /**\n     * @dev set the fee users pay to buy an option\n     * @param newProtocolFee_ the new fee (in tenth percent) to buy an option\n     */\n    function updateProtocolFee(uint256 newProtocolFee_) external override onlyOwner {\n        require(newProtocolFee_ == 0 || newProtocolFee_ > 50, \"invalid fee\");\n        protocolFee = newProtocolFee_;\n    }\n\n     /**\n     * @dev update the pool stake lock up time.\n     * @param newLockSeconds_ the new lock time, in seconds\n     */\n    function updatePoolLockSeconds(uint256 newLockSeconds_) external override onlyOwner {\n        //make sure that the pool lock period never exceeds 14 days (1209600 seconds)\n        require(newLockSeconds_ >= 0 && newLockSeconds_ < 1209600, \"invalid pool lock period\");\n        poolLockSeconds = newLockSeconds_;\n    }\n\n    /**\n     * @dev used to transfer ownership\n     * @param newOwner_ the address of governance contract which takes over control\n     */\n    function transferOwner(address payable newOwner_) external override onlyOwner {\n        owner = newOwner_;\n    }\n\n    /**\n     * @dev used to transfer fees\n     * @param newTreasury_ the new address to use\n     */\n    function transferDevFund(address payable newTreasury_) external override onlyOwner {\n        treasury = newTreasury_;\n    }\n\n\n     /**\n     * @dev used to send this pool into EOL mode when a newer one is open\n     */\n    function toggleStaking() external override onlyOwner {\n        open = !open;\n    }\n\n\n\n\n    /**\n     * @dev send ETH to the pool. Recieve pETH token representing your claim.\n     * If rewards are available recieve BIOP governance tokens as well.\n    */\n    function stake() external payable {\n        require(open, \"pool deposit closed\");\n        require(msg.value >= 100, \"stake to small\");\n        if (balanceOf(msg.sender) == 0) {\n            lW[msg.sender] = block.timestamp;\n            pClaims[msg.sender] = pClaims[msg.sender].add(rwd.mul(2));\n        }\n        updateLPmetrics();\n        nW[msg.sender] = block.timestamp + poolLockSeconds;//this one is seperate because it isn't updated on reward claim\n\n        _mint(msg.sender, msg.value);\n    }\n\n    /**\n     * @dev recieve ETH from the pool.\n     * If the current time is before your next available withdraw a 1% fee will be applied.\n     * @param amount The amount of pETH to return the pool (burn).\n    */\n    function withdraw(uint256 amount) public {\n       require (balanceOf(msg.sender) >= amount, \"Insufficent Share Balance\");\n        lW[msg.sender] = block.timestamp;\n        //value to receive\n        uint256 vTR = amount.mul(address(this).balance.sub(lockedAmount)).div(totalSupply());\n        _burn(msg.sender, amount);\n        if (block.timestamp <= nW[msg.sender]) {\n            //early withdraw fee\n            uint256 penalty = vTR.div(100);\n            require(treasury.send(penalty), \"transfer failed\");\n            require(msg.sender.send(vTR.sub(penalty)), \"transfer failed\");\n        } else {\n            require(msg.sender.send(vTR), \"transfer failed\");\n        }\n    }\n\n     /**\n    @dev helper for getting rate\n    @param pair the price provider\n    @param deposit option premium (payment) amount\n    @param t time\n    @param k direction bool, true is call\n    @return the rate\n    */\n    function getRate(address pair, uint256 deposit, uint256 t, bool k) public view returns (uint256) {\n        IAPP app_ = IAPP(app);\n        require(app_.aprvd(pair) != 0x0000000000000000000000000000000000000000, \"invalid trading pair\");\n        RateCalc rc = RateCalc(app_.aprvd(pair));\n        return rc.rate(deposit, lockedAmount , t, k, oC, oP, address(this).balance);\n    }\n\n     /**\n    @dev Open a new call or put options.\n    @param k_ type of option to buy (true for call )\n    @param pp_ the address of the price provider to use (must be in the list of aprvd from IAPP)\n    @param t_ the rounds until your options expiration (must be minT < t_ > maxT)\n    */\n    function openPosition(bool k_, address pp_, uint80 t_) external payable override {\n        require(\n            t_ >= minT && t_ <= maxT,\n            \"Invalid time\"\n        );\n        IAPP app_ = IAPP(app);\n        require(app_.aprvd(pp_) != 0x0000000000000000000000000000000000000000, \"Invalid  price provider\");\n\n        AggregatorProxy priceProvider = AggregatorProxy(pp_);\n        (uint80 lR, int256 lA, , , ) = priceProvider.latestRoundData();\n        uint256 oID = options.length;\n\n\n            //normal eth binary option\n            require(msg.value <= getMaxAvailable(), \"option value too large\");\n\n\n\n\n\n            uint256 lV = getRate(pp_, msg.value, t_, k_);\n\n            if (rewEn) {\n                pClaims[msg.sender] = pClaims[msg.sender].add(getTradeExerciseBonus(msg.value, false));\n            }\n            lock(lV);\n\n\n\n        Option memory op = Option(\n            msg.sender,\n            lA,\n            msg.value,\n            lV,\n            lR,\n            t_,//rounds until expiration\n            k_,\n            pp_,\n            address(this),\n            false\n        );\n\n        options.push(op);\n        tI = tI.add(lV);\n        if (k_) {\n            oC = oC+lV;\n        } else {\n            oP = oP+lV;\n        }\n        emit Create(oID, msg.sender, lA, lV, k_, lR, t_);\n    }\n\n\n\n\n\n\n\n     /**\n     * @notice settle an option\n     * @dev exercise and expire functions have been deprecated in favor of this single complete option\n     * @param oID id of the option to complete\n     */\n    function complete(uint256 oID)\n        external\n    {\n        Option memory option = options[oID];\n        require(option.complete == false, \"option already completed\");\n        AggregatorProxy priceProvider = AggregatorProxy(option.pP);\n        (uint80 lR, int256 lA, , , ) = priceProvider.getRoundData(uint80(option.pR+option.exp));\n        require(lA != 0 && lR != 0, \"not ready yet\");\n        option.complete = true;\n        if (option.dir) {\n            //call option\n            if (option.sP > lA) {\n              //OTM expire\n              expire(option, oID);\n            } else {\n              //ITM exercise\n              exercise(option, oID);\n            }\n            oC = oC.sub(option.lV);\n        } else {\n            //put option\n            if (lA > option.sP) {\n              //OTM expire\n              expire(option, oID);\n            } else {\n              //ITM exercise\n              exercise(option, oID);\n            }\n            oP = oP.sub(option.lV);\n        }\n\n\n        if (rewEn) {\n            pClaims[msg.sender] = pClaims[msg.sender].add(getTradeExerciseBonus(option.lV, true));\n        }\n    }\n\n    /**\n     * @notice exercise an option\n     * @dev use complete to exercise (or expire) an option. This is a internal function\n     * @param option the option to exercise\n     * @param oID the option id\n     */\n    function exercise(Option memory option, uint256 oID) internal {\n        //option expires ITM, we pay out\n\n        uint256 lv = option.lV;\n\n        //an optional (to be choosen by contract owner) fee on each option.\n        //A % of the trade money is sent as a fee. see protocolFee\n        if (lv > protocolFee && protocolFee > 0) {\n                uint256 fee = lv.div(protocolFee);\n                require(treasury.send(fee), \"protocolFee transfer failed\");\n                lv = lv.sub(fee);\n        }\n\n        payout(lv, msg.sender, option.holder);\n        lockedAmount = lockedAmount.sub(option.lV);\n\n        emit Exercise(oID);\n    }\n\n     /**\n     * @notice expire an option\n     * @dev use complete to expire (or exercise) an option. This is a internal function\n     * @param option the option to expire\n     * @param oID the option id\n     */\n    function expire(Option memory option, uint256 oID)\n        internal\n    {\n        unlock(option.lV, msg.sender);\n        lockedAmount = lockedAmount.sub(option.lV);\n        emit Expire(oID);\n    }\n\n    /**\n    @dev called by BinaryOptions contract to lock pool value coresponding to new binary options bought.\n    @param amount amount in ETH to lock from the pool total.\n    */\n    function lock(uint256 amount) internal {\n        lockedAmount = lockedAmount.add(amount);\n    }\n\n    /**\n    @dev called by BinaryOptions contract to unlock pool value coresponding to an option expiring otm.\n    @param amount amount in ETH to unlock\n    @param goodSamaritan the user paying to unlock these funds, they recieve a fee\n    */\n    function unlock(uint256 amount, address payable goodSamaritan) internal {\n        require(amount <= lockedAmount, \"insufficent locked pool balance to unlock\");\n        uint256 fee = amount.div(settlerFee).div(100);\n        if (fee > 0) {\n            require(goodSamaritan.send(fee), \"good samaritan transfer failed\");\n        }\n    }\n\n    /**\n    @dev called by BinaryOptions contract to payout pool value coresponding to binary options expiring itm.\n    @param amount amount in ETH to unlock\n    @param exerciser address calling the exercise/expire function, this may the winner or another user who then earns a fee.\n    @param winner address of the winner.\n    @notice exerciser fees are subject to change see updateFeePercent above.\n    */\n    function payout(uint256 amount, address payable exerciser, address payable winner) internal {\n        require(amount <= lockedAmount, \"insufficent pool balance available to payout\");\n        require(amount <= address(this).balance, \"insufficent balance in pool\");\n        if (exerciser != winner) {\n            //good samaratin fee\n            uint256 fee = amount.div(settlerFee).div(100);\n            if (fee > 0) {\n                require(exerciser.send(fee), \"exerciser transfer failed\");\n            }\n            require(winner.send(amount.sub(fee)), \"winner transfer failed\");\n        } else {\n            require(winner.send(amount), \"winner transfer failed\");\n        }\n        emit Payout(amount, winner);\n    }\n\n}\n",
  "sourcePath": "/Users/x/Desktop/eth/BIOPv4/contracts/NativeAssetDenominatedBinaryOptions.sol",
  "compiler": {
    "name": "solc",
    "version": "0.6.6+commit.6c089d02.Emscripten.clang"
  },
  "schemaVersion": "3.3.4",
  "updatedAt": "2021-06-22T04:29:44.175Z",
  "networkType": "ethereum",
  "devdoc": {
    "methods": {
      "allowance(address,address)": {
        "details": "See {IERC20-allowance}."
      },
      "approve(address,uint256)": {
        "details": "See {IERC20-approve}.     * Requirements:     * - `spender` cannot be the zero address."
      },
      "balanceOf(address)": {
        "details": "See {IERC20-balanceOf}."
      },
      "claimRewards()": {
        "details": "distribute pending governance token claims to user"
      },
      "complete(uint256)": {
        "details": "exercise and expire functions have been deprecated in favor of this single complete option",
        "params": {
          "oID": "id of the option to complete"
        }
      },
      "constructor": {
        "params": {
          "app_": "address of approved price providers contract",
          "biop_": "address of the gov token",
          "name_": "the name of the LP token",
          "symbol_": "the symbol of the LP token",
          "uR_": "address of utilization rewards contract"
        }
      },
      "decimals()": {
        "details": "Returns the number of decimals used to get its user representation. For example, if `decimals` equals `2`, a balance of `505` tokens should be displayed to a user as `5,05` (`505 / 10 ** 2`).     * Tokens usually opt for a value of 18, imitating the relationship between Ether and Wei. This is the value {ERC20} uses, unless {_setupDecimals} is called.     * NOTE: This information is only used for _display_ purposes: it in no way affects any of the arithmetic of the contract, including {IERC20-balanceOf} and {IERC20-transfer}."
      },
      "decreaseAllowance(address,uint256)": {
        "details": "Atomically decreases the allowance granted to `spender` by the caller.     * This is an alternative to {approve} that can be used as a mitigation for problems described in {IERC20-approve}.     * Emits an {Approval} event indicating the updated allowance.     * Requirements:     * - `spender` cannot be the zero address. - `spender` must have allowance for the caller of at least `subtractedValue`."
      },
      "enableRewards(bool)": {
        "details": "enable or disable BIOP utilization rewards",
        "params": {
          "nx_": "the new position for the rewEn switch"
        }
      },
      "getMaxAvailable()": {
        "details": "Get the maximum option premium (payment) possible"
      },
      "getRate(address,uint256,uint256,bool)": {
        "details": "helper for getting rate",
        "params": {
          "deposit": "option premium (payment) amount",
          "k": "direction bool, true is call",
          "pair": "the price provider",
          "t": "time"
        },
        "returns": {
          "_0": "the rate"
        }
      },
      "increaseAllowance(address,uint256)": {
        "details": "Atomically increases the allowance granted to `spender` by the caller.     * This is an alternative to {approve} that can be used as a mitigation for problems described in {IERC20-approve}.     * Emits an {Approval} event indicating the updated allowance.     * Requirements:     * - `spender` cannot be the zero address."
      },
      "name()": {
        "details": "Returns the name of the token."
      },
      "openPosition(bool,address,uint80)": {
        "details": "Open a new call or put options.",
        "params": {
          "k_": "type of option to buy (true for call )",
          "pp_": "the address of the price provider to use (must be in the list of aprvd from IAPP)",
          "t_": "the rounds until your options expiration (must be minT < t_ > maxT)"
        }
      },
      "setMaxT(uint256)": {
        "details": "update the max rounds for an option position",
        "params": {
          "newMax_": "the new maximum time (in rounds) an option may be created for (inclusive)."
        }
      },
      "setMinT(uint256)": {
        "details": "update the min rounds for an option position",
        "params": {
          "newMin_": "the new minimum time (in rounds) an option may be created for (inclusive)."
        }
      },
      "stake()": {
        "details": "send ETH to the pool. Recieve pETH token representing your claim. If rewards are available recieve BIOP governance tokens as well."
      },
      "symbol()": {
        "details": "Returns the symbol of the token, usually a shorter version of the name."
      },
      "thisAddress()": {
        "details": "address of this contract, convenience method"
      },
      "toggleStaking()": {
        "details": "used to send this pool into EOL mode when a newer one is open"
      },
      "totalSupply()": {
        "details": "See {IERC20-totalSupply}."
      },
      "transfer(address,uint256)": {
        "details": "See {IERC20-transfer}.     * Requirements:     * - `recipient` cannot be the zero address. - the caller must have a balance of at least `amount`."
      },
      "transferDevFund(address)": {
        "details": "used to transfer fees",
        "params": {
          "newTreasury_": "the new address to use"
        }
      },
      "transferFrom(address,address,uint256)": {
        "details": "See {IERC20-transferFrom}.     * Emits an {Approval} event indicating the updated allowance. This is not required by the EIP. See the note at the beginning of {ERC20}.     * Requirements:     * - `sender` and `recipient` cannot be the zero address. - `sender` must have a balance of at least `amount`. - the caller must have allowance for ``sender``'s tokens of at least `amount`."
      },
      "transferOwner(address)": {
        "details": "used to transfer ownership",
        "params": {
          "newOwner_": "the address of governance contract which takes over control"
        }
      },
      "updateAPP(address)": {
        "details": "update APP",
        "params": {
          "newAPP": "the new approved price provider (and ratecalc contract to use). Must be a IAPP"
        }
      },
      "updatePoolLockSeconds(uint256)": {
        "details": "update the pool stake lock up time.",
        "params": {
          "newLockSeconds_": "the new lock time, in seconds"
        }
      },
      "updateProtocolFee(uint256)": {
        "details": "set the fee users pay to buy an option",
        "params": {
          "newProtocolFee_": "the new fee (in tenth percent) to buy an option"
        }
      },
      "updateSettlerFee(uint256)": {
        "details": "set the fee users can recieve for settling other users options",
        "params": {
          "fee_": "the new fee for settling a options"
        }
      },
      "updateUtilizationRewards(address)": {
        "details": "update reward base amount",
        "params": {
          "newUR": "the new UtilizationRewards contract to use"
        }
      },
      "withdraw(uint256)": {
        "details": "recieve ETH from the pool. If the current time is before your next available withdraw a 1% fee will be applied.",
        "params": {
          "amount": "The amount of pETH to return the pool (burn)."
        }
      }
    }
  },
  "userdoc": {
    "methods": {
      "complete(uint256)": {
        "notice": "settle an option"
      }
    }
  }
}