{
  "contractName": "NativeAssetDenominatedBinaryOptions",
  "abi": [
    {
      "inputs": [
        {
          "internalType": "string",
          "name": "name_",
          "type": "string"
        },
        {
          "internalType": "string",
          "name": "symbol_",
          "type": "string"
        },
        {
          "internalType": "address",
          "name": "biop_",
          "type": "address"
        },
        {
          "internalType": "address",
          "name": "uR_",
          "type": "address"
        },
        {
          "internalType": "address",
          "name": "app_",
          "type": "address"
        }
      ],
      "stateMutability": "nonpayable",
      "type": "constructor"
    },
    {
      "anonymous": false,
      "inputs": [
        {
          "indexed": true,
          "internalType": "address",
          "name": "owner",
          "type": "address"
        },
        {
          "indexed": true,
          "internalType": "address",
          "name": "spender",
          "type": "address"
        },
        {
          "indexed": false,
          "internalType": "uint256",
          "name": "value",
          "type": "uint256"
        }
      ],
      "name": "Approval",
      "type": "event"
    },
    {
      "anonymous": false,
      "inputs": [
        {
          "indexed": true,
          "internalType": "uint256",
          "name": "id",
          "type": "uint256"
        },
        {
          "indexed": false,
          "internalType": "address payable",
          "name": "account",
          "type": "address"
        },
        {
          "indexed": false,
          "internalType": "int256",
          "name": "sP",
          "type": "int256"
        },
        {
          "indexed": false,
          "internalType": "uint256",
          "name": "lV",
          "type": "uint256"
        },
        {
          "indexed": false,
          "internalType": "bool",
          "name": "dir",
          "type": "bool"
        },
        {
          "indexed": false,
          "internalType": "uint80",
          "name": "pR",
          "type": "uint80"
        },
        {
          "indexed": false,
          "internalType": "uint80",
          "name": "exp",
          "type": "uint80"
        }
      ],
      "name": "Create",
      "type": "event"
    },
    {
      "anonymous": false,
      "inputs": [
        {
          "indexed": true,
          "internalType": "uint256",
          "name": "id",
          "type": "uint256"
        }
      ],
      "name": "Exercise",
      "type": "event"
    },
    {
      "anonymous": false,
      "inputs": [
        {
          "indexed": true,
          "internalType": "uint256",
          "name": "id",
          "type": "uint256"
        }
      ],
      "name": "Expire",
      "type": "event"
    },
    {
      "anonymous": false,
      "inputs": [
        {
          "indexed": false,
          "internalType": "uint256",
          "name": "poolLost",
          "type": "uint256"
        },
        {
          "indexed": false,
          "internalType": "address",
          "name": "winner",
          "type": "address"
        }
      ],
      "name": "Payout",
      "type": "event"
    },
    {
      "anonymous": false,
      "inputs": [
        {
          "indexed": true,
          "internalType": "address",
          "name": "from",
          "type": "address"
        },
        {
          "indexed": true,
          "internalType": "address",
          "name": "to",
          "type": "address"
        },
        {
          "indexed": false,
          "internalType": "uint256",
          "name": "value",
          "type": "uint256"
        }
      ],
      "name": "Transfer",
      "type": "event"
    },
    {
      "inputs": [
        {
          "internalType": "address",
          "name": "owner",
          "type": "address"
        },
        {
          "internalType": "address",
          "name": "spender",
          "type": "address"
        }
      ],
      "name": "allowance",
      "outputs": [
        {
          "internalType": "uint256",
          "name": "",
          "type": "uint256"
        }
      ],
      "stateMutability": "view",
      "type": "function"
    },
    {
      "inputs": [],
      "name": "app",
      "outputs": [
        {
          "internalType": "address",
          "name": "",
          "type": "address"
        }
      ],
      "stateMutability": "view",
      "type": "function"
    },
    {
      "inputs": [
        {
          "internalType": "address",
          "name": "spender",
          "type": "address"
        },
        {
          "internalType": "uint256",
          "name": "amount",
          "type": "uint256"
        }
      ],
      "name": "approve",
      "outputs": [
        {
          "internalType": "bool",
          "name": "",
          "type": "bool"
        }
      ],
      "stateMutability": "nonpayable",
      "type": "function"
    },
    {
      "inputs": [
        {
          "internalType": "address",
          "name": "account",
          "type": "address"
        }
      ],
      "name": "balanceOf",
      "outputs": [
        {
          "internalType": "uint256",
          "name": "",
          "type": "uint256"
        }
      ],
      "stateMutability": "view",
      "type": "function"
    },
    {
      "inputs": [],
      "name": "biop",
      "outputs": [
        {
          "internalType": "address",
          "name": "",
          "type": "address"
        }
      ],
      "stateMutability": "view",
      "type": "function"
    },
    {
      "inputs": [],
      "name": "contractCreated",
      "outputs": [
        {
          "internalType": "uint256",
          "name": "",
          "type": "uint256"
        }
      ],
      "stateMutability": "view",
      "type": "function"
    },
    {
      "inputs": [],
      "name": "decimals",
      "outputs": [
        {
          "internalType": "uint8",
          "name": "",
          "type": "uint8"
        }
      ],
      "stateMutability": "view",
      "type": "function"
    },
    {
      "inputs": [
        {
          "internalType": "address",
          "name": "spender",
          "type": "address"
        },
        {
          "internalType": "uint256",
          "name": "subtractedValue",
          "type": "uint256"
        }
      ],
      "name": "decreaseAllowance",
      "outputs": [
        {
          "internalType": "bool",
          "name": "",
          "type": "bool"
        }
      ],
      "stateMutability": "nonpayable",
      "type": "function"
    },
    {
      "inputs": [
        {
          "internalType": "address",
          "name": "",
          "type": "address"
        }
      ],
      "name": "iAL",
      "outputs": [
        {
          "internalType": "uint256",
          "name": "",
          "type": "uint256"
        }
      ],
      "stateMutability": "view",
      "type": "function"
    },
    {
      "inputs": [
        {
          "internalType": "address",
          "name": "spender",
          "type": "address"
        },
        {
          "internalType": "uint256",
          "name": "addedValue",
          "type": "uint256"
        }
      ],
      "name": "increaseAllowance",
      "outputs": [
        {
          "internalType": "bool",
          "name": "",
          "type": "bool"
        }
      ],
      "stateMutability": "nonpayable",
      "type": "function"
    },
    {
      "inputs": [
        {
          "internalType": "address",
          "name": "",
          "type": "address"
        }
      ],
      "name": "lST",
      "outputs": [
        {
          "internalType": "uint256",
          "name": "",
          "type": "uint256"
        }
      ],
      "stateMutability": "view",
      "type": "function"
    },
    {
      "inputs": [
        {
          "internalType": "address",
          "name": "",
          "type": "address"
        }
      ],
      "name": "lW",
      "outputs": [
        {
          "internalType": "uint256",
          "name": "",
          "type": "uint256"
        }
      ],
      "stateMutability": "view",
      "type": "function"
    },
    {
      "inputs": [],
      "name": "lockedAmount",
      "outputs": [
        {
          "internalType": "uint256",
          "name": "",
          "type": "uint256"
        }
      ],
      "stateMutability": "view",
      "type": "function"
    },
    {
      "inputs": [],
      "name": "maxT",
      "outputs": [
        {
          "internalType": "uint256",
          "name": "",
          "type": "uint256"
        }
      ],
      "stateMutability": "view",
      "type": "function"
    },
    {
      "inputs": [],
      "name": "minT",
      "outputs": [
        {
          "internalType": "uint256",
          "name": "",
          "type": "uint256"
        }
      ],
      "stateMutability": "view",
      "type": "function"
    },
    {
      "inputs": [
        {
          "internalType": "address",
          "name": "",
          "type": "address"
        }
      ],
      "name": "nW",
      "outputs": [
        {
          "internalType": "uint256",
          "name": "",
          "type": "uint256"
        }
      ],
      "stateMutability": "view",
      "type": "function"
    },
    {
      "inputs": [],
      "name": "name",
      "outputs": [
        {
          "internalType": "string",
          "name": "",
          "type": "string"
        }
      ],
      "stateMutability": "view",
      "type": "function"
    },
    {
      "inputs": [],
      "name": "oC",
      "outputs": [
        {
          "internalType": "uint256",
          "name": "",
          "type": "uint256"
        }
      ],
      "stateMutability": "view",
      "type": "function"
    },
    {
      "inputs": [],
      "name": "oP",
      "outputs": [
        {
          "internalType": "uint256",
          "name": "",
          "type": "uint256"
        }
      ],
      "stateMutability": "view",
      "type": "function"
    },
    {
      "inputs": [],
      "name": "open",
      "outputs": [
        {
          "internalType": "bool",
          "name": "",
          "type": "bool"
        }
      ],
      "stateMutability": "view",
      "type": "function"
    },
    {
      "inputs": [
        {
          "internalType": "uint256",
          "name": "",
          "type": "uint256"
        }
      ],
      "name": "options",
      "outputs": [
        {
          "internalType": "address payable",
          "name": "holder",
          "type": "address"
        },
        {
          "internalType": "int256",
          "name": "sP",
          "type": "int256"
        },
        {
          "internalType": "uint80",
          "name": "pR",
          "type": "uint80"
        },
        {
          "internalType": "uint256",
          "name": "pV",
          "type": "uint256"
        },
        {
          "internalType": "uint256",
          "name": "lV",
          "type": "uint256"
        },
        {
          "internalType": "uint80",
          "name": "exp",
          "type": "uint80"
        },
        {
          "internalType": "bool",
          "name": "dir",
          "type": "bool"
        },
        {
          "internalType": "address",
          "name": "pP",
          "type": "address"
        },
        {
          "internalType": "address",
          "name": "aPA",
          "type": "address"
        }
      ],
      "stateMutability": "view",
      "type": "function"
    },
    {
      "inputs": [],
      "name": "owner",
      "outputs": [
        {
          "internalType": "address payable",
          "name": "",
          "type": "address"
        }
      ],
      "stateMutability": "view",
      "type": "function"
    },
    {
      "inputs": [],
      "name": "poolLockSeconds",
      "outputs": [
        {
          "internalType": "uint256",
          "name": "",
          "type": "uint256"
        }
      ],
      "stateMutability": "view",
      "type": "function"
    },
    {
      "inputs": [],
      "name": "protocolFee",
      "outputs": [
        {
          "internalType": "uint256",
          "name": "",
          "type": "uint256"
        }
      ],
      "stateMutability": "view",
      "type": "function"
    },
    {
      "inputs": [],
      "name": "rewEn",
      "outputs": [
        {
          "internalType": "bool",
          "name": "",
          "type": "bool"
        }
      ],
      "stateMutability": "view",
      "type": "function"
    },
    {
      "inputs": [],
      "name": "rwd",
      "outputs": [
        {
          "internalType": "uint256",
          "name": "",
          "type": "uint256"
        }
      ],
      "stateMutability": "view",
      "type": "function"
    },
    {
      "inputs": [],
      "name": "settlerFee",
      "outputs": [
        {
          "internalType": "uint256",
          "name": "",
          "type": "uint256"
        }
      ],
      "stateMutability": "view",
      "type": "function"
    },
    {
      "inputs": [],
      "name": "symbol",
      "outputs": [
        {
          "internalType": "string",
          "name": "",
          "type": "string"
        }
      ],
      "stateMutability": "view",
      "type": "function"
    },
    {
      "inputs": [],
      "name": "tI",
      "outputs": [
        {
          "internalType": "uint256",
          "name": "",
          "type": "uint256"
        }
      ],
      "stateMutability": "view",
      "type": "function"
    },
    {
      "inputs": [],
      "name": "totalSupply",
      "outputs": [
        {
          "internalType": "uint256",
          "name": "",
          "type": "uint256"
        }
      ],
      "stateMutability": "view",
      "type": "function"
    },
    {
      "inputs": [
        {
          "internalType": "address",
          "name": "recipient",
          "type": "address"
        },
        {
          "internalType": "uint256",
          "name": "amount",
          "type": "uint256"
        }
      ],
      "name": "transfer",
      "outputs": [
        {
          "internalType": "bool",
          "name": "",
          "type": "bool"
        }
      ],
      "stateMutability": "nonpayable",
      "type": "function"
    },
    {
      "inputs": [
        {
          "internalType": "address",
          "name": "sender",
          "type": "address"
        },
        {
          "internalType": "address",
          "name": "recipient",
          "type": "address"
        },
        {
          "internalType": "uint256",
          "name": "amount",
          "type": "uint256"
        }
      ],
      "name": "transferFrom",
      "outputs": [
        {
          "internalType": "bool",
          "name": "",
          "type": "bool"
        }
      ],
      "stateMutability": "nonpayable",
      "type": "function"
    },
    {
      "inputs": [],
      "name": "treasury",
      "outputs": [
        {
          "internalType": "address payable",
          "name": "",
          "type": "address"
        }
      ],
      "stateMutability": "view",
      "type": "function"
    },
    {
      "inputs": [],
      "name": "uR",
      "outputs": [
        {
          "internalType": "address",
          "name": "",
          "type": "address"
        }
      ],
      "stateMutability": "view",
      "type": "function"
    },
    {
      "inputs": [],
      "name": "getMaxAvailable",
      "outputs": [
        {
          "internalType": "uint256",
          "name": "",
          "type": "uint256"
        }
      ],
      "stateMutability": "view",
      "type": "function"
    },
    {
      "inputs": [],
      "name": "getOptionCount",
      "outputs": [
        {
          "internalType": "uint256",
          "name": "",
          "type": "uint256"
        }
      ],
      "stateMutability": "view",
      "type": "function"
    },
    {
      "inputs": [
        {
          "internalType": "uint256",
          "name": "amount",
          "type": "uint256"
        },
        {
          "internalType": "bool",
          "name": "completion",
          "type": "bool"
        }
      ],
      "name": "getTradeExerciseBonus",
      "outputs": [
        {
          "internalType": "uint256",
          "name": "",
          "type": "uint256"
        }
      ],
      "stateMutability": "view",
      "type": "function"
    },
    {
      "inputs": [
        {
          "internalType": "address",
          "name": "account",
          "type": "address"
        }
      ],
      "name": "getPendingClaims",
      "outputs": [
        {
          "internalType": "uint256",
          "name": "",
          "type": "uint256"
        }
      ],
      "stateMutability": "view",
      "type": "function"
    },
    {
      "inputs": [],
      "name": "claimRewards",
      "outputs": [],
      "stateMutability": "nonpayable",
      "type": "function"
    },
    {
      "inputs": [],
      "name": "thisAddress",
      "outputs": [
        {
          "internalType": "address",
          "name": "",
          "type": "address"
        }
      ],
      "stateMutability": "view",
      "type": "function"
    },
    {
      "inputs": [
        {
          "internalType": "address",
          "name": "newUR",
          "type": "address"
        }
      ],
      "name": "updateUtilizationRewards",
      "outputs": [],
      "stateMutability": "nonpayable",
      "type": "function"
    },
    {
      "inputs": [
        {
          "internalType": "address",
          "name": "newAPP",
          "type": "address"
        }
      ],
      "name": "updateAPP",
      "outputs": [],
      "stateMutability": "nonpayable",
      "type": "function"
    },
    {
      "inputs": [
        {
          "internalType": "bool",
          "name": "nx_",
          "type": "bool"
        }
      ],
      "name": "enableRewards",
      "outputs": [],
      "stateMutability": "nonpayable",
      "type": "function"
    },
    {
      "inputs": [
        {
          "internalType": "uint256",
          "name": "newMax_",
          "type": "uint256"
        }
      ],
      "name": "setMaxT",
      "outputs": [],
      "stateMutability": "nonpayable",
      "type": "function"
    },
    {
      "inputs": [
        {
          "internalType": "uint256",
          "name": "newMin_",
          "type": "uint256"
        }
      ],
      "name": "setMinT",
      "outputs": [],
      "stateMutability": "nonpayable",
      "type": "function"
    },
    {
      "inputs": [
        {
          "internalType": "uint256",
          "name": "fee_",
          "type": "uint256"
        }
      ],
      "name": "updateSettlerFee",
      "outputs": [],
      "stateMutability": "nonpayable",
      "type": "function"
    },
    {
      "inputs": [
        {
          "internalType": "uint256",
          "name": "newProtocolFee_",
          "type": "uint256"
        }
      ],
      "name": "updateProtocolFee",
      "outputs": [],
      "stateMutability": "nonpayable",
      "type": "function"
    },
    {
      "inputs": [
        {
          "internalType": "uint256",
          "name": "newLockSeconds_",
          "type": "uint256"
        }
      ],
      "name": "updatePoolLockSeconds",
      "outputs": [],
      "stateMutability": "nonpayable",
      "type": "function"
    },
    {
      "inputs": [
        {
          "internalType": "address payable",
          "name": "newOwner_",
          "type": "address"
        }
      ],
      "name": "transferOwner",
      "outputs": [],
      "stateMutability": "nonpayable",
      "type": "function"
    },
    {
      "inputs": [
        {
          "internalType": "address payable",
          "name": "newTreasury_",
          "type": "address"
        }
      ],
      "name": "transferDevFund",
      "outputs": [],
      "stateMutability": "nonpayable",
      "type": "function"
    },
    {
      "inputs": [],
      "name": "closeStaking",
      "outputs": [],
      "stateMutability": "nonpayable",
      "type": "function"
    },
    {
      "inputs": [],
      "name": "stake",
      "outputs": [],
      "stateMutability": "payable",
      "type": "function"
    },
    {
      "inputs": [
        {
          "internalType": "uint256",
          "name": "amount",
          "type": "uint256"
        }
      ],
      "name": "withdraw",
      "outputs": [],
      "stateMutability": "nonpayable",
      "type": "function"
    },
    {
      "inputs": [
        {
          "internalType": "address",
          "name": "pair",
          "type": "address"
        },
        {
          "internalType": "uint256",
          "name": "deposit",
          "type": "uint256"
        },
        {
          "internalType": "uint256",
          "name": "t",
          "type": "uint256"
        },
        {
          "internalType": "bool",
          "name": "k",
          "type": "bool"
        }
      ],
      "name": "getRate",
      "outputs": [
        {
          "internalType": "uint256",
          "name": "",
          "type": "uint256"
        }
      ],
      "stateMutability": "view",
      "type": "function"
    },
    {
      "inputs": [
        {
          "internalType": "bool",
          "name": "k_",
          "type": "bool"
        },
        {
          "internalType": "address",
          "name": "pp_",
          "type": "address"
        },
        {
          "internalType": "uint80",
          "name": "t_",
          "type": "uint80"
        }
      ],
      "name": "openPosition",
      "outputs": [],
      "stateMutability": "payable",
      "type": "function"
    },
    {
      "inputs": [
        {
          "internalType": "uint256",
          "name": "oID",
          "type": "uint256"
        }
      ],
      "name": "complete",
      "outputs": [],
      "stateMutability": "nonpayable",
      "type": "function"
    }
  ],
  "bytecode": "0x6080604052600560145560646015556212750060165560188054600160ff19918216811790925566470de4df820000601b55601c805490911690911790553480156200004a57600080fd5b506040516200373338038062003733833981810160405260a08110156200007057600080fd5b81019080805160405193929190846401000000008211156200009157600080fd5b908301906020820185811115620000a757600080fd5b8251640100000000811182820188101715620000c257600080fd5b82525081516020918201929091019080838360005b83811015620000f1578181015183820152602001620000d7565b50505050905090810190601f1680156200011f5780820380516001836020036101000a031916815260200191505b50604052602001805160405193929190846401000000008211156200014357600080fd5b9083019060208201858111156200015957600080fd5b82516401000000008111828201881017156200017457600080fd5b82525081516020918201929091019080838360005b83811015620001a357818101518382015260200162000189565b50505050905090810190601f168015620001d15780820380516001836020036101000a031916815260200191505b506040908152602082810151918301516060909301518751929550929350869186916200020491600391850190620002a7565b5080516200021a906004906020840190620002a7565b505060058054336101008102610100600160a81b031960ff1990931660129081179390931617909255600680546001600160a01b03199081169093179055600880546001600160a01b0397881690841617905560006013554260175560016011819055905560078054948616948216949094179093555060098054919093169116179055506200034c9050565b828054600181600116156101000203166002900490600052602060002090601f016020900481019282601f10620002ea57805160ff19168380011785556200031a565b828001600101855582156200031a579182015b828111156200031a578251825591602001919060010190620002fd565b50620003289291506200032c565b5090565b6200034991905b8082111562000328576000815560010162000333565b90565b6133d7806200035c6000396000f3fe60806040526004361061036b5760003560e01c80636a92cf8b116101c6578063a6bd5427116100f7578063d4dca69b11610095578063e4523ef91161006f578063e4523ef914610be6578063e56e03cc14610bfb578063f200fb2014610c2e578063fcfff16f14610c615761036b565b8063d4dca69b14610b81578063db05c54714610b96578063dd62ed3e14610bab5761036b565b8063b76564bd116100d1578063b76564bd14610b10578063bac2e6db14610b25578063c0fb034714610b3a578063c897239114610b6c5761036b565b8063a6bd542714610aad578063a9059cbb14610ac2578063b0e21e8a14610afb5761036b565b806395d89b411161016457806399f914051161013e57806399f91405146109eb5780639b1559c314610a1e5780639f19904c14610a4a578063a457c2d714610a745761036b565b806395d89b4114610997578063971d852f146109ac57806398cfe587146109d65761036b565b806370a08231116101a057806370a082311461090757806383880e511461093a5780638a300e681461094f5780638da5cb5b146109825761036b565b80636a92cf8b146108785780636ab28bc8146108ab5780636ab7d6d0146108c05761036b565b8063313ce567116102a05780634e9e32521161023e5780635009a613116102185780635009a6131461080f578063602d86081461083957806361d027b31461084e57806363691eaa146108635761036b565b80634e9e3252146107b25780634fb2e45d146107c75780634fce9c84146107fa5761036b565b8063395093511161027a57806339509351146106b75780633a4b66f1146106f0578063409e2205146106f85780634256dd78146107885761036b565b8063313ce5671461064d578063372500ab1461067857806337637f451461068d5761036b565b80631a30433a1161030d5780631d983e23116102e75780631d983e23146105a157806323b872dd146105cb5780632e1a7d4d1461060e5780632f67e359146106385761036b565b80631a30433a1461051e5780631a8972d31461055b5780631c94c429146105705761036b565b8063108e184d11610349578063108e184d1461047c57806318126dce146104c157806318160ddd146104d657806319174be6146104eb5761036b565b806306fdde031461037057806307e665df146103fa578063095ea7b31461042f575b600080fd5b34801561037c57600080fd5b50610385610c76565b6040805160208082528351818301528351919283929083019185019080838360005b838110156103bf5781810151838201526020016103a7565b50505050905090810190601f1680156103ec5780820380516001836020036101000a031916815260200191505b509250505060405180910390f35b34801561040657600080fd5b5061042d6004803603602081101561041d57600080fd5b50356001600160a01b0316610d0d565b005b34801561043b57600080fd5b506104686004803603604081101561045257600080fd5b506001600160a01b038135169060200135610d7c565b604080519115158252519081900360200190f35b34801561048857600080fd5b506104af6004803603602081101561049f57600080fd5b50356001600160a01b0316610d9a565b60408051918252519081900360200190f35b3480156104cd57600080fd5b506104af610dac565b3480156104e257600080fd5b506104af610db2565b3480156104f757600080fd5b506104af6004803603602081101561050e57600080fd5b50356001600160a01b0316610db8565b61042d6004803603606081101561053457600080fd5b50803515159060208101356001600160a01b031690604001356001600160501b0316610dca565b34801561056757600080fd5b506104af6112a9565b34801561057c57600080fd5b506105856112af565b604080516001600160a01b039092168252519081900360200190f35b3480156105ad57600080fd5b5061042d600480360360208110156105c457600080fd5b50356112be565b3480156105d757600080fd5b50610468600480360360608110156105ee57600080fd5b506001600160a01b03813581169160208101359091169060400135611310565b34801561061a57600080fd5b5061042d6004803603602081101561063157600080fd5b503561139d565b34801561064457600080fd5b506104af6115c5565b34801561065957600080fd5b506106626115cb565b6040805160ff9092168252519081900360200190f35b34801561068457600080fd5b5061042d6115d4565b34801561069957600080fd5b5061042d600480360360208110156106b057600080fd5b503561177b565b3480156106c357600080fd5b50610468600480360360408110156106da57600080fd5b506001600160a01b0381351690602001356117cd565b61042d611821565b34801561070457600080fd5b506107226004803603602081101561071b57600080fd5b503561192a565b604080516001600160a01b039a8b16815260208101999099526001600160501b0397881689820152606089019690965260808801949094529190941660a086015292151560c085015291841660e084015292166101008201529051908190036101200190f35b34801561079457600080fd5b5061042d600480360360208110156107ab57600080fd5b50356119a4565b3480156107be57600080fd5b506104af611a42565b3480156107d357600080fd5b5061042d600480360360208110156107ea57600080fd5b50356001600160a01b0316611a48565b34801561080657600080fd5b506104af611ab7565b34801561081b57600080fd5b5061042d6004803603602081101561083257600080fd5b5035611abd565b34801561084557600080fd5b506104af611b66565b34801561085a57600080fd5b50610585611b6c565b34801561086f57600080fd5b506104af611b80565b34801561088457600080fd5b5061042d6004803603602081101561089b57600080fd5b50356001600160a01b0316611b86565b3480156108b757600080fd5b506104af611bf5565b3480156108cc57600080fd5b506104af600480360360808110156108e357600080fd5b506001600160a01b0381351690602081013590604081013590606001351515611bfb565b34801561091357600080fd5b506104af6004803603602081101561092a57600080fd5b50356001600160a01b0316611e02565b34801561094657600080fd5b50610468611e21565b34801561095b57600080fd5b506104af6004803603602081101561097257600080fd5b50356001600160a01b0316611e2a565b34801561098e57600080fd5b50610585611e3c565b3480156109a357600080fd5b50610385611e4b565b3480156109b857600080fd5b5061042d600480360360208110156109cf57600080fd5b5035611eac565b3480156109e257600080fd5b5061042d6120fd565b3480156109f757600080fd5b506104af60048036036020811015610a0e57600080fd5b50356001600160a01b031661215e565b348015610a2a57600080fd5b5061042d60048036036020811015610a4157600080fd5b50351515612290565b348015610a5657600080fd5b5061042d60048036036020811015610a6d57600080fd5b50356122f0565b348015610a8057600080fd5b5061046860048036036040811015610a9757600080fd5b506001600160a01b038135169060200135612391565b348015610ab957600080fd5b506104af6123ff565b348015610ace57600080fd5b5061046860048036036040811015610ae557600080fd5b506001600160a01b038135169060200135612405565b348015610b0757600080fd5b506104af612419565b348015610b1c57600080fd5b5061058561241f565b348015610b3157600080fd5b506104af61242e565b348015610b4657600080fd5b506104af60048036036040811015610b5d57600080fd5b50803590602001351515612463565b348015610b7857600080fd5b506104af6124f4565b348015610b8d57600080fd5b506105856124fa565b348015610ba257600080fd5b506104af6124fe565b348015610bb757600080fd5b506104af60048036036040811015610bce57600080fd5b506001600160a01b0381358116916020013516612504565b348015610bf257600080fd5b5061058561252f565b348015610c0757600080fd5b506104af60048036036020811015610c1e57600080fd5b50356001600160a01b031661253e565b348015610c3a57600080fd5b5061042d60048036036020811015610c5157600080fd5b50356001600160a01b0316612550565b348015610c6d57600080fd5b506104686125c5565b60038054604080516020601f6002600019610100600188161502019095169490940493840181900481028201810190925282815260609390929091830182828015610d025780601f10610cd757610100808354040283529160200191610d02565b820191906000526020600020905b815481529060010190602001808311610ce557829003601f168201915b505050505090505b90565b6006546001600160a01b03163314610d5a576040805162461bcd60e51b815260206004820181905260248201526000805160206132f3833981519152604482015290519081900360640190fd5b600980546001600160a01b0319166001600160a01b0392909216919091179055565b6000610d90610d896125ce565b84846125d2565b5060015b92915050565b600e6020526000908152604090205481565b60125481565b60025490565b600d6020526000908152604090205481565b601154816001600160501b031610158015610df05750601254816001600160501b031611155b610e30576040805162461bcd60e51b815260206004820152600c60248201526b496e76616c69642074696d6560a01b604482015290519081900360640190fd5b6009546040805163b7a9eaa960e01b81526001600160a01b03858116600483015291519190921691829163b7a9eaa991602480820192602092909190829003018186803b158015610e8057600080fd5b505afa158015610e94573d6000803e3d6000fd5b505050506040513d6020811015610eaa57600080fd5b50516001600160a01b0316610f06576040805162461bcd60e51b815260206004820152601760248201527f496e76616c6964202070726963652070726f7669646572000000000000000000604482015290519081900360640190fd5b6000839050600080826001600160a01b031663feaf968c6040518163ffffffff1660e01b815260040160a06040518083038186803b158015610f4757600080fd5b505afa158015610f5b573d6000803e3d6000fd5b505050506040513d60a0811015610f7157600080fd5b5080516020909101516019549193509150610f8a61242e565b341115610fd7576040805162461bcd60e51b81526020600482015260166024820152756f7074696f6e2076616c756520746f6f206c6172676560501b604482015290519081900360640190fd5b6000610fee8834896001600160501b03168c611bfb565b601c5490915060ff16156110375761102661100a346000612463565b336000908152600c60205260409020549063ffffffff6126be16565b336000908152600c60205260409020555b6110408161271f565b61104861317b565b604051806101200160405280336001600160a01b03168152602001858152602001866001600160501b03168152602001348152602001838152602001896001600160501b031681526020018b151581526020018a6001600160a01b03168152602001306001600160a01b03168152509050601981908060018154018082558091505060019003906000526020600020906007020160009091909190915060008201518160000160006101000a8154816001600160a01b0302191690836001600160a01b031602179055506020820151816001015560408201518160020160006101000a8154816001600160501b0302191690836001600160501b03160217905550606082015181600301556080820151816004015560a08201518160050160006101000a8154816001600160501b0302191690836001600160501b0316021790555060c082015181600501600a6101000a81548160ff02191690831515021790555060e082015181600501600b6101000a8154816001600160a01b0302191690836001600160a01b031602179055506101008201518160060160006101000a8154816001600160a01b0302191690836001600160a01b03160217905550505061121c82601a546126be90919063ffffffff16565b601a55891561123257600f80548301905561123b565b60108054830190555b60408051338152602081018690528082018490528b151560608201526001600160501b0380881660808301528a1660a0820152905184917fcd8984b7ffc01146a9ba9096d805b0bec246d7f8e52837a7b5f404464f6b229b919081900360c00190a250505050505050505050565b601b5481565b6007546001600160a01b031681565b6006546001600160a01b0316331461130b576040805162461bcd60e51b815260206004820181905260248201526000805160206132f3833981519152604482015290519081900360640190fd5b601255565b600061131d848484612738565b611393846113296125ce565b61138e856040518060600160405280602881526020016132cb602891396001600160a01b038a166000908152600160205260408120906113676125ce565b6001600160a01b03168152602081019190915260400160002054919063ffffffff61289f16565b6125d2565b5060019392505050565b806113a733611e02565b10156113fa576040805162461bcd60e51b815260206004820152601960248201527f496e737566666963656e742053686172652042616c616e636500000000000000604482015290519081900360640190fd5b336000908152600b602052604081204290556013546114479061142b9061141f610db2565b9063ffffffff61293616565b61143b844763ffffffff61297816565b9063ffffffff6129d116565b90506114533383612a13565b336000908152600a6020526040902054421161156257600061147c82606463ffffffff6129d116565b60055460405191925061010090046001600160a01b0316906108fc8315029083906000818181858888f193505050506114ee576040805162461bcd60e51b815260206004820152600f60248201526e1d1c985b9cd9995c8819985a5b1959608a1b604482015290519081900360640190fd5b336108fc611502848463ffffffff61293616565b6040518115909202916000818181858888f1935050505061155c576040805162461bcd60e51b815260206004820152600f60248201526e1d1c985b9cd9995c8819985a5b1959608a1b604482015290519081900360640190fd5b506115c1565b604051339082156108fc029083906000818181858888f193505050506115c1576040805162461bcd60e51b815260206004820152600f60248201526e1d1c985b9cd9995c8819985a5b1959608a1b604482015290519081900360640190fd5b5050565b60105481565b60055460ff1690565b600754336000818152600e6020908152604080832054600d909252822054601a546001600160a01b039095169492938593635793148493929161161690611e02565b61161e610db2565b6040518663ffffffff1660e01b8152600401808681526020018581526020018481526020018381526020018281526020019550505050505060206040518083038186803b15801561166e57600080fd5b505afa158015611682573d6000803e3d6000fd5b505050506040513d602081101561169857600080fd5b5051336000818152600c60205260409020549192506001906116b990611e02565b106116c6576116c6612b1b565b6000836001600160a01b03166335c5801684846040518363ffffffff1660e01b81526004018083815260200182815260200192505050602060405180830381600087803b15801561171657600080fd5b505af115801561172a573d6000803e3d6000fd5b505050506040513d602081101561174057600080fd5b5051336000908152600c6020526040902054909150611765908263ffffffff61293616565b336000908152600c602052604090205550505050565b6006546001600160a01b031633146117c8576040805162461bcd60e51b815260206004820181905260248201526000805160206132f3833981519152604482015290519081900360640190fd5b601155565b6000610d906117da6125ce565b8461138e85600160006117eb6125ce565b6001600160a01b03908116825260208083019390935260409182016000908120918c16815292529020549063ffffffff6126be16565b60185460ff1661186e576040805162461bcd60e51b81526020600482015260136024820152721c1bdbdb0819195c1bdcda5d0818db1bdcd959606a1b604482015290519081900360640190fd5b60643410156118b5576040805162461bcd60e51b815260206004820152600e60248201526d1cdd185ad9481d1bc81cdb585b1b60921b604482015290519081900360640190fd5b6118be33611e02565b6118fd57336000908152600b60205260409020429055601b546118ec9061100a90600263ffffffff61297816565b336000908152600c60205260409020555b611905612b1b565b601654336000818152600a60205260409020429092019091556119289034612b3e565b565b6019818154811061193757fe5b600091825260209091206007909102018054600182015460028301546003840154600485015460058601546006909601546001600160a01b03958616975093956001600160501b03938416959294919381169260ff600160501b83041692600160581b9092048116911689565b6006546001600160a01b031633146119f1576040805162461bcd60e51b815260206004820181905260248201526000805160206132f3833981519152604482015290519081900360640190fd5b8015806119fe5750603281115b611a3d576040805162461bcd60e51b815260206004820152600b60248201526a696e76616c69642066656560a81b604482015290519081900360640190fd5b601555565b60145481565b6006546001600160a01b03163314611a95576040805162461bcd60e51b815260206004820181905260248201526000805160206132f3833981519152604482015290519081900360640190fd5b600680546001600160a01b0319166001600160a01b0392909216919091179055565b60175481565b6006546001600160a01b03163314611b0a576040805162461bcd60e51b815260206004820181905260248201526000805160206132f3833981519152604482015290519081900360640190fd5b621275008110611b61576040805162461bcd60e51b815260206004820152601860248201527f696e76616c696420706f6f6c206c6f636b20706572696f640000000000000000604482015290519081900360640190fd5b601655565b60165481565b60055461010090046001600160a01b031681565b600f5481565b6006546001600160a01b03163314611bd3576040805162461bcd60e51b815260206004820181905260248201526000805160206132f3833981519152604482015290519081900360640190fd5b600780546001600160a01b0319166001600160a01b0392909216919091179055565b60135481565b6009546040805163b7a9eaa960e01b81526001600160a01b03878116600483015291516000939290921691829163b7a9eaa9916024808301926020929190829003018186803b158015611c4d57600080fd5b505afa158015611c61573d6000803e3d6000fd5b505050506040513d6020811015611c7757600080fd5b50516001600160a01b0316611cca576040805162461bcd60e51b815260206004820152601460248201527334b73b30b634b2103a3930b234b733903830b4b960611b604482015290519081900360640190fd5b6000816001600160a01b031663b7a9eaa9886040518263ffffffff1660e01b815260040180826001600160a01b03166001600160a01b0316815260200191505060206040518083038186803b158015611d2257600080fd5b505afa158015611d36573d6000803e3d6000fd5b505050506040513d6020811015611d4c57600080fd5b5051601354600f54601054604080516323417ee760e11b8152600481018c90526024810194909452604484018a90528815156064850152608484019290925260a48301524760c4830152519192506001600160a01b03831691634682fdce9160e480820192602092909190829003018186803b158015611dcb57600080fd5b505afa158015611ddf573d6000803e3d6000fd5b505050506040513d6020811015611df557600080fd5b5051979650505050505050565b6001600160a01b0381166000908152602081905260409020545b919050565b601c5460ff1681565b600a6020526000908152604090205481565b6006546001600160a01b031681565b60048054604080516020601f6002600019610100600188161502019095169490940493840181900481028201810190925282815260609390929091830182828015610d025780601f10610cd757610100808354040283529160200191610d02565b611eb461317b565b60198281548110611ec157fe5b600091825260208083206040805161012081018252600790940290910180546001600160a01b03908116855260018201549385019390935260028101546001600160501b03908116858401819052600383015460608701526004808401546080880152600584015480841660a0808a0182905260ff600160501b840416151560c08b0152600160581b909204881660e08a018190526006909601549097166101008901528551639a6fc8f560e01b815296909201909216918501919091529151939550939283928592639a6fc8f592602480840193829003018186803b158015611faa57600080fd5b505afa158015611fbe573d6000803e3d6000fd5b505050506040513d60a0811015611fd457600080fd5b50805160209091015190925090508015801590611ff957506001600160501b03821615155b61203a576040805162461bcd60e51b815260206004820152600d60248201526c1b9bdd081c9958591e481e595d609a1b604482015290519081900360640190fd5b8360c001511561208857808460200151131561205f5761205a8486612c3a565b612069565b6120698486612c91565b6080840151600f546120809163ffffffff61293616565b600f556120c8565b83602001518113156120a35761209e8486612c3a565b6120ad565b6120ad8486612c91565b60808401516010546120c49163ffffffff61293616565b6010555b601c5460ff16156120f6576120e561100a85608001516001612463565b336000908152600c60205260409020555b5050505050565b6006546001600160a01b0316331461214a576040805162461bcd60e51b815260206004820181905260248201526000805160206132f3833981519152604482015290519081900360640190fd5b6018805460ff19811660ff90911615179055565b6007546000906001600160a01b0316600161217884611e02565b1115612270576001600160a01b038381166000908152600e6020908152604080832054600d90925290912054601a546122689385169263579314849290916121bf89611e02565b6121c7610db2565b6040518663ffffffff1660e01b8152600401808681526020018581526020018481526020018381526020018281526020019550505050505060206040518083038186803b15801561221757600080fd5b505afa15801561222b573d6000803e3d6000fd5b505050506040513d602081101561224157600080fd5b50516001600160a01b0385166000908152600c60205260409020549063ffffffff6126be16565b915050611e1c565b50506001600160a01b0381166000908152600c6020526040902054611e1c565b6006546001600160a01b031633146122dd576040805162461bcd60e51b815260206004820181905260248201526000805160206132f3833981519152604482015290519081900360640190fd5b601c805460ff1916911515919091179055565b6006546001600160a01b0316331461233d576040805162461bcd60e51b815260206004820181905260248201526000805160206132f3833981519152604482015290519081900360640190fd5b60018111801561234d5750606481105b61238c576040805162461bcd60e51b815260206004820152600b60248201526a696e76616c69642066656560a81b604482015290519081900360640190fd5b601455565b6000610d9061239e6125ce565b8461138e8560405180606001604052806025815260200161337d60259139600160006123c86125ce565b6001600160a01b03908116825260208083019390935260409182016000908120918d1681529252902054919063ffffffff61289f16565b60195490565b6000610d906124126125ce565b8484612738565b60155481565b6009546001600160a01b031681565b60135460009047908111156124595760135461245190829063ffffffff61293616565b915050610d0a565b6000915050610d0a565b6007546040805163076a375160e51b815260048101859052476024820152831515604482015290516000926001600160a01b031691829163ed46ea2091606480820192602092909190829003018186803b1580156124c057600080fd5b505afa1580156124d4573d6000803e3d6000fd5b505050506040513d60208110156124ea57600080fd5b5051949350505050565b60115481565b3090565b601a5481565b6001600160a01b03918216600090815260016020908152604080832093909416825291909152205490565b6008546001600160a01b031681565b600b6020526000908152604090205481565b6006546001600160a01b0316331461259d576040805162461bcd60e51b815260206004820181905260248201526000805160206132f3833981519152604482015290519081900360640190fd5b600580546001600160a01b0390921661010002610100600160a81b0319909216919091179055565b60185460ff1681565b3390565b6001600160a01b0383166126175760405162461bcd60e51b81526004018080602001828103825260248152602001806133596024913960400191505060405180910390fd5b6001600160a01b03821661265c5760405162461bcd60e51b815260040180806020018281038252602281526020018061320d6022913960400191505060405180910390fd5b6001600160a01b03808416600081815260016020908152604080832094871680845294825291829020859055815185815291517f8c5be1e5ebec7d5bd14f71427d1e84f3dd0314c0f7b2291e5b200ac8c7c3b9259281900390910190a3505050565b600082820183811015612718576040805162461bcd60e51b815260206004820152601b60248201527f536166654d6174683a206164646974696f6e206f766572666c6f770000000000604482015290519081900360640190fd5b9392505050565b601354612732908263ffffffff6126be16565b60135550565b6001600160a01b03831661277d5760405162461bcd60e51b81526004018080602001828103825260258152602001806133346025913960400191505060405180910390fd5b6001600160a01b0382166127c25760405162461bcd60e51b81526004018080602001828103825260238152602001806131c86023913960400191505060405180910390fd5b6127cd838383612db2565b6128108160405180606001604052806026815260200161322f602691396001600160a01b038616600090815260208190526040902054919063ffffffff61289f16565b6001600160a01b038085166000908152602081905260408082209390935590841681522054612845908263ffffffff6126be16565b6001600160a01b038084166000818152602081815260409182902094909455805185815290519193928716927fddf252ad1be2c89b69c2b068fc378daa952ba7f163c4a11628f55a4df523b3ef92918290030190a3505050565b6000818484111561292e5760405162461bcd60e51b81526004018080602001828103825283818151815260200191508051906020019080838360005b838110156128f35781810151838201526020016128db565b50505050905090810190601f1680156129205780820380516001836020036101000a031916815260200191505b509250505060405180910390fd5b505050900390565b600061271883836040518060400160405280601e81526020017f536166654d6174683a207375627472616374696f6e206f766572666c6f77000081525061289f565b60008261298757506000610d94565b8282028284828161299457fe5b04146127185760405162461bcd60e51b81526004018080602001828103825260218152602001806132aa6021913960400191505060405180910390fd5b600061271883836040518060400160405280601a81526020017f536166654d6174683a206469766973696f6e206279207a65726f000000000000815250612db7565b6001600160a01b038216612a585760405162461bcd60e51b81526004018080602001828103825260218152602001806133136021913960400191505060405180910390fd5b612a6482600083612db2565b612aa7816040518060600160405280602281526020016131eb602291396001600160a01b038516600090815260208190526040902054919063ffffffff61289f16565b6001600160a01b038316600090815260208190526040902055600254612ad3908263ffffffff61293616565b6002556040805182815290516000916001600160a01b038516917fddf252ad1be2c89b69c2b068fc378daa952ba7f163c4a11628f55a4df523b3ef9181900360200190a35050565b336000908152600e60209081526040808320439055601a54600d90925290912055565b6001600160a01b038216612b99576040805162461bcd60e51b815260206004820152601f60248201527f45524332303a206d696e7420746f20746865207a65726f206164647265737300604482015290519081900360640190fd5b612ba560008383612db2565b600254612bb8908263ffffffff6126be16565b6002556001600160a01b038216600090815260208190526040902054612be4908263ffffffff6126be16565b6001600160a01b0383166000818152602081815260408083209490945583518581529351929391927fddf252ad1be2c89b69c2b068fc378daa952ba7f163c4a11628f55a4df523b3ef9281900390910190a35050565b612c48826080015133612e1c565b6080820151601354612c5f9163ffffffff61293616565b60135560405181907fa33fd53ba34795ffefaea3759c71f87d38b89ae12e40bc434c826fae0ca5358390600090a25050565b608082015160155481118015612ca957506000601554115b15612d59576000612cc5601554836129d190919063ffffffff16565b60055460405191925061010090046001600160a01b0316906108fc8315029083906000818181858888f19350505050612d45576040805162461bcd60e51b815260206004820152601b60248201527f70726f746f636f6c466565207472616e73666572206661696c65640000000000604482015290519081900360640190fd5b612d55828263ffffffff61293616565b9150505b612d6881338560000151612ef7565b6080830151601354612d7f9163ffffffff61293616565b60135560405182907fa2a53c7cb82eeb7994ccbbab71bea210cd63cfeb7823972fb5b6a49c3b0e1d4c90600090a2505050565b505050565b60008183612e065760405162461bcd60e51b81526020600482018181528351602484015283519092839260449091019190850190808383600083156128f35781810151838201526020016128db565b506000838581612e1257fe5b0495945050505050565b601354821115612e5d5760405162461bcd60e51b81526004018080602001828103825260298152602001806132816029913960400191505060405180910390fd5b6000612e79606461143b601454866129d190919063ffffffff16565b90508015612db2576040516001600160a01b0383169082156108fc029083906000818181858888f19350505050612db2576040805162461bcd60e51b815260206004820152601e60248201527f676f6f642073616d61726974616e207472616e73666572206661696c65640000604482015290519081900360640190fd5b601354831115612f385760405162461bcd60e51b815260040180806020018281038252602c815260200180613255602c913960400191505060405180910390fd5b47831115612f8d576040805162461bcd60e51b815260206004820152601b60248201527f696e737566666963656e742062616c616e636520696e20706f6f6c0000000000604482015290519081900360640190fd5b806001600160a01b0316826001600160a01b0316146130c4576000612fc2606461143b601454876129d190919063ffffffff16565b905080156130be576040516001600160a01b0384169082156108fc029083906000818181858888f19350505050613040576040805162461bcd60e51b815260206004820152601960248201527f657865726369736572207472616e73666572206661696c656400000000000000604482015290519081900360640190fd5b6001600160a01b0382166108fc61305d868463ffffffff61293616565b6040518115909202916000818181858888f193505050506130be576040805162461bcd60e51b81526020600482015260166024820152751dda5b9b995c881d1c985b9cd9995c8819985a5b195960521b604482015290519081900360640190fd5b50613133565b6040516001600160a01b0382169084156108fc029085906000818181858888f19350505050613133576040805162461bcd60e51b81526020600482015260166024820152751dda5b9b995c881d1c985b9cd9995c8819985a5b195960521b604482015290519081900360640190fd5b604080518481526001600160a01b038316602082015281517f9b5d1a613fa5f0790b36b13103706e31fca06b229d87e9915b29fc20c1d76490929181900390910190a1505050565b6040805161012081018252600080825260208201819052918101829052606081018290526080810182905260a0810182905260c0810182905260e081018290526101008101919091529056fe45524332303a207472616e7366657220746f20746865207a65726f206164647265737345524332303a206275726e20616d6f756e7420657863656564732062616c616e636545524332303a20617070726f766520746f20746865207a65726f206164647265737345524332303a207472616e7366657220616d6f756e7420657863656564732062616c616e6365696e737566666963656e7420706f6f6c2062616c616e636520617661696c61626c6520746f207061796f7574696e737566666963656e74206c6f636b656420706f6f6c2062616c616e636520746f20756e6c6f636b536166654d6174683a206d756c7469706c69636174696f6e206f766572666c6f7745524332303a207472616e7366657220616d6f756e74206578636565647320616c6c6f77616e63654f776e61626c653a2063616c6c6572206973206e6f7420746865206f776e657245524332303a206275726e2066726f6d20746865207a65726f206164647265737345524332303a207472616e736665722066726f6d20746865207a65726f206164647265737345524332303a20617070726f76652066726f6d20746865207a65726f206164647265737345524332303a2064656372656173656420616c6c6f77616e63652062656c6f77207a65726fa264697066735822122042aff67ecf52d5d61b28a52edb12f64f7d733ad9db70324ef96df33bb427e28e64736f6c63430006060033",
  "immutableReferences": {},
  "source": "pragma solidity 0.6.6;\n\nimport \"@openzeppelin/contracts/math/SafeMath.sol\";\nimport \"@openzeppelin/contracts/token/ERC20/ERC20.sol\";\n\n\n\nimport \"./BIOPTokenV4.sol\";\nimport \"./RateCalc.sol\";\nimport \"./interfaces/IUtilizationRewards.sol\";\nimport \"./interfaces/INativeAssetDenominatedBinaryOptions.sol\";\nimport \"./interfaces/IAPP.sol\";\nimport \"./Chainlink/AggregatorProxy.sol\";\n\n\ncontract NativeAssetDenominatedBinaryOptions is ERC20, INativeAssetDenominatedBinaryOptions {\n    using SafeMath for uint56;\n    address payable public treasury;\n    address payable public owner;\n    address public uR; //utilization rewards\n    address public biop;\n    address public app;//the approved pp/ratecalc\n    mapping(address=>uint256) public nW; //next withdraw (used for pool lock time)\n    mapping(address=>uint256) public lW;//last withdraw.used for rewards calc\n    mapping(address=>uint256) private pClaims;//pending claims\n    mapping(address=>uint256) public iAL;//interchange at last claim\n    mapping(address=>uint256) public lST;//last stake time\n\n\n    uint256 public oC;//the total amount of captial locked in call direction\n    uint256 public oP;//the total amount of capital locked in put direction\n\n\n\n    uint256 public minT;//minimum number of rounds\n    uint256 public maxT;//maximum number of rounds\n    uint256 public lockedAmount;//the amount locked into the pool by the liquidity provider\n    uint256 public settlerFee = 5;//0.2%\n    uint256 public protocolFee = 100;//1%\n    uint256 public poolLockSeconds = 1209600;//14 days\n    uint256 public contractCreated;\n    bool public open = true;\n    Option[] public options;\n\n    uint256 public tI;//total interchange\n    uint256 public rwd =  20000000000000000; //base utilization reward (0.02 BIOP)\n    bool public rewEn = true;//rewards enabled\n\n\n    modifier onlyOwner() {\n        require(owner == msg.sender, \"Ownable: caller is not the owner\");\n        _;\n    }\n\n\n    /* Types */\n    struct Option {\n        address payable holder;\n        int256 sP;//strike\n        uint80 pR;//purchase round\n        uint256 pV;//purchase value\n        uint256 lV;// in-the-money option value (lockedValue)\n        uint80 exp;//expiration round\n        bool dir;//direction (true for call)\n        address pP;//price provider\n        address aPA;//alt pool address\n    }\n\n    /* Events */\n     event Create(\n        uint256 indexed id,\n        address payable account,\n        int256 sP,//strike\n        uint256 lV,//locked value\n        bool dir,//direction (true for call)\n        uint80 pR,//purchase round\n        uint80 exp//expiration round\n    );\n    event Payout(uint256 poolLost, address winner);\n    event Exercise(uint256 indexed id);\n    event Expire(uint256 indexed id);\n\n\n    /**\n     * @param name_ the name of the LP token\n     * @param symbol_ the symbol of the LP token\n     * @param biop_ address of the gov token\n     * @param uR_ address of utilization rewards contract\n     * @param app_ address of approved price providers contract\n     */\n      constructor(string memory name_, string memory symbol_, address biop_, address uR_, address app_) public ERC20(name_, symbol_){\n        treasury = msg.sender;\n        owner = msg.sender;\n        biop = biop_;\n        lockedAmount = 0;\n        contractCreated = block.timestamp;\n        minT = 1;\n        maxT = 1;\n        uR = uR_;\n        app = app_;\n    }\n\n    /**\n      @dev Get the maximum option premium (payment) possible\n      */\n    function getMaxAvailable() public view returns(uint256) {\n        uint256 balance = address(this).balance;\n        if (balance > lockedAmount) {\n            return balance.sub(lockedAmount);\n        } else {\n            return 0;\n        }\n    }\n\n\n    function getOptionCount() public view returns(uint256) {\n        return options.length;\n    }\n\n\n    //used for openPosition/settlement calculations\n    function getTradeExerciseBonus(uint256 amount, bool completion) public view returns(uint256) {\n        IUtilizationRewards r = IUtilizationRewards(uR);\n        return r.getTradeExerciseBonus(amount, address(this).balance, completion);\n    }\n\n\n\n    function getPendingClaims(address account) public view returns(uint256) {\n\n        IUtilizationRewards r = IUtilizationRewards(uR);\n        if (balanceOf(account) > 1) {\n            //reward bonus for staking\n            //base*(weeks)*(poolBalanceBonus/10)*optionsBacked\n            return pClaims[account].add(\n                r.getLPStakingBonus(lST[account],iAL[account], tI, balanceOf(account), totalSupply())\n            );\n        } else {\n            //normal rewards\n            return pClaims[account];\n        }\n    }\n\n    function updateLPmetrics() internal {\n        lST[msg.sender] = block.number;\n        iAL[msg.sender] = tI;\n    }\n\n     /**\n     * @dev distribute pending governance token claims to user\n     */\n    function claimRewards() external {\n        IUtilizationRewards r = IUtilizationRewards(uR);\n        uint256 stakerClaims = r.getLPStakingBonus(lST[msg.sender],iAL[msg.sender], tI, balanceOf(msg.sender), totalSupply());\n        uint256 otherClaims = pClaims[msg.sender];\n        if (balanceOf(msg.sender) >= 1) {\n            updateLPmetrics();\n        }\n\n        uint256 otherClaimed = r.distributeClaim(stakerClaims, otherClaims);\n        \n        pClaims[msg.sender] = pClaims[msg.sender].sub(otherClaimed);\n    }\n\n    /**\n     * @dev address of this contract, convenience method\n     */\n    function thisAddress() public view returns (address){\n        return address(this);\n    }\n\n    /**\n     * @dev update reward base amount\n     * @param newUR the new UtilizationRewards contract to use\n     */\n    function updateUtilizationRewards(address newUR) external override onlyOwner {\n        uR = newUR;\n    }\n\n    /**\n     * @dev update APP\n     * @param newAPP the new approved price provider (and ratecalc contract to use). Must be a IAPP\n     */\n    function updateAPP(address newAPP) external override onlyOwner {\n        app = newAPP;\n    }\n\n\n\n    /**\n     * @dev enable or disable BIOP utilization rewards\n     * @param nx_ the new position for the rewEn switch\n     */\n    function enableRewards(bool nx_) external override onlyOwner {\n        rewEn = nx_;\n    }\n\n    /**\n     * @dev update the max rounds for an option position\n     * @param newMax_ the new maximum time (in rounds) an option may be created for (inclusive).\n     */\n    function setMaxT(uint256 newMax_) external override onlyOwner {\n        maxT = newMax_;\n    }\n\n    /**\n     * @dev update the min rounds for an option position\n     * @param newMin_ the new minimum time (in rounds) an option may be created for (inclusive).\n     */\n    function setMinT(uint256 newMin_) external override onlyOwner {\n        minT = newMin_;\n    }\n\n\n\n    /**\n     * @dev set the fee users can recieve for settling other users options\n     * @param fee_ the new fee (in tenth percent) for settling a options\n     */\n    function updateSettlerFee(uint256 fee_) external override onlyOwner {\n        require(fee_ > 1 && fee_ < 100, \"invalid fee\");\n        settlerFee = fee_;\n    }\n\n\n\n    /**\n     * @dev set the fee users pay to buy an option\n     * @param newProtocolFee_ the new fee (in tenth percent) to buy an option\n     */\n    function updateProtocolFee(uint256 newProtocolFee_) external override onlyOwner {\n        require(newProtocolFee_ == 0 || newProtocolFee_ > 50, \"invalid fee\");\n        protocolFee = newProtocolFee_;\n    }\n\n     /**\n     * @dev update the pool stake lock up time.\n     * @param newLockSeconds_ the new lock time, in seconds\n     */\n    function updatePoolLockSeconds(uint256 newLockSeconds_) external override onlyOwner {\n        //make sure that the pool lock period never exceeds 14 days (1209600 seconds)\n        require(newLockSeconds_ >= 0 && newLockSeconds_ < 1209600, \"invalid pool lock period\");\n        poolLockSeconds = newLockSeconds_;\n    }\n\n    /**\n     * @dev used to transfer ownership\n     * @param newOwner_ the address of governance contract which takes over control\n     */\n    function transferOwner(address payable newOwner_) external override onlyOwner {\n        owner = newOwner_;\n    }\n\n    /**\n     * @dev used to transfer fees\n     * @param newTreasury_ the new address to use\n     */\n    function transferDevFund(address payable newTreasury_) external override onlyOwner {\n        treasury = newTreasury_;\n    }\n\n\n     /**\n     * @dev used to send this pool into EOL mode when a newer one is open\n     */\n    function closeStaking() external override onlyOwner {\n        open = !open;\n    }\n\n\n\n\n    /**\n     * @dev send ETH to the pool. Recieve pETH token representing your claim.\n     * If rewards are available recieve BIOP governance tokens as well.\n    */\n    function stake() external payable {\n        require(open, \"pool deposit closed\");\n        require(msg.value >= 100, \"stake to small\");\n        if (balanceOf(msg.sender) == 0) {\n            lW[msg.sender] = block.timestamp;\n            pClaims[msg.sender] = pClaims[msg.sender].add(rwd.mul(2));\n        }\n        updateLPmetrics();\n        nW[msg.sender] = block.timestamp + poolLockSeconds;//this one is seperate because it isn't updated on reward claim\n\n        _mint(msg.sender, msg.value);\n    }\n\n    /**\n     * @dev recieve ETH from the pool.\n     * If the current time is before your next available withdraw a 1% fee will be applied.\n     * @param amount The amount of pETH to return the pool (burn).\n    */\n    function withdraw(uint256 amount) public {\n       require (balanceOf(msg.sender) >= amount, \"Insufficent Share Balance\");\n        lW[msg.sender] = block.timestamp;\n        //value to receive\n        uint256 vTR = amount.mul(address(this).balance).div(totalSupply().sub(lockedAmount));\n        _burn(msg.sender, amount);\n        if (block.timestamp <= nW[msg.sender]) {\n            //early withdraw fee\n            uint256 penalty = vTR.div(100);\n            require(treasury.send(penalty), \"transfer failed\");\n            require(msg.sender.send(vTR.sub(penalty)), \"transfer failed\");\n        } else {\n            require(msg.sender.send(vTR), \"transfer failed\");\n        }\n    }\n\n     /**\n    @dev helper for getting rate\n    @param pair the price provider\n    @param deposit option premium (payment) amount\n    @param t time\n    @param k direction bool, true is call\n    @return the rate\n    */\n    function getRate(address pair, uint256 deposit, uint256 t, bool k) public view returns (uint256) {\n        IAPP app_ = IAPP(app);\n        require(app_.aprvd(pair) != 0x0000000000000000000000000000000000000000, \"invalid trading pair\");\n        RateCalc rc = RateCalc(app_.aprvd(pair));\n        return rc.rate(deposit, lockedAmount , t, k, oC, oP, address(this).balance);\n    }\n\n     /**\n    @dev Open a new call or put options.\n    @param k_ type of option to buy (true for call )\n    @param pp_ the address of the price provider to use (must be in the list of aprvd from IAPP)\n    @param t_ the rounds until your options expiration (must be minT < t_ > maxT)\n    */\n    function openPosition(bool k_, address pp_, uint80 t_) external payable override {\n        require(\n            t_ >= minT && t_ <= maxT,\n            \"Invalid time\"\n        );\n        IAPP app_ = IAPP(app);\n        require(app_.aprvd(pp_) != 0x0000000000000000000000000000000000000000, \"Invalid  price provider\");\n\n        AggregatorProxy priceProvider = AggregatorProxy(pp_);\n        (uint80 lR, int256 lA, , , ) = priceProvider.latestRoundData();\n        uint256 oID = options.length;\n\n\n            //normal eth binary option\n            require(msg.value <= getMaxAvailable(), \"option value too large\");\n\n\n\n\n\n            uint256 lV = getRate(pp_, msg.value, t_, k_);\n\n            if (rewEn) {\n                pClaims[msg.sender] = pClaims[msg.sender].add(getTradeExerciseBonus(msg.value, false));\n            }\n            lock(lV);\n\n\n\n        Option memory op = Option(\n            msg.sender,\n            lA,\n            lR,\n            msg.value,\n            lV,\n            t_,//rounds until expiration\n            k_,\n            pp_,\n            address(this)\n        );\n\n        options.push(op);\n        tI = tI.add(lV);\n        if (k_) {\n            oC = oC+lV;\n        } else {\n            oP = oP+lV;\n        }\n        emit Create(oID, msg.sender, lA, lV, k_, lR, t_);\n    }\n\n\n\n\n\n\n\n     /**\n     * @notice settle an option\n     * @dev exercise and expire functions have been deprecated in favor of this single complete option\n     * @param oID id of the option to complete\n     */\n    function complete(uint256 oID)\n        external\n    {\n        Option memory option = options[oID];\n\n        AggregatorProxy priceProvider = AggregatorProxy(option.pP);\n        (uint80 lR, int256 lA, , , ) = priceProvider.getRoundData(uint80(option.pR+option.exp));\n        require(lA != 0 && lR != 0, \"not ready yet\");\n        if (option.dir) {\n            //call option\n            if (option.sP > lA) {\n              //OTM expire\n              expire(option, oID);\n            } else {\n              //ITM exercise\n              exercise(option, oID);\n            }\n            oC = oC.sub(option.lV);\n        } else {\n            //put option\n            if (lA > option.sP) {\n              //OTM expire\n              expire(option, oID);\n            } else {\n              //ITM exercise\n              exercise(option, oID);\n            }\n            oP = oP.sub(option.lV);\n        }\n\n\n        if (rewEn) {\n            pClaims[msg.sender] = pClaims[msg.sender].add(getTradeExerciseBonus(option.lV, true));\n        }\n    }\n\n    /**\n     * @notice exercise an option\n     * @dev use complete to exercise (or expire) an option. This is a internal function\n     * @param option the option to exercise\n     * @param oID the option id\n     */\n    function exercise(Option memory option, uint256 oID) internal {\n        //option expires ITM, we pay out\n\n        uint256 lv = option.lV;\n\n        //an optional (to be choosen by contract owner) fee on each option.\n        //A % of the trade money is sent as a fee. see protocolFee\n        if (lv > protocolFee && protocolFee > 0) {\n                uint256 fee = lv.div(protocolFee);\n                require(treasury.send(fee), \"protocolFee transfer failed\");\n                lv = lv.sub(fee);\n        }\n\n        payout(lv, msg.sender, option.holder);\n        lockedAmount = lockedAmount.sub(option.lV);\n\n        emit Exercise(oID);\n    }\n\n     /**\n     * @notice expire an option\n     * @dev use complete to expire (or exercise) an option. This is a internal function\n     * @param option the option to expire\n     * @param oID the option id\n     */\n    function expire(Option memory option, uint256 oID)\n        internal\n    {\n        unlock(option.lV, msg.sender);\n        lockedAmount = lockedAmount.sub(option.lV);\n        emit Expire(oID);\n    }\n\n    /**\n    @dev called by BinaryOptions contract to lock pool value coresponding to new binary options bought.\n    @param amount amount in ETH to lock from the pool total.\n    */\n    function lock(uint256 amount) internal {\n        lockedAmount = lockedAmount.add(amount);\n    }\n\n    /**\n    @dev called by BinaryOptions contract to unlock pool value coresponding to an option expiring otm.\n    @param amount amount in ETH to unlock\n    @param goodSamaritan the user paying to unlock these funds, they recieve a fee\n    */\n    function unlock(uint256 amount, address payable goodSamaritan) internal {\n        require(amount <= lockedAmount, \"insufficent locked pool balance to unlock\");\n        uint256 fee = amount.div(settlerFee).div(100);\n        if (fee > 0) {\n            require(goodSamaritan.send(fee), \"good samaritan transfer failed\");\n        }\n    }\n\n    /**\n    @dev called by BinaryOptions contract to payout pool value coresponding to binary options expiring itm.\n    @param amount amount in ETH to unlock\n    @param exerciser address calling the exercise/expire function, this may the winner or another user who then earns a fee.\n    @param winner address of the winner.\n    @notice exerciser fees are subject to change see updateFeePercent above.\n    */\n    function payout(uint256 amount, address payable exerciser, address payable winner) internal {\n        require(amount <= lockedAmount, \"insufficent pool balance available to payout\");\n        require(amount <= address(this).balance, \"insufficent balance in pool\");\n        if (exerciser != winner) {\n            //good samaratin fee\n            uint256 fee = amount.div(settlerFee).div(100);\n            if (fee > 0) {\n                require(exerciser.send(fee), \"exerciser transfer failed\");\n                require(winner.send(amount.sub(fee)), \"winner transfer failed\");\n            }\n        } else {\n            require(winner.send(amount), \"winner transfer failed\");\n        }\n        emit Payout(amount, winner);\n    }\n\n}\n",
  "sourcePath": "/Users/x/Desktop/eth/BIOPv4/contracts/NativeAssetDenominatedBinaryOptions.sol",
  "compiler": {
    "name": "solc",
    "version": "0.6.6+commit.6c089d02.Emscripten.clang"
  },
  "schemaVersion": "3.3.4",
  "updatedAt": "2021-06-14T19:21:29.599Z",
  "devdoc": {
    "methods": {
      "allowance(address,address)": {
        "details": "See {IERC20-allowance}."
      },
      "approve(address,uint256)": {
        "details": "See {IERC20-approve}.     * Requirements:     * - `spender` cannot be the zero address."
      },
      "balanceOf(address)": {
        "details": "See {IERC20-balanceOf}."
      },
      "claimRewards()": {
        "details": "distribute pending governance token claims to user"
      },
      "closeStaking()": {
        "details": "used to send this pool into EOL mode when a newer one is open"
      },
      "complete(uint256)": {
        "details": "exercise and expire functions have been deprecated in favor of this single complete option",
        "params": {
          "oID": "id of the option to complete"
        }
      },
      "constructor": {
        "params": {
          "app_": "address of approved price providers contract",
          "biop_": "address of the gov token",
          "name_": "the name of the LP token",
          "symbol_": "the symbol of the LP token",
          "uR_": "address of utilization rewards contract"
        }
      },
      "decimals()": {
        "details": "Returns the number of decimals used to get its user representation. For example, if `decimals` equals `2`, a balance of `505` tokens should be displayed to a user as `5,05` (`505 / 10 ** 2`).     * Tokens usually opt for a value of 18, imitating the relationship between Ether and Wei. This is the value {ERC20} uses, unless {_setupDecimals} is called.     * NOTE: This information is only used for _display_ purposes: it in no way affects any of the arithmetic of the contract, including {IERC20-balanceOf} and {IERC20-transfer}."
      },
      "decreaseAllowance(address,uint256)": {
        "details": "Atomically decreases the allowance granted to `spender` by the caller.     * This is an alternative to {approve} that can be used as a mitigation for problems described in {IERC20-approve}.     * Emits an {Approval} event indicating the updated allowance.     * Requirements:     * - `spender` cannot be the zero address. - `spender` must have allowance for the caller of at least `subtractedValue`."
      },
      "enableRewards(bool)": {
        "details": "enable or disable BIOP utilization rewards",
        "params": {
          "nx_": "the new position for the rewEn switch"
        }
      },
      "getMaxAvailable()": {
        "details": "Get the maximum option premium (payment) possible"
      },
      "getRate(address,uint256,uint256,bool)": {
        "details": "helper for getting rate",
        "params": {
          "deposit": "option premium (payment) amount",
          "k": "direction bool, true is call",
          "pair": "the price provider",
          "t": "time"
        },
        "returns": {
          "_0": "the rate"
        }
      },
      "increaseAllowance(address,uint256)": {
        "details": "Atomically increases the allowance granted to `spender` by the caller.     * This is an alternative to {approve} that can be used as a mitigation for problems described in {IERC20-approve}.     * Emits an {Approval} event indicating the updated allowance.     * Requirements:     * - `spender` cannot be the zero address."
      },
      "name()": {
        "details": "Returns the name of the token."
      },
      "openPosition(bool,address,uint80)": {
        "details": "Open a new call or put options.",
        "params": {
          "k_": "type of option to buy (true for call )",
          "pp_": "the address of the price provider to use (must be in the list of aprvd from IAPP)",
          "t_": "the rounds until your options expiration (must be minT < t_ > maxT)"
        }
      },
      "setMaxT(uint256)": {
        "details": "update the max rounds for an option position",
        "params": {
          "newMax_": "the new maximum time (in rounds) an option may be created for (inclusive)."
        }
      },
      "setMinT(uint256)": {
        "details": "update the min rounds for an option position",
        "params": {
          "newMin_": "the new minimum time (in rounds) an option may be created for (inclusive)."
        }
      },
      "stake()": {
        "details": "send ETH to the pool. Recieve pETH token representing your claim. If rewards are available recieve BIOP governance tokens as well."
      },
      "symbol()": {
        "details": "Returns the symbol of the token, usually a shorter version of the name."
      },
      "thisAddress()": {
        "details": "address of this contract, convenience method"
      },
      "totalSupply()": {
        "details": "See {IERC20-totalSupply}."
      },
      "transfer(address,uint256)": {
        "details": "See {IERC20-transfer}.     * Requirements:     * - `recipient` cannot be the zero address. - the caller must have a balance of at least `amount`."
      },
      "transferDevFund(address)": {
        "details": "used to transfer fees",
        "params": {
          "newTreasury_": "the new address to use"
        }
      },
      "transferFrom(address,address,uint256)": {
        "details": "See {IERC20-transferFrom}.     * Emits an {Approval} event indicating the updated allowance. This is not required by the EIP. See the note at the beginning of {ERC20}.     * Requirements:     * - `sender` and `recipient` cannot be the zero address. - `sender` must have a balance of at least `amount`. - the caller must have allowance for ``sender``'s tokens of at least `amount`."
      },
      "transferOwner(address)": {
        "details": "used to transfer ownership",
        "params": {
          "newOwner_": "the address of governance contract which takes over control"
        }
      },
      "updateAPP(address)": {
        "details": "update APP",
        "params": {
          "newAPP": "the new approved price provider (and ratecalc contract to use). Must be a IAPP"
        }
      },
      "updatePoolLockSeconds(uint256)": {
        "details": "update the pool stake lock up time.",
        "params": {
          "newLockSeconds_": "the new lock time, in seconds"
        }
      },
      "updateProtocolFee(uint256)": {
        "details": "set the fee users pay to buy an option",
        "params": {
          "newProtocolFee_": "the new fee (in tenth percent) to buy an option"
        }
      },
      "updateSettlerFee(uint256)": {
        "details": "set the fee users can recieve for settling other users options",
        "params": {
          "fee_": "the new fee (in tenth percent) for settling a options"
        }
      },
      "updateUtilizationRewards(address)": {
        "details": "update reward base amount",
        "params": {
          "newUR": "the new UtilizationRewards contract to use"
        }
      },
      "withdraw(uint256)": {
        "details": "recieve ETH from the pool. If the current time is before your next available withdraw a 1% fee will be applied.",
        "params": {
          "amount": "The amount of pETH to return the pool (burn)."
        }
      }
    }
  },
  "userdoc": {
    "methods": {
      "complete(uint256)": {
        "notice": "settle an option"
      }
    }
  }
}