{
  "contractName": "Owned",
  "abi": [
    {
      "inputs": [],
      "stateMutability": "nonpayable",
      "type": "constructor"
    },
    {
      "anonymous": false,
      "inputs": [
        {
          "indexed": true,
          "internalType": "address",
          "name": "from",
          "type": "address"
        },
        {
          "indexed": true,
          "internalType": "address",
          "name": "to",
          "type": "address"
        }
      ],
      "name": "OwnershipTransferRequested",
      "type": "event"
    },
    {
      "anonymous": false,
      "inputs": [
        {
          "indexed": true,
          "internalType": "address",
          "name": "from",
          "type": "address"
        },
        {
          "indexed": true,
          "internalType": "address",
          "name": "to",
          "type": "address"
        }
      ],
      "name": "OwnershipTransferred",
      "type": "event"
    },
    {
      "inputs": [],
      "name": "owner",
      "outputs": [
        {
          "internalType": "address",
          "name": "",
          "type": "address"
        }
      ],
      "stateMutability": "view",
      "type": "function"
    },
    {
      "inputs": [
        {
          "internalType": "address",
          "name": "_to",
          "type": "address"
        }
      ],
      "name": "transferOwnership",
      "outputs": [],
      "stateMutability": "nonpayable",
      "type": "function"
    },
    {
      "inputs": [],
      "name": "acceptOwnership",
      "outputs": [],
      "stateMutability": "nonpayable",
      "type": "function"
    }
  ],
  "bytecode": "0x608060405234801561001057600080fd5b50600080546001600160a01b03191633179055610237806100326000396000f3fe608060405234801561001057600080fd5b50600436106100415760003560e01c806379ba5097146100465780638da5cb5b14610050578063f2fde38b14610074575b600080fd5b61004e61009a565b005b610058610149565b604080516001600160a01b039092168252519081900360200190f35b61004e6004803603602081101561008a57600080fd5b50356001600160a01b0316610158565b6001546001600160a01b031633146100f2576040805162461bcd60e51b815260206004820152601660248201527526bab9ba10313290383937b837b9b2b21037bbb732b960511b604482015290519081900360640190fd5b60008054336001600160a01b0319808316821784556001805490911690556040516001600160a01b0390921692909183917f8be0079c531659141344cd1fd0a4f28419497f9722a3daafe3b4186f6b6457e091a350565b6000546001600160a01b031681565b6000546001600160a01b031633146101b0576040805162461bcd60e51b815260206004820152601660248201527527b7363c9031b0b63630b1363290313c9037bbb732b960511b604482015290519081900360640190fd5b600180546001600160a01b0319166001600160a01b0383811691821790925560008054604051929316917fed8889f560326eb138920d842192f0eb3dd22b4f139c87a2c57538e05bae12789190a35056fea26469706673582212207b342b62351f62d54a121f1ebb58b1fefe0f9e2f472162386fea30c32665635c64736f6c63430006060033",
  "immutableReferences": {},
  "source": "pragma solidity ^0.6.6;\n\nimport \"@openzeppelin/contracts/math/SafeMath.sol\";\nimport \"@openzeppelin/contracts/token/ERC20/ERC20.sol\";\n\n\n\nimport \"./BIOPTokenV4.sol\";\nimport \"./RateCalc.sol\";\nimport \"./interfaces/IUtilizationRewards.sol\";\nimport \"./interfaces/INativeAssetDenominatedBinaryOptions.sol\";\nimport \"./interfaces/IAPP.sol\";\n\n\ninterface AggregatorInterface {\n  function latestAnswer() external view returns (int256);\n  function latestTimestamp() external view returns (uint256);\n  function latestRound() external view returns (uint256);\n  function getAnswer(uint256 roundId) external view returns (int256);\n  function getTimestamp(uint256 roundId) external view returns (uint256);\n\n  event AnswerUpdated(int256 indexed current, uint256 indexed roundId, uint256 updatedAt);\n  event NewRound(uint256 indexed roundId, address indexed startedBy, uint256 startedAt);\n}\ninterface AggregatorV3Interface {\n\n  function decimals() external view returns (uint8);\n  function description() external view returns (string memory);\n  function version() external view returns (uint256);\n\n  // getRoundData and latestRoundData should both raise \"No data present\"\n  // if they do not have data to report, instead of returning unset values\n  // which could be misinterpreted as actual reported values.\n  function getRoundData(uint80 _roundId)\n    external\n    view\n    returns (\n      uint80 roundId,\n      int256 answer,\n      uint256 startedAt,\n      uint256 updatedAt,\n      uint80 answeredInRound\n    );\n  function latestRoundData()\n    external\n    view\n    returns (\n      uint80 roundId,\n      int256 answer,\n      uint256 startedAt,\n      uint256 updatedAt,\n      uint80 answeredInRound\n    );\n\n}\ninterface AggregatorV2V3Interface is AggregatorInterface, AggregatorV3Interface\n{\n}\n\n/**\n * @title The Owned contract\n * @notice A contract with helpers for basic contract ownership.\n */\ncontract Owned {\n\n  address public owner;\n  address private pendingOwner;\n\n  event OwnershipTransferRequested(\n    address indexed from,\n    address indexed to\n  );\n  event OwnershipTransferred(\n    address indexed from,\n    address indexed to\n  );\n\n  constructor() public {\n    owner = msg.sender;\n  }\n\n  /**\n   * @dev Allows an owner to begin transferring ownership to a new address,\n   * pending.\n   */\n  function transferOwnership(address _to)\n    external\n    onlyOwner()\n  {\n    pendingOwner = _to;\n\n    emit OwnershipTransferRequested(owner, _to);\n  }\n\n  /**\n   * @dev Allows an ownership transfer to be completed by the recipient.\n   */\n  function acceptOwnership()\n    external\n  {\n    require(msg.sender == pendingOwner, \"Must be proposed owner\");\n\n    address oldOwner = owner;\n    owner = msg.sender;\n    pendingOwner = address(0);\n\n    emit OwnershipTransferred(oldOwner, msg.sender);\n  }\n\n  /**\n   * @dev Reverts if called by anyone other than the contract owner.\n   */\n  modifier onlyOwner() {\n    require(msg.sender == owner, \"Only callable by owner\");\n    _;\n  }\n\n}\ncontract AggregatorProxy is AggregatorV2V3Interface, Owned {\n\n  struct Phase {\n    uint16 id;\n    AggregatorV2V3Interface aggregator;\n  }\n  Phase private currentPhase;\n  AggregatorV2V3Interface public proposedAggregator;\n  mapping(uint16 => AggregatorV2V3Interface) public phaseAggregators;\n\n  uint256 constant private PHASE_OFFSET = 64;\n  uint256 constant private PHASE_SIZE = 16;\n  uint256 constant private MAX_ID = 2**(PHASE_OFFSET+PHASE_SIZE) - 1;\n\n  constructor(address _aggregator) public Owned() {\n    setAggregator(_aggregator);\n  }\n\n  /**\n   * @notice Reads the current answer from aggregator delegated to.\n   *\n   * @dev #[deprecated] Use latestRoundData instead. This does not error if no\n   * answer has been reached, it will simply return 0. Either wait to point to\n   * an already answered Aggregator or use the recommended latestRoundData\n   * instead which includes better verification information.\n   */\n  function latestAnswer()\n    public\n    view\n    virtual\n    override\n    returns (int256 answer)\n  {\n    return currentPhase.aggregator.latestAnswer();\n  }\n\n  /**\n   * @notice Reads the last updated height from aggregator delegated to.\n   *\n   * @dev #[deprecated] Use latestRoundData instead. This does not error if no\n   * answer has been reached, it will simply return 0. Either wait to point to\n   * an already answered Aggregator or use the recommended latestRoundData\n   * instead which includes better verification information.\n   */\n  function latestTimestamp()\n    public\n    view\n    virtual\n    override\n    returns (uint256 updatedAt)\n  {\n    return currentPhase.aggregator.latestTimestamp();\n  }\n\n  /**\n   * @notice get past rounds answers\n   * @param _roundId the answer number to retrieve the answer for\n   *\n   * @dev #[deprecated] Use getRoundData instead. This does not error if no\n   * answer has been reached, it will simply return 0. Either wait to point to\n   * an already answered Aggregator or use the recommended getRoundData\n   * instead which includes better verification information.\n   */\n  function getAnswer(uint256 _roundId)\n    public\n    view\n    virtual\n    override\n    returns (int256 answer)\n  {\n    if (_roundId > MAX_ID) return 0;\n\n    (uint16 phaseId, uint64 aggregatorRoundId) = parseIds(_roundId);\n    AggregatorV2V3Interface aggregator = phaseAggregators[phaseId];\n    if (address(aggregator) == address(0)) return 0;\n\n    return aggregator.getAnswer(aggregatorRoundId);\n  }\n\n  /**\n   * @notice get block timestamp when an answer was last updated\n   * @param _roundId the answer number to retrieve the updated timestamp for\n   *\n   * @dev #[deprecated] Use getRoundData instead. This does not error if no\n   * answer has been reached, it will simply return 0. Either wait to point to\n   * an already answered Aggregator or use the recommended getRoundData\n   * instead which includes better verification information.\n   */\n  function getTimestamp(uint256 _roundId)\n    public\n    view\n    virtual\n    override\n    returns (uint256 updatedAt)\n  {\n    if (_roundId > MAX_ID) return 0;\n\n    (uint16 phaseId, uint64 aggregatorRoundId) = parseIds(_roundId);\n    AggregatorV2V3Interface aggregator = phaseAggregators[phaseId];\n    if (address(aggregator) == address(0)) return 0;\n\n    return aggregator.getTimestamp(aggregatorRoundId);\n  }\n\n  /**\n   * @notice get the latest completed round where the answer was updated. This\n   * ID includes the proxy's phase, to make sure round IDs increase even when\n   * switching to a newly deployed aggregator.\n   *\n   * @dev #[deprecated] Use latestRoundData instead. This does not error if no\n   * answer has been reached, it will simply return 0. Either wait to point to\n   * an already answered Aggregator or use the recommended latestRoundData\n   * instead which includes better verification information.\n   */\n  function latestRound()\n    public\n    view\n    virtual\n    override\n    returns (uint256 roundId)\n  {\n    Phase memory phase = currentPhase; // cache storage reads\n    return addPhase(phase.id, uint64(phase.aggregator.latestRound()));\n  }\n\n  /**\n   * @notice get data about a round. Consumers are encouraged to check\n   * that they're receiving fresh data by inspecting the updatedAt and\n   * answeredInRound return values.\n   * Note that different underlying implementations of AggregatorV3Interface\n   * have slightly different semantics for some of the return values. Consumers\n   * should determine what implementations they expect to receive\n   * data from and validate that they can properly handle return data from all\n   * of them.\n   * @param _roundId the requested round ID as presented through the proxy, this\n   * is made up of the aggregator's round ID with the phase ID encoded in the\n   * two highest order bytes\n   * @return roundId is the round ID from the aggregator for which the data was\n   * retrieved combined with an phase to ensure that round IDs get larger as\n   * time moves forward.\n   * @return answer is the answer for the given round\n   * @return startedAt is the timestamp when the round was started.\n   * (Only some AggregatorV3Interface implementations return meaningful values)\n   * @return updatedAt is the timestamp when the round last was updated (i.e.\n   * answer was last computed)\n   * @return answeredInRound is the round ID of the round in which the answer\n   * was computed.\n   * (Only some AggregatorV3Interface implementations return meaningful values)\n   * @dev Note that answer and updatedAt may change between queries.\n   */\n  function getRoundData(uint80 _roundId)\n    public\n    view\n    virtual\n    override\n    returns (\n      uint80 roundId,\n      int256 answer,\n      uint256 startedAt,\n      uint256 updatedAt,\n      uint80 answeredInRound\n    )\n  {\n    (uint16 phaseId, uint64 aggregatorRoundId) = parseIds(_roundId);\n\n    (\n      uint80 roundId,\n      int256 answer,\n      uint256 startedAt,\n      uint256 updatedAt,\n      uint80 ansIn\n    ) = phaseAggregators[phaseId].getRoundData(aggregatorRoundId);\n\n    return addPhaseIds(roundId, answer, startedAt, updatedAt, ansIn, phaseId);\n  }\n\n  /**\n   * @notice get data about the latest round. Consumers are encouraged to check\n   * that they're receiving fresh data by inspecting the updatedAt and\n   * answeredInRound return values.\n   * Note that different underlying implementations of AggregatorV3Interface\n   * have slightly different semantics for some of the return values. Consumers\n   * should determine what implementations they expect to receive\n   * data from and validate that they can properly handle return data from all\n   * of them.\n   * @return roundId is the round ID from the aggregator for which the data was\n   * retrieved combined with an phase to ensure that round IDs get larger as\n   * time moves forward.\n   * @return answer is the answer for the given round\n   * @return startedAt is the timestamp when the round was started.\n   * (Only some AggregatorV3Interface implementations return meaningful values)\n   * @return updatedAt is the timestamp when the round last was updated (i.e.\n   * answer was last computed)\n   * @return answeredInRound is the round ID of the round in which the answer\n   * was computed.\n   * (Only some AggregatorV3Interface implementations return meaningful values)\n   * @dev Note that answer and updatedAt may change between queries.\n   */\n  function latestRoundData()\n    public\n    view\n    virtual\n    override\n    returns (\n      uint80 roundId,\n      int256 answer,\n      uint256 startedAt,\n      uint256 updatedAt,\n      uint80 answeredInRound\n    )\n  {\n    Phase memory current = currentPhase; // cache storage reads\n\n    (\n      uint80 roundId,\n      int256 answer,\n      uint256 startedAt,\n      uint256 updatedAt,\n      uint80 ansIn\n    ) = current.aggregator.latestRoundData();\n\n    return addPhaseIds(roundId, answer, startedAt, updatedAt, ansIn, current.id);\n  }\n\n  /**\n   * @notice Used if an aggregator contract has been proposed.\n   * @param _roundId the round ID to retrieve the round data for\n   * @return roundId is the round ID for which data was retrieved\n   * @return answer is the answer for the given round\n   * @return startedAt is the timestamp when the round was started.\n   * (Only some AggregatorV3Interface implementations return meaningful values)\n   * @return updatedAt is the timestamp when the round last was updated (i.e.\n   * answer was last computed)\n   * @return answeredInRound is the round ID of the round in which the answer\n   * was computed.\n  */\n  function proposedGetRoundData(uint80 _roundId)\n    public\n    view\n    virtual\n    hasProposal()\n    returns (\n      uint80 roundId,\n      int256 answer,\n      uint256 startedAt,\n      uint256 updatedAt,\n      uint80 answeredInRound\n    )\n  {\n    return proposedAggregator.getRoundData(_roundId);\n  }\n\n  /**\n   * @notice Used if an aggregator contract has been proposed.\n   * @return roundId is the round ID for which data was retrieved\n   * @return answer is the answer for the given round\n   * @return startedAt is the timestamp when the round was started.\n   * (Only some AggregatorV3Interface implementations return meaningful values)\n   * @return updatedAt is the timestamp when the round last was updated (i.e.\n   * answer was last computed)\n   * @return answeredInRound is the round ID of the round in which the answer\n   * was computed.\n  */\n  function proposedLatestRoundData()\n    public\n    view\n    virtual\n    hasProposal()\n    returns (\n      uint80 roundId,\n      int256 answer,\n      uint256 startedAt,\n      uint256 updatedAt,\n      uint80 answeredInRound\n    )\n  {\n    return proposedAggregator.latestRoundData();\n  }\n\n  /**\n   * @notice returns the current phase's aggregator address.\n   */\n  function aggregator()\n    external\n    view\n    returns (address)\n  {\n    return address(currentPhase.aggregator);\n  }\n\n  /**\n   * @notice returns the current phase's ID.\n   */\n  function phaseId()\n    external\n    view\n    returns (uint16)\n  {\n    return currentPhase.id;\n  }\n\n  /**\n   * @notice represents the number of decimals the aggregator responses represent.\n   */\n  function decimals()\n    external\n    view\n    override\n    returns (uint8)\n  {\n    return currentPhase.aggregator.decimals();\n  }\n\n  /**\n   * @notice the version number representing the type of aggregator the proxy\n   * points to.\n   */\n  function version()\n    external\n    view\n    override\n    returns (uint256)\n  {\n    return currentPhase.aggregator.version();\n  }\n\n  /**\n   * @notice returns the description of the aggregator the proxy points to.\n   */\n  function description()\n    external\n    view\n    override\n    returns (string memory)\n  {\n    return currentPhase.aggregator.description();\n  }\n\n  /**\n   * @notice Allows the owner to propose a new address for the aggregator\n   * @param _aggregator The new address for the aggregator contract\n   */\n  function proposeAggregator(address _aggregator)\n    external\n    onlyOwner()\n  {\n    proposedAggregator = AggregatorV2V3Interface(_aggregator);\n  }\n\n  /**\n   * @notice Allows the owner to confirm and change the address\n   * to the proposed aggregator\n   * @dev Reverts if the given address doesn't match what was previously\n   * proposed\n   * @param _aggregator The new address for the aggregator contract\n   */\n  function confirmAggregator(address _aggregator)\n    external\n    onlyOwner()\n  {\n    require(_aggregator == address(proposedAggregator), \"Invalid proposed aggregator\");\n    delete proposedAggregator;\n    setAggregator(_aggregator);\n  }\n\n\n  /*\n   * Internal\n   */\n\n  function setAggregator(address _aggregator)\n    internal\n  {\n    uint16 id = currentPhase.id + 1;\n    currentPhase = Phase(id, AggregatorV2V3Interface(_aggregator));\n    phaseAggregators[id] = AggregatorV2V3Interface(_aggregator);\n  }\n\n  function addPhase(\n    uint16 _phase,\n    uint64 _originalId\n  )\n    internal\n    view\n    returns (uint80)\n  {\n    return uint80(uint256(_phase) << PHASE_OFFSET | _originalId);\n  }\n\n  function parseIds(\n    uint256 _roundId\n  )\n    internal\n    view\n    returns (uint16, uint64)\n  {\n    uint16 phaseId = uint16(_roundId >> PHASE_OFFSET);\n    uint64 aggregatorRoundId = uint64(_roundId);\n\n    return (phaseId, aggregatorRoundId);\n  }\n\n  function addPhaseIds(\n      uint80 roundId,\n      int256 answer,\n      uint256 startedAt,\n      uint256 updatedAt,\n      uint80 answeredInRound,\n      uint16 phaseId\n  )\n    internal\n    view\n    returns (uint80, int256, uint256, uint256, uint80)\n  {\n    return (\n      addPhase(phaseId, uint64(roundId)),\n      answer,\n      startedAt,\n      updatedAt,\n      addPhase(phaseId, uint64(answeredInRound))\n    );\n  }\n\n  /*\n   * Modifiers\n   */\n\n  modifier hasProposal() {\n    require(address(proposedAggregator) != address(0), \"No proposed aggregator present\");\n    _;\n  }\n\n}\n\n\ncontract NativeAssetDenominatedBinaryOptions is ERC20, INativeAssetDenominatedBinaryOptions {\n    using SafeMath for uint56;\n    address payable public devFund;\n    address payable public owner;\n    address public uR; //utilization rewards\n    address public biop;\n    address public app;//the approved pp/ratecalc\n    mapping(address=>uint256) public nW; //next withdraw (used for pool lock time)\n    mapping(address=>uint256) public lW;//last withdraw.used for rewards calc\n    mapping(address=>uint256) private pClaims;//pending claims\n    mapping(address=>uint256) public iAL;//interchange at last claim \n    mapping(address=>uint256) public lST;//last stake time\n\n\n    uint256 public oC = 0;\n    uint256 public oP = 0;\n\n\n\n    uint256 public minT;//min rounds\n    uint256 public maxT;//max rounds\n    uint256 public lockedAmount;\n    uint256 public exerciserFee = 50;//in tenth percent\n    uint256 public expirerFee = 50;//in tenth percent\n    uint256 public devFundBetFee = 0;//200;//0.5%\n    uint256 public poolLockSeconds = 7 days;\n    uint256 public contractCreated;\n    bool public open = true;\n    Option[] public options;\n    \n    uint256 public tI = 0;//total interchange\n    uint256 public rwd =  20000000000000000; //base utilitzation reward\n    bool public rewEn = true;//rewards enabled\n\n\n    modifier onlyOwner() {\n        require(owner == msg.sender, \"Ownable: caller is not the owner\");\n        _;\n    }\n\n\n    /* Types */\n    struct Option {\n        address payable holder;\n        int256 sP;//strike\n        uint80 pR;//purchase round\n        uint256 pV;//purchase value\n        uint256 lV;// purchaseAmount+possible reward for correct bet\n        uint80 exp;//final round of option s\n        bool dir;//direction (true for call)\n        address pP;//price provider\n        address aPA;//alt pool address \n    }\n\n    /* Events */\n     event Create(\n        uint256 indexed id,\n        address payable account,\n        int256 sP,//strike\n        uint256 lV,//locked value\n        bool dir,\n        uint80 pR,//purchase round\n        uint80 exp//expiration round\n    );\n    event Payout(uint256 poolLost, address winner);\n    event Exercise(uint256 indexed id);\n    event Expire(uint256 indexed id);\n\n\n    /**\n     * @param name_ the name of the LP token\n     * @param symbol_ the symbol of the LP token\n     * @param biop_ address of the gov token\n     * @param uR_ address of utilization rewards contract\n     * @param app_ address of approved price providerss contract\n     */\n      constructor(string memory name_, string memory symbol_, address biop_, address uR_, address app_) public ERC20(name_, symbol_){\n        devFund = msg.sender;\n        owner = msg.sender;\n        biop = biop_;\n        lockedAmount = 0;\n        contractCreated = block.timestamp;\n        minT = 1;\n        maxT = 3;\n        uR = uR_;\n        app = app_;\n    }\n\n\n    function getMaxAvailable() public view returns(uint256) {\n        uint256 balance = address(this).balance;\n        if (balance > lockedAmount) {\n            return balance.sub(lockedAmount);\n        } else {\n            return 0;\n        }\n    }\n\n\n    function getOptionCount() public view returns(uint256) {\n        return options.length;\n    }\n  \n\n    //used for betting/exercise/expire calc\n    function getBetSizeBonus(uint256 amount, bool completion) public view returns(uint256) {\n        IUtilizationRewards r = IUtilizationRewards(uR);\n        return r.getBetExerciseBonus(amount, address(this).balance, completion);\n    }\n\n    /**\n     * @dev Update the amount of rewards pending for this user\n     * @param amount the size of the trade\n     * @param stack the amount of options pending before this execution\n     */\n    function getCompleteBonus(uint256 amount, uint256 stack) public view returns(uint256) {\n        IUtilizationRewards r = IUtilizationRewards(uR);\n        return r.getCompleteBonus(amount, address(this).balance, stack);\n    }\n\n\n    function getPendingClaims(address account) public view returns(uint256) {\n\n        IUtilizationRewards r = IUtilizationRewards(uR);\n        if (balanceOf(account) > 1) {\n            //staker reward bonus\n            //base*(weeks)*(poolBalanceBonus/10)*optionsBacked\n            return pClaims[account].add(\n                r.getLPStakingBonus(lST[account],iAL[account], tI, balanceOf(account), totalSupply())\n            );\n        } else {\n            //normal rewards\n            return pClaims[account];\n        }\n    }\n\n    function updateLPmetrics() internal {\n        lST[msg.sender] = block.timestamp;\n        iAL[msg.sender] = tI;\n    }\n     /**\n     * @dev distribute pending governance token claims to user\n     */\n    function claimRewards() external {\n        \n        BIOPTokenV4 b = BIOPTokenV4(biop);\n        \n        uint256 claims = getPendingClaims(msg.sender);\n        if (balanceOf(msg.sender) >= 1) {\n            updateLPmetrics();\n        }\n        pClaims[msg.sender] = 0;\n\n        IUtilizationRewards r = IUtilizationRewards(uR);\n        r.distributeClaim(claims);\n    }\n\n    /**\n     * @dev address of this contract, convenience method\n     */\n    function thisAddress() public view returns (address){\n        return address(this);\n    }\n\n    /**\n     * @dev update BIOP token address\n     * @param a the address for a new BIOP token to be used\n     */\n    function updateBIOPToken(address payable a) external override onlyOwner {\n        biop = a; \n    }\n\n    /**\n     * @dev update reward base amount\n     * @param newUR the new UtilizationRewards contract to use\n     */\n    function updateUtilizationRewards(address newUR) external override onlyOwner {\n        uR = newUR; \n    }\n\n    /**\n     * @dev update APP\n     * @param newAPP the new approved price provider (and ratecalc contract to use). Must be a IAPP\n     */\n    function updateAPP(address newAPP) external override onlyOwner {\n        app = newAPP; \n    }\n\n    \n\n    /**\n     * @dev enable or disable BIOP utilization rewards\n     * @param nx_ the new position for the rewEn switch\n     */\n    function enableRewards(bool nx_) external override onlyOwner {\n        rewEn = nx_;\n    }\n\n    /**\n     * @dev update the max rounds for option bets\n     * @param newMax_ the new maximum time (in rounds) an option may be created for (inclusive).\n     */\n    function setMaxT(uint256 newMax_) external override onlyOwner {\n        maxT = newMax_;\n    }\n\n    /**\n     * @dev update the min rounds for option bets\n     * @param newMin_ the new minimum rounds (in rounds) an option may be created for (inclusive).\n     */\n    function setMinT(uint256 newMin_) external override onlyOwner {\n        minT = newMin_;\n    }\n\n    \n\n    /**\n     * @dev set the fee users can recieve for exercising other users options\n     * @param exerciserFee_ the new fee (in tenth percent) for exercising a options itm\n     */\n    function updateExerciserFee(uint256 exerciserFee_) external override onlyOwner {\n        require(exerciserFee_ > 1 && exerciserFee_ < 500, \"invalid fee\");\n        exerciserFee = exerciserFee_;\n    }\n\n     /**\n     * @dev set the fee users can recieve for expiring other users options\n     * @param expirerFee_ the new fee (in tenth percent) for expiring a options\n     */\n    function updateExpirerFee(uint256 expirerFee_) external override onlyOwner {\n        require(expirerFee_ > 1 && expirerFee_ < 50, \"invalid fee\");\n        expirerFee = expirerFee_;\n    }\n\n    /**\n     * @dev set the fee users pay to buy an option\n     * @param devFundBetFee_ the new fee (in tenth percent) to buy an option\n     */\n    function updateDevFundBetFee(uint256 devFundBetFee_) external override onlyOwner {\n        require(devFundBetFee_ == 0 || devFundBetFee_ > 50, \"invalid fee\");\n        devFundBetFee = devFundBetFee_;\n    }\n\n     /**\n     * @dev update the pool stake lock up time.\n     * @param newLockSeconds_ the new lock time, in seconds\n     */\n    function updatePoolLockSeconds(uint256 newLockSeconds_) external override onlyOwner {\n        require(newLockSeconds_ >= 0 && newLockSeconds_ < 14 days, \"invalid fee\");\n        poolLockSeconds = newLockSeconds_;\n    }\n\n    /**\n     * @dev used to transfer ownership\n     * @param newOwner_ the address of governance contract which takes over control\n     */\n    function transferOwner(address payable newOwner_) external override onlyOwner {\n        owner = newOwner_;\n    }\n\n    /**\n     * @dev used to transfer devfund \n     * @param newDevFund the address of governance contract which takes over control\n     */\n    function transferDevFund(address payable newDevFund) external override onlyOwner {\n        devFund = newDevFund;\n    }\n\n\n     /**\n     * @dev used to send this pool into EOL mode when a newer one is open\n     */\n    function closeStaking() external override onlyOwner {\n        open = !open;\n    }\n\n   \n    \n\n    /**\n     * @dev send ETH to the pool. Recieve pETH token representing your claim.\n     * If rewards are available recieve BIOP governance tokens as well.\n    */\n    function stake() external payable {\n        require(open == true, \"pool deposits has closed\");\n        require(msg.value >= 100, \"stake to small\");\n        if (balanceOf(msg.sender) == 0) {\n            lW[msg.sender] = block.timestamp;\n            pClaims[msg.sender] = pClaims[msg.sender].add(rwd.mul(2));\n        }\n        updateLPmetrics();\n        nW[msg.sender] = block.timestamp + poolLockSeconds;//this one is seperate because it isn't updated on reward claim\n        \n        _mint(msg.sender, msg.value);\n    }\n\n    /**\n     * @dev recieve ETH from the pool. \n     * If the current time is before your next available withdraw a 1% fee will be applied.\n     * @param amount The amount of pETH to return the pool (burn).\n    */\n    function withdraw(uint256 amount) public {\n       require (balanceOf(msg.sender) >= amount, \"Insufficent Share Balance\");\n        lW[msg.sender] = block.timestamp;\n        //value to receive\n        uint256 vTR = amount.mul(address(this).balance).div(totalSupply().sub(lockedAmount));\n        _burn(msg.sender, amount);\n        if (block.timestamp <= nW[msg.sender]) {\n            //early withdraw fee\n            uint256 penalty = vTR.div(100);\n            require(devFund.send(penalty), \"transfer failed\");\n            require(msg.sender.send(vTR.sub(penalty)), \"transfer failed\");\n        } else {\n            require(msg.sender.send(vTR), \"transfer failed\");\n        }\n    }\n\n     /**\n    @dev helper for getting rate\n    @param pair the price provider\n    @param deposit bet amount\n    @param t time\n    @param k direction bool, true is call\n    @return the rate\n    */\n    function getRate(address pair, uint256 deposit, uint256 t, bool k) public view returns (uint256) {\n        IAPP app_ = IAPP(app);\n        require(app_.aprvd(pair) != 0x0000000000000000000000000000000000000000, \"invalid trading pair\");\n        \n        RateCalc rc = RateCalc(app_.aprvd(pair));\n        uint256 s;\n        if (k){\n            if (oP >= oC) {\n              s = 1;\n            } else {\n              s = oC.sub(oP);\n            }\n        } else {\n            if (oC >= oP) {\n              s = 1;\n            } else {\n              s = oP.sub(oC);\n            }\n        }\n        \n        return rc.rate(deposit, lockedAmount , t, k, s, address(this).balance);\n    }\n\n     /**\n    @dev Open a new call or put options.\n    @param k_ type of option to buy (true for call )\n    @param pp_ the address of the price provider to use (must be in the list of aprvd from IAPP)\n    @param t_ the rounds until your options expiration (must be minT < t_ > maxT)\n    */\n    function bet(bool k_, address pp_, uint80 t_) external payable {\n        require(\n            t_ >= minT && t_ <= maxT,\n            \"Invalid time\"\n        );\n        IAPP app_ = IAPP(app);\n        require(app_.aprvd(pp_) != 0x0000000000000000000000000000000000000000, \"Invalid  price provider\");\n        \n        AggregatorProxy priceProvider = AggregatorProxy(pp_);\n        (uint80 lR, int256 lA, , , ) = priceProvider.latestRoundData();\n        uint256 oID = options.length;\n\n        \n            //normal eth bet\n            require(msg.value <= getMaxAvailable(), \"bet to big\");\n\n\n            \n\n\n            uint256 lV = getRate(pp_, msg.value, t_, k_);\n            \n            if (rewEn) {\n                pClaims[msg.sender] = pClaims[msg.sender].add(getBetSizeBonus(msg.value, false));\n            }\n            lock(lV);\n        \n\n\n        Option memory op = Option(\n            msg.sender,\n            lA,\n            lR,\n            msg.value,\n            lV,\n            t_,//rounds until expiration\n            k_,\n            pp_,\n            address(this)\n        );\n\n        options.push(op);\n        tI = tI.add(lV);\n        if (k_) {\n            oC = oC+1;\n        } else {\n            oP = oP+1;\n        }\n        emit Create(oID, msg.sender, lA, lV, k_, lR, t_);\n    }\n\n  \n\n\n\n    \n\n     /**\n     * @notice exercises or expire a option\n     * @dev exercise and expire functions have been depreciated in favor of this single complete option\n     * @param oID id of the option to complete\n     */\n    function complete(uint256 oID)\n        external\n    {\n        Option memory option = options[oID];\n\n        AggregatorProxy priceProvider = AggregatorProxy(option.pP);\n        (uint80 lR, int256 lA, , , ) = priceProvider.getRoundData(uint80(option.pR+option.exp));\n        require(lA != 0 && lR != 0, \"not ready yet\");\n        uint256 stack = oC.add(oP);\n        if (option.dir) {\n            //call option\n            if (option.sP > lA) {\n              //OTM expire\n              expire(option, oID);\n            } else {\n              //ITM exercise\n              exercise(option, oID);\n            }\n            oC = oC-1;\n        } else {\n            //put option\n            if (lA > option.sP) {\n              //OTM expire\n              expire(option, oID);\n            } else {\n              //ITM exercise\n              exercise(option, oID);\n            }\n            oP = oP-1;\n        }\n\n\n        if (rewEn) {\n            pClaims[msg.sender] = pClaims[msg.sender].add(getCompleteBonus(option.lV, stack));\n        }\n    }\n\n    /**\n     * @notice exercise an option\n     * @dev use complete to exercise (or expire) an option. This is a internal function\n     * @param option the option to exercise\n     * @param oID the option id\n     */\n    function exercise(Option memory option, uint256 oID) internal {\n        //option expires ITM, we pay out\n\n        uint256 lv = option.lV;\n\n        //an optional (to be choosen by contract owner) fee on each option. \n        //A % of the bet money is sent as a fee. see devFundBetFee\n        if (lv > devFundBetFee && devFundBetFee > 0) {\n                uint256 fee = lv.div(devFundBetFee);\n                require(devFund.send(fee), \"devFund fee transfer failed\");\n                lv = lv.sub(fee);\n        }\n\n        payout(lv, msg.sender, option.holder);\n        lockedAmount = lockedAmount.sub(option.lV);\n        \n        emit Exercise(oID);\n    }\n\n     /**\n     * @notice expire an option\n     * @dev use complete to expire (or exercise) an option. This is a internal function\n     * @param option the option to expire\n     * @param oID the option id\n     */\n    function expire(Option memory option, uint256 oID)\n        internal\n    {   \n        unlock(option.lV, msg.sender);\n        lockedAmount = lockedAmount.sub(option.lV);\n        emit Expire(oID);\n    }\n\n    /**\n    @dev called by BinaryOptions contract to lock pool value coresponding to new binary options bought. \n    @param amount amount in ETH to lock from the pool total.\n    */\n    function lock(uint256 amount) internal {\n        lockedAmount = lockedAmount.add(amount);\n    }\n\n    /**\n    @dev called by BinaryOptions contract to unlock pool value coresponding to an option expiring otm. \n    @param amount amount in ETH to unlock\n    @param goodSamaritan the user paying to unlock these funds, they recieve a fee\n    */\n    function unlock(uint256 amount, address payable goodSamaritan) internal {\n        require(amount <= lockedAmount, \"insufficent locked pool balance to unlock\");\n        uint256 fee;\n        if (amount <= 10000000000000000) {//small options give bigger fee %\n            fee = amount.div(exerciserFee.mul(4)).div(100);\n        } else {\n            fee = amount.div(exerciserFee).div(100);\n        } \n        if (fee > 0) {\n            require(goodSamaritan.send(fee), \"good samaritan transfer failed\");\n        }\n    }\n\n    /**\n    @dev called by BinaryOptions contract to payout pool value coresponding to binary options expiring itm. \n    @param amount amount in ETH to unlock\n    @param exerciser address calling the exercise/expire function, this may the winner or another user who then earns a fee.\n    @param winner address of the winner.\n    @notice exerciser fees are subject to change see updateFeePercent above.\n    */\n    function payout(uint256 amount, address payable exerciser, address payable winner) internal {\n        require(amount <= lockedAmount, \"insufficent pool balance available to payout\");\n        require(amount <= address(this).balance, \"insufficent balance in pool\");\n        if (exerciser != winner) {\n            //good samaratin fee\n            uint256 fee;\n            if (amount <= 10000000000000000) {//small options give bigger fee %\n                fee = amount.div(exerciserFee.mul(4)).div(100);\n            } else {\n                fee = amount.div(exerciserFee).div(100);\n            } \n            if (fee > 0) {\n                require(exerciser.send(fee), \"exerciser transfer failed\");\n                require(winner.send(amount.sub(fee)), \"winner transfer failed\");\n            }\n        } else {  \n            require(winner.send(amount), \"winner transfer failed\");\n        }\n        emit Payout(amount, winner);\n    }\n\n}\n",
  "sourcePath": "/Users/x/Desktop/eth/BIOPv4/contracts/NativeAssetDenominatedBinaryOptions.sol",
  "compiler": {
    "name": "solc",
    "version": "0.6.6+commit.6c089d02.Emscripten.clang"
  },
  "schemaVersion": "3.3.4",
  "updatedAt": "2021-05-15T00:53:53.259Z",
  "devdoc": {
    "methods": {
      "acceptOwnership()": {
        "details": "Allows an ownership transfer to be completed by the recipient."
      },
      "transferOwnership(address)": {
        "details": "Allows an owner to begin transferring ownership to a new address, pending."
      }
    },
    "title": "The Owned contract"
  },
  "userdoc": {
    "methods": {},
    "notice": "A contract with helpers for basic contract ownership."
  }
}