{
  "contractName": "RateCalc",
  "abi": [
    {
      "inputs": [
        {
          "internalType": "uint256",
          "name": "amount",
          "type": "uint256"
        },
        {
          "internalType": "uint256",
          "name": "l",
          "type": "uint256"
        },
        {
          "internalType": "uint256",
          "name": "t",
          "type": "uint256"
        },
        {
          "internalType": "bool",
          "name": "k",
          "type": "bool"
        },
        {
          "internalType": "uint256",
          "name": "oC",
          "type": "uint256"
        },
        {
          "internalType": "uint256",
          "name": "oP",
          "type": "uint256"
        },
        {
          "internalType": "uint256",
          "name": "tP",
          "type": "uint256"
        }
      ],
      "name": "rate",
      "outputs": [
        {
          "internalType": "uint256",
          "name": "",
          "type": "uint256"
        }
      ],
      "stateMutability": "view",
      "type": "function"
    }
  ],
  "bytecode": "0x608060405234801561001057600080fd5b50610121806100206000396000f3fe6080604052348015600f57600080fd5b506004361060285760003560e01c80634682fdce14602d575b600080fd5b606d600480360360e0811015604157600080fd5b50803590602081013590604081013590606081013515159060808101359060a08101359060c00135607f565b60408051918252519081900360200190f35b600060405162461bcd60e51b81526004018080602001828103825260338152602001806100b96033913960400191505060405180910390fdfe446f6e2774207573652074686973207261746563616c632069747320666f7220666f726d617420707572706f7365206f6e6c79a2646970667358221220972326d7776b52dc5b3881575e86788171867ea87a473c91222f93157678461964736f6c63430006060033",
  "immutableReferences": {},
  "source": "pragma solidity 0.6.6;\n\nimport \"@openzeppelin/contracts/math/SafeMath.sol\";\nimport \"./interfaces/IRateCalc.sol\";\n\n\ncontract RateCalc is IRateCalc {\n    using SafeMath for uint256;\n     /**\n     * @notice Calculates maximum option buyer profit\n     * @param amount Option amount\n     * @param l the amount locked now\n     * @param t time for the option\n     * @param k true for call false for put\n     * @param oC number of open call options\n     * @param oP number of open put options\n     * @param tP the amount of tokens stored currently in the pool the option be created on\n     * @return profit total possible profit amount\n     */\n    function rate(uint256 amount,  uint256 l, uint256 t, bool k, uint256 oC, uint256 oP, uint256 tP) external view override returns (uint256)  {\n        require(false, \"Don't use this ratecalc its for format purpose only\");\n        \n    }\n}\n\n",
  "sourcePath": "/Users/x/Desktop/eth/BIOPv4/contracts/RateCalc.sol",
  "compiler": {
    "name": "solc",
    "version": "0.6.6+commit.6c089d02.Emscripten.clang"
  },
  "schemaVersion": "3.3.4",
  "updatedAt": "2021-06-14T19:21:29.613Z",
  "devdoc": {
    "methods": {
      "rate(uint256,uint256,uint256,bool,uint256,uint256,uint256)": {
        "params": {
          "amount": "Option amount",
          "k": "true for call false for put",
          "l": "the amount locked now",
          "oC": "number of open call options",
          "oP": "number of open put options",
          "t": "time for the option",
          "tP": "the amount of tokens stored currently in the pool the option be created on"
        },
        "returns": {
          "_0": "profit total possible profit amount"
        }
      }
    }
  },
  "userdoc": {
    "methods": {
      "rate(uint256,uint256,uint256,bool,uint256,uint256,uint256)": {
        "notice": "Calculates maximum option buyer profit"
      }
    }
  }
}