{
  "contractName": "RateCalc",
  "abi": [
    {
      "inputs": [
        {
          "internalType": "uint256",
          "name": "amount",
          "type": "uint256"
        },
        {
          "internalType": "uint256",
          "name": "maxAvailable",
          "type": "uint256"
        },
        {
          "internalType": "uint256",
          "name": "l",
          "type": "uint256"
        },
        {
          "internalType": "uint256",
          "name": "t",
          "type": "uint256"
        },
        {
          "internalType": "bool",
          "name": "k",
          "type": "bool"
        },
        {
          "internalType": "uint256",
          "name": "s",
          "type": "uint256"
        }
      ],
      "name": "rate",
      "outputs": [
        {
          "internalType": "uint256",
          "name": "",
          "type": "uint256"
        }
      ],
      "stateMutability": "view",
      "type": "function"
    }
  ],
  "bytecode": "0x608060405234801561001057600080fd5b5061047d806100206000396000f3fe608060405234801561001057600080fd5b506004361061002b5760003560e01c80631f580c0314610030575b600080fd5b61006d600480360360c081101561004657600080fd5b50803590602081013590604081013590606081013590608081013515159060a0013561007f565b60408051918252519081900360200190f35b6000858711156100c05760405162461bcd60e51b81526004018080602001828103825260218152602001806104066021913960400191505060405180910390fd5b60006100d388600a63ffffffff6101c916565b905060006100e888600263ffffffff6101c916565b90508089111561011e576101158261010981818d600263ffffffff61021416565b9063ffffffff61026d16565b925050506101bf565b811561014557610115826101398b600263ffffffff61021416565b9063ffffffff6102c716565b60006101588a600463ffffffff6101c916565b9050600081116101a4576040805162461bcd60e51b81526020600482015260126024820152711a5b9d985b1a590818995d08185b5bdd5b9d60721b604482015290519081900360640190fd5b6101b9816101398c600263ffffffff61021416565b93505050505b9695505050505050565b600061020b83836040518060400160405280601a81526020017f536166654d6174683a206469766973696f6e206279207a65726f000000000000815250610309565b90505b92915050565b6000826102235750600061020e565b8282028284828161023057fe5b041461020b5760405162461bcd60e51b81526004018080602001828103825260218152602001806104276021913960400191505060405180910390fd5b60008282018381101561020b576040805162461bcd60e51b815260206004820152601b60248201527f536166654d6174683a206164646974696f6e206f766572666c6f770000000000604482015290519081900360640190fd5b600061020b83836040518060400160405280601e81526020017f536166654d6174683a207375627472616374696f6e206f766572666c6f7700008152506103ab565b600081836103955760405162461bcd60e51b81526004018080602001828103825283818151815260200191508051906020019080838360005b8381101561035a578181015183820152602001610342565b50505050905090810190601f1680156103875780820380516001836020036101000a031916815260200191505b509250505060405180910390fd5b5060008385816103a157fe5b0495945050505050565b600081848411156103fd5760405162461bcd60e51b815260206004820181815283516024840152835190928392604490910191908501908083836000831561035a578181015183820152602001610342565b50505090039056fe67726561746572207468656e20706f6f6c2066756e647320617661696c61626c65536166654d6174683a206d756c7469706c69636174696f6e206f766572666c6f77a2646970667358221220f4f1388bdc0ed0543159a4debfb6a1e2aa2924e8025bf1509bef1fbc9b61d39a64736f6c63430006060033",
  "immutableReferences": {},
  "source": "pragma solidity ^0.6.6;\n\n\nimport \"@openzeppelin/contracts/math/SafeMath.sol\";\ninterface IRCD {\n    /**\n     * @notice Returns the rate to pay out for a given amount\n     * @param amount the bet amount to calc a payout for\n     * @param maxAvailable the total pooled ETH unlocked and available to bet\n     * @param l the current amount locked\n     * @param t time for the option\n     * @param k true for call false for put\n     * @param s number of open options in this direction\n     * @return profit total possible profit amount\n     *\n     */\n    function rate(uint256 amount, uint256 maxAvailable, uint256 l, uint256 t, bool k, uint256 s) external view returns (uint256);\n\n}\n\ncontract RateCalc is IRCD {\n    using SafeMath for uint256;\n     /**\n     * @notice Calculates maximum option buyer profit\n     * @param amount Option amount\n     * @param maxAvailable the total pooled ETH unlocked and available to bet\n     * @param l the amount locked now\n     * @param t time for the option\n     * @param k true for call false for put\n     * @param s number of open options in this direction\n     * @return profit total possible profit amount\n     */\n    function rate(uint256 amount, uint256 maxAvailable, uint256 l, uint256 t, bool k, uint256 s) external view override returns (uint256)  {\n        require(amount <= maxAvailable, \"greater then pool funds available\");\n        \n        uint256 oneTenth = amount.div(10);\n        uint256 halfMax = maxAvailable.div(2);\n        if (amount > halfMax) {\n            return amount.mul(2).add(oneTenth).add(oneTenth);\n        } else {\n            if(oneTenth > 0) {\n                return amount.mul(2).sub(oneTenth);\n            } else {\n                uint256 oneThird = amount.div(4);\n                require(oneThird > 0, \"invalid bet amount\");\n                return amount.mul(2).sub(oneThird);\n            }\n        }\n        \n    }\n}\n\n",
  "sourcePath": "/Users/x/Desktop/eth/BIOPv4/contracts/RateCalc.sol",
  "compiler": {
    "name": "solc",
    "version": "0.6.6+commit.6c089d02.Emscripten.clang"
  },
  "schemaVersion": "3.3.4",
  "updatedAt": "2021-03-22T19:19:04.202Z",
  "devdoc": {
    "methods": {
      "rate(uint256,uint256,uint256,uint256,bool,uint256)": {
        "params": {
          "amount": "Option amount",
          "k": "true for call false for put",
          "l": "the amount locked now",
          "maxAvailable": "the total pooled ETH unlocked and available to bet",
          "s": "number of open options in this direction",
          "t": "time for the option"
        },
        "returns": {
          "_0": "profit total possible profit amount"
        }
      }
    }
  },
  "userdoc": {
    "methods": {
      "rate(uint256,uint256,uint256,uint256,bool,uint256)": {
        "notice": "Calculates maximum option buyer profit"
      }
    }
  }
}