{
  "contractName": "RateCalc",
  "abi": [
    {
      "inputs": [
        {
          "internalType": "uint256",
          "name": "amount",
          "type": "uint256"
        },
        {
          "internalType": "uint256",
          "name": "l",
          "type": "uint256"
        },
        {
          "internalType": "uint256",
          "name": "t",
          "type": "uint256"
        },
        {
          "internalType": "bool",
          "name": "k",
          "type": "bool"
        },
        {
          "internalType": "uint256",
          "name": "s",
          "type": "uint256"
        },
        {
          "internalType": "uint256",
          "name": "tP",
          "type": "uint256"
        }
      ],
      "name": "rate",
      "outputs": [
        {
          "internalType": "uint256",
          "name": "",
          "type": "uint256"
        }
      ],
      "stateMutability": "view",
      "type": "function"
    }
  ],
  "bytecode": "0x608060405234801561001057600080fd5b5061011b806100206000396000f3fe6080604052348015600f57600080fd5b506004361060285760003560e01c80633a95144814602d575b600080fd5b6067600480360360c0811015604157600080fd5b50803590602081013590604081013590606081013515159060808101359060a001356079565b60408051918252519081900360200190f35b600060405162461bcd60e51b81526004018080602001828103825260338152602001806100b36033913960400191505060405180910390fdfe446f6e2774207573652074686973207261746563616c632069747320666f7220666f726d617420707572706f7365206f6e6c79a2646970667358221220c117f2e757a521c2c5d15a0fdfa530b93bb67f1821d92d4c9166d2d0883e8c1164736f6c63430006060033",
  "immutableReferences": {},
  "source": "pragma solidity ^0.6.6;\n\nimport \"@openzeppelin/contracts/math/SafeMath.sol\";\nimport \"./interfaces/IRateCalc.sol\";\n\n\ncontract RateCalc is IRateCalc {\n    using SafeMath for uint256;\n     /**\n     * @notice Calculates maximum option buyer profit\n     * @param amount Option amount\n     * @param l the amount locked now\n     * @param t time for the option\n     * @param k true for call false for put\n     * @param s number of open options in this direction\n     * @param tP the amount of tokens stored currently in the pool the option be created on\n     * @return profit total possible profit amount\n     */\n    function rate(uint256 amount,  uint256 l, uint256 t, bool k, uint256 s, uint256 tP) external view override returns (uint256)  {\n        require(false, \"Don't use this ratecalc its for format purpose only\");\n        /* \n        uint256 oneTenth = amount.div(10);\n        uint256 halfMax = msg.sender.balance.div(2);\n        if (amount > halfMax) {\n            return amount.mul(2).add(oneTenth).add(oneTenth);\n        } else {\n            if(oneTenth > 0) {\n                return amount.mul(2).sub(oneTenth);\n            } else {\n                uint256 oneThird = amount.div(4);\n                require(oneThird > 0, \"invalid bet amount\");\n                return amount.mul(2).sub(oneThird);\n            }\n        } */\n        \n    }\n}\n\n",
  "sourcePath": "/Users/x/Desktop/eth/BIOPv4/contracts/RateCalc.sol",
  "compiler": {
    "name": "solc",
    "version": "0.6.6+commit.6c089d02.Emscripten.clang"
  },
  "schemaVersion": "3.3.4",
  "updatedAt": "2021-05-14T23:07:18.958Z",
  "devdoc": {
    "methods": {
      "rate(uint256,uint256,uint256,bool,uint256,uint256)": {
        "params": {
          "amount": "Option amount",
          "k": "true for call false for put",
          "l": "the amount locked now",
          "s": "number of open options in this direction",
          "t": "time for the option",
          "tP": "the amount of tokens stored currently in the pool the option be created on"
        },
        "returns": {
          "_0": "profit total possible profit amount"
        }
      }
    }
  },
  "userdoc": {
    "methods": {
      "rate(uint256,uint256,uint256,bool,uint256,uint256)": {
        "notice": "Calculates maximum option buyer profit"
      }
    }
  }
}