{
  "contractName": "TieredVesting",
  "abi": [
    {
      "inputs": [
        {
          "internalType": "address payable",
          "name": "claimant_",
          "type": "address"
        },
        {
          "internalType": "address",
          "name": "tokenAddress_",
          "type": "address"
        },
        {
          "internalType": "uint256",
          "name": "tiers_",
          "type": "uint256"
        },
        {
          "internalType": "uint256",
          "name": "tierLength_",
          "type": "uint256"
        }
      ],
      "stateMutability": "nonpayable",
      "type": "constructor"
    },
    {
      "inputs": [],
      "name": "claimed",
      "outputs": [
        {
          "internalType": "uint256",
          "name": "",
          "type": "uint256"
        }
      ],
      "stateMutability": "view",
      "type": "function"
    },
    {
      "inputs": [],
      "name": "perTier",
      "outputs": [
        {
          "internalType": "uint256",
          "name": "",
          "type": "uint256"
        }
      ],
      "stateMutability": "view",
      "type": "function"
    },
    {
      "inputs": [],
      "name": "startTime",
      "outputs": [
        {
          "internalType": "uint256",
          "name": "",
          "type": "uint256"
        }
      ],
      "stateMutability": "view",
      "type": "function"
    },
    {
      "inputs": [],
      "name": "tierLength",
      "outputs": [
        {
          "internalType": "uint256",
          "name": "",
          "type": "uint256"
        }
      ],
      "stateMutability": "view",
      "type": "function"
    },
    {
      "inputs": [],
      "name": "tiers",
      "outputs": [
        {
          "internalType": "uint256",
          "name": "",
          "type": "uint256"
        }
      ],
      "stateMutability": "view",
      "type": "function"
    },
    {
      "inputs": [],
      "name": "tiersClaimed",
      "outputs": [
        {
          "internalType": "uint256",
          "name": "",
          "type": "uint256"
        }
      ],
      "stateMutability": "view",
      "type": "function"
    },
    {
      "inputs": [],
      "name": "tokenAddress",
      "outputs": [
        {
          "internalType": "address",
          "name": "",
          "type": "address"
        }
      ],
      "stateMutability": "view",
      "type": "function"
    },
    {
      "inputs": [],
      "name": "total",
      "outputs": [
        {
          "internalType": "uint256",
          "name": "",
          "type": "uint256"
        }
      ],
      "stateMutability": "view",
      "type": "function"
    },
    {
      "inputs": [
        {
          "internalType": "address payable",
          "name": "new_",
          "type": "address"
        }
      ],
      "name": "updateClaimant",
      "outputs": [],
      "stateMutability": "nonpayable",
      "type": "function"
    },
    {
      "inputs": [
        {
          "internalType": "uint256",
          "name": "amount",
          "type": "uint256"
        }
      ],
      "name": "start",
      "outputs": [],
      "stateMutability": "nonpayable",
      "type": "function"
    },
    {
      "inputs": [],
      "name": "collect",
      "outputs": [],
      "stateMutability": "nonpayable",
      "type": "function"
    }
  ],
  "bytecode": "0x608060405234801561001057600080fd5b506040516108b93803806108b98339818101604052608081101561003357600080fd5b50805160208201516040830151606090930151600180546001600160a01b039485166001600160a01b0319918216179091556000805494909316931692909217905560059190915560065561082c8061008d6000396000f3fe608060405234801561001057600080fd5b50600436106100a95760003560e01c806395805dad1161007157806395805dad146100e85780639bfff802146101075780639d4039711461012d5780639d76ea5814610135578063e522538114610159578063e834a83414610161576100a9565b80632ddbd13a146100ae5780634a95d9d5146100c857806371db5c8c146100d057806378e97925146100d85780638d7ae930146100e0575b600080fd5b6100b6610169565b60408051918252519081900360200190f35b6100b661016f565b6100b6610175565b6100b661017b565b6100b6610181565b610105600480360360208110156100fe57600080fd5b5035610187565b005b6101056004803603602081101561011d57600080fd5b50356001600160a01b0316610234565b6100b661029f565b61013d6102a5565b604080516001600160a01b039092168252519081900360200190f35b6101056102b4565b6100b6610570565b60025481565b60055481565b60085481565b60035481565b60065481565b60008054604080516323b872dd60e01b81523360048201523060248201526044810185905290516001600160a01b039092169283926323b872dd926064808201936020939283900390910190829087803b1580156101e457600080fd5b505af11580156101f8573d6000803e3d6000fd5b505050506040513d602081101561020e57600080fd5b5050600282905560055461022990839063ffffffff61057616565b600755505042600355565b6001546001600160a01b0316331461027d5760405162461bcd60e51b81526004018080602001828103825260238152602001806107b36023913960400191505060405180910390fd5b600180546001600160a01b0319166001600160a01b0392909216919091179055565b60075481565b6000546001600160a01b031681565b6001546001600160a01b031633146102fd5760405162461bcd60e51b81526004018080602001828103825260238152602001806107b36023913960400191505060405180910390fd5b6000610314600354426105c190919063ffffffff16565b9050600061034161033260055460075461060390919063ffffffff16565b6003549063ffffffff61065c16565b6000549091506001600160a01b031642821161045e57600154604080516370a0823160e01b815230600482015290516001600160a01b038085169363a9059cbb9391169184916370a08231916024808301926020929190829003018186803b1580156103ac57600080fd5b505afa1580156103c0573d6000803e3d6000fd5b505050506040513d60208110156103d657600080fd5b5051604080516001600160e01b031960e086901b1681526001600160a01b03909316600484015260248301919091525160448083019260209291908290030181600087803b15801561042757600080fd5b505af115801561043b573d6000803e3d6000fd5b505050506040513d602081101561045157600080fd5b505060025460045561056b565b6008545b83156105695760065484111561055f5780156104a55761048981600163ffffffff6105c116565b5060065461049e90859063ffffffff6105c116565b935061055a565b6006546104b990859063ffffffff6105c116565b6001546007546040805163a9059cbb60e01b81526001600160a01b0393841660048201526024810192909252519296509084169163a9059cbb916044808201926020929091908290030181600087803b15801561051557600080fd5b505af1158015610529573d6000803e3d6000fd5b505050506040513d602081101561053f57600080fd5b50506007546004546105569163ffffffff61065c16565b6004555b610564565b600093505b610462565b505b505050565b60045481565b60006105b883836040518060400160405280601a81526020017f536166654d6174683a206469766973696f6e206279207a65726f0000000000008152506106b6565b90505b92915050565b60006105b883836040518060400160405280601e81526020017f536166654d6174683a207375627472616374696f6e206f766572666c6f770000815250610758565b600082610612575060006105bb565b8282028284828161061f57fe5b04146105b85760405162461bcd60e51b81526004018080602001828103825260218152602001806107d66021913960400191505060405180910390fd5b6000828201838110156105b8576040805162461bcd60e51b815260206004820152601b60248201527f536166654d6174683a206164646974696f6e206f766572666c6f770000000000604482015290519081900360640190fd5b600081836107425760405162461bcd60e51b81526004018080602001828103825283818151815260200191508051906020019080838360005b838110156107075781810151838201526020016106ef565b50505050905090810190601f1680156107345780820380516001836020036101000a031916815260200191505b509250505060405180910390fd5b50600083858161074e57fe5b0495945050505050565b600081848411156107aa5760405162461bcd60e51b81526020600482018181528351602484015283519092839260449091019190850190808383600083156107075781810151838201526020016106ef565b50505090039056fe4f776e61626c653a2063616c6c6572206973206e6f742074686520636c61696d616e74536166654d6174683a206d756c7469706c69636174696f6e206f766572666c6f77a26469706673582212203fa0cf7402e2e9ad54b98f4b0fccee7e67473e1e1a15dc5e152feb4955cc2af564736f6c63430006060033",
  "immutableReferences": {},
  "source": "pragma solidity 0.6.6;\n\nimport \"@openzeppelin/contracts/math/SafeMath.sol\";\nimport \"@openzeppelin/contracts/token/ERC20/ERC20.sol\";\n\n\n\n\ncontract TieredVesting {\n\n    using SafeMath for uint256;\n    address public tokenAddress;\n    address payable claimant;\n    uint256 public total;//total tokens to send over vesting period\n    uint256 public startTime;//start time of the vesting\n    uint256 public claimed;//amount claimed so far\n    uint256 public tiers;//the number of tiers\n    uint256 public tierLength;//time for each tier\n    uint256 public perTier;//tokens unlocked at each tier\n    uint256 public tiersClaimed;//amount of tiers paid out\n\n    constructor(address payable claimant_, address tokenAddress_, uint256 tiers_, uint256 tierLength_) public {\n        claimant = claimant_;\n        tokenAddress = tokenAddress_;\n        tiers = tiers_;\n        tierLength = tierLength_;\n    }\n\n     /**\n    * @dev set the new claimant\n    * @param new_ the new claimant's address\n    */\n    function updateClaimant(address payable new_) public onlyClaimant {\n        claimant = new_;\n    }\n\n    modifier onlyClaimant() {\n        require(claimant == msg.sender, \"Ownable: caller is not the claimant\");\n        _;\n    }\n\n    function start(uint256 amount) public {\n        ERC20 token = ERC20(tokenAddress);\n        token.transferFrom(msg.sender, address(this), amount);\n        total = amount;\n        perTier = amount.div(tiers);\n        startTime = block.timestamp;\n    }\n\n    function collect() public onlyClaimant {\n        uint256 elapsed = block.timestamp.sub(startTime);\n        uint256 endTime = startTime.add(perTier.mul(tiers));\n        ERC20 token = ERC20(tokenAddress);\n        if (block.timestamp >= endTime) {\n                token.transfer(claimant, token.balanceOf(address(this)));\n                claimed = total;\n        } else {\n            uint256 alreadyPaid = tiersClaimed;\n            while (elapsed > 0) {\n                if (elapsed > tierLength) {\n                    if (alreadyPaid > 0) {\n                        alreadyPaid.sub(1);\n                        elapsed = elapsed.sub(tierLength);\n                    } else {\n                        \n                    //pay out a tier\n                    elapsed = elapsed.sub(tierLength);\n                    token.transfer(claimant, perTier);\n                    claimed = claimed.add(perTier);\n                    }\n                } else {\n                    elapsed = 0;\n                }\n            }\n        }\n    }\n}\n\n",
  "sourcePath": "/Users/x/Desktop/eth/BIOPv4/contracts/TieredVesting.sol",
  "compiler": {
    "name": "solc",
    "version": "0.6.6+commit.6c089d02.Emscripten.clang"
  },
  "schemaVersion": "3.3.4",
  "updatedAt": "2021-06-14T19:21:29.626Z",
  "devdoc": {
    "methods": {
      "updateClaimant(address)": {
        "details": "set the new claimant",
        "params": {
          "new_": "the new claimant's address"
        }
      }
    }
  },
  "userdoc": {
    "methods": {}
  }
}