{
  "contractName": "TokenDenominatedBinaryOptions",
  "abi": [
    {
      "inputs": [
        {
          "internalType": "string",
          "name": "name_",
          "type": "string"
        },
        {
          "internalType": "string",
          "name": "symbol_",
          "type": "string"
        },
        {
          "internalType": "address",
          "name": "token_",
          "type": "address"
        },
        {
          "internalType": "address payable",
          "name": "dao_",
          "type": "address"
        },
        {
          "internalType": "address",
          "name": "app_",
          "type": "address"
        },
        {
          "internalType": "address payable",
          "name": "treasury_",
          "type": "address"
        }
      ],
      "stateMutability": "nonpayable",
      "type": "constructor"
    },
    {
      "anonymous": false,
      "inputs": [
        {
          "indexed": true,
          "internalType": "address",
          "name": "owner",
          "type": "address"
        },
        {
          "indexed": true,
          "internalType": "address",
          "name": "spender",
          "type": "address"
        },
        {
          "indexed": false,
          "internalType": "uint256",
          "name": "value",
          "type": "uint256"
        }
      ],
      "name": "Approval",
      "type": "event"
    },
    {
      "anonymous": false,
      "inputs": [
        {
          "indexed": true,
          "internalType": "uint256",
          "name": "id",
          "type": "uint256"
        },
        {
          "indexed": false,
          "internalType": "address payable",
          "name": "account",
          "type": "address"
        },
        {
          "indexed": false,
          "internalType": "int256",
          "name": "sP",
          "type": "int256"
        },
        {
          "indexed": false,
          "internalType": "uint256",
          "name": "lV",
          "type": "uint256"
        },
        {
          "indexed": false,
          "internalType": "bool",
          "name": "dir",
          "type": "bool"
        },
        {
          "indexed": false,
          "internalType": "uint80",
          "name": "pR",
          "type": "uint80"
        },
        {
          "indexed": false,
          "internalType": "uint80",
          "name": "exp",
          "type": "uint80"
        }
      ],
      "name": "Create",
      "type": "event"
    },
    {
      "anonymous": false,
      "inputs": [
        {
          "indexed": true,
          "internalType": "uint256",
          "name": "id",
          "type": "uint256"
        }
      ],
      "name": "Exercise",
      "type": "event"
    },
    {
      "anonymous": false,
      "inputs": [
        {
          "indexed": true,
          "internalType": "uint256",
          "name": "id",
          "type": "uint256"
        }
      ],
      "name": "Expire",
      "type": "event"
    },
    {
      "anonymous": false,
      "inputs": [
        {
          "indexed": false,
          "internalType": "uint256",
          "name": "poolLost",
          "type": "uint256"
        },
        {
          "indexed": false,
          "internalType": "address",
          "name": "winner",
          "type": "address"
        }
      ],
      "name": "Payout",
      "type": "event"
    },
    {
      "anonymous": false,
      "inputs": [
        {
          "indexed": true,
          "internalType": "address",
          "name": "from",
          "type": "address"
        },
        {
          "indexed": true,
          "internalType": "address",
          "name": "to",
          "type": "address"
        },
        {
          "indexed": false,
          "internalType": "uint256",
          "name": "value",
          "type": "uint256"
        }
      ],
      "name": "Transfer",
      "type": "event"
    },
    {
      "inputs": [
        {
          "internalType": "address",
          "name": "owner",
          "type": "address"
        },
        {
          "internalType": "address",
          "name": "spender",
          "type": "address"
        }
      ],
      "name": "allowance",
      "outputs": [
        {
          "internalType": "uint256",
          "name": "",
          "type": "uint256"
        }
      ],
      "stateMutability": "view",
      "type": "function"
    },
    {
      "inputs": [],
      "name": "app",
      "outputs": [
        {
          "internalType": "address",
          "name": "",
          "type": "address"
        }
      ],
      "stateMutability": "view",
      "type": "function"
    },
    {
      "inputs": [
        {
          "internalType": "address",
          "name": "spender",
          "type": "address"
        },
        {
          "internalType": "uint256",
          "name": "amount",
          "type": "uint256"
        }
      ],
      "name": "approve",
      "outputs": [
        {
          "internalType": "bool",
          "name": "",
          "type": "bool"
        }
      ],
      "stateMutability": "nonpayable",
      "type": "function"
    },
    {
      "inputs": [
        {
          "internalType": "address",
          "name": "account",
          "type": "address"
        }
      ],
      "name": "balanceOf",
      "outputs": [
        {
          "internalType": "uint256",
          "name": "",
          "type": "uint256"
        }
      ],
      "stateMutability": "view",
      "type": "function"
    },
    {
      "inputs": [],
      "name": "base",
      "outputs": [
        {
          "internalType": "uint256",
          "name": "",
          "type": "uint256"
        }
      ],
      "stateMutability": "view",
      "type": "function"
    },
    {
      "inputs": [],
      "name": "decimals",
      "outputs": [
        {
          "internalType": "uint8",
          "name": "",
          "type": "uint8"
        }
      ],
      "stateMutability": "view",
      "type": "function"
    },
    {
      "inputs": [
        {
          "internalType": "address",
          "name": "spender",
          "type": "address"
        },
        {
          "internalType": "uint256",
          "name": "subtractedValue",
          "type": "uint256"
        }
      ],
      "name": "decreaseAllowance",
      "outputs": [
        {
          "internalType": "bool",
          "name": "",
          "type": "bool"
        }
      ],
      "stateMutability": "nonpayable",
      "type": "function"
    },
    {
      "inputs": [
        {
          "internalType": "address",
          "name": "spender",
          "type": "address"
        },
        {
          "internalType": "uint256",
          "name": "addedValue",
          "type": "uint256"
        }
      ],
      "name": "increaseAllowance",
      "outputs": [
        {
          "internalType": "bool",
          "name": "",
          "type": "bool"
        }
      ],
      "stateMutability": "nonpayable",
      "type": "function"
    },
    {
      "inputs": [],
      "name": "lockedAmount",
      "outputs": [
        {
          "internalType": "uint256",
          "name": "",
          "type": "uint256"
        }
      ],
      "stateMutability": "view",
      "type": "function"
    },
    {
      "inputs": [],
      "name": "maxT",
      "outputs": [
        {
          "internalType": "uint256",
          "name": "",
          "type": "uint256"
        }
      ],
      "stateMutability": "view",
      "type": "function"
    },
    {
      "inputs": [],
      "name": "minT",
      "outputs": [
        {
          "internalType": "uint256",
          "name": "",
          "type": "uint256"
        }
      ],
      "stateMutability": "view",
      "type": "function"
    },
    {
      "inputs": [
        {
          "internalType": "address",
          "name": "",
          "type": "address"
        }
      ],
      "name": "nW",
      "outputs": [
        {
          "internalType": "uint256",
          "name": "",
          "type": "uint256"
        }
      ],
      "stateMutability": "view",
      "type": "function"
    },
    {
      "inputs": [],
      "name": "name",
      "outputs": [
        {
          "internalType": "string",
          "name": "",
          "type": "string"
        }
      ],
      "stateMutability": "view",
      "type": "function"
    },
    {
      "inputs": [],
      "name": "oC",
      "outputs": [
        {
          "internalType": "uint256",
          "name": "",
          "type": "uint256"
        }
      ],
      "stateMutability": "view",
      "type": "function"
    },
    {
      "inputs": [],
      "name": "oP",
      "outputs": [
        {
          "internalType": "uint256",
          "name": "",
          "type": "uint256"
        }
      ],
      "stateMutability": "view",
      "type": "function"
    },
    {
      "inputs": [],
      "name": "open",
      "outputs": [
        {
          "internalType": "bool",
          "name": "",
          "type": "bool"
        }
      ],
      "stateMutability": "view",
      "type": "function"
    },
    {
      "inputs": [
        {
          "internalType": "uint256",
          "name": "",
          "type": "uint256"
        }
      ],
      "name": "options",
      "outputs": [
        {
          "internalType": "address payable",
          "name": "holder",
          "type": "address"
        },
        {
          "internalType": "int256",
          "name": "sP",
          "type": "int256"
        },
        {
          "internalType": "uint256",
          "name": "pV",
          "type": "uint256"
        },
        {
          "internalType": "uint256",
          "name": "lV",
          "type": "uint256"
        },
        {
          "internalType": "uint80",
          "name": "pR",
          "type": "uint80"
        },
        {
          "internalType": "uint80",
          "name": "exp",
          "type": "uint80"
        },
        {
          "internalType": "bool",
          "name": "dir",
          "type": "bool"
        },
        {
          "internalType": "address",
          "name": "pP",
          "type": "address"
        },
        {
          "internalType": "bool",
          "name": "complete",
          "type": "bool"
        }
      ],
      "stateMutability": "view",
      "type": "function"
    },
    {
      "inputs": [],
      "name": "owner",
      "outputs": [
        {
          "internalType": "address payable",
          "name": "",
          "type": "address"
        }
      ],
      "stateMutability": "view",
      "type": "function"
    },
    {
      "inputs": [],
      "name": "poolLockSeconds",
      "outputs": [
        {
          "internalType": "uint256",
          "name": "",
          "type": "uint256"
        }
      ],
      "stateMutability": "view",
      "type": "function"
    },
    {
      "inputs": [],
      "name": "protocolFee",
      "outputs": [
        {
          "internalType": "uint256",
          "name": "",
          "type": "uint256"
        }
      ],
      "stateMutability": "view",
      "type": "function"
    },
    {
      "inputs": [],
      "name": "sT",
      "outputs": [
        {
          "internalType": "contract IERC20",
          "name": "",
          "type": "address"
        }
      ],
      "stateMutability": "view",
      "type": "function"
    },
    {
      "inputs": [],
      "name": "settlerFee",
      "outputs": [
        {
          "internalType": "uint256",
          "name": "",
          "type": "uint256"
        }
      ],
      "stateMutability": "view",
      "type": "function"
    },
    {
      "inputs": [],
      "name": "symbol",
      "outputs": [
        {
          "internalType": "string",
          "name": "",
          "type": "string"
        }
      ],
      "stateMutability": "view",
      "type": "function"
    },
    {
      "inputs": [],
      "name": "totalSupply",
      "outputs": [
        {
          "internalType": "uint256",
          "name": "",
          "type": "uint256"
        }
      ],
      "stateMutability": "view",
      "type": "function"
    },
    {
      "inputs": [
        {
          "internalType": "address",
          "name": "recipient",
          "type": "address"
        },
        {
          "internalType": "uint256",
          "name": "amount",
          "type": "uint256"
        }
      ],
      "name": "transfer",
      "outputs": [
        {
          "internalType": "bool",
          "name": "",
          "type": "bool"
        }
      ],
      "stateMutability": "nonpayable",
      "type": "function"
    },
    {
      "inputs": [
        {
          "internalType": "address",
          "name": "sender",
          "type": "address"
        },
        {
          "internalType": "address",
          "name": "recipient",
          "type": "address"
        },
        {
          "internalType": "uint256",
          "name": "amount",
          "type": "uint256"
        }
      ],
      "name": "transferFrom",
      "outputs": [
        {
          "internalType": "bool",
          "name": "",
          "type": "bool"
        }
      ],
      "stateMutability": "nonpayable",
      "type": "function"
    },
    {
      "inputs": [],
      "name": "treasury",
      "outputs": [
        {
          "internalType": "address payable",
          "name": "",
          "type": "address"
        }
      ],
      "stateMutability": "view",
      "type": "function"
    },
    {
      "inputs": [
        {
          "internalType": "address payable",
          "name": "newDAO_",
          "type": "address"
        }
      ],
      "name": "updateOwner",
      "outputs": [],
      "stateMutability": "nonpayable",
      "type": "function"
    },
    {
      "inputs": [
        {
          "internalType": "address",
          "name": "newAPP_",
          "type": "address"
        }
      ],
      "name": "updateAPP",
      "outputs": [],
      "stateMutability": "nonpayable",
      "type": "function"
    },
    {
      "inputs": [
        {
          "internalType": "address payable",
          "name": "newTreasury_",
          "type": "address"
        }
      ],
      "name": "updateTreasury",
      "outputs": [],
      "stateMutability": "nonpayable",
      "type": "function"
    },
    {
      "inputs": [
        {
          "internalType": "uint256",
          "name": "newBase_",
          "type": "uint256"
        }
      ],
      "name": "updateBase",
      "outputs": [],
      "stateMutability": "nonpayable",
      "type": "function"
    },
    {
      "inputs": [
        {
          "internalType": "uint256",
          "name": "fee_",
          "type": "uint256"
        }
      ],
      "name": "updateSettlerFee",
      "outputs": [],
      "stateMutability": "nonpayable",
      "type": "function"
    },
    {
      "inputs": [
        {
          "internalType": "uint256",
          "name": "newProtocolFee_",
          "type": "uint256"
        }
      ],
      "name": "updateProtocolFee",
      "outputs": [],
      "stateMutability": "nonpayable",
      "type": "function"
    },
    {
      "inputs": [
        {
          "internalType": "uint256",
          "name": "newLockSeconds_",
          "type": "uint256"
        }
      ],
      "name": "updatePoolLockSeconds",
      "outputs": [],
      "stateMutability": "nonpayable",
      "type": "function"
    },
    {
      "inputs": [
        {
          "internalType": "uint256",
          "name": "newMax_",
          "type": "uint256"
        }
      ],
      "name": "updateMaxT",
      "outputs": [],
      "stateMutability": "nonpayable",
      "type": "function"
    },
    {
      "inputs": [
        {
          "internalType": "uint256",
          "name": "newMin_",
          "type": "uint256"
        }
      ],
      "name": "updateMinT",
      "outputs": [],
      "stateMutability": "nonpayable",
      "type": "function"
    },
    {
      "inputs": [],
      "name": "toggleStaking",
      "outputs": [],
      "stateMutability": "nonpayable",
      "type": "function"
    },
    {
      "inputs": [
        {
          "internalType": "uint256",
          "name": "amount_",
          "type": "uint256"
        }
      ],
      "name": "stake",
      "outputs": [],
      "stateMutability": "nonpayable",
      "type": "function"
    },
    {
      "inputs": [
        {
          "internalType": "uint256",
          "name": "amount_",
          "type": "uint256"
        }
      ],
      "name": "withdraw",
      "outputs": [],
      "stateMutability": "nonpayable",
      "type": "function"
    },
    {
      "inputs": [],
      "name": "getMaxAvailable",
      "outputs": [
        {
          "internalType": "uint256",
          "name": "",
          "type": "uint256"
        }
      ],
      "stateMutability": "view",
      "type": "function"
    },
    {
      "inputs": [
        {
          "internalType": "address",
          "name": "pair",
          "type": "address"
        },
        {
          "internalType": "uint256",
          "name": "deposit",
          "type": "uint256"
        },
        {
          "internalType": "uint256",
          "name": "t",
          "type": "uint256"
        },
        {
          "internalType": "bool",
          "name": "k",
          "type": "bool"
        }
      ],
      "name": "getRate",
      "outputs": [
        {
          "internalType": "uint256",
          "name": "",
          "type": "uint256"
        }
      ],
      "stateMutability": "view",
      "type": "function"
    },
    {
      "inputs": [
        {
          "internalType": "bool",
          "name": "k_",
          "type": "bool"
        },
        {
          "internalType": "address",
          "name": "pp_",
          "type": "address"
        },
        {
          "internalType": "uint80",
          "name": "t_",
          "type": "uint80"
        },
        {
          "internalType": "uint256",
          "name": "a_",
          "type": "uint256"
        }
      ],
      "name": "openPosition",
      "outputs": [],
      "stateMutability": "nonpayable",
      "type": "function"
    },
    {
      "inputs": [
        {
          "internalType": "uint256",
          "name": "oID",
          "type": "uint256"
        }
      ],
      "name": "complete",
      "outputs": [],
      "stateMutability": "nonpayable",
      "type": "function"
    }
  ],
  "bytecode": "0x60a06040526005600e556064600f55621275006010556011805460ff19166001179055670de0b6b3a76400006013553480156200003b57600080fd5b506040516200335a3803806200335a833981810160405260c08110156200006157600080fd5b81019080805160405193929190846401000000008211156200008257600080fd5b9083019060208201858111156200009857600080fd5b8251640100000000811182820188101715620000b357600080fd5b82525081516020918201929091019080838360005b83811015620000e2578181015183820152602001620000c8565b50505050905090810190601f168015620001105780820380516001836020036101000a031916815260200191505b50604052602001805160405193929190846401000000008211156200013457600080fd5b9083019060208201858111156200014a57600080fd5b82516401000000008111828201881017156200016557600080fd5b82525081516020918201929091019080838360005b83811015620001945781810151838201526020016200017a565b50505050905090810190601f168015620001c25780820380516001836020036101000a031916815260200191505b50604090815260208281015191830151606084015160809094015188519396509094509187918791620001fc916003919085019062000298565b5080516200021290600490602084019062000298565b50506005805460609690961b6001600160601b031916608052600680546001600160a01b03199081166001600160a01b0397881617909155600780549091169486169490941790935550601260ff1990941693909317610100600160a81b031916610100939092169290920217905550506001600b819055600c556000600d556200033d565b828054600181600116156101000203166002900490600052602060002090601f016020900481019282601f10620002db57805160ff19168380011785556200030b565b828001600101855582156200030b579182015b828111156200030b578251825591602001919060010190620002ee565b50620003199291506200031d565b5090565b6200033a91905b8082111562000319576000815560010162000324565b90565b60805160601c612fb9620003a1600039806109f15280610e4d5280610f5b5280610fa75280610fe752806114b852806117495280611b755280611c1452806124895280612588528061264752806129555280612a655280612ab95250612fb96000f3fe608060405234801561001057600080fd5b50600436106102695760003560e01c80636ab28bc811610151578063a457c2d7116100c3578063bac2e6db11610087578063bac2e6db14610735578063c89723911461073d578063c97d4b2b14610745578063dbdf8dfb14610762578063dd62ed3e1461077f578063fcfff16f146107ad57610269565b8063a457c2d7146106b0578063a694fc3a146106dc578063a9059cbb146106f9578063b0e21e8a14610725578063b76564bd1461072d57610269565b80638a300e68116101155780638a300e68146106385780638da5cb5b1461065e57806395d89b411461066657806396cff5251461066e578063971d852f146106765780639f19904c1461069357610269565b80636ab28bc8146105845780636ab7d6d01461058c57806370a08231146105c65780637f51bb1f146105ec578063880cdc311461061257610269565b806339509351116101ea5780634e9e3252116101ae5780634e9e3252146105235780635001f3b51461052b5780635009a61314610533578063602d86081461055057806361d027b31461055857806363691eaa1461057c57610269565b806339509351146104315780633b8105b31461045d5780633f003b7914610465578063409e2205146104825780634256dd781461050657610269565b806318160ddd1161023157806318160ddd146103b057806323b872dd146103b85780632e1a7d4d146103ee5780632f67e3591461040b578063313ce5671461041357610269565b806306fdde031461026e57806307e665df146102eb578063095ea7b31461031357806316c608481461035357806318126dce14610396575b600080fd5b6102766107b5565b6040805160208082528351818301528351919283929083019185019080838360005b838110156102b0578181015183820152602001610298565b50505050905090810190601f1680156102dd5780820380516001836020036101000a031916815260200191505b509250505060405180910390f35b6103116004803603602081101561030157600080fd5b50356001600160a01b031661084c565b005b61033f6004803603604081101561032957600080fd5b506001600160a01b0381351690602001356108bb565b604080519115158252519081900360200190f35b6103116004803603608081101561036957600080fd5b5080351515906001600160a01b03602082013516906001600160501b0360408201351690606001356108d9565b61039e610d3e565b60408051918252519081900360200190f35b61039e610d44565b61033f600480360360608110156103ce57600080fd5b506001600160a01b03813581169160208101359091169060400135610d4a565b6103116004803603602081101561040457600080fd5b5035610dd8565b61039e611018565b61041b61101e565b6040805160ff9092168252519081900360200190f35b61033f6004803603604081101561044757600080fd5b506001600160a01b038135169060200135611027565b61031161107b565b6103116004803603602081101561047b57600080fd5b50356110dc565b61049f6004803603602081101561049857600080fd5b503561112e565b604080516001600160a01b039a8b16815260208101999099528881019790975260608801959095526001600160501b0393841660808801529190921660a086015290151560c085015290931660e08301529115156101008201529051908190036101200190f35b6103116004803603602081101561051c57600080fd5b50356111aa565b61039e611248565b61039e61124e565b6103116004803603602081101561054957600080fd5b5035611254565b61039e6112fd565b610560611303565b604080516001600160a01b039092168252519081900360200190f35b61039e611317565b61039e61131d565b61039e600480360360808110156105a257600080fd5b506001600160a01b0381351690602081013590604081013590606001351515611323565b61039e600480360360208110156105dc57600080fd5b50356001600160a01b03166115c6565b6103116004803603602081101561060257600080fd5b50356001600160a01b03166115e1565b6103116004803603602081101561062857600080fd5b50356001600160a01b0316611656565b61039e6004803603602081101561064e57600080fd5b50356001600160a01b03166116c5565b6105606116d7565b6102766116e6565b610560611747565b6103116004803603602081101561068c57600080fd5b503561176b565b610311600480360360208110156106a957600080fd5b5035611a0f565b61033f600480360360408110156106c657600080fd5b506001600160a01b038135169060200135611aa3565b610311600480360360208110156106f257600080fd5b5035611b11565b61033f6004803603604081101561070f57600080fd5b506001600160a01b038135169060200135611bc6565b61039e611bda565b610560611be0565b61039e611bef565b61039e611cb9565b6103116004803603602081101561075b57600080fd5b5035611cbf565b6103116004803603602081101561077857600080fd5b5035611d11565b61039e6004803603604081101561079557600080fd5b506001600160a01b0381358116916020013516611d63565b61033f611d8e565b60038054604080516020601f60026000196101006001881615020190951694909404938401819004810282018101909252828152606093909290918301828280156108415780601f1061081657610100808354040283529160200191610841565b820191906000526020600020905b81548152906001019060200180831161082457829003601f168201915b505050505090505b90565b6006546001600160a01b03163314610899576040805162461bcd60e51b81526020600482018190526024820152600080516020612eab833981519152604482015290519081900360640190fd5b600780546001600160a01b0319166001600160a01b0392909216919091179055565b60006108cf6108c8611d97565b8484611d9b565b5060015b92915050565b600b54826001600160501b0316101580156108ff5750600c54826001600160501b031611155b61093f576040805162461bcd60e51b815260206004820152600c60248201526b496e76616c69642074696d6560a01b604482015290519081900360640190fd5b61094883611e87565b610992576040805162461bcd60e51b815260206004820152601660248201527524b73b30b634b210383934b1b290383937bb34b232b960511b604482015290519081900360640190fd5b61099a611bef565b8111156109e4576040805162461bcd60e51b81526020600482015260136024820152726f7074696f6e2073697a6520746f6f2062696760681b604482015290519081900360640190fd5b610a1f6001600160a01b037f00000000000000000000000000000000000000000000000000000000000000001633308463ffffffff611f1716565b6000839050600080826001600160a01b031663feaf968c6040518163ffffffff1660e01b815260040160a06040518083038186803b158015610a6057600080fd5b505afa158015610a74573d6000803e3d6000fd5b505050506040513d60a0811015610a8a57600080fd5b50805160209091015160125491935091506000610ab288876001600160501b038a168c611323565b9050610abd81611f77565b610ac5612d0d565b50604080516101208101825233815260208101859052908101879052606081018290526001600160501b038086166080830152881660a08201528915801560c08301526001600160a01b038a1660e08301526000610100830152610b3e57600954610b36908363ffffffff611f9016565b600955610b55565b600a54610b51908363ffffffff611f9016565b600a555b601281908060018154018082558091505060019003906000526020600020906006020160009091909190915060008201518160000160006101000a8154816001600160a01b0302191690836001600160a01b0316021790555060208201518160010155604082015181600201556060820151816003015560808201518160040160006101000a8154816001600160501b0302191690836001600160501b0316021790555060a082015181600401600a6101000a8154816001600160501b0302191690836001600160501b0316021790555060c08201518160040160146101000a81548160ff02191690831515021790555060e08201518160050160006101000a8154816001600160a01b0302191690836001600160a01b031602179055506101008201518160050160146101000a81548160ff0219169083151502179055505050827fcd8984b7ffc01146a9ba9096d805b0bec246d7f8e52837a7b5f404464f6b229b3386858e8a8e8c0160405180876001600160a01b03166001600160a01b0316815260200186815260200185815260200184151515158152602001836001600160501b03166001600160501b03168152602001826001600160501b03166001600160501b03168152602001965050505050505060405180910390a250505050505050505050565b600c5481565b60025490565b6000610d57848484611fea565b610dcd84610d63611d97565b610dc885604051806060016040528060288152602001612e83602891396001600160a01b038a16600090815260016020526040812090610da1611d97565b6001600160a01b03168152602081019190915260400160002054919063ffffffff61215116565b611d9b565b5060015b9392505050565b80610de2336115c6565b1015610e35576040805162461bcd60e51b815260206004820152601960248201527f496e737566666963656e742053686172652042616c616e636500000000000000604482015290519081900360640190fd5b6000610f12610e42610d44565b610f06610ef9600d547f00000000000000000000000000000000000000000000000000000000000000006001600160a01b03166370a08231306040518263ffffffff1660e01b815260040180826001600160a01b03166001600160a01b0316815260200191505060206040518083038186803b158015610ec157600080fd5b505afa158015610ed5573d6000803e3d6000fd5b505050506040513d6020811015610eeb57600080fd5b50519063ffffffff6121e816565b859063ffffffff61222a16565b9063ffffffff61228316565b9050610f1e33836122c5565b336000908152600860205260409020544211610fda576000610f4782606463ffffffff61228316565b600554909150610f89906001600160a01b037f0000000000000000000000000000000000000000000000000000000000000000811691610100900416836123cd565b610fd433610f9d848463ffffffff6121e816565b6001600160a01b037f000000000000000000000000000000000000000000000000000000000000000016919063ffffffff6123cd16565b50611014565b6110146001600160a01b037f000000000000000000000000000000000000000000000000000000000000000016338363ffffffff6123cd16565b5050565b600a5481565b60055460ff1690565b60006108cf611034611d97565b84610dc88560016000611045611d97565b6001600160a01b03908116825260208083019390935260409182016000908120918c16815292529020549063ffffffff611f9016565b6006546001600160a01b031633146110c8576040805162461bcd60e51b81526020600482018190526024820152600080516020612eab833981519152604482015290519081900360640190fd5b6011805460ff19811660ff90911615179055565b6006546001600160a01b03163314611129576040805162461bcd60e51b81526020600482018190526024820152600080516020612eab833981519152604482015290519081900360640190fd5b601355565b6012818154811061113b57fe5b60009182526020909120600690910201805460018201546002830154600384015460048501546005909501546001600160a01b0394851696509294919390926001600160501b0380841693600160501b81049091169260ff600160a01b92839004811693918216929091041689565b6006546001600160a01b031633146111f7576040805162461bcd60e51b81526020600482018190526024820152600080516020612eab833981519152604482015290519081900360640190fd5b8015806112045750603281115b611243576040805162461bcd60e51b815260206004820152600b60248201526a696e76616c69642066656560a81b604482015290519081900360640190fd5b600f55565b600e5481565b60135481565b6006546001600160a01b031633146112a1576040805162461bcd60e51b81526020600482018190526024820152600080516020612eab833981519152604482015290519081900360640190fd5b6212750081106112f8576040805162461bcd60e51b815260206004820152601860248201527f696e76616c696420706f6f6c206c6f636b20706572696f640000000000000000604482015290519081900360640190fd5b601055565b60105481565b60055461010090046001600160a01b031681565b60095481565b600d5481565b6007546040805163b7a9eaa960e01b81526001600160a01b03878116600483015291516000939290921691829163b7a9eaa9916024808301926020929190829003018186803b15801561137557600080fd5b505afa158015611389573d6000803e3d6000fd5b505050506040513d602081101561139f57600080fd5b50516001600160a01b03166113f2576040805162461bcd60e51b815260206004820152601460248201527334b73b30b634b2103a3930b234b733903830b4b960611b604482015290519081900360640190fd5b6000816001600160a01b031663b7a9eaa9886040518263ffffffff1660e01b815260040180826001600160a01b03166001600160a01b0316815260200191505060206040518083038186803b15801561144a57600080fd5b505afa15801561145e573d6000803e3d6000fd5b505050506040513d602081101561147457600080fd5b5051600d54600954600a54604080516370a0823160e01b815230600482015290519495506001600160a01b0380871695634682fdce958d9590948d948d94929391927f000000000000000000000000000000000000000000000000000000000000000016916370a0823191602480820192602092909190829003018186803b1580156114ff57600080fd5b505afa158015611513573d6000803e3d6000fd5b505050506040513d602081101561152957600080fd5b5051604080516001600160e01b031960e08b901b1681526004810198909852602488019690965260448701949094529115156064860152608485015260a484015260c48301525160e4808301926020929190829003018186803b15801561158f57600080fd5b505afa1580156115a3573d6000803e3d6000fd5b505050506040513d60208110156115b957600080fd5b5051979650505050505050565b6001600160a01b031660009081526020819052604090205490565b6006546001600160a01b0316331461162e576040805162461bcd60e51b81526020600482018190526024820152600080516020612eab833981519152604482015290519081900360640190fd5b600580546001600160a01b0390921661010002610100600160a81b0319909216919091179055565b6006546001600160a01b031633146116a3576040805162461bcd60e51b81526020600482018190526024820152600080516020612eab833981519152604482015290519081900360640190fd5b600680546001600160a01b0319166001600160a01b0392909216919091179055565b60086020526000908152604090205481565b6006546001600160a01b031681565b60048054604080516020601f60026000196101006001881615020190951694909404938401819004810282018101909252828152606093909290918301828280156108415780601f1061081657610100808354040283529160200191610841565b7f000000000000000000000000000000000000000000000000000000000000000081565b611773612d0d565b6012828154811061178057fe5b60009182526020918290206040805161012081018252600690930290910180546001600160a01b0390811684526001820154948401949094526002810154918301919091526003810154606083015260048101546001600160501b038082166080850152600160501b82041660a084015260ff600160a01b918290048116151560c085015260059092015493841660e0840152909204909116158015610100830152909150611876576040805162461bcd60e51b815260206004820152601860248201527f6f7074696f6e20616c726561647920636f6d706c657465640000000000000000604482015290519081900360640190fd5b60008160e001519050600080826001600160a01b0316639a6fc8f58560a001518660800151016040518263ffffffff1660e01b815260040180826001600160501b03166001600160501b0316815260200191505060a06040518083038186803b1580156118e257600080fd5b505afa1580156118f6573d6000803e3d6000fd5b505050506040513d60a081101561190c57600080fd5b5080516020909101519092509050801580159061193157506001600160501b03821615155b611972576040805162461bcd60e51b815260206004820152600d60248201526c1b9bdd081c9958591e481e595d609a1b604482015290519081900360640190fd5b600161010085015260c0840151156119c857808460200151131561199f5761199a8486612424565b6119a9565b6119a984866125ff565b60608401516009546119c09163ffffffff6121e816565b600955611a08565b83602001518113156119e3576119de8486612424565b6119ed565b6119ed84866125ff565b6060840151600a54611a049163ffffffff6121e816565b600a555b5050505050565b6006546001600160a01b03163314611a5c576040805162461bcd60e51b81526020600482018190526024820152600080516020612eab833981519152604482015290519081900360640190fd5b6005811015611aa0576040805162461bcd60e51b815260206004820152600b60248201526a696e76616c69642066656560a81b604482015290519081900360640190fd5b50565b60006108cf611ab0611d97565b84610dc885604051806060016040528060258152602001612f5f6025913960016000611ada611d97565b6001600160a01b03908116825260208083019390935260409182016000908120918d1681529252902054919063ffffffff61215116565b60115460ff16611b68576040805162461bcd60e51b815260206004820152601860248201527f706f6f6c206465706f736974732068617320636c6f7365640000000000000000604482015290519081900360640190fd5b611ba36001600160a01b037f00000000000000000000000000000000000000000000000000000000000000001633308463ffffffff611f1716565b60105433600081815260086020526040902042909201909155611aa090826126e2565b60006108cf611bd3611d97565b8484611fea565b600f5481565b6007546001600160a01b031681565b604080516370a0823160e01b8152306004820152905160009182916001600160a01b037f000000000000000000000000000000000000000000000000000000000000000016916370a08231916024808301926020929190829003018186803b158015611c5a57600080fd5b505afa158015611c6e573d6000803e3d6000fd5b505050506040513d6020811015611c8457600080fd5b5051600d54909150811115611caf57600d54611ca790829063ffffffff6121e816565b915050610849565b6000915050610849565b600b5481565b6006546001600160a01b03163314611d0c576040805162461bcd60e51b81526020600482018190526024820152600080516020612eab833981519152604482015290519081900360640190fd5b600b55565b6006546001600160a01b03163314611d5e576040805162461bcd60e51b81526020600482018190526024820152600080516020612eab833981519152604482015290519081900360640190fd5b600c55565b6001600160a01b03918216600090815260016020908152604080832093909416825291909152205490565b60115460ff1681565b3390565b6001600160a01b038316611de05760405162461bcd60e51b8152600401808060200182810382526024815260200180612f116024913960400191505060405180910390fd5b6001600160a01b038216611e255760405162461bcd60e51b8152600401808060200182810382526022815260200180612d9f6022913960400191505060405180910390fd5b6001600160a01b03808416600081815260016020908152604080832094871680845294825291829020859055815185815291517f8c5be1e5ebec7d5bd14f71427d1e84f3dd0314c0f7b2291e5b200ac8c7c3b9259281900390910190a3505050565b6007546040805163b7a9eaa960e01b81526001600160a01b03848116600483015291516000939290921691829163b7a9eaa9916024808301926020929190829003018186803b158015611ed957600080fd5b505afa158015611eed573d6000803e3d6000fd5b505050506040513d6020811015611f0357600080fd5b50516001600160a01b031615159392505050565b604080516001600160a01b0380861660248301528416604482015260648082018490528251808303909101815260849091019091526020810180516001600160e01b03166323b872dd60e01b179052611f719085906127de565b50505050565b600d54611f8a908263ffffffff611f9016565b600d5550565b600082820183811015610dd1576040805162461bcd60e51b815260206004820152601b60248201527f536166654d6174683a206164646974696f6e206f766572666c6f770000000000604482015290519081900360640190fd5b6001600160a01b03831661202f5760405162461bcd60e51b8152600401808060200182810382526025815260200180612eec6025913960400191505060405180910390fd5b6001600160a01b0382166120745760405162461bcd60e51b8152600401808060200182810382526023815260200180612d5a6023913960400191505060405180910390fd5b61207f83838361241f565b6120c281604051806060016040528060268152602001612dc1602691396001600160a01b038616600090815260208190526040902054919063ffffffff61215116565b6001600160a01b0380851660009081526020819052604080822093909355908416815220546120f7908263ffffffff611f9016565b6001600160a01b038084166000818152602081815260409182902094909455805185815290519193928716927fddf252ad1be2c89b69c2b068fc378daa952ba7f163c4a11628f55a4df523b3ef92918290030190a3505050565b600081848411156121e05760405162461bcd60e51b81526004018080602001828103825283818151815260200191508051906020019080838360005b838110156121a557818101518382015260200161218d565b50505050905090810190601f1680156121d25780820380516001836020036101000a031916815260200191505b509250505060405180910390fd5b505050900390565b6000610dd183836040518060400160405280601e81526020017f536166654d6174683a207375627472616374696f6e206f766572666c6f770000815250612151565b600082612239575060006108d3565b8282028284828161224657fe5b0414610dd15760405162461bcd60e51b8152600401808060200182810382526021815260200180612e626021913960400191505060405180910390fd5b6000610dd183836040518060400160405280601a81526020017f536166654d6174683a206469766973696f6e206279207a65726f00000000000081525061288f565b6001600160a01b03821661230a5760405162461bcd60e51b8152600401808060200182810382526021815260200180612ecb6021913960400191505060405180910390fd5b6123168260008361241f565b61235981604051806060016040528060228152602001612d7d602291396001600160a01b038516600090815260208190526040902054919063ffffffff61215116565b6001600160a01b038316600090815260208190526040902055600254612385908263ffffffff6121e816565b6002556040805182815290516000916001600160a01b038516917fddf252ad1be2c89b69c2b068fc378daa952ba7f163c4a11628f55a4df523b3ef9181900360200190a35050565b604080516001600160a01b038416602482015260448082018490528251808303909101815260649091019091526020810180516001600160e01b031663a9059cbb60e01b17905261241f9084906127de565b505050565b600d54826060015111156124695760405162461bcd60e51b8152600401808060200182810382526029815260200180612e396029913960400191505060405180910390fd5b604080516370a0823160e01b815230600482015290516001600160a01b037f000000000000000000000000000000000000000000000000000000000000000016916370a08231916024808301926020929190829003018186803b1580156124cf57600080fd5b505afa1580156124e3573d6000803e3d6000fd5b505050506040513d60208110156124f957600080fd5b505160608301511115612553576040805162461bcd60e51b815260206004820152601b60248201527f696e737566666963656e742062616c616e636520696e20706f6f6c0000000000604482015290519081900360640190fd5b60006125736064610f06600e54866060015161228390919063ffffffff16565b905080156125b5576125b56001600160a01b037f000000000000000000000000000000000000000000000000000000000000000016338363ffffffff6123cd16565b6060830151600d546125cc9163ffffffff6121e816565b600d5560405182907fa33fd53ba34795ffefaea3759c71f87d38b89ae12e40bc434c826fae0ca5358390600090a2505050565b6060820151600f548111801561261757506000600f54115b15612689576000612633600f548361228390919063ffffffff16565b600554909150612675906001600160a01b037f0000000000000000000000000000000000000000000000000000000000000000811691610100900416836123cd565b612685828263ffffffff6121e816565b9150505b612698813385600001516128f4565b6060830151600d546126af9163ffffffff6121e816565b600d5560405182907fa2a53c7cb82eeb7994ccbbab71bea210cd63cfeb7823972fb5b6a49c3b0e1d4c90600090a2505050565b6001600160a01b03821661273d576040805162461bcd60e51b815260206004820152601f60248201527f45524332303a206d696e7420746f20746865207a65726f206164647265737300604482015290519081900360640190fd5b6127496000838361241f565b60025461275c908263ffffffff611f9016565b6002556001600160a01b038216600090815260208190526040902054612788908263ffffffff611f9016565b6001600160a01b0383166000818152602081815260408083209490945583518581529351929391927fddf252ad1be2c89b69c2b068fc378daa952ba7f163c4a11628f55a4df523b3ef9281900390910190a35050565b6060612833826040518060400160405280602081526020017f5361666545524332303a206c6f772d6c6576656c2063616c6c206661696c6564815250856001600160a01b0316612b2e9092919063ffffffff16565b80519091501561241f5780806020019051602081101561285257600080fd5b505161241f5760405162461bcd60e51b815260040180806020018281038252602a815260200180612f35602a913960400191505060405180910390fd5b600081836128de5760405162461bcd60e51b81526020600482018181528351602484015283519092839260449091019190850190808383600083156121a557818101518382015260200161218d565b5060008385816128ea57fe5b0495945050505050565b600d548311156129355760405162461bcd60e51b815260040180806020018281038252602c815260200180612de7602c913960400191505060405180910390fd5b604080516370a0823160e01b815230600482015290516001600160a01b037f000000000000000000000000000000000000000000000000000000000000000016916370a08231916024808301926020929190829003018186803b15801561299b57600080fd5b505afa1580156129af573d6000803e3d6000fd5b505050506040513d60208110156129c557600080fd5b5051831115612a1b576040805162461bcd60e51b815260206004820152601b60248201527f696e737566666963656e742062616c616e636520696e20706f6f6c0000000000604482015290519081900360640190fd5b806001600160a01b0316826001600160a01b031614612aac576000612a506064610f06600e548761228390919063ffffffff16565b90508015612a9257612a926001600160a01b037f000000000000000000000000000000000000000000000000000000000000000016848363ffffffff6123cd16565b612aa682610f9d868463ffffffff6121e816565b50612ae6565b612ae66001600160a01b037f000000000000000000000000000000000000000000000000000000000000000016828563ffffffff6123cd16565b604080518481526001600160a01b038316602082015281517f9b5d1a613fa5f0790b36b13103706e31fca06b229d87e9915b29fc20c1d76490929181900390910190a1505050565b6060612b3d8484600085612b45565b949350505050565b606082471015612b865760405162461bcd60e51b8152600401808060200182810382526026815260200180612e136026913960400191505060405180910390fd5b612b8f85612ca1565b612be0576040805162461bcd60e51b815260206004820152601d60248201527f416464726573733a2063616c6c20746f206e6f6e2d636f6e7472616374000000604482015290519081900360640190fd5b60006060866001600160a01b031685876040518082805190602001908083835b60208310612c1f5780518252601f199092019160209182019101612c00565b6001836020036101000a03801982511681845116808217855250505050505090500191505060006040518083038185875af1925050503d8060008114612c81576040519150601f19603f3d011682016040523d82523d6000602084013e612c86565b606091505b5091509150612c96828286612ca7565b979650505050505050565b3b151590565b60608315612cb6575081610dd1565b825115612cc65782518084602001fd5b60405162461bcd60e51b81526020600482018181528451602484015284518593919283926044019190850190808383600083156121a557818101518382015260200161218d565b6040805161012081018252600080825260208201819052918101829052606081018290526080810182905260a0810182905260c0810182905260e081018290526101008101919091529056fe45524332303a207472616e7366657220746f20746865207a65726f206164647265737345524332303a206275726e20616d6f756e7420657863656564732062616c616e636545524332303a20617070726f766520746f20746865207a65726f206164647265737345524332303a207472616e7366657220616d6f756e7420657863656564732062616c616e6365696e737566666963656e7420706f6f6c2062616c616e636520617661696c61626c6520746f207061796f7574416464726573733a20696e73756666696369656e742062616c616e636520666f722063616c6c696e737566666963656e74206c6f636b656420706f6f6c2062616c616e636520746f20756e6c6f636b536166654d6174683a206d756c7469706c69636174696f6e206f766572666c6f7745524332303a207472616e7366657220616d6f756e74206578636565647320616c6c6f77616e63654f776e61626c653a2063616c6c6572206973206e6f7420746865206f776e657245524332303a206275726e2066726f6d20746865207a65726f206164647265737345524332303a207472616e736665722066726f6d20746865207a65726f206164647265737345524332303a20617070726f76652066726f6d20746865207a65726f20616464726573735361666545524332303a204552433230206f7065726174696f6e20646964206e6f74207375636365656445524332303a2064656372656173656420616c6c6f77616e63652062656c6f77207a65726fa26469706673582212206974ae0dc20cf6f55f94827bfde39dc5ac5b9688452c68710b774b866a7a97f564736f6c63430006060033",
  "immutableReferences": {
    "4341": [
      {
        "length": 32,
        "start": 2545
      },
      {
        "length": 32,
        "start": 3661
      },
      {
        "length": 32,
        "start": 3931
      },
      {
        "length": 32,
        "start": 4007
      },
      {
        "length": 32,
        "start": 4071
      },
      {
        "length": 32,
        "start": 5304
      },
      {
        "length": 32,
        "start": 5961
      },
      {
        "length": 32,
        "start": 7029
      },
      {
        "length": 32,
        "start": 7188
      },
      {
        "length": 32,
        "start": 9353
      },
      {
        "length": 32,
        "start": 9608
      },
      {
        "length": 32,
        "start": 9799
      },
      {
        "length": 32,
        "start": 10581
      },
      {
        "length": 32,
        "start": 10853
      },
      {
        "length": 32,
        "start": 10937
      }
    ]
  },
  "source": "pragma solidity 0.6.6;\n\nimport \"@openzeppelin/contracts/math/SafeMath.sol\";\nimport \"@openzeppelin/contracts/token/ERC20/IERC20.sol\";\nimport \"@openzeppelin/contracts/token/ERC20/SafeERC20.sol\";\n\n\n\nimport \"../RateCalc.sol\";\nimport \"../interfaces/IUtilizationRewards.sol\";\nimport \"../interfaces/ITokenDenominatedBinaryOptions.sol\";\nimport \"../interfaces/IAPP.sol\";\nimport \"../Chainlink/AggregatorProxy.sol\";\n\n\ncontract TokenDenominatedBinaryOptions is ERC20, ITokenDenominatedBinaryOptions {\n  using SafeMath for uint256;\n  using SafeERC20 for IERC20;\n  address payable public treasury;\n  address payable public owner;\n  address public app;//the approved pp/ratecalc\n  mapping(address=>uint256) public nW; //next withdraw (used for pool lock time)\n\n  uint256 public oC;\n  uint256 public oP;\n\n\n\n  uint256 public minT;//minimum number of rounds\n  uint256 public maxT;//maximum number of rounds\n  uint256 public lockedAmount;//the amount locked into the pool by the liquidity provider\n  uint256 public settlerFee = 5;//0.2%\n  uint256 public protocolFee = 100;//1%\n  uint256 public poolLockSeconds = 1209600;//14 days\n\n  bool public open = true;\n  Option[] public options;\n\n  IERC20 public immutable sT;//the token pooled in this contract\n  uint256 public base = 1000000000000000000;//one token of the underlying, used for expiring\n\n  modifier onlyOwner() {\n    require(owner == msg.sender, \"Ownable: caller is not the owner\");\n    _;\n  }\n\n  /* Types */\n  struct Option {\n    address payable holder;\n    int256 sP;//strike\n    uint256 pV;//purchase value\n    uint256 lV;//in-the-money option value (lockedValue)\n    uint80 pR;//purchase round\n    uint80 exp;//final round of option s\n    bool dir;//direction (true for call)\n    address pP;//price provider\n    bool complete;//has the option been exercised/expired yet\n  }\n\n  /* Events */\n  event Create(\n    uint256 indexed id,\n    address payable account,\n    int256 sP,//strike\n    uint256 lV,//locked value\n    bool dir,//direction (true for call)\n    uint80 pR,//purchase round\n    uint80 exp//expiration round\n  );\n    event Payout(uint256 poolLost, address winner);\n    event Exercise(uint256 indexed id);\n    event Expire(uint256 indexed id);\n\n  constructor(string memory name_, string memory symbol_, address token_, address payable dao_, address app_, address payable treasury_) public ERC20(name_, symbol_) {\n    sT = IERC20(token_);\n    owner = dao_;\n    app = app_;\n    treasury = treasury_;\n    minT = 1;\n    maxT = 1;\n    lockedAmount = 0;\n  }\n\n  //start of governance/maintanance functions\n\n  /**\n    * @dev set the new address to control this contract\n    * @param newDAO_ the new owner's address\n    */\n  function updateOwner(address payable newDAO_) public onlyOwner {\n    owner = newDAO_;\n  }\n\n  /**\n    * @dev set the new address of the Approved Price Providers(APP)\n    * @param newAPP_ the new approved price provider (and ratecalc contract to use). Must be a IAPP\n    */\n  function updateAPP(address newAPP_) public onlyOwner {\n    app = newAPP_;\n  }\n\n  /**\n    * @dev set the new address of the treasury that early withdraw fees or protocol fees go to\n    * @param newTreasury_ the new Treasury address\n    */\n  function updateTreasury(address payable newTreasury_) public onlyOwner {\n    treasury = newTreasury_;\n  }\n\n  /**\n    * @dev set the base amount of the token. important for tokens that have more or less then 18 decimal places\n    * @param newBase_ the new base amount\n    */\n  function updateBase(uint256 newBase_) public onlyOwner {\n    base = newBase_;\n  }\n\n  /**\n    * @dev set the fee users can recieve for exercising/expiring other users options\n    * @param fee_ the new fee for exercising/expiring a options\n    */\n  function updateSettlerFee(uint256 fee_) external onlyOwner {\n    require(fee_ >= 5, \"invalid fee\");\n    settlerFee = settlerFee;\n  }\n\n\n  /**\n    * @dev set the fee users pay to buy an option\n    * @param newProtocolFee_ the new fee (in tenth percent) to buy an option\n    */\n  function updateProtocolFee(uint256 newProtocolFee_) external onlyOwner {\n    require(newProtocolFee_ == 0 || newProtocolFee_ > 50, \"invalid fee\");\n    protocolFee = newProtocolFee_;\n  }\n\n  /**\n    * @dev update the pool stake lock up time.\n    * @param newLockSeconds_ the new lock time, in seconds\n    */\n  function updatePoolLockSeconds(uint256 newLockSeconds_) external onlyOwner {\n    //make sure that the pool lock period never exceeds 14 days (1209600 seconds)\n    require(newLockSeconds_ >= 0 && newLockSeconds_ < 1209600, \"invalid pool lock period\");\n    poolLockSeconds = newLockSeconds_;\n  }\n\n  /**\n    * @dev update the max rounds for an option position\n    * @param newMax_ the new maximum time (in rounds) an option may be created for (inclusive).\n    */\n  function updateMaxT(uint256 newMax_) external onlyOwner {\n    maxT = newMax_;\n  }\n\n  /**\n    * @dev update the min rounds for an option position\n    * @param newMin_ the new minimum time (in rounds) an option may be created for (inclusive).\n    */\n  function updateMinT(uint256 newMin_) external onlyOwner {\n    minT = newMin_;\n  }\n\n   /**\n     * @dev used to send this pool into EOL mode when a newer one is open\n     */\n    function toggleStaking() external onlyOwner {\n        open = !open;\n    }\n\n  // End of governance/maintanance functions\n\n  //start of usage functions\n\n   /**\n    * @dev deposit into the pool\n    * @param amount_ the amount you want to deposit to be used for underwriting options\n    */\n  function stake(uint256 amount_) public override {\n    require(open, \"pool deposits has closed\");\n    sT.safeTransferFrom(msg.sender, address(this), amount_);\n    nW[msg.sender] = block.timestamp + poolLockSeconds;\n    _mint(msg.sender, amount_);\n  }\n\n  /**\n    * @dev recieve tokens from the pool.\n    * If the current time is before your next available withdraw a 1% fee will be applied.\n    * @param amount_ The amount of LP token to return the pool (burn).\n    */\n  function withdraw(uint256 amount_) public override {\n    require (balanceOf(msg.sender) >= amount_, \"Insufficent Share Balance\");\n    //value to receive\n    uint256 vTR = amount_.mul(sT.balanceOf(address(this)).sub(lockedAmount)).div(totalSupply());\n    _burn(msg.sender, amount_);\n    if (block.timestamp <= nW[msg.sender]) {\n      //early withdraw fee\n      uint256 penalty = vTR.div(100);\n      sT.safeTransfer(treasury, penalty);\n      sT.safeTransfer(msg.sender, vTR.sub(penalty));\n    } else {\n      sT.safeTransfer(msg.sender, vTR);\n    }\n  }\n\n  /**\n    @dev Get the maximum possible option size\n    */\n  function getMaxAvailable() public view returns(uint256) {\n    uint256 balance = sT.balanceOf(address(this));\n    if (balance > lockedAmount) {\n      return balance.sub(lockedAmount);\n    } else {\n      return 0;\n    }\n  }\n\n  /**\n    @dev helper for getting rate\n    @param pair the price provider\n    @param deposit option premium (payment) amount\n    @param t time\n    @param k direction bool, true is call\n    @return the rate\n    */\n  function getRate(address pair, uint256 deposit, uint256 t, bool k) public view returns (uint256) {\n    IAPP app_ = IAPP(app);\n    require(app_.aprvd(pair) != 0x0000000000000000000000000000000000000000, \"invalid trading pair\");\n    RateCalc rc = RateCalc(app_.aprvd(pair));\n    return rc.rate(deposit, lockedAmount , t, k, oC, oP, sT.balanceOf(address(this)));\n  }\n\n  /**\n    @dev called by BinaryOptions contract to lock pool value coresponding to new binary options bought.\n    @param amount amount in ETH to lock from the pool total.\n    */\n  function lock(uint256 amount) internal {\n    lockedAmount = lockedAmount.add(amount);\n  }\n\n  /**\n    @dev check if a price provider is approved.\n    @param pp_ the oracle feed to check\n    **/\n  function isApproved(address pp_) internal returns(bool){\n    IAPP app_ = IAPP(app);\n    return app_.aprvd(pp_) != 0x0000000000000000000000000000000000000000;\n  }\n\n  /**\n    @dev Open a new call or put options.\n    @param k_ type of option to buy (true for call )\n    @param pp_ the address of the price provider to use (must be in the list of aprvd from IAPP)\n    @param t_ the rounds until your options expiration (must be minT < t_ > maxT)\n    @param a_ the amount to spend on on the option\n    */\n  function openPosition(bool k_, address pp_, uint80 t_, uint256 a_) external override {\n    require(\n      t_ >= minT && t_ <= maxT,\n      \"Invalid time\"\n    );\n    require(isApproved(pp_), \"Invalid price provider\");\n    require(a_ <= getMaxAvailable(), \"option size too big\");\n\n    sT.safeTransferFrom(msg.sender, address(this), a_);\n\n    AggregatorProxy priceProvider = AggregatorProxy(pp_);\n    (uint80 lR, int256 lA, , , ) = priceProvider.latestRoundData();\n    uint256 oID = options.length;\n\n    uint256 lV = getRate(pp_, a_, t_, k_);\n    lock(lV);\n\n    Option memory op = Option(\n      msg.sender,\n      lA,\n      a_,\n      lV,\n      lR,\n      t_,//rounds until expiration\n      k_,\n      pp_,\n      false\n    );\n    if (k_) {\n      oC = oC.add(lV);\n    } else {\n      oP = oP.add(lV);\n    }\n    options.push(op);\n    emit Create(oID, msg.sender, lA, lV, k_, lR, lR+t_);\n  }\n\n  /**\n    * @notice exercises or expire a option\n    * @dev exercise and expire functions have been depreciated in favor of this single complete option\n    * @param oID id of the option to complete\n    */\n  function complete(uint256 oID) external override{\n    Option memory option = options[oID];\n    require(option.complete == false, \"option already completed\");\n    AggregatorProxy priceProvider = AggregatorProxy(option.pP);\n    (uint80 lR, int256 lA, , , ) = priceProvider.getRoundData(uint80(option.pR+option.exp));\n    require(lA != 0 && lR != 0, \"not ready yet\");\n    option.complete = true;\n    if (option.dir) {\n      //call option\n      if (option.sP > lA) {\n        //OTM expire\n        expire(option, oID);\n      } else {\n        //ITM exercise\n        exercise(option, oID);\n      }\n      oC = oC.sub(option.lV);\n    } else {\n      //put option\n      if (lA > option.sP) {\n        //OTM expire\n        expire(option, oID);\n      } else {\n        //ITM exercise\n        exercise(option, oID);\n      }\n      oP = oP.sub(option.lV);\n    }\n  }\n\n  /**\n    @dev called by BinaryOptions contract to payout pool value coresponding to binary options expiring itm.\n    @param amount amount in ERC20 to send\n    @param exerciser address calling the exercise/expire function, this may the winner or another user who then earns a fee.\n    @param winner address of the winner.\n    @notice exerciser fees are subject to change see updateFeePercent above.\n    */\n  function payout(uint256 amount, address payable exerciser, address payable winner) internal {\n    require(amount <= lockedAmount, \"insufficent pool balance available to payout\");\n\n    require(amount <= sT.balanceOf(address(this)), \"insufficent balance in pool\");\n    if (exerciser != winner) {\n      //good samaratin fee\n      uint256 fee = amount.div(settlerFee).div(100);\n\n      if (fee > 0) {\n        sT.safeTransfer(exerciser, fee);\n      }\n      sT.safeTransfer(winner, amount.sub(fee));\n    } else {\n      sT.safeTransfer(winner, amount);\n    }\n    emit Payout(amount, winner);\n  }\n\n  /**\n     * @notice exercise an option\n     * @dev use complete to exercise an option. This is a internal function\n     * @param option the option to exercise\n     * @param oID the option id\n     */\n  function exercise(Option memory option, uint256 oID) internal {\n    //option expires ITM, pool pays out\n\n    uint256 lv = option.lV;\n\n    //an optional (to be choosen by contract owner) fee on each option.\n    //A % of the trade money is sent as a fee. see protocolFee\n    if (lv > protocolFee && protocolFee > 0) {\n      uint256 fee = lv.div(protocolFee);\n\n      sT.safeTransfer(treasury, fee);\n      lv = lv.sub(fee);\n    }\n\n    payout(lv, msg.sender, option.holder);\n    lockedAmount = lockedAmount.sub(option.lV);\n\n    emit Exercise(oID);\n  }\n\n  /**\n     * @notice expire an option\n     * @dev use complete to expire an option. This is a internal function\n     * @param option the option to exercise\n     * @param oID the option id\n     */\n  function expire(Option memory option, uint256 oID) internal {\n    require(option.lV <= lockedAmount, \"insufficent locked pool balance to unlock\");\n\n\n    require(option.lV <= sT.balanceOf(address(this)), \"insufficent balance in pool\");\n\n    uint256 fee = option.lV.div(settlerFee).div(100);\n    if (fee > 0) {\n      sT.safeTransfer(msg.sender, fee);\n    }\n    lockedAmount = lockedAmount.sub(option.lV);\n    emit Expire(oID);\n  }\n}\n",
  "sourcePath": "/Users/x/Desktop/eth/BIOPv4/contracts/TokenDenominatedBinaryOptions/TokenDenominatedBinaryOptions.sol",
  "compiler": {
    "name": "solc",
    "version": "0.6.6+commit.6c089d02.Emscripten.clang"
  },
  "schemaVersion": "3.3.4",
  "updatedAt": "2021-06-17T00:58:54.200Z",
  "devdoc": {
    "methods": {
      "allowance(address,address)": {
        "details": "See {IERC20-allowance}."
      },
      "approve(address,uint256)": {
        "details": "See {IERC20-approve}.     * Requirements:     * - `spender` cannot be the zero address."
      },
      "balanceOf(address)": {
        "details": "See {IERC20-balanceOf}."
      },
      "complete(uint256)": {
        "details": "exercise and expire functions have been depreciated in favor of this single complete option",
        "params": {
          "oID": "id of the option to complete"
        }
      },
      "decimals()": {
        "details": "Returns the number of decimals used to get its user representation. For example, if `decimals` equals `2`, a balance of `505` tokens should be displayed to a user as `5,05` (`505 / 10 ** 2`).     * Tokens usually opt for a value of 18, imitating the relationship between Ether and Wei. This is the value {ERC20} uses, unless {_setupDecimals} is called.     * NOTE: This information is only used for _display_ purposes: it in no way affects any of the arithmetic of the contract, including {IERC20-balanceOf} and {IERC20-transfer}."
      },
      "decreaseAllowance(address,uint256)": {
        "details": "Atomically decreases the allowance granted to `spender` by the caller.     * This is an alternative to {approve} that can be used as a mitigation for problems described in {IERC20-approve}.     * Emits an {Approval} event indicating the updated allowance.     * Requirements:     * - `spender` cannot be the zero address. - `spender` must have allowance for the caller of at least `subtractedValue`."
      },
      "getMaxAvailable()": {
        "details": "Get the maximum possible option size"
      },
      "getRate(address,uint256,uint256,bool)": {
        "details": "helper for getting rate",
        "params": {
          "deposit": "option premium (payment) amount",
          "k": "direction bool, true is call",
          "pair": "the price provider",
          "t": "time"
        },
        "returns": {
          "_0": "the rate"
        }
      },
      "increaseAllowance(address,uint256)": {
        "details": "Atomically increases the allowance granted to `spender` by the caller.     * This is an alternative to {approve} that can be used as a mitigation for problems described in {IERC20-approve}.     * Emits an {Approval} event indicating the updated allowance.     * Requirements:     * - `spender` cannot be the zero address."
      },
      "name()": {
        "details": "Returns the name of the token."
      },
      "openPosition(bool,address,uint80,uint256)": {
        "details": "Open a new call or put options.",
        "params": {
          "a_": "the amount to spend on on the option",
          "k_": "type of option to buy (true for call )",
          "pp_": "the address of the price provider to use (must be in the list of aprvd from IAPP)",
          "t_": "the rounds until your options expiration (must be minT < t_ > maxT)"
        }
      },
      "stake(uint256)": {
        "details": "deposit into the pool",
        "params": {
          "amount_": "the amount you want to deposit to be used for underwriting options"
        }
      },
      "symbol()": {
        "details": "Returns the symbol of the token, usually a shorter version of the name."
      },
      "toggleStaking()": {
        "details": "used to send this pool into EOL mode when a newer one is open"
      },
      "totalSupply()": {
        "details": "See {IERC20-totalSupply}."
      },
      "transfer(address,uint256)": {
        "details": "See {IERC20-transfer}.     * Requirements:     * - `recipient` cannot be the zero address. - the caller must have a balance of at least `amount`."
      },
      "transferFrom(address,address,uint256)": {
        "details": "See {IERC20-transferFrom}.     * Emits an {Approval} event indicating the updated allowance. This is not required by the EIP. See the note at the beginning of {ERC20}.     * Requirements:     * - `sender` and `recipient` cannot be the zero address. - `sender` must have a balance of at least `amount`. - the caller must have allowance for ``sender``'s tokens of at least `amount`."
      },
      "updateAPP(address)": {
        "details": "set the new address of the Approved Price Providers(APP)",
        "params": {
          "newAPP_": "the new approved price provider (and ratecalc contract to use). Must be a IAPP"
        }
      },
      "updateBase(uint256)": {
        "details": "set the base amount of the token. important for tokens that have more or less then 18 decimal places",
        "params": {
          "newBase_": "the new base amount"
        }
      },
      "updateMaxT(uint256)": {
        "details": "update the max rounds for an option position",
        "params": {
          "newMax_": "the new maximum time (in rounds) an option may be created for (inclusive)."
        }
      },
      "updateMinT(uint256)": {
        "details": "update the min rounds for an option position",
        "params": {
          "newMin_": "the new minimum time (in rounds) an option may be created for (inclusive)."
        }
      },
      "updateOwner(address)": {
        "details": "set the new address to control this contract",
        "params": {
          "newDAO_": "the new owner's address"
        }
      },
      "updatePoolLockSeconds(uint256)": {
        "details": "update the pool stake lock up time.",
        "params": {
          "newLockSeconds_": "the new lock time, in seconds"
        }
      },
      "updateProtocolFee(uint256)": {
        "details": "set the fee users pay to buy an option",
        "params": {
          "newProtocolFee_": "the new fee (in tenth percent) to buy an option"
        }
      },
      "updateSettlerFee(uint256)": {
        "details": "set the fee users can recieve for exercising/expiring other users options",
        "params": {
          "fee_": "the new fee for exercising/expiring a options"
        }
      },
      "updateTreasury(address)": {
        "details": "set the new address of the treasury that early withdraw fees or protocol fees go to",
        "params": {
          "newTreasury_": "the new Treasury address"
        }
      },
      "withdraw(uint256)": {
        "details": "recieve tokens from the pool. If the current time is before your next available withdraw a 1% fee will be applied.",
        "params": {
          "amount_": "The amount of LP token to return the pool (burn)."
        }
      }
    }
  },
  "userdoc": {
    "methods": {
      "complete(uint256)": {
        "notice": "exercises or expire a option"
      }
    }
  }
}