{
  "contractName": "TokenDenominatedBinaryOptions",
  "abi": [
    {
      "inputs": [
        {
          "internalType": "string",
          "name": "name_",
          "type": "string"
        },
        {
          "internalType": "string",
          "name": "symbol_",
          "type": "string"
        },
        {
          "internalType": "address",
          "name": "token_",
          "type": "address"
        },
        {
          "internalType": "address payable",
          "name": "dao_",
          "type": "address"
        },
        {
          "internalType": "address",
          "name": "app_",
          "type": "address"
        },
        {
          "internalType": "address payable",
          "name": "treasury_",
          "type": "address"
        }
      ],
      "stateMutability": "nonpayable",
      "type": "constructor"
    },
    {
      "anonymous": false,
      "inputs": [
        {
          "indexed": true,
          "internalType": "address",
          "name": "owner",
          "type": "address"
        },
        {
          "indexed": true,
          "internalType": "address",
          "name": "spender",
          "type": "address"
        },
        {
          "indexed": false,
          "internalType": "uint256",
          "name": "value",
          "type": "uint256"
        }
      ],
      "name": "Approval",
      "type": "event"
    },
    {
      "anonymous": false,
      "inputs": [
        {
          "indexed": true,
          "internalType": "uint256",
          "name": "id",
          "type": "uint256"
        },
        {
          "indexed": false,
          "internalType": "address payable",
          "name": "account",
          "type": "address"
        },
        {
          "indexed": false,
          "internalType": "int256",
          "name": "sP",
          "type": "int256"
        },
        {
          "indexed": false,
          "internalType": "uint256",
          "name": "lV",
          "type": "uint256"
        },
        {
          "indexed": false,
          "internalType": "bool",
          "name": "dir",
          "type": "bool"
        },
        {
          "indexed": false,
          "internalType": "uint80",
          "name": "pR",
          "type": "uint80"
        },
        {
          "indexed": false,
          "internalType": "uint80",
          "name": "exp",
          "type": "uint80"
        }
      ],
      "name": "Create",
      "type": "event"
    },
    {
      "anonymous": false,
      "inputs": [
        {
          "indexed": true,
          "internalType": "uint256",
          "name": "id",
          "type": "uint256"
        }
      ],
      "name": "Exercise",
      "type": "event"
    },
    {
      "anonymous": false,
      "inputs": [
        {
          "indexed": true,
          "internalType": "uint256",
          "name": "id",
          "type": "uint256"
        }
      ],
      "name": "Expire",
      "type": "event"
    },
    {
      "anonymous": false,
      "inputs": [
        {
          "indexed": false,
          "internalType": "uint256",
          "name": "poolLost",
          "type": "uint256"
        },
        {
          "indexed": false,
          "internalType": "address",
          "name": "winner",
          "type": "address"
        }
      ],
      "name": "Payout",
      "type": "event"
    },
    {
      "anonymous": false,
      "inputs": [
        {
          "indexed": true,
          "internalType": "address",
          "name": "from",
          "type": "address"
        },
        {
          "indexed": true,
          "internalType": "address",
          "name": "to",
          "type": "address"
        },
        {
          "indexed": false,
          "internalType": "uint256",
          "name": "value",
          "type": "uint256"
        }
      ],
      "name": "Transfer",
      "type": "event"
    },
    {
      "inputs": [
        {
          "internalType": "address",
          "name": "owner",
          "type": "address"
        },
        {
          "internalType": "address",
          "name": "spender",
          "type": "address"
        }
      ],
      "name": "allowance",
      "outputs": [
        {
          "internalType": "uint256",
          "name": "",
          "type": "uint256"
        }
      ],
      "stateMutability": "view",
      "type": "function"
    },
    {
      "inputs": [],
      "name": "app",
      "outputs": [
        {
          "internalType": "address",
          "name": "",
          "type": "address"
        }
      ],
      "stateMutability": "view",
      "type": "function"
    },
    {
      "inputs": [
        {
          "internalType": "address",
          "name": "spender",
          "type": "address"
        },
        {
          "internalType": "uint256",
          "name": "amount",
          "type": "uint256"
        }
      ],
      "name": "approve",
      "outputs": [
        {
          "internalType": "bool",
          "name": "",
          "type": "bool"
        }
      ],
      "stateMutability": "nonpayable",
      "type": "function"
    },
    {
      "inputs": [
        {
          "internalType": "address",
          "name": "account",
          "type": "address"
        }
      ],
      "name": "balanceOf",
      "outputs": [
        {
          "internalType": "uint256",
          "name": "",
          "type": "uint256"
        }
      ],
      "stateMutability": "view",
      "type": "function"
    },
    {
      "inputs": [],
      "name": "decimals",
      "outputs": [
        {
          "internalType": "uint8",
          "name": "",
          "type": "uint8"
        }
      ],
      "stateMutability": "view",
      "type": "function"
    },
    {
      "inputs": [
        {
          "internalType": "address",
          "name": "spender",
          "type": "address"
        },
        {
          "internalType": "uint256",
          "name": "subtractedValue",
          "type": "uint256"
        }
      ],
      "name": "decreaseAllowance",
      "outputs": [
        {
          "internalType": "bool",
          "name": "",
          "type": "bool"
        }
      ],
      "stateMutability": "nonpayable",
      "type": "function"
    },
    {
      "inputs": [
        {
          "internalType": "address",
          "name": "spender",
          "type": "address"
        },
        {
          "internalType": "uint256",
          "name": "addedValue",
          "type": "uint256"
        }
      ],
      "name": "increaseAllowance",
      "outputs": [
        {
          "internalType": "bool",
          "name": "",
          "type": "bool"
        }
      ],
      "stateMutability": "nonpayable",
      "type": "function"
    },
    {
      "inputs": [],
      "name": "lockedAmount",
      "outputs": [
        {
          "internalType": "uint256",
          "name": "",
          "type": "uint256"
        }
      ],
      "stateMutability": "view",
      "type": "function"
    },
    {
      "inputs": [],
      "name": "maxT",
      "outputs": [
        {
          "internalType": "uint256",
          "name": "",
          "type": "uint256"
        }
      ],
      "stateMutability": "view",
      "type": "function"
    },
    {
      "inputs": [],
      "name": "minT",
      "outputs": [
        {
          "internalType": "uint256",
          "name": "",
          "type": "uint256"
        }
      ],
      "stateMutability": "view",
      "type": "function"
    },
    {
      "inputs": [
        {
          "internalType": "address",
          "name": "",
          "type": "address"
        }
      ],
      "name": "nW",
      "outputs": [
        {
          "internalType": "uint256",
          "name": "",
          "type": "uint256"
        }
      ],
      "stateMutability": "view",
      "type": "function"
    },
    {
      "inputs": [],
      "name": "name",
      "outputs": [
        {
          "internalType": "string",
          "name": "",
          "type": "string"
        }
      ],
      "stateMutability": "view",
      "type": "function"
    },
    {
      "inputs": [],
      "name": "oC",
      "outputs": [
        {
          "internalType": "uint256",
          "name": "",
          "type": "uint256"
        }
      ],
      "stateMutability": "view",
      "type": "function"
    },
    {
      "inputs": [],
      "name": "oP",
      "outputs": [
        {
          "internalType": "uint256",
          "name": "",
          "type": "uint256"
        }
      ],
      "stateMutability": "view",
      "type": "function"
    },
    {
      "inputs": [],
      "name": "open",
      "outputs": [
        {
          "internalType": "bool",
          "name": "",
          "type": "bool"
        }
      ],
      "stateMutability": "view",
      "type": "function"
    },
    {
      "inputs": [
        {
          "internalType": "uint256",
          "name": "",
          "type": "uint256"
        }
      ],
      "name": "options",
      "outputs": [
        {
          "internalType": "address payable",
          "name": "holder",
          "type": "address"
        },
        {
          "internalType": "int256",
          "name": "sP",
          "type": "int256"
        },
        {
          "internalType": "uint80",
          "name": "pR",
          "type": "uint80"
        },
        {
          "internalType": "uint256",
          "name": "pV",
          "type": "uint256"
        },
        {
          "internalType": "uint256",
          "name": "lV",
          "type": "uint256"
        },
        {
          "internalType": "uint80",
          "name": "exp",
          "type": "uint80"
        },
        {
          "internalType": "bool",
          "name": "dir",
          "type": "bool"
        },
        {
          "internalType": "address",
          "name": "pP",
          "type": "address"
        }
      ],
      "stateMutability": "view",
      "type": "function"
    },
    {
      "inputs": [],
      "name": "owner",
      "outputs": [
        {
          "internalType": "address payable",
          "name": "",
          "type": "address"
        }
      ],
      "stateMutability": "view",
      "type": "function"
    },
    {
      "inputs": [],
      "name": "poolLockSeconds",
      "outputs": [
        {
          "internalType": "uint256",
          "name": "",
          "type": "uint256"
        }
      ],
      "stateMutability": "view",
      "type": "function"
    },
    {
      "inputs": [],
      "name": "protocolFee",
      "outputs": [
        {
          "internalType": "uint256",
          "name": "",
          "type": "uint256"
        }
      ],
      "stateMutability": "view",
      "type": "function"
    },
    {
      "inputs": [],
      "name": "sT",
      "outputs": [
        {
          "internalType": "address",
          "name": "",
          "type": "address"
        }
      ],
      "stateMutability": "view",
      "type": "function"
    },
    {
      "inputs": [],
      "name": "settlerFee",
      "outputs": [
        {
          "internalType": "uint256",
          "name": "",
          "type": "uint256"
        }
      ],
      "stateMutability": "view",
      "type": "function"
    },
    {
      "inputs": [],
      "name": "symbol",
      "outputs": [
        {
          "internalType": "string",
          "name": "",
          "type": "string"
        }
      ],
      "stateMutability": "view",
      "type": "function"
    },
    {
      "inputs": [],
      "name": "totalSupply",
      "outputs": [
        {
          "internalType": "uint256",
          "name": "",
          "type": "uint256"
        }
      ],
      "stateMutability": "view",
      "type": "function"
    },
    {
      "inputs": [
        {
          "internalType": "address",
          "name": "recipient",
          "type": "address"
        },
        {
          "internalType": "uint256",
          "name": "amount",
          "type": "uint256"
        }
      ],
      "name": "transfer",
      "outputs": [
        {
          "internalType": "bool",
          "name": "",
          "type": "bool"
        }
      ],
      "stateMutability": "nonpayable",
      "type": "function"
    },
    {
      "inputs": [
        {
          "internalType": "address",
          "name": "sender",
          "type": "address"
        },
        {
          "internalType": "address",
          "name": "recipient",
          "type": "address"
        },
        {
          "internalType": "uint256",
          "name": "amount",
          "type": "uint256"
        }
      ],
      "name": "transferFrom",
      "outputs": [
        {
          "internalType": "bool",
          "name": "",
          "type": "bool"
        }
      ],
      "stateMutability": "nonpayable",
      "type": "function"
    },
    {
      "inputs": [],
      "name": "treasury",
      "outputs": [
        {
          "internalType": "address payable",
          "name": "",
          "type": "address"
        }
      ],
      "stateMutability": "view",
      "type": "function"
    },
    {
      "inputs": [
        {
          "internalType": "address payable",
          "name": "newDAO_",
          "type": "address"
        }
      ],
      "name": "updateOwner",
      "outputs": [],
      "stateMutability": "nonpayable",
      "type": "function"
    },
    {
      "inputs": [
        {
          "internalType": "address",
          "name": "newAPP_",
          "type": "address"
        }
      ],
      "name": "updateAPP",
      "outputs": [],
      "stateMutability": "nonpayable",
      "type": "function"
    },
    {
      "inputs": [
        {
          "internalType": "address payable",
          "name": "newTreasury_",
          "type": "address"
        }
      ],
      "name": "updateTreasury",
      "outputs": [],
      "stateMutability": "nonpayable",
      "type": "function"
    },
    {
      "inputs": [
        {
          "internalType": "uint256",
          "name": "newBase_",
          "type": "uint256"
        }
      ],
      "name": "updateBase",
      "outputs": [],
      "stateMutability": "nonpayable",
      "type": "function"
    },
    {
      "inputs": [
        {
          "internalType": "uint256",
          "name": "fee_",
          "type": "uint256"
        }
      ],
      "name": "updateSettlerFee",
      "outputs": [],
      "stateMutability": "nonpayable",
      "type": "function"
    },
    {
      "inputs": [
        {
          "internalType": "uint256",
          "name": "newProtocolFee_",
          "type": "uint256"
        }
      ],
      "name": "updateProtocolFee",
      "outputs": [],
      "stateMutability": "nonpayable",
      "type": "function"
    },
    {
      "inputs": [
        {
          "internalType": "uint256",
          "name": "newLockSeconds_",
          "type": "uint256"
        }
      ],
      "name": "updatePoolLockSeconds",
      "outputs": [],
      "stateMutability": "nonpayable",
      "type": "function"
    },
    {
      "inputs": [
        {
          "internalType": "uint256",
          "name": "newMax_",
          "type": "uint256"
        }
      ],
      "name": "updateMaxT",
      "outputs": [],
      "stateMutability": "nonpayable",
      "type": "function"
    },
    {
      "inputs": [
        {
          "internalType": "uint256",
          "name": "newMin_",
          "type": "uint256"
        }
      ],
      "name": "updateMinT",
      "outputs": [],
      "stateMutability": "nonpayable",
      "type": "function"
    },
    {
      "inputs": [],
      "name": "closeStaking",
      "outputs": [],
      "stateMutability": "nonpayable",
      "type": "function"
    },
    {
      "inputs": [
        {
          "internalType": "uint256",
          "name": "amount_",
          "type": "uint256"
        }
      ],
      "name": "stake",
      "outputs": [],
      "stateMutability": "nonpayable",
      "type": "function"
    },
    {
      "inputs": [
        {
          "internalType": "uint256",
          "name": "amount_",
          "type": "uint256"
        }
      ],
      "name": "withdraw",
      "outputs": [],
      "stateMutability": "nonpayable",
      "type": "function"
    },
    {
      "inputs": [],
      "name": "getMaxAvailable",
      "outputs": [
        {
          "internalType": "uint256",
          "name": "",
          "type": "uint256"
        }
      ],
      "stateMutability": "view",
      "type": "function"
    },
    {
      "inputs": [
        {
          "internalType": "address",
          "name": "pair",
          "type": "address"
        },
        {
          "internalType": "uint256",
          "name": "deposit",
          "type": "uint256"
        },
        {
          "internalType": "uint256",
          "name": "t",
          "type": "uint256"
        },
        {
          "internalType": "bool",
          "name": "k",
          "type": "bool"
        }
      ],
      "name": "getRate",
      "outputs": [
        {
          "internalType": "uint256",
          "name": "",
          "type": "uint256"
        }
      ],
      "stateMutability": "view",
      "type": "function"
    },
    {
      "inputs": [
        {
          "internalType": "bool",
          "name": "k_",
          "type": "bool"
        },
        {
          "internalType": "address",
          "name": "pp_",
          "type": "address"
        },
        {
          "internalType": "uint80",
          "name": "t_",
          "type": "uint80"
        },
        {
          "internalType": "uint256",
          "name": "a_",
          "type": "uint256"
        }
      ],
      "name": "openPosition",
      "outputs": [],
      "stateMutability": "nonpayable",
      "type": "function"
    },
    {
      "inputs": [
        {
          "internalType": "uint256",
          "name": "oID",
          "type": "uint256"
        }
      ],
      "name": "complete",
      "outputs": [
        {
          "internalType": "bool",
          "name": "",
          "type": "bool"
        }
      ],
      "stateMutability": "nonpayable",
      "type": "function"
    }
  ],
  "bytecode": "0x608060405260006009819055600a556005600e556064600f55621275006010556011805460ff19166001179055670de0b6b3a76400006014553480156200004557600080fd5b506040516200342c3803806200342c833981810160405260c08110156200006b57600080fd5b81019080805160405193929190846401000000008211156200008c57600080fd5b908301906020820185811115620000a257600080fd5b8251640100000000811182820188101715620000bd57600080fd5b82525081516020918201929091019080838360005b83811015620000ec578181015183820152602001620000d2565b50505050905090810190601f1680156200011a5780820380516001836020036101000a031916815260200191505b50604052602001805160405193929190846401000000008211156200013e57600080fd5b9083019060208201858111156200015457600080fd5b82516401000000008111828201881017156200016f57600080fd5b82525081516020918201929091019080838360005b838110156200019e57818101518382015260200162000184565b50505050905090810190601f168015620001cc5780820380516001836020036101000a031916815260200191505b506040908152602082810151918301516060840151608090940151885193965090945091879187916200020691600391908501906200029f565b5080516200021c9060049060208401906200029f565b505060058054601380546001600160a01b03199081166001600160a01b03998a161790915560068054821697891697909717909655600780549096169487169490941790945550601260ff1990921691909117610100600160a81b031916610100919093160291909117905550506001600b556003600c556000600d5562000344565b828054600181600116156101000203166002900490600052602060002090601f016020900481019282601f10620002e257805160ff191683800117855562000312565b8280016001018555821562000312579182015b8281111562000312578251825591602001919060010190620002f5565b506200032092915062000324565b5090565b6200034191905b808211156200032057600081556001016200032b565b90565b6130d880620003546000396000f3fe608060405234801561001057600080fd5b506004361061025e5760003560e01c806370a0823111610146578063a457c2d7116100c3578063bac2e6db11610087578063bac2e6db14610716578063c89723911461071e578063c97d4b2b14610726578063dbdf8dfb14610743578063dd62ed3e14610760578063fcfff16f1461078e5761025e565b8063a457c2d714610691578063a694fc3a146106bd578063a9059cbb146106da578063b0e21e8a14610706578063b76564bd1461070e5761025e565b806395d89b411161010a57806395d89b411461063f57806396cff52514610647578063971d852f1461064f57806398cfe5871461066c5780639f19904c146106745761025e565b806370a082311461059f5780637f51bb1f146105c5578063880cdc31146105eb5780638a300e68146106115780638da5cb5b146106375761025e565b806339509351116101df5780635009a613116101a35780635009a6131461050c578063602d86081461052957806361d027b31461053157806363691eaa146105555780636ab28bc81461055d5780636ab7d6d0146105655761025e565b806339509351146104265780633f003b7914610452578063409e22051461046f5780634256dd78146104e75780634e9e3252146105045761025e565b806318160ddd1161022657806318160ddd146103a557806323b872dd146103ad5780632e1a7d4d146103e35780632f67e35914610400578063313ce567146104085761025e565b806306fdde031461026357806307e665df146102e0578063095ea7b31461030857806316c608481461034857806318126dce1461038b575b600080fd5b61026b610796565b6040805160208082528351818301528351919283929083019185019080838360005b838110156102a557818101518382015260200161028d565b50505050905090810190601f1680156102d25780820380516001836020036101000a031916815260200191505b509250505060405180910390f35b610306600480360360208110156102f657600080fd5b50356001600160a01b031661082d565b005b6103346004803603604081101561031e57600080fd5b506001600160a01b03813516906020013561089c565b604080519115158252519081900360200190f35b6103066004803603608081101561035e57600080fd5b5080351515906001600160a01b03602082013516906001600160501b0360408201351690606001356108ba565b610393610d42565b60408051918252519081900360200190f35b610393610d48565b610334600480360360608110156103c357600080fd5b506001600160a01b03813581169160208101359091169060400135610d4e565b610306600480360360208110156103f957600080fd5b5035610ddb565b6103936111a2565b6104106111a8565b6040805160ff9092168252519081900360200190f35b6103346004803603604081101561043c57600080fd5b506001600160a01b0381351690602001356111b1565b6103066004803603602081101561046857600080fd5b5035611205565b61048c6004803603602081101561048557600080fd5b5035611257565b604080516001600160a01b03998a16815260208101989098526001600160501b039687168882015260608801959095526080870193909352931660a085015291151560c0840152921660e08201529051908190036101000190f35b610306600480360360208110156104fd57600080fd5b50356112c8565b610393611366565b6103066004803603602081101561052257600080fd5b503561136c565b610393611415565b61053961141b565b604080516001600160a01b039092168252519081900360200190f35b61039361142f565b610393611435565b6103936004803603608081101561057b57600080fd5b506001600160a01b038135169060208101359060408101359060600135151561143b565b610393600480360360208110156105b557600080fd5b50356001600160a01b0316611718565b610306600480360360208110156105db57600080fd5b50356001600160a01b0316611737565b6103066004803603602081101561060157600080fd5b50356001600160a01b03166117ac565b6103936004803603602081101561062757600080fd5b50356001600160a01b031661181b565b61053961182d565b61026b61183c565b61053961189d565b6103346004803603602081101561066557600080fd5b50356118ac565b610306611ad0565b6103066004803603602081101561068a57600080fd5b5035611b31565b610334600480360360408110156106a757600080fd5b506001600160a01b038135169060200135611bd0565b610306600480360360208110156106d357600080fd5b5035611c3e565b610334600480360360408110156106f057600080fd5b506001600160a01b038135169060200135611d8a565b610393611d9e565b610539611da4565b610393611db3565b610393611e63565b6103066004803603602081101561073c57600080fd5b5035611e69565b6103066004803603602081101561075957600080fd5b5035611ebb565b6103936004803603604081101561077657600080fd5b506001600160a01b0381358116916020013516611f0d565b610334611f38565b60038054604080516020601f60026000196101006001881615020190951694909404938401819004810282018101909252828152606093909290918301828280156108225780601f106107f757610100808354040283529160200191610822565b820191906000526020600020905b81548152906001019060200180831161080557829003601f168201915b505050505090505b90565b6006546001600160a01b0316331461087a576040805162461bcd60e51b81526020600482018190526024820152600080516020612ff4833981519152604482015290519081900360640190fd5b600780546001600160a01b0319166001600160a01b0392909216919091179055565b60006108b06108a9611f41565b8484611f45565b5060015b92915050565b600b54826001600160501b0316101580156108e05750600c54826001600160501b031611155b610920576040805162461bcd60e51b815260206004820152600c60248201526b496e76616c69642074696d6560a01b604482015290519081900360640190fd5b61092983612031565b610973576040805162461bcd60e51b815260206004820152601660248201527524b73b30b634b210383934b1b290383937bb34b232b960511b604482015290519081900360640190fd5b61097b611db3565b8111156109c5576040805162461bcd60e51b81526020600482015260136024820152726f7074696f6e2073697a6520746f6f2062696760681b604482015290519081900360640190fd5b601354604080516323b872dd60e01b81523360048201523060248201526044810184905290516001600160a01b039092169182916323b872dd9160648083019260209291908290030181600087803b158015610a2057600080fd5b505af1158015610a34573d6000803e3d6000fd5b505050506040513d6020811015610a4a57600080fd5b505060408051633fabe5a360e21b81529051859160009182916001600160a01b0385169163feaf968c9160048082019260a092909190829003018186803b158015610a9457600080fd5b505afa158015610aa8573d6000803e3d6000fd5b505050506040513d60a0811015610abe57600080fd5b50805160209091015160125491935091506000610ae689886001600160501b038b168d61143b565b9050610af1816120c1565b610af9612e84565b604051806101000160405280336001600160a01b03168152602001858152602001866001600160501b031681526020018981526020018381526020018a6001600160501b031681526020018c151581526020018b6001600160a01b031681525090508a15610b6f57600980546001019055610b79565b600a805460010190555b601281908060018154018082558091505060019003906000526020600020906006020160009091909190915060008201518160000160006101000a8154816001600160a01b0302191690836001600160a01b031602179055506020820151816001015560408201518160020160006101000a8154816001600160501b0302191690836001600160501b03160217905550606082015181600301556080820151816004015560a08201518160050160006101000a8154816001600160501b0302191690836001600160501b0316021790555060c082015181600501600a6101000a81548160ff02191690831515021790555060e082015181600501600b6101000a8154816001600160a01b0302191690836001600160a01b031602179055505050827fcd8984b7ffc01146a9ba9096d805b0bec246d7f8e52837a7b5f404464f6b229b3386858f8a8f8c0160405180876001600160a01b03166001600160a01b0316815260200186815260200185815260200184151515158152602001836001600160501b03166001600160501b03168152602001826001600160501b03166001600160501b03168152602001965050505050505060405180910390a25050505050505050505050565b600c5481565b60025490565b6000610d5b8484846120da565b610dd184610d67611f41565b610dcc85604051806060016040528060288152602001612fcc602891396001600160a01b038a16600090815260016020526040812090610da5611f41565b6001600160a01b03168152602081019190915260400160002054919063ffffffff61224116565b611f45565b5060019392505050565b80610de533611718565b1015610e38576040805162461bcd60e51b815260206004820152601960248201527f496e737566666963656e742053686172652042616c616e636500000000000000604482015290519081900360640190fd5b601354600d546001600160a01b0390911690600090610ef990610e6990610e5d610d48565b9063ffffffff6122d816565b604080516370a0823160e01b81523060048201529051610eed916001600160a01b038716916370a0823191602480820192602092909190829003018186803b158015610eb457600080fd5b505afa158015610ec8573d6000803e3d6000fd5b505050506040513d6020811015610ede57600080fd5b5051869063ffffffff61232116565b9063ffffffff61237a16565b9050610f0533846123bc565b3360009081526008602052604090205442116110df576000610f2e82606463ffffffff61237a16565b6005546040805163a9059cbb60e01b81526101009092046001600160a01b03908116600484015260248301849052905192935085169163a9059cbb916044808201926020929091908290030181600087803b158015610f8c57600080fd5b505af1158015610fa0573d6000803e3d6000fd5b505050506040513d6020811015610fb657600080fd5b5051610ffb576040805162461bcd60e51b815260206004820152600f60248201526e1d1c985b9cd9995c8819985a5b1959608a1b604482015290519081900360640190fd5b6001600160a01b03831663a9059cbb3361101b858563ffffffff6122d816565b6040518363ffffffff1660e01b815260040180836001600160a01b03166001600160a01b0316815260200182815260200192505050602060405180830381600087803b15801561106a57600080fd5b505af115801561107e573d6000803e3d6000fd5b505050506040513d602081101561109457600080fd5b50516110d9576040805162461bcd60e51b815260206004820152600f60248201526e1d1c985b9cd9995c8819985a5b1959608a1b604482015290519081900360640190fd5b5061119d565b6040805163a9059cbb60e01b81523360048201526024810183905290516001600160a01b0384169163a9059cbb9160448083019260209291908290030181600087803b15801561112e57600080fd5b505af1158015611142573d6000803e3d6000fd5b505050506040513d602081101561115857600080fd5b505161119d576040805162461bcd60e51b815260206004820152600f60248201526e1d1c985b9cd9995c8819985a5b1959608a1b604482015290519081900360640190fd5b505050565b600a5481565b60055460ff1690565b60006108b06111be611f41565b84610dcc85600160006111cf611f41565b6001600160a01b03908116825260208083019390935260409182016000908120918c16815292529020549063ffffffff6124c416565b6006546001600160a01b03163314611252576040805162461bcd60e51b81526020600482018190526024820152600080516020612ff4833981519152604482015290519081900360640190fd5b601455565b6012818154811061126457fe5b60009182526020909120600690910201805460018201546002830154600384015460048501546005909501546001600160a01b03948516965092946001600160501b03928316949193909281169160ff600160501b83041691600160581b90041688565b6006546001600160a01b03163314611315576040805162461bcd60e51b81526020600482018190526024820152600080516020612ff4833981519152604482015290519081900360640190fd5b8015806113225750603281115b611361576040805162461bcd60e51b815260206004820152600b60248201526a696e76616c69642066656560a81b604482015290519081900360640190fd5b600f55565b600e5481565b6006546001600160a01b031633146113b9576040805162461bcd60e51b81526020600482018190526024820152600080516020612ff4833981519152604482015290519081900360640190fd5b621275008110611410576040805162461bcd60e51b815260206004820152601860248201527f696e76616c696420706f6f6c206c6f636b20706572696f640000000000000000604482015290519081900360640190fd5b601055565b60105481565b60055461010090046001600160a01b031681565b60095481565b600d5481565b6007546040805163b7a9eaa960e01b81526001600160a01b03878116600483015291516000939290921691829163b7a9eaa9916024808301926020929190829003018186803b15801561148d57600080fd5b505afa1580156114a1573d6000803e3d6000fd5b505050506040513d60208110156114b757600080fd5b50516001600160a01b031661150a576040805162461bcd60e51b815260206004820152601460248201527334b73b30b634b2103a3930b234b733903830b4b960611b604482015290519081900360640190fd5b6000816001600160a01b031663b7a9eaa9886040518263ffffffff1660e01b815260040180826001600160a01b03166001600160a01b0316815260200191505060206040518083038186803b15801561156257600080fd5b505afa158015611576573d6000803e3d6000fd5b505050506040513d602081101561158c57600080fd5b50519050600084156115c857600954600a54106115ab575060016115c3565b600a546009546115c09163ffffffff6122d816565b90505b6115f3565b600a54600954106115db575060016115f3565b600954600a546115f09163ffffffff6122d816565b90505b601354600d54604080516370a0823160e01b815230600482015290516001600160a01b0393841693861692633a951448928c928c918c91899189916370a0823191602480820192602092909190829003018186803b15801561165457600080fd5b505afa158015611668573d6000803e3d6000fd5b505050506040513d602081101561167e57600080fd5b5051604080516001600160e01b031960e08a901b1681526004810197909752602487019590955260448601939093529015156064850152608484015260a48301525160c4808301926020929190829003018186803b1580156116df57600080fd5b505afa1580156116f3573d6000803e3d6000fd5b505050506040513d602081101561170957600080fd5b50519998505050505050505050565b6001600160a01b0381166000908152602081905260409020545b919050565b6006546001600160a01b03163314611784576040805162461bcd60e51b81526020600482018190526024820152600080516020612ff4833981519152604482015290519081900360640190fd5b600580546001600160a01b0390921661010002610100600160a81b0319909216919091179055565b6006546001600160a01b031633146117f9576040805162461bcd60e51b81526020600482018190526024820152600080516020612ff4833981519152604482015290519081900360640190fd5b600680546001600160a01b0319166001600160a01b0392909216919091179055565b60086020526000908152604090205481565b6006546001600160a01b031681565b60048054604080516020601f60026000196101006001881615020190951694909404938401819004810282018101909252828152606093909290918301828280156108225780601f106107f757610100808354040283529160200191610822565b6013546001600160a01b031681565b60006118b6612e84565b601283815481106118c357fe5b600091825260208083206040805161010081018252600690940290910180546001600160a01b03908116855260018201549385019390935260028101546001600160501b0390811685840181905260038301546060870152600480840154608088015260059093015480831660a080890182905260ff600160501b840416151560c08a0152600160581b90920490961660e088018190528551639a6fc8f560e01b815296909201909216928501929092529151939550939283928592639a6fc8f592602480840193829003018186803b15801561199f57600080fd5b505afa1580156119b3573d6000803e3d6000fd5b505050506040513d60a08110156119c957600080fd5b508051602090910151909250905080158015906119ee57506001600160501b03821615155b611a2f576040805162461bcd60e51b815260206004820152600d60248201526c1b9bdd081c9958591e481e595d609a1b604482015290519081900360640190fd5b6000611a48600a546009546124c490919063ffffffff16565b90508460c0015115611a88578185602001511315611a6f57611a6a858861251e565b611a79565b611a798588612772565b60098054600019019055611ac6565b8460200151821315611aa357611a9e858861251e565b611aad565b611aad8588612772565b5050600a8054600019019055505060c001519050611732565b5050505050919050565b6006546001600160a01b03163314611b1d576040805162461bcd60e51b81526020600482018190526024820152600080516020612ff4833981519152604482015290519081900360640190fd5b6011805460ff19811660ff90911615179055565b6006546001600160a01b03163314611b7e576040805162461bcd60e51b81526020600482018190526024820152600080516020612ff4833981519152604482015290519081900360640190fd5b600181118015611b8e5750606481105b611bcd576040805162461bcd60e51b815260206004820152600b60248201526a696e76616c69642066656560a81b604482015290519081900360640190fd5b50565b60006108b0611bdd611f41565b84610dcc8560405180606001604052806025815260200161307e6025913960016000611c07611f41565b6001600160a01b03908116825260208083019390935260409182016000908120918d1681529252902054919063ffffffff61224116565b60115460ff161515600114611c9a576040805162461bcd60e51b815260206004820152601860248201527f706f6f6c206465706f736974732068617320636c6f7365640000000000000000604482015290519081900360640190fd5b601354604080516323b872dd60e01b81523360048201523060248201526044810184905290516001600160a01b039092169182916323b872dd9160648083019260209291908290030181600087803b158015611cf557600080fd5b505af1158015611d09573d6000803e3d6000fd5b505050506040513d6020811015611d1f57600080fd5b5051611d63576040805162461bcd60e51b815260206004820152600e60248201526d19195c1bdcda5d0819985a5b195960921b604482015290519081900360640190fd5b60105433600081815260086020526040902042909201909155611d8690836128f2565b5050565b60006108b0611d97611f41565b84846120da565b600f5481565b6007546001600160a01b031681565b601354604080516370a0823160e01b815230600482015290516000926001600160a01b031691839183916370a08231916024808301926020929190829003018186803b158015611e0257600080fd5b505afa158015611e16573d6000803e3d6000fd5b505050506040513d6020811015611e2c57600080fd5b5051600d54909150811115611e5857600d54611e4f90829063ffffffff6122d816565b9250505061082a565b60009250505061082a565b600b5481565b6006546001600160a01b03163314611eb6576040805162461bcd60e51b81526020600482018190526024820152600080516020612ff4833981519152604482015290519081900360640190fd5b600b55565b6006546001600160a01b03163314611f08576040805162461bcd60e51b81526020600482018190526024820152600080516020612ff4833981519152604482015290519081900360640190fd5b600c55565b6001600160a01b03918216600090815260016020908152604080832093909416825291909152205490565b60115460ff1681565b3390565b6001600160a01b038316611f8a5760405162461bcd60e51b815260040180806020018281038252602481526020018061305a6024913960400191505060405180910390fd5b6001600160a01b038216611fcf5760405162461bcd60e51b8152600401808060200182810382526022815260200180612f0e6022913960400191505060405180910390fd5b6001600160a01b03808416600081815260016020908152604080832094871680845294825291829020859055815185815291517f8c5be1e5ebec7d5bd14f71427d1e84f3dd0314c0f7b2291e5b200ac8c7c3b9259281900390910190a3505050565b6007546040805163b7a9eaa960e01b81526001600160a01b03848116600483015291516000939290921691829163b7a9eaa9916024808301926020929190829003018186803b15801561208357600080fd5b505afa158015612097573d6000803e3d6000fd5b505050506040513d60208110156120ad57600080fd5b50516001600160a01b031615159392505050565b600d546120d4908263ffffffff6124c416565b600d5550565b6001600160a01b03831661211f5760405162461bcd60e51b81526004018080602001828103825260258152602001806130356025913960400191505060405180910390fd5b6001600160a01b0382166121645760405162461bcd60e51b8152600401808060200182810382526023815260200180612ec96023913960400191505060405180910390fd5b61216f83838361119d565b6121b281604051806060016040528060268152602001612f30602691396001600160a01b038616600090815260208190526040902054919063ffffffff61224116565b6001600160a01b0380851660009081526020819052604080822093909355908416815220546121e7908263ffffffff6124c416565b6001600160a01b038084166000818152602081815260409182902094909455805185815290519193928716927fddf252ad1be2c89b69c2b068fc378daa952ba7f163c4a11628f55a4df523b3ef92918290030190a3505050565b600081848411156122d05760405162461bcd60e51b81526004018080602001828103825283818151815260200191508051906020019080838360005b8381101561229557818101518382015260200161227d565b50505050905090810190601f1680156122c25780820380516001836020036101000a031916815260200191505b509250505060405180910390fd5b505050900390565b600061231a83836040518060400160405280601e81526020017f536166654d6174683a207375627472616374696f6e206f766572666c6f770000815250612241565b9392505050565b600082612330575060006108b4565b8282028284828161233d57fe5b041461231a5760405162461bcd60e51b8152600401808060200182810382526021815260200180612fab6021913960400191505060405180910390fd5b600061231a83836040518060400160405280601a81526020017f536166654d6174683a206469766973696f6e206279207a65726f0000000000008152506129ee565b6001600160a01b0382166124015760405162461bcd60e51b81526004018080602001828103825260218152602001806130146021913960400191505060405180910390fd5b61240d8260008361119d565b61245081604051806060016040528060228152602001612eec602291396001600160a01b038516600090815260208190526040902054919063ffffffff61224116565b6001600160a01b03831660009081526020819052604090205560025461247c908263ffffffff6122d816565b6002556040805182815290516000916001600160a01b038516917fddf252ad1be2c89b69c2b068fc378daa952ba7f163c4a11628f55a4df523b3ef9181900360200190a35050565b60008282018381101561231a576040805162461bcd60e51b815260206004820152601b60248201527f536166654d6174683a206164646974696f6e206f766572666c6f770000000000604482015290519081900360640190fd5b600d54826080015111156125635760405162461bcd60e51b8152600401808060200182810382526029815260200180612f826029913960400191505060405180910390fd5b601354604080516370a0823160e01b815230600482015290516001600160a01b039092169182916370a08231916024808301926020929190829003018186803b1580156125af57600080fd5b505afa1580156125c3573d6000803e3d6000fd5b505050506040513d60208110156125d957600080fd5b505160808401511115612633576040805162461bcd60e51b815260206004820152601b60248201527f696e737566666963656e742062616c616e636520696e20706f6f6c0000000000604482015290519081900360640190fd5b60006126536064610eed600e54876080015161237a90919063ffffffff16565b90508015612727576040805163a9059cbb60e01b81523360048201526024810183905290516001600160a01b0384169163a9059cbb9160448083019260209291908290030181600087803b1580156126aa57600080fd5b505af11580156126be573d6000803e3d6000fd5b505050506040513d60208110156126d457600080fd5b5051612727576040805162461bcd60e51b815260206004820152601e60248201527f676f6f642073616d61726974616e207472616e73666572206661696c65640000604482015290519081900360640190fd5b6080840151600d5461273e9163ffffffff6122d816565b600d5560405183907fa33fd53ba34795ffefaea3759c71f87d38b89ae12e40bc434c826fae0ca5358390600090a250505050565b6080820151600f548111801561278a57506000600f54115b156128995760006127a6600f548361237a90919063ffffffff16565b6013546005546040805163a9059cbb60e01b81526001600160a01b0361010090930483166004820152602481018590529051939450911691829163a9059cbb9160448083019260209291908290030181600087803b15801561280757600080fd5b505af115801561281b573d6000803e3d6000fd5b505050506040513d602081101561283157600080fd5b5051612884576040805162461bcd60e51b815260206004820152601c60248201527f70726f746f636f6c20666565207472616e73666572206661696c656400000000604482015290519081900360640190fd5b612894838363ffffffff6122d816565b925050505b6128a881338560000151612a53565b6080830151600d546128bf9163ffffffff6122d816565b600d5560405182907fa2a53c7cb82eeb7994ccbbab71bea210cd63cfeb7823972fb5b6a49c3b0e1d4c90600090a2505050565b6001600160a01b03821661294d576040805162461bcd60e51b815260206004820152601f60248201527f45524332303a206d696e7420746f20746865207a65726f206164647265737300604482015290519081900360640190fd5b6129596000838361119d565b60025461296c908263ffffffff6124c416565b6002556001600160a01b038216600090815260208190526040902054612998908263ffffffff6124c416565b6001600160a01b0383166000818152602081815260408083209490945583518581529351929391927fddf252ad1be2c89b69c2b068fc378daa952ba7f163c4a11628f55a4df523b3ef9281900390910190a35050565b60008183612a3d5760405162461bcd60e51b815260206004820181815283516024840152835190928392604490910191908501908083836000831561229557818101518382015260200161227d565b506000838581612a4957fe5b0495945050505050565b600d54831115612a945760405162461bcd60e51b815260040180806020018281038252602c815260200180612f56602c913960400191505060405180910390fd5b601354604080516370a0823160e01b815230600482015290516001600160a01b039092169182916370a08231916024808301926020929190829003018186803b158015612ae057600080fd5b505afa158015612af4573d6000803e3d6000fd5b505050506040513d6020811015612b0a57600080fd5b5051841115612b60576040805162461bcd60e51b815260206004820152601b60248201527f696e737566666963656e742062616c616e636520696e20706f6f6c0000000000604482015290519081900360640190fd5b816001600160a01b0316836001600160a01b031614612d65576000612b956064610eed600e548861237a90919063ffffffff16565b90508015612d5f57816001600160a01b031663a9059cbb85836040518363ffffffff1660e01b815260040180836001600160a01b03166001600160a01b0316815260200182815260200192505050602060405180830381600087803b158015612bfd57600080fd5b505af1158015612c11573d6000803e3d6000fd5b505050506040513d6020811015612c2757600080fd5b5051612c7a576040805162461bcd60e51b815260206004820152601960248201527f657865726369736572207472616e73666572206661696c656400000000000000604482015290519081900360640190fd5b6001600160a01b03821663a9059cbb84612c9a888563ffffffff6122d816565b6040518363ffffffff1660e01b815260040180836001600160a01b03166001600160a01b0316815260200182815260200192505050602060405180830381600087803b158015612ce957600080fd5b505af1158015612cfd573d6000803e3d6000fd5b505050506040513d6020811015612d1357600080fd5b5051612d5f576040805162461bcd60e51b81526020600482015260166024820152751dda5b9b995c881d1c985b9cd9995c8819985a5b195960521b604482015290519081900360640190fd5b50612e3b565b806001600160a01b031663a9059cbb83866040518363ffffffff1660e01b815260040180836001600160a01b03166001600160a01b0316815260200182815260200192505050602060405180830381600087803b158015612dc557600080fd5b505af1158015612dd9573d6000803e3d6000fd5b505050506040513d6020811015612def57600080fd5b5051612e3b576040805162461bcd60e51b81526020600482015260166024820152751dda5b9b995c881d1c985b9cd9995c8819985a5b195960521b604482015290519081900360640190fd5b604080518581526001600160a01b038416602082015281517f9b5d1a613fa5f0790b36b13103706e31fca06b229d87e9915b29fc20c1d76490929181900390910190a150505050565b6040805161010081018252600080825260208201819052918101829052606081018290526080810182905260a0810182905260c0810182905260e08101919091529056fe45524332303a207472616e7366657220746f20746865207a65726f206164647265737345524332303a206275726e20616d6f756e7420657863656564732062616c616e636545524332303a20617070726f766520746f20746865207a65726f206164647265737345524332303a207472616e7366657220616d6f756e7420657863656564732062616c616e6365696e737566666963656e7420706f6f6c2062616c616e636520617661696c61626c6520746f207061796f7574696e737566666963656e74206c6f636b656420706f6f6c2062616c616e636520746f20756e6c6f636b536166654d6174683a206d756c7469706c69636174696f6e206f766572666c6f7745524332303a207472616e7366657220616d6f756e74206578636565647320616c6c6f77616e63654f776e61626c653a2063616c6c6572206973206e6f7420746865206f776e657245524332303a206275726e2066726f6d20746865207a65726f206164647265737345524332303a207472616e736665722066726f6d20746865207a65726f206164647265737345524332303a20617070726f76652066726f6d20746865207a65726f206164647265737345524332303a2064656372656173656420616c6c6f77616e63652062656c6f77207a65726fa264697066735822122031981a1b9481915434762eff8c763af0b2c970182a79ad8fe3b967546e0b298f64736f6c63430006060033",
  "immutableReferences": {},
  "source": "pragma solidity ^0.6.6;\n\nimport \"@openzeppelin/contracts/math/SafeMath.sol\";\nimport \"@openzeppelin/contracts/token/ERC20/ERC20.sol\";\n\n\n\nimport \"../RateCalc.sol\";\nimport \"../interfaces/IUtilizationRewards.sol\";\nimport \"../interfaces/ITokenDenominatedBinaryOptions.sol\";\nimport \"../interfaces/IAPP.sol\";\nimport \"../Chainlink/AggregatorProxy.sol\";\n\n\ncontract TokenDenominatedBinaryOptions is ERC20, ITokenDenominatedBinaryOptions {\n  using SafeMath for uint56;\n  address payable public treasury;\n  address payable public owner;\n  address public app;//the approved pp/ratecalc\n  mapping(address=>uint256) public nW; //next withdraw (used for pool lock time)\n\n  uint256 public oC = 0;\n  uint256 public oP = 0;\n\n\n\n  uint256 public minT;//minimum number of rounds\n  uint256 public maxT;//maximum number of rounds\n  uint256 public lockedAmount;//the amount locked into the pool by the liquidity provider\n  uint256 public settlerFee = 5;//0.2%\n  uint256 public protocolFee = 100;//1%\n  uint256 public poolLockSeconds = 1209600;//14 days\n\n  bool public open = true;\n  Option[] public options;\n\n  address public sT;//the token pooled in this contract\n  uint256 base = 1000000000000000000;//one token of the underlying, used for expiring\n\n  modifier onlyOwner() {\n    require(owner == msg.sender, \"Ownable: caller is not the owner\");\n    _;\n  }\n\n  /* Types */\n  struct Option {\n    address payable holder;\n    int256 sP;//strike\n    uint80 pR;//purchase round\n    uint256 pV;//purchase value\n    uint256 lV;//in-the-money option value (lockedValue)\n    uint80 exp;//final round of option s\n    bool dir;//direction (true for call)\n    address pP;//price provider\n  }\n\n  /* Events */\n  event Create(\n    uint256 indexed id,\n    address payable account,\n    int256 sP,//strike\n    uint256 lV,//locked value\n    bool dir,//direction (true for call)\n    uint80 pR,//purchase round\n    uint80 exp//expiration round\n  );\n    event Payout(uint256 poolLost, address winner);\n    event Exercise(uint256 indexed id);\n    event Expire(uint256 indexed id);\n\n  constructor(string memory name_, string memory symbol_, address token_, address payable dao_, address app_, address payable treasury_) public ERC20(name_, symbol_) {\n    sT = token_;\n    owner = dao_;\n    app = app_;\n    treasury = treasury_;\n    minT = 1;\n    maxT = 3;\n    lockedAmount = 0;\n  }\n\n  //start of governance/maintanance functions\n\n  /**\n    * @dev set the new address to control this contract\n    * @param newDAO_ the new owner's address\n    */\n  function updateOwner(address payable newDAO_) public onlyOwner {\n    owner = newDAO_;\n  }\n\n  /**\n    * @dev set the new address of the Approved Price Providers(APP)\n    * @param newAPP_ the new approved price provider (and ratecalc contract to use). Must be a IAPP\n    */\n  function updateAPP(address newAPP_) public onlyOwner {\n    app = newAPP_;\n  }\n\n  /**\n    * @dev set the new address of the treasury that early withdraw fees or bet fees go to\n    * @param newTreasury_ the new Treasury address\n    */\n  function updateTreasury(address payable newTreasury_) public onlyOwner {\n    treasury = newTreasury_;\n  }\n\n  /**\n    * @dev set the base amount of the token. important for tokens that have more or less then 18 decimal places\n    * @param newBase_ the new base amount\n    */\n  function updateBase(uint256 newBase_) public onlyOwner {\n    base = newBase_;\n  }\n\n  /**\n    * @dev set the fee users can recieve for exercising/expiring other users options\n    * @param fee_ the new fee (in tenth percent) for exercising/expiring a options\n    */\n  function updateSettlerFee(uint256 fee_) external onlyOwner {\n    require(fee_ > 1 && fee_ < 100, \"invalid fee\");\n    settlerFee = settlerFee;\n  }\n\n\n  /**\n    * @dev set the fee users pay to buy an option\n    * @param newProtocolFee_ the new fee (in tenth percent) to buy an option\n    */\n  function updateProtocolFee(uint256 newProtocolFee_) external onlyOwner {\n    require(newProtocolFee_ == 0 || newProtocolFee_ > 50, \"invalid fee\");\n    protocolFee = newProtocolFee_;\n  }\n\n  /**\n    * @dev update the pool stake lock up time.\n    * @param newLockSeconds_ the new lock time, in seconds\n    */\n  function updatePoolLockSeconds(uint256 newLockSeconds_) external onlyOwner {\n    //make sure that the pool lock period never exceeds 14 days (1209600 seconds)\n    require(newLockSeconds_ >= 0 && newLockSeconds_ < 1209600, \"invalid pool lock period\");\n    poolLockSeconds = newLockSeconds_;\n  }\n\n  /**\n    * @dev update the max rounds for option bets\n    * @param newMax_ the new maximum time (in rounds) an option may be created for (inclusive).\n    */\n  function updateMaxT(uint256 newMax_) external onlyOwner {\n    maxT = newMax_;\n  }\n\n  /**\n    * @dev update the min rounds for option bets\n    * @param newMin_ the new minimum time (in rounds) an option may be created for (inclusive).\n    */\n  function updateMinT(uint256 newMin_) external onlyOwner {\n    minT = newMin_;\n  }\n\n   /**\n     * @dev used to send this pool into EOL mode when a newer one is open\n     */\n    function closeStaking() external onlyOwner {\n        open = !open;\n    }\n\n  // End of governance/maintanance functions\n\n  //start of usage functions\n\n   /**\n    * @dev deposit into the pool\n    * @param amount_ the amount you want to deposit to be used for underwriting options\n    */\n  function stake(uint256 amount_) public override {\n    require(open == true, \"pool deposits has closed\");\n    ERC20 token = ERC20(sT);\n    require(token.transferFrom(msg.sender, address(this), amount_), \"deposit failed\");\n    nW[msg.sender] = block.timestamp + poolLockSeconds;\n    _mint(msg.sender, amount_);\n  }\n\n  /**\n    * @dev recieve tokens from the pool.\n    * If the current time is before your next available withdraw a 1% fee will be applied.\n    * @param amount_ The amount of LP token to return the pool (burn).\n    */\n  function withdraw(uint256 amount_) public override {\n    require (balanceOf(msg.sender) >= amount_, \"Insufficent Share Balance\");\n    ERC20 token = ERC20(sT);\n    //value to receive\n    uint256 vTR = amount_.mul(token.balanceOf(address(this))).div(totalSupply().sub(lockedAmount));\n    _burn(msg.sender, amount_);\n    if (block.timestamp <= nW[msg.sender]) {\n      //early withdraw fee\n      uint256 penalty = vTR.div(100);\n      require(token.transfer(treasury, penalty), \"transfer failed\");\n      require(token.transfer(msg.sender, vTR.sub(penalty)), \"transfer failed\");\n    } else {\n      require(token.transfer(msg.sender, vTR), \"transfer failed\");\n    }\n  }\n\n  /**\n    @dev Get the largest amount a bet can be created for\n    */\n  function getMaxAvailable() public view returns(uint256) {\n    ERC20 token = ERC20(sT);\n    uint256 balance = token.balanceOf(address(this));\n    if (balance > lockedAmount) {\n      return balance.sub(lockedAmount);\n    } else {\n      return 0;\n    }\n  }\n\n  /**\n    @dev helper for getting rate\n    @param pair the price provider\n    @param deposit bet amount\n    @param t time\n    @param k direction bool, true is call\n    @return the rate\n    */\n  function getRate(address pair, uint256 deposit, uint256 t, bool k) public view returns (uint256) {\n    IAPP app_ = IAPP(app);\n    require(app_.aprvd(pair) != 0x0000000000000000000000000000000000000000, \"invalid trading pair\");\n\n    RateCalc rc = RateCalc(app_.aprvd(pair));\n    uint256 s;\n    if (k){\n      if (oP >= oC) {\n        s = 1;\n      } else {\n        s = oC.sub(oP);\n      }\n    } else {\n      if (oC >= oP) {\n        s = 1;\n      } else {\n        s = oP.sub(oC);\n      }\n    }\n    ERC20 token = ERC20(sT);\n    return rc.rate(deposit, lockedAmount , t, k, s, token.balanceOf(address(this)));\n  }\n\n  /**\n    @dev called by BinaryOptions contract to lock pool value coresponding to new binary options bought.\n    @param amount amount in ETH to lock from the pool total.\n    */\n  function lock(uint256 amount) internal {\n    lockedAmount = lockedAmount.add(amount);\n  }\n\n  /**\n    @dev check if a price provider is approved.\n    @param pp_ the oracle feed to check\n    **/\n  function isApproved(address pp_) internal returns(bool){\n    IAPP app_ = IAPP(app);\n    return app_.aprvd(pp_) != 0x0000000000000000000000000000000000000000;\n  }\n\n  /**\n    @dev Open a new call or put options.\n    @param k_ type of option to buy (true for call )\n    @param pp_ the address of the price provider to use (must be in the list of aprvd from IAPP)\n    @param t_ the rounds until your options expiration (must be minT < t_ > maxT)\n    @param a_ the amount to spend on on the option\n    */\n  function openPosition(bool k_, address pp_, uint80 t_, uint256 a_) external override {\n    require(\n      t_ >= minT && t_ <= maxT,\n      \"Invalid time\"\n    );\n    require(isApproved(pp_), \"Invalid price provider\");\n    require(a_ <= getMaxAvailable(), \"option size too big\");\n\n    ERC20 token = ERC20(sT);\n    token.transferFrom(msg.sender, address(this), a_);\n\n    AggregatorProxy priceProvider = AggregatorProxy(pp_);\n    (uint80 lR, int256 lA, , , ) = priceProvider.latestRoundData();\n    uint256 oID = options.length;\n\n    uint256 lV = getRate(pp_, a_, t_, k_);\n    lock(lV);\n\n    Option memory op = Option(\n      msg.sender,\n      lA,\n      lR,\n      a_,\n      lV,\n      t_,//rounds until expiration\n      k_,\n      pp_\n    );\n    if (k_) {\n      oC = oC+1;\n    } else {\n      oP = oP+1;\n    }\n    options.push(op);\n    emit Create(oID, msg.sender, lA, lV, k_, lR, lR+t_);\n  }\n\n  /**\n    * @notice exercises or expire a option\n    * @dev exercise and expire functions have been depreciated in favor of this single complete option\n    * @param oID id of the option to complete\n    */\n  function complete(uint256 oID) external override returns(bool){\n    Option memory option = options[oID];\n    AggregatorProxy priceProvider = AggregatorProxy(option.pP);\n    (uint80 lR, int256 lA, , , ) = priceProvider.getRoundData(uint80(option.pR+option.exp));\n    require(lA != 0 && lR != 0, \"not ready yet\");\n    uint256 stack = oC.add(oP);\n    if (option.dir) {\n      //call option\n      if (option.sP > lA) {\n        //OTM expire\n        expire(option, oID);\n      } else {\n        //ITM exercise\n        exercise(option, oID);\n      }\n      oC = oC-1;\n    } else {\n      //put option\n      if (lA > option.sP) {\n        //OTM expire\n        expire(option, oID);\n      } else {\n        //ITM exercise\n        exercise(option, oID);\n      }\n      oP = oP-1;\n      return option.dir;\n    }\n  }\n\n  /**\n    @dev called by BinaryOptions contract to payout pool value coresponding to binary options expiring itm.\n    @param amount amount in ERC20 to send\n    @param exerciser address calling the exercise/expire function, this may the winner or another user who then earns a fee.\n    @param winner address of the winner.\n    @notice exerciser fees are subject to change see updateFeePercent above.\n    */\n  function payout(uint256 amount, address payable exerciser, address payable winner) internal {\n    require(amount <= lockedAmount, \"insufficent pool balance available to payout\");\n\n    ERC20 token = ERC20(sT);\n    require(amount <= token.balanceOf(address(this)), \"insufficent balance in pool\");\n    if (exerciser != winner) {\n      //good samaratin fee\n      uint256 fee = amount.div(settlerFee).div(100);\n\n      if (fee > 0) {\n        require(token.transfer(exerciser, fee), \"exerciser transfer failed\");\n        require(token.transfer(winner, amount.sub(fee)), \"winner transfer failed\");\n      }\n    } else {\n      require(token.transfer(winner, amount), \"winner transfer failed\");\n    }\n    emit Payout(amount, winner);\n  }\n\n  /**\n     * @notice exercise an option\n     * @dev use complete to exercise an option. This is a internal function\n     * @param option the option to exercise\n     * @param oID the option id\n     */\n  function exercise(Option memory option, uint256 oID) internal {\n    //option expires ITM, pool pays out\n\n    uint256 lv = option.lV;\n\n    //an optional (to be choosen by contract owner) fee on each option.\n    //A % of the trade money is sent as a fee. see protocolFee\n    if (lv > protocolFee && protocolFee > 0) {\n      uint256 fee = lv.div(protocolFee);\n\n      ERC20 token = ERC20(sT);\n      require(token.transfer(treasury, fee), \"protocol fee transfer failed\");\n      lv = lv.sub(fee);\n    }\n\n    payout(lv, msg.sender, option.holder);\n    lockedAmount = lockedAmount.sub(option.lV);\n\n    emit Exercise(oID);\n  }\n\n  /**\n     * @notice expire an option\n     * @dev use complete to expire an option. This is a internal function\n     * @param option the option to exercise\n     * @param oID the option id\n     */\n  function expire(Option memory option, uint256 oID) internal {\n    require(option.lV <= lockedAmount, \"insufficent locked pool balance to unlock\");\n\n\n    ERC20 token = ERC20(sT);\n    require(option.lV <= token.balanceOf(address(this)), \"insufficent balance in pool\");\n\n    uint256 fee = option.lV.div(settlerFee).div(100);\n    if (fee > 0) {\n      require(token.transfer(msg.sender, fee), \"good samaritan transfer failed\");\n    }\n    lockedAmount = lockedAmount.sub(option.lV);\n    emit Expire(oID);\n  }\n}\n",
  "sourcePath": "/Users/x/Desktop/eth/BIOPv4/contracts/TokenDenominatedBinaryOptions/TokenDenominatedBinaryOptions.sol",
  "compiler": {
    "name": "solc",
    "version": "0.6.6+commit.6c089d02.Emscripten.clang"
  },
  "schemaVersion": "3.3.4",
  "updatedAt": "2021-05-21T05:15:36.101Z",
  "devdoc": {
    "methods": {
      "allowance(address,address)": {
        "details": "See {IERC20-allowance}."
      },
      "approve(address,uint256)": {
        "details": "See {IERC20-approve}.     * Requirements:     * - `spender` cannot be the zero address."
      },
      "balanceOf(address)": {
        "details": "See {IERC20-balanceOf}."
      },
      "closeStaking()": {
        "details": "used to send this pool into EOL mode when a newer one is open"
      },
      "complete(uint256)": {
        "details": "exercise and expire functions have been depreciated in favor of this single complete option",
        "params": {
          "oID": "id of the option to complete"
        }
      },
      "decimals()": {
        "details": "Returns the number of decimals used to get its user representation. For example, if `decimals` equals `2`, a balance of `505` tokens should be displayed to a user as `5,05` (`505 / 10 ** 2`).     * Tokens usually opt for a value of 18, imitating the relationship between Ether and Wei. This is the value {ERC20} uses, unless {_setupDecimals} is called.     * NOTE: This information is only used for _display_ purposes: it in no way affects any of the arithmetic of the contract, including {IERC20-balanceOf} and {IERC20-transfer}."
      },
      "decreaseAllowance(address,uint256)": {
        "details": "Atomically decreases the allowance granted to `spender` by the caller.     * This is an alternative to {approve} that can be used as a mitigation for problems described in {IERC20-approve}.     * Emits an {Approval} event indicating the updated allowance.     * Requirements:     * - `spender` cannot be the zero address. - `spender` must have allowance for the caller of at least `subtractedValue`."
      },
      "getMaxAvailable()": {
        "details": "Get the largest amount a bet can be created for"
      },
      "getRate(address,uint256,uint256,bool)": {
        "details": "helper for getting rate",
        "params": {
          "deposit": "bet amount",
          "k": "direction bool, true is call",
          "pair": "the price provider",
          "t": "time"
        },
        "returns": {
          "_0": "the rate"
        }
      },
      "increaseAllowance(address,uint256)": {
        "details": "Atomically increases the allowance granted to `spender` by the caller.     * This is an alternative to {approve} that can be used as a mitigation for problems described in {IERC20-approve}.     * Emits an {Approval} event indicating the updated allowance.     * Requirements:     * - `spender` cannot be the zero address."
      },
      "name()": {
        "details": "Returns the name of the token."
      },
      "openPosition(bool,address,uint80,uint256)": {
        "details": "Open a new call or put options.",
        "params": {
          "a_": "the amount to spend on on the option",
          "k_": "type of option to buy (true for call )",
          "pp_": "the address of the price provider to use (must be in the list of aprvd from IAPP)",
          "t_": "the rounds until your options expiration (must be minT < t_ > maxT)"
        }
      },
      "stake(uint256)": {
        "details": "deposit into the pool",
        "params": {
          "amount_": "the amount you want to deposit to be used for underwriting options"
        }
      },
      "symbol()": {
        "details": "Returns the symbol of the token, usually a shorter version of the name."
      },
      "totalSupply()": {
        "details": "See {IERC20-totalSupply}."
      },
      "transfer(address,uint256)": {
        "details": "See {IERC20-transfer}.     * Requirements:     * - `recipient` cannot be the zero address. - the caller must have a balance of at least `amount`."
      },
      "transferFrom(address,address,uint256)": {
        "details": "See {IERC20-transferFrom}.     * Emits an {Approval} event indicating the updated allowance. This is not required by the EIP. See the note at the beginning of {ERC20}.     * Requirements:     * - `sender` and `recipient` cannot be the zero address. - `sender` must have a balance of at least `amount`. - the caller must have allowance for ``sender``'s tokens of at least `amount`."
      },
      "updateAPP(address)": {
        "details": "set the new address of the Approved Price Providers(APP)",
        "params": {
          "newAPP_": "the new approved price provider (and ratecalc contract to use). Must be a IAPP"
        }
      },
      "updateBase(uint256)": {
        "details": "set the base amount of the token. important for tokens that have more or less then 18 decimal places",
        "params": {
          "newBase_": "the new base amount"
        }
      },
      "updateMaxT(uint256)": {
        "details": "update the max rounds for option bets",
        "params": {
          "newMax_": "the new maximum time (in rounds) an option may be created for (inclusive)."
        }
      },
      "updateMinT(uint256)": {
        "details": "update the min rounds for option bets",
        "params": {
          "newMin_": "the new minimum time (in rounds) an option may be created for (inclusive)."
        }
      },
      "updateOwner(address)": {
        "details": "set the new address to control this contract",
        "params": {
          "newDAO_": "the new owner's address"
        }
      },
      "updatePoolLockSeconds(uint256)": {
        "details": "update the pool stake lock up time.",
        "params": {
          "newLockSeconds_": "the new lock time, in seconds"
        }
      },
      "updateProtocolFee(uint256)": {
        "details": "set the fee users pay to buy an option",
        "params": {
          "newProtocolFee_": "the new fee (in tenth percent) to buy an option"
        }
      },
      "updateSettlerFee(uint256)": {
        "details": "set the fee users can recieve for exercising/expiring other users options",
        "params": {
          "fee_": "the new fee (in tenth percent) for exercising/expiring a options"
        }
      },
      "updateTreasury(address)": {
        "details": "set the new address of the treasury that early withdraw fees or bet fees go to",
        "params": {
          "newTreasury_": "the new Treasury address"
        }
      },
      "withdraw(uint256)": {
        "details": "recieve tokens from the pool. If the current time is before your next available withdraw a 1% fee will be applied.",
        "params": {
          "amount_": "The amount of LP token to return the pool (burn)."
        }
      }
    }
  },
  "userdoc": {
    "methods": {
      "complete(uint256)": {
        "notice": "exercises or expire a option"
      }
    }
  }
}