{
  "contractName": "TokenDenominatedBinaryOptionsFactory",
  "abi": [
    {
      "inputs": [],
      "stateMutability": "nonpayable",
      "type": "constructor"
    },
    {
      "anonymous": false,
      "inputs": [
        {
          "indexed": false,
          "internalType": "contract TokenDenominatedBinaryOptions",
          "name": "tokenDelegatedBinaryOptions",
          "type": "address"
        }
      ],
      "name": "TokenDenominatedBinaryOptionsCreated",
      "type": "event"
    },
    {
      "inputs": [],
      "name": "owner",
      "outputs": [
        {
          "internalType": "address payable",
          "name": "",
          "type": "address"
        }
      ],
      "stateMutability": "view",
      "type": "function",
      "constant": true
    },
    {
      "inputs": [
        {
          "internalType": "address",
          "name": "",
          "type": "address"
        }
      ],
      "name": "tokenDenominatedBinaryOptionsAddresses",
      "outputs": [
        {
          "internalType": "address",
          "name": "",
          "type": "address"
        }
      ],
      "stateMutability": "view",
      "type": "function",
      "constant": true
    },
    {
      "inputs": [
        {
          "internalType": "address",
          "name": "token_",
          "type": "address"
        }
      ],
      "name": "getTokenDenominatedBinaryOptionsAddress",
      "outputs": [
        {
          "internalType": "address",
          "name": "",
          "type": "address"
        }
      ],
      "stateMutability": "nonpayable",
      "type": "function"
    },
    {
      "inputs": [
        {
          "internalType": "address payable",
          "name": "newDAO_",
          "type": "address"
        }
      ],
      "name": "transferOwner",
      "outputs": [],
      "stateMutability": "nonpayable",
      "type": "function"
    },
    {
      "inputs": [
        {
          "internalType": "address",
          "name": "token_",
          "type": "address"
        },
        {
          "internalType": "address payable",
          "name": "treasury_",
          "type": "address"
        },
        {
          "internalType": "address",
          "name": "app_",
          "type": "address"
        }
      ],
      "name": "createTokenDenominatedBinaryOptions",
      "outputs": [],
      "stateMutability": "nonpayable",
      "type": "function"
    },
    {
      "inputs": [
        {
          "internalType": "address",
          "name": "tokenAddress_",
          "type": "address"
        }
      ],
      "name": "removePool",
      "outputs": [],
      "stateMutability": "nonpayable",
      "type": "function"
    }
  ],
  "bytecode": "0x608060405234801561001057600080fd5b50600180546001600160a01b031916331790556138f2806100326000396000f3fe608060405234801561001057600080fd5b50600436106100625760003560e01c806314f1d87f146100675780633b7d0946146100a95780634fb2e45d146100d15780638da5cb5b146100f75780638e4db2e4146100ff578063dbaa412014610125575b600080fd5b61008d6004803603602081101561007d57600080fd5b50356001600160a01b031661015d565b604080516001600160a01b039092168252519081900360200190f35b6100cf600480360360208110156100bf57600080fd5b50356001600160a01b031661017b565b005b6100cf600480360360208110156100e757600080fd5b50356001600160a01b0316610201565b61008d610282565b61008d6004803603602081101561011557600080fd5b50356001600160a01b0316610291565b6100cf6004803603606081101561013b57600080fd5b506001600160a01b0381358116916020810135821691604090910135166102ac565b6001600160a01b039081166000908152602081905260409020541690565b6001546001600160a01b031633146101da576040805162461bcd60e51b815260206004820181905260248201527f4f776e61626c653a2063616c6c6572206973206e6f7420746865206f776e6572604482015290519081900360640190fd5b6001600160a01b0316600090815260208190526040902080546001600160a01b0319169055565b6001546001600160a01b03163314610260576040805162461bcd60e51b815260206004820181905260248201527f4f776e61626c653a2063616c6c6572206973206e6f7420746865206f776e6572604482015290519081900360640190fd5b600180546001600160a01b0319166001600160a01b0392909216919091179055565b6001546001600160a01b031681565b6000602081905290815260409020546001600160a01b031681565b604080516402837b7b6160dd1b602080830191909152640100000000600160c01b039086901b166306fdde038117831b60258301528251601d818403018152603d83018452600760fc1b605d8401526395d89b41909117831b605e8301528251605681840301815260769092019283905260015486936000939185916001600160a01b03919091169087908990610342906104c2565b6001600160a01b03808616604083015284811660608301528381166080830152821660a082015260c08082528751908201528651819060208083019160e08401918b019080838360005b838110156103a457818101518382015260200161038c565b50505050905090810190601f1680156103d15780820380516001836020036101000a031916815260200191505b5083810382528851815288516020918201918a019080838360005b838110156104045781810151838201526020016103ec565b50505050905090810190601f1680156104315780820380516001836020036101000a031916815260200191505b5098505050505050505050604051809103906000f080158015610458573d6000803e3d6000fd5b506001600160a01b038381166000908152602081815260409182902080546001600160a01b0319169385169384179055815192835290519293507fba232c31586cf3adcfd91101e9b93943472829e3025542210c7e02d5f710230f92918290030190a15050505050565b6133ed806104d08339019056fe608060405260006009819055600a556005600e556064600f55621275006010556011805460ff19166001179055670de0b6b3a76400006014553480156200004557600080fd5b50604051620033ed380380620033ed833981810160405260c08110156200006b57600080fd5b81019080805160405193929190846401000000008211156200008c57600080fd5b908301906020820185811115620000a257600080fd5b8251640100000000811182820188101715620000bd57600080fd5b82525081516020918201929091019080838360005b83811015620000ec578181015183820152602001620000d2565b50505050905090810190601f1680156200011a5780820380516001836020036101000a031916815260200191505b50604052602001805160405193929190846401000000008211156200013e57600080fd5b9083019060208201858111156200015457600080fd5b82516401000000008111828201881017156200016f57600080fd5b82525081516020918201929091019080838360005b838110156200019e57818101518382015260200162000184565b50505050905090810190601f168015620001cc5780820380516001836020036101000a031916815260200191505b506040908152602082810151918301516060840151608090940151885193965090945091879187916200020691600391908501906200029f565b5080516200021c9060049060208401906200029f565b505060058054601380546001600160a01b03199081166001600160a01b03998a161790915560068054821697891697909717909655600780549096169487169490941790945550601260ff1990921691909117610100600160a81b031916610100919093160291909117905550506001600b819055600c556000600d5562000344565b828054600181600116156101000203166002900490600052602060002090601f016020900481019282601f10620002e257805160ff191683800117855562000312565b8280016001018555821562000312579182015b8281111562000312578251825591602001919060010190620002f5565b506200032092915062000324565b5090565b6200034191905b808211156200032057600081556001016200032b565b90565b61309980620003546000396000f3fe608060405234801561001057600080fd5b506004361061025e5760003560e01c806370a0823111610146578063a457c2d7116100c3578063bac2e6db11610087578063bac2e6db14610716578063c89723911461071e578063c97d4b2b14610726578063dbdf8dfb14610743578063dd62ed3e14610760578063fcfff16f1461078e5761025e565b8063a457c2d714610691578063a694fc3a146106bd578063a9059cbb146106da578063b0e21e8a14610706578063b76564bd1461070e5761025e565b806395d89b411161010a57806395d89b411461063f57806396cff52514610647578063971d852f1461064f57806398cfe5871461066c5780639f19904c146106745761025e565b806370a082311461059f5780637f51bb1f146105c5578063880cdc31146105eb5780638a300e68146106115780638da5cb5b146106375761025e565b806339509351116101df5780635009a613116101a35780635009a6131461050c578063602d86081461052957806361d027b31461053157806363691eaa146105555780636ab28bc81461055d5780636ab7d6d0146105655761025e565b806339509351146104265780633f003b7914610452578063409e22051461046f5780634256dd78146104e75780634e9e3252146105045761025e565b806318160ddd1161022657806318160ddd146103a557806323b872dd146103ad5780632e1a7d4d146103e35780632f67e35914610400578063313ce567146104085761025e565b806306fdde031461026357806307e665df146102e0578063095ea7b31461030857806316c608481461034857806318126dce1461038b575b600080fd5b61026b610796565b6040805160208082528351818301528351919283929083019185019080838360005b838110156102a557818101518382015260200161028d565b50505050905090810190601f1680156102d25780820380516001836020036101000a031916815260200191505b509250505060405180910390f35b610306600480360360208110156102f657600080fd5b50356001600160a01b031661082d565b005b6103346004803603604081101561031e57600080fd5b506001600160a01b03813516906020013561089c565b604080519115158252519081900360200190f35b6103066004803603608081101561035e57600080fd5b5080351515906001600160a01b03602082013516906001600160501b0360408201351690606001356108ba565b610393610d5c565b60408051918252519081900360200190f35b610393610d62565b610334600480360360608110156103c357600080fd5b506001600160a01b03813581169160208101359091169060400135610d68565b610306600480360360208110156103f957600080fd5b5035610df5565b6103936111bc565b6104106111c2565b6040805160ff9092168252519081900360200190f35b6103346004803603604081101561043c57600080fd5b506001600160a01b0381351690602001356111cb565b6103066004803603602081101561046857600080fd5b503561121f565b61048c6004803603602081101561048557600080fd5b5035611271565b604080516001600160a01b03998a16815260208101989098526001600160501b039687168882015260608801959095526080870193909352931660a085015291151560c0840152921660e08201529051908190036101000190f35b610306600480360360208110156104fd57600080fd5b50356112e2565b610393611380565b6103066004803603602081101561052257600080fd5b5035611386565b61039361142f565b610539611435565b604080516001600160a01b039092168252519081900360200190f35b610393611449565b61039361144f565b6103936004803603608081101561057b57600080fd5b506001600160a01b0381351690602081013590604081013590606001351515611455565b610393600480360360208110156105b557600080fd5b50356001600160a01b03166116da565b610306600480360360208110156105db57600080fd5b50356001600160a01b03166116f9565b6103066004803603602081101561060157600080fd5b50356001600160a01b031661176e565b6103936004803603602081101561062757600080fd5b50356001600160a01b03166117dd565b6105396117ef565b61026b6117fe565b61053961185f565b6103346004803603602081101561066557600080fd5b503561186e565b610306611a91565b6103066004803603602081101561068a57600080fd5b5035611af2565b610334600480360360408110156106a757600080fd5b506001600160a01b038135169060200135611b91565b610306600480360360208110156106d357600080fd5b5035611bff565b610334600480360360408110156106f057600080fd5b506001600160a01b038135169060200135611d4b565b610393611d5f565b610539611d65565b610393611d74565b610393611e24565b6103066004803603602081101561073c57600080fd5b5035611e2a565b6103066004803603602081101561075957600080fd5b5035611e7c565b6103936004803603604081101561077657600080fd5b506001600160a01b0381358116916020013516611ece565b610334611ef9565b60038054604080516020601f60026000196101006001881615020190951694909404938401819004810282018101909252828152606093909290918301828280156108225780601f106107f757610100808354040283529160200191610822565b820191906000526020600020905b81548152906001019060200180831161080557829003601f168201915b505050505090505b90565b6006546001600160a01b0316331461087a576040805162461bcd60e51b81526020600482018190526024820152600080516020612fb5833981519152604482015290519081900360640190fd5b600780546001600160a01b0319166001600160a01b0392909216919091179055565b60006108b06108a9611f02565b8484611f06565b5060015b92915050565b600b54826001600160501b0316101580156108e05750600c54826001600160501b031611155b610920576040805162461bcd60e51b815260206004820152600c60248201526b496e76616c69642074696d6560a01b604482015290519081900360640190fd5b61092983611ff2565b610973576040805162461bcd60e51b815260206004820152601660248201527524b73b30b634b210383934b1b290383937bb34b232b960511b604482015290519081900360640190fd5b61097b611d74565b8111156109c5576040805162461bcd60e51b81526020600482015260136024820152726f7074696f6e2073697a6520746f6f2062696760681b604482015290519081900360640190fd5b601354604080516323b872dd60e01b81523360048201523060248201526044810184905290516001600160a01b039092169182916323b872dd9160648083019260209291908290030181600087803b158015610a2057600080fd5b505af1158015610a34573d6000803e3d6000fd5b505050506040513d6020811015610a4a57600080fd5b505060408051633fabe5a360e21b81529051859160009182916001600160a01b0385169163feaf968c9160048082019260a092909190829003018186803b158015610a9457600080fd5b505afa158015610aa8573d6000803e3d6000fd5b505050506040513d60a0811015610abe57600080fd5b50805160209091015160125491935091506000610ae689886001600160501b038b168d611455565b9050610af181612082565b610af9612e45565b604051806101000160405280336001600160a01b03168152602001858152602001866001600160501b031681526020018981526020018381526020018a6001600160501b031681526020018c151581526020018b6001600160a01b031681525090508a15610b7c57600954610b74908363ffffffff61209b16565b600955610b93565b600a54610b8f908363ffffffff61209b16565b600a555b601281908060018154018082558091505060019003906000526020600020906006020160009091909190915060008201518160000160006101000a8154816001600160a01b0302191690836001600160a01b031602179055506020820151816001015560408201518160020160006101000a8154816001600160501b0302191690836001600160501b03160217905550606082015181600301556080820151816004015560a08201518160050160006101000a8154816001600160501b0302191690836001600160501b0316021790555060c082015181600501600a6101000a81548160ff02191690831515021790555060e082015181600501600b6101000a8154816001600160a01b0302191690836001600160a01b031602179055505050827fcd8984b7ffc01146a9ba9096d805b0bec246d7f8e52837a7b5f404464f6b229b3386858f8a8f8c0160405180876001600160a01b03166001600160a01b0316815260200186815260200185815260200184151515158152602001836001600160501b03166001600160501b03168152602001826001600160501b03166001600160501b03168152602001965050505050505060405180910390a25050505050505050505050565b600c5481565b60025490565b6000610d758484846120fc565b610deb84610d81611f02565b610de685604051806060016040528060288152602001612f8d602891396001600160a01b038a16600090815260016020526040812090610dbf611f02565b6001600160a01b03168152602081019190915260400160002054919063ffffffff61226316565b611f06565b5060019392505050565b80610dff336116da565b1015610e52576040805162461bcd60e51b815260206004820152601960248201527f496e737566666963656e742053686172652042616c616e636500000000000000604482015290519081900360640190fd5b601354600d546001600160a01b0390911690600090610f1390610e8390610e77610d62565b9063ffffffff6122fa16565b604080516370a0823160e01b81523060048201529051610f07916001600160a01b038716916370a0823191602480820192602092909190829003018186803b158015610ece57600080fd5b505afa158015610ee2573d6000803e3d6000fd5b505050506040513d6020811015610ef857600080fd5b5051869063ffffffff61233c16565b9063ffffffff61239516565b9050610f1f33846123d7565b3360009081526008602052604090205442116110f9576000610f4882606463ffffffff61239516565b6005546040805163a9059cbb60e01b81526101009092046001600160a01b03908116600484015260248301849052905192935085169163a9059cbb916044808201926020929091908290030181600087803b158015610fa657600080fd5b505af1158015610fba573d6000803e3d6000fd5b505050506040513d6020811015610fd057600080fd5b5051611015576040805162461bcd60e51b815260206004820152600f60248201526e1d1c985b9cd9995c8819985a5b1959608a1b604482015290519081900360640190fd5b6001600160a01b03831663a9059cbb33611035858563ffffffff6122fa16565b6040518363ffffffff1660e01b815260040180836001600160a01b03166001600160a01b0316815260200182815260200192505050602060405180830381600087803b15801561108457600080fd5b505af1158015611098573d6000803e3d6000fd5b505050506040513d60208110156110ae57600080fd5b50516110f3576040805162461bcd60e51b815260206004820152600f60248201526e1d1c985b9cd9995c8819985a5b1959608a1b604482015290519081900360640190fd5b506111b7565b6040805163a9059cbb60e01b81523360048201526024810183905290516001600160a01b0384169163a9059cbb9160448083019260209291908290030181600087803b15801561114857600080fd5b505af115801561115c573d6000803e3d6000fd5b505050506040513d602081101561117257600080fd5b50516111b7576040805162461bcd60e51b815260206004820152600f60248201526e1d1c985b9cd9995c8819985a5b1959608a1b604482015290519081900360640190fd5b505050565b600a5481565b60055460ff1690565b60006108b06111d8611f02565b84610de685600160006111e9611f02565b6001600160a01b03908116825260208083019390935260409182016000908120918c16815292529020549063ffffffff61209b16565b6006546001600160a01b0316331461126c576040805162461bcd60e51b81526020600482018190526024820152600080516020612fb5833981519152604482015290519081900360640190fd5b601455565b6012818154811061127e57fe5b60009182526020909120600690910201805460018201546002830154600384015460048501546005909501546001600160a01b03948516965092946001600160501b03928316949193909281169160ff600160501b83041691600160581b90041688565b6006546001600160a01b0316331461132f576040805162461bcd60e51b81526020600482018190526024820152600080516020612fb5833981519152604482015290519081900360640190fd5b80158061133c5750603281115b61137b576040805162461bcd60e51b815260206004820152600b60248201526a696e76616c69642066656560a81b604482015290519081900360640190fd5b600f55565b600e5481565b6006546001600160a01b031633146113d3576040805162461bcd60e51b81526020600482018190526024820152600080516020612fb5833981519152604482015290519081900360640190fd5b62127500811061142a576040805162461bcd60e51b815260206004820152601860248201527f696e76616c696420706f6f6c206c6f636b20706572696f640000000000000000604482015290519081900360640190fd5b601055565b60105481565b60055461010090046001600160a01b031681565b60095481565b600d5481565b6007546040805163b7a9eaa960e01b81526001600160a01b03878116600483015291516000939290921691829163b7a9eaa9916024808301926020929190829003018186803b1580156114a757600080fd5b505afa1580156114bb573d6000803e3d6000fd5b505050506040513d60208110156114d157600080fd5b50516001600160a01b0316611524576040805162461bcd60e51b815260206004820152601460248201527334b73b30b634b2103a3930b234b733903830b4b960611b604482015290519081900360640190fd5b6000816001600160a01b031663b7a9eaa9886040518263ffffffff1660e01b815260040180826001600160a01b03166001600160a01b0316815260200191505060206040518083038186803b15801561157c57600080fd5b505afa158015611590573d6000803e3d6000fd5b505050506040513d60208110156115a657600080fd5b5051601354600d54600954600a54604080516370a0823160e01b815230600482015290519596506001600160a01b039485169594871694634682fdce948d9490938d938d938a916370a08231916024808301926020929190829003018186803b15801561161257600080fd5b505afa158015611626573d6000803e3d6000fd5b505050506040513d602081101561163c57600080fd5b5051604080516001600160e01b031960e08b901b1681526004810198909852602488019690965260448701949094529115156064860152608485015260a484015260c48301525160e4808301926020929190829003018186803b1580156116a257600080fd5b505afa1580156116b6573d6000803e3d6000fd5b505050506040513d60208110156116cc57600080fd5b505198975050505050505050565b6001600160a01b0381166000908152602081905260409020545b919050565b6006546001600160a01b03163314611746576040805162461bcd60e51b81526020600482018190526024820152600080516020612fb5833981519152604482015290519081900360640190fd5b600580546001600160a01b0390921661010002610100600160a81b0319909216919091179055565b6006546001600160a01b031633146117bb576040805162461bcd60e51b81526020600482018190526024820152600080516020612fb5833981519152604482015290519081900360640190fd5b600680546001600160a01b0319166001600160a01b0392909216919091179055565b60086020526000908152604090205481565b6006546001600160a01b031681565b60048054604080516020601f60026000196101006001881615020190951694909404938401819004810282018101909252828152606093909290918301828280156108225780601f106107f757610100808354040283529160200191610822565b6013546001600160a01b031681565b6000611878612e45565b6012838154811061188557fe5b600091825260208083206040805161010081018252600690940290910180546001600160a01b03908116855260018201549385019390935260028101546001600160501b0390811685840181905260038301546060870152600480840154608088015260059093015480831660a080890182905260ff600160501b840416151560c08a0152600160581b90920490961660e088018190528551639a6fc8f560e01b815296909201909216928501929092529151939550939283928592639a6fc8f592602480840193829003018186803b15801561196157600080fd5b505afa158015611975573d6000803e3d6000fd5b505050506040513d60a081101561198b57600080fd5b508051602090910151909250905080158015906119b057506001600160501b03821615155b6119f1576040805162461bcd60e51b815260206004820152600d60248201526c1b9bdd081c9958591e481e595d609a1b604482015290519081900360640190fd5b8360c0015115611a3f578084602001511315611a1657611a1184876124df565b611a20565b611a208487612733565b6080840151600954611a379163ffffffff6122fa16565b600955611a88565b8360200151811315611a5a57611a5584876124df565b611a64565b611a648487612733565b600a54611a77908063ffffffff6122fa16565b600a5550505060c0015190506116f4565b50505050919050565b6006546001600160a01b03163314611ade576040805162461bcd60e51b81526020600482018190526024820152600080516020612fb5833981519152604482015290519081900360640190fd5b6011805460ff19811660ff90911615179055565b6006546001600160a01b03163314611b3f576040805162461bcd60e51b81526020600482018190526024820152600080516020612fb5833981519152604482015290519081900360640190fd5b600181118015611b4f5750606481105b611b8e576040805162461bcd60e51b815260206004820152600b60248201526a696e76616c69642066656560a81b604482015290519081900360640190fd5b50565b60006108b0611b9e611f02565b84610de68560405180606001604052806025815260200161303f6025913960016000611bc8611f02565b6001600160a01b03908116825260208083019390935260409182016000908120918d1681529252902054919063ffffffff61226316565b60115460ff161515600114611c5b576040805162461bcd60e51b815260206004820152601860248201527f706f6f6c206465706f736974732068617320636c6f7365640000000000000000604482015290519081900360640190fd5b601354604080516323b872dd60e01b81523360048201523060248201526044810184905290516001600160a01b039092169182916323b872dd9160648083019260209291908290030181600087803b158015611cb657600080fd5b505af1158015611cca573d6000803e3d6000fd5b505050506040513d6020811015611ce057600080fd5b5051611d24576040805162461bcd60e51b815260206004820152600e60248201526d19195c1bdcda5d0819985a5b195960921b604482015290519081900360640190fd5b60105433600081815260086020526040902042909201909155611d4790836128b3565b5050565b60006108b0611d58611f02565b84846120fc565b600f5481565b6007546001600160a01b031681565b601354604080516370a0823160e01b815230600482015290516000926001600160a01b031691839183916370a08231916024808301926020929190829003018186803b158015611dc357600080fd5b505afa158015611dd7573d6000803e3d6000fd5b505050506040513d6020811015611ded57600080fd5b5051600d54909150811115611e1957600d54611e1090829063ffffffff6122fa16565b9250505061082a565b60009250505061082a565b600b5481565b6006546001600160a01b03163314611e77576040805162461bcd60e51b81526020600482018190526024820152600080516020612fb5833981519152604482015290519081900360640190fd5b600b55565b6006546001600160a01b03163314611ec9576040805162461bcd60e51b81526020600482018190526024820152600080516020612fb5833981519152604482015290519081900360640190fd5b600c55565b6001600160a01b03918216600090815260016020908152604080832093909416825291909152205490565b60115460ff1681565b3390565b6001600160a01b038316611f4b5760405162461bcd60e51b815260040180806020018281038252602481526020018061301b6024913960400191505060405180910390fd5b6001600160a01b038216611f905760405162461bcd60e51b8152600401808060200182810382526022815260200180612ecf6022913960400191505060405180910390fd5b6001600160a01b03808416600081815260016020908152604080832094871680845294825291829020859055815185815291517f8c5be1e5ebec7d5bd14f71427d1e84f3dd0314c0f7b2291e5b200ac8c7c3b9259281900390910190a3505050565b6007546040805163b7a9eaa960e01b81526001600160a01b03848116600483015291516000939290921691829163b7a9eaa9916024808301926020929190829003018186803b15801561204457600080fd5b505afa158015612058573d6000803e3d6000fd5b505050506040513d602081101561206e57600080fd5b50516001600160a01b031615159392505050565b600d54612095908263ffffffff61209b16565b600d5550565b6000828201838110156120f5576040805162461bcd60e51b815260206004820152601b60248201527f536166654d6174683a206164646974696f6e206f766572666c6f770000000000604482015290519081900360640190fd5b9392505050565b6001600160a01b0383166121415760405162461bcd60e51b8152600401808060200182810382526025815260200180612ff66025913960400191505060405180910390fd5b6001600160a01b0382166121865760405162461bcd60e51b8152600401808060200182810382526023815260200180612e8a6023913960400191505060405180910390fd5b6121918383836111b7565b6121d481604051806060016040528060268152602001612ef1602691396001600160a01b038616600090815260208190526040902054919063ffffffff61226316565b6001600160a01b038085166000908152602081905260408082209390935590841681522054612209908263ffffffff61209b16565b6001600160a01b038084166000818152602081815260409182902094909455805185815290519193928716927fddf252ad1be2c89b69c2b068fc378daa952ba7f163c4a11628f55a4df523b3ef92918290030190a3505050565b600081848411156122f25760405162461bcd60e51b81526004018080602001828103825283818151815260200191508051906020019080838360005b838110156122b757818101518382015260200161229f565b50505050905090810190601f1680156122e45780820380516001836020036101000a031916815260200191505b509250505060405180910390fd5b505050900390565b60006120f583836040518060400160405280601e81526020017f536166654d6174683a207375627472616374696f6e206f766572666c6f770000815250612263565b60008261234b575060006108b4565b8282028284828161235857fe5b04146120f55760405162461bcd60e51b8152600401808060200182810382526021815260200180612f6c6021913960400191505060405180910390fd5b60006120f583836040518060400160405280601a81526020017f536166654d6174683a206469766973696f6e206279207a65726f0000000000008152506129af565b6001600160a01b03821661241c5760405162461bcd60e51b8152600401808060200182810382526021815260200180612fd56021913960400191505060405180910390fd5b612428826000836111b7565b61246b81604051806060016040528060228152602001612ead602291396001600160a01b038516600090815260208190526040902054919063ffffffff61226316565b6001600160a01b038316600090815260208190526040902055600254612497908263ffffffff6122fa16565b6002556040805182815290516000916001600160a01b038516917fddf252ad1be2c89b69c2b068fc378daa952ba7f163c4a11628f55a4df523b3ef9181900360200190a35050565b600d54826080015111156125245760405162461bcd60e51b8152600401808060200182810382526029815260200180612f436029913960400191505060405180910390fd5b601354604080516370a0823160e01b815230600482015290516001600160a01b039092169182916370a08231916024808301926020929190829003018186803b15801561257057600080fd5b505afa158015612584573d6000803e3d6000fd5b505050506040513d602081101561259a57600080fd5b5051608084015111156125f4576040805162461bcd60e51b815260206004820152601b60248201527f696e737566666963656e742062616c616e636520696e20706f6f6c0000000000604482015290519081900360640190fd5b60006126146064610f07600e54876080015161239590919063ffffffff16565b905080156126e8576040805163a9059cbb60e01b81523360048201526024810183905290516001600160a01b0384169163a9059cbb9160448083019260209291908290030181600087803b15801561266b57600080fd5b505af115801561267f573d6000803e3d6000fd5b505050506040513d602081101561269557600080fd5b50516126e8576040805162461bcd60e51b815260206004820152601e60248201527f676f6f642073616d61726974616e207472616e73666572206661696c65640000604482015290519081900360640190fd5b6080840151600d546126ff9163ffffffff6122fa16565b600d5560405183907fa33fd53ba34795ffefaea3759c71f87d38b89ae12e40bc434c826fae0ca5358390600090a250505050565b6080820151600f548111801561274b57506000600f54115b1561285a576000612767600f548361239590919063ffffffff16565b6013546005546040805163a9059cbb60e01b81526001600160a01b0361010090930483166004820152602481018590529051939450911691829163a9059cbb9160448083019260209291908290030181600087803b1580156127c857600080fd5b505af11580156127dc573d6000803e3d6000fd5b505050506040513d60208110156127f257600080fd5b5051612845576040805162461bcd60e51b815260206004820152601c60248201527f70726f746f636f6c20666565207472616e73666572206661696c656400000000604482015290519081900360640190fd5b612855838363ffffffff6122fa16565b925050505b61286981338560000151612a14565b6080830151600d546128809163ffffffff6122fa16565b600d5560405182907fa2a53c7cb82eeb7994ccbbab71bea210cd63cfeb7823972fb5b6a49c3b0e1d4c90600090a2505050565b6001600160a01b03821661290e576040805162461bcd60e51b815260206004820152601f60248201527f45524332303a206d696e7420746f20746865207a65726f206164647265737300604482015290519081900360640190fd5b61291a600083836111b7565b60025461292d908263ffffffff61209b16565b6002556001600160a01b038216600090815260208190526040902054612959908263ffffffff61209b16565b6001600160a01b0383166000818152602081815260408083209490945583518581529351929391927fddf252ad1be2c89b69c2b068fc378daa952ba7f163c4a11628f55a4df523b3ef9281900390910190a35050565b600081836129fe5760405162461bcd60e51b81526020600482018181528351602484015283519092839260449091019190850190808383600083156122b757818101518382015260200161229f565b506000838581612a0a57fe5b0495945050505050565b600d54831115612a555760405162461bcd60e51b815260040180806020018281038252602c815260200180612f17602c913960400191505060405180910390fd5b601354604080516370a0823160e01b815230600482015290516001600160a01b039092169182916370a08231916024808301926020929190829003018186803b158015612aa157600080fd5b505afa158015612ab5573d6000803e3d6000fd5b505050506040513d6020811015612acb57600080fd5b5051841115612b21576040805162461bcd60e51b815260206004820152601b60248201527f696e737566666963656e742062616c616e636520696e20706f6f6c0000000000604482015290519081900360640190fd5b816001600160a01b0316836001600160a01b031614612d26576000612b566064610f07600e548861239590919063ffffffff16565b90508015612d2057816001600160a01b031663a9059cbb85836040518363ffffffff1660e01b815260040180836001600160a01b03166001600160a01b0316815260200182815260200192505050602060405180830381600087803b158015612bbe57600080fd5b505af1158015612bd2573d6000803e3d6000fd5b505050506040513d6020811015612be857600080fd5b5051612c3b576040805162461bcd60e51b815260206004820152601960248201527f657865726369736572207472616e73666572206661696c656400000000000000604482015290519081900360640190fd5b6001600160a01b03821663a9059cbb84612c5b888563ffffffff6122fa16565b6040518363ffffffff1660e01b815260040180836001600160a01b03166001600160a01b0316815260200182815260200192505050602060405180830381600087803b158015612caa57600080fd5b505af1158015612cbe573d6000803e3d6000fd5b505050506040513d6020811015612cd457600080fd5b5051612d20576040805162461bcd60e51b81526020600482015260166024820152751dda5b9b995c881d1c985b9cd9995c8819985a5b195960521b604482015290519081900360640190fd5b50612dfc565b806001600160a01b031663a9059cbb83866040518363ffffffff1660e01b815260040180836001600160a01b03166001600160a01b0316815260200182815260200192505050602060405180830381600087803b158015612d8657600080fd5b505af1158015612d9a573d6000803e3d6000fd5b505050506040513d6020811015612db057600080fd5b5051612dfc576040805162461bcd60e51b81526020600482015260166024820152751dda5b9b995c881d1c985b9cd9995c8819985a5b195960521b604482015290519081900360640190fd5b604080518581526001600160a01b038416602082015281517f9b5d1a613fa5f0790b36b13103706e31fca06b229d87e9915b29fc20c1d76490929181900390910190a150505050565b6040805161010081018252600080825260208201819052918101829052606081018290526080810182905260a0810182905260c0810182905260e08101919091529056fe45524332303a207472616e7366657220746f20746865207a65726f206164647265737345524332303a206275726e20616d6f756e7420657863656564732062616c616e636545524332303a20617070726f766520746f20746865207a65726f206164647265737345524332303a207472616e7366657220616d6f756e7420657863656564732062616c616e6365696e737566666963656e7420706f6f6c2062616c616e636520617661696c61626c6520746f207061796f7574696e737566666963656e74206c6f636b656420706f6f6c2062616c616e636520746f20756e6c6f636b536166654d6174683a206d756c7469706c69636174696f6e206f766572666c6f7745524332303a207472616e7366657220616d6f756e74206578636565647320616c6c6f77616e63654f776e61626c653a2063616c6c6572206973206e6f7420746865206f776e657245524332303a206275726e2066726f6d20746865207a65726f206164647265737345524332303a207472616e736665722066726f6d20746865207a65726f206164647265737345524332303a20617070726f76652066726f6d20746865207a65726f206164647265737345524332303a2064656372656173656420616c6c6f77616e63652062656c6f77207a65726fa2646970667358221220d667f200a5b5ce4f09dafe192e2024afb423c2aa9f1610262b12148f6f6676f064736f6c63430006060033a26469706673582212201ad8fb952397077cc5f5d4b09329435011bf1dfde7896510be35eb5543c2381164736f6c63430006060033",
  "immutableReferences": {},
  "source": "\nimport \"@openzeppelin/contracts/token/ERC20/ERC20.sol\";\n\nimport \"./TokenDenominatedBinaryOptions.sol\";\n\ncontract TokenDenominatedBinaryOptionsFactory {\n    mapping(address => address) public tokenDenominatedBinaryOptionsAddresses;//erc20 token address mapped to ebop20 pool address\n    event TokenDenominatedBinaryOptionsCreated(TokenDenominatedBinaryOptions tokenDelegatedBinaryOptions);\n\n    address payable public owner;\n\n    constructor() public {\n        owner = msg.sender ;\n    }\n\n    function getTokenDenominatedBinaryOptionsAddress(address token_) public returns(address) {\n        return tokenDenominatedBinaryOptionsAddresses[token_];\n    }\n\n    /**\n    * @dev set the new address to control this contract\n    * @param newDAO_ the new owner's address\n    */\n    function transferOwner(address payable newDAO_) public onlyOwner {\n        owner = newDAO_;\n    }\n\n    modifier onlyOwner() {\n        require(owner == msg.sender, \"Ownable: caller is not the owner\");\n        _;\n    }\n\n    /**\n    * @dev create a new TokenDenominatedBinaryOptions contract\n    * @param token_ the token which will be used as the underlying asset\n    */\n    function createTokenDenominatedBinaryOptions(address token_, address payable treasury_, address app_) external {\n        ERC20 token = ERC20(token_);\n        TokenDenominatedBinaryOptions newPool = new TokenDenominatedBinaryOptions(string(abi.encodePacked(\"Pool \", token.name)),  string(abi.encodePacked(\"p\", token.symbol)), token_, owner, app_, treasury_);\n        tokenDenominatedBinaryOptionsAddresses[address(token)] = address(newPool);\n        emit TokenDenominatedBinaryOptionsCreated(newPool);\n    }\n\n    /**\n    * @dev remove a tokenDenominatedBinaryOptions contract\n    * @param tokenAddress_ the underlying asset of the pool to delist\n    */\n    function removePool(address tokenAddress_) external onlyOwner {\n        tokenDenominatedBinaryOptionsAddresses[tokenAddress_] = 0x0000000000000000000000000000000000000000;\n    }\n}",
  "sourcePath": "/Users/x/Desktop/eth/BIOPv4/contracts/TokenDenominatedBinaryOptions/TokenDenominatedBinaryOptionsFactory.sol",
  "compiler": {
    "name": "solc",
    "version": "0.6.6+commit.6c089d02.Emscripten.clang"
  },
  "schemaVersion": "3.3.4",
  "updatedAt": "2021-06-05T16:25:03.431Z",
  "networkType": "ethereum",
  "devdoc": {
    "methods": {
      "createTokenDenominatedBinaryOptions(address,address,address)": {
        "details": "create a new TokenDenominatedBinaryOptions contract",
        "params": {
          "token_": "the token which will be used as the underlying asset"
        }
      },
      "removePool(address)": {
        "details": "remove a tokenDenominatedBinaryOptions contract",
        "params": {
          "tokenAddress_": "the underlying asset of the pool to delist"
        }
      },
      "transferOwner(address)": {
        "details": "set the new address to control this contract",
        "params": {
          "newDAO_": "the new owner's address"
        }
      }
    }
  },
  "userdoc": {
    "methods": {}
  }
}