{
  "contractName": "Treasury",
  "abi": [
    {
      "inputs": [],
      "stateMutability": "nonpayable",
      "type": "constructor"
    },
    {
      "anonymous": false,
      "inputs": [
        {
          "indexed": false,
          "internalType": "address",
          "name": "token",
          "type": "address"
        },
        {
          "indexed": false,
          "internalType": "uint256",
          "name": "amount",
          "type": "uint256"
        },
        {
          "indexed": false,
          "internalType": "address",
          "name": "destination",
          "type": "address"
        }
      ],
      "name": "ERC20FundsSent",
      "type": "event"
    },
    {
      "anonymous": false,
      "inputs": [
        {
          "indexed": false,
          "internalType": "uint256",
          "name": "amount",
          "type": "uint256"
        },
        {
          "indexed": false,
          "internalType": "address",
          "name": "destination",
          "type": "address"
        }
      ],
      "name": "FundsSent",
      "type": "event"
    },
    {
      "stateMutability": "payable",
      "type": "fallback"
    },
    {
      "inputs": [],
      "name": "dao",
      "outputs": [
        {
          "internalType": "address payable",
          "name": "",
          "type": "address"
        }
      ],
      "stateMutability": "view",
      "type": "function"
    },
    {
      "inputs": [],
      "name": "sP",
      "outputs": [
        {
          "internalType": "uint256",
          "name": "",
          "type": "uint256"
        }
      ],
      "stateMutability": "view",
      "type": "function"
    },
    {
      "inputs": [
        {
          "internalType": "address payable",
          "name": "dg",
          "type": "address"
        }
      ],
      "name": "updateDAO",
      "outputs": [],
      "stateMutability": "nonpayable",
      "type": "function"
    },
    {
      "inputs": [
        {
          "internalType": "uint256",
          "name": "sP_",
          "type": "uint256"
        }
      ],
      "name": "updateStakerPercent",
      "outputs": [],
      "stateMutability": "nonpayable",
      "type": "function"
    },
    {
      "inputs": [
        {
          "internalType": "uint256",
          "name": "amount",
          "type": "uint256"
        },
        {
          "internalType": "address payable",
          "name": "destination",
          "type": "address"
        }
      ],
      "name": "sendFunds",
      "outputs": [
        {
          "internalType": "uint256",
          "name": "",
          "type": "uint256"
        }
      ],
      "stateMutability": "nonpayable",
      "type": "function"
    },
    {
      "inputs": [
        {
          "internalType": "address",
          "name": "token",
          "type": "address"
        },
        {
          "internalType": "uint256",
          "name": "amount",
          "type": "uint256"
        },
        {
          "internalType": "address payable",
          "name": "destination",
          "type": "address"
        }
      ],
      "name": "sendERC20Funds",
      "outputs": [],
      "stateMutability": "nonpayable",
      "type": "function"
    }
  ],
  "bytecode": "0x6080604052600a60005534801561001557600080fd5b50600180546001600160a01b031916331790556108e1806100376000396000f3fe6080604052600436106100555760003560e01c8063173a9b44146100575780634162169f1461008157806348308402146100b257806348380570146100f5578063b26867741461011c578063bcb6c0b514610155575b005b34801561006357600080fd5b506100556004803603602081101561007a57600080fd5b5035610188565b34801561008d57600080fd5b506100966101da565b604080516001600160a01b039092168252519081900360200190f35b3480156100be57600080fd5b50610055600480360360608110156100d557600080fd5b506001600160a01b038135811691602081013591604090910135166101e9565b34801561010157600080fd5b5061010a6103d6565b60408051918252519081900360200190f35b34801561012857600080fd5b5061010a6004803603604081101561013f57600080fd5b50803590602001356001600160a01b03166103dc565b34801561016157600080fd5b506100556004803603602081101561017857600080fd5b50356001600160a01b03166105d2565b6001546001600160a01b031633146101d5576040805162461bcd60e51b815260206004820152601e602482015260008051602061086b833981519152604482015290519081900360640190fd5b600055565b6001546001600160a01b031681565b6001546001600160a01b03163314610236576040805162461bcd60e51b815260206004820152601e602482015260008051602061086b833981519152604482015290519081900360640190fd5b604080516370a0823160e01b8152306004820152905184916000916001600160a01b038416916370a08231916024808301926020929190829003018186803b15801561028157600080fd5b505afa158015610295573d6000803e3d6000fd5b505050506040513d60208110156102ab57600080fd5b50519050838110156102f9576040805162461bcd60e51b81526020600482015260126024820152711b9bdd08195b9bdd59da081d1bc81cd95b9960721b604482015290519081900360640190fd5b816001600160a01b031663a9059cbb84866040518363ffffffff1660e01b815260040180836001600160a01b03166001600160a01b0316815260200182815260200192505050602060405180830381600087803b15801561035957600080fd5b505af115801561036d573d6000803e3d6000fd5b505050506040513d602081101561038357600080fd5b5050604080516001600160a01b0380881682526020820187905285168183015290517fa288b389ef08a5a159ae42996a18ac4686fded370b164ea78abd3134dbe3b5879181900360600190a15050505050565b60005481565b6001546000906001600160a01b0316331461042c576040805162461bcd60e51b815260206004820152601e602482015260008051602061086b833981519152604482015290519081900360640190fd5b82471015610476576040805162461bcd60e51b81526020600482015260126024820152711b9bdd08195b9bdd59da081d1bc81cd95b9960721b604482015290519081900360640190fd5b600080541561051e576000546104a39061049786606463ffffffff61068a16565b9063ffffffff6106d316565b90506104b5848263ffffffff61072c16565b604051909450339082156108fc029083906000818181858888f1935050505061051e576040805162461bcd60e51b81526020600482015260166024820152751cdd185ad95c881d1c985b9cd9995c8819985a5b195960521b604482015290519081900360640190fd5b6040516001600160a01b0384169085156108fc029086906000818181858888f19350505050610586576040805162461bcd60e51b815260206004820152600f60248201526e1d1c985b9cd9995c8819985a5b1959608a1b604482015290519081900360640190fd5b604080518581526001600160a01b038516602082015281517f5313e4fdc1a55cdb803e59071159726ce5d6e7ac54340cf2078c2001b73d0c4f929181900390910190a190505b92915050565b6001546001600160a01b0316331461061f576040805162461bcd60e51b815260206004820152601e602482015260008051602061086b833981519152604482015290519081900360640190fd5b6001600160a01b038116610668576040805162461bcd60e51b815260206004820152600b60248201526a34b73b30b634b21033b7bb60a91b604482015290519081900360640190fd5b600180546001600160a01b0319166001600160a01b0392909216919091179055565b60006106cc83836040518060400160405280601a81526020017f536166654d6174683a206469766973696f6e206279207a65726f00000000000081525061076e565b9392505050565b6000826106e2575060006105cc565b828202828482816106ef57fe5b04146106cc5760405162461bcd60e51b815260040180806020018281038252602181526020018061088b6021913960400191505060405180910390fd5b60006106cc83836040518060400160405280601e81526020017f536166654d6174683a207375627472616374696f6e206f766572666c6f770000815250610810565b600081836107fa5760405162461bcd60e51b81526004018080602001828103825283818151815260200191508051906020019080838360005b838110156107bf5781810151838201526020016107a7565b50505050905090810190601f1680156107ec5780820380516001836020036101000a031916815260200191505b509250505060405180910390fd5b50600083858161080657fe5b0495945050505050565b600081848411156108625760405162461bcd60e51b81526020600482018181528351602484015283519092839260449091019190850190808383600083156107bf5781810151838201526020016107a7565b50505090039056fe4f776e61626c653a2063616c6c6572206973206e6f74207468652064616f0000536166654d6174683a206d756c7469706c69636174696f6e206f766572666c6f77a26469706673582212207714938e27c927f7870b5da8ef38f81b36d5cf97cec486f385b19e4642e95d9764736f6c63430006060033",
  "immutableReferences": {},
  "source": "pragma solidity 0.6.6;\n\nimport \"@openzeppelin/contracts/math/SafeMath.sol\";\nimport \"@openzeppelin/contracts/token/ERC20/ERC20.sol\";\n\ncontract Treasury {\n    using SafeMath for uint256;\n\n    //the amount of each ETH transaction from the treasury that is distributed\n    //directly and equally to all current DAO stakers\n    uint256 public sP = 10;//staker percentage //10%\n\n    //the dao variable could be any address.\n    //it should be the Settlement DAO address.\n    //this is so that the DAO can upgrade itself without losing its treasury.\n    address payable public dao;\n\n\n    constructor() public {\n     dao = msg.sender;\n    }\n\n    modifier onlyDAO() {\n        require(dao == msg.sender, \"Ownable: caller is not the dao\");\n        _;\n    }\n\n    function updateDAO(address payable dg) public onlyDAO {\n        require(dg != 0x0000000000000000000000000000000000000000, \"invalid gov\");\n        dao = dg;\n    }\n\n    function updateStakerPercent(uint256 sP_) public onlyDAO {\n        sP = sP_;\n    }\n\n    function sendFunds(uint256 amount, address payable destination) public onlyDAO returns(uint256){\n        require(address(this).balance >= amount, \"not enough to send\");\n        uint256 toStakers = 0;\n        if (sP > 0) {\n            toStakers = amount.div(100).mul(sP);\n            amount = amount.sub(toStakers);\n            require(msg.sender.send(toStakers), \"staker transfer failed\");\n        }\n        require(destination.send(amount), \"transfer failed\");\n\n        emit FundsSent(amount, destination);\n        return toStakers;\n    }\n\n    function sendERC20Funds(address token, uint256 amount, address payable destination) public onlyDAO {\n        ERC20 tk = ERC20(token);\n        uint256 balance = tk.balanceOf(address(this));\n        require(balance >= amount, \"not enough to send\");\n        tk.transfer(destination, amount);\n        emit ERC20FundsSent(token, amount, destination);\n    }\n\n\n    event FundsSent(uint256 amount, address destination);\n    event ERC20FundsSent(address token, uint256 amount, address destination);\n\n\n    fallback () external payable {}\n}\n",
  "sourcePath": "/Users/x/Desktop/eth/BIOPv4/contracts/Treasury.sol",
  "compiler": {
    "name": "solc",
    "version": "0.6.6+commit.6c089d02.Emscripten.clang"
  },
  "schemaVersion": "3.3.4",
  "updatedAt": "2021-06-14T19:21:29.656Z",
  "devdoc": {
    "methods": {}
  },
  "userdoc": {
    "methods": {}
  }
}