{
  "contractName": "Treasury",
  "abi": [
    {
      "inputs": [],
      "stateMutability": "nonpayable",
      "type": "constructor"
    },
    {
      "anonymous": false,
      "inputs": [
        {
          "indexed": false,
          "internalType": "address",
          "name": "token",
          "type": "address"
        },
        {
          "indexed": false,
          "internalType": "uint256",
          "name": "amount",
          "type": "uint256"
        },
        {
          "indexed": false,
          "internalType": "address",
          "name": "destination",
          "type": "address"
        }
      ],
      "name": "ERC20FundsSent",
      "type": "event"
    },
    {
      "anonymous": false,
      "inputs": [
        {
          "indexed": false,
          "internalType": "uint256",
          "name": "amount",
          "type": "uint256"
        },
        {
          "indexed": false,
          "internalType": "address",
          "name": "destination",
          "type": "address"
        }
      ],
      "name": "FundsSent",
      "type": "event"
    },
    {
      "stateMutability": "payable",
      "type": "fallback",
      "payable": true
    },
    {
      "inputs": [],
      "name": "dao",
      "outputs": [
        {
          "internalType": "address payable",
          "name": "",
          "type": "address"
        }
      ],
      "stateMutability": "view",
      "type": "function",
      "constant": true
    },
    {
      "inputs": [],
      "name": "sP",
      "outputs": [
        {
          "internalType": "uint256",
          "name": "",
          "type": "uint256"
        }
      ],
      "stateMutability": "view",
      "type": "function",
      "constant": true
    },
    {
      "inputs": [
        {
          "internalType": "address payable",
          "name": "dg",
          "type": "address"
        }
      ],
      "name": "updateDAO",
      "outputs": [],
      "stateMutability": "nonpayable",
      "type": "function"
    },
    {
      "inputs": [
        {
          "internalType": "uint256",
          "name": "sP_",
          "type": "uint256"
        }
      ],
      "name": "updateStakerPercent",
      "outputs": [],
      "stateMutability": "nonpayable",
      "type": "function"
    },
    {
      "inputs": [
        {
          "internalType": "uint256",
          "name": "amount",
          "type": "uint256"
        },
        {
          "internalType": "address payable",
          "name": "destination",
          "type": "address"
        }
      ],
      "name": "sendFunds",
      "outputs": [
        {
          "internalType": "uint256",
          "name": "",
          "type": "uint256"
        }
      ],
      "stateMutability": "nonpayable",
      "type": "function"
    },
    {
      "inputs": [
        {
          "internalType": "address",
          "name": "token",
          "type": "address"
        },
        {
          "internalType": "uint256",
          "name": "amount",
          "type": "uint256"
        },
        {
          "internalType": "address payable",
          "name": "destination",
          "type": "address"
        }
      ],
      "name": "sendERC20Funds",
      "outputs": [],
      "stateMutability": "nonpayable",
      "type": "function"
    }
  ],
  "bytecode": "0x6080604052600a60005534801561001557600080fd5b50600180546001600160a01b03191633179055610c0a806100376000396000f3fe6080604052600436106100555760003560e01c8063173a9b44146100575780634162169f1461008157806348308402146100b257806348380570146100f5578063b26867741461011c578063bcb6c0b514610155575b005b34801561006357600080fd5b506100556004803603602081101561007a57600080fd5b5035610188565b34801561008d57600080fd5b506100966101da565b604080516001600160a01b039092168252519081900360200190f35b3480156100be57600080fd5b50610055600480360360608110156100d557600080fd5b506001600160a01b038135811691602081013591604090910135166101e9565b34801561010157600080fd5b5061010a610364565b60408051918252519081900360200190f35b34801561012857600080fd5b5061010a6004803603604081101561013f57600080fd5b50803590602001356001600160a01b031661036a565b34801561016157600080fd5b506100556004803603602081101561017857600080fd5b50356001600160a01b03166104a5565b6001546001600160a01b031633146101d5576040805162461bcd60e51b815260206004820152601e6024820152600080516020610b0a833981519152604482015290519081900360640190fd5b600055565b6001546001600160a01b031681565b6001546001600160a01b03163314610236576040805162461bcd60e51b815260206004820152601e6024820152600080516020610b0a833981519152604482015290519081900360640190fd5b604080516370a0823160e01b8152306004820152905184916000916001600160a01b038416916370a08231916024808301926020929190829003018186803b15801561028157600080fd5b505afa158015610295573d6000803e3d6000fd5b505050506040513d60208110156102ab57600080fd5b50519050838110156102f9576040805162461bcd60e51b81526020600482015260126024820152711b9bdd08195b9bdd59da081d1bc81cd95b9960721b604482015290519081900360640190fd5b6103136001600160a01b038316848663ffffffff61055d16565b604080516001600160a01b0380881682526020820187905285168183015290517fa288b389ef08a5a159ae42996a18ac4686fded370b164ea78abd3134dbe3b5879181900360600190a15050505050565b60005481565b6001546000906001600160a01b031633146103ba576040805162461bcd60e51b815260206004820152601e6024820152600080516020610b0a833981519152604482015290519081900360640190fd5b82471015610404576040805162461bcd60e51b81526020600482015260126024820152711b9bdd08195b9bdd59da081d1bc81cd95b9960721b604482015290519081900360640190fd5b600080541561044f576000546104319061042586606463ffffffff6105b416565b9063ffffffff6105fd16565b9050610443848263ffffffff61065616565b935061044f3382610698565b6104598385610698565b604080518581526001600160a01b038516602082015281517f5313e4fdc1a55cdb803e59071159726ce5d6e7ac54340cf2078c2001b73d0c4f929181900390910190a190505b92915050565b6001546001600160a01b031633146104f2576040805162461bcd60e51b815260206004820152601e6024820152600080516020610b0a833981519152604482015290519081900360640190fd5b6001600160a01b03811661053b576040805162461bcd60e51b815260206004820152600b60248201526a34b73b30b634b21033b7bb60a91b604482015290519081900360640190fd5b600180546001600160a01b0319166001600160a01b0392909216919091179055565b604080516001600160a01b038416602482015260448082018490528251808303909101815260649091019091526020810180516001600160e01b031663a9059cbb60e01b1790526105af90849061077d565b505050565b60006105f683836040518060400160405280601a81526020017f536166654d6174683a206469766973696f6e206279207a65726f00000000000081525061082e565b9392505050565b60008261060c5750600061049f565b8282028284828161061957fe5b04146105f65760405162461bcd60e51b8152600401808060200182810382526021815260200180610b8a6021913960400191505060405180910390fd5b60006105f683836040518060400160405280601e81526020017f536166654d6174683a207375627472616374696f6e206f766572666c6f7700008152506108d0565b804710156106ed576040805162461bcd60e51b815260206004820152601d60248201527f416464726573733a20696e73756666696369656e742062616c616e6365000000604482015290519081900360640190fd5b6040516000906001600160a01b0384169083908381818185875af1925050503d8060008114610738576040519150601f19603f3d011682016040523d82523d6000602084013e61073d565b606091505b50509050806105af5760405162461bcd60e51b815260040180806020018281038252603a815260200180610b2a603a913960400191505060405180910390fd5b60606107d2826040518060400160405280602081526020017f5361666545524332303a206c6f772d6c6576656c2063616c6c206661696c6564815250856001600160a01b031661092a9092919063ffffffff16565b8051909150156105af578080602001905160208110156107f157600080fd5b50516105af5760405162461bcd60e51b815260040180806020018281038252602a815260200180610bab602a913960400191505060405180910390fd5b600081836108ba5760405162461bcd60e51b81526004018080602001828103825283818151815260200191508051906020019080838360005b8381101561087f578181015183820152602001610867565b50505050905090810190601f1680156108ac5780820380516001836020036101000a031916815260200191505b509250505060405180910390fd5b5060008385816108c657fe5b0495945050505050565b600081848411156109225760405162461bcd60e51b815260206004820181815283516024840152835190928392604490910191908501908083836000831561087f578181015183820152602001610867565b505050900390565b60606109398484600085610941565b949350505050565b6060824710156109825760405162461bcd60e51b8152600401808060200182810382526026815260200180610b646026913960400191505060405180910390fd5b61098b85610a9d565b6109dc576040805162461bcd60e51b815260206004820152601d60248201527f416464726573733a2063616c6c20746f206e6f6e2d636f6e7472616374000000604482015290519081900360640190fd5b60006060866001600160a01b031685876040518082805190602001908083835b60208310610a1b5780518252601f1990920191602091820191016109fc565b6001836020036101000a03801982511681845116808217855250505050505090500191505060006040518083038185875af1925050503d8060008114610a7d576040519150601f19603f3d011682016040523d82523d6000602084013e610a82565b606091505b5091509150610a92828286610aa3565b979650505050505050565b3b151590565b60608315610ab25750816105f6565b825115610ac25782518084602001fd5b60405162461bcd60e51b815260206004820181815284516024840152845185939192839260440191908501908083836000831561087f57818101518382015260200161086756fe4f776e61626c653a2063616c6c6572206973206e6f74207468652064616f0000416464726573733a20756e61626c6520746f2073656e642076616c75652c20726563697069656e74206d61792068617665207265766572746564416464726573733a20696e73756666696369656e742062616c616e636520666f722063616c6c536166654d6174683a206d756c7469706c69636174696f6e206f766572666c6f775361666545524332303a204552433230206f7065726174696f6e20646964206e6f742073756363656564a2646970667358221220127152d40d84c6d98d9a41a5f91a823a37e6522cc4f31979229e54f107f8911e64736f6c63430006060033",
  "immutableReferences": {},
  "source": "pragma solidity 0.6.6;\n\nimport \"@openzeppelin/contracts/math/SafeMath.sol\";\nimport \"@openzeppelin/contracts/token/ERC20/IERC20.sol\";\nimport \"@openzeppelin/contracts/token/ERC20/SafeERC20.sol\";\nimport \"@openzeppelin/contracts/utils/Address.sol\";\n\n\ncontract Treasury {\n    using SafeMath for uint256;\n    using SafeERC20 for IERC20;\n\n    //the amount of each ETH transaction from the treasury that is distributed\n    //directly and equally to all current DAO stakers\n    uint256 public sP = 10;//staker percentage //10%\n\n    //the dao variable could be any address.\n    //it should be the Settlement DAO address.\n    //this is so that the DAO can upgrade itself without losing its treasury.\n    address payable public dao;\n\n\n    constructor() public {\n     dao = msg.sender;\n    }\n\n    modifier onlyDAO() {\n        require(dao == msg.sender, \"Ownable: caller is not the dao\");\n        _;\n    }\n\n    function updateDAO(address payable dg) public onlyDAO {\n        require(dg != 0x0000000000000000000000000000000000000000, \"invalid gov\");\n        dao = dg;\n    }\n\n    function updateStakerPercent(uint256 sP_) public onlyDAO {\n        sP = sP_;\n    }\n\n    function sendFunds(uint256 amount, address payable destination) public onlyDAO returns(uint256){\n        require(address(this).balance >= amount, \"not enough to send\");\n        uint256 toStakers = 0;\n        if (sP > 0) {\n            toStakers = amount.div(100).mul(sP);\n            amount = amount.sub(toStakers);\n            Address.sendValue(msg.sender, toStakers);\n        }\n        Address.sendValue(destination, amount);\n\n        emit FundsSent(amount, destination);\n        return toStakers;\n    }\n\n    function sendERC20Funds(address token, uint256 amount, address payable destination) public onlyDAO {\n        IERC20 tk = IERC20(token);\n        uint256 balance = tk.balanceOf(address(this));\n        require(balance >= amount, \"not enough to send\");\n        tk.safeTransfer(destination, amount);\n        emit ERC20FundsSent(token, amount, destination);\n    }\n\n\n    event FundsSent(uint256 amount, address destination);\n    event ERC20FundsSent(address token, uint256 amount, address destination);\n\n\n    fallback () external payable {}\n}\n",
  "sourcePath": "/Users/x/Desktop/eth/BIOPv4/contracts/Treasury.sol",
  "compiler": {
    "name": "solc",
    "version": "0.6.6+commit.6c089d02.Emscripten.clang"
  },
  "schemaVersion": "3.3.4",
  "updatedAt": "2021-06-22T04:29:44.299Z",
  "networkType": "ethereum",
  "devdoc": {
    "methods": {}
  },
  "userdoc": {
    "methods": {}
  }
}