{
  "contractName": "Treasury",
  "abi": [
    {
      "inputs": [],
      "stateMutability": "nonpayable",
      "type": "constructor"
    },
    {
      "anonymous": false,
      "inputs": [
        {
          "indexed": false,
          "internalType": "address",
          "name": "token",
          "type": "address"
        },
        {
          "indexed": false,
          "internalType": "uint256",
          "name": "amount",
          "type": "uint256"
        },
        {
          "indexed": false,
          "internalType": "address",
          "name": "destination",
          "type": "address"
        }
      ],
      "name": "ERC20FundsSent",
      "type": "event"
    },
    {
      "anonymous": false,
      "inputs": [
        {
          "indexed": false,
          "internalType": "uint256",
          "name": "amount",
          "type": "uint256"
        },
        {
          "indexed": false,
          "internalType": "address",
          "name": "destination",
          "type": "address"
        }
      ],
      "name": "FundsSent",
      "type": "event"
    },
    {
      "inputs": [],
      "name": "dgov",
      "outputs": [
        {
          "internalType": "address payable",
          "name": "",
          "type": "address"
        }
      ],
      "stateMutability": "view",
      "type": "function"
    },
    {
      "inputs": [
        {
          "internalType": "address payable",
          "name": "dg",
          "type": "address"
        }
      ],
      "name": "updateDGov",
      "outputs": [],
      "stateMutability": "nonpayable",
      "type": "function"
    },
    {
      "inputs": [
        {
          "internalType": "uint256",
          "name": "amount",
          "type": "uint256"
        },
        {
          "internalType": "address payable",
          "name": "destination",
          "type": "address"
        }
      ],
      "name": "sendFunds",
      "outputs": [],
      "stateMutability": "nonpayable",
      "type": "function"
    },
    {
      "inputs": [
        {
          "internalType": "address",
          "name": "token",
          "type": "address"
        },
        {
          "internalType": "uint256",
          "name": "amount",
          "type": "uint256"
        },
        {
          "internalType": "address payable",
          "name": "destination",
          "type": "address"
        }
      ],
      "name": "sendERC20Funds",
      "outputs": [],
      "stateMutability": "nonpayable",
      "type": "function"
    }
  ],
  "bytecode": "0x608060405234801561001057600080fd5b50600080546001600160a01b03191633179055610523806100326000396000f3fe608060405234801561001057600080fd5b506004361061004c5760003560e01c8063153b6f66146100515780634830840214610075578063b2686774146100ad578063e82100b3146100d9575b600080fd5b6100596100ff565b604080516001600160a01b039092168252519081900360200190f35b6100ab6004803603606081101561008b57600080fd5b506001600160a01b0381358116916020810135916040909101351661010e565b005b6100ab600480360360408110156100c357600080fd5b50803590602001356001600160a01b031661030d565b6100ab600480360360208110156100ef57600080fd5b50356001600160a01b0316610423565b6000546001600160a01b031681565b6000546001600160a01b0316331461016d576040805162461bcd60e51b815260206004820152601f60248201527f4f776e61626c653a2063616c6c6572206973206e6f74207468652064676f7600604482015290519081900360640190fd5b604080516370a0823160e01b8152306004820152905184916000916001600160a01b038416916370a08231916024808301926020929190829003018186803b1580156101b857600080fd5b505afa1580156101cc573d6000803e3d6000fd5b505050506040513d60208110156101e257600080fd5b5051905083811015610230576040805162461bcd60e51b81526020600482015260126024820152711b9bdd08195b9bdd59da081d1bc81cd95b9960721b604482015290519081900360640190fd5b816001600160a01b031663a9059cbb84866040518363ffffffff1660e01b815260040180836001600160a01b03166001600160a01b0316815260200182815260200192505050602060405180830381600087803b15801561029057600080fd5b505af11580156102a4573d6000803e3d6000fd5b505050506040513d60208110156102ba57600080fd5b5050604080516001600160a01b0380881682526020820187905285168183015290517fa288b389ef08a5a159ae42996a18ac4686fded370b164ea78abd3134dbe3b5879181900360600190a15050505050565b6000546001600160a01b0316331461036c576040805162461bcd60e51b815260206004820152601f60248201527f4f776e61626c653a2063616c6c6572206973206e6f74207468652064676f7600604482015290519081900360640190fd5b814710156103b6576040805162461bcd60e51b81526020600482015260126024820152711b9bdd08195b9bdd59da081d1bc81cd95b9960721b604482015290519081900360640190fd5b6040516001600160a01b0382169083156108fc029084906000818181858888f15050604080518681526001600160a01b038616602082015281517f5313e4fdc1a55cdb803e59071159726ce5d6e7ac54340cf2078c2001b73d0c4f95509081900390910192509050a15050565b6000546001600160a01b03163314610482576040805162461bcd60e51b815260206004820152601f60248201527f4f776e61626c653a2063616c6c6572206973206e6f74207468652064676f7600604482015290519081900360640190fd5b6001600160a01b0381166104cb576040805162461bcd60e51b815260206004820152600b60248201526a34b73b30b634b21033b7bb60a91b604482015290519081900360640190fd5b600080546001600160a01b0319166001600160a01b039290921691909117905556fea2646970667358221220bb9d37b0872642be48f014f7fc33d87757889a679b1fea8a3a98b5c21283206664736f6c63430006060033",
  "immutableReferences": {},
  "source": "pragma solidity ^0.6.6;\n\nimport \"@openzeppelin/contracts/math/SafeMath.sol\";\nimport \"@openzeppelin/contracts/token/ERC20/ERC20.sol\";\n\ncontract Treasury {\n    using SafeMath for uint256;\n    address payable public dgov;\n\n    constructor() public {\n     dgov = msg.sender;\n    }\n\n    modifier onlyDGov() {\n        require(dgov == msg.sender, \"Ownable: caller is not the dgov\");\n        _;\n    }\n\n    function updateDGov(address payable dg) public onlyDGov {\n        require(dg != 0x0000000000000000000000000000000000000000, \"invalid gov\");\n        dgov = dg;\n    }\n\n    function sendFunds(uint256 amount, address payable destination) public onlyDGov {\n        require(address(this).balance >= amount, \"not enough to send\");\n        destination.send(amount);\n        emit FundsSent(amount, destination);\n    }\n\n    function sendERC20Funds(address token, uint256 amount, address payable destination) public onlyDGov {\n        ERC20 tk = ERC20(token);\n        uint256 balance = tk.balanceOf(address(this));\n        require(balance >= amount, \"not enough to send\");\n        tk.transfer(destination, amount);\n        emit ERC20FundsSent(token, amount, destination);\n    }\n\n\n    event FundsSent(uint256 amount, address destination);\n    event ERC20FundsSent(address token, uint256 amount, address destination);\n\n}\n",
  "sourcePath": "/Users/x/Desktop/eth/BIOPv4/contracts/Treasury.sol",
  "compiler": {
    "name": "solc",
    "version": "0.6.6+commit.6c089d02.Emscripten.clang"
  },
  "schemaVersion": "3.3.4",
  "updatedAt": "2021-05-15T00:45:48.254Z",
  "devdoc": {
    "methods": {}
  },
  "userdoc": {
    "methods": {}
  }
}