{
  "contractName": "Unlock",
  "abi": [
    {
      "inputs": [
        {
          "internalType": "address payable",
          "name": "claimant_",
          "type": "address"
        },
        {
          "internalType": "address",
          "name": "tokenAddress_",
          "type": "address"
        }
      ],
      "stateMutability": "nonpayable",
      "type": "constructor"
    },
    {
      "inputs": [],
      "name": "period",
      "outputs": [
        {
          "internalType": "uint256",
          "name": "",
          "type": "uint256"
        }
      ],
      "stateMutability": "view",
      "type": "function"
    },
    {
      "inputs": [],
      "name": "startTime",
      "outputs": [
        {
          "internalType": "uint256",
          "name": "",
          "type": "uint256"
        }
      ],
      "stateMutability": "view",
      "type": "function"
    },
    {
      "inputs": [],
      "name": "tokenAddress",
      "outputs": [
        {
          "internalType": "address",
          "name": "",
          "type": "address"
        }
      ],
      "stateMutability": "view",
      "type": "function"
    },
    {
      "inputs": [
        {
          "internalType": "address payable",
          "name": "new_",
          "type": "address"
        }
      ],
      "name": "updateClaimant",
      "outputs": [],
      "stateMutability": "nonpayable",
      "type": "function"
    },
    {
      "inputs": [
        {
          "internalType": "uint256",
          "name": "amount",
          "type": "uint256"
        },
        {
          "internalType": "uint256",
          "name": "period_",
          "type": "uint256"
        }
      ],
      "name": "start",
      "outputs": [],
      "stateMutability": "nonpayable",
      "type": "function"
    },
    {
      "inputs": [],
      "name": "collect",
      "outputs": [
        {
          "internalType": "uint256",
          "name": "",
          "type": "uint256"
        }
      ],
      "stateMutability": "nonpayable",
      "type": "function"
    }
  ],
  "bytecode": "0x60a06040526003805460ff1916905534801561001a57600080fd5b506040516108df3803806108df8339818101604052604081101561003d57600080fd5b508051602090910151600080546001600160a01b0319166001600160a01b03938416178155606082901b6001600160601b031916608052911690610847906100989039806101525280610212528061029d52506108476000f3fe608060405234801561001057600080fd5b50600436106100625760003560e01c806378e97925146100675780638fb4b573146100815780639bfff802146100a65780639d76ea58146100cc578063e5225381146100f0578063ef78d4fd146100f8575b600080fd5b61006f610100565b60408051918252519081900360200190f35b6100a46004803603604081101561009757600080fd5b5080359060200135610106565b005b6100a4600480360360208110156100bc57600080fd5b50356001600160a01b03166101a5565b6100d4610210565b604080516001600160a01b039092168252519081900360200190f35b61006f610234565b61006f610371565b60025481565b60035460ff1615610150576040805162461bcd60e51b815260206004820152600f60248201526e185b1c9958591e481cdd185c9d1959608a1b604482015290519081900360640190fd5b7f000000000000000000000000000000000000000000000000000000000000000061018c6001600160a01b03821633308663ffffffff61037716565b506003805460ff19166001908117909155555042600255565b6000546001600160a01b031633146101ee5760405162461bcd60e51b815260040180806020018281038252602381526020018061079f6023913960400191505060405180910390fd5b600080546001600160a01b0319166001600160a01b0392909216919091179055565b7f000000000000000000000000000000000000000000000000000000000000000081565b600080546001600160a01b0316331461027e5760405162461bcd60e51b815260040180806020018281038252602381526020018061079f6023913960400191505060405180910390fd5b6000610295600254426103d790919063ffffffff16565b6001549091507f00000000000000000000000000000000000000000000000000000000000000009082111561036757604080516370a0823160e01b815230600482015290516000916001600160a01b038416916370a0823191602480820192602092909190829003018186803b15801561030e57600080fd5b505afa158015610322573d6000803e3d6000fd5b505050506040513d602081101561033857600080fd5b505160005490915061035d906001600160a01b0384811691168363ffffffff61042016565b925061036e915050565b6000925050505b90565b60015481565b604080516001600160a01b0380861660248301528416604482015260648082018490528251808303909101815260849091019091526020810180516001600160e01b03166323b872dd60e01b1790526103d1908590610477565b50505050565b600061041983836040518060400160405280601e81526020017f536166654d6174683a207375627472616374696f6e206f766572666c6f770000815250610528565b9392505050565b604080516001600160a01b038416602482015260448082018490528251808303909101815260649091019091526020810180516001600160e01b031663a9059cbb60e01b179052610472908490610477565b505050565b60606104cc826040518060400160405280602081526020017f5361666545524332303a206c6f772d6c6576656c2063616c6c206661696c6564815250856001600160a01b03166105bf9092919063ffffffff16565b805190915015610472578080602001905160208110156104eb57600080fd5b50516104725760405162461bcd60e51b815260040180806020018281038252602a8152602001806107e8602a913960400191505060405180910390fd5b600081848411156105b75760405162461bcd60e51b81526004018080602001828103825283818151815260200191508051906020019080838360005b8381101561057c578181015183820152602001610564565b50505050905090810190601f1680156105a95780820380516001836020036101000a031916815260200191505b509250505060405180910390fd5b505050900390565b60606105ce84846000856105d6565b949350505050565b6060824710156106175760405162461bcd60e51b81526004018080602001828103825260268152602001806107c26026913960400191505060405180910390fd5b61062085610732565b610671576040805162461bcd60e51b815260206004820152601d60248201527f416464726573733a2063616c6c20746f206e6f6e2d636f6e7472616374000000604482015290519081900360640190fd5b60006060866001600160a01b031685876040518082805190602001908083835b602083106106b05780518252601f199092019160209182019101610691565b6001836020036101000a03801982511681845116808217855250505050505090500191505060006040518083038185875af1925050503d8060008114610712576040519150601f19603f3d011682016040523d82523d6000602084013e610717565b606091505b5091509150610727828286610738565b979650505050505050565b3b151590565b60608315610747575081610419565b8251156107575782518084602001fd5b60405162461bcd60e51b815260206004820181815284516024840152845185939192839260440191908501908083836000831561057c57818101518382015260200161056456fe4f776e61626c653a2063616c6c6572206973206e6f742074686520636c61696d616e74416464726573733a20696e73756666696369656e742062616c616e636520666f722063616c6c5361666545524332303a204552433230206f7065726174696f6e20646964206e6f742073756363656564a2646970667358221220ee54dc17372005117b1bbca84a9b8eacccc39f7e0250dc1e9296238856fb963864736f6c63430006060033",
  "immutableReferences": {
    "5713": [
      {
        "length": 32,
        "start": 338
      },
      {
        "length": 32,
        "start": 530
      },
      {
        "length": 32,
        "start": 669
      }
    ]
  },
  "source": "pragma solidity 0.6.6;\n\nimport \"@openzeppelin/contracts/math/SafeMath.sol\";\nimport \"@openzeppelin/contracts/token/ERC20/IERC20.sol\";\nimport \"@openzeppelin/contracts/token/ERC20/SafeERC20.sol\";\n\n/* \n* @dev Unlock: A one time lock for ERC20 tokens that are available to withdraw all at once. A time vault.\n* @Author Shalaquiana\n */\ncontract Unlock {\n\n    using SafeERC20 for IERC20;\n    using SafeMath for uint256;\n    address public immutable tokenAddress;\n    address payable claimant;\n    uint256 public period;\n    uint256 public startTime;//start time of the vesting\n    bool started = false;\n\n    constructor(address payable claimant_, address tokenAddress_) public {\n        claimant = claimant_;\n\n        tokenAddress = tokenAddress_;\n    }\n\n     /**\n    * @dev set the new claimant\n    * @param new_ the new claimant's address\n    */\n    function updateClaimant(address payable new_) public onlyClaimant {\n        claimant = new_;\n    }\n\n    modifier onlyClaimant() {\n        require(claimant == msg.sender, \"Ownable: caller is not the claimant\");\n        _;\n    }\n\n    function start(uint256 amount, uint256 period_) public {\n        require(started == false, \"already started\");\n        IERC20 token = IERC20(tokenAddress);\n        token.safeTransferFrom(msg.sender, address(this), amount);\n        started = true;\n        period = period_;\n        startTime = block.timestamp;\n    }\n\n    function collect() public onlyClaimant returns(uint256) {\n        uint256 elapsed = block.timestamp.sub(startTime);\n        IERC20 token = IERC20(tokenAddress);\n        if (elapsed > period) {\n            //vesting totally complete\n            uint256 total = token.balanceOf(address(this));\n            token.safeTransfer(claimant, total);\n            return total;\n        } \n        return 0;\n    }\n}\n",
  "sourcePath": "/Users/x/Desktop/eth/BIOPv4/contracts/Unlock.sol",
  "compiler": {
    "name": "solc",
    "version": "0.6.6+commit.6c089d02.Emscripten.clang"
  },
  "schemaVersion": "3.3.4",
  "updatedAt": "2021-06-17T00:58:54.228Z",
  "devdoc": {
    "methods": {
      "updateClaimant(address)": {
        "details": "set the new claimant",
        "params": {
          "new_": "the new claimant's address"
        }
      }
    }
  },
  "userdoc": {
    "methods": {}
  }
}