{
  "contractName": "Unlock",
  "abi": [
    {
      "inputs": [
        {
          "internalType": "address payable",
          "name": "claimant_",
          "type": "address"
        },
        {
          "internalType": "address",
          "name": "tokenAddress_",
          "type": "address"
        }
      ],
      "stateMutability": "nonpayable",
      "type": "constructor"
    },
    {
      "inputs": [],
      "name": "period",
      "outputs": [
        {
          "internalType": "uint256",
          "name": "",
          "type": "uint256"
        }
      ],
      "stateMutability": "view",
      "type": "function"
    },
    {
      "inputs": [],
      "name": "startTime",
      "outputs": [
        {
          "internalType": "uint256",
          "name": "",
          "type": "uint256"
        }
      ],
      "stateMutability": "view",
      "type": "function"
    },
    {
      "inputs": [],
      "name": "tokenAddress",
      "outputs": [
        {
          "internalType": "address",
          "name": "",
          "type": "address"
        }
      ],
      "stateMutability": "view",
      "type": "function"
    },
    {
      "inputs": [
        {
          "internalType": "address payable",
          "name": "new_",
          "type": "address"
        }
      ],
      "name": "updateClaimant",
      "outputs": [],
      "stateMutability": "nonpayable",
      "type": "function"
    },
    {
      "inputs": [
        {
          "internalType": "uint256",
          "name": "amount",
          "type": "uint256"
        },
        {
          "internalType": "uint256",
          "name": "period_",
          "type": "uint256"
        }
      ],
      "name": "start",
      "outputs": [],
      "stateMutability": "nonpayable",
      "type": "function"
    },
    {
      "inputs": [],
      "name": "collect",
      "outputs": [
        {
          "internalType": "uint256",
          "name": "",
          "type": "uint256"
        }
      ],
      "stateMutability": "nonpayable",
      "type": "function"
    }
  ],
  "bytecode": "0x60806040526004805460ff1916905534801561001a57600080fd5b506040516105bb3803806105bb8339818101604052604081101561003d57600080fd5b508051602090910151600180546001600160a01b039384166001600160a01b03199182161790915560008054939092169216919091179055610537806100846000396000f3fe608060405234801561001057600080fd5b50600436106100625760003560e01c806378e97925146100675780638fb4b573146100815780639bfff802146100a65780639d76ea58146100cc578063e5225381146100f0578063ef78d4fd146100f8575b600080fd5b61006f610100565b60408051918252519081900360200190f35b6100a46004803603604081101561009757600080fd5b5080359060200135610106565b005b6100a4600480360360208110156100bc57600080fd5b50356001600160a01b03166101f1565b6100d461025c565b604080516001600160a01b039092168252519081900360200190f35b61006f61026b565b61006f6103f8565b60035481565b60045460ff1615610150576040805162461bcd60e51b815260206004820152600f60248201526e185b1c9958591e481cdd185c9d1959608a1b604482015290519081900360640190fd5b60008054604080516323b872dd60e01b81523360048201523060248201526044810186905290516001600160a01b039092169283926323b872dd926064808201936020939283900390910190829087803b1580156101ad57600080fd5b505af11580156101c1573d6000803e3d6000fd5b505050506040513d60208110156101d757600080fd5b50506004805460ff19166001179055506002555042600355565b6001546001600160a01b0316331461023a5760405162461bcd60e51b81526004018080602001828103825260238152602001806104df6023913960400191505060405180910390fd5b600180546001600160a01b0319166001600160a01b0392909216919091179055565b6000546001600160a01b031681565b6001546000906001600160a01b031633146102b75760405162461bcd60e51b81526004018080602001828103825260238152602001806104df6023913960400191505060405180910390fd5b60006102ce600354426103fe90919063ffffffff16565b6000546002549192506001600160a01b0316908211156103ee57604080516370a0823160e01b815230600482015290516000916001600160a01b038416916370a0823191602480820192602092909190829003018186803b15801561033257600080fd5b505afa158015610346573d6000803e3d6000fd5b505050506040513d602081101561035c57600080fd5b50516001546040805163a9059cbb60e01b81526001600160a01b0392831660048201526024810184905290519293509084169163a9059cbb916044808201926020929091908290030181600087803b1580156103b757600080fd5b505af11580156103cb573d6000803e3d6000fd5b505050506040513d60208110156103e157600080fd5b509093506103f592505050565b6000925050505b90565b60025481565b600061044083836040518060400160405280601e81526020017f536166654d6174683a207375627472616374696f6e206f766572666c6f770000815250610447565b9392505050565b600081848411156104d65760405162461bcd60e51b81526004018080602001828103825283818151815260200191508051906020019080838360005b8381101561049b578181015183820152602001610483565b50505050905090810190601f1680156104c85780820380516001836020036101000a031916815260200191505b509250505060405180910390fd5b50505090039056fe4f776e61626c653a2063616c6c6572206973206e6f742074686520636c61696d616e74a26469706673582212207f95cfd80cc0ae5920d820d73a7883ce82d74bd91fa553f9df5367f534ba318464736f6c63430006060033",
  "immutableReferences": {},
  "source": "pragma solidity ^0.6.6;\n\nimport \"@openzeppelin/contracts/math/SafeMath.sol\";\nimport \"@openzeppelin/contracts/token/ERC20/ERC20.sol\";\n\n\n/* \n* @dev Unlock: A one time lock for ERC20 tokens that are available to withdraw all at once. A time vault.\n* @Author Shalaquiana\n */\ncontract Unlock {\n\n    using SafeMath for uint256;\n    address public tokenAddress;\n    address payable claimant;\n    uint256 public period;\n    uint256 public startTime;//start time of the vesting\n    bool started = false;\n\n    constructor(address payable claimant_, address tokenAddress_) public {\n        claimant = claimant_;\n\n        tokenAddress = tokenAddress_;\n    }\n\n     /**\n    * @dev set the new claimant\n    * @param new_ the new claimant's address\n    */\n    function updateClaimant(address payable new_) public onlyClaimant {\n        claimant = new_;\n    }\n\n    modifier onlyClaimant() {\n        require(claimant == msg.sender, \"Ownable: caller is not the claimant\");\n        _;\n    }\n\n    function start(uint256 amount, uint256 period_) public {\n        require(started == false, \"already started\");\n        ERC20 token = ERC20(tokenAddress);\n        token.transferFrom(msg.sender, address(this), amount);\n        started = true;\n        period = period_;\n        startTime = block.timestamp;\n    }\n\n    function collect() public onlyClaimant returns(uint256) {\n        uint256 elapsed = block.timestamp.sub(startTime);\n        ERC20 token = ERC20(tokenAddress);\n        if (elapsed > period) {\n            //vesting totally complete\n            uint256 total = token.balanceOf(address(this));\n            token.transfer(claimant, total);\n            return total;\n        } \n        return 0;\n    }\n}\n",
  "sourcePath": "/Users/x/Desktop/eth/BIOPv4/contracts/Unlock.sol",
  "compiler": {
    "name": "solc",
    "version": "0.6.6+commit.6c089d02.Emscripten.clang"
  },
  "schemaVersion": "3.3.4",
  "updatedAt": "2021-05-15T00:45:48.256Z",
  "devdoc": {
    "methods": {
      "updateClaimant(address)": {
        "details": "set the new claimant",
        "params": {
          "new_": "the new claimant's address"
        }
      }
    }
  },
  "userdoc": {
    "methods": {}
  }
}