{
  "contractName": "UtilizationRewards",
  "abi": [
    {
      "inputs": [
        {
          "internalType": "address",
          "name": "token_",
          "type": "address"
        }
      ],
      "stateMutability": "nonpayable",
      "type": "constructor"
    },
    {
      "inputs": [],
      "name": "bO",
      "outputs": [
        {
          "internalType": "address",
          "name": "",
          "type": "address"
        }
      ],
      "stateMutability": "view",
      "type": "function",
      "constant": true
    },
    {
      "inputs": [],
      "name": "claimedToday",
      "outputs": [
        {
          "internalType": "uint256",
          "name": "",
          "type": "uint256"
        }
      ],
      "stateMutability": "view",
      "type": "function",
      "constant": true
    },
    {
      "inputs": [],
      "name": "dailyMax",
      "outputs": [
        {
          "internalType": "uint256",
          "name": "",
          "type": "uint256"
        }
      ],
      "stateMutability": "view",
      "type": "function",
      "constant": true
    },
    {
      "inputs": [],
      "name": "otherBalance",
      "outputs": [
        {
          "internalType": "uint256",
          "name": "",
          "type": "uint256"
        }
      ],
      "stateMutability": "view",
      "type": "function",
      "constant": true
    },
    {
      "inputs": [],
      "name": "rwd",
      "outputs": [
        {
          "internalType": "uint256",
          "name": "",
          "type": "uint256"
        }
      ],
      "stateMutability": "view",
      "type": "function",
      "constant": true
    },
    {
      "inputs": [],
      "name": "stakerBalance",
      "outputs": [
        {
          "internalType": "uint256",
          "name": "",
          "type": "uint256"
        }
      ],
      "stateMutability": "view",
      "type": "function",
      "constant": true
    },
    {
      "inputs": [],
      "name": "todayStarted",
      "outputs": [
        {
          "internalType": "uint256",
          "name": "",
          "type": "uint256"
        }
      ],
      "stateMutability": "view",
      "type": "function",
      "constant": true
    },
    {
      "inputs": [],
      "name": "token",
      "outputs": [
        {
          "internalType": "contract IERC20",
          "name": "",
          "type": "address"
        }
      ],
      "stateMutability": "view",
      "type": "function",
      "constant": true
    },
    {
      "inputs": [
        {
          "internalType": "uint256",
          "name": "newP",
          "type": "uint256"
        }
      ],
      "name": "updatePricePoint",
      "outputs": [],
      "stateMutability": "nonpayable",
      "type": "function"
    },
    {
      "inputs": [
        {
          "internalType": "uint256",
          "name": "nw",
          "type": "uint256"
        }
      ],
      "name": "updateDailyMax",
      "outputs": [],
      "stateMutability": "nonpayable",
      "type": "function"
    },
    {
      "inputs": [
        {
          "internalType": "uint256",
          "name": "staker",
          "type": "uint256"
        },
        {
          "internalType": "uint256",
          "name": "other",
          "type": "uint256"
        }
      ],
      "name": "deposit",
      "outputs": [],
      "stateMutability": "nonpayable",
      "type": "function"
    },
    {
      "inputs": [],
      "name": "withdraw",
      "outputs": [],
      "stateMutability": "nonpayable",
      "type": "function"
    },
    {
      "inputs": [
        {
          "internalType": "uint256",
          "name": "amountStaker",
          "type": "uint256"
        },
        {
          "internalType": "uint256",
          "name": "amountOther",
          "type": "uint256"
        },
        {
          "internalType": "address payable",
          "name": "claimant",
          "type": "address"
        }
      ],
      "name": "distributeClaim",
      "outputs": [
        {
          "internalType": "uint256",
          "name": "",
          "type": "uint256"
        }
      ],
      "stateMutability": "nonpayable",
      "type": "function"
    },
    {
      "inputs": [
        {
          "internalType": "uint256",
          "name": "lastStake",
          "type": "uint256"
        }
      ],
      "name": "getStakingTimeBonus",
      "outputs": [
        {
          "internalType": "uint256",
          "name": "",
          "type": "uint256"
        }
      ],
      "stateMutability": "view",
      "type": "function",
      "constant": true
    },
    {
      "inputs": [
        {
          "internalType": "uint256",
          "name": "lastStake",
          "type": "uint256"
        },
        {
          "internalType": "uint256",
          "name": "lastInterchange",
          "type": "uint256"
        },
        {
          "internalType": "uint256",
          "name": "totalInterchange",
          "type": "uint256"
        },
        {
          "internalType": "uint256",
          "name": "stakedAmount",
          "type": "uint256"
        },
        {
          "internalType": "uint256",
          "name": "totalStaked",
          "type": "uint256"
        }
      ],
      "name": "getLPStakingBonus",
      "outputs": [
        {
          "internalType": "uint256",
          "name": "",
          "type": "uint256"
        }
      ],
      "stateMutability": "view",
      "type": "function",
      "constant": true
    },
    {
      "inputs": [
        {
          "internalType": "uint256",
          "name": "amount",
          "type": "uint256"
        },
        {
          "internalType": "uint256",
          "name": "totalLocked",
          "type": "uint256"
        },
        {
          "internalType": "bool",
          "name": "completion",
          "type": "bool"
        }
      ],
      "name": "getTradeExerciseBonus",
      "outputs": [
        {
          "internalType": "uint256",
          "name": "",
          "type": "uint256"
        }
      ],
      "stateMutability": "view",
      "type": "function",
      "constant": true
    },
    {
      "inputs": [
        {
          "internalType": "address payable",
          "name": "options_",
          "type": "address"
        }
      ],
      "name": "setupBinaryOptions",
      "outputs": [],
      "stateMutability": "nonpayable",
      "type": "function"
    },
    {
      "inputs": [
        {
          "internalType": "address payable",
          "name": "g_",
          "type": "address"
        }
      ],
      "name": "transferDAO",
      "outputs": [],
      "stateMutability": "nonpayable",
      "type": "function"
    }
  ],
  "bytecode": "0x60a0604052600080546001600160a01b0319908116825560018054909116815560028290556003829055600482905560058290556006919091556007556132c860085534801561004e57600080fd5b506040516112d93803806112d98339818101604052602081101561007157600080fd5b5051600180546001600160a01b031916331790556001600160601b0319606082901b166080526001600160a01b03166112046100d56000398061036452806103e052806105905280610668528061086c528061093952806109ca52506112046000f3fe608060405234801561001057600080fd5b50600436106101165760003560e01c8063a17110bf116100a2578063e2bbb15811610071578063e2bbb15814610285578063ed46ea20146102a8578063fc0c546a146102d3578063ff1cb40c146102db578063ff7bf87d146102e357610116565b8063a17110bf14610232578063a9d740131461024f578063db943fa114610257578063e0f67bc71461027d57610116565b806357931484116100e957806357931484146101645780636918545214610199578063741aef12146101b65780637a318866146101e85780637ca76c941461020e57610116565b80631a8972d31461011b5780633ccfd60b146101355780633d4988ed1461013f57806355ab96ba1461015c575b600080fd5b6101236102eb565b60408051918252519081900360200190f35b61013d6102f1565b005b61013d6004803603602081101561015557600080fd5b503561040f565b610123610461565b610123600480360360a081101561017a57600080fd5b5080359060208101359060408101359060608101359060800135610467565b610123600480360360208110156101af57600080fd5b503561048e565b610123600480360360608110156101cc57600080fd5b50803590602081013590604001356001600160a01b03166104e3565b61013d600480360360208110156101fe57600080fd5b50356001600160a01b03166106a1565b610216610723565b604080516001600160a01b039092168252519081900360200190f35b61013d6004803603602081101561024857600080fd5b5035610732565b610123610784565b61013d6004803603602081101561026d57600080fd5b50356001600160a01b031661078a565b6101236107f9565b61013d6004803603604081101561029b57600080fd5b50803590602001356107ff565b610123600480360360608110156102be57600080fd5b50803590602081013590604001351515610997565b6102166109c8565b6101236109ec565b6101236109f2565b60085481565b6001546001600160a01b0316331461033e576040805162461bcd60e51b815260206004820152601e60248201526000805160206110de833981519152604482015290519081900360640190fd5b604080516370a0823160e01b8152306004820152905161040d9133916001600160a01b037f000000000000000000000000000000000000000000000000000000000000000016916370a08231916024808301926020929190829003018186803b1580156103aa57600080fd5b505afa1580156103be573d6000803e3d6000fd5b505050506040513d60208110156103d457600080fd5b50516001600160a01b037f000000000000000000000000000000000000000000000000000000000000000016919063ffffffff6109f816565b565b6001546001600160a01b0316331461045c576040805162461bcd60e51b815260206004820152601e60248201526000805160206110de833981519152604482015290519081900360640190fd5b600755565b60055481565b60006104846104758761048e565b6008549063ffffffff610a4f16565b9695505050505050565b60008161049d575060016104de565b60006104af438463ffffffff610ab116565b9050806104c05760019150506104de565b6104da6104cc82610af3565b60019063ffffffff610b2a16565b9150505b919050565b600080546001600160a01b0316331461052d5760405162461bcd60e51b81526004018080602001828103825260328152602001806111526032913960400191505060405180910390fd5b831561053f5761053c84610b84565b93505b82156105515761054e83610bce565b92505b600061056b610566868663ffffffff610b2a16565b610c18565b604080516370a0823160e01b8152306004820152905191925082916001600160a01b037f000000000000000000000000000000000000000000000000000000000000000016916370a08231916024808301926020929190829003018186803b1580156105d657600080fd5b505afa1580156105ea573d6000803e3d6000fd5b505050506040513d602081101561060057600080fd5b50511015610655576040805162461bcd60e51b815260206004820152601d60248201527f696e737566666963656e742062616c616e63652072656d61696e696e67000000604482015290519081900360640190fd5b8015610695576106956001600160a01b037f000000000000000000000000000000000000000000000000000000000000000016848363ffffffff6109f816565b839150505b9392505050565b6001546001600160a01b031633146106ee576040805162461bcd60e51b815260206004820152601e60248201526000805160206110de833981519152604482015290519081900360640190fd5b6001600160a01b03811661070157600080fd5b600180546001600160a01b0319166001600160a01b0392909216919091179055565b6000546001600160a01b031681565b6001546001600160a01b0316331461077f576040805162461bcd60e51b815260206004820152601e60248201526000805160206110de833981519152604482015290519081900360640190fd5b600255565b60035481565b6001546001600160a01b031633146107d7576040805162461bcd60e51b815260206004820152601e60248201526000805160206110de833981519152604482015290519081900360640190fd5b600080546001600160a01b0319166001600160a01b0392909216919091179055565b60025481565b6001546001600160a01b0316331461084c576040805162461bcd60e51b815260206004820152601e60248201526000805160206110de833981519152604482015290519081900360640190fd5b604080516370a0823160e01b815230600482015290516001600160a01b037f000000000000000000000000000000000000000000000000000000000000000016916370a08231916024808301926020929190829003018186803b1580156108b257600080fd5b505afa1580156108c6573d6000803e3d6000fd5b505050506040513d60208110156108dc57600080fd5b50511561091a5760405162461bcd60e51b815260040180806020018281038252602e815260200180611124602e913960400191505060405180910390fd5b610967333061092f858563ffffffff610b2a16565b6001600160a01b037f00000000000000000000000000000000000000000000000000000000000000001692919063ffffffff610cb716565b60055461097a908363ffffffff610b2a16565b600555600654610990908263ffffffff610b2a16565b6006555050565b60006109c06007546109b43a600854610a4f90919063ffffffff16565b9063ffffffff610ab116565b949350505050565b7f000000000000000000000000000000000000000000000000000000000000000081565b60045481565b60065481565b604080516001600160a01b038416602482015260448082018490528251808303909101815260649091019091526020810180516001600160e01b031663a9059cbb60e01b179052610a4a908490610d17565b505050565b600082610a5e57506000610aab565b82820282848281610a6b57fe5b0414610aa85760405162461bcd60e51b81526004018080602001828103825260218152602001806111846021913960400191505060405180910390fd5b90505b92915050565b6000610aa883836040518060400160405280601a81526020017f536166654d6174683a206469766973696f6e206279207a65726f000000000000815250610dc8565b80600260018201045b81811015610b2457809150600281828581610b1357fe5b040181610b1c57fe5b049050610afc565b50919050565b600082820183811015610aa8576040805162461bcd60e51b815260206004820152601b60248201527f536166654d6174683a206164646974696f6e206f766572666c6f770000000000604482015290519081900360640190fd5b600060055460001415610b99575060006104de565b600554821015610bc057600554610bb6908363ffffffff610e6a16565b60055550806104de565b505060058054600090915590565b600060065460001415610be3575060006104de565b600654821015610c0a57600654610c00908363ffffffff610e6a16565b60065550806104de565b505060068054600090915590565b600454600090610c31906201518063ffffffff610b2a16565b421115610c42574260045560006003555b6002546003541015610caf57600354600090610c64908463ffffffff610b2a16565b9050600254811015610c7a5760035550806104de565b600354600254610c8f9163ffffffff610e6a16565b600354909150610ca5908263ffffffff610b2a16565b60035590506104de565b506000919050565b604080516001600160a01b0380861660248301528416604482015260648082018490528251808303909101815260849091019091526020810180516001600160e01b03166323b872dd60e01b179052610d11908590610d17565b50505050565b6060610d6c826040518060400160405280602081526020017f5361666545524332303a206c6f772d6c6576656c2063616c6c206661696c6564815250856001600160a01b0316610eac9092919063ffffffff16565b805190915015610a4a57808060200190516020811015610d8b57600080fd5b5051610a4a5760405162461bcd60e51b815260040180806020018281038252602a8152602001806111a5602a913960400191505060405180910390fd5b60008183610e545760405162461bcd60e51b81526004018080602001828103825283818151815260200191508051906020019080838360005b83811015610e19578181015183820152602001610e01565b50505050905090810190601f168015610e465780820380516001836020036101000a031916815260200191505b509250505060405180910390fd5b506000838581610e6057fe5b0495945050505050565b6000610aa883836040518060400160405280601e81526020017f536166654d6174683a207375627472616374696f6e206f766572666c6f770000815250610ebb565b60606109c08484600085610f15565b60008184841115610f0d5760405162461bcd60e51b8152602060048201818152835160248401528351909283926044909101919085019080838360008315610e19578181015183820152602001610e01565b505050900390565b606082471015610f565760405162461bcd60e51b81526004018080602001828103825260268152602001806110fe6026913960400191505060405180910390fd5b610f5f85611071565b610fb0576040805162461bcd60e51b815260206004820152601d60248201527f416464726573733a2063616c6c20746f206e6f6e2d636f6e7472616374000000604482015290519081900360640190fd5b60006060866001600160a01b031685876040518082805190602001908083835b60208310610fef5780518252601f199092019160209182019101610fd0565b6001836020036101000a03801982511681845116808217855250505050505090500191505060006040518083038185875af1925050503d8060008114611051576040519150601f19603f3d011682016040523d82523d6000602084013e611056565b606091505b5091509150611066828286611077565b979650505050505050565b3b151590565b6060831561108657508161069a565b8251156110965782518084602001fd5b60405162461bcd60e51b8152602060048201818152845160248401528451859391928392604401919085019080838360008315610e19578181015183820152602001610e0156fe4f776e61626c653a2063616c6c6572206973206e6f74207468652064616f0000416464726573733a20696e73756666696369656e742062616c616e636520666f722063616c6c63616e2774206465706f736974207768696c65207265776172642062616c616e6365206973206e6f74207a65726f4f776e61626c653a2063616c6c6572206973206e6f74207468652042696e617279204f7074696f6e7320436f6e7472616374536166654d6174683a206d756c7469706c69636174696f6e206f766572666c6f775361666545524332303a204552433230206f7065726174696f6e20646964206e6f742073756363656564a26469706673582212209898d644ab576f36c950a4d7189a68d3805413f6a714afed95641a97dbd79aa664736f6c63430006060033",
  "immutableReferences": {
    "5895": [
      {
        "length": 32,
        "start": 868
      },
      {
        "length": 32,
        "start": 992
      },
      {
        "length": 32,
        "start": 1424
      },
      {
        "length": 32,
        "start": 1640
      },
      {
        "length": 32,
        "start": 2156
      },
      {
        "length": 32,
        "start": 2361
      },
      {
        "length": 32,
        "start": 2506
      }
    ]
  },
  "source": "pragma solidity 0.6.6;\n\nimport \"@openzeppelin/contracts/math/SafeMath.sol\";\nimport \"@openzeppelin/contracts/token/ERC20/IERC20.sol\";\nimport \"@openzeppelin/contracts/token/ERC20/SafeERC20.sol\";\n\nimport \"./interfaces/IUtilizationRewards.sol\";\n\ncontract UtilizationRewards is IUtilizationRewards{\n    using SafeMath for uint256;\n    using SafeERC20 for IERC20;\n    address public bO = 0x0000000000000000000000000000000000000000;//binary options\n    address payable dao = 0x0000000000000000000000000000000000000000;\n\n    uint256 public dailyMax = 0;\n    uint256 public claimedToday = 0;\n    uint256 public todayStarted = 0;\n\n    uint256 public stakerBalance = 0; //balance of BIOP tokens for stakers\n    uint256 public otherBalance = 0;//balance of BIOP tokens for trader/settler\n    IERC20 public immutable token;\n\n    uint256 pricePoint = 1;//the BIOP/ETH price ratio used to determine Trader/Settler gas rewards\n\n    //base rewards\n    uint256 public rwd = 13000;\n\n\n    /**\n     * @dev init the contract (dont forget to also configure setupBinaryOptions afterwards, and deposit tokens)\n     * @param token_ the BIOP token addressss\n     */\n    constructor(address token_) public {\n      dao = msg.sender;\n      token = IERC20(token_);\n    }\n\n     /**\n     * @dev deposit tokens into the utilization rewards\n\n     * @param newP the BIOP tokens to transfer into this contract from multisig\n     */\n    function updatePricePoint(uint256 newP) public onlyDAO {\n      pricePoint = newP;\n    }\n\n    /**\n     * @dev deposit tokens into the utilization rewards\n\n     * @param nw the BIOP tokens to transfer into this contract from multisig\n     */\n    function updateDailyMax(uint256 nw) public onlyDAO {\n      dailyMax = nw;\n    }\n\n\n\n     /**\n     * @dev deposit tokens into the utilization rewards\n\n     * @param staker the BIOP tokens to transfer into this contract from multisig for staker rewards\n     * @param other the BIOP tokens to transfer into this contract from the multisig for trader/settler rewards\n     */\n    function deposit(uint256 staker, uint256 other) public onlyDAO {\n        require(token.balanceOf(address(this)) == 0, \"can't deposit while reward balance is not zero\");\n      token.safeTransferFrom(msg.sender, address(this), staker.add(other));\n      stakerBalance = stakerBalance.add(staker);\n      otherBalance = otherBalance.add(other);\n    }\n\n     /**\n     * @dev emergency withdraw function to recover funds if theres a error in the rewards contract\n     */\n    function withdraw() public onlyDAO {\n      token.safeTransfer(msg.sender, token.balanceOf(address(this)));\n    }\n\n   /**\n     * restricts amount that can be transfered out for stakers \n     * @param amount input amount\n     **/\n    function stakerAmountGuard(uint256 amount ) internal returns (uint256) {\n        if (stakerBalance == 0) {\n            //no rewards available\n            return 0;\n        }\n        if (amount < stakerBalance) {\n            stakerBalance = stakerBalance.sub(amount);\n            return amount;\n        }\n        amount = stakerBalance;\n        stakerBalance = 0;\n        return amount;\n    }\n\n      /**\n     * restricts amount that can be transfered out for traders/settlers \n     * @param amount input amount\n     **/\n    function otherAmountGuard(uint256 amount ) internal returns (uint256) {\n        if (otherBalance == 0) {\n            //no rewards available\n            return 0;\n        }\n        if (amount < otherBalance) {\n            otherBalance = otherBalance.sub(amount);\n            return amount;\n        }\n        amount = otherBalance;\n        otherBalance = 0;\n        return amount;\n    }\n\n    /**\n     * @dev restriscts maximum amount that can be transfered out in a single day\n     * @param amount input amount\n     */\n    function dailyMaxGuard(uint256 amount) internal returns(uint256) {\n        if (block.timestamp > todayStarted.add(86400)) {\n            todayStarted = block.timestamp;\n            claimedToday = 0;\n        }\n\n        if (claimedToday < dailyMax) {\n            uint256 maxAmount = claimedToday.add(amount);\n            if (maxAmount < dailyMax) {\n                claimedToday = maxAmount;\n                return amount;\n            }\n            maxAmount = dailyMax.sub(claimedToday);\n            claimedToday = claimedToday.add(maxAmount);\n            return maxAmount;\n\n        }\n        return 0;\n    }\n\n\n\n    modifier onlyBinaryOptions() {\n        require(bO == msg.sender, \"Ownable: caller is not the Binary Options Contract\");\n        _;\n    }\n    modifier onlyDAO() {\n        require(dao == msg.sender, \"Ownable: caller is not the dao\");\n        _;\n    }\n\n   \n    /**\n     * @dev called by the binary options contract to claim Reward for user\n     * @param amountStaker the amount in BIOP to transfer to this user for staking\n     * @param amountOther the amount in BIOP to transfer to this user for trading/settling\n     * @param claimant the address who triggered the function higher up and should receive the claim\n     **/\n    function distributeClaim(uint256 amountStaker, uint256 amountOther, address payable claimant ) external override onlyBinaryOptions returns(uint256) {\n       if (amountStaker > 0) {\n            amountStaker = stakerAmountGuard(amountStaker);\n       }\n       if (amountOther > 0) {\n            amountOther = otherAmountGuard(amountOther);\n       }\n       uint256 total = dailyMaxGuard(amountStaker.add(amountOther));\n       require(token.balanceOf(address(this)) >= total, \"insufficent balance remaining\");\n       if (total > 0) {\n            token.safeTransfer(claimant, total);\n       }\n       return amountOther;\n    }\n\n   \n\n    /**\n     * @dev calculate the staking time bonus\n     * @param lastStake blocknumber of LPs last stake/claim\n     **/\n    function getStakingTimeBonus(uint256 lastStake) public view returns(uint256) {\n        if (lastStake == 0) {\n            return 1;\n        }\n        uint256 b = block.number.div(lastStake);\n        if (b == 0) {\n            return 1;\n        }\n        return uint256(1).add(sqrt(b));\n    }\n\n    \n\n\n     /**\n     * @dev called by the binary options contract to claim Reward for user\n     * @param lastStake timestamp of LPs last stake/claim\n     * @param lastInterchange the total interchange the last time the LP staked/claimed\n     * @param totalInterchange amount interchanged since LPs last claim\n     * @param stakedAmount amount the user has staked\n     * @param totalStaked the total amount staked by all LPs\n     **/\n    function getLPStakingBonus(uint256 lastStake, uint256 lastInterchange, uint256 totalInterchange, uint256 stakedAmount, uint256 totalStaked) external override view returns(uint256) {\n        return rwd.mul(getStakingTimeBonus(lastStake));\n    }\n\n\n\n     /**\n     * @dev used for openposition/exercise/expire calc\n     * @param amount the option value\n     * @param totalLocked total LP pool size\n     * @param completion false for an open position, true for exercise expire\n     **/\n    function getTradeExerciseBonus(uint256 amount, uint256 totalLocked, bool completion) external view override returns(uint256) {\n        return (rwd.mul(tx.gasprice)).div(pricePoint);\n    }\n\n\n\n\n\n\n\n\n\n\n\n\n\n\n    // UTILS\n     /**\n     * @notice function used at deployment to configure the connected binary options contract\n     * @param options_ the address of the binary options contract\n     */\n    function setupBinaryOptions(address payable options_) external onlyDAO {\n        bO = options_;\n    }\n\n      /**\n     * @dev transfer ownership of this contract\n     * @param g_ the new governance address\n     */\n    function transferDAO(address payable g_) external override onlyDAO {\n        require(g_ != 0x0000000000000000000000000000000000000000);\n        dao = g_;\n    }\n\n    function sqrt(uint x) private view returns (uint y) {\n        uint z = (x + 1) / 2;\n        y = x;\n        while (z < y) {\n            y = z;\n            z = (x / z + z) / 2;\n        }\n    }\n    \n}\n",
  "sourcePath": "/Users/x/Desktop/eth/BIOPv4/contracts/UtilizationRewards.sol",
  "compiler": {
    "name": "solc",
    "version": "0.6.6+commit.6c089d02.Emscripten.clang"
  },
  "schemaVersion": "3.3.4",
  "updatedAt": "2021-06-22T04:29:44.281Z",
  "networkType": "ethereum",
  "devdoc": {
    "methods": {
      "constructor": {
        "details": "init the contract (dont forget to also configure setupBinaryOptions afterwards, and deposit tokens)",
        "params": {
          "token_": "the BIOP token addressss"
        }
      },
      "deposit(uint256,uint256)": {
        "details": "deposit tokens into the utilization rewards",
        "params": {
          "other": "the BIOP tokens to transfer into this contract from the multisig for trader/settler rewards",
          "staker": "the BIOP tokens to transfer into this contract from multisig for staker rewards"
        }
      },
      "distributeClaim(uint256,uint256,address)": {
        "details": "called by the binary options contract to claim Reward for user",
        "params": {
          "amountOther": "the amount in BIOP to transfer to this user for trading/settling",
          "amountStaker": "the amount in BIOP to transfer to this user for staking",
          "claimant": "the address who triggered the function higher up and should receive the claim*"
        }
      },
      "getLPStakingBonus(uint256,uint256,uint256,uint256,uint256)": {
        "details": "called by the binary options contract to claim Reward for user",
        "params": {
          "lastInterchange": "the total interchange the last time the LP staked/claimed",
          "lastStake": "timestamp of LPs last stake/claim",
          "stakedAmount": "amount the user has staked",
          "totalInterchange": "amount interchanged since LPs last claim",
          "totalStaked": "the total amount staked by all LPs*"
        }
      },
      "getStakingTimeBonus(uint256)": {
        "details": "calculate the staking time bonus",
        "params": {
          "lastStake": "blocknumber of LPs last stake/claim*"
        }
      },
      "getTradeExerciseBonus(uint256,uint256,bool)": {
        "details": "used for openposition/exercise/expire calc",
        "params": {
          "amount": "the option value",
          "completion": "false for an open position, true for exercise expire*",
          "totalLocked": "total LP pool size"
        }
      },
      "setupBinaryOptions(address)": {
        "params": {
          "options_": "the address of the binary options contract"
        }
      },
      "transferDAO(address)": {
        "details": "transfer ownership of this contract",
        "params": {
          "g_": "the new governance address"
        }
      },
      "updateDailyMax(uint256)": {
        "details": "deposit tokens into the utilization rewards",
        "params": {
          "nw": "the BIOP tokens to transfer into this contract from multisig"
        }
      },
      "updatePricePoint(uint256)": {
        "details": "deposit tokens into the utilization rewards",
        "params": {
          "newP": "the BIOP tokens to transfer into this contract from multisig"
        }
      },
      "withdraw()": {
        "details": "emergency withdraw function to recover funds if theres a error in the rewards contract"
      }
    }
  },
  "userdoc": {
    "methods": {
      "setupBinaryOptions(address)": {
        "notice": "function used at deployment to configure the connected binary options contract"
      }
    }
  }
}