{
  "contractName": "UtilizationRewards",
  "abi": [
    {
      "inputs": [
        {
          "internalType": "address",
          "name": "token_",
          "type": "address"
        }
      ],
      "stateMutability": "nonpayable",
      "type": "constructor"
    },
    {
      "inputs": [],
      "name": "bO",
      "outputs": [
        {
          "internalType": "address",
          "name": "",
          "type": "address"
        }
      ],
      "stateMutability": "view",
      "type": "function",
      "constant": true
    },
    {
      "inputs": [],
      "name": "claimedToday",
      "outputs": [
        {
          "internalType": "uint256",
          "name": "",
          "type": "uint256"
        }
      ],
      "stateMutability": "view",
      "type": "function",
      "constant": true
    },
    {
      "inputs": [],
      "name": "dailyMax",
      "outputs": [
        {
          "internalType": "uint256",
          "name": "",
          "type": "uint256"
        }
      ],
      "stateMutability": "view",
      "type": "function",
      "constant": true
    },
    {
      "inputs": [],
      "name": "otherBalance",
      "outputs": [
        {
          "internalType": "uint256",
          "name": "",
          "type": "uint256"
        }
      ],
      "stateMutability": "view",
      "type": "function",
      "constant": true
    },
    {
      "inputs": [],
      "name": "rwd",
      "outputs": [
        {
          "internalType": "uint256",
          "name": "",
          "type": "uint256"
        }
      ],
      "stateMutability": "view",
      "type": "function",
      "constant": true
    },
    {
      "inputs": [],
      "name": "stakerBalance",
      "outputs": [
        {
          "internalType": "uint256",
          "name": "",
          "type": "uint256"
        }
      ],
      "stateMutability": "view",
      "type": "function",
      "constant": true
    },
    {
      "inputs": [],
      "name": "todayStarted",
      "outputs": [
        {
          "internalType": "uint256",
          "name": "",
          "type": "uint256"
        }
      ],
      "stateMutability": "view",
      "type": "function",
      "constant": true
    },
    {
      "inputs": [
        {
          "internalType": "uint256",
          "name": "newP",
          "type": "uint256"
        }
      ],
      "name": "updatePricePoint",
      "outputs": [],
      "stateMutability": "nonpayable",
      "type": "function"
    },
    {
      "inputs": [
        {
          "internalType": "uint256",
          "name": "nw",
          "type": "uint256"
        }
      ],
      "name": "updateDailyMax",
      "outputs": [],
      "stateMutability": "nonpayable",
      "type": "function"
    },
    {
      "inputs": [
        {
          "internalType": "uint256",
          "name": "staker",
          "type": "uint256"
        },
        {
          "internalType": "uint256",
          "name": "other",
          "type": "uint256"
        }
      ],
      "name": "deposit",
      "outputs": [],
      "stateMutability": "nonpayable",
      "type": "function"
    },
    {
      "inputs": [],
      "name": "withdraw",
      "outputs": [],
      "stateMutability": "nonpayable",
      "type": "function"
    },
    {
      "inputs": [
        {
          "internalType": "uint256",
          "name": "amountStaker",
          "type": "uint256"
        },
        {
          "internalType": "uint256",
          "name": "amountOther",
          "type": "uint256"
        }
      ],
      "name": "distributeClaim",
      "outputs": [
        {
          "internalType": "uint256",
          "name": "",
          "type": "uint256"
        }
      ],
      "stateMutability": "nonpayable",
      "type": "function"
    },
    {
      "inputs": [
        {
          "internalType": "uint256",
          "name": "lastStake",
          "type": "uint256"
        }
      ],
      "name": "getStakingTimeBonus",
      "outputs": [
        {
          "internalType": "uint256",
          "name": "",
          "type": "uint256"
        }
      ],
      "stateMutability": "view",
      "type": "function",
      "constant": true
    },
    {
      "inputs": [
        {
          "internalType": "uint256",
          "name": "lastStake",
          "type": "uint256"
        },
        {
          "internalType": "uint256",
          "name": "lastInterchange",
          "type": "uint256"
        },
        {
          "internalType": "uint256",
          "name": "totalInterchange",
          "type": "uint256"
        },
        {
          "internalType": "uint256",
          "name": "stakedAmount",
          "type": "uint256"
        },
        {
          "internalType": "uint256",
          "name": "totalStaked",
          "type": "uint256"
        }
      ],
      "name": "getLPStakingBonus",
      "outputs": [
        {
          "internalType": "uint256",
          "name": "",
          "type": "uint256"
        }
      ],
      "stateMutability": "view",
      "type": "function",
      "constant": true
    },
    {
      "inputs": [
        {
          "internalType": "uint256",
          "name": "amount",
          "type": "uint256"
        },
        {
          "internalType": "uint256",
          "name": "totalLocked",
          "type": "uint256"
        },
        {
          "internalType": "bool",
          "name": "completion",
          "type": "bool"
        }
      ],
      "name": "getTradeExerciseBonus",
      "outputs": [
        {
          "internalType": "uint256",
          "name": "",
          "type": "uint256"
        }
      ],
      "stateMutability": "view",
      "type": "function",
      "constant": true
    },
    {
      "inputs": [
        {
          "internalType": "address payable",
          "name": "options_",
          "type": "address"
        }
      ],
      "name": "setupBinaryOptions",
      "outputs": [],
      "stateMutability": "nonpayable",
      "type": "function"
    },
    {
      "inputs": [
        {
          "internalType": "address payable",
          "name": "g_",
          "type": "address"
        }
      ],
      "name": "transferDAO",
      "outputs": [],
      "stateMutability": "nonpayable",
      "type": "function"
    }
  ],
  "bytecode": "0x6080604052600080546001600160a01b0319908116825560018054909116815560028290556003829055600482905560058290556006919091556008556132c860095534801561004e57600080fd5b50604051610ea1380380610ea18339818101604052602081101561007157600080fd5b505160018054336001600160a01b031991821617909155600780549091166001600160a01b03909216919091179055610df2806100af6000396000f3fe608060405234801561001057600080fd5b506004361061010b5760003560e01c80637ca76c94116100a2578063e0f67bc711610071578063e0f67bc714610263578063e2bbb1581461026b578063ed46ea201461028e578063ff1cb40c146102b9578063ff7bf87d146102c15761010b565b80637ca76c94146101f4578063a17110bf14610218578063a9d7401314610235578063db943fa11461023d5761010b565b806355ab96ba116100de57806355ab96ba14610174578063579314841461017c57806369185452146101b15780637a318866146101ce5761010b565b80631a8972d31461011057806335c580161461012a5780633ccfd60b1461014d5780633d4988ed14610157575b600080fd5b6101186102c9565b60408051918252519081900360200190f35b6101186004803603604081101561014057600080fd5b50803590602001356102cf565b6101556104b8565b005b6101556004803603602081101561016d57600080fd5b5035610602565b610118610654565b610118600480360360a081101561019257600080fd5b508035906020810135906040810135906060810135906080013561065a565b610118600480360360208110156101c757600080fd5b5035610681565b610155600480360360208110156101e457600080fd5b50356001600160a01b03166106d6565b6101fc610758565b604080516001600160a01b039092168252519081900360200190f35b6101556004803603602081101561022e57600080fd5b5035610767565b6101186107b9565b6101556004803603602081101561025357600080fd5b50356001600160a01b03166107bf565b61011861082e565b6101556004803603604081101561028157600080fd5b5080359060200135610834565b610118600480360360608110156102a457600080fd5b50803590602081013590604001351515610968565b610118610999565b61011861099f565b60095481565b600080546001600160a01b031633146103195760405162461bcd60e51b8152600401808060200182810382526032815260200180610d6a6032913960400191505060405180910390fd5b821561032b57610328836109a5565b92505b811561033d5761033a826109ef565b91505b6000610357610352858563ffffffff610a3916565b610a9a565b600754604080516370a0823160e01b8152306004820152905192935083926001600160a01b03909216916370a0823191602480820192602092909190829003018186803b1580156103a757600080fd5b505afa1580156103bb573d6000803e3d6000fd5b505050506040513d60208110156103d157600080fd5b50511015610426576040805162461bcd60e51b815260206004820152601d60248201527f696e737566666963656e742062616c616e63652072656d61696e696e67000000604482015290519081900360640190fd5b80156104ad576007546040805163a9059cbb60e01b81523260048201526024810184905290516001600160a01b039092169163a9059cbb916044808201926020929091908290030181600087803b15801561048057600080fd5b505af1158015610494573d6000803e3d6000fd5b505050506040513d60208110156104aa57600080fd5b50505b829150505b92915050565b6001546001600160a01b03163314610505576040805162461bcd60e51b815260206004820152601e6024820152600080516020610d4a833981519152604482015290519081900360640190fd5b600754604080516370a0823160e01b815230600482015290516001600160a01b039092169163a9059cbb91339184916370a08231916024808301926020929190829003018186803b15801561055957600080fd5b505afa15801561056d573d6000803e3d6000fd5b505050506040513d602081101561058357600080fd5b5051604080516001600160e01b031960e086901b1681526001600160a01b03909316600484015260248301919091525160448083019260209291908290030181600087803b1580156105d457600080fd5b505af11580156105e8573d6000803e3d6000fd5b505050506040513d60208110156105fe57600080fd5b5050565b6001546001600160a01b0316331461064f576040805162461bcd60e51b815260206004820152601e6024820152600080516020610d4a833981519152604482015290519081900360640190fd5b600855565b60055481565b600061067761066887610681565b6009549063ffffffff610b3916565b9695505050505050565b600081610690575060016106d1565b60006106a2438463ffffffff610b9216565b9050806106b35760019150506106d1565b6106cd6106bf82610bd4565b60019063ffffffff610a3916565b9150505b919050565b6001546001600160a01b03163314610723576040805162461bcd60e51b815260206004820152601e6024820152600080516020610d4a833981519152604482015290519081900360640190fd5b6001600160a01b03811661073657600080fd5b600180546001600160a01b0319166001600160a01b0392909216919091179055565b6000546001600160a01b031681565b6001546001600160a01b031633146107b4576040805162461bcd60e51b815260206004820152601e6024820152600080516020610d4a833981519152604482015290519081900360640190fd5b600255565b60035481565b6001546001600160a01b0316331461080c576040805162461bcd60e51b815260206004820152601e6024820152600080516020610d4a833981519152604482015290519081900360640190fd5b600080546001600160a01b0319166001600160a01b0392909216919091179055565b60025481565b6001546001600160a01b03163314610881576040805162461bcd60e51b815260206004820152601e6024820152600080516020610d4a833981519152604482015290519081900360640190fd5b6007546001600160a01b03166323b872dd33306108a4868663ffffffff610a3916565b6040518463ffffffff1660e01b815260040180846001600160a01b03166001600160a01b03168152602001836001600160a01b03166001600160a01b031681526020018281526020019350505050602060405180830381600087803b15801561090c57600080fd5b505af1158015610920573d6000803e3d6000fd5b505050506040513d602081101561093657600080fd5b505060055461094b908363ffffffff610a3916565b600555600654610961908263ffffffff610a3916565b6006555050565b60006109916008546109853a600954610b3990919063ffffffff16565b9063ffffffff610b9216565b949350505050565b60045481565b60065481565b6000600554600014156109ba575060006106d1565b6005548210156109e1576005546109d7908363ffffffff610c0b16565b60055550806106d1565b505060058054600090915590565b600060065460001415610a04575060006106d1565b600654821015610a2b57600654610a21908363ffffffff610c0b16565b60065550806106d1565b505060068054600090915590565b600082820183811015610a93576040805162461bcd60e51b815260206004820152601b60248201527f536166654d6174683a206164646974696f6e206f766572666c6f770000000000604482015290519081900360640190fd5b9392505050565b600454600090610ab3906201518063ffffffff610a3916565b421115610ac4574260045560006003555b6002546003541015610b3157600354600090610ae6908463ffffffff610a3916565b9050600254811015610afc5760035550806106d1565b600354600254610b119163ffffffff610c0b16565b600354909150610b27908263ffffffff610a3916565b60035590506106d1565b506000919050565b600082610b48575060006104b2565b82820282848281610b5557fe5b0414610a935760405162461bcd60e51b8152600401808060200182810382526021815260200180610d9c6021913960400191505060405180910390fd5b6000610a9383836040518060400160405280601a81526020017f536166654d6174683a206469766973696f6e206279207a65726f000000000000815250610c4d565b80600260018201045b81811015610c0557809150600281828581610bf457fe5b040181610bfd57fe5b049050610bdd565b50919050565b6000610a9383836040518060400160405280601e81526020017f536166654d6174683a207375627472616374696f6e206f766572666c6f770000815250610cef565b60008183610cd95760405162461bcd60e51b81526004018080602001828103825283818151815260200191508051906020019080838360005b83811015610c9e578181015183820152602001610c86565b50505050905090810190601f168015610ccb5780820380516001836020036101000a031916815260200191505b509250505060405180910390fd5b506000838581610ce557fe5b0495945050505050565b60008184841115610d415760405162461bcd60e51b8152602060048201818152835160248401528351909283926044909101919085019080838360008315610c9e578181015183820152602001610c86565b50505090039056fe4f776e61626c653a2063616c6c6572206973206e6f74207468652064616f00004f776e61626c653a2063616c6c6572206973206e6f74207468652042696e617279204f7074696f6e7320436f6e7472616374536166654d6174683a206d756c7469706c69636174696f6e206f766572666c6f77a2646970667358221220c759e36c34f275298072fe6ba37047c2d3c2dd07391eda47f2a2155e453bda5c64736f6c63430006060033",
  "immutableReferences": {},
  "source": "pragma solidity 0.6.6;\n\nimport \"@openzeppelin/contracts/math/SafeMath.sol\";\nimport \"@openzeppelin/contracts/token/ERC20/ERC20.sol\";\n\nimport \"./interfaces/IUtilizationRewards.sol\";\n\ncontract UtilizationRewards is IUtilizationRewards{\n    using SafeMath for uint256;\n    address public bO = 0x0000000000000000000000000000000000000000;//binary options\n    address payable dao = 0x0000000000000000000000000000000000000000;\n\n    uint256 public dailyMax = 0;\n    uint256 public claimedToday = 0;\n    uint256 public todayStarted = 0;\n\n    uint256 public stakerBalance = 0; //balance of BIOP tokens for stakers\n    uint256 public otherBalance = 0;//balance of BIOP tokens for trader/settler\n    ERC20 token;\n\n    uint256 pricePoint = 1;//the BIOP/ETH price ratio used to determine Trader/Settler gas rewards\n\n    //base rewards\n    uint256 public rwd = 13000;\n\n\n    /**\n     * @dev init the contract (dont forget to also configure setupBinaryOptions afterwards, and deposit tokens)\n     * @param token_ the BIOP token addressss\n     */\n    constructor(address token_) public {\n      dao = msg.sender;\n      token = ERC20(token_);\n    }\n\n     /**\n     * @dev deposit tokens into the utilization rewards\n\n     * @param newP the BIOP tokens to transfer into this contract from multisig\n     */\n    function updatePricePoint(uint256 newP) public onlyDAO {\n      pricePoint = newP;\n    }\n\n    /**\n     * @dev deposit tokens into the utilization rewards\n\n     * @param nw the BIOP tokens to transfer into this contract from multisig\n     */\n    function updateDailyMax(uint256 nw) public onlyDAO {\n      dailyMax = nw;\n    }\n\n\n\n     /**\n     * @dev deposit tokens into the utilization rewards\n\n     * @param staker the BIOP tokens to transfer into this contract from multisig for staker rewards\n     * @param other the BIOP tokens to transfer into this contract from the multisig for trader/settler rewards\n     */\n    function deposit(uint256 staker, uint256 other) public onlyDAO {\n      token.transferFrom(msg.sender, address(this), staker.add(other));\n      stakerBalance = stakerBalance.add(staker);\n      otherBalance = otherBalance.add(other);\n    }\n\n     /**\n     * @dev emergency withdraw function to recover funds if theres a error in the rewards contract\n     */\n    function withdraw() public onlyDAO {\n      token.transfer(msg.sender, token.balanceOf(address(this)));\n    }\n\n   /**\n     * restricts amount that can be transfered out for stakers \n     * @param amount input amount\n     **/\n    function stakerAmountGuard(uint256 amount ) internal returns (uint256) {\n        if (stakerBalance == 0) {\n            //no rewards available\n            return 0;\n        }\n        if (amount < stakerBalance) {\n            stakerBalance = stakerBalance.sub(amount);\n            return amount;\n        }\n        amount = stakerBalance;\n        stakerBalance = 0;\n        return amount;\n    }\n\n      /**\n     * restricts amount that can be transfered out for traders/settlers \n     * @param amount input amount\n     **/\n    function otherAmountGuard(uint256 amount ) internal returns (uint256) {\n        if (otherBalance == 0) {\n            //no rewards available\n            return 0;\n        }\n        if (amount < otherBalance) {\n            otherBalance = otherBalance.sub(amount);\n            return amount;\n        }\n        amount = otherBalance;\n        otherBalance = 0;\n        return amount;\n    }\n\n    /**\n     * @dev restriscts maximum amount that can be transfered out in a single day\n     * @param amount input amount\n     */\n    function dailyMaxGuard(uint256 amount) internal returns(uint256) {\n        if (block.timestamp > todayStarted.add(86400)) {\n            todayStarted = block.timestamp;\n            claimedToday = 0;\n        }\n\n        if (claimedToday < dailyMax) {\n            uint256 maxAmount = claimedToday.add(amount);\n            if (maxAmount < dailyMax) {\n                claimedToday = maxAmount;\n                return amount;\n            }\n            maxAmount = dailyMax.sub(claimedToday);\n            claimedToday = claimedToday.add(maxAmount);\n            return maxAmount;\n\n        }\n        return 0;\n    }\n\n\n\n    modifier onlyBinaryOptions() {\n        require(bO == msg.sender, \"Ownable: caller is not the Binary Options Contract\");\n        _;\n    }\n    modifier onlyDAO() {\n        require(dao == msg.sender, \"Ownable: caller is not the dao\");\n        _;\n    }\n\n   \n    /**\n     * @dev called by the binary options contract to claim Reward for user\n     * @param amountStaker the amount in BIOP to transfer to this user for staking\n     * @param amountOther the amount in BIOP to transfer to this user for trading/settling\n     **/\n    function distributeClaim(uint256 amountStaker, uint256 amountOther ) external override onlyBinaryOptions returns(uint256) {\n       if (amountStaker > 0) {\n            amountStaker = stakerAmountGuard(amountStaker);\n       }\n       if (amountOther > 0) {\n            amountOther = otherAmountGuard(amountOther);\n       }\n       uint256 total = dailyMaxGuard(amountStaker.add(amountOther));\n       require(token.balanceOf(address(this)) >= total, \"insufficent balance remaining\");\n       if (total > 0) {\n            token.transfer(tx.origin, total);\n       }\n       return amountOther;\n    }\n\n   \n\n    /**\n     * @dev calculate the staking time bonus\n     * @param lastStake blocknumber of LPs last stake/claim\n     **/\n    function getStakingTimeBonus(uint256 lastStake) public view returns(uint256) {\n        if (lastStake == 0) {\n            return 1;\n        }\n        uint256 b = block.number.div(lastStake);\n        if (b == 0) {\n            return 1;\n        }\n        return uint256(1).add(sqrt(b));\n    }\n\n    \n\n\n     /**\n     * @dev called by the binary options contract to claim Reward for user\n     * @param lastStake timestamp of LPs last stake/claim\n     * @param lastInterchange the total interchange the last time the LP staked/claimed\n     * @param totalInterchange amount interchanged since LPs last claim\n     * @param stakedAmount amount the user has staked\n     * @param totalStaked the total amount staked by all LPs\n     **/\n    function getLPStakingBonus(uint256 lastStake, uint256 lastInterchange, uint256 totalInterchange, uint256 stakedAmount, uint256 totalStaked) external override view returns(uint256) {\n        return rwd.mul(getStakingTimeBonus(lastStake));\n    }\n\n\n\n     /**\n     * @dev used for openposition/exercise/expire calc\n     * @param amount the option value\n     * @param totalLocked total LP pool size\n     * @param completion false for an open position, true for exercise expire\n     **/\n    function getTradeExerciseBonus(uint256 amount, uint256 totalLocked, bool completion) external view override returns(uint256) {\n        return (rwd.mul(tx.gasprice)).div(pricePoint);\n    }\n\n\n\n\n\n\n\n\n\n\n\n\n\n\n    // UTILS\n     /**\n     * @notice function used at deployment to configure the connected binary options contract\n     * @param options_ the address of the binary options contract\n     */\n    function setupBinaryOptions(address payable options_) external onlyDAO {\n        bO = options_;\n    }\n\n      /**\n     * @dev transfer ownership of this contract\n     * @param g_ the new governance address\n     */\n    function transferDAO(address payable g_) external override onlyDAO {\n        require(g_ != 0x0000000000000000000000000000000000000000);\n        dao = g_;\n    }\n\n    function sqrt(uint x) private view returns (uint y) {\n        uint z = (x + 1) / 2;\n        y = x;\n        while (z < y) {\n            y = z;\n            z = (x / z + z) / 2;\n        }\n    }\n    \n}\n",
  "sourcePath": "/Users/x/Desktop/eth/BIOPv4/contracts/UtilizationRewards.sol",
  "compiler": {
    "name": "solc",
    "version": "0.6.6+commit.6c089d02.Emscripten.clang"
  },
  "schemaVersion": "3.3.4",
  "updatedAt": "2021-06-05T16:25:03.453Z",
  "networkType": "ethereum",
  "devdoc": {
    "methods": {
      "constructor": {
        "details": "init the contract (dont forget to also configure setupBinaryOptions afterwards, and deposit tokens)",
        "params": {
          "token_": "the BIOP token addressss"
        }
      },
      "deposit(uint256,uint256)": {
        "details": "deposit tokens into the utilization rewards",
        "params": {
          "other": "the BIOP tokens to transfer into this contract from the multisig for trader/settler rewards",
          "staker": "the BIOP tokens to transfer into this contract from multisig for staker rewards"
        }
      },
      "distributeClaim(uint256,uint256)": {
        "details": "called by the binary options contract to claim Reward for user",
        "params": {
          "amountOther": "the amount in BIOP to transfer to this user for trading/settling*",
          "amountStaker": "the amount in BIOP to transfer to this user for staking"
        }
      },
      "getLPStakingBonus(uint256,uint256,uint256,uint256,uint256)": {
        "details": "called by the binary options contract to claim Reward for user",
        "params": {
          "lastInterchange": "the total interchange the last time the LP staked/claimed",
          "lastStake": "timestamp of LPs last stake/claim",
          "stakedAmount": "amount the user has staked",
          "totalInterchange": "amount interchanged since LPs last claim",
          "totalStaked": "the total amount staked by all LPs*"
        }
      },
      "getStakingTimeBonus(uint256)": {
        "details": "calculate the staking time bonus",
        "params": {
          "lastStake": "blocknumber of LPs last stake/claim*"
        }
      },
      "getTradeExerciseBonus(uint256,uint256,bool)": {
        "details": "used for openposition/exercise/expire calc",
        "params": {
          "amount": "the option value",
          "completion": "false for an open position, true for exercise expire*",
          "totalLocked": "total LP pool size"
        }
      },
      "setupBinaryOptions(address)": {
        "params": {
          "options_": "the address of the binary options contract"
        }
      },
      "transferDAO(address)": {
        "details": "transfer ownership of this contract",
        "params": {
          "g_": "the new governance address"
        }
      },
      "updateDailyMax(uint256)": {
        "details": "deposit tokens into the utilization rewards",
        "params": {
          "nw": "the BIOP tokens to transfer into this contract from multisig"
        }
      },
      "updatePricePoint(uint256)": {
        "details": "deposit tokens into the utilization rewards",
        "params": {
          "newP": "the BIOP tokens to transfer into this contract from multisig"
        }
      },
      "withdraw()": {
        "details": "emergency withdraw function to recover funds if theres a error in the rewards contract"
      }
    }
  },
  "userdoc": {
    "methods": {
      "setupBinaryOptions(address)": {
        "notice": "function used at deployment to configure the connected binary options contract"
      }
    }
  }
}