{
  "contractName": "UtilizationRewards",
  "abi": [
    {
      "inputs": [
        {
          "internalType": "address",
          "name": "token_",
          "type": "address"
        },
        {
          "internalType": "uint256",
          "name": "maxEpoch_",
          "type": "uint256"
        },
        {
          "internalType": "uint256",
          "name": "launchTime",
          "type": "uint256"
        }
      ],
      "stateMutability": "nonpayable",
      "type": "constructor"
    },
    {
      "inputs": [],
      "name": "bO",
      "outputs": [
        {
          "internalType": "address",
          "name": "",
          "type": "address"
        }
      ],
      "stateMutability": "view",
      "type": "function",
      "constant": true
    },
    {
      "inputs": [],
      "name": "eS",
      "outputs": [
        {
          "internalType": "uint256",
          "name": "",
          "type": "uint256"
        }
      ],
      "stateMutability": "view",
      "type": "function",
      "constant": true
    },
    {
      "inputs": [],
      "name": "epoch",
      "outputs": [
        {
          "internalType": "uint256",
          "name": "",
          "type": "uint256"
        }
      ],
      "stateMutability": "view",
      "type": "function",
      "constant": true
    },
    {
      "inputs": [],
      "name": "lEnd",
      "outputs": [
        {
          "internalType": "uint256",
          "name": "",
          "type": "uint256"
        }
      ],
      "stateMutability": "view",
      "type": "function",
      "constant": true
    },
    {
      "inputs": [],
      "name": "perE",
      "outputs": [
        {
          "internalType": "uint256",
          "name": "",
          "type": "uint256"
        }
      ],
      "stateMutability": "view",
      "type": "function",
      "constant": true
    },
    {
      "inputs": [],
      "name": "rwd",
      "outputs": [
        {
          "internalType": "uint256",
          "name": "",
          "type": "uint256"
        }
      ],
      "stateMutability": "view",
      "type": "function",
      "constant": true
    },
    {
      "inputs": [],
      "name": "tTE",
      "outputs": [
        {
          "internalType": "uint256",
          "name": "",
          "type": "uint256"
        }
      ],
      "stateMutability": "view",
      "type": "function",
      "constant": true
    },
    {
      "inputs": [
        {
          "internalType": "uint256",
          "name": "total",
          "type": "uint256"
        }
      ],
      "name": "deposit",
      "outputs": [],
      "stateMutability": "nonpayable",
      "type": "function"
    },
    {
      "inputs": [
        {
          "internalType": "address payable",
          "name": "g_",
          "type": "address"
        }
      ],
      "name": "transferGovernance",
      "outputs": [],
      "stateMutability": "nonpayable",
      "type": "function"
    },
    {
      "inputs": [
        {
          "internalType": "uint256",
          "name": "amount",
          "type": "uint256"
        }
      ],
      "name": "distributeClaim",
      "outputs": [],
      "stateMutability": "nonpayable",
      "type": "function"
    },
    {
      "inputs": [
        {
          "internalType": "uint256",
          "name": "lastStake",
          "type": "uint256"
        }
      ],
      "name": "getStakingTimeBonus",
      "outputs": [
        {
          "internalType": "uint256",
          "name": "",
          "type": "uint256"
        }
      ],
      "stateMutability": "view",
      "type": "function",
      "constant": true
    },
    {
      "inputs": [
        {
          "internalType": "uint256",
          "name": "locked",
          "type": "uint256"
        },
        {
          "internalType": "uint256",
          "name": "totalLocked",
          "type": "uint256"
        }
      ],
      "name": "getPoolBalanceBonus",
      "outputs": [
        {
          "internalType": "uint256",
          "name": "",
          "type": "uint256"
        }
      ],
      "stateMutability": "view",
      "type": "function",
      "constant": true
    },
    {
      "inputs": [
        {
          "internalType": "uint256",
          "name": "lastInterchange",
          "type": "uint256"
        },
        {
          "internalType": "uint256",
          "name": "totalInterchange",
          "type": "uint256"
        }
      ],
      "name": "getOptionValueBonus",
      "outputs": [
        {
          "internalType": "uint256",
          "name": "",
          "type": "uint256"
        }
      ],
      "stateMutability": "view",
      "type": "function",
      "constant": true
    },
    {
      "inputs": [
        {
          "internalType": "uint256",
          "name": "lastStake",
          "type": "uint256"
        },
        {
          "internalType": "uint256",
          "name": "lastInterchange",
          "type": "uint256"
        },
        {
          "internalType": "uint256",
          "name": "totalInterchange",
          "type": "uint256"
        },
        {
          "internalType": "uint256",
          "name": "stakedAmount",
          "type": "uint256"
        },
        {
          "internalType": "uint256",
          "name": "totalStaked",
          "type": "uint256"
        }
      ],
      "name": "getLPStakingBonus",
      "outputs": [
        {
          "internalType": "uint256",
          "name": "",
          "type": "uint256"
        }
      ],
      "stateMutability": "view",
      "type": "function",
      "constant": true
    },
    {
      "inputs": [
        {
          "internalType": "uint256",
          "name": "amount",
          "type": "uint256"
        },
        {
          "internalType": "uint256",
          "name": "totalLocked",
          "type": "uint256"
        },
        {
          "internalType": "bool",
          "name": "completion",
          "type": "bool"
        }
      ],
      "name": "getBetExerciseBonus",
      "outputs": [
        {
          "internalType": "uint256",
          "name": "",
          "type": "uint256"
        }
      ],
      "stateMutability": "view",
      "type": "function",
      "constant": true
    },
    {
      "inputs": [
        {
          "internalType": "address payable",
          "name": "options_",
          "type": "address"
        }
      ],
      "name": "setupBinaryOptions",
      "outputs": [],
      "stateMutability": "nonpayable",
      "type": "function"
    }
  ],
  "bytecode": "0x6080604052600080546001600160a01b0319908116825560018054909116905560035566470de4df82000060095534801561003957600080fd5b50604051610e97380380610e978339818101604052606081101561005c57600080fd5b508051602082015160409092015160018054336001600160a01b0319918216179091554291820160025562278d009091016004556c012c09a0d8d357a1e1a5ae2000600655600792909255600880549092166001600160a01b03909116179055610dcc806100cb6000396000f3fe608060405234801561001057600080fd5b50600436106101005760003560e01c80637eb7a2d311610097578063b6b55f2511610066578063b6b55f2514610245578063d38bfff414610262578063d58728b214610288578063db943fa11461029057610100565b80637eb7a2d3146101e7578063900cf0cf146101ef578063a538c798146101f7578063b2f894f81461022257610100565b806369185452116100d3578063691854521461017b57806377fa55b9146101985780637aee0148146101a05780637ca76c94146101c357610100565b806303d7ea011461010557806307f7fa3e146101245780631a8972d31461013e5780635793148414610146575b600080fd5b6101226004803603602081101561011b57600080fd5b50356102b6565b005b61012c6105fb565b60408051918252519081900360200190f35b61012c610601565b61012c600480360360a081101561015c57600080fd5b5080359060208101359060408101359060608101359060800135610607565b61012c6004803603602081101561019157600080fd5b5035610659565b61012c6106a4565b61012c600480360360408110156101b657600080fd5b50803590602001356106aa565b6101cb6107ae565b604080516001600160a01b039092168252519081900360200190f35b61012c6107bd565b61012c6107c3565b61012c6004803603606081101561020d57600080fd5b508035906020810135906040013515156107c9565b61012c6004803603604081101561023857600080fd5b50803590602001356107e9565b6101226004803603602081101561025b57600080fd5b5035610834565b6101226004803603602081101561027857600080fd5b50356001600160a01b031661091b565b61012c6109af565b610122600480360360208110156102a657600080fd5b50356001600160a01b03166109b5565b6000546001600160a01b031633146102ff5760405162461bcd60e51b8152600401808060200182810382526032815260200180610d446032913960400191505060405180910390fd5b4260025410156104a55761031a81600863ffffffff610a3616565b600854604080516370a0823160e01b815230600482015290516001600160a01b03909216916370a0823191602480820192602092909190829003018186803b15801561036557600080fd5b505afa158015610379573d6000803e3d6000fd5b505050506040513d602081101561038f57600080fd5b505110156103e4576040805162461bcd60e51b815260206004820152601d60248201527f696e737566666963656e742062616c616e63652072656d61696e696e67000000604482015290519081900360640190fd5b6103fd6103f882600863ffffffff610a3616565b610a96565b600880546001600160a01b03169063a9059cbb90329061042490859063ffffffff610a3616565b6040518363ffffffff1660e01b815260040180836001600160a01b03166001600160a01b0316815260200182815260200192505050602060405180830381600087803b15801561047357600080fd5b505af1158015610487573d6000803e3d6000fd5b505050506040513d602081101561049d57600080fd5b506105f89050565b600854604080516370a0823160e01b8152306004820152905183926001600160a01b0316916370a08231916024808301926020929190829003018186803b1580156104ef57600080fd5b505afa158015610503573d6000803e3d6000fd5b505050506040513d602081101561051957600080fd5b5051101561056e576040805162461bcd60e51b815260206004820152601d60248201527f696e737566666963656e742062616c616e63652072656d61696e696e67000000604482015290519081900360640190fd5b61057781610a96565b6008546040805163a9059cbb60e01b81523260048201526024810184905290516001600160a01b039092169163a9059cbb916044808201926020929091908290030181600087803b1580156105cb57600080fd5b505af11580156105df573d6000803e3d6000fd5b505050506040513d60208110156105f557600080fd5b50505b50565b60055481565b60095481565b600061064f61061686866107e9565b61064361062386866106aa565b61064361062f8b610659565b60095461064390600a63ffffffff610a3616565b9063ffffffff610a3616565b9695505050505050565b60008061066c428463ffffffff610b6916565b9050600061068382620bdd8063ffffffff610bab16565b9050620bdd8082101561069b5760019250505061069f565b9150505b919050565b60065481565b600082156107a45760648210156106c3575060016107a8565b6106d482600263ffffffff610bab16565b83106106e2575060146107a8565b6106f382600463ffffffff610bab16565b83106107015750600e6107a8565b61071282600563ffffffff610bab16565b83106107205750600a6107a8565b61073182600a63ffffffff610bab16565b831061073f575060086107a8565b61075082601463ffffffff610bab16565b831061075e575060066107a8565b61076f82603263ffffffff610bab16565b831061077d575060046107a8565b61078e82606463ffffffff610bab16565b831061079c575060036107a8565b5060026107a8565b5060005b92915050565b6000546001600160a01b031681565b60045481565b60035481565b6009546000906107e1906103e863ffffffff610bab16565b949350505050565b6000806107fc838563ffffffff610b6916565b905060006108188267016345785d8a000063ffffffff610bab16565b905080156108295791506107a89050565b506001949350505050565b6001546001600160a01b03163314610893576040805162461bcd60e51b815260206004820152601e60248201527f4f776e61626c653a2063616c6c6572206973206e6f74207468652064616f0000604482015290519081900360640190fd5b6007546108a790829063ffffffff610bab16565b6005556007546108be90829063ffffffff610bab16565b600655600854604080516323b872dd60e01b81523360048201523060248201526044810184905290516001600160a01b03909216916323b872dd916064808201926020929091908290030181600087803b1580156105cb57600080fd5b6001546001600160a01b0316331461097a576040805162461bcd60e51b815260206004820152601e60248201527f4f776e61626c653a2063616c6c6572206973206e6f74207468652064616f0000604482015290519081900360640190fd5b6001600160a01b03811661098d57600080fd5b600180546001600160a01b0319166001600160a01b0392909216919091179055565b60025481565b6001546001600160a01b03163314610a14576040805162461bcd60e51b815260206004820152601e60248201527f4f776e61626c653a2063616c6c6572206973206e6f74207468652064616f0000604482015290519081900360640190fd5b600080546001600160a01b0319166001600160a01b0392909216919091179055565b600082610a45575060006107a8565b82820282848281610a5257fe5b0414610a8f5760405162461bcd60e51b8152600401808060200182810382526021815260200180610d766021913960400191505060405180910390fd5b9392505050565b600654600090610aac908363ffffffff610b6916565b1015610aff576040805162461bcd60e51b815260206004820152601860248201527f696e737566666963656e7420636c61696d7320617661696c0000000000000000604482015290519081900360640190fd5b600654610b12908263ffffffff610b6916565b60065560045442118015610b295750600754600354105b156105f857600354610b4290600163ffffffff610bed16565b60035562278d004201600455600654600554610b639163ffffffff610bed16565b60065550565b6000610a8f83836040518060400160405280601e81526020017f536166654d6174683a207375627472616374696f6e206f766572666c6f770000815250610c47565b6000610a8f83836040518060400160405280601a81526020017f536166654d6174683a206469766973696f6e206279207a65726f000000000000815250610cde565b600082820183811015610a8f576040805162461bcd60e51b815260206004820152601b60248201527f536166654d6174683a206164646974696f6e206f766572666c6f770000000000604482015290519081900360640190fd5b60008184841115610cd65760405162461bcd60e51b81526004018080602001828103825283818151815260200191508051906020019080838360005b83811015610c9b578181015183820152602001610c83565b50505050905090810190601f168015610cc85780820380516001836020036101000a031916815260200191505b509250505060405180910390fd5b505050900390565b60008183610d2d5760405162461bcd60e51b8152602060048201818152835160248401528351909283926044909101919085019080838360008315610c9b578181015183820152602001610c83565b506000838581610d3957fe5b049594505050505056fe4f776e61626c653a2063616c6c6572206973206e6f74207468652042696e617279204f7074696f6e7320436f6e7472616374536166654d6174683a206d756c7469706c69636174696f6e206f766572666c6f77a2646970667358221220249d01aa8338849480fdf24977439adc955bec8940bc8bef8b09da358287326364736f6c63430006060033",
  "immutableReferences": {},
  "source": "pragma solidity ^0.6.6;\n\nimport \"@openzeppelin/contracts/math/SafeMath.sol\";\nimport \"@openzeppelin/contracts/token/ERC20/ERC20.sol\";\n\nimport \"./interfaces/IUtilizationRewards.sol\";\n\ncontract UtilizationRewards is IUtilizationRewards{\n    using SafeMath for uint256;\n    address public bO = 0x0000000000000000000000000000000000000000;//binary options\n    address payable dao = 0x0000000000000000000000000000000000000000;\n    uint256 public lEnd;//launch end\n    uint256 public epoch = 0; //rewards epoch \n    uint256 public eS;//end of current epoch\n    uint256 public perE;//rewards per epoch (650000000000000000000000000000 total)\n    uint256 public tTE;//claims left this epoch\n    uint256 maxEpoch;\n    ERC20 token;\n\n    //base rewards \n    uint256 public rwd = 20000000000000000;\n                                      \n\n    /** \n     * @dev init the contract (dont forget to also configure setupBinaryOptions afterwards, and deposit tokens)\n     * @param token_ the BIOP token addressss\n     * @param maxEpoch_ total number of reward epochs\n     * @param launchTime the length of the launch bonus multiplier (in seconds)\n     */\n    constructor(address token_, uint256 maxEpoch_, uint256 launchTime) public {\n      dao = msg.sender;\n      lEnd = block.timestamp + launchTime;\n      eS = block.timestamp + 30 days;\n      tTE = 92857142857142850000000000000;\n      maxEpoch = maxEpoch_;//7 was old default\n      token = ERC20(token_);\n    }\n\n     /** \n     * @dev deposit tokens into the utilization rewards\n    \n     * @param total the BIOP tokens to transfer into this contract from multisig\n     */\n    function deposit(uint256 total) public onlyDAO {\n\n      perE = total.div(maxEpoch); //amount per epoch\n      tTE = total.div(maxEpoch); \n\n      token.transferFrom(msg.sender, address(this), total);\n    }\n\n\n    \n    modifier onlyBinaryOptions() {\n        require(bO == msg.sender, \"Ownable: caller is not the Binary Options Contract\");\n        _;\n    }\n    modifier onlyDAO() {\n        require(dao == msg.sender, \"Ownable: caller is not the dao\");\n        _;\n    }\n\n    /** \n     * @dev transfer ownership of this contract\n     * @param g_ the new governance address\n     */\n    function transferGovernance(address payable g_) external override onlyDAO {\n        require(g_ != 0x0000000000000000000000000000000000000000);\n        dao = g_;\n    }\n\n    \n   \n\n\n    /**\n     * @dev called by the binary options contract to claim Reward for user\n     * @param amount the amount in BIOP to add to transfer to this user\n     **/\n    function distributeClaim(uint256 amount ) external override onlyBinaryOptions {\n        if (lEnd < block.timestamp) {\n            require(token.balanceOf(address(this)) >= amount.mul(8), \"insufficent balance remaining\");\n            updateEpoch(amount.mul(8));\n            token.transfer(tx.origin, amount.mul(8));\n        } else {\n            require(token.balanceOf(address(this)) >= amount, \"insufficent balance remaining\");\n            updateEpoch(amount);\n            token.transfer(tx.origin, amount);\n        }\n    }\n\n \n\n    /**\n     * @dev calculate the staking time bonus (1x every 9 days)\n     * @param lastStake timestamp of LPs last stake/claim\n     **/\n    function getStakingTimeBonus(uint256 lastStake) public view returns(uint256) {\n        uint256 dif = block.timestamp.sub(lastStake);\n        uint256 bonus = dif.div(777600);//9 days\n        if (dif < 777600) {\n            return 1;\n        }\n        return bonus;\n    }\n\n    /**\n     * @dev calculate the bonus for % of total LP pool\n     * @param locked amount the user has staked\n     * @param totalLocked the total amount staked by all LPs\n     **/\n    function getPoolBalanceBonus(uint256 locked, uint256 totalLocked) public view returns(uint256) {\n       \n        if (locked > 0) {\n\n            if (totalLocked < 100) { //guard\n                return 1;\n            }\n            \n\n            if (locked >= totalLocked.div(2)) {//50th percentile\n                return 20;\n            }\n\n            if (locked >= totalLocked.div(4)) {//25th percentile\n                return 14;\n            }\n\n            if (locked >= totalLocked.div(5)) {//20th percentile\n                return 10;\n            }\n\n            if (locked >= totalLocked.div(10)) {//10th percentile\n                return 8;\n            }\n\n            if (locked >= totalLocked.div(20)) {//5th percentile\n                return 6;\n            }\n\n            if (locked >= totalLocked.div(50)) {//2nd percentile\n                return 4;\n            }\n\n            if (locked >= totalLocked.div(100)) {//1st percentile\n                return 3;\n            }\n           \n           return 2;\n        } \n        return 0; \n    }\n\n     /**  \n    * @notice bonus based  on total interchange. The more bet's are used, the more rewards.\n    * @param lastInterchange the total interchange the last time the LP staked/claimed\n    * @param totalInterchange the total interchange now\n    */\n    function getOptionValueBonus(uint256 lastInterchange, uint256 totalInterchange) public view returns(uint256) {\n        uint256 dif = totalInterchange.sub(lastInterchange);\n        uint256 bonus = dif.div(100000000000000000);//.1ETH\n        if(bonus > 0){\n            return bonus;\n        }\n        return 1;\n    }\n\n     /**\n     * @dev called by the binary options contract to claim Reward for user\n     * @param lastStake timestamp of LPs last stake/claim\n     * @param lastInterchange the total interchange the last time the LP staked/claimed\n     * @param totalInterchange amount interchanged since LPs last claim\n     * @param stakedAmount amount the user has staked\n     * @param totalStaked the total amount staked by all LPs\n     **/\n    function getLPStakingBonus(uint256 lastStake, uint256 lastInterchange, uint256 totalInterchange, uint256 stakedAmount, uint256 totalStaked) external override view returns(uint256) {\n        return rwd.mul(10)\n                .mul(getStakingTimeBonus(lastStake))\n                .mul(getPoolBalanceBonus(stakedAmount, totalStaked))\n                .mul(getOptionValueBonus(lastInterchange, totalInterchange));\n    }\n\n\n\n     /**\n     * @dev used for betting/exercise/expire calc\n     * @param amount the amount of value in bet\n     * @param totalLocked total LP pool size\n     * @param completion false for bet, true for exercise expire\n     **/\n    function getBetExerciseBonus(uint256 amount, uint256 totalLocked, bool completion) external view override returns(uint256) {\n        return rwd.div(1000);\n    }\n\n\n\n\n\n\n\n\n\n\n\n\n\n\n\n    // UTILS\n\n    //epochs run 30 days. except the final epoch that goes on until rewards run out.\n    // unused rewards are rolled over into the next epoch.\n    function updateEpoch(uint256 amount) internal {\n            require(tTE.sub(amount) >= 0, \"insufficent claims avail\");\n            tTE = tTE.sub(amount);\n            if (block.timestamp > eS && epoch < maxEpoch) {\n                //every 30 days the next epoch can begin\n                epoch = epoch.add(1);\n                eS = block.timestamp + 30 days;\n                tTE = perE.add(tTE);\n            }\n    }\n     /**\n     * @notice one time function used at deployment to configure the connected binary options contract\n     * @param options_ the address of the binary options contract\n     */\n    function setupBinaryOptions(address payable options_) external onlyDAO {\n        bO = options_;\n    }\n}\n",
  "sourcePath": "/Users/x/Desktop/eth/BIOPv4/contracts/UtilizationRewards.sol",
  "compiler": {
    "name": "solc",
    "version": "0.6.6+commit.6c089d02.Emscripten.clang"
  },
  "schemaVersion": "3.3.4",
  "updatedAt": "2021-04-05T17:26:13.867Z",
  "networkType": "ethereum",
  "devdoc": {
    "methods": {
      "constructor": {
        "details": "init the contract (dont forget to also configure setupBinaryOptions afterwards, and deposit tokens)",
        "params": {
          "launchTime": "the length of the launch bonus multiplier (in seconds)",
          "maxEpoch_": "total number of reward epochs",
          "token_": "the BIOP token addressss"
        }
      },
      "deposit(uint256)": {
        "details": "deposit tokens into the utilization rewards",
        "params": {
          "total": "the BIOP tokens to transfer into this contract from multisig"
        }
      },
      "distributeClaim(uint256)": {
        "details": "called by the binary options contract to claim Reward for user",
        "params": {
          "amount": "the amount in BIOP to add to transfer to this user*"
        }
      },
      "getBetExerciseBonus(uint256,uint256,bool)": {
        "details": "used for betting/exercise/expire calc",
        "params": {
          "amount": "the amount of value in bet",
          "completion": "false for bet, true for exercise expire*",
          "totalLocked": "total LP pool size"
        }
      },
      "getLPStakingBonus(uint256,uint256,uint256,uint256,uint256)": {
        "details": "called by the binary options contract to claim Reward for user",
        "params": {
          "lastInterchange": "the total interchange the last time the LP staked/claimed",
          "lastStake": "timestamp of LPs last stake/claim",
          "stakedAmount": "amount the user has staked",
          "totalInterchange": "amount interchanged since LPs last claim",
          "totalStaked": "the total amount staked by all LPs*"
        }
      },
      "getOptionValueBonus(uint256,uint256)": {
        "params": {
          "lastInterchange": "the total interchange the last time the LP staked/claimed",
          "totalInterchange": "the total interchange now"
        }
      },
      "getPoolBalanceBonus(uint256,uint256)": {
        "details": "calculate the bonus for % of total LP pool",
        "params": {
          "locked": "amount the user has staked",
          "totalLocked": "the total amount staked by all LPs*"
        }
      },
      "getStakingTimeBonus(uint256)": {
        "details": "calculate the staking time bonus (1x every 9 days)",
        "params": {
          "lastStake": "timestamp of LPs last stake/claim*"
        }
      },
      "setupBinaryOptions(address)": {
        "params": {
          "options_": "the address of the binary options contract"
        }
      },
      "transferGovernance(address)": {
        "details": "transfer ownership of this contract",
        "params": {
          "g_": "the new governance address"
        }
      }
    }
  },
  "userdoc": {
    "methods": {
      "getOptionValueBonus(uint256,uint256)": {
        "notice": "bonus based  on total interchange. The more bet's are used, the more rewards."
      },
      "setupBinaryOptions(address)": {
        "notice": "one time function used at deployment to configure the connected binary options contract"
      }
    }
  }
}