{
  "contractName": "UtilizationRewards",
  "abi": [
    {
      "inputs": [
        {
          "internalType": "address",
          "name": "token_",
          "type": "address"
        },
        {
          "internalType": "uint256",
          "name": "maxEpoch_",
          "type": "uint256"
        },
        {
          "internalType": "uint256",
          "name": "launchTime",
          "type": "uint256"
        },
        {
          "internalType": "uint256",
          "name": "epochLength",
          "type": "uint256"
        }
      ],
      "stateMutability": "nonpayable",
      "type": "constructor"
    },
    {
      "inputs": [],
      "name": "bO",
      "outputs": [
        {
          "internalType": "address",
          "name": "",
          "type": "address"
        }
      ],
      "stateMutability": "view",
      "type": "function",
      "constant": true
    },
    {
      "inputs": [],
      "name": "eS",
      "outputs": [
        {
          "internalType": "uint256",
          "name": "",
          "type": "uint256"
        }
      ],
      "stateMutability": "view",
      "type": "function",
      "constant": true
    },
    {
      "inputs": [],
      "name": "epoch",
      "outputs": [
        {
          "internalType": "uint256",
          "name": "",
          "type": "uint256"
        }
      ],
      "stateMutability": "view",
      "type": "function",
      "constant": true
    },
    {
      "inputs": [],
      "name": "lEnd",
      "outputs": [
        {
          "internalType": "uint256",
          "name": "",
          "type": "uint256"
        }
      ],
      "stateMutability": "view",
      "type": "function",
      "constant": true
    },
    {
      "inputs": [],
      "name": "perE",
      "outputs": [
        {
          "internalType": "uint256",
          "name": "",
          "type": "uint256"
        }
      ],
      "stateMutability": "view",
      "type": "function",
      "constant": true
    },
    {
      "inputs": [],
      "name": "rwd",
      "outputs": [
        {
          "internalType": "uint256",
          "name": "",
          "type": "uint256"
        }
      ],
      "stateMutability": "view",
      "type": "function",
      "constant": true
    },
    {
      "inputs": [],
      "name": "tTE",
      "outputs": [
        {
          "internalType": "uint256",
          "name": "",
          "type": "uint256"
        }
      ],
      "stateMutability": "view",
      "type": "function",
      "constant": true
    },
    {
      "inputs": [
        {
          "internalType": "uint256",
          "name": "total",
          "type": "uint256"
        }
      ],
      "name": "deposit",
      "outputs": [],
      "stateMutability": "nonpayable",
      "type": "function"
    },
    {
      "inputs": [
        {
          "internalType": "address payable",
          "name": "g_",
          "type": "address"
        }
      ],
      "name": "transferDAO",
      "outputs": [],
      "stateMutability": "nonpayable",
      "type": "function"
    },
    {
      "inputs": [
        {
          "internalType": "uint256",
          "name": "amount",
          "type": "uint256"
        }
      ],
      "name": "distributeClaim",
      "outputs": [],
      "stateMutability": "nonpayable",
      "type": "function"
    },
    {
      "inputs": [
        {
          "internalType": "uint256",
          "name": "lastStake",
          "type": "uint256"
        }
      ],
      "name": "getStakingTimeBonus",
      "outputs": [
        {
          "internalType": "uint256",
          "name": "",
          "type": "uint256"
        }
      ],
      "stateMutability": "view",
      "type": "function",
      "constant": true
    },
    {
      "inputs": [
        {
          "internalType": "uint256",
          "name": "locked",
          "type": "uint256"
        },
        {
          "internalType": "uint256",
          "name": "totalLocked",
          "type": "uint256"
        }
      ],
      "name": "getPoolBalanceBonus",
      "outputs": [
        {
          "internalType": "uint256",
          "name": "",
          "type": "uint256"
        }
      ],
      "stateMutability": "view",
      "type": "function",
      "constant": true
    },
    {
      "inputs": [
        {
          "internalType": "uint256",
          "name": "lastInterchange",
          "type": "uint256"
        },
        {
          "internalType": "uint256",
          "name": "totalInterchange",
          "type": "uint256"
        }
      ],
      "name": "getOptionValueBonus",
      "outputs": [
        {
          "internalType": "uint256",
          "name": "",
          "type": "uint256"
        }
      ],
      "stateMutability": "view",
      "type": "function",
      "constant": true
    },
    {
      "inputs": [
        {
          "internalType": "uint256",
          "name": "lastStake",
          "type": "uint256"
        },
        {
          "internalType": "uint256",
          "name": "lastInterchange",
          "type": "uint256"
        },
        {
          "internalType": "uint256",
          "name": "totalInterchange",
          "type": "uint256"
        },
        {
          "internalType": "uint256",
          "name": "stakedAmount",
          "type": "uint256"
        },
        {
          "internalType": "uint256",
          "name": "totalStaked",
          "type": "uint256"
        }
      ],
      "name": "getLPStakingBonus",
      "outputs": [
        {
          "internalType": "uint256",
          "name": "",
          "type": "uint256"
        }
      ],
      "stateMutability": "view",
      "type": "function",
      "constant": true
    },
    {
      "inputs": [
        {
          "internalType": "uint256",
          "name": "amount",
          "type": "uint256"
        },
        {
          "internalType": "uint256",
          "name": "totalLocked",
          "type": "uint256"
        },
        {
          "internalType": "bool",
          "name": "completion",
          "type": "bool"
        }
      ],
      "name": "getTradeExerciseBonus",
      "outputs": [
        {
          "internalType": "uint256",
          "name": "",
          "type": "uint256"
        }
      ],
      "stateMutability": "view",
      "type": "function",
      "constant": true
    },
    {
      "inputs": [
        {
          "internalType": "uint256",
          "name": "amount",
          "type": "uint256"
        },
        {
          "internalType": "uint256",
          "name": "totalLocked",
          "type": "uint256"
        },
        {
          "internalType": "uint256",
          "name": "stack",
          "type": "uint256"
        }
      ],
      "name": "getCompleteBonus",
      "outputs": [
        {
          "internalType": "uint256",
          "name": "",
          "type": "uint256"
        }
      ],
      "stateMutability": "view",
      "type": "function",
      "constant": true
    },
    {
      "inputs": [
        {
          "internalType": "address payable",
          "name": "options_",
          "type": "address"
        }
      ],
      "name": "setupBinaryOptions",
      "outputs": [],
      "stateMutability": "nonpayable",
      "type": "function"
    }
  ],
  "bytecode": "0x6080604052600080546001600160a01b0319908116825560018054909116905560035566470de4df82000060095534801561003957600080fd5b50604051610f16380380610f168339818101604052608081101561005c57600080fd5b5080516020820151604083015160609093015160018054336001600160a01b031991821617909155429485016002559301600455600755600880549092166001600160a01b03909116179055610e5f806100b76000396000f3fe608060405234801561001057600080fd5b506004361061010b5760003560e01c80637ca76c94116100a2578063b2f894f811610071578063b2f894f814610251578063b6b55f2514610274578063d58728b214610291578063db943fa114610299578063ed46ea20146102bf5761010b565b80637ca76c94146101f45780637eb7a2d314610218578063900cf0cf14610220578063b0aca09e146102285761010b565b806369185452116100de578063691854521461018657806377fa55b9146101a35780637a318866146101ab5780637aee0148146101d15761010b565b806303d7ea011461011057806307f7fa3e1461012f5780631a8972d3146101495780635793148414610151575b600080fd5b61012d6004803603602081101561012657600080fd5b50356102ea565b005b61013761062f565b60408051918252519081900360200190f35b610137610635565b610137600480360360a081101561016757600080fd5b508035906020810135906040810135906060810135906080013561063b565b6101376004803603602081101561019c57600080fd5b503561068d565b6101376106d8565b61012d600480360360208110156101c157600080fd5b50356001600160a01b03166106de565b610137600480360360408110156101e757600080fd5b5080359060200135610772565b6101fc610876565b604080516001600160a01b039092168252519081900360200190f35b610137610885565b61013761088b565b6101376004803603606081101561023e57600080fd5b5080359060208101359060400135610891565b6101376004803603604081101561026757600080fd5b50803590602001356108f7565b61012d6004803603602081101561028a57600080fd5b5035610942565b610137610a29565b61012d600480360360208110156102af57600080fd5b50356001600160a01b0316610a2f565b610137600480360360608110156102d557600080fd5b50803590602081013590604001351515610ab0565b6000546001600160a01b031633146103335760405162461bcd60e51b8152600401808060200182810382526032815260200180610dd76032913960400191505060405180910390fd5b4260025410156104d95761034e81600863ffffffff610ad016565b600854604080516370a0823160e01b815230600482015290516001600160a01b03909216916370a0823191602480820192602092909190829003018186803b15801561039957600080fd5b505afa1580156103ad573d6000803e3d6000fd5b505050506040513d60208110156103c357600080fd5b50511015610418576040805162461bcd60e51b815260206004820152601d60248201527f696e737566666963656e742062616c616e63652072656d61696e696e67000000604482015290519081900360640190fd5b61043161042c82600863ffffffff610ad016565b610b29565b600880546001600160a01b03169063a9059cbb90329061045890859063ffffffff610ad016565b6040518363ffffffff1660e01b815260040180836001600160a01b03166001600160a01b0316815260200182815260200192505050602060405180830381600087803b1580156104a757600080fd5b505af11580156104bb573d6000803e3d6000fd5b505050506040513d60208110156104d157600080fd5b5061062c9050565b600854604080516370a0823160e01b8152306004820152905183926001600160a01b0316916370a08231916024808301926020929190829003018186803b15801561052357600080fd5b505afa158015610537573d6000803e3d6000fd5b505050506040513d602081101561054d57600080fd5b505110156105a2576040805162461bcd60e51b815260206004820152601d60248201527f696e737566666963656e742062616c616e63652072656d61696e696e67000000604482015290519081900360640190fd5b6105ab81610b29565b6008546040805163a9059cbb60e01b81523260048201526024810184905290516001600160a01b039092169163a9059cbb916044808201926020929091908290030181600087803b1580156105ff57600080fd5b505af1158015610613573d6000803e3d6000fd5b505050506040513d602081101561062957600080fd5b50505b50565b60055481565b60095481565b600061068361064a86866108f7565b6106776106578686610772565b6106776106638b61068d565b60095461067790600a63ffffffff610ad016565b9063ffffffff610ad016565b9695505050505050565b6000806106a0428463ffffffff610bfc16565b905060006106b782620bdd8063ffffffff610c3e16565b9050620bdd808210156106cf576001925050506106d3565b9150505b919050565b60065481565b6001546001600160a01b0316331461073d576040805162461bcd60e51b815260206004820152601e60248201527f4f776e61626c653a2063616c6c6572206973206e6f74207468652064616f0000604482015290519081900360640190fd5b6001600160a01b03811661075057600080fd5b600180546001600160a01b0319166001600160a01b0392909216919091179055565b6000821561086c57606482101561078b57506001610870565b61079c82600263ffffffff610c3e16565b83106107aa57506014610870565b6107bb82600463ffffffff610c3e16565b83106107c95750600e610870565b6107da82600563ffffffff610c3e16565b83106107e85750600a610870565b6107f982600a63ffffffff610c3e16565b831061080757506008610870565b61081882601463ffffffff610c3e16565b831061082657506006610870565b61083782603263ffffffff610c3e16565b831061084557506004610870565b61085682606463ffffffff610c3e16565b831061086457506003610870565b506002610870565b5060005b92915050565b6000546001600160a01b031681565b60045481565b60035481565b6000806108a583600a63ffffffff610c3e16565b905060648111156108cc576009546108c490600a63ffffffff610ad016565b9150506108f0565b6108c46108e16103e88363ffffffff610bfc16565b6009549063ffffffff610c3e16565b9392505050565b60008061090a838563ffffffff610bfc16565b905060006109268267016345785d8a000063ffffffff610c3e16565b905080156109375791506108709050565b506001949350505050565b6001546001600160a01b031633146109a1576040805162461bcd60e51b815260206004820152601e60248201527f4f776e61626c653a2063616c6c6572206973206e6f74207468652064616f0000604482015290519081900360640190fd5b6007546109b590829063ffffffff610c3e16565b6005556007546109cc90829063ffffffff610c3e16565b600655600854604080516323b872dd60e01b81523360048201523060248201526044810184905290516001600160a01b03909216916323b872dd916064808201926020929091908290030181600087803b1580156105ff57600080fd5b60025481565b6001546001600160a01b03163314610a8e576040805162461bcd60e51b815260206004820152601e60248201527f4f776e61626c653a2063616c6c6572206973206e6f74207468652064616f0000604482015290519081900360640190fd5b600080546001600160a01b0319166001600160a01b0392909216919091179055565b600954600090610ac8906103e863ffffffff610c3e16565b949350505050565b600082610adf57506000610870565b82820282848281610aec57fe5b04146108f05760405162461bcd60e51b8152600401808060200182810382526021815260200180610e096021913960400191505060405180910390fd5b600654600090610b3f908363ffffffff610bfc16565b1015610b92576040805162461bcd60e51b815260206004820152601860248201527f696e737566666963656e7420636c61696d7320617661696c0000000000000000604482015290519081900360640190fd5b600654610ba5908263ffffffff610bfc16565b60065560045442118015610bbc5750600754600354105b1561062c57600354610bd590600163ffffffff610c8016565b60035562278d004201600455600654600554610bf69163ffffffff610c8016565b60065550565b60006108f083836040518060400160405280601e81526020017f536166654d6174683a207375627472616374696f6e206f766572666c6f770000815250610cda565b60006108f083836040518060400160405280601a81526020017f536166654d6174683a206469766973696f6e206279207a65726f000000000000815250610d71565b6000828201838110156108f0576040805162461bcd60e51b815260206004820152601b60248201527f536166654d6174683a206164646974696f6e206f766572666c6f770000000000604482015290519081900360640190fd5b60008184841115610d695760405162461bcd60e51b81526004018080602001828103825283818151815260200191508051906020019080838360005b83811015610d2e578181015183820152602001610d16565b50505050905090810190601f168015610d5b5780820380516001836020036101000a031916815260200191505b509250505060405180910390fd5b505050900390565b60008183610dc05760405162461bcd60e51b8152602060048201818152835160248401528351909283926044909101919085019080838360008315610d2e578181015183820152602001610d16565b506000838581610dcc57fe5b049594505050505056fe4f776e61626c653a2063616c6c6572206973206e6f74207468652042696e617279204f7074696f6e7320436f6e7472616374536166654d6174683a206d756c7469706c69636174696f6e206f766572666c6f77a26469706673582212209af21d94bfdfe314ed62e10d2e7d141d4ba6499cbb141f895510167440ef8acb64736f6c63430006060033",
  "immutableReferences": {},
  "source": "pragma solidity ^0.6.6;\n\nimport \"@openzeppelin/contracts/math/SafeMath.sol\";\nimport \"@openzeppelin/contracts/token/ERC20/ERC20.sol\";\n\nimport \"./interfaces/IUtilizationRewards.sol\";\n\ncontract UtilizationRewards is IUtilizationRewards{\n    using SafeMath for uint256;\n    address public bO = 0x0000000000000000000000000000000000000000;//binary options\n    address payable dao = 0x0000000000000000000000000000000000000000;\n\n    //the launch period is an initial window during which all rewards distributed are multiplied by a bonus of 8x for early adopters\n    //the launch period length is set during the deployment of the contract using the launchTime variable. launchTime is the number of seconds for the launch period to last\n    uint256 public lEnd;//launch end\n\n    uint256 public epoch = 0; //rewards epoch\n    uint256 public eS;//end of current epoch\n    uint256 public perE;//rewards per epoch (650000000000000000000000000000 total)\n    uint256 public tTE;//claims left this epoch\n    uint256 maxEpoch;\n    ERC20 token;\n\n    //base rewards\n    uint256 public rwd = 20000000000000000;//0.02 BIOP\n\n\n    /**\n     * @dev init the contract (dont forget to also configure setupBinaryOptions afterwards, and deposit tokens)\n     * @param token_ the BIOP token addressss\n     * @param maxEpoch_ total number of reward epochs\n     * @param launchTime the length of the launch bonus multiplier (in seconds)\n     */\n    constructor(address token_, uint256 maxEpoch_, uint256 launchTime, uint256 epochLength) public {\n      dao = msg.sender;\n      lEnd = block.timestamp + launchTime;\n      eS = block.timestamp + epochLength;\n      maxEpoch = maxEpoch_;//a variable manually set during deployment\n      token = ERC20(token_);\n    }\n\n     /**\n     * @dev deposit tokens into the utilization rewards\n\n     * @param total the BIOP tokens to transfer into this contract from multisig\n     */\n    function deposit(uint256 total) public onlyDAO {\n\n      perE = total.div(maxEpoch); //amount per epoch\n      tTE = total.div(maxEpoch);\n\n      token.transferFrom(msg.sender, address(this), total);\n    }\n\n\n\n    modifier onlyBinaryOptions() {\n        require(bO == msg.sender, \"Ownable: caller is not the Binary Options Contract\");\n        _;\n    }\n    modifier onlyDAO() {\n        require(dao == msg.sender, \"Ownable: caller is not the dao\");\n        _;\n    }\n\n    /**\n     * @dev transfer ownership of this contract\n     * @param g_ the new governance address\n     */\n    function transferDAO(address payable g_) external override onlyDAO {\n        require(g_ != 0x0000000000000000000000000000000000000000);\n        dao = g_;\n    }\n\n\n\n\n\n    /**\n     * @dev called by the binary options contract to claim Reward for user\n     * @param amount the amount in BIOP to add to transfer to this user\n     **/\n    function distributeClaim(uint256 amount ) external override onlyBinaryOptions {\n        if (lEnd < block.timestamp) {\n            require(token.balanceOf(address(this)) >= amount.mul(8), \"insufficent balance remaining\");\n            updateEpoch(amount.mul(8));\n            token.transfer(tx.origin, amount.mul(8));\n        } else {\n            require(token.balanceOf(address(this)) >= amount, \"insufficent balance remaining\");\n            updateEpoch(amount);\n            token.transfer(tx.origin, amount);\n        }\n    }\n\n\n\n    /**\n     * @dev calculate the staking time bonus (1x every 9 days)\n     * @param lastStake timestamp of LPs last stake/claim\n     **/\n    function getStakingTimeBonus(uint256 lastStake) public view returns(uint256) {\n        uint256 dif = block.timestamp.sub(lastStake);\n        uint256 bonus = dif.div(777600);//9 days\n        if (dif < 777600) {\n            return 1;\n        }\n        return bonus;\n    }\n\n    /**\n     * @dev calculate the bonus for % of total LP pool\n     * @param locked amount the user has staked\n     * @param totalLocked the total amount staked by all LPs\n     **/\n    function getPoolBalanceBonus(uint256 locked, uint256 totalLocked) public view returns(uint256) {\n\n        if (locked > 0) {\n\n            if (totalLocked < 100) { //guard\n                return 1;\n            }\n\n\n            if (locked >= totalLocked.div(2)) {//50th percentile\n                return 20;\n            }\n\n            if (locked >= totalLocked.div(4)) {//25th percentile\n                return 14;\n            }\n\n            if (locked >= totalLocked.div(5)) {//20th percentile\n                return 10;\n            }\n\n            if (locked >= totalLocked.div(10)) {//10th percentile\n                return 8;\n            }\n\n            if (locked >= totalLocked.div(20)) {//5th percentile\n                return 6;\n            }\n\n            if (locked >= totalLocked.div(50)) {//2nd percentile\n                return 4;\n            }\n\n            if (locked >= totalLocked.div(100)) {//1st percentile\n                return 3;\n            }\n\n           return 2;\n        }\n        return 0;\n    }\n\n     /**\n    * @notice bonus based  on total interchange. The more bet's are used, the more rewards.\n    * @param lastInterchange the total interchange the last time the LP staked/claimed\n    * @param totalInterchange the total interchange now\n    */\n    function getOptionValueBonus(uint256 lastInterchange, uint256 totalInterchange) public view returns(uint256) {\n        uint256 dif = totalInterchange.sub(lastInterchange);\n        uint256 bonus = dif.div(100000000000000000);//.1ETH\n        if(bonus > 0){\n            return bonus;\n        }\n        return 1;\n    }\n\n\n     /**\n     * @dev called by the binary options contract to claim Reward for user\n     * @param lastStake timestamp of LPs last stake/claim\n     * @param lastInterchange the total interchange the last time the LP staked/claimed\n     * @param totalInterchange amount interchanged since LPs last claim\n     * @param stakedAmount amount the user has staked\n     * @param totalStaked the total amount staked by all LPs\n     **/\n    function getLPStakingBonus(uint256 lastStake, uint256 lastInterchange, uint256 totalInterchange, uint256 stakedAmount, uint256 totalStaked) external override view returns(uint256) {\n        return rwd.mul(10)\n                .mul(getStakingTimeBonus(lastStake))\n                .mul(getPoolBalanceBonus(stakedAmount, totalStaked))\n                .mul(getOptionValueBonus(lastInterchange, totalInterchange));\n    }\n\n\n\n     /**\n     * @dev used for openposition/exercise/expire calc\n     * @param amount the amount of value in bet\n     * @param totalLocked total LP pool size\n     * @param completion false for bet, true for exercise expire\n     **/\n    function getTradeExerciseBonus(uint256 amount, uint256 totalLocked, bool completion) external view override returns(uint256) {\n        return rwd.div(1000);\n    }\n\n     /**\n     * @dev used for exercise/expire calc\n     * @param amount the amount of value in bet\n     * @param totalLocked total LP pool size\n     * @param stack total LP pool size\n     **/\n    function getCompleteBonus(uint256 amount, uint256 totalLocked, uint256 stack) external view override returns(uint256) {\n        uint256 multiplier = stack.div(10);\n\n        if (multiplier > 100) {\n            return rwd.mul(10);\n        } else {\n            return rwd.div(uint256(1000).sub(multiplier));\n        }\n    }\n\n\n\n\n\n\n\n\n\n\n\n\n\n\n\n\n    // UTILS\n\n    //epochs run 30 days. except the final epoch that goes on until rewards run out.\n    // unused rewards are rolled over into the next epoch.\n    function updateEpoch(uint256 amount) internal {\n            require(tTE.sub(amount) >= 0, \"insufficent claims avail\");\n            tTE = tTE.sub(amount);\n            if (block.timestamp > eS && epoch < maxEpoch) {\n                //every 30 days the next epoch can begin\n                epoch = epoch.add(1);\n                eS = block.timestamp + 30 days;\n                tTE = perE.add(tTE);\n            }\n    }\n     /**\n     * @notice one time function used at deployment to configure the connected binary options contract\n     * @param options_ the address of the binary options contract\n     */\n    function setupBinaryOptions(address payable options_) external onlyDAO {\n        bO = options_;\n    }\n}\n",
  "sourcePath": "/Users/x/Desktop/eth/BIOPv4/contracts/UtilizationRewards.sol",
  "compiler": {
    "name": "solc",
    "version": "0.6.6+commit.6c089d02.Emscripten.clang"
  },
  "schemaVersion": "3.3.4",
  "updatedAt": "2021-05-21T05:28:33.108Z",
  "networkType": "ethereum",
  "devdoc": {
    "methods": {
      "constructor": {
        "details": "init the contract (dont forget to also configure setupBinaryOptions afterwards, and deposit tokens)",
        "params": {
          "launchTime": "the length of the launch bonus multiplier (in seconds)",
          "maxEpoch_": "total number of reward epochs",
          "token_": "the BIOP token addressss"
        }
      },
      "deposit(uint256)": {
        "details": "deposit tokens into the utilization rewards",
        "params": {
          "total": "the BIOP tokens to transfer into this contract from multisig"
        }
      },
      "distributeClaim(uint256)": {
        "details": "called by the binary options contract to claim Reward for user",
        "params": {
          "amount": "the amount in BIOP to add to transfer to this user*"
        }
      },
      "getCompleteBonus(uint256,uint256,uint256)": {
        "details": "used for exercise/expire calc",
        "params": {
          "amount": "the amount of value in bet",
          "stack": "total LP pool size*",
          "totalLocked": "total LP pool size"
        }
      },
      "getLPStakingBonus(uint256,uint256,uint256,uint256,uint256)": {
        "details": "called by the binary options contract to claim Reward for user",
        "params": {
          "lastInterchange": "the total interchange the last time the LP staked/claimed",
          "lastStake": "timestamp of LPs last stake/claim",
          "stakedAmount": "amount the user has staked",
          "totalInterchange": "amount interchanged since LPs last claim",
          "totalStaked": "the total amount staked by all LPs*"
        }
      },
      "getOptionValueBonus(uint256,uint256)": {
        "params": {
          "lastInterchange": "the total interchange the last time the LP staked/claimed",
          "totalInterchange": "the total interchange now"
        }
      },
      "getPoolBalanceBonus(uint256,uint256)": {
        "details": "calculate the bonus for % of total LP pool",
        "params": {
          "locked": "amount the user has staked",
          "totalLocked": "the total amount staked by all LPs*"
        }
      },
      "getStakingTimeBonus(uint256)": {
        "details": "calculate the staking time bonus (1x every 9 days)",
        "params": {
          "lastStake": "timestamp of LPs last stake/claim*"
        }
      },
      "getTradeExerciseBonus(uint256,uint256,bool)": {
        "details": "used for openposition/exercise/expire calc",
        "params": {
          "amount": "the amount of value in bet",
          "completion": "false for bet, true for exercise expire*",
          "totalLocked": "total LP pool size"
        }
      },
      "setupBinaryOptions(address)": {
        "params": {
          "options_": "the address of the binary options contract"
        }
      },
      "transferDAO(address)": {
        "details": "transfer ownership of this contract",
        "params": {
          "g_": "the new governance address"
        }
      }
    }
  },
  "userdoc": {
    "methods": {
      "getOptionValueBonus(uint256,uint256)": {
        "notice": "bonus based  on total interchange. The more bet's are used, the more rewards."
      },
      "setupBinaryOptions(address)": {
        "notice": "one time function used at deployment to configure the connected binary options contract"
      }
    }
  }
}