{
  "contractName": "V2V3Claim",
  "abi": [
    {
      "inputs": [
        {
          "internalType": "address",
          "name": "token_",
          "type": "address"
        },
        {
          "internalType": "address",
          "name": "v2_",
          "type": "address"
        },
        {
          "internalType": "address",
          "name": "v3_",
          "type": "address"
        },
        {
          "internalType": "uint256",
          "name": "total",
          "type": "uint256"
        }
      ],
      "stateMutability": "nonpayable",
      "type": "constructor"
    },
    {
      "inputs": [],
      "name": "v2",
      "outputs": [
        {
          "internalType": "address",
          "name": "",
          "type": "address"
        }
      ],
      "stateMutability": "view",
      "type": "function"
    },
    {
      "inputs": [],
      "name": "v3",
      "outputs": [
        {
          "internalType": "address",
          "name": "",
          "type": "address"
        }
      ],
      "stateMutability": "view",
      "type": "function"
    },
    {
      "inputs": [],
      "name": "claim",
      "outputs": [],
      "stateMutability": "nonpayable",
      "type": "function"
    }
  ],
  "bytecode": "0x608060405234801561001057600080fd5b506040516103013803806103018339818101604052608081101561003357600080fd5b508051602080830151604080850151606090950151600080546001600160a01b0319908116339081178355600180546001600160a01b03808b1691909416179081905585516323b872dd60e01b81526004810192909252306024830152604482018590529451979895979596939594909116936323b872dd9360648084019491938390030190829087803b1580156100ca57600080fd5b505af11580156100de573d6000803e3d6000fd5b505050506040513d60208110156100f457600080fd5b50507359ce5702f124ae45d63ae1c531e41b8c456a072d600052505060046020525050629896807fe51a1d58699551a726e798b1dbee933fb480c4f41f4442586f6c4c3e1c3d551e556101b58061014c6000396000f3fe608060405234801561001057600080fd5b50600436106100415760003560e01c80634e71d92d146100465780636257a38e14610050578063f3acae3a14610074575b600080fd5b61004e61007c565b005b610058610161565b604080516001600160a01b039092168252519081900360200190f35b610058610170565b33600090815260046020526040902054806100d1576040805162461bcd60e51b815260206004820152601060248201526f6e6f7468696e6720746f20636c61696d60801b604482015290519081900360640190fd5b336000818152600460208181526040808420849055600154815163a9059cbb60e01b81529384019590955260248301869052516001600160a01b039094169363a9059cbb936044808501948390030190829087803b15801561013257600080fd5b505af1158015610146573d6000803e3d6000fd5b505050506040513d602081101561015c57600080fd5b505050565b6002546001600160a01b031681565b6003546001600160a01b03168156fea2646970667358221220d17715799c80d22a967af801467a4a724963bdc1628140e09002e2a55dae77e464736f6c63430006060033",
  "immutableReferences": {},
  "source": "pragma solidity ^0.6.6;\n\nimport \"@openzeppelin/contracts/math/SafeMath.sol\";\nimport \"@openzeppelin/contracts/token/ERC20/ERC20.sol\";\n\nimport \"./BIOPToken.sol\";\ncontract V2V3Claim{\n\n    using SafeMath for uint256;\n\n    address payable dao;\n\n    ERC20 token;\n    address public v3;\n    address public v2;\n    mapping(address=>uint256) claimants;\n\n    constructor(address token_, address v2_, address v3_, uint256 total) public {\n      dao = msg.sender;\n\n      token = ERC20(token_);\n      token.transferFrom(msg.sender, address(this), total);\n\n      //hardcode all claimants here\n      claimants[0x59cE5702F124ae45D63ae1c531E41b8c456a072d] = 10000000;\n    }\n\n     /**\n     * @dev one time claim\n     * @notice you can only claim once\n     */\n    function claim() external {\n        uint256 toSend = claimants[msg.sender];\n        require(toSend > 0, \"nothing to claim\");\n        claimants[msg.sender] = 0;\n        token.transfer(msg.sender, toSend);\n    }\n\n   \n}\n",
  "sourcePath": "/Users/x/Desktop/eth/BIOPv4/contracts/V2V3Claim.sol",
  "compiler": {
    "name": "solc",
    "version": "0.6.6+commit.6c089d02.Emscripten.clang"
  },
  "schemaVersion": "3.3.4",
  "updatedAt": "2021-03-22T19:19:04.207Z",
  "devdoc": {
    "methods": {
      "claim()": {
        "details": "one time claim"
      }
    }
  },
  "userdoc": {
    "methods": {
      "claim()": {
        "notice": "you can only claim once"
      }
    }
  }
}