{
  "contractName": "V2V3Swap",
  "abi": [
    {
      "inputs": [
        {
          "internalType": "address",
          "name": "token_",
          "type": "address"
        },
        {
          "internalType": "address",
          "name": "v2_",
          "type": "address"
        },
        {
          "internalType": "address",
          "name": "v3_",
          "type": "address"
        },
        {
          "internalType": "uint256",
          "name": "total",
          "type": "uint256"
        }
      ],
      "stateMutability": "nonpayable",
      "type": "constructor"
    },
    {
      "inputs": [],
      "name": "v2",
      "outputs": [
        {
          "internalType": "address",
          "name": "",
          "type": "address"
        }
      ],
      "stateMutability": "view",
      "type": "function"
    },
    {
      "inputs": [],
      "name": "v3",
      "outputs": [
        {
          "internalType": "address",
          "name": "",
          "type": "address"
        }
      ],
      "stateMutability": "view",
      "type": "function"
    },
    {
      "inputs": [
        {
          "internalType": "uint256",
          "name": "amount",
          "type": "uint256"
        }
      ],
      "name": "swapv2v4",
      "outputs": [],
      "stateMutability": "nonpayable",
      "type": "function"
    },
    {
      "inputs": [
        {
          "internalType": "uint256",
          "name": "amount",
          "type": "uint256"
        }
      ],
      "name": "swapv3v4",
      "outputs": [],
      "stateMutability": "nonpayable",
      "type": "function"
    }
  ],
  "bytecode": "0x608060405234801561001057600080fd5b506040516105a13803806105a18339818101604052608081101561003357600080fd5b50805160208083015160408085015160609095015160008054336001600160a01b0319918216811783556002805483166001600160a01b03808c169190911790915560038054841682891617905560018054909316818a16179283905585516323b872dd60e01b81526004810192909252306024830152604482018590529451979895979596939591909416936323b872dd936064808301949193928390030190829087803b1580156100e557600080fd5b505af11580156100f9573d6000803e3d6000fd5b505050506040513d602081101561010f57600080fd5b50505050505061047d806101246000396000f3fe608060405234801561001057600080fd5b506004361061004c5760003560e01c80636257a38e146100515780636f2a372c14610075578063f3acae3a14610094578063f57b84311461009c575b600080fd5b6100596100b9565b604080516001600160a01b039092168252519081900360200190f35b6100926004803603602081101561008b57600080fd5b50356100c8565b005b610059610365565b610092600480360360208110156100b257600080fd5b5035610374565b6002546001600160a01b031681565b600254604080516370a0823160e01b815233600482015290516001600160a01b039092169160009183916370a0823191602480820192602092909190829003018186803b15801561011857600080fd5b505afa15801561012c573d6000803e3d6000fd5b505050506040513d602081101561014257600080fd5b505190508281101561019b576040805162461bcd60e51b815260206004820152601a60248201527f696e737566666963656e742062696f7076332062616c616e6365000000000000604482015290519081900360640190fd5b600154604080516370a0823160e01b8152306004820152905185926001600160a01b0316916370a08231916024808301926020929190829003018186803b1580156101e557600080fd5b505afa1580156101f9573d6000803e3d6000fd5b505050506040513d602081101561020f57600080fd5b5051101561021c57600080fd5b604080516323b872dd60e01b81523360048201523060248201526044810185905290516001600160a01b038416916323b872dd9160648083019260209291908290030181600087803b15801561027157600080fd5b505af1158015610285573d6000803e3d6000fd5b505050506040513d602081101561029b57600080fd5b50516102e0576040805162461bcd60e51b815260206004820152600f60248201526e1d1c985b9cd9995c8819985a5b1959608a1b604482015290519081900360640190fd5b6001546040805163a9059cbb60e01b81523360048201526024810186905290516001600160a01b039092169163a9059cbb916044808201926020929091908290030181600087803b15801561033457600080fd5b505af1158015610348573d6000803e3d6000fd5b505050506040513d602081101561035e57600080fd5b5050505050565b6003546001600160a01b031681565b600354604080516370a0823160e01b815233600482015290516001600160a01b039092169160009183916370a0823191602480820192602092909190829003018186803b1580156103c457600080fd5b505afa1580156103d8573d6000803e3d6000fd5b505050506040513d60208110156103ee57600080fd5b505190508281101561019b576040805162461bcd60e51b815260206004820152601a60248201527f696e737566666963656e742062696f7076322062616c616e6365000000000000604482015290519081900360640190fdfea2646970667358221220ed0e5ae4c961aec3be73a60775f9d5c5167fbddb3f4ab3ce526c7e491de08dd364736f6c63430006060033",
  "immutableReferences": {},
  "source": "pragma solidity ^0.6.6;\n\n    //DEPRECIATE USER V2V3Claim intead!!!!!!!!\nimport \"@openzeppelin/contracts/math/SafeMath.sol\";\nimport \"@openzeppelin/contracts/token/ERC20/ERC20.sol\";\n\nimport \"../BIOPToken.sol\";\ncontract V2V3Swap{\n\n    //DEPRECIATE USER V2V3Claim intead!!!!!!!!\n    using SafeMath for uint256;\n\n    address payable dao;\n\n    ERC20 token;\n    address public v3;\n    address public v2;\n\n    constructor(address token_, address v2_, address v3_, uint256 total) public {\n      dao = msg.sender;\n      v3 = v3_;\n      v2 = v2_;\n\n      token = ERC20(token_);\n      token.transferFrom(msg.sender, address(this), total);\n    }\n    //DEPRECIATE USER V2V3Claim intead!!!!!!!!\n\n     /**\n     * @dev one time swap of v2 to v4 tokens\n     * @param amount the amount of tokens to swap\n     */\n    function swapv2v4(uint256 amount) external {\n        BIOPToken b2 = BIOPToken(v2);\n        uint256 balance = b2.balanceOf(msg.sender);\n        require(balance >= amount, \"insufficent biopv2 balance\");\n        require(token.balanceOf(address(this)) >= amount);\n        require(b2.transferFrom(msg.sender, address(this), amount), \"transfer failed\");\n        token.transfer(msg.sender, amount);\n    }\n\n    /**\n     * @dev one time swap of v3 to v4 tokens\n     * @param amount the amount of tokens to swap\n     */\n    function swapv3v4(uint256 amount) external {\n        BIOPToken b3 = BIOPToken(v3);\n        uint256 balance = b3.balanceOf(msg.sender);\n        require(balance >= amount, \"insufficent biopv3 balance\");\n        require(token.balanceOf(address(this)) >= amount);\n        require(b3.transferFrom(msg.sender, address(this), amount), \"transfer failed\");\n        token.transfer(msg.sender, amount);\n    }\n\n    //DEPRECIATE USER V2V3Claim intead!!!!!!!!\n}\n",
  "sourcePath": "/Users/x/Desktop/eth/BIOPv4/contracts/depreciated/V2V3Swap.sol",
  "compiler": {
    "name": "solc",
    "version": "0.6.6+commit.6c089d02.Emscripten.clang"
  },
  "schemaVersion": "3.3.4",
  "updatedAt": "2021-03-22T19:19:04.211Z",
  "devdoc": {
    "methods": {
      "swapv2v4(uint256)": {
        "details": "one time swap of v2 to v4 tokens",
        "params": {
          "amount": "the amount of tokens to swap"
        }
      },
      "swapv3v4(uint256)": {
        "details": "one time swap of v3 to v4 tokens",
        "params": {
          "amount": "the amount of tokens to swap"
        }
      }
    }
  },
  "userdoc": {
    "methods": {}
  }
}