{
  "contractName": "V2V3Swap",
  "abi": [
    {
      "inputs": [
        {
          "internalType": "address",
          "name": "token_",
          "type": "address"
        },
        {
          "internalType": "address",
          "name": "v2_",
          "type": "address"
        },
        {
          "internalType": "address",
          "name": "v3_",
          "type": "address"
        }
      ],
      "stateMutability": "nonpayable",
      "type": "constructor"
    },
    {
      "inputs": [],
      "name": "owner",
      "outputs": [
        {
          "internalType": "address payable",
          "name": "",
          "type": "address"
        }
      ],
      "stateMutability": "view",
      "type": "function"
    },
    {
      "inputs": [],
      "name": "token",
      "outputs": [
        {
          "internalType": "address",
          "name": "",
          "type": "address"
        }
      ],
      "stateMutability": "view",
      "type": "function"
    },
    {
      "inputs": [],
      "name": "v2",
      "outputs": [
        {
          "internalType": "address",
          "name": "",
          "type": "address"
        }
      ],
      "stateMutability": "view",
      "type": "function"
    },
    {
      "inputs": [],
      "name": "v3",
      "outputs": [
        {
          "internalType": "address",
          "name": "",
          "type": "address"
        }
      ],
      "stateMutability": "view",
      "type": "function"
    },
    {
      "inputs": [
        {
          "internalType": "uint256",
          "name": "total",
          "type": "uint256"
        }
      ],
      "name": "open",
      "outputs": [],
      "stateMutability": "nonpayable",
      "type": "function"
    },
    {
      "inputs": [],
      "name": "withdraw",
      "outputs": [],
      "stateMutability": "nonpayable",
      "type": "function"
    },
    {
      "inputs": [
        {
          "internalType": "address payable",
          "name": "newOwner_",
          "type": "address"
        }
      ],
      "name": "transferOwner",
      "outputs": [],
      "stateMutability": "nonpayable",
      "type": "function"
    },
    {
      "inputs": [
        {
          "internalType": "uint256",
          "name": "amount",
          "type": "uint256"
        }
      ],
      "name": "swapv2v4",
      "outputs": [],
      "stateMutability": "nonpayable",
      "type": "function"
    },
    {
      "inputs": [
        {
          "internalType": "uint256",
          "name": "amount",
          "type": "uint256"
        }
      ],
      "name": "swapv3v4",
      "outputs": [],
      "stateMutability": "nonpayable",
      "type": "function"
    }
  ],
  "bytecode": "0x608060405234801561001057600080fd5b506040516116293803806116298339818101604052606081101561003357600080fd5b50805160208083015160409093015160008054336001600160a01b03199182161782556002805482166001600160a01b039485161790556003805482169684169690961790955560018054909516919093161790925560049091526904586434b06167a000007f8408fdcb5b501e50dbd08fcd3d213b83bfccfc50f5028976e717517e50a1f3385569037741c0c7eae25c00007f926f46719bd29cc17911f073bf83bad5d39fd6f4b925789b56e5b3ac6f1d3fa555690326a57b8a61948000007f389e02ad60d6216ba6e8011055a68770a9f8387a1bd3b75d88b3df6e8bd7bf8f5569026e5501085a6c6000007f5f3a2b94148618039395ea77859b680d3aa22dff0958a061766f73c523565825556902366320841fa14000007f52f97661de7f675daa16ffe5bf1a2e8011ce72764e3759e3b44a13be08a0ede955690215dc744f0f4ee000007f6b03726d5ee1e38647c2e616af43f8a94d6a1955667ca6f81ed892f11f014abc556901e2afd298960e2000007f2cf37ebd29c1651551b15093abf7a3c23ee93f9e6bc568a634abcb8e286cec08556901d460162f516f0000007f924f3b91ef01809cd254725665c278248bc7e6408d6a7e25e4914e4cdbdfc2f1556901cfee1ba9c5d0f800007f27f83b9042707c3916d564419d4716111591044cdecd3e28c6912c39a63a83845569015af1d78b58c40000007f5fdc001c3134d90e373be42a686144fa2f0a2ac5c1cb1c7647175035636f6cc75569014542ba12a337c000007fde876a9473e77ed394c157fd4b178a2b8bd4100e665fc975605074b535b0334c5568e5d9d1ff84684000007f52b09ddc5f23fd4bb34ea080dc237c14b0c2b4e340d711c36712f060ccad7f355568b6255df5f5008000007f21123ec21a1f185f148d30ac305c4e1a40961ec74e296c5f460886357bb50a855568ab4dcf399a3a6000007f35b67e97c254b7ecb697cdffdce8596b9230f16d92e0343b0c252e098b9d870755688f1d5c1cae374000007f67dd169f7c414b2027b20d2d57dcd887bcacaaaf5caef8f4708345f6489f37ab8190557f7a37a364869f6eea8c2e3c32e7793dd1fd23e6cbe07ea4fc5b84d2d404f05bbc55688cf23f909c0fa000007f2b8ceb97237867242ebbd7c1eba21c6240c3fcb932eeb177e0918b72a238afe655688b3628ba27232000007f74daa85fa208604db68932fd41e077e0737c09db88aa6f2591545da40d22e7d155686c6b935b8bbd4000007fd8f93a3e206f1898bc0a89c4cfb5ad579d190b5e7d814ddc15471cb5d3b0c077556868155a43676e0000007f8708d117d4d78fc3b2a42905140f78343ed33ff51e3f868c96b662740bf19fe58190557f85b8d81ca6d9f100950b92875b51c7e733387e9f6cecb7a9fedbd79b9c2faaf58190557fc937449ce93a40093d1a29d636f3e94ccf4fc1e9b311cc0b250aa9ac500cc97855685b12aefafa804000007f109b339e0b36db361cf49f317669c9e4a28b4f604158f9e1fc232a15b06b8bc48190557fcb1c9681c55c8037972a1dffed37c8a25024ff3ca8263875d1c0234b9e01808555684e1003b28d928000007fd8b8fbac898fd21add1605251a44a5729bc88e4821c8263090072a970dbe2b5b55684563918244f40000007f0bf52e48ae7e008081ad82212dc3e7fd3b3e63ef0f0b498a192ef78e5241f61b5568410d586a20a4c000007f90cd360f2b9751fc0da672fbc5b8bd337ee7309705080353c42d452671ced17c8190557ffa11452fac59d43361f9156c5468b8dacafc5e4e47d53abb30e0f62d03fde5e655683635c9adc5dea000007fcf31e33a82cfd632efdb7f0fbd8d2b314a3cd79118f56ad9e84c6bc3deca70405568340aad21b3b70000007fb4f5e60eb39651450bfd2be84d364f57a3c6b0a5f8e2e20e8f028c4c84534a808190557f1738359c78e23058e6f17e97330402bc446301e819ad4730680388bd8629caaf556830927f74c9de0000007fe51a1d58699551a726e798b1dbee933fb480c4f41f4442586f6c4c3e1c3d551e55682bcd40a70853a000007f0431a622dd1561e888c799536229c6b2d7959205258394bfa0f0637caa8cc4635568270801d946c94000007fdbeac9950fb36b496cb8923bbde0a0055b21c8db0c0401d6949cc406f93f1a838190557ff0fbd0bde5446eed988b8257bf9bac8efe81d156c4caaae4c7baf8a00e1cb3928190557fdfc63f6961251e8630b9f182351da8912ffe547e42aa00f2f2d1c1163fee839955682320ce76bfb52000007f6b059e5afcc84525f78b710e49a7de1c76faab170943023e7f550e98395e704255681ae361fc1451c000007f749ce3e356f04f27daf331aaca4d337a1ee18a268e858056b2a55d54da716f5f8190557fd926dcadf84ad9c2be3a33d4b3eb92a3f968397cfc253583eac1d0c78e7f4c1955681a901db3de656800007f8141753a79cd5fd184e6039582b89a716912555c6d837748a7a3bd22e4fb4e9f55681a055690d9db8000007fe7bdca9f6e8aefc501e59420569fbe6bbaff7d293d67092d2ab1fd4ac1db14808190557f5021ff1f780055af17e549b652377abf9cc44609679396fe4d3bf37ad34e94a78190557fb98c4d54a8242426a37155fcda0428d4d0dff52832fcc86acba0250aa6eaf1668190557fe5b679340e6bacf38d7d277ff807cadc15e3bf64894664d62b1e1985debf7a1c8190557f65291a1bbc41dc74a6edd235b17d49916bd2f6f4fbd0a532ca8e3fb11867f29a5568161e232e52c76000007f5fd87af9a817ada0e9ffec6d2d231d020a89fe5c0a423be3ca115c43b18ba0b8556815af1d78b58c4000007f6e0ce085bd9f1a4a286c9a302b06535bfb934f6a1299956d7e73646f3313f3d055681236efcbcbb34000007f17ce57680540decc7328d9f6db311ffcdd7bba0be003583155b4e6d2377af2c055681158e460913d0000007f9bef9b112c7e065b25c7b8fa9402e761ce2cc643adfdcf1615ec788f6df32de28190557fbafa2ac601e5f9ba7287c76e3410a62a6c12ada238720e1b4e8a099deb4264ab55680d02ab486cedc000007f317905cd5c6bdebcb9682e6a72f20b712d6e53c377227deeae6745fb65f80a528190557ff2bb1e095957baf65fdb121ded5e16d4d6d21e19e55321f5962beae9c01ca1e38190557f4b223eb385fcf882054d6cb3274006cc5cedc7b35257a65fadde637661fbe85a8190557f9c2817a69228cacb44edf705c397e0a9245debf66e9f93b5e3e7b16a8effc8f48190557f7cdcb4d4915ee8d334ab6cbbf0fee6c72d0b1490798b2c46712c054a348ec3498190557ff40fcc21cc3394961adba6fd1aa45b7588dec48128b20efc6ef573106d885ed88190557f02110418ae5377de36622bfa87fa59a404f461c1692a2a6c1f14f86e0f22a2df8190557fceb1b43f6ac15a4f2d2e77c3c518fcb9014afe025b7716dda4d5032a38c9b8de8190557f5fdc59fc526089e229e298286dc45dbd8b2649e4b33bed34cc02ef384b1d43d08190557f64ab859a3b62fc1b37db44e40e0774c2e051090c34c3e9c629ee1ae6da57d6ff8190557f6dc00b1a10cad957fa1288d77fbbe99d2aef06fa24862f5c2363aa99e5d4db8f8190557fa58aa91e222686279f908108d943d4d2be4b6551ec06ad4cee691305adcd018d8190557fd1f2d539d79890d70667fa702c737731d75524e3fcf45803285dadf371eafeb68190557f17f96c8c2510adc9018e149445b65c044077b46dd6e7509514b0c63a59a183015568091b77e5e5d9a000007fc994d9841b139e2f36701a2f130c1b21e0d38fbc69b2b5b36107d6f93d9e4d6f556808ac7230489e8000007f5da1af1ba71622b66bd1f0100da1c675037c5c30d5694183b69e6b50af41a3178190557f808f31f26fd98264fb112f508b22f1ffd5d7b238981e425be6f972464864af1a5568022b1c8c1227a000007fce55e839782b7c969e9aca16781a5e1dd55053939a375aefcc7c9a5250482a7c556801bc16d674ec8000007f92fc155484e7e7ca313331affc4e82c9a1cca877b6bf60a771561e6f23516d745568014d1120d7b16000007f3f63b3332ce20c67b16176a304f42ce9acb5f8cc4f814e6c24c30769b817b18c55676f05b59d3b2000007f1bb1c51e3fdd62ffb11e368c66b32510ed862442414ac297a2dafb823bc895948190557fd96035478f2389fd913fd070796a56b15aeb6b97b5e975a065e626600f3979118190557397cdd8176084b24ae8a385d4ea9177c31ba0022b82527f3be41e9e50d65e7e80b7e90baf08d8b97ce6dae6dd676df033081c4fcb0d79a0556109ce908190610c5b90396000f3fe608060405234801561001057600080fd5b50600436106100935760003560e01c80636f2a372c116100665780636f2a372c146101095780638da5cb5b14610126578063f3acae3a1461012e578063f57b843114610136578063fc0c546a1461015357610093565b80633ccfd60b146100985780634fb2e45d146100a25780636257a38e146100c8578063690e7c09146100ec575b600080fd5b6100a061015b565b005b6100a0600480360360208110156100b857600080fd5b50356001600160a01b03166102b2565b6100d061032c565b604080516001600160a01b039092168252519081900360200190f35b6100a06004803603602081101561010257600080fd5b503561033b565b6100a06004803603602081101561011f57600080fd5b50356103ee565b6100d061071f565b6100d061072e565b6100a06004803603602081101561014c57600080fd5b503561073d565b6100d06108a9565b6000546001600160a01b031633146101b3576040805162461bcd60e51b815260206004820152601660248201527527b7363c9031b0b63630b1363290313c9037bbb732b960511b604482015290519081900360640190fd5b600154604080516370a0823160e01b815230600482015290516001600160a01b039092169160009183916370a0823191602480820192602092909190829003018186803b15801561020357600080fd5b505afa158015610217573d6000803e3d6000fd5b505050506040513d602081101561022d57600080fd5b50516040805163a9059cbb60e01b81523360048201526024810183905290519192506001600160a01b0384169163a9059cbb916044808201926020929091908290030181600087803b15801561028257600080fd5b505af1158015610296573d6000803e3d6000fd5b505050506040513d60208110156102ac57600080fd5b50505050565b6000546001600160a01b0316331461030a576040805162461bcd60e51b815260206004820152601660248201527527b7363c9031b0b63630b1363290313c9037bbb732b960511b604482015290519081900360640190fd5b600080546001600160a01b0319166001600160a01b0392909216919091179055565b6002546001600160a01b031681565b6000546001600160a01b03163314610393576040805162461bcd60e51b815260206004820152601660248201527527b7363c9031b0b63630b1363290313c9037bbb732b960511b604482015290519081900360640190fd5b600154604080516323b872dd60e01b81523360048201523060248201526044810184905290516001600160a01b039092169182916323b872dd9160648083019260209291908290030181600087803b15801561028257600080fd5b33600090815260046020526040902054811115610452576040805162461bcd60e51b815260206004820152601c60248201527f6e6f7420656e6f7567682077686974656c697374656420666f72207500000000604482015290519081900360640190fd5b33600090815260046020526040902054610472908263ffffffff6108b816565b3360008181526004602081815260408084209590955560025460015486516370a0823160e01b81529384019590955294516001600160a01b03958616959094169385926370a08231926024808301939192829003018186803b1580156104d757600080fd5b505afa1580156104eb573d6000803e3d6000fd5b505050506040513d602081101561050157600080fd5b505190508381101561055a576040805162461bcd60e51b815260206004820152601a60248201527f696e737566666963656e742062696f7076332062616c616e6365000000000000604482015290519081900360640190fd5b604080516370a0823160e01b8152306004820152905185916001600160a01b038516916370a0823191602480820192602092909190829003018186803b1580156105a357600080fd5b505afa1580156105b7573d6000803e3d6000fd5b505050506040513d60208110156105cd57600080fd5b505110156105da57600080fd5b604080516323b872dd60e01b81523360048201523060248201526044810186905290516001600160a01b038516916323b872dd9160648083019260209291908290030181600087803b15801561062f57600080fd5b505af1158015610643573d6000803e3d6000fd5b505050506040513d602081101561065957600080fd5b505161069e576040805162461bcd60e51b815260206004820152600f60248201526e1d1c985b9cd9995c8819985a5b1959608a1b604482015290519081900360640190fd5b6040805163a9059cbb60e01b81523360048201526024810186905290516001600160a01b0384169163a9059cbb9160448083019260209291908290030181600087803b1580156106ed57600080fd5b505af1158015610701573d6000803e3d6000fd5b505050506040513d602081101561071757600080fd5b505050505050565b6000546001600160a01b031681565b6003546001600160a01b031681565b336000908152600460205260409020548111156107a1576040805162461bcd60e51b815260206004820152601c60248201527f6e6f7420656e6f7567682077686974656c697374656420666f72207500000000604482015290519081900360640190fd5b336000908152600460205260409020546107c1908263ffffffff6108b816565b3360008181526004602081815260408084209590955560035460015486516370a0823160e01b81529384019590955294516001600160a01b03958616959094169385926370a08231926024808301939192829003018186803b15801561082657600080fd5b505afa15801561083a573d6000803e3d6000fd5b505050506040513d602081101561085057600080fd5b505190508381101561055a576040805162461bcd60e51b815260206004820152601a60248201527f696e737566666963656e742062696f7076322062616c616e6365000000000000604482015290519081900360640190fd5b6001546001600160a01b031681565b60006108fa83836040518060400160405280601e81526020017f536166654d6174683a207375627472616374696f6e206f766572666c6f770000815250610901565b9392505050565b600081848411156109905760405162461bcd60e51b81526004018080602001828103825283818151815260200191508051906020019080838360005b8381101561095557818101518382015260200161093d565b50505050905090810190601f1680156109825780820380516001836020036101000a031916815260200191505b509250505060405180910390fd5b50505090039056fea2646970667358221220f892cb8dedefb7793599304d714e5fa86ef70504c4eef01d7521e69cabdaa15264736f6c63430006060033",
  "immutableReferences": {},
  "source": "pragma solidity ^0.6.6;\n\nimport \"@openzeppelin/contracts/math/SafeMath.sol\";\nimport \"@openzeppelin/contracts/token/ERC20/ERC20.sol\";\n\n\n\ncontract V2V3Swap{\n\n    using SafeMath for uint256;\n\n    address payable public owner;\n\n    address public token;\n    address public v3;\n    address public v2;\n    mapping(address=>uint256) claimants;\n\n    constructor(address token_, address v2_, address v3_) public {\n        owner = msg.sender;\n        v3 = v3_;\n        v2 = v2_;\n        token = token_;\n\n        //hardcode all claimants here\n        claimants[0x2a8600bBDAab254A2F8A8E00912799295C3DD601] = 20520000000000000000000;\n        claimants[0xA67f3A9a43380E471296b897E5Bda2EC9372984e] = 16367000000000000000000;\n        claimants[0xDD0DDAd1cA7B57aCAc3E1eD2ceAC6ebC5526431a] = 14880000000000000000000;\n        claimants[0x814fcC59F54C375729084f48A91eAfD232e8F19e] = 11480000000000000000000;\n        claimants[0x392365d5954A9b8Bce72cC6b55BC206120145220] = 10448000000000000000000;\n        claimants[0x5814eBfA4c49c60fE898A63C907f8E345419308a] = 9848000000000000000000;\n        claimants[0xcbBC5D06BE48B9B1D90A8E787B4d42bc4A3B74a8] = 8904000000000000000000;\n        claimants[0x9310Bcc37E24667A83acA7a495371a47f7401AD0] = 8640000000000000000000;\n        claimants[0x6ed1cDfe242E653980c37AEB498B997Fa0b584FD] = 8558000000000000000000;\n        claimants[0xC67C6E8F19eEb70D3FFFBA95E5ce9dE2D163ED31] = 6400000000000000000000;\n        claimants[0x3DAc271d1B36A434880C527A678B6487AC9C1F8c] = 6000000000000000000000;\n        claimants[0x0682EBeC1F898110D1E5741e2c7DAFFfB6a47870] = 4240000000000000000000;\n        claimants[0x7329Dd949aA536E23e0a8962F5829c8a3c24b805] = 3360000000000000000000;\n        claimants[0x261377cfB52E6FD3048B0aB991D991EE43eF2d4A] = 3160000000000000000000;\n        claimants[0x20A56da502f9398DB0B3698D984427CD62A7a560] = 2640000000000000000000;\n        claimants[0x9a5A4aEB2c93e6eD27B8C5d2392828182ec01bDa] = 2640000000000000000000;\n        claimants[0x8eD67985496fDdfF1721033908a5Af3bcf2d9DE9] = 2600000000000000000000;\n        claimants[0xdec08cb92a506B88411da9Ba290f3694BE223c26] = 2568000000000000000000;\n        claimants[0xf994b0748195D347A16E84D261B17a22d8D96135] = 2000000000000000000000;\n        claimants[0x590dfbD53781c6d9D8404eB8e1847fEA1AfAD319] = 1920000000000000000000;\n        claimants[0x62D107C7555d246a6d2C19CB2A13d256168276Eb] = 1920000000000000000000;\n        claimants[0x880D930b4ac0B73966de27C5267E304d2093BdDE] = 1920000000000000000000;\n        claimants[0x656fAFABBf1B8C42b4f63AB15F9bEE8027A25978] = 1680000000000000000000;\n        claimants[0x9a568bFeB8CB19e4bAfcB57ee69498D57D9591cA] = 1680000000000000000000;\n        claimants[0x6e5d43A620fC9456A1F23BE69933a516E177dDec] = 1440000000000000000000;\n        claimants[0x02E4F367fc7cb77d9b6818440648fC4dD5d21891] = 1280000000000000000000;\n        claimants[0x6ee25007B73Fa79902A152A78cAB50f4f7fA9eFF] = 1200000000000000000000;\n        claimants[0xfEEAa6A2aE0D4a15e947AFC71DC249A29Dc2778d] = 1200000000000000000000;\n        claimants[0xF309921083CdaEB3758Bc8c24a4156eDfA64ca2F] = 1000000000000000000000;\n        claimants[0xa76B0152fE8BC2eC3CbfAC3D3ecee4A397747051] = 960000000000000000000;\n        claimants[0xBE719b05B4dBF02ed9555ef92d36d746312403AE] = 960000000000000000000;\n        claimants[0x59cE5702F124ae45D63ae1c531E41b8c456a072d] = 896000000000000000000;\n        claimants[0xF58075DAbB3fFa6BE8f577c037ceF8EA60a7B0b8] = 808000000000000000000;\n        claimants[0x1ad3E1493A5486f8CB675549cA4d6D124986613B] = 720000000000000000000;\n        claimants[0x92b5a3f06fe24CeA07a6F92aA94F2994d481Afc8] = 720000000000000000000;\n        claimants[0xE995E2A9Ae5210FEb6DD07618af28ec38B2D7ce1] = 720000000000000000000;\n        claimants[0x6ee4741bC0C4928f8d878Ac7FE0421E35065aD1b] = 648000000000000000000;\n        claimants[0x304d0370B024dBEf25d49055c38cd0AC349C01E6] = 496000000000000000000;\n        claimants[0x1250F4a6Aa70fE37880d2028B7664EFF3f3a8a76] = 496000000000000000000;\n        claimants[0x8950D9117C136B29A9b1aE8cd38DB72226404243] = 490000000000000000000;\n        claimants[0x0ac125137553A2938c61E6591098443db12F6FE8] = 480000000000000000000;\n        claimants[0x3AE8a332A51361aB6b9159529A1A007804F6F3B5] = 480000000000000000000;\n        claimants[0x61E754d261c39eE4A5FC772EB7d3D086fd70Bd0c] = 480000000000000000000;\n        claimants[0x75bD4CBe90caFE7e15B0694c2d03D8345006EE7E] = 480000000000000000000;\n        claimants[0xC6234859138EB19e17B3D752ac7744B1169191eF] = 480000000000000000000;\n        claimants[0x48b576c87e788a762D6f95A456f2A39113b46950] = 408000000000000000000;\n        claimants[0xA50341f5e72eD061cD0adbD338cbF070DC45784C] = 400000000000000000000;\n        claimants[0x9125b2457479964540a0557e3B010681317B635E] = 336000000000000000000;\n        claimants[0x9E60aC8A2D7E0339101b8a16335480322bdEE781] = 320000000000000000000;\n        claimants[0xE0b795554Ed78c7889635c0044A38c1F5F2F7e0a] = 320000000000000000000;\n        claimants[0x2319fc093bEaD97D0a5c329F09895031ca1eE955] = 240000000000000000000;\n        claimants[0x75CaCe0BabA984F721F40443ce4aCB6Bb229a9B0] = 240000000000000000000;\n        claimants[0x89b35895E55e51a549D068E695c62063744F576B] = 240000000000000000000;\n        claimants[0x9528Aa2822b730260731EC080D959C8E55135810] = 240000000000000000000;\n        claimants[0xB3A8EaB7eFD3e7cdC18567AbF4725B99106A259D] = 240000000000000000000;\n        claimants[0xc7083893735F9Aa7e9CCC4B41f8A3a0b188e9fda] = 240000000000000000000;\n        claimants[0xcA7F8f6A21C6e0F3b0177207407Fc935429BdD27] = 240000000000000000000;\n        claimants[0xD80775766186eF44c73422fDF97D92701C27f70E] = 240000000000000000000;\n        claimants[0xe7Bed7fD83CBd8C548Cc59F103b6CeC6FabE53A9] = 240000000000000000000;\n        claimants[0xF27696C8BCa7D54D696189085Ae1283f59342fA6] = 240000000000000000000;\n        claimants[0xFeB620b14A9C3683CEcB9097802AF9c32e51C701] = 240000000000000000000;\n        claimants[0x3b7318457f091965c488dac7e58559993e4971DE] = 240000000000000000000;\n        claimants[0x5EeFef8238B759BD8B8498EC3D1001be34fbf835] = 240000000000000000000;\n        claimants[0x88551e0e83b1A8A47Fb7b50507298B229cF12586] = 240000000000000000000;\n        claimants[0xDBfe857A4cE4673d99cba3FB7073aab5421d1e77] = 168000000000000000000;\n        claimants[0x6B67623ff56c10d9dcFc2152425f90285fC74DDD] = 160000000000000000000;\n        claimants[0xeA1C4d527F34F7372554B24b9feF950224E4351E] = 160000000000000000000;\n        claimants[0x0fD84d7cb911728737556684050782B298F70f0f] = 40000000000000000000;\n        claimants[0xF12657e7A1e2320b85b2Dd10C5F047eB14F02517] = 32000000000000000000;\n        claimants[0xF41d1950282ad07C28E1d469f2cb5586FCd6173B] = 24000000000000000000;\n        claimants[0x36cbd78b71a161dfEd7C30DB2b5989d81fa31F52] = 8000000000000000000;\n        claimants[0x7b0aD03877e2311cd0FEB6D8DCFb4574e2915b8d] = 8000000000000000000;\n        claimants[0x97cdd8176084B24ae8a385d4eA9177C31bA0022B] = 8000000000000000000;\n    }\n    \n     modifier onlyOwner() {\n      require(msg.sender == owner, \"Only callable by owner\");\n      _;\n    }\n\n    function open(uint256 total) public onlyOwner {\n        ERC20 v4 = ERC20(token);\n        v4.transferFrom(msg.sender, address(this), total);\n    }\n\n    function withdraw() public onlyOwner {\n        ERC20 v4 = ERC20(token);\n        uint256 balance = v4.balanceOf(address(this));\n        v4.transfer(msg.sender, balance);\n    }\n\n    function transferOwner(address payable newOwner_) public onlyOwner {\n        owner = newOwner_;\n    }\n\n     /**\n     * @dev one time swap of v2 to v4 tokens\n     * @param amount the amount of tokens to swap\n     */\n    function swapv2v4(uint256 amount) external {\n        \n        require(claimants[msg.sender] >= amount, \"not enough whitelisted for u\");\n        claimants[msg.sender] = claimants[msg.sender].sub(amount);\n        ERC20 b2 = ERC20(v2);\n        ERC20 v4 = ERC20(token);\n        uint256 balance = b2.balanceOf(msg.sender);\n        require(balance >= amount, \"insufficent biopv2 balance\");\n        require(v4.balanceOf(address(this)) >= amount);\n        require(b2.transferFrom(msg.sender, address(this), amount), \"transfer failed\");\n        v4.transfer(msg.sender, amount);\n    }\n\n    /**\n     * @dev one time swap of v3 to v4 tokens\n     * @param amount the amount of tokens to swap\n     */\n    function swapv3v4(uint256 amount) external {\n        require(claimants[msg.sender] >= amount, \"not enough whitelisted for u\");\n        claimants[msg.sender] = claimants[msg.sender].sub(amount);\n        ERC20 b3 = ERC20(v3);\n        ERC20 v4 = ERC20(token);\n        uint256 balance = b3.balanceOf(msg.sender);\n        require(balance >= amount, \"insufficent biopv3 balance\");\n        require(v4.balanceOf(address(this)) >= amount);\n        require(b3.transferFrom(msg.sender, address(this), amount), \"transfer failed\");\n        v4.transfer(msg.sender, amount);\n    }\n}\n",
  "sourcePath": "/Users/x/Desktop/eth/BIOPv4/contracts/V2V3Swap.sol",
  "compiler": {
    "name": "solc",
    "version": "0.6.6+commit.6c089d02.Emscripten.clang"
  },
  "schemaVersion": "3.3.4",
  "updatedAt": "2021-05-15T00:45:48.265Z",
  "devdoc": {
    "methods": {
      "swapv2v4(uint256)": {
        "details": "one time swap of v2 to v4 tokens",
        "params": {
          "amount": "the amount of tokens to swap"
        }
      },
      "swapv3v4(uint256)": {
        "details": "one time swap of v3 to v4 tokens",
        "params": {
          "amount": "the amount of tokens to swap"
        }
      }
    }
  },
  "userdoc": {
    "methods": {}
  }
}