{
  "contractName": "V2V3Claim",
  "abi": [
    {
      "inputs": [
        {
          "internalType": "address",
          "name": "token_",
          "type": "address"
        }
      ],
      "stateMutability": "nonpayable",
      "type": "constructor"
    },
    {
      "inputs": [],
      "name": "token",
      "outputs": [
        {
          "internalType": "address",
          "name": "",
          "type": "address"
        }
      ],
      "stateMutability": "view",
      "type": "function"
    },
    {
      "inputs": [],
      "name": "v2",
      "outputs": [
        {
          "internalType": "address",
          "name": "",
          "type": "address"
        }
      ],
      "stateMutability": "view",
      "type": "function"
    },
    {
      "inputs": [],
      "name": "v3",
      "outputs": [
        {
          "internalType": "address",
          "name": "",
          "type": "address"
        }
      ],
      "stateMutability": "view",
      "type": "function"
    },
    {
      "inputs": [
        {
          "internalType": "uint256",
          "name": "total",
          "type": "uint256"
        }
      ],
      "name": "open",
      "outputs": [],
      "stateMutability": "nonpayable",
      "type": "function"
    },
    {
      "inputs": [],
      "name": "withdraw",
      "outputs": [],
      "stateMutability": "nonpayable",
      "type": "function"
    },
    {
      "inputs": [
        {
          "internalType": "address payable",
          "name": "newOwner_",
          "type": "address"
        }
      ],
      "name": "transferOwner",
      "outputs": [],
      "stateMutability": "nonpayable",
      "type": "function"
    },
    {
      "inputs": [],
      "name": "claim",
      "outputs": [],
      "stateMutability": "nonpayable",
      "type": "function"
    }
  ],
  "bytecode": "0x608060405234801561001057600080fd5b506040516105613803806105618339818101604052602081101561003357600080fd5b5051600080546001600160a01b031990811633178255600180546001600160a01b0390941693909116929092179091557359ce5702f124ae45d63ae1c531e41b8c456a072d90526004602052629896807fe51a1d58699551a726e798b1dbee933fb480c4f41f4442586f6c4c3e1c3d551e556104ad806100b46000396000f3fe608060405234801561001057600080fd5b506004361061007d5760003560e01c80636257a38e1161005b5780636257a38e146100ba578063690e7c09146100de578063f3acae3a146100fb578063fc0c546a146101035761007d565b80633ccfd60b146100825780634e71d92d1461008c5780634fb2e45d14610094575b600080fd5b61008a61010b565b005b61008a610262565b61008a600480360360208110156100aa57600080fd5b50356001600160a01b031661031d565b6100c2610397565b604080516001600160a01b039092168252519081900360200190f35b61008a600480360360208110156100f457600080fd5b50356103a6565b6100c2610459565b6100c2610468565b6000546001600160a01b03163314610163576040805162461bcd60e51b815260206004820152601660248201527527b7363c9031b0b63630b1363290313c9037bbb732b960511b604482015290519081900360640190fd5b600154604080516370a0823160e01b815230600482015290516001600160a01b039092169160009183916370a0823191602480820192602092909190829003018186803b1580156101b357600080fd5b505afa1580156101c7573d6000803e3d6000fd5b505050506040513d60208110156101dd57600080fd5b50516040805163a9059cbb60e01b81523360048201526024810183905290519192506001600160a01b0384169163a9059cbb916044808201926020929091908290030181600087803b15801561023257600080fd5b505af1158015610246573d6000803e3d6000fd5b505050506040513d602081101561025c57600080fd5b50505050565b33600090815260046020526040902054806102b7576040805162461bcd60e51b815260206004820152601060248201526f6e6f7468696e6720746f20636c61696d60801b604482015290519081900360640190fd5b336000818152600460208181526040808420849055600154815163a9059cbb60e01b81529384019590955260248301869052516001600160a01b0390941693849363a9059cbb936044808201949392918390030190829087803b15801561023257600080fd5b6000546001600160a01b03163314610375576040805162461bcd60e51b815260206004820152601660248201527527b7363c9031b0b63630b1363290313c9037bbb732b960511b604482015290519081900360640190fd5b600080546001600160a01b0319166001600160a01b0392909216919091179055565b6002546001600160a01b031681565b6000546001600160a01b031633146103fe576040805162461bcd60e51b815260206004820152601660248201527527b7363c9031b0b63630b1363290313c9037bbb732b960511b604482015290519081900360640190fd5b600154604080516323b872dd60e01b81523360048201523060248201526044810184905290516001600160a01b039092169182916323b872dd9160648083019260209291908290030181600087803b15801561023257600080fd5b6003546001600160a01b031681565b6001546001600160a01b03168156fea264697066735822122014a59ff843df410fdb52eafe5a1e3e9e97e0d11a1b5d9bd2a84db9edf4afb97664736f6c63430006060033",
  "immutableReferences": {},
  "source": "pragma solidity 0.6.6;\n\nimport \"@openzeppelin/contracts/math/SafeMath.sol\";\nimport \"@openzeppelin/contracts/token/ERC20/ERC20.sol\";\n\ncontract V2V3Claim{\n\n    using SafeMath for uint256;\n\n    address payable owner;\n\n    address public token;\n    address public v3;\n    address public v2;\n    mapping(address=>uint256) claimants;\n\n    constructor(address token_) public {\n      owner = msg.sender;\n\n      token = token_;\n\n      //hardcode all claimants here\n      claimants[0x59cE5702F124ae45D63ae1c531E41b8c456a072d] = 10000000;\n    }\n\n     modifier onlyOwner() {\n      require(msg.sender == owner, \"Only callable by owner\");\n      _;\n    }\n\n    function open(uint256 total) public onlyOwner {\n\n      ERC20 v4 = ERC20(token);\n      v4.transferFrom(msg.sender, address(this), total);\n    }\n\n    function withdraw() public onlyOwner {\n        ERC20 v4 = ERC20(token);\n        uint256 balance = v4.balanceOf(address(this));\n        v4.transfer(msg.sender, balance);\n    }\n\n    function transferOwner(address payable newOwner_) public onlyOwner {\n        owner = newOwner_;\n    }\n\n     /**\n     * @dev one time claim\n     * @notice you can only claim once\n     */\n    function claim() external {\n        uint256 toSend = claimants[msg.sender];\n        require(toSend > 0, \"nothing to claim\");\n        claimants[msg.sender] = 0;\n        ERC20 v4 = ERC20(token);\n        v4.transfer(msg.sender, toSend);\n    }\n}\n",
  "sourcePath": "/Users/x/Desktop/eth/BIOPv4/contracts/V2V3Claim.sol",
  "compiler": {
    "name": "solc",
    "version": "0.6.6+commit.6c089d02.Emscripten.clang"
  },
  "schemaVersion": "3.3.4",
  "updatedAt": "2021-05-21T05:15:36.129Z",
  "devdoc": {
    "methods": {
      "claim()": {
        "details": "one time claim"
      }
    }
  },
  "userdoc": {
    "methods": {
      "claim()": {
        "notice": "you can only claim once"
      }
    }
  }
}