{
  "contractName": "Vesting",
  "abi": [
    {
      "inputs": [
        {
          "internalType": "address payable",
          "name": "claimant_",
          "type": "address"
        },
        {
          "internalType": "address",
          "name": "tokenAddress_",
          "type": "address"
        }
      ],
      "stateMutability": "nonpayable",
      "type": "constructor"
    },
    {
      "inputs": [],
      "name": "claimed",
      "outputs": [
        {
          "internalType": "uint256",
          "name": "",
          "type": "uint256"
        }
      ],
      "stateMutability": "view",
      "type": "function"
    },
    {
      "inputs": [],
      "name": "period",
      "outputs": [
        {
          "internalType": "uint256",
          "name": "",
          "type": "uint256"
        }
      ],
      "stateMutability": "view",
      "type": "function"
    },
    {
      "inputs": [],
      "name": "startTime",
      "outputs": [
        {
          "internalType": "uint256",
          "name": "",
          "type": "uint256"
        }
      ],
      "stateMutability": "view",
      "type": "function"
    },
    {
      "inputs": [],
      "name": "tokenAddress",
      "outputs": [
        {
          "internalType": "address",
          "name": "",
          "type": "address"
        }
      ],
      "stateMutability": "view",
      "type": "function"
    },
    {
      "inputs": [],
      "name": "total",
      "outputs": [
        {
          "internalType": "uint256",
          "name": "",
          "type": "uint256"
        }
      ],
      "stateMutability": "view",
      "type": "function"
    },
    {
      "inputs": [
        {
          "internalType": "address payable",
          "name": "new_",
          "type": "address"
        }
      ],
      "name": "updateClaimant",
      "outputs": [],
      "stateMutability": "nonpayable",
      "type": "function"
    },
    {
      "inputs": [
        {
          "internalType": "uint256",
          "name": "amount",
          "type": "uint256"
        },
        {
          "internalType": "uint256",
          "name": "period_",
          "type": "uint256"
        }
      ],
      "name": "start",
      "outputs": [],
      "stateMutability": "nonpayable",
      "type": "function"
    },
    {
      "inputs": [],
      "name": "collect",
      "outputs": [
        {
          "internalType": "uint256",
          "name": "",
          "type": "uint256"
        }
      ],
      "stateMutability": "nonpayable",
      "type": "function"
    }
  ],
  "bytecode": "0x60806040526006805460ff1916905534801561001a57600080fd5b5060405161078e38038061078e8339818101604052604081101561003d57600080fd5b508051602090910151600180546001600160a01b039384166001600160a01b0319918216179091556000805493909216921691909117905561070a806100846000396000f3fe608060405234801561001057600080fd5b50600436106100885760003560e01c80639d76ea581161005b5780639d76ea58146100fa578063e52253811461011e578063e834a83414610126578063ef78d4fd1461012e57610088565b80632ddbd13a1461008d57806378e97925146100a75780638fb4b573146100af5780639bfff802146100d4575b600080fd5b610095610136565b60408051918252519081900360200190f35b61009561013c565b6100d2600480360360408110156100c557600080fd5b5080359060200135610142565b005b6100d2600480360360208110156100ea57600080fd5b50356001600160a01b031661022f565b61010261029a565b604080516001600160a01b039092168252519081900360200190f35b6100956102a9565b6100956104c4565b6100956104ca565b60035481565b60045481565b60065460ff161561018c576040805162461bcd60e51b815260206004820152600f60248201526e185b1c9958591e481cdd185c9d1959608a1b604482015290519081900360640190fd5b60008054604080516323b872dd60e01b81523360048201523060248201526044810186905290516001600160a01b039092169283926323b872dd926064808201936020939283900390910190829087803b1580156101e957600080fd5b505af11580156101fd573d6000803e3d6000fd5b505050506040513d602081101561021357600080fd5b50506006805460ff191660011790555060025560035542600455565b6001546001600160a01b031633146102785760405162461bcd60e51b81526004018080602001828103825260238152602001806106b26023913960400191505060405180910390fd5b600180546001600160a01b0319166001600160a01b0392909216919091179055565b6000546001600160a01b031681565b6001546000906001600160a01b031633146102f55760405162461bcd60e51b81526004018080602001828103825260238152602001806106b26023913960400191505060405180910390fd5b600061030c600454426104d090919063ffffffff16565b6000546002549192506001600160a01b0316908211156103d157600061033f6005546003546104d090919063ffffffff16565b6003546005556001546040805163a9059cbb60e01b81526001600160a01b0392831660048201526024810184905290519293509084169163a9059cbb916044808201926020929091908290030181600087803b15801561039e57600080fd5b505af11580156103b2573d6000803e3d6000fd5b505050506040513d60208110156103c857600080fd5b506104be915050565b6002546000906103e7908463ffffffff61051916565b905060006104008260035461051990919063ffffffff16565b9050610417600554826104d090919063ffffffff16565b60055490915061042d908263ffffffff61055b16565b6005556001546040805163a9059cbb60e01b81526001600160a01b0392831660048201526024810184905290519185169163a9059cbb916044808201926020929091908290030181600087803b15801561048657600080fd5b505af115801561049a573d6000803e3d6000fd5b505050506040513d60208110156104b057600080fd5b509094506104c19350505050565b50505b90565b60055481565b60025481565b600061051283836040518060400160405280601e81526020017f536166654d6174683a207375627472616374696f6e206f766572666c6f7700008152506105b5565b9392505050565b600061051283836040518060400160405280601a81526020017f536166654d6174683a206469766973696f6e206279207a65726f00000000000081525061064c565b600082820183811015610512576040805162461bcd60e51b815260206004820152601b60248201527f536166654d6174683a206164646974696f6e206f766572666c6f770000000000604482015290519081900360640190fd5b600081848411156106445760405162461bcd60e51b81526004018080602001828103825283818151815260200191508051906020019080838360005b838110156106095781810151838201526020016105f1565b50505050905090810190601f1680156106365780820380516001836020036101000a031916815260200191505b509250505060405180910390fd5b505050900390565b6000818361069b5760405162461bcd60e51b81526020600482018181528351602484015283519092839260449091019190850190808383600083156106095781810151838201526020016105f1565b5060008385816106a757fe5b049594505050505056fe4f776e61626c653a2063616c6c6572206973206e6f742074686520636c61696d616e74a2646970667358221220dde2575b4a93fd9617d8d4d54f962d7ffcef6781ff53ef9d0a1c544c745f4fd964736f6c63430006060033",
  "immutableReferences": {},
  "source": "pragma solidity ^0.6.6;\n\nimport \"@openzeppelin/contracts/math/SafeMath.sol\";\nimport \"@openzeppelin/contracts/token/ERC20/ERC20.sol\";\n\n\n\ncontract Vesting{\n\n    using SafeMath for uint256;\n    address public tokenAddress;\n    address payable claimant;\n    uint256 public period;\n    uint256 public total;//total tokens to send over vesting period\n    uint256 public startTime;//start time of the vesting\n    uint256 public claimed;//amount claimed so far\n    bool started = false;\n\n    constructor(address payable claimant_, address tokenAddress_) public {\n        claimant = claimant_;\n\n        tokenAddress = tokenAddress_;\n    }\n\n     /**\n    * @dev set the new claimant\n    * @param new_ the new claimant's address\n    */\n    function updateClaimant(address payable new_) public onlyClaimant {\n        claimant = new_;\n    }\n\n    modifier onlyClaimant() {\n        require(claimant == msg.sender, \"Ownable: caller is not the claimant\");\n        _;\n    }\n\n    function start(uint256 amount, uint256 period_) public {\n        require(started == false, \"already started\");\n        ERC20 token = ERC20(tokenAddress);\n        token.transferFrom(msg.sender, address(this), amount);\n        started = true;\n        period = period_;\n        total = amount;\n        startTime = block.timestamp;\n    }\n\n    function collect() public onlyClaimant returns(uint256) {\n        uint256 elapsed = block.timestamp.sub(startTime);\n        ERC20 token = ERC20(tokenAddress);\n        if (elapsed > period) {\n            //vesting totally complete\n            uint256 amount = total.sub(claimed);\n            claimed = total;\n            token.transfer(claimant, amount);\n        } else {\n            uint256 perComplete = period.div(elapsed);\n            uint256 amount = total.div(perComplete);\n            amount = amount.sub(claimed);\n            claimed = claimed.add(amount);\n            token.transfer(claimant, amount);\n            return amount;\n        }\n    }\n}\n",
  "sourcePath": "/Users/x/Desktop/eth/BIOPv4/contracts/Vesting.sol",
  "compiler": {
    "name": "solc",
    "version": "0.6.6+commit.6c089d02.Emscripten.clang"
  },
  "schemaVersion": "3.3.4",
  "updatedAt": "2021-05-15T00:45:48.273Z",
  "devdoc": {
    "methods": {
      "updateClaimant(address)": {
        "details": "set the new claimant",
        "params": {
          "new_": "the new claimant's address"
        }
      }
    }
  },
  "userdoc": {
    "methods": {}
  }
}