{
  "contractName": "Vesting",
  "abi": [
    {
      "inputs": [
        {
          "internalType": "address payable",
          "name": "claimant_",
          "type": "address"
        },
        {
          "internalType": "address",
          "name": "tokenAddress_",
          "type": "address"
        }
      ],
      "stateMutability": "nonpayable",
      "type": "constructor"
    },
    {
      "inputs": [],
      "name": "claimed",
      "outputs": [
        {
          "internalType": "uint256",
          "name": "",
          "type": "uint256"
        }
      ],
      "stateMutability": "view",
      "type": "function"
    },
    {
      "inputs": [],
      "name": "period",
      "outputs": [
        {
          "internalType": "uint256",
          "name": "",
          "type": "uint256"
        }
      ],
      "stateMutability": "view",
      "type": "function"
    },
    {
      "inputs": [],
      "name": "startTime",
      "outputs": [
        {
          "internalType": "uint256",
          "name": "",
          "type": "uint256"
        }
      ],
      "stateMutability": "view",
      "type": "function"
    },
    {
      "inputs": [],
      "name": "tokenAddress",
      "outputs": [
        {
          "internalType": "address",
          "name": "",
          "type": "address"
        }
      ],
      "stateMutability": "view",
      "type": "function"
    },
    {
      "inputs": [],
      "name": "total",
      "outputs": [
        {
          "internalType": "uint256",
          "name": "",
          "type": "uint256"
        }
      ],
      "stateMutability": "view",
      "type": "function"
    },
    {
      "inputs": [
        {
          "internalType": "address payable",
          "name": "new_",
          "type": "address"
        }
      ],
      "name": "updateClaimant",
      "outputs": [],
      "stateMutability": "nonpayable",
      "type": "function"
    },
    {
      "inputs": [
        {
          "internalType": "uint256",
          "name": "amount",
          "type": "uint256"
        },
        {
          "internalType": "uint256",
          "name": "period_",
          "type": "uint256"
        }
      ],
      "name": "start",
      "outputs": [],
      "stateMutability": "nonpayable",
      "type": "function"
    },
    {
      "inputs": [],
      "name": "collect",
      "outputs": [
        {
          "internalType": "uint256",
          "name": "",
          "type": "uint256"
        }
      ],
      "stateMutability": "nonpayable",
      "type": "function"
    }
  ],
  "bytecode": "0x60a06040526005805460ff1916905534801561001a57600080fd5b50604051610b23380380610b238339818101604052604081101561003d57600080fd5b508051602090910151600080546001600160a01b0319166001600160a01b03938416178155606082901b6001600160601b031916608052911690610a8b9061009890398061018e528061025052806102db5250610a8b6000f3fe608060405234801561001057600080fd5b50600436106100885760003560e01c80639d76ea581161005b5780639d76ea58146100fa578063e52253811461011e578063e834a83414610126578063ef78d4fd1461012e57610088565b80632ddbd13a1461008d57806378e97925146100a75780638fb4b573146100af5780639bfff802146100d4575b600080fd5b610095610136565b60408051918252519081900360200190f35b61009561013c565b6100d2600480360360408110156100c557600080fd5b5080359060200135610142565b005b6100d2600480360360208110156100ea57600080fd5b50356001600160a01b03166101e3565b61010261024e565b604080516001600160a01b039092168252519081900360200190f35b610095610272565b61009561042d565b610095610433565b60025481565b60035481565b60055460ff161561018c576040805162461bcd60e51b815260206004820152600f60248201526e185b1c9958591e481cdd185c9d1959608a1b604482015290519081900360640190fd5b7f00000000000000000000000000000000000000000000000000000000000000006101c86001600160a01b03821633308663ffffffff61043916565b506005805460ff191660019081179091555560025542600355565b6000546001600160a01b0316331461022c5760405162461bcd60e51b81526004018080602001828103825260238152602001806109c26023913960400191505060405180910390fd5b600080546001600160a01b0319166001600160a01b0392909216919091179055565b7f000000000000000000000000000000000000000000000000000000000000000081565b600080546001600160a01b031633146102bc5760405162461bcd60e51b81526004018080602001828103825260238152602001806109c26023913960400191505060405180910390fd5b60006102d36003544261049990919063ffffffff16565b6001549091507f00000000000000000000000000000000000000000000000000000000000000009082111561034e57600061031b60045460025461049990919063ffffffff16565b600254600455600054909150610344906001600160a01b0384811691168363ffffffff6104e416565b925061042a915050565b600080610367606460015461053b90919063ffffffff16565b90505b83156103ab578084106103a157610387848263ffffffff61049916565b935061039a82600163ffffffff61057d16565b91506103a6565b600093505b61036a565b60006103e56004546103d9856103cd606460025461053b90919063ffffffff16565b9063ffffffff6105d716565b9063ffffffff61049916565b6004549091506103fb908263ffffffff61057d16565b60045560005461041e906001600160a01b0386811691168363ffffffff6104e416565b945061042a9350505050565b90565b60045481565b60015481565b604080516001600160a01b0380861660248301528416604482015260648082018490528251808303909101815260849091019091526020810180516001600160e01b03166323b872dd60e01b179052610493908590610630565b50505050565b60006104db83836040518060400160405280601e81526020017f536166654d6174683a207375627472616374696f6e206f766572666c6f7700008152506106e1565b90505b92915050565b604080516001600160a01b038416602482015260448082018490528251808303909101815260649091019091526020810180516001600160e01b031663a9059cbb60e01b179052610536908490610630565b505050565b60006104db83836040518060400160405280601a81526020017f536166654d6174683a206469766973696f6e206279207a65726f00000000000081525061077d565b6000828201838110156104db576040805162461bcd60e51b815260206004820152601b60248201527f536166654d6174683a206164646974696f6e206f766572666c6f770000000000604482015290519081900360640190fd5b6000826105e6575060006104de565b828202828482816105f357fe5b04146104db5760405162461bcd60e51b8152600401808060200182810382526021815260200180610a0b6021913960400191505060405180910390fd5b6060610685826040518060400160405280602081526020017f5361666545524332303a206c6f772d6c6576656c2063616c6c206661696c6564815250856001600160a01b03166107e29092919063ffffffff16565b805190915015610536578080602001905160208110156106a457600080fd5b50516105365760405162461bcd60e51b815260040180806020018281038252602a815260200180610a2c602a913960400191505060405180910390fd5b600081848411156107705760405162461bcd60e51b81526004018080602001828103825283818151815260200191508051906020019080838360005b8381101561073557818101518382015260200161071d565b50505050905090810190601f1680156107625780820380516001836020036101000a031916815260200191505b509250505060405180910390fd5b50508183035b9392505050565b600081836107cc5760405162461bcd60e51b815260206004820181815283516024840152835190928392604490910191908501908083836000831561073557818101518382015260200161071d565b5060008385816107d857fe5b0495945050505050565b60606107f184846000856107f9565b949350505050565b60608247101561083a5760405162461bcd60e51b81526004018080602001828103825260268152602001806109e56026913960400191505060405180910390fd5b61084385610955565b610894576040805162461bcd60e51b815260206004820152601d60248201527f416464726573733a2063616c6c20746f206e6f6e2d636f6e7472616374000000604482015290519081900360640190fd5b60006060866001600160a01b031685876040518082805190602001908083835b602083106108d35780518252601f1990920191602091820191016108b4565b6001836020036101000a03801982511681845116808217855250505050505090500191505060006040518083038185875af1925050503d8060008114610935576040519150601f19603f3d011682016040523d82523d6000602084013e61093a565b606091505b509150915061094a82828661095b565b979650505050505050565b3b151590565b6060831561096a575081610776565b82511561097a5782518084602001fd5b60405162461bcd60e51b815260206004820181815284516024840152845185939192839260440191908501908083836000831561073557818101518382015260200161071d56fe4f776e61626c653a2063616c6c6572206973206e6f742074686520636c61696d616e74416464726573733a20696e73756666696369656e742062616c616e636520666f722063616c6c536166654d6174683a206d756c7469706c69636174696f6e206f766572666c6f775361666545524332303a204552433230206f7065726174696f6e20646964206e6f742073756363656564a26469706673582212202634edec3367acd0d59d8d05c43ce8e385124b1f391ba7c6a08503c20cdfdf1a64736f6c63430006060033",
  "immutableReferences": {
    "6443": [
      {
        "length": 32,
        "start": 398
      },
      {
        "length": 32,
        "start": 592
      },
      {
        "length": 32,
        "start": 731
      }
    ]
  },
  "source": "pragma solidity 0.6.6;\n\nimport \"@openzeppelin/contracts/math/SafeMath.sol\";\nimport \"@openzeppelin/contracts/token/ERC20/IERC20.sol\";\nimport \"@openzeppelin/contracts/token/ERC20/SafeERC20.sol\";\n\n\n\ncontract Vesting{\n\n    using SafeMath for uint256;\n    using SafeERC20 for IERC20;\n    address public immutable tokenAddress;\n    address payable claimant;\n    uint256 public period;//total length of the vesting period\n    uint256 public total;//total tokens to send over vesting period\n    uint256 public startTime;//start time of the vesting\n    uint256 public claimed;//amount claimed so far\n    bool started = false;\n\n    constructor(address payable claimant_, address tokenAddress_) public {\n        claimant = claimant_;\n\n        tokenAddress = tokenAddress_;\n    }\n\n     /**\n    * @dev set the new claimant\n    * @param new_ the new claimant's address\n    */\n    function updateClaimant(address payable new_) public onlyClaimant {\n        claimant = new_;\n    }\n\n    modifier onlyClaimant() {\n        require(claimant == msg.sender, \"Ownable: caller is not the claimant\");\n        _;\n    }\n\n    function start(uint256 amount, uint256 period_) public {\n        require(started == false, \"already started\");\n        IERC20 token = IERC20(tokenAddress);\n        token.safeTransferFrom(msg.sender, address(this), amount);\n        started = true;\n        period = period_;\n        total = amount;\n        startTime = block.timestamp;\n    }\n\n    function collect() public onlyClaimant returns(uint256) {\n        uint256 elapsed = block.timestamp.sub(startTime);\n        IERC20 token = IERC20(tokenAddress);\n        if (elapsed > period) {\n            //vesting totally complete\n            uint256 amount = total.sub(claimed);\n            claimed = total;\n            token.safeTransfer(claimant, amount);\n            return amount;\n        } else {\n            uint256 percentDone;\n            uint256 onePercent = period.div(100);\n            while (elapsed > 0) {\n                if (elapsed >= onePercent) {\n                    elapsed = elapsed.sub(onePercent);\n                    percentDone = percentDone.add(1);\n                } else {\n                    elapsed = 0;\n                }\n            }\n            uint256 amount = (total.div(100).mul(percentDone)).sub(claimed);    \n            \n            claimed = claimed.add(amount);\n            token.safeTransfer(claimant, amount);\n            return amount;\n        }\n    }\n}\n",
  "sourcePath": "/Users/x/Desktop/eth/BIOPv4/contracts/Vesting.sol",
  "compiler": {
    "name": "solc",
    "version": "0.6.6+commit.6c089d02.Emscripten.clang"
  },
  "schemaVersion": "3.3.4",
  "updatedAt": "2021-06-17T00:58:54.250Z",
  "devdoc": {
    "methods": {
      "updateClaimant(address)": {
        "details": "set the new claimant",
        "params": {
          "new_": "the new claimant's address"
        }
      }
    }
  },
  "userdoc": {
    "methods": {}
  }
}